:020000040000FA
:0400000080317028B3
:100008007E1480314E01961A8C1E1828FD0A043081
:100018007C06031D1228A931DF218031B2304B0143
:100028009C004E018C126E28161A0C1E34287E0174
:10003800BF1F2328A931DF2180317E01BF133F1E56
:100048002A28AA31102280317E013F12BF1E312892
:10005800AA31102280317E01BF124E010C126E2887
:100068000B1F6E281A18101C672842016A084001E5
:10007800A300420169084001A2004201680840014A
:10008800A100420167084001A00001304201E707D2
:100098000030E83DE93DEA3D40012002CA30213BFD
:1000A8009A30223B3B30233B031C5F284201E70187
:1000B800E801E901EA01CF3044018D002B308C00C2
:1000C8004E0110106E28991A8F1E6E28873124272A
:1000D8004E018F127E100900803172280130EB002A
:1000E8004301EF0044016430DE004030DF01E001ED
:1000F800E101E201E3001430E4005430E5004A3045
:10010800840027308500A630FE00FF01A0311120B1
:100118008031FC01FD014001E801E901EA014101EA
:100128006330ED01EE01EF018400013085000D30F0
:10013800FE00FF01A03111208031E0308400013041
:1001480085000F30FE00FF01A031112080312030E2
:100158008400023085002730FE00FF01A031112005
:100168008031A0308400023085003830FE00FF0165
:10017800A031112080317E104001C2284201DC01EB
:10018800DD01DE01DF01E101E10AE001E201983170
:100198003620803140019916F921803183220230BE
:1001A80093317D238031013093317D238031AA3111
:1001B800DE2280319A158C1FE428AA315122803121
:1001C800640098317E20803142015F084001A70019
:1001D80042015E084001A60042015D084001A500F9
:1001E80042015C084001A400A02180312708031DBA
:1001F80007292608031D07292508031D0729063096
:100208002402031C132942016A08DF006908DE0082
:100218006808DD006708DC00A431A0248031992239
:100228008031003A03191E299A3104228031420193
:10023800E001E00A4201610803192E296008031948
:100248003229A031C02080318B31402380314201D6
:10025800E10132298C2380314201E1004C248031B4
:10026800003A0319442942016A08E6006908E500D2
:100278006808E4006708E3009531C42580314B29FC
:1002880042016208031D4B29AB31B2238031420180
:1002980062080319702966084001A7004201650831
:1002A8004001A600420164084001A500420163081C
:1002B8004001A400A02180312708031D70292608C9
:1002C800031D7029B03024020430253B031870291F
:1002D80042010C30E2019229420166084001A70060
:1002E800420165084001A600420164084001A500DA
:1002F800420163084001A400A02180312708031DA2
:100308008E292608031D8E29B13024020430253B8E
:10031800031C952942010830E201E20A93317D234A
:10032800803134304101EC00F130890B9929EC0B14
:10033800992900320000E42842016A084001B3000C
:10034800420169084001B200420168084001B10059
:10035800420167084001B00027083302031DBE2987
:1003680026083202031DBE2925083102031DBE29B5
:1003780024083002031CD42924083002A8002508C8
:10038800313BA9002608323BAA002708333BAB00C3
:10039800A7002A08A6002908A5002808A400080024
:1003A8000130A800CA30A9009A30AA003B30AB003F
:1003B80024083002AC002508313BAD002608323B4A
:1003C800AE002708333BAF002C08A8072D08A93D2D
:1003D8002E08AA3D2F08AB3D2B08A7002A08A60027
:1003E8002908A5002808A400080019121911991154
:1003F80041304001AA00EE30890B002AAA0B002ADE
:1004080000004001991019109A121A120330933102
:100418009123803107304001AA007D30890B122AD0
:10042800AA0B122A083093319123803107304001FA
:10043800AA007D30890B1E2AAA0B1E2A023093318E
:100448009123803107304001AA007D30890B2A2A88
:10045800AA0B2A2A023093319123803107304001B8
:10046800AA007D30890B362AAA0B362A0830933128
:100478009123803107304001AA007D30890B422A40
:10048800AA0B422A083093317D238031073040017E
:10049800AA007D30890B4E2AAA0B4E2A01309331CF
:1004A8007D23803107304001AA007D30890B5A2A0C
:1004B800AA0B5A2A063093317D2380310730400138
:1004C800AA007D30890B662AAA0B662A023093316E
:1004D8007D23803107304001AA007D30890B722AC4
:1004E800AA0B722A0C3093317D23803107304001EA
:1004F800AA007D30890B7E2AAA0B7E2A0800483084
:1005080093317D238031AA012A08DC3E8400B03073
:100518000318013E85000008973164278031203098
:10052800AA0A2A0203180800882A4A3086002730B7
:1005380087004D31403F4101AD00413FAE00423F91
:10054800AF00433FB000C130B400F030B300B20197
:10055800B1018E31B1268031031CCA2A4230B00065
:100568007030AF004A30AE01AD01860027308700F9
:100578004D31403FB100413FB200423FB300433FDD
:10058800B4008E31B12680310318D02A733086002A
:10059800273087000112D52A73308600273087005C
:1005A80001166F08031D122B440161084001A700C2
:1005B800440160084001A60044015F084001A5000D
:1005C80044015E084001A400A02180312708031DD2
:1005D800F72A2608031DF72A2508031DF72A643081
:1005E8002402031C122B42016A084401B100420193
:1005F80069084401B000420168084401AF004201A3
:1006080067084401AE003108E1003008E0002F0817
:10061800DF002E08DE003F305E24003441016F0BFE
:100628000034440131084001A7004401300840016A
:10063800A60044012F084001A50044012E084001EE
:10064800A400A02180312708031D342B2608031D90
:10065800342B2508031D342B15302402031C402B92
:100668004101EF01842380317330860027308700F1
:10067800811D00340A30802B4101EF01AA3044016A
:100688003806031D792B3A0B792B4A308600273020
:1006980087003B08C03F3C08C13F3D08C23F3E08B9
:1006A800C33F44313F08C03F4008C13F4108C23FF3
:1006B8004208C33F4A308600273087004831430844
:1006C800C03F4408C13F4508C23F4608C33F3908F8
:1006D8004101B9005630860027308700390881006B
:1006E800733086000130811508007330860027308A
:1006F8008700811D00340B308111A431312400346E
:1007080042011D121D169D139D174001E9010800A5
:10071800430160080319A22B42016A084401AD0095
:10072800420169084401AC00420168084401AB0079
:10073800420167084401AA004301E00144012D0871
:100748004001A70044012C084001A60044012B08E1
:100758004001A50044012A084001A400A02127085F
:10076800BB002608BA002508B9002408B800BC0157
:100778000930AC003C088E318D268031A83E8600B9
:10078800023087000108B400B501B601B701370887
:100798003B02031DD92B36083A02031DD92B350815
:1007A8003902031DD92B340838020930031CDE2B0B
:1007B800AF011E2CAC003C088E318D268031A73E3F
:1007C8008600023087000108B400B501B601B70100
:1007D80037083B02031DFA2B36083A02031DFA2B91
:1007E80035083902031DFA2B34083802031C2B2C58
:1007F8000930AC003C088E318D268031A83E860039
:10080800023087000108B400B501B601B701370806
:100818003B02031D192C36083A02031D192C350812
:100828003902031D192C3408380203182B2C0930FF
:10083800AF01AF0AAC003C088E318D268031A03E56
:100848008600023087000108A4315D24803104301D
:10085800BC0A3C02031CBC2B3B08031D3D2C3A0878
:10086800031D3D2C3908031D3D2C64303802031C40
:10087800492C4301E001E00A4001181C9818482C53
:100888001819482C981D492C0000430160080800DD
:1008980041016D084001680603195A2C6808203E7A
:1008A8008600023087000108A4005B2CA401A50182
:1008B800240808004001A400240842019A0000000E
:1008C8004E010F1A0800642C003093315B238431E9
:1008D80040016B080319792CDF30AF01B000B2304A
:1008E800B100003097313027843167304101B900B9
:1008F8002730BA004130BB01BC01BD01BE01C200B6
:100908002030C1003F30C001BF01C6000030C50122
:10091800C401C3019731742784314A3086002730D7
:1009280087005D31403F4101BA00413FBB00423F73
:10093800BC00433FBD000430BE00E530BF01BF0A24
:100948008A311B2284314001BF30AF01AF0AB000A9
:10095800B330B1000030973130278431E530AF0132
:10096800AF0AB0000130B10006309731302784312A
:10097800E630AF01AF0AB000B330B1000A309731AA
:100988003027843197315C278431013A031D0134C3
:1009980036260034003093315B23843140016B08E4
:1009A8000319DF2CC530AF01B000B230B100003000
:1009B8009731302784316B304101B9002730BA00B4
:1009C800C230BE004830BD00C130BC01BB01C2000E
:1009D800A030C1003F30C001BF01C6008030C50053
:1009E8000030C401C3019731742784316B3086000D
:1009F80027308700403F4101BA00413FBB00423FDA
:100A0800BC00433FBD000330BE00E530BF018A3162
:100A18001B2284314001C430AF01AF0AB000B330AB
:100A2800B1000030973130278431E530AF01AF0A8B
:100A3800B0000130B10001309731302784315E3089
:100A4800AF01AF0AB000B330B1000430973130279E
:100A5800843197315C278431013A031D01343626ED
:100A68000034003093315B23843140016B08031953
:100A7800462DCF30AF01B000B030B1000030973113
:100A8800302784316F304101B9002730BA003D303A
:100A9800BE00CC30BD00BC00CD30BB004030C20031
:100AA800A030C1003D30C001BF01C600CC30C50038
:100AB800C400CD30C3009731742784316F3086006D
:100AC80027308700403F4101BA00413FBB00423F09
:100AD800BC00433FBD000330BE00E530BF01BF0A84
:100AE8008A311B2284314001C430AF01AF0AB00003
:100AF800B330B1000030973130278431E530AF0191
:100B0800AF0AB0000130B10001309731302784318D
:100B18006730AF01AF0AB000B330B100043097318D
:100B28003027843197315C278431013A031D013421
:100B380036260034003093315B23843140016B0842
:100B48000319AF2DEC30AF01B000B230B100003066
:100B580097313027843189304101B9002730BA00F4
:100B68006E084001AF001F30B001B100B2018A31F8
:100B7800062284312F084101E0004001300841017C
:100B8800E1006008B9076108BA3D3F30BE00803017
:100B9800BD004130BC01BB01C2008030C1003F3004
:100BA800C001BF01C6000030C501C401C3019731AF
:100BB8007427843141016E084001AF001F30B00135
:100BC800B100B2018A310622843189304101E00046
:100BD8002730E10040012F084101600786004001ED
:100BE80030084101613D8700403FE200413FE3009A
:100BF800423FE400433FE500BD006408BC006308D1
:100C0800BB006208BA000430BE00E530BF01BF0A6D
:100C18008A311B2284314001C430AF01AF0AB000D1
:100C2800B330B1000030973130278431E530AF015F
:100C3800AF0AB0000130B10001309731302784315C
:100C48007930AF01AF0AB000B330B1000530973149
:100C58003027843197315C278431013A031D0134F0
:100C6800362600348930860027308700403F42010D
:100C7800A000413FA100423FA200433FA300A8308B
:100C88008600403FA400413FA500423FA600433FE5
:100C9800A700C7308600403FA800413FA900423F57
:100CA800AA00433FAB00E6308600403FAC00413F1E
:100CB800AD00423FAE00433FAF004A3086005D3191
:100CC800403FB000413FB100423FB200433FB30054
:100CD8006B30860027308700403FB400413FB500A5
:100CE800423FB600433FB7006F308600403FB80030
:100CF800413FB900423FBA00433FBB004001B30146
:100D08003308203E8600013087000108B100B20197
:100D18003335A03E860087013108C03F3208C13F05
:100D28002030B30A3302031C842E8030A4003F30E5
:100D3800A500A62684318030A7003F30A800A03047
:100D4800A900C52E00308B1B0130A6008B13240888
:100D580050019A004001250850019B001E131E16E1
:100D68001E1555309F00AA309F009E1400000000F9
:100D780050011E114001260C031C8B1303188B17FE
:100D88000800FF30AE003F30AF001F30AE06270826
:100D9800AE052808AF0500308B1B0130AD002F08C9
:100DA8002806031DD92E2E082706031D08008B13BD
:100DB8002808A5002708A400A626843150011E1380
:100DC8001E159E164001B001270850019A004001E7
:100DD800280850019B00400130352907AA008600E9
:100DE8008701010850019C00400130352907AA00FD
:100DF8008600403FAB00413FAC0050019D001F30D2
:100E080040013006031D0A2F50019E125530500133
:100E18009F00AA309F009E14000000004001A70A0E
:100E28000319A80A2030B00A3002031CE82E50012A
:100E38001E1140012D0C031C8B1303188B1708007F
:100E480042019D1C2B2F1D121D164301E20A42016F
:100E58001D1D322F9D139D174301E30A0F304001DA
:100E680069020318492F6908C43E860002308700CA
:100E780042011908810040016908C43E8600010842
:100E88004301E1064001E90A08004201190843014B
:100E980061060319512F4401BA0101304101EF00E5
:100EA8003830F0000230F100C430F2000F30F300A7
:100EB800F4017B2787310330383E860002308700F3
:100EC800403FF000413FF100423FF200433FF30052
:100ED8003F30F7008030F6000030F501F4019B2721
:100EE800031C00004301E1014001E9010800720808
:100EF800F8007108F7007008F6000130F3020030BE
:100F0800F43B730F8A2F740A0319080078088600C7
:100F1800023087000108F500F80A7608860077088D
:100F2800870075088100F60A0319F70A812F8030B7
:100F3800F801F9017205FA007F307305FB007A04A5
:100F480079047804031DAC2FF001F101F201F301DB
:100F58008030F801F9017605FA007F307705FB004B
:100F68007A0479047804031DBD2FF401F501F60114
:100F7800F701F31FD42F8030F801F901FA01FB00C3
:100F88007008F8027108F93B7208FA3B7308FB3BDA
:100F98007B08F3007A08F2007908F1007808F0007D
:100FA800F71FEB2F8030F801F901FA01FB007408F4
:100FB800F8027508F93B7608FA3B7708FB3B7B0893
:100FC800F7007A08F6007908F5007808F400803010
:100FD800F306F70677087302031D08007608720205
:100FE800031D080075087102031D080074087002CB
:020FF8000800EF
:10100000A431602CA431662CA4316C2CA431722C38
:1010120042016E0893315B23883140016B0803194A
:101022009C284101CF0104304F0203189C28400143
:10103200E230AF01B000B330B1000C30AC0041017E
:101042004F088D2697313027883141014F08013EE4
:101052004001A900E530AA01AA0A9231C5228831CD
:10106200E530AF01B0000130B1000C30AC004101FD
:101072004F088D26033E973130278831EF30AF017C
:10108200B000B330B1000C30AC0041014F088D26E6
:10109200043E97313027883141014F084001AF00AB
:1010A2001F30B001B100B2010622883189304101FE
:1010B200C7002730C80040012F08410147078600BA
:1010C200400130084101483D8700403FCB00413F8D
:1010D200CC00423FCD00433FCE00BD004D08BC00D6
:1010E2004C08BB004B08BA000430BE00E530BF011B
:1010F200BF0A1B2288314001E530AF01B000013048
:10110200B1000C30AC0041014F088D26063E9731EC
:1011120030278831EC30AF01B000B330B1000C3071
:10112200AC0041014F088D260A3E973130278831A5
:101132004101CF0A14284101CF0104304F020318A4
:10114200F829CB2940010630AF01AF0AB000B33015
:10115200B1000C30AC0041014F088D269731302789
:101162008831F5294001AB30AF01AF0AB000B2308F
:10117200B1000C30AC0041014F088D269731302769
:101182008831F5294F084001AF001F30B001B1008E
:10119200B2010622883180304101C7002730C800E1
:1011A20040012F08410147078600400130084101F4
:1011B200483D8700403FCB00413FCC00423FCD003D
:1011C200433FCE00BD004D08BC004C08BB004B089D
:1011D200BA000430BE00E530BF01BF0A1B228831CD
:1011E2004001E530AF01AF0AB0000130B1000C3070
:1011F200AC0041014F088D269731302788314101DB
:101202004F084001AF001F30B001B100B201062209
:10121200883191304101C7002730C80040012F08B2
:10122200410147078600400130084101483D8700DF
:10123200010B7A294001F230AF01AF0AB000B3309E
:10124200B1000C30AC0041014F088D26043E9731AD
:101252003027883141014F084001AF001F30B001F3
:10126200B100B201062288317C304101C70027302B
:10127200C80040012F08410147078600400130089D
:101282004101483D8700403FCB00413FCC00423FF7
:10129200CD00433FCE00BD004D08BC004C08BB0052
:1012A2004B08BA000430BE00E530BF01BF0A1B2262
:1012B20088314001E530AF01AF0AB0000130B10022
:1012C2000C30AC0041014F088D26063E9731302785
:1012D2008831F530AF01AF0AB000B330B1000C3045
:1012E200AC0041014F088D260A3E973130278831E4
:1012F200F52940017030AF01AF0AB000B330B10040
:101302000C30AC0041014F088D26043E9731302746
:101312008831F52940012030AF01AF0AB000B33067
:10132200B1000C30AC0041014F088D2697313027B7
:101332008831F52940019E30AF01AF0AB000B230CA
:10134200B1000C30AC0041014F088D269731302797
:101352008831F52940011330AF01AF0AB000B33034
:10136200B1000C30AC0041014F088D269731302777
:101372008831F52940013A30AF01AF0AB000B330ED
:10138200B1000C30AC0041014F088D269731302757
:101392008831F5294F084001AF001F30B001B1007C
:1013A200B2010622883192304101C7002730C800BD
:1013B20040012F08410147078600400130084101E2
:1013C200483D87000108C900CA014A08003A0319CA
:1013D200EB29BB2949088400063004020318BB2903
:1013E200A0310435003E82004101CF0A9E2804301C
:1013F2004001AA0042016E089331F5234201EE003A
:101402004101EE0042016E080800B301B4012F1C35
:101412000E2A3108B3073208B43DB135B20DB036E9
:10142200AF0C2F083004031D082A3408B00033081B
:10143200AF000800C600C101C10AC501C2013D08D2
:10144200B0003C08AF003B08AE003A08AD00B10165
:10145200B201B301B401B126883103185C2ABF304E
:101462004001C6008030C500C401C30141013D08EE
:101472004001CA0041013C084001C90041013B084A
:101482004001C80041013A084001C7009E3135269B
:10149200883146084101BD00400145084101BC00B8
:1014A200400144084101BB00400143084101BA0028
:1014B200C201C20ABE033D08B0003C08AF003B08AF
:1014C200AE003A08AD004130B4002030B300B201A2
:1014D200B101B1268831031C992A41304001DF0055
:1014E2002030DE00DD01DC0141013D084001E30066
:1014F20041013C084001E20041013B084001E1009A
:1015020041013A084001E000A531DA2588315F083F
:101512004101BD0040015E084101BC0040015D087F
:101522004101BB0040015C084101BA00C10A5C2ACA
:1015320041083F07C4003F080319BE0ABE033E0824
:1015420044020318AE2A45084607C000860001304F
:10155200870020308100C50A9F2A42080319352BD3
:1015620045084607C0008600013087002D30332B26
:101572003D08B3003C08B2003B08B1003A08B00095
:10158200B52788313008C3000A304001B100B201EA
:10159200410143084001AF00B001062288312F0803
:1015A200B5003008B600890D893B8909B700B8003B
:1015B2000130152738084101AB00400137084101CD
:1015C200AA00400136084101A90040013508410145
:1015D200A80041304001C6002030C500C401C3014B
:1015E20041013D084001CA0041013C084001C900D7
:1015F20041013B084001C80041013A084001C700CF
:101602009E313526883146084101AF004001450828
:101612004101AE00400144084101AD0040014308D0
:101622004101AC00822788312B08BD002A08BC008A
:101632002908BB002808BA0045084607C0008600F2
:10164200013087004308303E8100C50A440803196F
:10165200352B44083F06031D352B45084607C000BD
:1016620086002E308100C50AC403440FB92A4508FA
:101672004607C0008600013087008101080044014E
:10168200DD015D08533E860002308700810181033F
:101692005D08593E8600810181035D084101DB003E
:1016A2000930DC014001AC0044015D088D2688311F
:1016B200A03E86000230870041015B08C03F5C0803
:1016C200C13F44015D084001AF001F30B001B100CD
:1016D200B2010622883174304101DB002730DC0080
:1016E20040012F0841015B0786004001300841019B
:1016F2005C3D8700403FDD00413FDE00423FDF00AE
:10170200433FE00009304001AC0044015D088D26F2
:101712008831A23E86000230870041015D08C03F49
:101722005E08C13F5F08C23F6008C33F0930400105
:10173200AC0044015D088D268831A63E8600023049
:10174200870044015D084001AF001F30B001B100C5
:10175200B2010622883188304101DB002730DC00EB
:1017620040012F0841015B0784004001300841011C
:101772005C3D85000008810044010430DD0A5D0201
:10178200031C422B04304101C2000930C301C400D2
:101792000330C501C6001830C700A030AE3116268E
:1017A20088314401CF01D001D101D2015208CE00CB
:1017B2005108CD005008CC004F08CB004E08CA009B
:1017C2004D08C9004C08C8004B08C700D801D70112
:1017D200DD0109304001AC0044015D088D26A23EC6
:1017E200860002308700403FDC00413FDD00423F7F
:1017F200DE00433FDF0044014A084001E3004401A8
:1018020049084001E200440148084001E100440166
:1018120047084001E000AC31AF2488315F08440141
:10182200CA0040015E084401C90040015D0844014C
:10183200C80040015C084401C70040304101B000CB
:101842006030AF00AE01AD0144014E084001DF003F
:1018520044014D084001DE0044014C084001DD0016
:1018620044014B084001DC000930AC0044015D0832
:101872008D26A23E860002308700403FE000413FB5
:10188200E100423FE200433FE300AC31AF24883144
:101892005F084101B40040015E084101B30040010C
:1018A2005D084101B20040015C084101B100B1266E
:1018B2008831031C992C09304001AC0044015D08B9
:1018C2008D26A23E860002308700403FDC00413F69
:1018D200DD00423FDE00433FDF0044014E0840018D
:1018E200E30044014D084001E20044014C0840017C
:1018F200E10044014B084001E000AC31AF248831E3
:101902005F084401CE0040015E084401CD00400161
:101912005D084401CC0040015C084401CB0057083B
:10192200533E8600023087005D088100D70A122DDF
:101932004030B0006030AF00AE01AD01440152084A
:101942004001DF00440151084001DE00440150081B
:101952004001DD0044014F084001DC000930AC00C9
:1019620044015D088D26A23E860002308700403F7A
:10197200E000413FE100423FE200433FE300AC317F
:10198200AF2488315F084101B40040015E08410183
:10199200B30040015D084101B20040015C08410111
:1019A200B100B1268831031C122D09304001AC0070
:1019B20044015D088D26A23E860002308700403F2A
:1019C200DC00413FDD00423FDE00433FDF004401D7
:1019D20052084001E300440151084001E200440181
:1019E20050084001E10044014F084001E000AC31E1
:1019F200AF2488315F084401D20040015E084401EF
:101A0200D10040015D084401D00040015C0844015E
:101A1200CF005808593E8600023087005D088100D9
:101A2200D80A44010430DD0A5D02031CEA2B570880
:101A32004101C2000430C301C401C40AC501C60089
:101A42001030C7005330AE31162688314401580891
:101A52004101C200B530C301C401C40AC501C600B8
:101A62002930C7005930AE31162688314401DD01D4
:101A720057085D020318C62D5D08593E86000230E4
:101A820087000930811B952D4001AC0044015D089F
:101A9200593E860001088D268831A63E8600023016
:101AA20087000930AC0044015D08533E84000230D7
:101AB200850000088D268831A63E8400023085000C
:101AC200000801074101DB00DC01DC0D5C08803A03
:101AD200DD0080305D02031D702D65305B02093030
:101AE200031C952D4001AC0044015D08593E86005F
:101AF2000230870001088D268831A63E860002301A
:101B020087000930AC0044015D08533E8400023076
:101B1200850000088D268831A63E840002308500AB
:101B22000008643C810009304001AC0044015D08BA
:101B3200533E86000230870001088D268831A73E79
:101B420086000230870009308101AC0044015D0843
:101B5200533E860001088D268831A83E8600023059
:101B620087000930AC0044015D08533E8400023016
:101B7200850000088D268831A63E8400023085004B
:101B8200000881004401DD0A392DDD0158085D029B
:101B92000318012E09304001AC0044015D08593E92
:101BA20086000230870001088D268831A73E860014
:101BB200023087000930AC0044015D08593E8400C0
:101BC2000230850000088D268831A63E840002304E
:101BD20085000008643C81000930AC0044015D08C6
:101BE200593E86000230870001088D268831A83EC2
:101BF200860002308700643081004401DD0AC72D6F
:101C0200DD0109304001AC0044015D088D268831B8
:101C1200A03E860002308700403FAF00413FB00047
:101C22001F30B100B2010622883180304101DB0051
:101C32002730DC0040012F0841015B07860040018C
:101C4200300841015C3D870042304001DF00C8306E
:101C5200DE001F30DD01DC01B1000930B201AC0051
:101C620044015D088D268831A03E84000230850043
:101C7200003FAF00013FB0000622883178304101B9
:101C8200DD002730DE0040012F0841015D0784009E
:101C92004001300841015E3D8500003F4001C30024
:101CA200013FC400023FC500033FC6000930AC003B
:101CB20044015D088D268831A63E840002308500ED
:101CC2000008B5000130B601B701B8011527380880
:101CD200CA003708C9003608C8003508C7009E3157
:101CE200352688314608E3004508E2004408E10051
:101CF2004308E000A531DA2588315C08C03F5D0861
:101D0200C13F5E08C23F5F08C33F44010430DD0AA1
:101D12005D0203180800022E4001AE00AD012C083E
:101D22002E18AD07AC352C08AE18AD07AC352C0813
:101D32002E19AD07AC352C08AE19AD07AC352C0801
:101D42002E1AAD07AC352C08AE1AAD07AC352C08EF
:101D52002E1BAD07AC352C08AE1BAD072D080800B5
:101D62008030B501B6012F05B7007F303005B800CD
:101D72003808370436043504031DC32EAD01AE0105
:101D8200AF01B0018030B501B6013305B7007F3035
:101D92003405B8003808370436043504031DD52E3F
:101DA200B101B201B301B401B01FEC2E8030B50114
:101DB200B601B701B8002D08B5022E08B63B2F08B0
:101DC200B73B3008B83B3808B0003708AF003608D8
:101DD200AE003508AD00B41F032F8030B501B60147
:101DE200B701B8003108B5023208B63B3308B73B39
:101DF2003408B83B3808B4003708B3003608B200DC
:101E02003508B1008030B006B40634083002031D34
:101E1200080033082F02031D080032082E02031D9A
:101E2200080031082D020800BD003D08031DB81F3F
:101E32002A2F3509BF003609C0003709C100380909
:101E4200C200BF0A0319C00A0319C10A0319C20A50
:101E5200322F3808C2003708C1003608C0003508E2
:101E6200BF003808370436043504031D3D2FB50181
:101E7200B601B701B80108009630BE00FE30420537
:101E82000319542FBE0AC236C10CC00CBF0C3F2F1F
:101E92000130BE0ABF070030C03DC13DC23DC2365F
:101EA200C10CC00CBF0CFF3042050319622F492F31
:101EB20002303E02031C642FBE03BF35C00DC10DAC
:101EC200C20DC11F592F3E1CC113BE363E08BC00B5
:101ED200BB01BA01B9013908BF043A08C0043B0882
:101EE200C1043C08C2043D08031DB81F792FC21764
:101EF2004208B8004108B7004008B6003F08B500E4
:101F020008008030AB062F084001DF0041012E0897
:101F12004001DE0041012D084001DD0041012C0895
:101F22004001DC0041012B084001E30041012A0885
:101F32004001E200410129084001E1004101280875
:101F42004001E000AC31AF245F084101AB00400129
:101F52005E084101AA0040015D084101A90040015B
:101F62005C084101A80008000310320D330DB900CE
:101F72003908031DC12FB001B101B201B30108003C
:101F82003008B4003108B5003208B6003308B70093
:101F92001F30B736B60CB50CB40C890BCA2F3408F7
:101FA200B8009630B217B301B902B91FE42F39084D
:101FB200803A973E031CBC2FB336B20CB10CB00C66
:101FC200B90FDD2FF12F203039020318BC2F390849
:101FD2000319F12FB035B10DB20DB30DB903E82FCE
:101FE200380803190800B009B109B209B309B00AE7
:0E1FF2000319B10A0319B20A0319B30A080051
:102008003A0886003B0887000108BE003C088600A5
:102018003D0887000108BF0009304001AC004101BC
:102028003F088E318D269031A63E8600023087000B
:102038000930AC0041013E088E318D26A63E840051
:1020480002308500000801024101BA00BB01031CEF
:10205800BB0308007430CA002730CB006E0840016B
:10206800AF001F30B001B100B2018A3106229031B1
:102078002F084101CA07400130084101CB3D00301B
:102088005B23903141014A0886004B0887005E3186
:102098000103031957284A0886004B0887005E3158
:1020A8000108031D2F2940016B08031963284730D5
:1020B800AF01B000B330B10000303027903141019A
:1020C8004A08103EB90000304B3DBA00BE30BE0091
:1020D8008030BD00BC01BB014A0886004B08870060
:1020E8004431403FBF00413FC000423FC100433F31
:1020F800C2003E30C6008030C5000030C401C301B4
:102108007427903141014A0886004B0887005031F6
:10211800403F4001A400413FA500423FA600433F85
:10212800A700A801A901AA01AB01F5229031031C5F
:10213800C22841016E08013E4001A900E530AA010C
:10214800AA0AC5229031D430AF01AF0AB000B3302B
:10215800B100003030279031E530AF01AF0AB00050
:102168000130B100053030279031B130AF01AF0AEE
:10217800B000B330B10006303027003441014A08BE
:1021880086004B0887005031403FAD00413FAE000C
:10219800423FAF00433FB000B101B201B301B40107
:1021A8008E31B12690310318FD286E08013E40019A
:1021B800A900E530AA01AA0AC5229031D430AF019E
:1021C800AF0AB000B330B100003030279031E530AD
:1021D800AF01AF0AB0000130B100053030279031AF
:1021E800B830AF01AF0AB000B330B10006303027C5
:1021F80000344001C430AF01AF0AB000B330B100C1
:102208000030302741014A0886004B0887005031CA
:10221800403FBA00413FBB00423FBC00433FBD00C6
:102228000430BE00E530BF01BF0A8A311B2290315D
:102238004001E530AF01AF0AB0000130B100013014
:10224800302790318130AF01AF0AB000B330B10010
:102258000530302700344A0886004B0887000430D0
:102268005E310106031941294A0886004B08870098
:1022780003305E310106031D013440016B08031968
:102288005629F930AF01B000B230B1000030302724
:1022980090312D30AF01AF0AB000B330B10000303B
:1022A800302790315C279031023A031D00344101F8
:1022B8004A081E3EC80000304B3DC9004808860049
:1022C800490887000530810000347430C700273082
:1022D800C8006E084001AF001F30B001B100B20164
:1022E8008A31062290312F084101C7074001300882
:1022F8004101C83D42016D085B2390314101470807
:102308008600480887005E310103031993294708AE
:102318008600480887005E310108031D382A4001FD
:102328004730AF01B000B330B100003030279031F2
:10233800410147088600480887005031403F400166
:10234800A400413FA500423FA600433FA700A801C3
:10235800A901AA01AB01F5229031031CD529D5307A
:10236800AF01AF0AB000B330B10000303027903170
:1023780041016E08013E4001A900E530AA01AA0A00
:10238800C5229031E530AF01AF0AB0000130B1008D
:102398000430302790319130AF01AF0AB000B3302C
:1023A8000E2A410147088600480887005031403FFF
:1023B800AD00413FAE00423FAF00433FB000B10126
:1023C800B201B301B4018E31B12690310318112A3C
:1023D8004001D530AF01AF0AB000B330B1000030D2
:1023E8003027903141016E08013E4001A900E530D7
:1023F800AA01AA0AC5229031E530AF01AF0AB000A0
:102408000130B100043030279031A130AF01AF0A5C
:10241800B000B330B10005308A2A47088600480862
:1024280087005031403FBA00413FBB00423FBC00EB
:10243800433FBD000430BE00E530BF01BF0A8A310A
:102448001B2290314001E530AF01AF0AB0000130E6
:10245800B1000030302790317030AF01AF0AB000C2
:10246800B330B10004308A2A47088600480887003C
:1024780002305E310106031D502A40016A30AF0167
:10248800B000B230B100003030279031D230AF0107
:10249800AF0AB000B230882A47088600480887008B
:1024A80005305E310106031D682A40018430AF0102
:1024B800B000B230B100003030279031B830AF01F1
:1024C800AF0AB000B230882A47088600480887005B
:1024D80004305E31010603197A2A47088600480845
:1024E800870003305E310106031D8C2A40017730D6
:1024F800AF01B000B230B1000030302790319130D8
:10250800AF01AF0AB000B230B100003030279031CF
:102518004001EC30AF01B000B230B1000C303027D0
:10252800410147088600480887005531403FBA00F6
:10253800413FBB00423FBC00433FBD000430BE00EA
:10254800E530BF01BF0A8A311B2290314001E530D6
:10255800AF01AF0AB0000130B1000C303027903124
:102568009930AF01AF0AB000B330B1001130302755
:1025780090310230AA0042016D08F5234201ED00B6
:102588000800AC002A082C07AB0086000130870041
:10259800810129080319F12A2A080319F12AAA0333
:1025A8002A082C07AB008600013087000A30A400F7
:1025B800290843239031303E81000A30A4002908BD
:1025C8002B239031A900CD2AAA032A082C07AB0097
:1025D800860001308700203081002A08031908008E
:1025E800E82A8030AC01AD012605AE007F30270512
:1025F800AF002E042D042C04031D062BA401A501F5
:10260800A601A7018030AC01AD012A05AE007F30DC
:102618002B05AF002E042D042C04031D172BA80135
:10262800A901AA01AB012B082706031D252B2A089F
:102638002606031D252B29082506031D252B2808FA
:1026480024060319292B0310080003140800A50009
:10265800A70124080319412BA601A60AA41B362B9F
:10266800A435312BA73524082502031C3E2B24084A
:10267800A5022714A436A60B362B27080800A600A7
:102688000830A700A8012608A5000730A536890B41
:102698004A2B28352504A800A63524082802031C3F
:1026A800572B2408A802A70B472B2808080040012D
:1026B800B5006B080319080001307D239031023002
:1026C8007D23B6013508AF000C30B001B100B2016E
:1026D8008A31062290313008803A803C031D762BDF
:1026E8002F0836020318080018307D239031B60AE7
:1026F800662B4001A900A701290884239031CF2B1C
:10270800A800270C031C1912031819169911280E72
:102718000F39912390312808912B4001A6000139E7
:10272800A400A40D19082406FD39240699002608DA
:10273800A4000130A4362405A50019082506FE3991
:10274800250699002608A400A436A43624080139D1
:10275800A500A50EA50D1A082506DF3925069A003D
:102768002608A400A436A436A43624080139A500F6
:10277800A50E1A082506EF3925069A001030890B90
:10278800C32B0032400119151030890BC92B0032B8
:10279800400119110800141619129915191103305E
:1027A800890BD42B0000400119150330890BDA2B53
:1027B8000000003040010E1A0130A4001911033046
:1027C800890BE42B0000400119151030890BEA2B06
:1027D8000032400119112408031DD22B141299113B
:1027E80008004001AE004E0116126B279031AD0073
:1027F8002D0B222C2A08FF3EAB00FF3003180030B7
:10280800AC00803A803C031D0B2C2B082E020318C9
:10281800222C4001AE0AAF0118307D2390312730B9
:102828004001AB00F530890B172CAB0B172C40017E
:102838000C30AF0A2F0203183D2C102C0230400137
:102848002D06031D3D2C2E0803193D2CAE03AF01A8
:102858001C307D23903127304001AB00F530890BC7
:10286800332CAB0B332C40010C30AF0A2F02031C66
:102878002C2C4E01161640012E08080073308600D5
:1028880027308700010CC700C70C470C01394301EA
:102898006F060319602C73308600003081190130EF
:1028A800EF00811D5A2C4201EF015D2C03304201DB
:1028B800EF004001EB01EB0A42016F085B23903106
:1028C80040016B080319792C7E30AF01B000B0309D
:1028D800B100003030279031A930AF01AF0AB00005
:1028E800B330B10030303027903173308600273054
:1028F80087004A30011ECB2C8600403F4101BA00B8
:10290800413FBB00423FBC00433FBD000530BE0015
:10291800E530BF01BF0A8A311B2290314001E53002
:10292800AF01AF0AB0000130B1000030302790315C
:10293800DA30AF01AF0AB000B330B100053030274C
:102948004A308600273087004D31403F4101BA00A8
:10295800413FBB00423FBC00433FBD000330BE00C7
:10296800E530BF018A311B2290314001E530AF01CB
:10297800AF0AB0000130B100083030279031F8308C
:10298800AF01AF0AB000B330B1000B30F02C8600B5
:1029980027308700403F4101BA00413FBB00423F1A
:1029A800BC00433FBD000530BE00E530BF01BF0A93
:1029B8008A311B2290314001E530AF01AF0AB000E7
:1029C8000130B1000030302790318930AF01AF0AB3
:1029D800B000B330B100053030274A3086002730C8
:1029E80087004431403F4101BA00413FBB00423FAC
:1029F800BC00433FBD000530BE00E530BF01BF0A43
:102A08008A311B2290314001E530AF01AF0AB00096
:102A18000130B1000C3030279031C630AF01AF0A19
:102A2800B000B330B100113030274A30860027306B
:102A380087004831403F4101BA00413FBB00423F57
:102A4800BC00433FBD000530BE00E530BF01BF0AF2
:102A58008A311B2290314001E530AF01AF0AB00046
:102A68000130B1001830302790318930AF01AF0AFA
:102A7800B000B330B1001D3030274A30860027300F
:102A880087005131403F4101BA00413FBB00423FFE
:102A9800BC00433FBD000430BE00E530BF01BF0AA3
:102AA8008A311B2290314001E530AF01AF0AB000F6
:102AB8000130B100243030279031DE30AF01AF0A49
:102AC800B000B330B100283030274A3086002730B4
:102AD80087005931403F4101BA00413FBB00423FA6
:102AE800BC00433FBD000430BE00E530BF01BF0A53
:102AF8008A311B2290314001E530AF01AF0AB000A6
:102B08000130B1002B30302790314E30AF01AF0A81
:102B1800B000B230B1002F30302790310330A90116
:102B2800A90AAA00E530C5229031E530AF01B0000E
:102B38000130B100383030279031733086002730AB
:102B48008700811DC12D4A3086004C310108A9003B
:102B58000330AA00E530C5229031E530AF01AF0A55
:102B6800B0000130B1003830302790310530AA006C
:102B780042016F08F5234201EF0042016F08080087
:102B880041016D08400168060319D22D6808203EEE
:102B98008600023087000108BA00D32DBA01BB01B4
:102BA8003A08BC0002307D239031002F8D30AF01F0
:102BB800B000B130B1000030302790314C30AF0157
:102BC800AF0AB000B130B100003030279031152F76
:102BD8009A30AF01B000B130B100003030279031E9
:102BE8004C30AF01AF0AB000B130B100003030272F
:102BF8009031152FA730AF01B000B130B1000030CF
:102C0800302790314C30AF01AF0AB000B130B1007D
:102C1800003030279031152FB430AF01B000B130FB
:102C2800B1000030302790314C30AF01AF0AB0000E
:102C3800B130B100003030279031152F3230AF015C
:102C4800B000B130B1000030302790317330AF019F
:102C5800AF0AB000B130B100003030279031152FE5
:102C68000F30AF01B000B230B100003030279031E2
:102C7800CE30AF01AF0AB000B130B100003030271C
:102C88009031152F1830AF01B000B130B1000030CD
:102C9800302790311C30AF01AF0AB000B230B1001C
:102CA800003030279031152F2930AF01B000B230F5
:102CB800B100003030279031DB30AF01AF0AB000EF
:102CC800B130B100003030279031152F2930AF01D5
:102CD800B000B230B1000030302790318030AF0101
:102CE800AF0AB000B130B100003030279031152F55
:102CF8002530AF01B000B130B1000030302790313D
:102D08006630AF01AF0AB000B130B10000303027F3
:102D18009031152F5030AF01B000B230B100003003
:102D280030279031C130AF01AF0AB000B130B100E7
:102D3800003030279031152FF530AF01B000B13099
:102D4800B1000030302790314330AF01AF0AB000F6
:102D5800B230B100003030279031152F3630AF0136
:102D6800B000B230B1000030302790314330AF01AD
:102D7800AF0AB000B230B100003030279031152FC3
:102D88000F30AF01B000B230B100003030279031C1
:102D98005D30AF01AF0AB000B230B100003030276B
:102DA80090315C279031013A031D152F9A15152F84
:102DB8000230AF01B000B230B1000030302790319E
:102DC8003F30AF01AF0AB000B130B100003030275A
:102DD8009031152F5930AF01B000B130B10000303B
:102DE80030279031E830AF01AF0AB000B130B10000
:102DF800003030279031152F3C08B800B901390848
:102E0800003A0319082FEE2E3808FF3E031CEE2E59
:102E180084000F3004020318EE2EA8310435003E5A
:102E280082005C279031013A031D2D2F41016D0866
:102E38004001680603192D2F6808A600A701A60AF5
:102E48000319A70A0A30A400A501A73157272408A7
:102E5800E800EB01EB0A0800B700440165084001EF
:102E6800B600440164084001B5004401630840010C
:102E7800B400440162084001B3002F08333E8600C5
:102E880087010108370780387D2390313008840096
:102E98003108850012000319080030088400310841
:102EA8008500000864279031B00A0319B10A4A2F37
:102EB8007C08A40004307C06031DFC0124080800DB
:102EC800A900A701A70A290884239031CF2B430121
:102ED80064084001A4004301E401400124080800FB
:102EE8006B2790314101C700023A031DB72F3E08F6
:102EF800B0003D08AF003C08AE003B08AD00390803
:102F080086003A088700403FB100413FB200423F87
:102F1800B300433FB4008E31B12690310318B72F68
:102F28004608AB004508AA004408A9004308A800C1
:102F3800390886003A088700403FAC00413FAD00A1
:102F4800423FAE00433FAF008F31822739088600E9
:102F58003A0887002808C03F2908C13F2A08C23F0D
:102F68002B08C33F0800470B0800390886003A08B9
:102F78008700403FAD00413FAE00423FAF00433FB6
:102F8800B0004208B4004108B3004008B2003F084E
:102F9800B1008E31B126903103180800460840016F
:102FA800DF00410145084001DE00410144084001BD
:102FB800DD00410143084001DC0041013908860079
:102FC8003A088700403F4001E000413FE100423FAE
:102FD800E200433FE300AC31AF24410139088600E9
:102FE8003A08870040015C08C03F5D08C13F5E08A1
:082FF800C23F5F08C33F08005F
:103006003B08BF003A08BE003D08C1003C08C000AE
:103016008600410887004231403FAC00413FAD0089
:10302600423FAE00433FAF003E0886003F088700A0
:103036004231403FA800413FA900423FAA00433F1A
:10304600AB008F31822798312B08B3002A08B200D3
:103056002908B1002808B0008F31B5273108BB0018
:103066003008BA00080002305101930060308D002C
:103076000F1E3B287D014B08C0391738CB000F3097
:103086007E01A6004030B800C3010330CE00F03008
:1030960040019200930187309400980141011D146C
:1030A600E0309E0080304B019E0047309F00B230DA
:1030B6009C00333044018E0001309100CF308D00EA
:1030C6002B308C0030304E019600203099000130B4
:1030D6009A00C0308B00B0307E01BD00BE000430C7
:1030E600D400083042019F0019309B0090309D00AB
:1030F60020309E0008000630A73138279831250871
:103106004101B200400124084101B10032084001EA
:10311600B100410131084001B000440137084001C7
:10312600B300440136084001B2007F30B701B60152
:10313600B500FF30B400A73190279831310844011B
:10314600B700400130084401B6001030A7313827D7
:10315600983125084101B200400124084101B1001F
:1031660032084001B100410131084001B00044017C
:1031760035084001B300440134084001B200CC30A8
:10318600B701B601B500B400A731902798313108D0
:103196004401B500400130084401B4001130A731A4
:1031A6003827983125084101B20040012408410121
:1031B600B10032084001B100410131084001B000C0
:1031C600440133084001B300440132084001B20013
:1031D6004C30B701B601B500CC30B400A73190270A
:1031E600983131084401B300400130084401B2006F
:1031F600C2304001DF000A30DE000C30DD004A300C
:10320600DC003D30C600F330C500EA30C400B33000
:10321600C300440136084001B500440137084001A7
:10322600B6000030B701B8018F311527983138083C
:10323600CA003708C9003608C8003508C700352651
:103246004608E3004508E2004408E1004308E000C0
:10325600AC31AF2498314A308600273087004D3193
:103266005C08C03F5D08C13F5E08C23F5F08C33FC0
:103276004030C600A030C500C401C3014401340873
:103286004001B500440135084001B6000030B701E1
:10329600B8018F31152798313808CA003708C90098
:1032A6003608C8003508C70035269831460841015A
:1032B600B000400145084101AF004001440841010A
:1032C600AE00400143084101AD0047304001DF0038
:1032D6003B30DE00D130DD004330DC01C600453036
:1032E600C500C401C301410130084001CA004101C3
:1032F6002F084001C90041012E084001C8004101C4
:103306002D084001C70035264608E3004508E200BF
:103316004408E1004308E000A531DA2598314A3037
:1033260086002730870051315C08C03F5D08C13FE9
:103336005E08C23F5F08C33F4530DF001F30DE0036
:10334600D830DD004030DC01C600A030C500C40125
:10335600C301440132084001B5004401330840016D
:10336600B6000030B701B8018F31152798313808FB
:10337600CA003708C9003608C8003508C700352610
:103386004608E3004508E2004408E1004308E0007F
:10339600A531DA2598314A30860027308700553125
:1033A6005C08C03F5D08C13F5E08C23F5F08C33F7F
:1033B6004A308600273087005531403FC300413FE1
:1033C600C400423FC500433FC6004A30860027304E
:1033D60087005131403FC700413FC800423FC90006
:1033E600433FCA0035264A308600273087005931C8
:1033F6004308C03F4408C13F4508C23F4608C33F93
:1034060008004101EA013C304001C600D030C50049
:103416001330C400A930C30041016A084001AF005F
:103426001F30B001B100B2018A31062298318930CD
:103436004101B0002730B10040012F08410130079B
:103446008600400130084101313D8700403F400180
:10345600C700413FC800423FC900433FCA00352666
:10346600983146084101D500400145084101D40084
:10347600400144084101D300400143084101D20004
:1034860040304001C6004830C500F530C400C330A6
:10349600C300410155084001CA00410154084001DA
:1034A600C900410153084001C800410152084001CA
:1034B600C7003526983146084101E100400145081C
:1034C6004101E000400144084101DF00400143089A
:1034D6004101DE0040304001DF008030DE00DD01CA
:1034E600DC01410155084001C60041015408400174
:1034F600C500410153084001C40041015208400182
:10350600C300410161084001CA0041016008400151
:10351600C90041015F084001C80041015E08400141
:10352600C70035264608E3004508E2004408E100E6
:103536004308E000A531DA2598315F084101DD0036
:1035460040015E084101DC0040015D084101DB00ED
:1035560040015C084101DA004A30860027308700C6
:103566005D31403F4001DC00413FDD00423FDE006F
:10357600433FDF004A308600273087004831403F0E
:10358600E000413FE100423FE200433FE300AC314F
:10359600AF2498315F084101BD0040015E0841013A
:1035A600BC0040015D084101BB0040015C084101CF
:1035B600BA0043304001DF008830DE009330DD0082
:1035C6003330DC0041013D084001E30041013C0885
:1035D6004001E20041013B084001E10041013A0897
:1035E6004001E000AC31AF2498315F084101E500AD
:1035F60040015E084101E40040015D084101E3002D
:1036060040015C084101E20043304001DF008830A0
:10361600DE009330DD003330DC006B30860027306F
:103626008700403FE000413FE100423FE200433F68
:10363600E300AC31AF2498315F084101E900400155
:103646005E084101E80040015D084101E7004001D4
:103656005C084101E60069084001C60041016808AE
:103666004001C500410167084001C40041016608E8
:103676004001C300410169084001CA0041016808D0
:103686004001C900410167084001C80041016608C0
:103696004001C7003526983146084101E100400146
:1036A60045084101E000400144084101DF004001B6
:1036B60043084101DE0069084001C600410168086F
:1036C6004001C500410167084001C4004101660888
:1036D6004001C300410161084001CA004101600880
:1036E6004001C90041015F084001C80041015E0870
:1036F6004001C7003526983146084101C100400106
:1037060045084101C000400144084101BF00400195
:1037160043084101BE0065084001C6004101640836
:103726004001C500410163084001C400410162082F
:103736004001C300410165084001CA004101640817
:103746004001C900410163084001C8004101620807
:103756004001C7003526983146084101C5004001A1
:1037660045084101C400400144084101C30040012D
:1037760043084101C20065084001C60041016408D2
:103786004001C500410163084001C40041016208CF
:103796004001C300410145084001CA0041014408F7
:1037A6004001C900410143084001C80041014208E7
:1037B6004001C7003526983146084101C90040013D
:1037C60045084101C800400144084101C7004001C5
:1037D60043084101C60069084001C6004101680866
:1037E6004001C500410167084001C4004101660867
:1037F6004001C300410141084001CA00410140089F
:103806004001C90041013F084001C80041013E088E
:103816004001C7003526983146084101AB004001FA
:1038260045084101AA00400144084101A9004001A0
:1038360043084101A80065084001C600410164082B
:103846004001C500410163084001C400410162080E
:103856004001C300410149084001CA00410148082E
:103866004001C900410147084001C800410146081E
:103876004001C700352646084101AF004001450812
:103886004101AE00400144084101AD00400143083A
:103896004101AC008F31822798312B08CD002A08D0
:1038A600CC002908CB002808CA0033304001C600E6
:1038B6006730C5005930C4003230C30041015D088D
:1038C6004001CA0041015C084001C90041015B0892
:1038D6004001C80041015A084001C7003526983109
:1038E60046084101D100400145084101D000400190
:1038F60044084101CF00400143084101CE004D0874
:103906004001C60041014C084001C50041014B0879
:103916004001C40041014A084001C3004101510869
:103926004001CA00410150084001C90041014F0849
:103936004001C80041014E084001C700352646082F
:103946004101D900400145084101D8004001440821
:103956004101D700400143084101D6006A084001F1
:10396600AF001F30B001B100B2018A310622983192
:103976007C304101B0002730B10040012F084101E1
:1039860030078600400130084101313D8700590863
:103996004001C600410158084001C50041015708D1
:1039A6004001C400410156084001C3006F30840045
:1039B60027308500003FC700013FC800023FC9000D
:1039C600033FCA0035264308C03F4408C13F4508A7
:1039D600C23F4608C33F3E30C6002330C5005730BD
:1039E600C4001D30C30041016A084001AF001F300A
:1039F600B001B100B2018A31062298318930410105
:103A0600B0002730B10040012F0841013007860081
:103A1600400130084101313D8700403F4001C70069
:103A2600413FC800423FC900433FCA00352698318E
:103A360046084101B500400145084101B400400176
:103A460044084101B300400143084101B2003C3043
:103A56004001C600F530C500C230C4008F30C30037
:103A6600410135084001CA00410134084001C9003E
:103A7600410133084001C800410132084001C70036
:103A8600352646084101DD00400145084101DC00BC
:103A9600400144084101DB00400143084101DA00CE
:103AA6003F304001C6005930C5009930C4009A30F5
:103AB600C3004030DF00DE01DD01DC0141016A08A0
:103AC6004001AF001F30B001B100B2018A310622B9
:103AD600983189304101B0002730B10040012F08EC
:103AE600410130078600400130084101313D870021
:103AF600403F4001E000413FE100423FE200433FDA
:103B0600E300A531DA2598315F08CA005E08C900CE
:103B16005D08C8005C08C700352698314608410193
:103B2600E100400145084101E0004001440841012F
:103B3600DF00400143084101DE005D084001C60088
:103B460041015C084001C50041015B084001C40019
:103B560041015A084001C300410161084001CA0001
:103B6600410160084001C90041015F084001C800E9
:103B760041015E084001C700352646084101B900EB
:103B8600400145084101B800400144084101B70021
:103B9600400143084101B6006A084001AF001F30EA
:103BA600B001B100B2018A31062298318D3041014F
:103BB600B0002730B10040012F08410130078600D0
:103BC600400130084101313D87004A3084002730EA
:103BD60085000831003FA800013FA900023FAA0066
:103BE600033FAB0039084001C600410138084001D7
:103BF600C500410137084001C400410136084001B3
:103C0600C300410159084001CA004101580840015A
:103C1600C900410157084001C8004101560840014A
:103C2600C700352646084101AF004001450841015D
:103C3600AE00400144084101AD0040014308410186
:103C4600AC008F31822798312808C03F2908C13F30
:103C56002A08C23F2B08C33F0430EA0A6A02031847
:103C66000800062A4608CF008030CF054635D50025
:103C7600C51B551455080319482E550F462EC3016A
:103C8600C401C501C601C5174C2EC301C401C50137
:103C9600C6014A088039CF064A35D000C91B5014E0
:103CA600500803195E2E500F5C2EC701C801C901CA
:103CB600CA01C917622EC701C801C901CA01500845
:103CC600031D5508031D6C2EC301C401C501C601A1
:103CD60008004308A4004908B72798312508DB00E7
:103CE6002408DA00D100D201D301D4015B08D60042
:103CF600D701D801D9014408A4004808B72798314C
:103D06002508DB002408DA00D10701300318D207A2
:103D16000318D3070318D4075B08D6070130031826
:103D2600D7070318D8070318D9074508A40047087A
:103D3600B72798312508DB002408DA00D1070130BF
:103D46000318D2070318D3070318D4075B08D6074E
:103D560001300318D7070318D8070318D9075308E3
:103D6600D4005208D3005108D200D1014408A4005F
:103D76004708B72798312508DB002408DA00D10761
:103D86005B08D23D0030D33DD43D4308A40048082B
:103D9600B72798312508DB002408DA00D1075B082D
:103DA600D23D0030D33DD43D5308D4005208D30051
:103DB6005108D200D1014308A4004708B72798311B
:103DC6002508DB002408DA00D1075B08D23D003065
:103DD600D33DD43D4408A4004908B72798312508A7
:103DE600DB002408DA00D6075B08D73D0030D83D53
:103DF600D93D4508A4004808B72798312508DB00B7
:103E06002408DA00D6075B08D73D0030D83DD93DF7
:103E16004508A4004908B72798312508DB0024087F
:103E2600DA00CB005B08CC00CD01CE014D08CE00F8
:103E36004C08CD004B08CC00CB014B08D6074C08EC
:103E4600D73D4D08D83D4E08D93D5408D607013018
:103E56000318D7070318D8070318D9075308D4003F
:103E66005208D3005108D200D1015508DA00DB010F
:103E76005008DA070318DB0A8230DA07031CDB0373
:103E8600D81B512FD635D70DD80DD90DD41B5614A6
:103E9600FF30D135D20DD30DD40D402FD001D41F14
:103EA600662F5108CB005208CC005308CD007F3056
:103EB6005405CE004D044C044B0403195618642FC8
:103EC600662FD001D00A50080319782F0130D60783
:103ED6000030D73DD83DD93D591C782FD937D80C5D
:103EE600D70CD60CDA0A0319DB0A5B08803ACB003A
:103EF60080304B02031D812FFF305A02031C8B2F8B
:103F06007F304001D9008030D800D701D601AC2FD0
:103F160040015B08803ACB0080304B02031D952F91
:103F260001305A0203189E2F4001D601D701D8014D
:103F3600D901CF01AC2F40015A08D500FF30D60574
:103F4600D7057F30D8050030D9015518D817553612
:103F5600D9004F08D9045908C6005808C5005708A3
:103F6600C4005608C3000800A900A701A801240838
:103F7600AA00AB01291CC32F2A08A7072B08A83DB6
:103F8600AA35AB0DA91CCB2F2A08A7072B08A83DDD
:103F9600AA35AB0D291DD32F2A08A7072B08A83D44
:103FA600AA35AB0DA91DDB2F2A08A7072B08A83DAC
:103FB600AA35AB0D291EE32F2A08A7072B08A83D13
:103FC600AA35AB0DA91EEB2F2A08A7072B08A83D7B
:103FD600AA35AB0D291FF32F2A08A7072B08A83DE2
:103FE600AA35AB0DA91FFB2F2A08A7072B08A83D4A
:103FF6002808A5002708A40008008831B3288831BE
:10400600C32889318B2989319B298931AB2988318C
:02401600A328DD
:104022006400013080010131FE020030FF3B7F0855
:104032007E0403190034122842016C0893315B2379
:10404200A03140016B080319B728B730AF01B000A7
:10405200B030B100003097313027A031CD30AF0100
:10406200AF0AB000B330B100003097313027A03131
:104072004A308600273087005D31403F4101BA0057
:10408200413FBB00423FBC00433FBD000430BE0085
:10409200E530BF01BF0A8A311B22A0314001E53061
:1040A200AF01AF0AB0000130B100063097313027BE
:1040B200A031E930AF01AF0AB000B330B1000A302D
:1040C20097313027A0316B30860027308700403F80
:1040D2004101BA00413FBB00423FBC00433FBD002B
:1040E2000330BE00E530BF018A311B22A0314001FE
:1040F200E530AF01AF0AB0000130B1000C309731AA
:104102003027A0315430AF01AF0AB000B330B10054
:104112000F3097313027A0316F308600273087006B
:10412200403F4101BA00413FBB00423FBC00433F18
:10413200BD000330BE00E530BF01BF0A8A311B2239
:10414200A0314001E530AF01AF0AB0000130B1004B
:10415200183097313027A0316D30AF01AF0AB0006F
:10416200B230B1001C3097313027A0310330AA00A1
:1041720042016C089331F5234201EC000800410131
:10418200CF017430D0002730D1004F084001AF007A
:104192001F30B001B100B2018A310622A0312F08CE
:1041A2004101D007400130084101D13D500886004D
:1041B2005108870004305E31010603192A2C4001A0
:1041C200AF01AF0A41014F085D24A0314101C8018E
:1041D200C901CA0111303827A03125084101BF00A9
:1041E200400124084101BE003F084001B1004101E5
:1041F2003E084001B00041014A084001B3004101BC
:1042020049084001B200B330B701B601B5003230FF
:10421200B4009027A03131084101CA0040013008A2
:104222004101C9004808C80ABA0032303A02031CE8
:10423200EB284001AF0141014F085D244530DF000A
:104242001F30DE00D830DD004030DC01C600A03077
:10425200C500C401C301410149084001B500410143
:104262004A084001B6000030B701B8018F31152766
:10427200A0313808CA003708C9003608C800350816
:10428200C7009E313526A0314608E3004508E2000A
:104292004408E1004308E000DA255F084101CE004E
:1042A20040015E084101CD0040015D084101CC00A2
:1042B20040015C084101CB004E08B0004D08AF0040
:1042C2004C08AE004B08AD003D30B4004C30B3009A
:1042D200CC30B200CD30B1008E31B126A0310318FE
:1042E200982950088600510887005E31010B8B29FE
:1042F2004F08031D7E29013089294F0B8229023084
:10430200892902304F06031D882903308929043088
:104312003124A031410150081E3EBA000030513D07
:10432200BB003A0886003B0887000230292C403047
:10433200B000AF01AE01AD014E08B4004D08B300AC
:104342004C08B2004B08B1008E31B126A031031CDB
:10435200AD2940010E19DA2907303124A03141017B
:1043620050081E3EBA000030513DBB003A0886009C
:104372003B0887000430810040010E192A2C4101BC
:1043820050081E3EBA000030513DBB003A0886007C
:104392003B0887000330810040019A110730410138
:1043A200BA007D30890BD329BA0BD32940019A1563
:1043B2002A2C410150088600510887004B08C03F53
:1043C2004C08C13F4D08C23F4E08C33F4001C600E2
:1043D20041014D084001C50041014C084001C400A3
:1043E20041014B084001C3004A3086002730870054
:1043F2005131403FC700413FC800423FC900433FDF
:10440200CA009E313526A03141015008860051086C
:104412008700443140014308C03F4408C13F45087A
:10442200C23F4608C33F4101500886005108870039
:104432004431403FAD00413FAE00423FAF00433FF9
:10444200B00050088600510887005031403FB1004B
:10445200413FB200423FB300433FB4008E31B12628
:10446200A03103184E2A50088600510887004431B3
:10447200403FBA00413FBB00423FBC00433FBD004A
:10448200500886005108870050313A08C03F3B0867
:10449200C13F3C08C23F3D08C33F7330860027300E
:1044A20087005008811D8E2A8600510887005031EE
:1044B200403FAD00413FAE00423FAF00433FB0003E
:1044C200B101B201B301B4018E31B126A03103189A
:1044D200772A50081D3EBA000030513DBB003A0811
:1044E20086003B08870001308100AD2AAD01AE0194
:1044F200AF01B00150088600510887005031403F9B
:10450200B100413FB200423FB300433FB4008E319D
:10451200B126A0310318AD2AA72A860051088700C8
:104522004431403FBA00413FBB00423FBC00433FE1
:10453200BD00500886005108870050313A08C03F3C
:104542003B08C13F3C08C23F3D08C33F50088600BC
:10455200510887005D3181015008860051088700AB
:104562005031403F4001A400413FA500423FA60018
:10457200433FA700A801A901AA01AB019231F5228C
:10458200A031031CCC2A4101500886005108870043
:104592005E318101E02A41014F080319D22A4F0BF3
:1045A200D32A0000410150081E3EBA000030513D9E
:1045B200BB003A0886003B088700013081005008A2
:1045C2008600510887005D31010B802B423040018B
:1045D200C600C830C500C401C301410150088600AD
:1045E200510887004431403F4001DC00413FDD007B
:1045F200423FDE00433FDF00410150088600510880
:1046020087004831403F4001E000413FE100423F26
:10461200E200433FE300DA255F08CA005E08C900F2
:104622005D08C8005C08C7009E313526A0314608E7
:104632004101B000400145084101AF00400144087A
:104642004101AE00400143084101AD004230B400D7
:10465200C830B300B201B1018E31B126A03142306F
:10466200031C392BC300C830C200C101C001782B22
:104672004001C600C830C500C401C3014101500851
:104682008600510887004431403F4001DC00413F31
:10469200DD00423FDE00433FDF004101500886005B
:1046A200510887004831403F4001E000413FE100AE
:1046B200423FE200433FE300DA255F08CA005E089A
:1046C200C9005D08C8005C08C7009E313526A031CC
:1046D20046084101C300400145084101C2004001B2
:1046E20044084101C100400143084101C0004308A0
:1046F200B3004208B2004108B1004008182C423011
:104702004001C600C830C500C401C30141015008C0
:104712008600510887004431403F4001DC00413FA0
:10472200DD00423FDE00433FDF00410150088600CA
:10473200510887005031403F4001E000413FE10015
:10474200423FE200433FE300DA255F08CA005E0809
:10475200C9005D08C8005C08C7009E313526A0313B
:1047620046084101B000400145084101AF00400147
:1047720044084101AE00400143084101AD0042300E
:10478200B400C830B300B201B1018E31B126A031FC
:104792004230031CD22BC700C830C600C501C40179
:1047A200112C4001C600C830C500C401C30141013B
:1047B20050088600510887004431403F4001DC0028
:1047C200413FDD00423FDE00433FDF004101500830
:1047D2008600510887005031403F4001E000413FD0
:1047E200E100423FE200433FE300DA255F08CA00EE
:1047F2005E08C9005D08C8005C08C7009E31352606
:10480200A03146084101C700400145084101C600E8
:10481200400144084101C500400143084101C40070
:104822004708B3004608B2004508B1004408B0008A
:104832008F31B527A0313008BA005008143EBB00B2
:104842000030513DBC003B0886003C0887003A0816
:10485200810041010430CF0A4F0203180800C22828
:104862004001AA0041016D08203E86000230870007
:1048720040012A08810041016D084001A600A701FC
:10488200A60A0319A70A0A30A400A5015727A031D6
:1048920024084101ED0040016806031D0800680874
:1048A200A600A701A60A0319A70A0A30A400A501B7
:1048B20057272408E80008004001B2008D2C2F0C75
:1048C200031C18100318181408002F0C031C98104E
:1048D2000318981408002F0C031C1811031818153C
:1048E20008002F0C031C98110318981508002F0CB0
:1048F200031C1810031818142F0C031C981003180B
:1049020098142F0C031C1811031818152F0C031CD4
:1049120098110318981508003208B000B101310847
:10492200003A0319952C782C3008840004300402D4
:104932000318782C88310435003E8200080040308C
:104942004101B0006030AF004A30AE01AD018600D7
:10495200273087005531403FB100413FB200423F0E
:10496200B300433FB4008E31B126A0310318272D86
:104972004001FF30AF015D24A0319A114030410166
:10498200B0006030AF004530AE01AD014001DF0044
:104992001F30DE00D830DD004030DC01C600A03020
:1049A200C5001130C401C301382724084101B900F0
:1049B200400125084101BA00BB01BC013C0840018D
:1049C200B80041013B084001B70041013A084001EB
:1049D200B600410139084001B50000308F3115277A
:1049E200A0313808CA003708C9003608C80035089F
:1049F200C7009E313526A0314608E3004508E20093
:104A02004408E1004308E000DA255F084101B400F0
:104A120040015E084101B30040015D084101B2005E
:104A220040015C084101B1008E31B126A03103186A
:104A32001C2D0C30262D733086002730870001197B
:104A4200272D733086000D3001153124413041018C
:104A5200B0005C30AF00CC30AE00CD30AD004A309B
:104A62008600273087005131403FB100413FB200FC
:104A7200423FB300433FB4008E31B126A031031C44
:104A82005A2D4130B0003030AF004A30AE01AD0196
:104A92008600273087005131403FB100413FB200CC
:104AA200423FB300433FB4008E31B126A031031C14
:104AB2005C2D0E30312C4130B0005030AF004A3006
:104AC200AE01AD018600273087005131403FB10071
:104AD200413FB200423FB300433FB4008E31B126A2
:104AE200A0314130B00003189B2D5C30AF00CC30B8
:104AF200AE00CD30AD004A308600273087005131FC
:104B0200403FB100413FB200423FB300433FB400D7
:104B12008E31B126A031031C992D733086002730C7
:104B22008700811808007330860008308114312C08
:104B32004130B0003030AF004A30AE01AD018600E6
:104B4200273087005131403FB100413FB200423F20
:104B5200B300433FB4008E31B126A0310318D32DE8
:104B62004130B0003630AF006630AE00AD004A30A2
:104B72008600273087005131403FB100413FB200EB
:104B8200423FB300433FB4008E31B126A0317330AF
:104B9200860027308700031CD72D01180800093032
:104BA2000114312C733086002730870081100110E8
:104BB200080063084101A4008030A4054001633568
:104BC2004101AB004001E21FE82D41012B144101DC
:104BD2002B080319F62D2B0FF32D4001E001E10103
:104BE200E201E3014001E217FA2D4001E001E10197
:104BF200E201E3015F0880394101A40640015F350B
:104C02004101AC004001DE1F082E41012C1441017C
:104C12002C080319162E2C0F132E4001DC01DD0186
:104C2200DE01DF014001DE171A2E4001DC01DD0149
:104C3200DE01DF015F085E045D045C04031D362EA5
:104C42008030E001E101E201E301E2047F30E304AC
:104C5200410124084001E3046308DF006208DE002A
:104C62006108DD006008DC00080041012B08031D1B
:104C7200402E4001DC01DD01DE01DF0108002B08CE
:104C8200A500A6012C08A502031CA6037F30A507D8
:104C92000318A60A400163084101A300400162080B
:104CA2004101A200400161084101A10040016008E8
:104CB2004101A0004001E001E101E201E301410103
:104CC200A701A801A901AA01AC011A302C020318FC
:104CD200AB2E2C080319802EA035A10DA20DA30D19
:104CE2004001E035E10DE20DE30D4101AA1F7B2EEB
:104CF200400160144101A735A80DA90DAA0D40017C
:104D02005F0841012302031D962E40015E08410106
:104D12002202031D962E40015D0841012102031D5E
:104D2200962E40015C0841012002031CA92E2A177D
:104D320040015C084101A00240015D084101A13B24
:104D420040015E084101A23B40015F084101A33BD3
:104D5200AC0A662E2308220421042004031D271412
:104D62004001E21BC72EE035E10DE20DE30D4101EA
:104D7200AA1FBD2E400160144101FF30A735A80DC6
:104D8200A90DAA0DA507031CA603B12E4101AC0172
:104D9200AA1FE52E27084001E4004101280840012E
:104DA200E500410129084001E6007F3041012A0562
:104DB2004001E70066046504640403196018E22EEA
:104DC200E52E4101AC01AC0A41012C080319FA2E6F
:104DD20001304001E0070030E13DE23DE33D631C6C
:104DE200FA2EE337E20CE10CE00C4101A50A0319AB
:104DF200A60A41012608803A4001E400803064029C
:104E0200031D062FFF3041012502031C112FFF3025
:104E12004101A500A6014001E001E101E201E30137
:104E220041012608803A4001E40080306402031DFB
:104E32001D2F0130410125020318292F4101A5012F
:104E4200A6014001E001E101E201E3014101A40107
:104E520041012508AB002B1C312F4001E217332FF3
:104E62004001E21341012B364001E300292E4001AB
:104E7200A700A600A60DA60D41011D0840012606A9
:104E82000339260641019D00003200320000410133
:104E92009D149D184A2F1C084001A500A401410140
:104EA2001B084001A4070318A50A0800A901A71FAF
:104EB200612FA609A709A60A0319A70AA901A90A27
:104EC200A51F682FA409A509A40A0319A50A240885
:104ED20025040319832FA801A80AA51B732FA43543
:104EE200A50D6D2F25082702031D792F2408260200
:104EF200031C7F2F2408A6022508A73BA536A40C75
:104F0200A80B732F290803198B2FA609A709A60A34
:104F12000319A70A2708A5002608A40008003008DC
:104F2200A4003108A500A601A7013708AB00360886
:104F3200AA003508A9003408A800DB27A0312708F9
:104F4200BF002608BE002508BD002408BC000130B1
:104F5200AB01AA00A901A8013408A8023508A93B9F
:104F62003608AA3B3708AB3B3208A4003308A50039
:104F7200A601A701DB272408BC072508BD3D26089A
:104F8200BE3D2708BF3D8030B801B900BA01BB0160
:104F92003C08B8073D08B93D3E08BA3D3F08BB3D55
:104FA2003A08B8003B08B900BA01BB01B1003808A1
:104FB200B0000800AC01AD01AE01AF01241CE92F25
:104FC2002808AC072908AD3D2A08AE3D2B08AF3DA5
:104FD200A835A90DAA0DAB0DA736A60CA50CA40CDD
:104FE2002708260425042404031DDF2F2F08A70009
:104FF2002E08A6002D08A5002C08A4000800953153
:10500200DA2D9531EC2D9531FE2D9631102E9631FB
:10501200222E9631342E9631462E9631582E9631C6
:105022006A2E96317C2E96318E2E9631A02E963196
:0A503200C42E9631B22E9631DC2E0A
:10536A003A0886003B0887000108BE003C08860010
:10537A003D0887000108BF0009304001AC00410127
:10538A003E088E318D26A931A63E8600023087005E
:10539A000930AC0041013F088E318D26A63E8400BB
:1053AA0002308500000801024101BA00BB01031C5A
:1053BA00BB03080040018C1BF32904307C06031947
:1053CA00F329FD010430FC0042016A08E60069087D
:1053DA00E5006808E4006708E300080004307C067A
:1053EA00031D08000B307D024730031C042A7D028E
:1053FA00031C8C1F032A0130FC00080047307D0281
:10540A0003188C1B0B2A0230FC0008008C1F0800B2
:10541A000330FC00080040010C0E0139F000F101D4
:10542A000C0E890C0139F200F301F235F30D700804
:10543A007204F40071087304F5006A080739F6006B
:10544A00FC30F701F635F70DF635F70DF800B030F8
:10545A00F90076087807FA007708793DFB007A08A0
:10546A00740784007B08753D85000008EA00EA1F7E
:10547A00412A01304301E40040016A1F472A0230F1
:10548A004301E40042016A08E6006908E500680889
:10549A00E4006708E3000800E7016708A400803019
:1054AA00A501A4073F30A53DBE22AA316735273E94
:1054BA00860087012408C03F2508C13F6708A03E2F
:1054CA0086006735273E8400850100088100203068
:1054DA00E70A6702031C522A8930860027308700B0
:1054EA0041012008C03F2108C13F2208C23F2308CA
:1054FA00C33FA83086002408C03F2508C13F2608BC
:10550A00C23F2708C33FC73086002808C03F290882
:10551A00C13F2A08C23F2B08C33FE63086002C0849
:10552A00C03F2D08C13F2E08C23F2F08C33F4A3053
:10553A0086005D313008C03F3108C13F3208C23FA2
:10554A003308C33F6B308600273087003408C03FDA
:10555A003508C13F3608C23F3708C33F6F3086005F
:10556A003808C03F3908C13F3A08C23F3B08C33F29
:10557A00080000308B1B0130A6008B132408500151
:10558A009A004001250850019B001E131E140000BA
:10559A0000004001260C031C8B1303188B175001C3
:1055AA001D084001A500A40150011C084001A404E3
:1055BA0008004A308600273087000030C03FC13FCC
:1055CA00C23FC33F4431C03FC13FC23FC33F4A30DD
:1055DA0086002730870000304831C03FC13FC23FB4
:1055EA00C33F4A308600273087004A304C31810158
:1055FA0086002730870000304D31C03FC13FC23F8F
:10560A00C33F4A3086002730870000305131C03FFF
:10561A00C13FC23FC33F4A3086002730870000306F
:10562A005531C03FC13FC23FC33F4A308600273091
:10563A00870000305931C03FC13FC23FC33F4A30A3
:10564A0086002730870000305D31C03FC13F4030BF
:10565A00C23FC33F6B308600273087000030C03F0F
:10566A00C13F2030C23FC230C33F6F308600003096
:10567A00C03FC13F8030C23F3F30C33FB7017430A3
:10568A00B8002730B9003708AF001F30B001B100A9
:10569A00B2018A310622AA312F08B8073008B93D6B
:1056AA00380886003908870000305531C03FC13FAD
:1056BA008030C23F4030C33F38081E3EB50000303C
:1056CA00393DB60035088600360887000530810066
:1056DA0038081D3EB5000030393DB6003508860051
:1056EA0036088700013081003808860039088700AB
:1056FA0000304431C03FC13FC23FC33F3808860033
:10570A003908870000305031C03FC13F8030C23F66
:10571A00BF30C33F38088600390887000030483157
:10572A00C03FC13FC23FC33F3808860039088700DF
:10573A0000304C31C03FC13FC23FC33F38088600EA
:10574A00390887000030C03FC13FC23FC33F043021
:10575A00B70A370203180800442B6B084101E60018
:10576A006C30E701E635E70D66078400B030673D27
:10577A008500013F8A00003F0A004101EA0040011A
:10578A00EB0141016A084001B50097315C27AB3152
:10579A00B600420166084001A700420165084001BF
:1057AA00A600420164084001A500420163084001C5
:1057BA00A4008131A021AB312708031DED2B260857
:1057CA00031DED2BB13024020430253B031CEF2BC3
:1057DA000130F02B0030B70042016B081624AB31C0
:1057EA004101EB00EB1B132C6B08E600E701E61BFB
:1057FA00E70342016B084101E800E901670869060D
:10580A00031D092C66086806031908004001EB010C
:10581A00EB0A41016B084201EB0008000F30A4318A
:10582A00312C4001B900BA013A08AF000630B00184
:10583A00B100B2018A310622AB31300885002F0847
:10584A00840000308407B030853D00083906031D06
:10585A00A92C3A08AF000630B001B100B2018A3172
:10586A000622AB31300885002F08840001308407F6
:10587A00B030853D000835060319582C3A08AF00A8
:10588A000630B001B100B2018A310622AB313008CC
:10589A0085002F08840001308407B030853D12004E
:1058AA00FF3A031DA92C370803196D2C3A08AF00DB
:1058BA000630B001B100B2018A31062230088500F3
:1058CA002F08840004308407B030853D00080800A2
:1058DA00360B812C3A08AF000630B001B100B20194
:1058EA008A310622300885002F0884000230840796
:1058FA00B030853D0008080002303606031D972C9B
:10590A003A08AF000630B001B100B2018A3106226E
:10591A00300885002F08840003308407B030853DA5
:10592A00000808003A08AF000630B001B100B20121
:10593A008A310622300885002F0884000530840742
:10594A00B030853D000808001230BA0A3A0203183E
:10595A00FF34192C5F08E4008030E4055F35E60067
:10596A00DE1B661466080319C22C660FC02CDC0104
:10597A00DD01DE01DF01DE17C52CDC01DD01DE0100
:10598A00DF016308E5008030E50565086406031D4C
:10599A0064176335E500E21B651465080319DD2CFD
:1059AA00650FDB2CE001E101E201E301E217E02CE3
:1059BA00E001E101E201E301660865020318072D2F
:1059CA00641FE92C8030E4066608E7006508E600F3
:1059DA006708E5005C08E7006008DC006708E0008B
:1059EA005D08E7006108DD006708E1005E08E7007E
:1059FA006208DE006708E2005F08E7006308DF006C
:105A0A006708E300E70165084101A000A101210838
:105A1A00A3004001660841012002A200031CA3035F
:105A2A002308803AA40080302402031D1E2D1A3058
:105A3A002202031C402D40015F085E045D045C04E1
:105A4A000319292D01302A2D0030E700DC01DD0180
:105A5A00DE01DF016508E600452D671C382D673633
:105A6A000138E700392DE7365C18E717DF37DE0C17
:105A7A00DD0CDC0CE60A400165086602031C322DC7
:105A8A00641B682D6608031D4F2DDC01DD01DE0154
:105A9A00DF0108006008DC076108DD3D6208DE3DC1
:105AAA006308DF3D5F1CE42D671C5F2D67360138F4
:105ABA00E700602DE7365C18E717DF37DE0CDD0CF0
:105ACA00DC0CE60AE42D5F08803A4101A00040019F
:105ADA006308803A410120024001031D7E2D6208BD
:105AEA005E02031D7E2D61085D02031D7E2D600886
:105AFA005C020318BD2DFF304101A000A100A200E5
:105B0A00A30040015C0860024101A40040015D0855
:105B1A00613B4101A50040015E08623B4101A600CC
:105B2A0040015F08633B4101A7002408A00725083C
:105B3A00A13D2608A23D2708A33D23084001DF0016
:105B4A00410122084001DE00410121084001DD0037
:105B5A00410120084001DC008030E406E709E70F34
:105B6A00C52D0130DC070030DD3DDE3DDF3DC52DB2
:105B7A006008DC026108DD3B6208DE3B6308DF3B4C
:105B8A005F085E045D045C04031DE22D6708031DC3
:105B9A00E22DDC01DD01DE01DF010800DC35DD0D6F
:105BAA00DE0DDF0DE71B5C14671CDE2D0314E70D09
:105BBA00DF2DE7356608031DE603DE1FD32DE50159
:105BCA00E71FEF2D67087F3903195C18ED2DEF2DBC
:105BDA00E501E50A65080319002E0130DC070030EB
:105BEA00DD3DDE3DDF3D5F1C002EDF37DE0CDD0CC8
:105BFA00DC0C660FE60A660A031D6608031D0C2EF6
:105C0A00DC01DD01DE01DF0166080319E401661C1F
:105C1A00102EDE17112EDE136636DF00E41BDF17A7
:105C2A000800CE00D000003045023C30031944027F
:105C3A00031808002030CF0044084F07C800860028
:105C4A00013087008101D501D6014301A001A101DC
:105C5A0041014208FF3E4301A200FF304101433D9A
:105C6A004301A3004101550809070907A03E860020
:105C7A0001308700403FD100413FD2005508090753
:105C8A000907023EA03E8600403FD300413FD400B0
:105C9A00FF30D507031CD60341015208D80051082A
:105CAA00D7005408DA005308D9004F084001AF0062
:105CBA000130B000410144084001AC0041015908DB
:105CCA0057074001A60041015A08583D4001A70064
:105CDA000230A400A501822724088E318D26AE3118
:105CEA00410150074001B100410145084001B3009C
:105CFA00410144084001B200C22741014408400161
:105D0A00AC00410157088E318D26AE314101500752
:105D1A00CD00BA000230BB004F08BC000130BD0004
:105D2A0047088A0046080A00AE31BB1FA42ED70ACC
:105D3A000319D80A822EFF30D907031CDA03440854
:105D4A004001AC00410159088E318D26AE31410126
:105D5A005007CD004F08BA000130BB004D08BC0007
:105D6A000230BD0047088A0046080A00AE31BB1B54
:105D7A00A02E5A08803AC8005808803A4802031DE3
:105D8A00C82E57085902031CF62E41014508400146
:105D9A00B000410144084001AF00410144084001FC
:105DAA00AC00410157088E318D26AE3141015007B2
:105DBA004001B100410144084001AC0041015908C9
:105DCA008E318D26AE31410150074001B200E227E3
:105DDA00AE314101D70A0319D80AFF30D907031C8B
:105DEA00DA0341015A08803AC8005808803A480242
:105DFA00031D012F570859020318822E4101570823
:105E0A005302C8005808543BC90051085902CA0035
