:020000040000FA
:0400000080316E28B5
:100008007E1480314E01961A8C1E1C280130F8008F
:1000180078084201EE0704307D06031D1628B63124
:1000280099268031B2304B019C004E018C126C280D
:10003800161A0C1E38287E01BF1F2728B6319926AC
:1000480080317E01BF133F1E2E28B6314F268031E6
:100058007E013F12BF1E3528B6314F2680317E0102
:10006800BF124E010C126C280B1F6C281A18101C9A
:10007800652844013508FB003408FA003308F90004
:100088003208F8000130B2070030B33DB43DB53D49
:1000980000307802CA30793B9A307A3B3B307B3B60
:1000A800031C5E280030B5000030B4000030B300F7
:1000B8000030B200CF308D002B308C004E01101074
:1000C8006C28991A8F1E6C28B5312F254E018F1276
:1000D8007E1009008031702841018731FA2780316C
:1000E800ED0042018731FB278031EF0000308400AA
:1000F8008830850064308600023087000030FF00B9
:100108000C30B1319121803177308400B2308500D4
:1001180020308600033087000030FF002030B131E6
:10012800912180314A30840027308500A630FE00B6
:100138000030FF00B13185218031FC01FD01410112
:10014800EB01EC015C308400013085001330FE00C7
:100158000030FF00B13185218031E030840001306A
:1001680085001030FE000030FF00B131852180315C
:1001780020308400023085002730FE000030FF0068
:10018800B13185218031A0308400023085003830BB
:10019800FE000030FF00B13185217E104001AD31F5
:1001A8003B2D4101E9013C304001C400D030C3007F
:1001B8001330C200A930C10041016908AD00AE0189
:1001C8002D084001AD0041012E084001AE001F304E
:1001D800AF000030B000B131DE21803189304101FB
:1001E800AF002730B00040012D0841012F078600DD
:1001F80040012E084101303D8700403F4001C500C5
:10020800413FC600423FC700433FC80085316125D2
:100218008031400144084101D400400143084101B4
:10022800D300400142084101D20040014108410188
:10023800D10040304001C4004830C300F530C2004E
:10024800C330C100410154084001C80041015308AE
:100258004001C700410152084001C6004101510850
:100268004001C500853161258031400144084101C4
:10027800E000400143084101DF004001420841011C
:10028800DE00400141084101DD0040304001DE0050
:100298008030DD000030DC000030DB004101540814
:1002A8004001C400410153084001C3004101520804
:1002B8004001C200410151084001C10041016008EC
:1002C8004001C80041015F084001C70041015E08C4
:1002D8004001C60041015D084001C5008531612526
:1002E800803140014408E2004308E1004208E00090
:1002F8004108DF009E312826803140015E08410117
:10030800DC0040015D084101DB0040015C0841015F
:10031800DA0040015B084101D9004A3086002730E5
:1003280087005D31403F4001DB00413FDC00423F38
:10033800DD00433FDE004A30860027308700483121
:10034800403FDF00413FE000423FE100433FE20021
:1003580092315022803140015E084101BC004001C9
:100368005D084101BB0040015C084101BA00400141
:100378005B084101B90043304001DE008830DD00F0
:100388009330DC003330DB0041013C084001E200DF
:1003980041013B084001E10041013A084001E00009
:1003A800410139084001DF0092315022803140017B
:1003B8005E084101E40040015D084101E30040019D
:1003C8005C084101E20040015B084101E100433063
:1003D8004001DE008830DD009330DC003330DB0084
:1003E8006B30860027308700403FDF00413FE00048
:1003F800423FE100433FE200923150228031400108
:100408005E084101E80040015D084101E700400144
:100418005C084101E60040015B084101E50068080D
:100428004001C400410167084001C300410166085A
:100438004001C200410165084001C100410168084E
:100448004001C800410167084001C7004101660832
:100458004001C600410165084001C500853161259C
:100468008031400144084101E00040014308410156
:10047800DF00400142084101DE004001410841011E
:10048800DD0068084001C400410167084001C3005D
:10049800410166084001C200410165084001C100F0
:1004A800410160084001C80041015F084001C700E0
:1004B80041015E084001C60041015D084001C500D8
:1004C800853161258031400144084101C000400167
:1004D80043084101BF00400142084101BE004001FC
:1004E80041084101BD0064084001C400410163089E
:1004F8004001C300410162084001C2004101610896
:100508004001C100410164084001C800410163087D
:100518004001C700410162084001C600410161086D
:100528004001C50085316125803140014408410101
:10053800C400400143084101C30040014208410191
:10054800C200400141084101C10064084001C400E3
:10055800410163084001C300410162084001C20033
:10056800410161084001C100410144084001C8003F
:10057800410143084001C700410142084001C6004B
:10058800410141084001C5008531612580314001A4
:1005980044084101C800400143084101C700400127
:1005A80042084101C600400141084101C5006808F0
:1005B8004001C400410167084001C30041016608C9
:1005C8004001C200410165084001C10041014008E5
:1005D8004001C80041013F084001C70041013E08F1
:1005E8004001C60041013D084001C5008531612533
:1005F8008031400144084101A30040014308410102
:10060800A200400142084101A10040014108410106
:10061800A00064084001C400410163084001C30010
:10062800410162084001C200410161084001C10066
:10063800410148084001C800410147084001C7007E
:10064800410146084001C600410145084001C50076
:10065800853161258031400144084101A7004001EE
:1006680043084101A600400142084101A50040019C
:1006780041084101A400B431052480314101230817
:10068800CC002208CB002108CA002008C90033305A
:100698004001C4006730C3005930C2003230C10085
:1006A80041015C084001C80041015B084001C700E6
:1006B80041015A084001C600410159084001C500DE
:1006C800853161258031400144084101D000400155
:1006D80043084101CF00400142084101CE004001DA
:1006E80041084101CD004C084001C40041014B08BC
:1006F8004001C30041014A084001C20041014908C4
:100708004001C100410150084001C80041014F08A3
:100718004001C70041014E084001C60041014D0893
:100728004001C500853161258031400144084101FF
:10073800D800400143084101D70040014208410167
:10074800D600400141084101D5006908AD00AE015D
:100758002D084001AD0041012E084001AE001F30B8
:10076800AF000030B000B131DE2180317C30410172
:10077800AF002730B00040012D0841012F07860047
:1007880040012E084101303D870058084001C4004F
:10079800410157084001C300410156084001C20009
:1007A800410155084001C1006F30840027308500A1
:1007B800003FC500013FC600023FC700033FC80015
:1007C80085316125803140014108C03F4208C13F61
:1007D8004308C23F4408C33F3E30C4002330C3002F
:1007E8005730C2001D30C10041016908AD00AE019B
:1007F8002D084001AD0041012E084001AE001F3018
:10080800AF000030B000B131DE21803189304101C4
:10081800AF002730B00040012D0841012F078600A6
:1008280040012E084101303D8700403F4001C5008E
:10083800413FC600423FC700433FC800853161259C
:100848008031400144084101B4004001430841019E
:10085800B300400142084101B20040014108410192
:10086800B1003C304001C400F530C300C230C200C2
:100878008F30C100410134084001C80041013308EC
:100888004001C700410132084001C600410131085A
:100898004001C5008531612580314001440841018E
:1008A800DC00400143084101DB00400142084101EE
:1008B800DA00400141084101D9003F304001C4003D
:1008C8005930C3009930C2009A30C1004030DE0070
:1008D8000030DD000030DC000030DB004101690839
:1008E800AD00AE012D084001AD0041012E084001C8
:1008F800AE001F30AF000030B000B131DE218031D2
:1009080089304101AF002730B00040012D08410176
:100918002F07860040012E084101303D8700403FE7
:100928004001DF00413FE000423FE100433FE20079
:100938009E312826803140015E08C8005D08C70046
:100948005C08C6005B08C50085316125803140011F
:1009580044084101E000400143084101DF00400133
:1009680042084101DE00400141084101DD005C0808
:100978004001C40041015B084001C30041015A081D
:100988004001C200410159084001C100410160080D
:100998004001C80041015F084001C70041015E08ED
:1009A8004001C60041015D084001C500853161254F
:1009B8008031400144084101B80040014308410129
:1009C800B700400142084101B60040014108410119
:1009D800B5006908AD00AE012D084001AD00410128
:1009E8002E084001AE001F30AF000030B000B1311A
:1009F800DE2180318D304101AF002730B000400149
:100A08002D0841012F07860040012E084101303D85
:100A180087004A308400273085000831003FA00055
:100A2800013FA100023FA200033FA3003808400194
:100A3800C400410137084001C300410136084001A4
:100A4800C200410135084001C10041015808400178
:100A5800C800410157084001C7004101560840013C
:100A6800C600410155084001C50085316125803126
:100A7800400144084101A700400143084101A60084
:100A8800400142084101A500400141084101A4007C
:100A9800B4310524803141012008C03F2108C13FFD
:100AA8002208C23F2308C33F0130AD002D08E907E3
:100AB8000430690203180800D72840014408803927
:100AC800C9004908CE004435C9004908D400C31BF1
:100AD8005414540803197D2D540A031D7B2D00302E
:100AE800C4000030C3000030C2000030C100C3178A
:100AF800852D0030C4000030C3000030C200003033
:100B0800C10048088039C9004908CE064835C900DF
:100B18004908CF00C71B4F144F080319A02D4F0ACF
:100B2800031D9E2D0030C8000030C7000030C600ED
:100B38000030C500C717A82D0030C8000030C70016
:100B48000030C6000030C5004F08031D5408031DBF
:100B5800B62D0030C4000030C3000030C2000030A1
:100B6800C10008004108C9004908A0004708B2317F
:100B78001722853140012108DA002008D9005908D8
:100B8800C900CA01CB01CC014C08D3004B08D200E4
:100B98004A08D1004908D0005A08C900CA01CB0147
:100BA800CC014C08D8004B08D7004A08D6004908A1
:100BB800D5004208C9004908A0004608B2311722EA
:100BC800853140012108DA002008D9005908C900F8
:100BD800CA01CB01CC014908D0074A08D13D4B08CE
:100BE800D23D4C08D33D5A08C900CA01CB01CC01FB
:100BF8004908D5074A08D63D4B08D73D4C08D83D8B
:100C08004308C9004908A0004508B23117228531B8
:100C180040012108DA002008D9005908C900CA0192
:100C2800CB01CC014908D0074A08D13D4B08D23D39
:100C38004C08D33D5A08C900CA01CB01CC01490868
:100C4800D5074A08D63D4B08D73D4C08D83D083053
:100C5800D035D10DD20DD30D890B2C2E4208C900E9
:100C68004908A0004508B231172285314001210802
:100C7800DA002008D9005908D0075A08D13D0030B9
:100C8800D23DD33D4108C9004908A0004608B23109
:100C98001722853140012108DA002008D9005908B7
:100CA800D0075A08D13D0030D23DD33D0830D03569
:100CB800D10DD20DD30D890B5B2E4108C90049080F
:100CC800A0004508B2311722853140012108DA0019
:100CD8002008D9005908D0075A08D13D0030D23D24
:100CE800D33D4208C9004908A0004708B23117227D
:100CF800853140012108DA002008D9005908D507B4
:100D08005A08D63D0030D73DD83D4308C9004908A8
:100D1800A0004608B2311722853140012108DA00C7
:100D28002008D9005908D5075A08D63D0030D73DC4
:100D3800D83D4308C9004908A0004708B231172226
:100D4800853140012108DA002008D9005908C90076
:100D58005A08CA00CB01CC010830C935CA0DCB0DE1
:100D6800CC0D890BB12E4908D5074A08D63D4B084A
:100D7800D73D4C08D83D5008C9005108CA00520850
:100D8800CB005308CC001830CC36CB0CCA0CC90C9D
:100D9800890BC82E4908D5074A08D63D4B08D73DC8
:100DA8004C08D83D0830D035D10DD20DD30D890B64
:100DB800D72E54084F07C900CA01CA0D4908823EF8
:100DC800D900FF304A3DDA00D71BFF2E0130D53558
:100DD800D60DD70DD80D890BEB2ED31B551401302A
:100DE800D035D10DD20DD30D890BF42EFF30D90794
:100DF800FF30DA3DE82ECF01D31F182FFF30500502
:100E0800C900FF305105CA00FF305205CB007F30C2
:100E18005305CC004C084B044A04490403195518DF
:100E2800162F182FCF01CF0A4F080319412F013071
:100E3800D5070030D63D0030D73D0030D83D581C8E
:100E4800412F5508C9005608CA005708CB00580852
:100E5800CC000130CD00CC37CB0CCA0CC90CCD0B63
:100E68002F2F4C08D8004B08D7004A08D60049084D
:100E7800D5000130D9070030DA3D5A08803AC90058
:100E880080304902031D4A2FFF305902031C562F98
:100E98007F304001D8008030D7000030D6000030C5
:100EA800D500802F40015A08803AC9008030490295
:100EB800031D602F0130590203186D2F00304001C7
:100EC800D8000030D7000030D6000030D500CE0161
:100ED800802F40015908C9004908D400FF30D505C2
:100EE800FF30D6057F30D7050030D8055418D717FE
:100EF8005436C9004908D8004E08C9004908D80422
:100F08005808C4005708C3005608C2005508C10055
:100F180008004001AA004E011612B1316F21873135
:100F28004001A8002808AB002B0842016206031DF7
:100F3800EF2F40012B03031DCE2F2708FF3EA800EB
:100F4800FF3003180030A9002908803A803C031DAF
:100F5800AF2F28082A020318CE2F01304001A8001D
:100F68002808AA07AC011830B131502187311A304E
:100F78004001A800F830890BBF2FA80BBF2F000035
:100F880001304001A8002808AC070C302C020318D7
:100F9800EF2FB72F023040012B06031DEF2F2A0831
:100FA8000319EF2F0130AA02AC011C30B1315021D6
:100FB80087311A304001A800F830890BE12FA80BBF
:100FC800E12F000001304001A8002808AC070C30D0
:100FD8002C02031CD92F40012B08A8002808420125
:100FE800E2004E01161640012A08080001340134B7
:101000006434003400340034003440341434543434
:1010100000344034143454344A308600273087007A
:101020000030C03F0030C13F0030C23F0030C33FFE
:101030004A3086002730870044310030C03F0030FE
:10104000C13F0030C23F0030C33F4A3086002730E6
:10105000870048310030C03F0030C13F0030C23F00
:101060000030C33F4A308600273087004C31810171
:101070004A308600273087004D310030C03F0030B5
:10108000C13F0030C23F0030C33F4A3086002730A6
:10109000870051310030C03F0030C13F0030C23FB7
:1010A0000030C33F4A30860027308700553100307A
:1010B000C03F0030C13F0030C23F0030C33F4A3024
:1010C00086002730870059310030C03F0030C13FD3
:1010D0000030C23F0030C33F4A30860027308700CF
:1010E0005D310030C03F0030C13F4030C23F403032
:1010F000C33F6B308600273087000030C03F003090
:10110000C13F2030C23FC230C33F6F30860027301E
:1011100087000030C03F0030C13F8030C23F3F30C9
:10112000C33F4001B7013708B300B4013308AD0035
:101130003408AE001F30AF000030B000B131DE2106
:10114000883174304001B5002730B6002D083507CE
:10115000B8002E08363DB9003808860039088700E7
:1011600055310030C03F0030C13F8030C23F403079
:10117000C33F38081E3EB3000030393DB400330889
:101180008600340887000530810038081D3EB30012
:101190000030393DB4003308860034088700013040
:1011A0008100380886003908870044310030C03F8C
:1011B0000030C13F0030C23F0030C33F38088600D6
:1011C0003908870050310030C03F0030C13F8030C7
:1011D000C23FBF30C33F3808860039088700483116
:1011E0000030C03F0030C13F0030C23F0030C33F3D
:1011F00038088600390887004C310030C03F003085
:10120000C13F0030C23F0030C33F38088600390874
:1012100087000030C03F0030C13F0030C23F003087
:10122000C33F0130B3003308B70704303702031857
:101230000800932842016808B331D3238931410162
:101240006D080319E229D101043051020318E22983
:101250004001AD012530AE00BB30AF000C30410184
:10126000C70047084001A90041015108B1319D2143
:101270008931B331A1238931E6304001A900013021
:10128000AA0041015108013EC70047084001AB00D8
:10129000AC01AC0AB7313E2789314001AD01E630DF
:1012A000AE000130AF000C304101C70047084001DB
:1012B000A90041015108B1319D218931033EB3316B
:1012C000A12389314001AD013230AE00BB30AF0007
:1012D0000C304101C70047084001A90041015108F5
:1012E000B1319D218931043EB331A12389314101BE
:1012F0005108C700C80147084001AD004101480836
:101300004001AE001F30AF000030B000B131DE212F
:10131000893189304101C9002730CA0040012D08B8
:1013200041014907860040012E0841014A3D8700DE
:10133000403FCD00413FCE00423FCF00433FD00071
:101340005008BC004F08BB004E08BA004D08B90059
:101350000430C7004708BD00BE01BE0AE630A23116
:101360003B2289314001AD01E630AE000130AF00D3
:101370000C304101C70047084001A9004101510854
:10138000B1319D218931063EB331A123893140011C
:10139000AD012F30AE00BB30AF000C304101C700B3
:1013A00047084001A90041015108B1319D2189310F
:1013B0000A3EB331A123893101304101C7004708FA
:1013C000D1072429D101043051020318B62B742B04
:1013D0004001AD01AD0A3930AE00BA30AF000C307B
:1013E0004101C70047084001A90041015108B1313E
:1013F0009D218931B331A1238931B02B4001AD0149
:10140000AD0ADE30AE00B930AF000C304101C7008C
:1014100047084001A90041015108B1319D2189319E
:10142000B331A1238931B02B5108C700C801470847
:101430004001AD00410148084001AE001F30AF003F
:101440000030B000B131DE21893180304101C90066
:101450002730CA0040012D0841014907860040019C
:101460002E0841014A3D8700403FCD00413FCE005C
:10147000423FCF00433FD0005008BC004F08BB00A4
:101480004E08BA004D08B9000430C7004708BD0037
:10149000BE01BE0AE630A2313B2289314001AD01D6
:1014A000AD0AE630AE000130AF000C304101C7009C
:1014B00047084001A90041015108B1319D218931FE
:1014C000B331A123893141015108C700C801470840
:1014D0004001AD00410148084001AE001F30AF009F
:1014E0000030B000B131DE21893191304101C900B5
:1014F0002730CA0040012D084101490786004001FC
:101500002E0841014A3D87000103031D052B4001C0
:10151000AD01AD0A3530AE00BB30AF000C3041013B
:10152000C70047084001A90041015108B1319D2180
:101530008931043EB331A123893141015108C700EB
:10154000C80147084001AD00410148084001AE0014
:101550001F30AF000030B000B131DE2189317C3066
:101560004101C9002730CA0040012D084101490747
:10157000860040012E0841014A3D8700403FCD00D2
:10158000413FCE00423FCF00433FD0005008BC0057
:101590004F08BB004E08BA004D08B9000430C70020
:1015A0004708BD00BE01BE0AE630A2313B228931A8
:1015B0004001AD01AD0AE630AE000130AF000C30A5
:1015C0004101C70047084001A90041015108B1315C
:1015D0009D218931063EB331A12389314001AD01FE
:1015E000AD0A3830AE00BB30AF000C304101C7004F
:1015F00047084001A90041015108B1319D218931BD
:101600000A3EB331A1238931B02B4001AD01AD0AAF
:10161000AF30AE00BA30AF000C304101C700470810
:101620004001A90041015108B1319D218931043E99
:10163000B331A1238931B02B4001AD01AD0A533044
:10164000AE00BA30AF000C304101C700470840017E
:10165000A90041015108B1319D218931B331A12344
:101660008931B02B4001AD01AD0AD130AE00B930A7
:10167000AF000C304101C70047084001A9004101FB
:101680005108B1319D218931B331A1238931B02B6A
:101690004001AD01AD0A4630AE00BA30AF000C30AB
:1016A0004101C70047084001A90041015108B1317B
:1016B0009D218931B331A1238931B02B4001AD0186
:1016C000AD0A6D30AE00BA30AF000C304101C7003A
:1016D00047084001A90041015108B1319D218931DC
:1016E000B331A1238931B02B5108C700C801470885
:1016F0004001AD00410148084001AE001F30AF007D
:101700000030B000B131DE21893192304101C90091
:101710002730CA0040012D084101490786004001D9
:101720002E0841014A3D87000108CB00CC014C083E
:10173000003A03199C2B5E2B4B08003A0319FE2933
:10174000013A0319142A033A03191C2B013A03190D
:10175000322B073A0319482B013A0319E8295E2B6B
:1017600001304101C7004708D107E3290430C70011
:1017700047084001A7004201680887318D274101D1
:10178000C80048084201E80068084101C70047084E
:10179000EB004201680808004401DD015D08533E8A
:1017A000860002308700810181035D08593E860072
:1017B00002308700810181035D084101D300D4011B
:1017C0000930D50055084001A90044015D08B13138
:1017D0009D218B31A03E86000230870041015308D5
:1017E000C03F5408C13F44015D084101D300D4010A
:1017F00053084001AD00410154084001AE001F30C4
:10180000AF000030B000B131DE218B3174304101C6
:10181000D5002730D60040012D084101550786002C
:1018200040012E084101563D8700403FD700413F0F
:10183000D800423FD900433FDA000930DB005B08A3
:101840004001A90044015D08B1319D218B31A23EC8
:1018500086000230870041015708C03F5808C13F49
:101860005908C23F5A08C33F44015D084101D300F3
:10187000D40153084001AD00410154084001AE00BD
:101880001F30AF000030B000B131DE218B31883025
:101890004101D5002730D60040012D0841015507F0
:1018A000860040012E084101563D87000108D700FF
:1018B0000930D80058084001A90044015D08B13141
:1018C0009D218B31A63E86000230870041015708DA
:1018D00081000130D30053084401DD0704305D026C
:1018E000031CCE2B04304101BB000030BC0009308A
:1018F000BD000030BE000730BF002830C000A0305F
:101900009C316C248B3100304401D2000030D10076
:101910000030D0000030CF005208CE005108CD007A
:101920005008CC004F08CB004E08CA004D08C90033
:101930004C08C8004B08C700D801D701DD010930A9
:101940004101D30053084001A90044015D08B131B1
:101950009D218B31A23E860002308700403F40012E
:10196000DB00413FDC00423FDD00433FDE0044013D
:101970004A084001E200440149084001E1004401F5
:1019800048084001E000440147084001DF0092316F
:1019900050228B3140015E084401CA0040015D08BD
:1019A0004401C90040015C084401C80040015B08D3
:1019B0004401C70040304101B0006030AF0000304A
:1019C000AE000030AD0044014E084001DE0044018D
:1019D0004D084001DD0044014C084001DC00440199
:1019E0004B084001DB0009304101D300530840019E
:1019F000A90044015D08B1319D218B31A23E8600D2
:101A000002308700403F4001DF00413FE000423F9D
:101A1000E100433FE200923150228B3140015E08E9
:101A20004101B40040015D084101B30040015C0880
:101A30004101B20040015B084101B100AA31062218
:101A40008B31031C702D09304101D3005308400134
:101A5000A90044015D08B1319D218B31A23E860071
:101A600002308700403F4001DB00413FDC00423F45
:101A7000DD00433FDE0044014E084001E200440126
:101A80004D084001E10044014C084001E0004401E0
:101A90004B084001DF00923150228B3140015E083B
:101AA0004401CE0040015D084401CD0040015C08C6
:101AB0004401CC0040015B084401CB005D084101BA
:101AC000D30044015708533E86000230870041018D
:101AD000530881000130D30053084401D707052E75
:101AE00040304101B0006030AF000030AE00003047
:101AF000AD00440152084001DE004401510840019C
:101B0000DD00440150084001DC0044014F08400161
:101B1000DB0009304101D30053084001A900440112
:101B20005D08B1319D218B31A23E860002308700D5
:101B3000403F4001DF00413FE000423FE100433FC2
:101B4000E200923150228B3140015E084101B40025
:101B500040015D084101B30040015C084101B20051
:101B600040015B084101B100AA3106228B31031C00
:101B7000052E09304101D30053084001A90044015A
:101B80005D08B1319D218B31A23E86000230870075
:101B9000403F4001DB00413FDC00423FDD00433F6E
:101BA000DE00440152084001E200440151084001B6
:101BB000E100440150084001E00044014F084001A9
:101BC000DF00923150228B3140015E084401D20087
:101BD00040015D084401D10040015C084401D0008F
:101BE00040015B084401CF005D084101D30044017E
:101BF0005808593E86000230870041015308810091
:101C00000130D30053084401D80701304101D3000B
:101C100053084401DD0704305D02031C9F2C570864
:101C20004101D300D4015308BB005408BC0001306B
:101C3000BD000030BE006F30BF003430C0005330F4
:101C40009C316C248B31440158084101D300D401EC
:101C50005308BB005408BC000130BD000030BE007A
:101C60003A30BF003430C00059309C316C248B3185
:101C70004401DD0157085D020318F42E5D08593E4A
:101C8000860002308700811BAC2E09304101D30051
:101C900053084001A90044015D08593E8600023006
:101CA00087000108B1319D218B31A63E86000230AC
:101CB000870009304101D40054084001A9004401C3
:101CC0005D08533E8400023085000008B1319D213B
:101CD0008B31A63E840002308500000801074101D7
:101CE000D500D601D60D5608803AD700803057026D
:101CF000031D7C2E65305502031CAC2E09304101BA
:101D0000D30053084001A90044015D08533E8600FA
:101D1000023087000108B1319D218B31A63E86003B
:101D2000023087000108643C4101D4000930D5002D
:101D300055084001A90044015D08593E8600023063
:101D400087000108B1319D218B31A63E860002300B
:101D5000870041015408810009304101D300530834
:101D60004001A90044015D08533E8600023087000F
:101D70000108B1319D218B31A73E860002308700DA
:101D8000810109304101D30053084001A9004401F9
:101D90005D08533E8600023087000108B1319D2165
:101DA0008B31A63E86000230870001084101D40035
:101DB0000930D50055084001A90044015D08533E93
:101DC0008600023087000108B1319D218B31A83E89
:101DD0008600023087004101540881000130D300A1
:101DE00053084401DD073A2EDD0158085D0203184F
:101DF000452F09304101D30053084001A900440197
:101E00005D08593E8600023087000108B1319D21EE
:101E10008B31A63E8600023087000108643C4101F8
:101E2000D4000930D50055084001A90044015D08DF
:101E3000593E8600023087000108B1319D218B3167
:101E4000A73E8600023087004101540881006430BB
:101E5000D3000930D40054084001A90044015D08B2
:101E6000593E8600023087000108B1319D218B3137
:101E7000A83E8600023087004101530881000130EE
:101E8000D30053084401DD07F52EDD01093041017F
:101E9000D30053084001A90044015D08B1319D21E0
:101EA0008B31A03E860002308700403F4001AD00EC
:101EB000413FAE001F30AF000030B000B131DE2135
:101EC0008B3180304101D4002730D50040012D08EE
:101ED00041015407860040012E084101553D87000D
:101EE00042304001DE00C830DD000030DC00003050
:101EF000DB001F30AF000030B00009304101D600D8
:101F000056084001A90044015D08B1319D218B3183
:101F1000A03E840002308500003F4001AD00013F3B
:101F2000AE00B131DE218B3178304101D70027304E
:101F3000D80040012D0841015707840040012E08B8
:101F40004101583D8500003F4001C100013FC200F2
:101F5000023FC300033FC40009304101D9005908C2
:101F60004001A90044015D08B1319D218B31A63E9D
:101F700084000230850000084101DA00DB01DC0149
:101F8000DD015D084001B60041015C084001B5007B
:101F900041015B084001B40041015A084001B3000F
:101FA0000130AC310F248B3140013608C8003508B0
:101FB000C7003408C6003308C500853161258B3160
:101FC00040014408E2004308E1004208E000410803
:101FD000DF009E3128268B3140015B08C03F5C0842
:101FE000C13F5D08C23F5E08C33F01304101D300DD
:101FF00053084401DD0704305D0203180800462F32
:102002000830B131502190311330B13150210800E4
:1020120040012E08A0002F08A100A201A301003058
:10202200B4000030B5000130B6000030B70030080F
:10203200B4023108B53B3208B63B3308B73B370828
:10204200A7003608A6003508A5003408A400B3315D
:102052004023903140012008B8002108B90022082D
:10206200BA002308BB002C08A0002D08A100A20181
:10207200A3013308A7003208A6003108A5003008E2
:10208200A400B3314023903140012008B807210851
:10209200B93D2208BA3D2308BB3D3B08BF003A08C0
:1020A200BE003908BD003808BC000030B4008030E2
:1020B200B5000030B6000030B7003C08B4073D0858
:1020C200B53D3E08B63D3F08B73D1030B736B60CB9
:1020D200B50CB40C890B67283508AD003408AC0088
:1020E20008007330860027308700010C4101C700C9
:1020F200C70C470C013942016F0603199928733046
:10210200860027308700003081190130EF007330DC
:10211200860027308700811D9028E9019628033028
:102122004101C70047084201E9004101ED01ED0A02
:1021320042016908B331D323903141016D0803197B
:10214200B7284001AD011230AE00B830AF00003008
:10215200B331A12390314001AD01AD0AE830AE00A8
:10216200BA30AF003030B331A123903173308600E2
:1021720027308700011E15294A3086002730870044
:10218200403F4101B900413FBA00423FBB00433FDB
:10219200BC000530C7004708BD00BE01BE0AE630DC
:1021A200A2313B2290314001AD01AD0AE630AE00D2
:1021B2000130AF000030B331A12390314001AD01B5
:1021C200AD0A1D30AE00BB30AF000530B331A123E4
:1021D20090314A308600273087004D31403F41011F
:1021E200B900413FBA00423FBB00433FBC0003304D
:1021F200C7004708BD00BE01E630A2313B22903144
:102202004001AD01AD0AE630AE000130AF0008304A
:10221200B331A12390314001AD01AD0A3B30AE0094
:10222200BB30AF000B303F294A3086002730870091
:10223200403F4101B900413FBA00423FBB00433F2A
:10224200BC000530C7004708BD00BE01BE0AE6302B
:10225200A2313B2290314001AD01AD0AE630AE0021
:102262000130AF000030B331A12390314001AD0104
:10227200AD0AC830AE00BA30AF000530B331A12389
:1022820090314A308600273087004431403F410177
:10229200B900413FBA00423FBB00433FBC0005309A
:1022A200C7004708BD00BE01BE0AE630A2313B228C
:1022B20090314001AD01AD0AE630AE000130AF0011
:1022C2000C30B331A12390314001AD01AD0A05308C
:1022D200AE00BB30AF001130B331A12390314A3090
:1022E2008600273087004831403F4101B900413F15
:1022F200BA00423FBB00433FBC000530C70047085D
:10230200BD00BE01BE0AE630A2313B22903140013F
:10231200AD01AD0AE630AE000130AF001830B33186
:10232200A12390314001AD01AD0AC830AE00BA30F0
:10233200AF001D30B331A12390314A3086002730DF
:1023420087005131403F4101B900413FBA00423F4D
:10235200BB00433FBC000430C7004708BD00BE01BC
:10236200BE0AE630A2313B2290314001AD01AD0AF6
:10237200E630AE000130AF002430B331A1239031FA
:102382004001AD01AD0A2130AE00BB30AF002830B4
:10239200B331A12390314A3086002730870059316A
:1023A200403F4101B900413FBA00423FBB00433FB9
:1023B200BC000430C7004708BD00BE01BE0AE630BB
:1023C200A2313B2290314001AD01AD0AE630AE00B0
:1023D2000130AF002B30B331A12390314001AD0168
:1023E200AD0A8130AE00B930AF002F30B331A12336
:1023F2009031E6304001A9000130AA00AB01AB0ADE
:1024020003304101C70047084001AC00B7313E2705
:1024120090314001AD01E630AE000130AF003830FE
:10242200B331A12390317330860027308700811D9C
:102432004D2AE6304001A9000130AA004A30860048
:10244200273087004C3101084101C700470840018D
:10245200AB0003304101C80048084001AC00B7316D
:102462003E2790314001AD01AD0AE630AE000130A9
:10247200AF003830B331A123903105304101C7009C
:1024820047084001A7004201690887318D274101B1
:10249200C80048084201E9004201690808004001F9
:1024A2005E088039E3006308EB005E35E3006308F1
:1024B200ED00DD1B6D146D0803196D2A6D0A031DF5
:1024C2006A2A0030DE000030DD000030DC0000301F
:1024D200DB00DD17DE01752A0030DE000030DD0092
:1024E2000030DC000030DB0062088039E300630862
:1024F200EC006C086B06031D6B176235E300630882
:10250200EC00E11B6C146C080319952A6C0A031D7C
:10251200922A0030E2000030E1000030E00000309A
:10252200DF00E117E2019D2A0030E2000030E10005
:102532000030E0000030DF006D086C020318E32A6F
:102542006B1FA72A8030E3006308EB066D08E300E7
:102552006308EE006C08E3006308ED006E08E30018
:102562006308EC005B08E3006308EE005F08E30029
:102572006308DB006E08E3006308DF005C08E30029
:102582006308EE006008E3006308DC006E08E30005
:102592006308E0005D08E3006308EE006108E30001
:1025A2006308DD006E08E3006308E1005E08E300F3
:1025B2006308EE006208E3006308DE006E08E300D1
:1025C2006308E200EE016C08E300E4016408E6003F
:1025D2006D086302E500031CE6036608803AE70023
:1025E20080306702031DF72A1A306502031C2B2B69
:1025F20040015E085D045C045B040319022B013098
:10260200032B0030E3006308EE000030DE000030F0
:10261200DD000030DC000030DB006C08E300630802
:10262200ED00302B6E1C1B2B6E360138E300630865
:10263200EE001D2B0310EE0C5B18EE170130E300C9
:10264200DE37DD0CDC0CDB0CE30B212B0130E3006D
:102652006308ED0740016C086D02031C132B6B1B12
:10266200612B6D08031D3E2B0030DE000030DD00C3
:102672000030DC000030DB0008005F08DB07600888
:10268200DC3D6108DD3D6208DE3D5E1CDB2B6E1C1D
:10269200502B6E360138E3006308EE00522B031014
:1026A200EE0C5B18EE170130E300DE37DD0CDC0CBC
:1026B200DB0CE30B562B0130E3006308ED07DB2B49
:1026C2005E08803AE3006208803A6302031D732BBE
:1026D20061085D02031D732B60085C02031D732BEE
:1026E2005F085B020318AB2BFF30E300FF30E4000E
:1026F200FF30E500FF30E6005B085F02E7005C08A0
:10270200603BE8005D08613BE9005E08623BEA006D
:102712006708E3076808E43D6908E53D6A08E63DA5
:102722006608DE006508DD006408DC006308DB0083
:102732008030E3006308EB06EE09EE0A6E08031D23
:10274200B32B0130DB070030DC3D0030DD3D0030D3
:10275200DE3DB32B5F08DB026008DC3B6108DD3B3A
:102762006208DE3B5E085D045C045B04031DD92B3A
:102772006E08031DD92B0030DE000030DD00003072
:10278200DC000030DB0008000130DB35DC0DDD0D44
:10279200DE0D890BC62BEE1B5B146E1CD22B0314B1
:1027A200D32B0310EE0D6D080319D92B0130ED0266
:1027B200DD1FC52BEC01EE1FE62B6E087F390319D6
:1027C2005B18E42BE62BEC01EC0A6C080319122CC3
:1027D2000130DB070030DC3D0030DD3D0030DE3D06
:1027E2005E1C122C5B08E3005C08E4005D08E50057
:1027F2005E08E6000130E700E637E50CE40CE30C86
:10280200E70BFD2B6608DE006508DD006408DC00CE
:102812006308DB006D0A0319122C0130E300630820
:10282200ED076D0A031D6D08031D222C0030DE002A
:102832000030DD000030DC000030DB006D080319E1
:10284200EB016D1C262CDD172A2C7F30E300630878
:10285200DD056D36E3006308DE00EB1F0800DE17BE
:1028620008004101CE014E08B900BA013908400101
:10287200AD0041013A084001AE001F30AF00003008
:10288200B000B131DE21943174304101BB002730F8
:10289200BC0040012D0841013B07CF0040012E083A
:1028A20041013C3DD0004F088600500887005E3150
:1028B200043001060319F62F4001AD01AD0A4101B2
:1028C2004E08B531762594314101C7014F08860083
:1028D20050088700403FA800413FA900423FAA009C
:1028E200433FAB00A8313E20943141012908C90081
:1028F2002808C8001130B131FA2194314001210871
:102902004101BE00400120084101BD003E084001D6
:10291200AD0041013D084001AC00410149084001C0
:10292200AF00410148084001AE000030B300003062
:10293200B200B330B1003230B0009031092094318E
:1029420040012D084101C90040012C084101C80085
:102952004708C70AB90032303902031C7B2C4001F8
:10296200AD0141014E08B531762594314530400123
:10297200DE001F30DD00D830DC000030DB004030EC
:10298200C400A030C3000030C2000030C1004101C9
:1029920048084001B300410149084001B400B501B3
:1029A200B6010030AC310F24943140013608C80022
:1029B2003508C7003408C6003308C50085316125D3
:1029C200943140014408E2004308E1004208E0007B
:1029D2004108DF009E312826943140015E08410102
:1029E200CD0040015D084101CC0040015C0841017D
:1029F200CB0040015B084101CA004D08B0004C0801
:102A0200AF004B08AE004A08AD003D30B4004C3078
:102A1200B300CC30B200CD30B100AA3106229431DD
:102A220003182D2D41014F088600500887005E31A2
:102A32000103031D202D0130983100209431410102
:102A42004F081E3EB9000030503DBA0039088600DA
:102A52003A0887000230F52F40304101B0000030C3
:102A6200AF000030AE000030AD004D08B4004C089D
:102A7200B3004B08B2004A08B100AA3106229431D1
:102A8200031C462D40010E19742D0430983100208C
:102A9200943141014F081E3EB9000030503DBA004A
:102AA200390886003A0887000430810040010E1977
:102AB200F62F41014F081E3EB9000030503DBA00CA
:102AC200390886003A0887000330810040019A11D4
:102AD20007304101B9007D30890B6D2DB90B6D2D89
:102AE20040019A15F62F41014F08860050088700D1
:102AF2004A08C03F4B08C13F4C08C23F4D08C33F84
:102B02004D084001C40041014C084001C30041018D
:102B12004B084001C20041014A084001C1004A304D
:102B22008600273087005131403FC500413FC60033
:102B3200423FC700433FC8008531612594314101BE
:102B42004F08860050088700443140014108C03FC9
:102B52004208C13F4308C23F4408C33F41014F08F6
:102B62008600500887004431403FAD00413FAE002F
:102B7200423FAF00433FB0004F0886005008870035
:102B82005031403FB100413FB200423FB300433FAA
:102B9200B400AA31062294310318EA2D41014F08EC
:102BA2008600500887004431403FB900413FBA00D7
:102BB200423FBB00433FBC004F08860050088700DD
:102BC20050313908C03F3A08C13F3B08C23F3C0878
:102BD200C33F7330860027308700811D362E4101A6
:102BE2004F088600500887005031403FAD00413FFA
:102BF200AE00423FAF00433FB0000030B4000030AF
:102C0200B3000030B2000030B100AA310622943184
:102C12000318192E41014F081D3EB9000030503DE6
:102C2200BA00390886003A08870001308100572E21
:102C320000304101B0000030AF000030AE00003083
:102C4200AD004F088600500887005031403FB10068
:102C5200413FB200423FB300433FB400AA310622D3
:102C620094310318572E4101512E41014F0886001D
:102C7200500887004431403FB900413FBA00423F0B
:102C8200BB00433FBC004F0886005008870050310C
:102C92003908C03F3A08C13F3B08C23F3C08C33F26
:102CA2004F088600500887005D31810141014F08BD
:102CB2008600500887005031403F4001A000413F4C
:102CC200A100423FA200433FA3000030A700003012
:102CD200A6000030A5000030A400B531BD25943116
:102CE200031C7B2E41014F088600500887005E318D
:102CF2008101882E41014F081E3EB9000030503D2F
:102D0200BA00390886003A088700013081004F086E
:102D12008600500887005D310103031D3A2F4230BF
:102D22004001C400C830C3000030C2000030C100FE
:102D320041014F088600500887004431403F40015E
:102D4200DB00413FDC00423FDD00433FDE0041014A
:102D52004F088600500887004831403F4001DF009D
:102D6200413FE000423FE100433FE2009E3128261E
:102D7200943140015E08C8005D08C7005C08C600C7
:102D82005B08C50085316125943140014408410149
:102D9200B000400143084101AF0040014208410137
:102DA200AE00400141084101AD004230B400C830DC
:102DB200B3000030B2000030B100AA3106229431D3
:102DC200031CEC2E42304101C200C830C100003069
:102DD200C0000030312F42304001C400C830C3006F
:102DE2000030C2000030C10041014F088600500887
:102DF20087004431403F4001DB00413FDC00423F5D
:102E0200DD00433FDE0041014F0886005008870085
:102E12004831403F4001DF00413FE000423FE100D6
:102E2200433FE2009E312826943140015E08C800EB
:102E32005D08C7005C08C6005B08C50085316125D6
:102E42009431400144084101C2004001430841015C
:102E5200C100400142084101C00040014108410156
:102E6200BF004208AB004108AA004008A9003F0881
:102E7200E32F42304001C400C830C3000030C2001A
:102E82000030C10041014F088600500887004431DC
:102E9200403F4001DB00413FDC00423FDD00433F59
:102EA200DE0041014F088600500887005031403F44
:102EB2004001DF00413FE000423FE100433FE200CA
:102EC2009E312826943140015E08C8005D08C70083
:102ED2005C08C6005B08C50085316125943140015C
:102EE20044084101B000400143084101AF004001E4
:102EF20042084101AE00400141084101AD004230AB
:102F0200B400C830B3000030B2000030B100AA31C2
:102F120006229431031C962F42304101C600C8306C
:102F2200C5000030C4000030DB2F42304001C40035
:102F3200C830C3000030C2000030C10041014F0858
:102F42008600500887004431403F4001DB00413F8A
:102F5200DC00423FDD00433FDE0041014F088600B6
:102F6200500887005031403F4001DF00413FE00000
:102F7200423FE100433FE2009E3128269431400166
:102F82005E08C8005D08C7005C08C6005B08C50093
:102F9200853161259431400144084101C600400158
:102FA20043084101C500400142084101C4004001FB
:102FB20041084101C3004608AB004508AA00440885
:102FC200A9004308A800A8313E20943141012808F5
:102FD200B9004F08143EBA000030503DBB003A0819
:102FE20086003B0887003908810001304101B900A1
:102FF2003908CE0704304E0203180800342C400171
:10300200A8002808A70042016508203E8600023079
:1030120087004001270881000A30A0000030A1008B
:1030220042016508013E4001A20000300318013050
:10303200A300B431E924983140012008A7002708F1
:103042004201E50065087C06031D08000A304001C4
:10305200A0000030A1007C08013EA200003003184D
:103062000130A300B431E92440012008A700270859
:10307200FC00080042016408031965285F0840014A
:10308200A30042015E084001A20042015D08400126
:10309200A10042015C084001A000B631E42698314B
:1030A20040012308031D08002208031D0800B03058
:1030B20020020430213B031808004201E4010C30D5
:1030C200B131502198318B285F084001A3004201A1
:1030D2005E084001A20042015D084001A1004201D8
:1030E2005C084001A000B631E42698314001230873
:1030F200031D84282208031D8428B13020020430D5
:10310200213B031C8B284201E401E40A0830B1315F
:1031120050210800420163084101D200D301D23597
:10312200D30D003052078400B830533D8500003F74
:10313200D900013FDA0059085A040319AA285A088B
:103142008A0059080A0098314101D2005208D6007B
:10315200AE280C309831002098314101ED01B13197
:103162007A2198314101D2005208D70042015F080A
:103172004001A30042015E084001A20042015D0835
:103182004001A10042015C084001A000B631E426E2
:10319200983140012308031DD7282208031DD72890
:1031A2002D3020020130213B031CD9280130DA28BE
:1031B20000304101D2005208D8005608D20052080D
:1031C2004001B30041015708D30053084001B40045
:1031D20041015808D40054084001B5004201630877
:1031E200A031532098314101D5005508DB00DB1B8B
:1031F20014295B08D200D301D21BD3034201630816
:103202004101D400D50153085506031D0A2952086D
:10321200540603190800ED01ED0A5B08D2005208BA
:103222004201E30008000C309831002008004101FF
:103232006B08C700C80147084001AD0041014808BA
:103242004001AE001F30AF000030B000B131DE21CE
:10325200993174304101C9002730CA0040012D085C
:1032620041014907CB0040012E0841014A3DCC00F3
:1032720042016708B331D323993141014B088600DB
:103282004C0887005E31010303194F294B08860061
:103292004C0887005E310108031D1A2A4001AD0166
:1032A2007A30AE00BA30AF000030B331A123993189
:1032B20041014B0886004C0887005031403F4001D5
:1032C200A000413FA100423FA200433FA3000030C3
:1032D200A7000030A6000030A5000030A400B531E0
:1032E200BD259931031CA3294001AD01AD0A14305B
:1032F200AE00BB30AF000030B331A1239931E630CC
:103302004001A9000130AA0041016B08013EC7003B
:1033120047084001AB00AC01AC0AB7313E279931F6
:103322004001AD01AD0AE630AE000130AF0004301D
:10333200B331A12399314001AD01AD0AD030AE00C5
:10334200BA30EB2941014B0886004C088700503106
:10335200403FAD00413FAE00423FAF00433FB000AF
:103362000030B4000030B3000030B2000030B100D1
:10337200AA31062299310318EE294001AD01AD0AA6
:103382001430AE00BB30AF000030B331A12399310D
:10339200E6304001A9000130AA0041016B08013E5C
:1033A200C70047084001AB00AC01AC0AB7313E2769
:1033B20099314001AD01AD0AE630AE000130AF00F7
:1033C2000430B331A12399314001AD01AD0AE0309F
:1033D200AE00BA30AF000530722A41014B088600B8
:1033E2004C0887005031403FB900413FBA00423F8C
:1033F200BB00433FBC000430C7004708BD00BE010C
:10340200BE0AE630A2313B2299314001AD01AD0A3C
:10341200E630AE000130AF000030B331A123993164
:103422004001AD01AD0AAF30AE00BA30AF0004309A
:10343200722A4B0886004C0887005E310230010672
:10344200031D342A4001AD019D30AE00B930AF00FA
:103452000030B331A12399314001AD01AD0A0530ED
:10346200AE00BA30702A4B0886004C0887005E31E5
:1034720005300106031D4E2A4001AD01B730AE00F2
:10348200B930AF000030B331A12399314001AD0111
:10349200AD0AEB30AE00B930702A4B0886004C08FA
:1034A20087005E31043001060319602A4B0886004A
:1034B2004C0887005E3103300106031D752A400166
:1034C200AD01AA30AE00B930AF000030B331A12354
:1034D20099314001AD01AD0AC430AE00B930AF0040
:1034E2000030B331A12399314001AD011F30AE004C
:1034F200BA30AF000C30B331A123993141014B08EE
:1035020086004C0887005531403FB900413FBA0060
:10351200423FBB00433FBC000430C7004708BD0028
:10352200BE01BE0AE630A2313B2299314001AD0113
:10353200AD0AE630AE000130AF000C30B331A1234A
:1035420099314001AD01AD0AD830AE00BA30AF00BA
:103552001130B331A123993102304101C70047082C
:103562004001A7004201670887318D274101C80049
:1035720048084201E700670808000630B131FA2125
:103582009A31400121084101B20040012008410165
:10359200B10032084001AD00410131084001AC00E8
:1035A200430163084001AF00430162084001AE00DD
:1035B2000030B3000030B2007F30B100FF30B00005
:1035C200903109209A3140012D084301E300400166
:1035D2002C084301E2001030B131FA219A31400146
:1035E20021084101B200400120084101B100320826
:1035F2004001AD00410131084001AC0043016108C6
:103602004001AF00430160084001AE000030B3004A
:103612000030B200CC30B100CC30B0009031092083
:103622009A3140012D084301E10040012C08430179
:10363200E0001130B131FA219A31400121084101F3
:10364200B200400120084101B10032084001AD0042
:10365200410131084001AC00440137084001AF008C
:10366200440136084001AE000030B3000030B20021
:103672004C30B100CC30B000903109209A31400179
:103682002D084401B70040012C084401B600C230A5
:103692004001DE000A30DD000C30DC004A30DB0085
:1036A2003D30C400F330C300EA30C200B330C10081
:1036B200430162084001B300430163084001B400C2
:1036C200B501B6010030AC310F249A314001360801
:1036D200C8003508C7003408C6003308C500853164
:1036E20061259A3140014408E2004308E1004208A2
:1036F200E0004108DF00923150229A314A308600C0
:10370200273087004D3140015B08C03F5C08C13F54
:103712005D08C23F5E08C33F4030C400A030C30012
:103722000030C2000030C100430160084001B30014
:10373200430161084001B400B501B6010030AC316B
:103742000F249A3140013608C8003508C7003408F2
:10375200C6003308C500853161259A31400144080D
:103762004101B000400143084101AF00400142085D
:103772004101AE00400141084101AD004730400126
:10378200DE003B30DD00D130DC000030DB004330B6
:10379200C4004530C3000030C2000030C100410106
:1037A20030084001C80041012F084001C700410113
:1037B2002E084001C60041012D084001C500853197
:1037C20061259A3140014408E2004308E1004208C1
:1037D200E0004108DF009E3128269A314A308600F7
:1037E20027308700513140015B08C03F5C08C13F70
:1037F2005D08C23F5E08C33F4530DE001F30DD007A
:10380200D830DC000030DB004030C400A030C30000
:103812000030C2000030C100440136084001B3004C
:10382200440137084001B400B501B6010030AC31A3
:103832000F249A3140013608C8003508C700340801
:10384200C6003308C500853161259A31400144081C
:10385200E2004308E1004208E0004108DF009E3137
:1038620028269A314A308600273087005531400198
:103872005B08C03F5C08C13F5D08C23F5E08C33FB2
:103882004A308600273087005531403FC100413F12
:10389200C200423FC300433FC4004A308600273083
:1038A20087005131403FC500413FC600423FC7003B
:1038B200433FC800853161254A30860027308700A2
:1038C200593140014108C03F4208C13F4308C23F4D
:1038D2004408C33F08004101C6004608C100410830
:1038E200C80000303E023C3003193D0203180800B4
:1038F2002030C1004108C7003D084707C100410808
:103902008600013087008101CD01CE014301A00173
:10391200A10141013B08FF3E4301A200FF304101EA
:103922003C3D4301A30041014D08C1000130C135B6
:10393200FF3E031D982C4135A03E860001308700D2
:10394200403FC900413FCA004D08C1000130C135A6
:10395200FF3E031DA82C4135023EA03E86000130E9
:103962008700403FCB00413FCC00FF30CD07FF3006
:10397200CE3D41014A08D0004908CF004C08D20090
:103982004B08D1003D08C10041084001A900410196
:1039920051084F074001A20041015208503D400129
:1039A200A3000230A0000030A100A03101209C3110
:1039B20040012008B1319D219C3141014807C200DC
:1039C20042084001AD0041013E084001AF00410103
:1039D2003D084001AE0041014708B231E5229C3169
:1039E20041013D08C10041084001A90041014F08C1
:1039F200B1319D219C3141014807C200420840017A
:103A0200EF006F084101B3000230B4004708B5006F
:103A12000130B60040088A003F080A009D3141018A
:103A2200B41F1C2D0130CF070030D03DF12CFF30E8
:103A3200D107FF30D23D3D08C10041084001A90035
:103A420041015108B1319D219C3141014807C20019
:103A520042084001EF0041014708B3000130B400C1
:103A620040016F084101B5000230B60040088A00EB
:103A72003F080A009D314101B41B182D5208803ABB
:103A8200C1005008803A4102031D492D4F085102DE
:103A9200031C812D41013E084001AE0041013D0859
:103AA2004001AD0041013D08C10041084001A900AB
:103AB20041014F08B1319D219C3141014807C200AB
:103AC20042084001AF0041013D08C30043084001E4
:103AD200A90041015108B1319D219C3141014807A2
:103AE200C40044084001B000B33111239C310130BD
:103AF2004101CF070030D03DFF30D107FF30D23D2A
:103B020041015208803AC1005008803A4102031D27
:103B12008C2D4F0851020318F12C41014F084B0222
:103B2200C10050084C3BC20049085102C3004A0878
:103B3200523BC4004408803AC5004208803A45021C
:103B4200031DA52D410843020318E02D4101500831
:103B5200803AC1004C08803A4102031DB22D4B0845
:103B62004F020318DA2D01304101CD070030CE3D5E
:103B72004D08C1000130C135FF3E031DBC2D41354A
:103B8200A03E8600013087004F08C03F5008C13F69
:103B92004D08C1000130C135FF3E031DCC2D41351A
:103BA200023EA03E8600013087004B08C03F4C0811
:103BB200C13F41015208CC005108CB00182E4101EF
:103BC2004A08803AC1005208803A4102031DEB2D97
:103BD200510849020318132E01304101CD0700306C
:103BE200CE3D4D08C1000130C135FF3E031DF52D0C
:103BF2004135A03E8600013087004908C03F4A088F
:103C0200C13F4D08C1000130C135FF3E031D052EE5
:103C12004135023EA03E8600013087005108C03F78
:103C22005208C13F41015008CA004F08C9004A0862
:103C3200803AC1004C08803A4102031D222E4B08F3
:103C42004902031CBA2C4101CE1B0800942C4001EE
:103C520062088039E30063084101A4004001623533
:103C6200E30063084101AB004001E11F3A2E41012C
:103C72002B1441012B0803194E2E2B0A031D4A2E29
:103C820000304001E2000030E1000030E00000308E
:103C9200DF004001E117E201572E00304001E2004F
:103CA2000030E1000030E0000030DF005E088039C3
:103CB200E30063084101A40640015E35E3006308A6
:103CC2004101AC004001DD1F682E41012C1441016D
:103CD2002C0803197C2E2C0A031D782E003040017B
:103CE200DE000030DD000030DC000030DB0040018F
:103CF200DD17DE01852E00304001DE000030DD00E0
:103D02000030DC000030DB005E085D045C045B0414
:103D1200031DA62E0030E2000030E1000030E0007A
:103D22000030DF008030E1047F30E20441012408EA
:103D32004001E3006308E2046208DE006108DD007E
:103D42006008DC005F08DB00080041012B08031D4E
:103D5200B42E00304001DE000030DD000030DC0017
:103D62000030DB0008002B084001E300E401640896
:103D7200E60041012C0840016302E500031CE60352
:103D820065087F3E4101A50000304001663D4101CA
:103D9200A600400162084101A300400161084101FF
:103DA200A200400160084101A10040015F084101F9
:103DB200A00000304001E2000030E1000030E000ED
:103DC2000030DF0000304101AA000030A9000030BD
:103DD200A8000030A700AC011A302C020318402FB3
:103DE2002C080319102F0130A035A10DA20DA30D2F
:103DF200890BF52E01304001DF35E00DE10DE20DBA
:103E0200890BFC2E4101AA1F082F40015F140130CB
:103E12004101A735A80DA90DAA0D890B092F400153
:103E22005E0841012302031D262F40015D08410166
:103E32002202031D262F40015C0841012102031DBD
:103E4200262F40015B0841012002031C392F2A174B
:103E520040015B084101A00240015C084101A13B15
:103E620040015D084101A23B40015E084101A33BC4
:103E720001304001E30063084101AC07ED2E230845
:103E8200220421042004031D27144001E11B622F98
:103E92000130DF35E00DE10DE20D890B4A2F4101C2
:103EA200AA1F552F40015F1401304101A735A80D0B
:103EB200A90DAA0D890B562FFF30A507FF30A63D8D
:103EC200462F4101AC01AA1F842FFF302705400174
:103ED200E300FF30410128054001E400FF304101C9
:103EE20029054001E5007F3041012A054001E60035
:103EF200660865046404630403195F18812F842F24
:103F02004101AC01AC0A41012C080319B02F013068
:103F12004001DF070030E03D0030E13D0030E23D8E
:103F2200621CB02F5F08E3006008E4006108E5004E
:103F32006208E6000130E700E637E50CE40CE30C2A
:103F4200E70B9D2F6608E2006508E1006408E000C7
:103F52006308DF0001304101A5070030A63D4101A1
:103F62002608803A4001E30080306302031DBC2F23
:103F7200FF3041012502031CCC2FFF304101A50077
:103F82000030A60000304001E2000030E1000030C5
:103F9200E0000030DF0041012608803A4001E300E2
:103FA20080306302031DD82F01304101250203181E
:103FB200E82F4101A501A60100304001E2000030D6
:103FC200E1000030E0000030DF004101A4014101C6
:103FD20025084001E30063084101AB002B1CF42FCC
:103FE2004001E117F92F7F304001E3006308E1054A
:0E3FF20041012B364001E3006308E200972EE8
:104002004001A601A11F0C28A009A109A00A0319B9
:10401200A10AA601A60AA31F1728A209A309A20A98
:104022000319A30A0130A4002408A606A701A801C7
:104032002008210403194628A501A50AA11B2B2843
:104042000130A035A10D890B22280130A4002408DB
:10405200A5071F280130A735A80D890B2C28210898
:104062002302031D362820082202031C3D282008B3
:10407200A2022108A33B27140130A136A00C890B10
:104082003E280130A502031D2B28260803194E28BD
:10409200A709A809A70A0319A80A2808A10027083E
:1040A200A00008004001B900BA013A08B600B70101
:1040B2003608AD003708AE000630AF000030B00061
:1040C200B131DE21A03140012E0885002D08840087
:1040D20000308407B030853D00083906031D1129E0
:1040E2003A08B600B7013608AD003708AE00063010
:1040F200AF000030B000B131DE21A03140012E0806
:1041020085002D08840001308407B030853D000809
:1041120033060319A7283A08B600B7013608AD00DE
:104122003708AE000630AF000030B000B131DE21FA
:10413200A03140012E0885002D088400013084073B
:10414200B030853D1200FF3A031D112935080319CD
:10415200C2283A08B600B7013608AD003708AE00EB
:104162000630AF000030B000B131DE2140012E0830
:1041720085002D08840004308407B030853D000896
:1041820008003403031DDD283A08B600B7013608DB
:10419200AD003708AE000630AF000030B000B131DC
:1041A200DE2140012E0885002D088400023084079C
:1041B200B030853D0008080002303406031DF9289E
:1041C2003A08B600B7013608AD003708AE0006302F
:1041D200AF000030B000B131DE2140012E08850071
:1041E2002D08840003308407B030853D00080800A4
:1041F2003A08B600B7013608AD003708AE000630FF
:10420200AF000030B000B131DE2140012E08850040
:104212002D08840005308407B030853D0008080071
:104222000130B6003608BA0712303A02031C56288B
:10423200FF3008004A308600273087004D31403F6A
:104242004101AD00413FAE00423FAF00433FB000ED
:10425200C130B400F030B3000030B2000030B10021
:10426200AA310622A131031C512942304101B0007A
:104272007030AF000030AE000030AD004A30860032
:10428200273087004D31403FB100413FB200423FED
:10429200B300433FB400AA310622A13103185729C3
:1042A20073308600273087000112272A7330860078
:1042B200273087000116272A440167084001A3001E
:1042C200440166084001A200440165084001A100C2
:1042D200440164084001A000B631E426A131400146
:1042E2002308031D7E292208031D7E292108031DA0
:1042F2007E2964302002031C392A44013508B100AA
:104302003408B0003308AF003208AE003108E700CD
:104312003008E6002F08E5002E08E4003F30B131F6
:104322005A21A1314201E101E10A392A440131084D
:104332004001A300440130084001A20044012F08BB
:104342004001A10044012E084001A000B631E4263C
:10435200A13140012308031DB8292208031DB829F1
:104362002108031DB82915302002031CCD29733002
:10437200860027308700811DC729733086002730C9
:1043820087008111073098310020A1314201E101FB
:10439200B1314821A131392A42016D080319392A64
:1043A200ED01AA3044013806031D122A3A03031D07
:1043B200122A4A308600273087003B08C03F3C085B
:1043C200C13F3D08C23F3E08C33F4A308600273006
:1043D200870044313F08C03F4008C13F4108C23F07
:1043E2004208C33F4A3086002730870048314308DD
:1043F200C03F4408C13F4508C23F4608C33F390891
:104402004101B90056308600273087003908810003
:10441200733086002730870081154201E1010130A7
:1044220008007330860027308700811D212A7330EF
:104432008600273087008111083098310020A13191
:10444200B1314821A1314201E101392A4201610819
:104452004101B900BA013A08003A0319312A242A63
:104462003908003A03195D29013A03199729242AC8
:10447200003008004101C600C101C10AC501C201E4
:104482003C08B0003B08AF003A08AE003908AD0066
:104492000030B4000030B3000030B2000030B10090
:1044A200AA310622A2310318862ABF304001C40075
:1044B2008030C3000030C2000030C10041013C081E
:1044C2004001C80041013B084001C70041013A08D0
:1044D2004001C600410139084001C500853161250E
:1044E200A231400144084101BC004001430841019E
:1044F200BB00400142084101BA00400141084101AC
:10450200B900C201C20A0130BD0241013C08B0003B
:104512003B08AF003A08AE003908AD004130B400A4
:104522002030B3000030B2000030B100AA310622C0
:10453200A231031CCD2A41304001DE002030DD00D3
:104542000030DC000030DB0041013C084001E200A9
:1045520041013B084001E10041013A084001E0000D
:10456200410139084001DF009E312826A231400175
:104572005E084101BC0040015D084101BB004001F1
:104582005C084101BA0040015B084101B9000130F9
:10459200BF003F08C107862A410141083E07BF000C
:1045A2003F08C4003E08031DDA2A0130BF003F085D
:1045B200BD070130BD023D0844020318F02A203035
:1045C200BF0045084607C00040088600013087004A
:1045D2003F0881000130BF003F08C507DA2A4208C0
:1045E2000319022B2D30BF0045084607C0004008C2
:1045F2008600013087003F0881000130BF003F087C
:10460200C5070130C402440A0319992B3C08AB00C8
:104612003B08AA003A08A9003908A800A8313E20A0
:10462200A23141012808BF003F08C3000A304001FF
:10463200AF000030B00041014308BF00C0013F0895
:104642004001AD00410140084001AE00B131DE2120
:10465200A23140012D08B3002E08B400890D893B18
:104662008909B500B6000130AC310F24A2314001F6
:1046720036084101A300400135084101A200400172
:1046820034084101A100400133084101A00041303A
:104692004001C4002030C3000030C2000030C1001D
:1046A20041013C084001C80041013B084001C700EC
:1046B20041013A084001C600410139084001C500E4
:1046C20085316125A231400144084101A700400122
:1046D20043084101A600400142084101A5004001F2
:1046E20041084101A400B4310524A231410123084B
:1046F200BC002208BB002108BA002008B900430808
:10470200303EBF0045084607C00040088600013021
:1047120087003F0881000130BF003F08C5074408F9
:104722000319022B44083E06031D022B2E30F42AE5
:1047320045084607BF003F08860001308700810117
:10474200080040304101B0006030AF000030AE00E0
:104752000030AD004A308600273087005531403F97
:10476200B100413FB200423FB300433FB400AA311F
:104772000622A33103183E2C4001AD01FF30B531B2
:104782007625A33140019A1140304101B0006030DA
:10479200AF000030AE000030AD0045304001DE0019
:1047A2001F30DD00D830DC000030DB004030C400B8
:1047B200A030C3000030C2000030C1001130B1315E
:1047C200FA21A331400120084101B900400121082A
:1047D2004101BA00BB01BC013C084001B6004101E5
:1047E2003B084001B50041013A084001B4004101D3
:1047F20039084001B3000030AC310F24A33140012D
:104802003608C8003508C7003408C6003308C5009A
:1048120085316125A33140014408E2004308E100EB
:104822004208E0004108DF009E312826A331400102
:104832005E084101B40040015D084101B30040013E
:104842005C084101B20040015B084101B100AA319C
:104852000622A33103182F2C09303B2C733086001B
:104862002730870001193E2C7330860027308700DD
:1048720001150A3098310020A33141304101B000C6
:104882005C30AF00CC30AE00CD30AD004A30860097
:10489200273087005131403FB100413FB200423FD3
:1048A200B300433FB400AA310622A331031C742C87
:1048B20041304101B0003030AF000030AE00003076
:1048C200AD004A308600273087005131403FB100A9
:1048D200413FB200423FB300433FB400AA31062237
:1048E200A331031C782C0B30983100200800413092
:1048F2004101B0005030AF000030AE000030AD00DA
:104902004A308600273087005131403FB100413F95
:10491200B200423FB300433FB400AA310622A331A2
:104922000318BD2C41304101B0005C30AF00CC30E7
:10493200AE00CD30AD004A308600273087005131BD
:10494200403FB100413FB200423FB300433FB40099
:10495200AA310622A331031CBD2C733086002730F6
:104962008700811808007330860027308700811481
:10497200053098310020080041304101B00030304C
:10498200AF000030AE000030AD004A308600273064
:1049920087005131403FB100413FB200423FB30076
:1049A200433FB400AA310622A3310318022D41303D
:1049B2004101B0003630AF006630AE006630AD0067
:1049C2004A308600273087005131403FB100413FD5
:1049D200B200423FB300433FB400AA310622A331E2
:1049E200031C022D7330860027308700011808004F
:1049F200733086002730870001140630983100207A
:104A020008007330860027308700811073308600DB
:104A12002730870001100800420165087C0603194F
:104A2200202D7C08203E86000230870001084001CC
:104A3200B600B7013608B9003708BA00232D400185
:104A4200B901BA013908B6003608B8000230B131EE
:104A52005021A531302EAD018C30AE00B830AF0000
:104A62000030B331A123A5314001AD01AD0AC03000
:104A7200AE00B830AF000030B331A123A5315C2EB7
:104A8200AD01A630AE00B830AF000030B331A12383
:104A9200A5314001AD01AD0AE730AE00B830AF003C
:104AA2000030B331A123A5315C2EAD014F30AE00F1
:104AB200B930AF000030B331A123A5314001AD01BF
:104AC200AD0A0E30AE00B930AF000030B331A123D1
:104AD200A5315C2EAD018C30AE00B830AF00003095
:104AE200B331A123A5314001AD01AD0A5C30AE0066
:104AF200B930AF000030B331A123A5315C2EAD0136
:104B02006930AE00B930AF000030B331A123A53116
:104B12004001AD01AD0A1B30AE00B930AF0000302C
:104B2200B331A123A5315C2EAD016930AE00B9309D
:104B3200AF000030B331A123A5314001AD01AD0A70
:104B4200F430AE00B830AF000030B331A123A5314C
:104B52005C2EAD019930AE00B830AF000030B331F9
:104B6200A123A5314001AD01AD0ADA30AE00B83063
:104B7200AF000030B331A123A5315C2EAD018330EB
:104B8200AE00B930AF000030B331A123A5314001EE
:104B9200AD01AD0A0130AE00B930AF000030B33123
:104BA200A123A5315C2EAD013530AE00B930AF0086
:104BB2000030B331A123A5314001AD01AD0A7630F9
:104BC200AE00B930AF000030B331A123A5315C2E65
:104BD200AD014F30AE00B930AF000030B331A12388
:104BE200A5314001AD01AD0A9030AE00B930AF0041
:104BF2000030B331A123A531B1317A21A531013A77
:104C0200031D5C2E40019A155C2EAD014230AE00B0
:104C1200B930AF000030B331A123A5314001AD015D
:104C2200AD0AB330AE00B830AF000030B331A123CB
:104C3200A5315C2EAD01CD30AE00B830AF000030F2
:104C4200B331A123A5314001AD01AD0A2830AE0038
:104C5200B930AF000030B331A123A5315C2E400141
:104C62003808B600B7013708003A0319392E1B2E4F
:104C72003608013A03192C2D033A0319412D013A42
:104C82000319562D073A03196B2D013A0319802D8A
:104C9200033A0319952D013A0319AA2D0F3A031964
:104CA200BF2D013A0319D42D033A0319E92D063A0F
:104CB2000319062E1B2EB1317A21A531013A031DAB
:104CC2007A2E420165087C0603197A2E0A304001C9
:104CD200A0000030A1007C08013EA20000300318B1
:104CE2000130A300B431E92440012008B60036089F
:104CF200FC004101ED01ED0A080041016B08C8000A
:104D0200C90148084001AD00410149084001AE0017
:104D12001F30AF000030B000B131DE21A631743057
:104D22004101CA002730CB0040012D0841014A074A
:104D3200CC0040012E0841014B3DCD000030B33183
:104D4200D323A63141014C0886004D0887005E310D
:104D520001030319B42E4C0886004D0887005E310A
:104D62000108031DBF2F6D080319C12E4001AD01BB
:104D72007A30AE00BA30AF000030B331A123A63191
:104D820041014C08103EB90000304D3DBA00BE3022
:104D9200BE008030BD000030BC000030BB004C08BB
:104DA20086004D0887004431403FBF00413FC000AC
:104DB200423FC100433FC2003E30C6008030C500C2
:104DC2000030C4000030C300AC31A524A63141013B
:104DD2004C0886004D0887005031403F4001A0003A
:104DE200413FA100423FA200433FA3000030A70081
:104DF2000030A6000030A5000030A400B531BD256A
:104E0200A631031C372FE6304001A9000130AA0069
:104E120041016B08013EC80048084001AB00AC01EB
:104E2200AC0AB7313E27A6314001AD01AD0A1330BD
:104E3200AE00BB30AF000030B331A123A631400138
:104E4200AD01AD0AE630AE000130AF000530B3313E
:104E5200A123A6314001AD01AD0AF030AE00BA3057
:104E6200AF000630B331A123A631FC2F41014C081B
:104E720086004D0887005031403FAD00413FAE00F3
:104E8200423FAF00433FB0000030B4000030B300F7
:104E92000030B2000030B100AA310622A631031858
:104EA200852FE6304001A9000130AA0041016B08BC
:104EB200013EC80048084001AB00AC01AC0AB73162
:104EC2003E27A6314001AD01AD0A1330AE00BB3022
:104ED200AF000030B331A123A6314001AD01AD0ACC
:104EE200E630AE000130AF000530B331A123A63168
:104EF2004001AD01AD0AF730AE00BA30AF00063066
:104F0200B331A123A631FC2F4001AD01AD0A03301C
:104F1200AE00BB30AF000030B331A123A631410156
:104F22004C0886004D0887005031403FB900413F90
:104F3200BA00423FBB00433FBC000430C8004808EF
:104F4200BD00BE01BE0AE630A2313B22A6314001BD
:104F5200AD01AD0AE630AE000130AF000130B33131
:104F6200A123A6314001AD01AD0AC030AE00BA3076
:104F7200AF000530B331A123A631FC2F4C088600C7
:104F82004D0887005E31043001060319D12F4C0809
:104F920086004D0887005E3103300106031DFE2F97
:104FA2006D080319E92F4001AD012C30AE00BA3073
:104FB200AF000030B331A123A6314001AD01AD0AEB
:104FC2006030AE00BA30AF000030B331A123A63159
:104FD200B1317A21A631023A031DFC2F41014C085E
:104FE2001E3EC80000304D3DC900480886004908F1
:0E4FF200870005308100003008000130080003
:10500E0041013408B8003308B7003608BA00350835
:10501E00B900390886003A0887004231403FA400A3
:10502E00413FA500423FA600433FA7003708860038
:10503E00380887004231403FA000413FA100423F67
:10504E00A200433FA300B4310524A8314101230837
:10505E00AB002208AA002108A9002008A800A83148
:10506E003E2041012908B4002808B30008000310AF
:10507E0041012A0D2B0DAC002C08B2003208031D85
:10508E0051280030AB000030AA000030A9000030DB
:10509E00A80008002808AC002908AD002A08AE00B8
:1050AE002B08AF001F30AF36AE0CAD0CAC0C890B1D
:1050BE005A282C08B0003008B100AA17FF30A805F6
:1050CE00FF30A905FF30AA050030AB059630B202BD
:1050DE00B21F84283208803A973E031C48280130BC
:1050EE00AB36AA0CA90CA80C890B77280130AC00A2
:1050FE002C08B2070319952876282030320203189F
:10510E0048283208031995280130A835A90DAA0D93
:10511E00AB0D890B8C280130B20288283108031997
:10512E000800A809A909AA09AB09A80A0319A90A1E
:10513E000319AA0A0319AB0A08000030B331D323AE
:10514E00A83141016D080319B6284001AD01F830B0
:10515E00AE00B930AF000030B331A123A8316B30AF
:10516E004101B9002730BA00C230BE004830BD0040
:10517E000030BC000030BB00C130C200A030C10006
:10518E000030C0000030BF003F30C6008030C50088
:10519E000030C4000030C300AC31A524A8316B3000
:1051AE00860027308700403F4101B900413FBA00D9
:1051BE00423FBB00433FBC000330C8004808BD005F
:1051CE00BE01E630A2313B22A8314001AD01AD0A4D
:1051DE000330AE00BB30AF000030B331A123A83195
:1051EE004001AD01AD0AE630AE000130AF00013036
:1051FE00B331A123A8314001AD01AD0A9D30AE00FF
:10520E00BA30AF000430B331A123A831B1317A21C5
:10521E00A831013A031D1729AB31022300300800D3
:10522E00013008000030B331D323A93141016D089C
:10523E0003192B294001AD016330AE00B830AF0029
:10524E000030B331A123A9316F304101B9002730AD
:10525E00BA003D30BE00CC30BD00CC30BC00CD30ED
:10526E00BB004030C200A030C1000030C000003092
:10527E00BF003D30C600CC30C500CC30C400CD30B0
:10528E00C300AC31A524A9316F30860027308700CA
:10529E00403F4101B900413FBA00423FBB00433F8E
:1052AE00BC000330C8004808BD00BE01BE0AE6308F
:1052BE00A2313B22A9314001AD01AD0A0330AE004F
:1052CE00BB30AF000030B331A123A9314001AD0195
:1052DE00AD0AE630AE000130AF000130B331A1238C
:1052EE00A9314001AD01AD0AA630AE00BA30AF0013
:1052FE000430B331A123A931B1317A21A931013A58
:10530E00031D8D29AB310223003008000130080047
:10531E000030B331D323A93141016D080319A129FE
:10532E004001AD011230AE00BA30AF000030B331E3
:10533E00A123A93167304101B9002730BA000030EE
:10534E00BE000030BD000030BC000030BB0041305C
:10535E00C2002030C1000030C0000030BF003F301E
:10536E00C6000030C5000030C4000030C300AC31B0
:10537E00A524A9314A308600273087005D31403F91
:10538E004101B900413FBA00423FBB00433FBC0060
:10539E000430C8004808BD00BE01BE0AE630A23186
:1053AE003B22A9314001AD01AD0AFE30AE00BA304C
:1053BE00AF000030B331A123A9314001AD01AD0AD8
:1053CE00E630AE000130AF000630B331A123A93173
:1053DE004001AD01AD0A2930AE00BB30AF000A303E
:1053EE00B331A123A931B1317A21A931013A031D7B
:1053FE00042AAB31022300300800013008000030CF
:10540E0041012D05B50000302E05B60080302F0568
:10541E00B7007F303005B80038083704360435043D
:10542E00031D212A0030B0000030AF000030AE0066
:10543E000030AD0000303105B50000303205B60049
:10544E0080303305B7007F303405B8003808370494
:10545E0036043504031D3B2A0030B4000030B3007F
:10546E000030B2000030B100B01F552A0030B50038
:10547E000030B6000030B7008030B8002D08B502FD
:10548E002E08B63B2F08B73B3008B83B3808B000A3
:10549E003708AF003608AE003508AD00B41F6F2ACE
:1054AE000030B5000030B6000030B7008030B800D4
:1054BE003108B5023208B63B3308B73B3408B83B67
:1054CE003808B4003708B3003608B2003508B1000A
:1054DE008030B0068030B40634083002031D080058
:1054EE0033082F02031D080032082E02031D080088
:1054FE0031082D0208004001E4016408803EA0003E
:10550E003F3003184030A100B2315722AA3140017A
:10551E006435243E860087012008C03F2108C13F24
:10552E006435243E860087010108A3006408A03E6E
:10553E0086008701230881000130A3002308E407B9
:10554E0020306402031C842A8930860027308700AD
:10555E0041012008C03F2108C13F2208C23F230855
:10556E00C33FA8308600273087002408C03F250897
:10557E00C13F2608C23F2708C33FC73086002730E9
:10558E0087002808C03F2908C13F2A08C23F2B08C0
:10559E00C33FE6308600273087002C08C03F2D0819
:1055AE00C13F2E08C23F2F08C33F4A308600273026
:1055BE0087005D313008C03F3108C13F3208C23F1D
:1055CE003308C33F6B308600273087003408C03F56
:1055DE003508C13F3608C23F3708C33F6F308600DB
:1055EE00273087003808C03F3908C13F3A08C23F0C
:1055FE003B08C33F08008930860027308700403FB4
:10560E004101A000413FA100423FA200433FA30041
:10561E00A830860027308700403FA400413FA500F8
:10562E00423FA600433FA700C730860027308700C1
:10563E00403FA800413FA900423FAA00433FAB00B4
:10564E00E630860027308700403FAC00413FAD007A
:10565E00423FAE00433FAF004A30860027308700FE
:10566E005D31403FB000413FB100423FB200433F89
:10567E00B3006B30860027308700403FB400413FB7
:10568E00B500423FB600433FB7006F30860027306B
:10569E008700403FB800413FB900423FBA00433F48
:1056AE00BB004001EF016F08A03E86008701010894
:1056BE00AD00AE016F352F3E860087012D08C03F2D
:1056CE002E08C13F0130AD002D08EF0720306F02CC
:1056DE00031C5A2B8030A0003F30A100B23137227C
:1056EE00AB3180304001A3003F30A4002F30AD001D
:1056FE002D08A500B7319B2708004001191219117A
:10570E00991141304001A700EE30890B8C2BA70B6D
:10571E008C2B00004001991019109A121A120330A6
:10572E00B431A424AB3107304001A7007D30890B82
:10573E009E2BA70B9E2B0830B431A424AB3107301F
:10574E004001A7007D30890BAA2BA70BAA2B023094
:10575E00B431A424AB3107304001A7007D30890B52
:10576E00B62BA70BB62B0230B431A424AB310730C5
:10577E004001A7007D30890BC22BA70BC22B08302E
:10578E00B431A424AB3107304001A7007D30890B22
:10579E00CE2BA70BCE2B0830B1315021AB310730B9
:1057AE004001A7007D30890BDA2BA70BDA2B0130D5
:1057BE00B1315021AB3107304001A7007D30890B4C
:1057CE00E62BA70BE62B0630B1315021AB3107305B
:1057DE004001A7007D30890BF22BA70BF22B023074
:1057EE00B1315021AB3107304001A7007D30890B1C
:1057FE00FE2BA70BFE2B0C30B1315021AB310730F5
:10580E004001A7007D30890B0A2CA70B0A2C08003B
:10581E004001BB003B08031DB61F252C3309BD00FC
:10582E003409BE003509BF003609C000BD0A031990
:10583E00BE0A0319BF0A0319C00A2D2C3608C00070
:10584E003508BF003408BE003308BD0036083504E5
:10585E0034043304031D3C2C0030B6000030B50078
:10586E000030B4000030B30008009630B70037089F
:10587E00BC00FE3040050319632C0130B700370819
:10588E00BC070130C036BF0CBE0CBD0C890B492CB9
:10589E00402C0130B7003708BC070130BD0700307F
:1058AE00BE3D0030BF3D0030C03D0130C036BF0CA4
:1058BE00BE0CBD0C890B5D2CFF3040050319752CF9
:1058CE00502C02303C02031C772C0130BC020130FC
:1058DE00BD35BE0DBF0DC00D890B6F2CBF1F682CC3
:1058EE003C18812CFF30BD05FF30BE057F30BF0553
:1058FE00FF30C0050310BC0C3C08B700B801B9015D
:10590E00BA011830B735B80DB90DBA0D890B892CFF
:10591E003708BD043808BE043908BF043A08C0046D
:10592E003B08031DB61F9C2CC0174008B6003F084D
:10593E00B5003E08B4003D08B3000800B1316F2138
:10594E00AC314001EF006F084101C700023047063D
:10595E00031DEF2C3E08B0003D08AF003C08AE0022
:10596E003B08AD00390886003A088700403FB10079
:10597E00413FB200423FB300433FB400AA3106227A
:10598E00AC310318EF2C41014608A3004508A200D4
:10599E004408A1004308A000390886003A08870091
:1059AE00403FA400413FA500423FA600433FA70051
:1059BE00B43105244101390886003A0887002008D1
:1059CE00C03F2108C13F2208C23F2308C33F080041
:1059DE0041014703031D0800390886003A08870075
:1059EE00403FAD00413FAE00423FAF00433FB000ED
:1059FE004208B4004108B3004008B2003F08B100AD
:105A0E00AA310622AC3103180800410146084001B4
:105A1E00DE00410145084001DD004101440840011E
:105A2E00DC00410143084001DB00410139088600DA
:105A3E003A088700403F4001DF00413FE000423F0F
:105A4E00E100433FE20092315022410139088600C5
:105A5E003A08870040015B08C03F5C08C13F5D0803
:105A6E00C23F5E08C33F080000304401E100003031
:105A7E00E0000030DF000030DE00E301E30AE20167
:105A8E00B6310626AD3140019916AB318423AD31C6
:105A9E00B231BE22AD310230B1315021AD310130C3
:105AAE00B1315021AD3188310C20AD3140019A1504
:105ABE008C1F642DAA318222AD3164009A31BE2230
:105ACE00AD31440161084001A3004401600840016A
:105ADE00A20044015F084001A10044015E0840019C
