:020000040000FA
:1000000080316828013401347E1480314E01961A03
:100010008C1E15280130F80078084101E907B2303C
:100020004B019C004E018C126628161A0C1E3128BA
:100030007E01BF1F2028A231C72280317E01BF135D
:100040003F1E2728A331EC2380317E013F12BF1EC3
:100050002E28A331EC2380317E01BF124E010C12F9
:1000600066280B1F66281A18101C5F2842012308F7
:10007000FB002208FA002108F9002008F8000130EE
:10008000A0070030A13DA23DA33D00307802CA3058
:10009000793B9A307A3B3B307B3B031C572800303E
:1000A000A3000030A2000030A1000030A000CF303B
:1000B00044018D002B308C004E0110106628991AD7
:1000C0008F1E6628A431A7244E018F127E100900CE
:1000D00080316A284101803102208031EE00803178
:1000E00003208031EF0091308400A130850063301F
:1000F0008600013087000030FF000830A131F82170
:1001000080310130840098308500A03086000130B5
:1001100087000030FF003230A131F82180314330B8
:10012000840027308500AD30FE000030FF00A13193
:10013000EC218031FC01FD01DE30840000308500BF
:100140001030FE000030FF00A131EC218031203062
:100150008400013085004330FE000030FF00A131F3
:10016000EC217E1040019B31832B4101D8013C30B2
:100170004001B700D030B6001330B500A930B4004C
:10018000410158084001EC00ED010530EC35ED0D62
:10019000890BC6286C086A07EE006D086B3DEF00FE
:1001A0006E08433E860000306F3D8700403FB80038
:1001B000413FB900423FBA00433FBB0085310225B1
:1001C0008031400137084101C30040013608410138
:1001D000C200400135084101C1004001340841011D
:1001E000C00040304001B7004830B600F530B500DF
:1001F000C330B400410143084001BB004101420843
:100200004001BA00410141084001B90041014008E4
:100210004001B80085310225803140013708410195
:10022000CF00400136084101CE00400135084101B0
:10023000CD00400134084101CC0040304001D100E4
:100240008030D0000030CF000030CE0041014308A4
:100250004001B700410142084001B6004101410898
:100260004001B500410140084001B40041014F0880
:100270004001BB0041014E084001BA0041014D0858
:100280004001B90041014C084001B8008531022508
:10029000803140013708D5003608D4003508D30036
:1002A0003408D20093317423803140015108410158
:1002B000CB00400150084101CA0040014F084101F4
:1002C000C90040014E084101C80040016A08203EB3
:1002D000860000306B3D8700403FCE00413FCF009D
:1002E000423FD000433FD1006A0886006B08870078
:1002F0004831403FD200413FD300423FD400433F0A
:10030000D5008C311B248031400151084101AB00E4
:10031000400150084101AA0040014F084101A900D5
:1003200040014E084101A80043304001D10088300F
:10033000D0009330CF003330CE0041012B08400174
:10034000D50041012A084001D4004101290840019B
:10035000D300410128084001D2008C311B24803198
:10036000400151084101D300400150084101D20031
:1003700040014F084101D10040014E084101D00029
:1003800043304001D1008830D0009330CF0033306B
:10039000CE006A08243E860000306B3D8700403F57
:1003A000D200413FD300423FD400433FD5008C31BF
:1003B0001B248031400151084101D7004001500801
:1003C0004101D60040014F084101D50040014E08CF
:1003D0004101D40057084001B700410156084001CF
:1003E000B600410155084001B500410154084001E3
:1003F000B400410157084001BB00410156084001CB
:10040000BA00410155084001B900410154084001BA
:10041000B800853102258031400137084101CF0005
:10042000400136084101CE00400135084101CD00B0
:10043000400134084101CC0057084001B700410198
:1004400056084001B600410155084001B500410180
:1004500054084001B40041014F084001BB00410174
:100460004E084001BA0041014D084001B900410168
:100470004C084001B8008531022580314001370821
:100480004101AF00400136084101AE00400135088E
:100490004101AD00400134084101AC005308400166
:1004A000B700410152084001B60041015108400126
:1004B000B500410150084001B4004101530840011A
:1004C000BB00410152084001BA00410151084001FE
:1004D000B900410150084001B80085310225803142
:1004E000400137084101B300400136084101B20024
:1004F000400135084101B100400134084101B0001C
:1005000053084001B700410152084001B6004101C3
:1005100051084001B500410150084001B4004101BB
:1005200033084001BB00410132084001BA004101DB
:1005300031084001B900410130084001B80085315F
:1005400002258031400137084101B70040013608DB
:100550004101B600400135084101B50040013408B1
:100560004101B40057084001B7004101560840015D
:10057000B600410155084001B50041015408400151
:10058000B40041012F084001BB0041012E08400189
:10059000BA0041012D084001B90041012C08400179
:1005A000B80085310225803140013708E500360862
:1005B000E4003508E3003408E2004101530840013B
:1005C000B700410152084001B60041015108400105
:1005D000B500410150084001B40041013708400115
:1005E000BB00410136084001BA0041013508400115
:1005F000B900410134084001B8008531022580313D
:1006000040013708E9003608E8003508E7003408FB
:10061000E600A23161228031400165084101BB0042
:10062000400164084101BA00400163084101B9007A
:10063000400162084101B80033304001B700673023
:10064000B6005930B5003230B40041014B084001CA
:10065000BB0041014A084001BA004101490840017C
:10066000B900410148084001B800853102258031B8
:10067000400137084101BF00400136084101BE007A
:10068000400135084101BD00400134084101BC0072
:100690003B084001B70041013A084001B600410162
:1006A00039084001B500410138084001B40041015A
:1006B0003F084001BB0041013E084001BA00410132
:1006C0003D084001B90041013C084001B8008531B6
:1006D00002258031400137084101C700400136083A
:1006E0004101C600400135084101C5004001340800
:1006F0004101C40047084001B700410146084001DC
:10070000B600410145084001B500410144084001DF
:10071000B4006A08283E860000306B3D8700403FE9
:10072000B800413FB900423FBA00433FBB008531AA
:1007300002258031410158084001EC00ED010530EF
:10074000EC35ED0D890BA02B6C086A07EE006D08E7
:100750006B3DEF006E08353E860000306F3D870030
:100760003408C03F3508C13F3608C23F3708C33F91
:100770003E30B7002330B6005730B5001D30B4000E
:10078000410158084001EC00ED010530EC35ED0D5C
:10079000890BC62B6C086A07EE006D086B3DEF00F5
:1007A0006E08433E860000306F3D8700403FB80032
:1007B000413FB900423FBA00433FBB0085310225AB
:1007C0008031400137084101A30040013608410152
:1007D000A200400135084101A10040013408410157
:1007E000A0003C304001B700F530B600C230B50083
:1007F0008F30B400410123084001BB0041012208B1
:100800004001BA00410121084001B900410120081E
:100810004001B8008531022580314001370841018F
:10082000CB00400136084101CA00400135084101B2
:10083000C900400134084101C8003F304001B70001
:100840005930B6009930B5009A30B4004030D1002C
:100850000030D0000030CF000030CE0041015808F9
:100860004001EC00ED010530EC35ED0D890B342C29
:100870006C086A07EE006D086B3DEF006E08433EA2
:10088000860000306F3D8700403FD200413FD300DB
:10089000423FD400433FD50093317423803140015F
:1008A0005108BB005008BA004F08B9004E08B80004
:1008B000853102258031400137084101CF004001D8
:1008C00036084101CE00400135084101CD0040010C
:1008D00034084101CC004B084001B70041014A08EF
:1008E0004001B600410149084001B50041014808F6
:1008F0004001B40041014F084001BB0041014E08D6
:100900004001BA0041014D084001B90041014C08C5
:100910004001B8008531022580314001370841018E
:10092000A700400136084101A600400135084101F9
:10093000A500400134084101A40040016A08860076
:100940006B0887004831403FE200413FE300423FEF
:10095000E400433FE500410127084001B7004101A1
:1009600026084001B600410125084001B5004101BB
:1009700024084001B400410147084001BB00410187
:1009800046084001BA00410145084001B900410153
:1009900044084001B8008531022580314001370804
:1009A000E9003608E8003508E7003408E600A2311F
:1009B00061228031410158084001EC00ED01053011
:1009C000EC35ED0D890BE02C6C086A07EE006D0824
:1009D0006B3DEF006E08473E860000306F3D87009C
:1009E0006208C03F6308C13F6408C23F6508C33F57
:1009F0000130EC006C084101D8070430580203189C
:100A00000800B728400137088039BC003C08C10005
:100A10003735BC003C08C700B61B4714470803190C
:100A20001E2D470A031D1C2D0030B7000030B600F4
:100A30000030B5000030B400B617262D0030B700E6
:100A40000030B6000030B5000030B4003B088039FB
:100A5000BC003C08C1063B35BC003C08C600BA1BC4
:100A6000461446080319412D460A031D3F2D003048
:100A7000BB000030BA000030B9000030B800BA172F
:100A8000492D0030BB000030BA000030B900003002
:100A9000B8004608031D4708031D572D0030B70056
:100AA0000030B6000030B5000030B4000800340853
:100AB000BC003C08A0003A08A231802285314001E8
:100AC0002108CD002008CC004C08BC00BD01BE01AF
:100AD000BF013F08C5003E08C4003D08C3003C08F4
:100AE000C2004D08BC00BD01BE01BF013F08CB00E4
:100AF0003E08CA003D08C9003C08C8003508BC00D3
:100B00003C08A0003908A23180228531400121082B
:100B1000CD002008CC004C08BC00BD01BE01BF01C7
:100B20003C08C2073D08C33D3E08C43D3F08C53DE3
:100B30004D08BC00BD01BE01BF013C08C8073D080F
:100B4000C93D3E08CA3D3F08CB3D3608BC003C08C5
:100B5000A0003808A2318022853140012108CD0053
:100B60002008CC004C08BC00BD01BE01BF013C0800
:100B7000C2073D08C33D3E08C43D3F08C53D4D0882
:100B8000BC00BD01BE01BF013C08C8073D08C93D0E
:100B90003E08CA3D3F08CB3D0830C235C30DC40DE9
:100BA000C50D890BCD2D3508BC003C08A0003808C8
:100BB000A2318022853140012108CD002008CC00DF
:100BC0004C08C2074D08C33D0030C43DC53D340844
:100BD000BC003C08A0003908A231802285314001C8
:100BE0002108CD002008CC004C08C2074D08C33DA9
:100BF0000030C43DC53D0830C235C30DC40DC50D20
:100C0000890BFC2D3408BC003C08A0003808A23138
:100C10008022853140012108CD002008CC004C08FD
:100C2000C2074D08C33D0030C43DC53D3508BC007A
:100C30003C08A0003A08A2318022853140012108F9
:100C4000CD002008CC004C08C8074D08C93D003035
:100C5000CA3DCB3D3608BC003C08A0003908A23193
:100C60008022853140012108CD002008CC004C08AD
:100C7000C8074D08C93D0030CA3DCB3D3608BC0011
:100C80003C08A0003A08A2318022853140012108A9
:100C9000CD002008CC004C08BC004D08BD00BE01B2
:100CA000BF010830BC35BD0DBE0DBF0D890B522EE6
:100CB0003C08C8073D08C93D3E08CA3D3F08CB3D3A
:100CC0004208BC004308BD004408BE004508BF0000
:100CD0001830BF36BE0CBD0CBC0C890B692E3C080D
:100CE000C8073D08C93D3E08CA3D3F08CB3D083016
:100CF000C235C30DC40DC50D890B782E47084607B4
:100D0000BC00BD01BD0D3C08823ECC00FF303D3D26
:100D1000CD00CA1BA02E0130C835C90DCA0DCB0DA0
:100D2000890B8C2EC51B48140130C235C30DC40D70
:100D3000C50D890B952EFF30CC07FF30CD3D892E98
:100D4000C601C51FB92EFF304205BC00FF30430568
:100D5000BD00FF304405BE007F304505BF003F08A1
:100D60003E043D043C0403194818B72EB92EC601B1
:100D7000C60A46080319E22E0130C8070030C93DF3
:100D80000030CA3D0030CB3D4B1CE22E4808BC0071
:100D90004908BD004A08BE004B08BF000130C00032
:100DA000BF37BE0CBD0CBC0CC00BD02E3F08CB0017
:100DB0003E08CA003D08C9003C08C8000130CC0705
:100DC0000030CD3D4D08803ABC0080303C02031D10
:100DD000EB2EFF304C02031CF72E7F304001CB007E
:100DE0008030CA000030C9000030C800212F400107
:100DF0004D08803ABC0080303C02031D012F0130B9
:100E00004C0203180E2F00304001CB000030CA0006
:100E10000030C9000030C800C101212F40014C083A
:100E2000BC003C08C700FF30C805FF30C9057F3053
:100E3000CA050030CB054718CA174736BC003C0826
:100E4000CB004108BC003C08CB044B08B7004A0863
:100E5000B6004908B5004808B40008004101600820
:100E6000A331BA23873141016F080319D82F4001FC
:100E7000A7018830A800A830A9000030A33188233A
:100E800087314001A701A70AD230A800A930A900E4
:100E90000030A3318823873141013108203E86008C
:100EA0000030323D8700403FA500413FA600423F51
:100EB000A700433FA8000430B3003308A900AA01EB
:100EC000AA0A59309431EE2487314001A701A70ABC
:100ED0005930A8000130A9000630A331882387319A
:100EE0004001A701A70AF230A800A930A9000A30E2
:100EF000A3318823873141013108243E8600003028
:100F0000323D8700403FA500413FA600423FA70079
:100F1000433FA8000330B3003308A900AA015930A9
:100F20009431EE2487314001A701A70A5930A80067
:100F30000130A9000C30A331882387314001A7017B
:100F4000A70A6130A800A930A9000F30A331882377
:100F5000873141013108283E86000030323D87004C
:100F6000403FA500413FA600423FA700433FA800E5
:100F70000330B3003308A900AA01AA0A59309431FA
:100F8000EE2487314001A701A70A5930A80001309B
:100F9000A9001830A331882387314001A701A70A8F
:100FA000E530A800A830A9001C30A3318823873180
:100FB00003304101B30033084001A700410160083C
:100FC000A73195274101B4003408E000600808000B
:100FD0004001A500230C031C1912031819169911BE
:100FE0002508A4000430A436890BF32F2408A4316B
:100FF0002424873140012508A43124240800080056
:101002004001A3002308A200A20DA20D41011D0868
:10101200400122060339220641019D0000320032BE
:10102200000041019D149D1814281C084001A100D4
:1010320041011B084001A0000800A131D6218831DE
:101042004001EA006A08EB0002306B06031D7B28B0
:10105200410125084001A300410124084001A200EA
:10106200410123084001A100410122084001A000E2
:1010720041012008860021088700403F4001A4006A
:10108200413FA500423FA600433FA7009931F1210D
:10109200883103187B2841012D084001E5004101F8
:1010A2002C084001E40041012B084001E30041010A
:1010B2002A084001E2004101200886002108870039
:1010C200403F4001E600413FE700423FE800433F26
:1010D200E900A2316122410120088600210887002F
:1010E20040016208C03F6308C13F6408C23F65080F
:1010F200C33F080040016B03031D080041012008A3
:10110200860021088700403F4001A000413FA10026
:10111200423FA200433FA300410129084001A7002A
:10112200410128084001A600410127084001A5000D
:10113200410126084001A4009931F12188310318A8
:10114200080041012D084001D10041012C08400155
:10115200D00041012B084001CF0041012A08400183
:10116200CE0041012008860021088700403F40014F
:10117200D200413FD300423FD400433FD5008C31DF
:101182001B244101200886002108870040014E08E7
:10119200C03F4F08C13F5008C23F5108C33F08003B
:1011A200410131082C3E86000030323D8700010C9F
:1011B20001396E060319F72831082C3E86000030EB
:1011C200323D8700003081180130EE0031082C3E9C
:1011D20086000030323D8700811CF128E301F528AA
:1011E2000330B3003308E300EF01EF0A6308A331D1
:1011F200BA23883141016F08031909294001A70167
:101202001B30A800A830A9000030A3318823883100
:10121200410131082C3E86000030323D8700011D1D
:1012220069293108860032088700403FA500413F06
:10123200A600423FA700433FA8000530B300330891
:10124200A900AA01AA0A59309431EE24883140013A
:10125200A701A70A5930A8000130A9000030A33124
:10126200882388314001A701A70ADF30A800A930EE
:10127200A9000530A3318823883141013108860055
:10128200320887005031403FA500413FA600423F4F
:10129200A700433FA8000330B3003308A900AA0106
:1012A20059309431EE2488314001A701A70A593000
:1012B200A8000130A9000830A331882388314001F9
:1012C200A701A70AFE30A800A930A9000B30922975
:1012D2003108860032088700403FA500413FA60042
:1012E200423FA700433FA8000530B3003308A900DE
:1012F200AA01AA0A59309431EE2488314001A7018B
:10130200A70A5930A8000130A9000030A331882370
:1013120088314001A701A70A9630A800A930A90088
:101322000530A33188238831410131088600320813
:1013320087004431403FA500413FA600423FA7003D
:10134200433FA8000530B3003308A900AA01AA0A46
:1013520059309431EE2488314001A701A70A59304F
:10136200A8000130A9000C30A33188238831400144
:10137200A701A70ACB30A800A930A9001130A331D8
:1013820088238831410131088600320887004831BC
:10139200403FA500413FA600423FA700433FA800AF
:1013A2000530B3003308A900AA01AA0A59309431C2
:1013B200EE2488314001A701A70A5930A800013064
:1013C200A9001830A331882388314001A701A70A58
:1013D2009630A800A930A9001D30A3318823883196
:1013E200410131088600320887005431403FA50090
:1013F200413FA600423FA700433FA8000430B3008C
:101402003308A900AA01AA0A59309431EE2488317E
:101412004001A701A70A5930A8000130A9002430D1
:10142200A331882388314001A701A70AE330A8002D
:10143200A930A9002830A33188238831410131081D
:101442008600320887005C31403FA500413FA6007C
:10145200423FA700433FA8000430B3003308A9006D
:10146200AA01AA0A59309431EE2488314001A70119
:10147200A70A5930A8000130A9002B30A3318823D4
:1014820088314001A701A70A0030A800AA30A900AC
:101492002F30A33188238831410131082C3E860048
:1014A2000030323D8700811C632A0430B3003308C8
:1014B2004001A70041016308A73195274101B4000B
:1014C2003408E3006308080041016C08A500A60186
:1014D2000530A535A60D890B6A2A250840016E073D
:1014E2004101A700260840016F3D4101A8002708DD
:1014F2002D3EAF000030283DB0006A08031D8F2A40
:10150200EA01EA0AEB01EC014201B201B301400136
:10151200A001A00A0030A331562308006B08EB0A91
:10152200A500143025020318C42A11308831012085
:101532008A31400121084101AA00400120084101ED
:10154200A9002A084001AD00410129084001AC0070
:10155200420133084001AF00420132084001AE00AF
:101562000030B3000030B200A630B1006530B000E8
:10157200A631C32640012D084201B30040012C08C8
:101582004201B20008004001A00141016C08A331F0
:1015920056238A3145304001D1001F30D000D83067
:1015A200CF000030CE004030B700A030B60000308F
:1015B200B5000030B400420132084001A6004201E9
:1015C20033084001A700A801A9010030903115207D
:1015D2008A3140012908BB002808BA002708B9004F
:1015E2002608B800853102258A3140013708D50026
:1015F2003608D4003508D3003408D200933174235E
:101602008A31400151084101AE00400150084101B8
:10161200AD0040014F084101AC0040014E084101BC
:10162200AB002E084001A30041012D084001A20099
:1016320041012C084001A10041012B084001A000FA
:101642003D30A7004C30A600CC30A500CD30A40020
:101652009931F1218A310318492B41012F08860063
:10166200300887005F31023001060319052C003073
:101672008731FF278A3141012F081F3EA500003024
:10168200303DA60025088600260887000230042C7B
:1016920040304001A3004030A2000030A1000030E1
:1016A200A00041012E084001A70041012D08400180
:1016B200A60041012C084001A50041012B08400170
:1016C200A4009931F1218A310318812B013087312D
:1016D200FF278A3141012F088600300887005F31D9
:1016E200810140010E19052C9A1107304101A50014
:1016F2007D30890B7A2BA50B7A2B40019A15052C8C
:1017020041012F081F3EA5000030303DA6002508EC
:10171200860026088700013081002F0886003008E5
:1017220087002B08C03F2C08C13F2D08C23F2E085E
:10173200C33F2E084001B70041012D084001B60009
:1017420041012C084001B50041012B084001B400C1
:101752006E0886006F0887005431403FB800413F51
:10176200B900423FBA00433FBB00853102258A31AE
:1017720041012F08860030088700443140013408B7
:10178200C03F3508C13F3608C23F3708C33F410159
:101792002F088600300887004431403F4001D200C4
:1017A200413FD300423FD400433FD50041012F08BF
:1017B2008600300887004831403F4001CE00413F5B
:1017C200CF00423FD000433FD100933174238A318E
:1017D20040015108EB005008EA004F08E9004E08AA
:1017E200E80099317F218A31400168084101A50052
:1017F2002F08143EA6000030303DA70026088600C0
:101802002708870025088100033041016C02031874
:10181200192C0130A5002508EC074201B201B301E1
:101822004001A001A00A41016C08A331562308001F
:10183200EA010800400151088039D6005608DE004E
:101842005135D6005608E000D01B60146008031919
:10185200382C600A031D352C0030D1000030D00036
:101862000030CF000030CE00D017D101402C003024
:10187200D1000030D0000030CF000030CE0055083B
:101882008039D6005608DF005F085E06031D5E172A
:101892005535D6005608DF00D41B5F145F080319C4
:1018A200602C5F0A031D5D2C0030D5000030D4008F
:1018B2000030D3000030D200D417D501682C00309C
:1018C200D5000030D4000030D3000030D2006008D0
:1018D2005F020318AE2C5E1F722C8030D6005608B1
:1018E200DE066008D6005608E1005F08D6005608FA
:1018F200E0006108D6005608DF004E08D600560800
:10190200E1005208D6005608CE006108D6005608FB
:10191200D2004F08D6005608E1005308D6005608F8
:10192200CF006108D6005608D3005008D6005608EA
:10193200E1005408D6005608D0006108D6005608C7
:10194200D4005108D6005608E1005508D6005608C2
:10195200D1006108D6005608D500E1015F08D60023
:10196200D7015708D90060085602D800031CD903D2
:101972005908803ADA0080305A02031DC22C1A300C
:101982005802031CF62C4001510850044F044E0427
:101992000319CD2C0130CE2C0030D6005608E100C0
:1019A2000030D1000030D0000030CF000030CE0037
:1019B2005F08D6005608E000FB2C611CE62C61365D
:1019C2000138D6005608E100E82C0310E10C4E184D
:1019D200E1170130D600D137D00CCF0CCE0CD60B8C
:1019E200EC2C0130D6005608E00740015F08600287
:1019F200031CDE2C5E1B2C2D6008031D092D0030FC
:101A0200D1000030D0000030CF000030CE000800FE
:101A12005208CE075308CF3D5408D03D5508D13D5A
:101A2200511CA62D611C1B2D61360138D6005608AB
:101A3200E1001D2D0310E10C4E18E1170130D60014
:101A4200D137D00CCF0CCE0CD60B212D0130D600C5
:101A52005608E007A62D5108803AD6005508803A6C
:101A62005602031D3E2D54085002031D3E2D5308FD
:101A72004F02031D3E2D52084E020318762DFF30F1
:101A8200D600FF30D700FF30D800FF30D9004E0813
:101A92005202DA004F08533BDB005008543BDC0093
:101AA2005108553BDD005A08D6075B08D73D5C0854
:101AB200D83D5D08D93D5908D1005808D0005708D3
:101AC200CF005608CE008030D6005608DE06E10967
:101AD200E10A6108031D7E2D0130CE070030CF3DA3
:101AE2000030D03D0030D13D7E2D5208CE02530849
:101AF200CF3B5408D03B5508D13B510850044F040A
:101B02004E04031DA42D6108031DA42D0030D10035
:101B12000030D0000030CF000030CE00080001308D
:101B2200CE35CF0DD00DD10D890B912DE11B4E1469
:101B3200611C9D2D03149E2D0310E10D60080319F5
:101B4200A42D0130E002D01F902DDF01E11FB12D45
:101B520061087F3903194E18AF2DB12DDF01DF0A5D
:101B62005F080319DD2D0130CE070030CF3D003074
:101B7200D03D0030D13D511CDD2D4E08D6004F081E
:101B8200D7005008D8005108D9000130DA00D937FF
:101B9200D80CD70CD60CDA0BC82D5908D10058082E
:101BA200D0005708CF005608CE00600A0319DD2D79
:101BB2000130D6005608E007600A031D6008031DC5
:101BC200ED2D0030D1000030D0000030CF000030C9
:101BD200CE0060080319DE01601CF12DD017F52D2F
:101BE2007F30D6005608D0056036D6005608D100A0
:101BF200DE1F0800D117080041016208A331BA2391
:101C02008D3141016F080319BA2EBB0104303B022A
:101C12000318BA2E4001A701E730A800A930A90095
:101C22000C304101B30033084001A00041013B08E0
:101C3200903103208D31A33188238D3159304101F8
:101C4200A5000130A6003B08013EB3003308A700FF
:101C5200A801A80AA7312C278D314001A7015930CC
:101C6200A8000130A9000C304101B3003308400143
:101C7200A00041013B08903103208D31033EA33186
:101C820088238D314001A701F830A800A930A900AE
:101C92000C304101B30033084001A00041013B0870
:101CA200903103208D31043EA33188238D31593088
:101CB2004101A5000130A6003B08B300B401053084
:101CC200B335B40D890B612E33083107B5003408E2
:101CD200323DB6003508433E86000030363D87006F
:101CE200403F4001E800413FE900423FEA00433FF4
:101CF200EB0099317F218D31400168084101B70025
:101D02003708A7000230B8003808A800A7312C27EE
:101D12008D314001A7015930A8000130A9000C30D3
:101D22004101B30033084001A00041013B0890315A
:101D320003208D31063EA33188238D314001A70156
:101D4200F530A800A930A9000C304101B3003308D6
:101D52004001A00041013B08903103208D31083E33
:101D6200A33188238D3101304101B3003308BB0711
:101D7200072EBB0104303B020318ED2FBA2F40019E
:101D8200A701A70AE230A800A830A9000C3041013F
:101D9200B30033084001A00041013B089031032009
:101DA2008D31A33188238D31E72F3B08B300B40175
:101DB2000530B335B40D890BDA2E33083107B5007F
:101DC2003408323DB6003508393E86000030363DD3
:101DD2008700403FA500413FA600423FA700433F86
:101DE200A8000430B7003708A900AA01AA0A59308E
:101DF2009431EE248D314001A701A70A5930A80081
:101E02000130A9000C304101B30033084001A000A9
:101E120041013B08903103208D31A33188238D315C
:101E22004001A701A70AFB30A800A930A9000C3085
:101E32004101B30033084001A00041013B08903149
:101E420003208D31043EA33188238D3141013B08AB
:101E5200B300B4010530B335B40D890B2C2F330810
:101E62003107B5003408323DB60035084B3E8600D6
:101E72000030363D870001030319432F7F30B9003C
:101E8200A930462FAF30B900A930BA004001A701EE
:101E9200A70A41013A084001A9004101390840015D
:101EA200A8000C304101B30033084001A0004101F9
:101EB2003B08903103208D31063EA33188238D31BA
:101EC200E72F4001A701A70A2330A800A930A900E3
:101ED2000C304101B30033084001A00041013B082E
:101EE200903103208D31A33188238D31E72F4001BA
:101EF200A701A70AEF30A800A830A9000C304101C1
:101F0200B30033084001A00041013B089031032097
:101F12008D31A33188238D31E72F4001A701A70A14
:101F22001630A800A930A9000C304101B3003308D3
:101F32004001A00041013B08903103208D31A331C3
:101F420088238D31E72F4001A701A70A3030A8006E
:101F5200A930A9000C304101B30033084001A000B0
:101F620041013B08903103208D31A33188238D310B
:101F7200E72F3B08B300B4010530B335B40D890B2C
:101F8200BE2F33083107B5003408323DB60035089C
:101F92004C3E86000030363D87000108B700B8018C
:101FA2003808003A0319D62FA42F3708003A03192C
:101FB200C02E013A0319D62E033A0319622F013AB1
:101FC2000319782F073A03198E2FA42F01304101EC
:101FD200B3003308BB07BB2E0430B3003308400103
:101FE200A70041016208A73195274101B4003408D6
:101FF200E2006208B3003308E4006208080041010D
:10200200E90108004001A300A201231C0C282008BA
:10201200A1002108A2070310A00D0310A30C23089E
:10202200031D0628220808004001AE002E08031DE9
:10203200A91F2B282609B0002709B1002809B200E0
:102042002909B300B00A0319B10A0319B20A031924
:10205200B30A33282908B3002808B2002708B100C0
:102062002608B0002908280427042604031D422854
:102072000030A9000030A8000030A7000030A60000
:1020820008009630AA002A08AF00FE303305031973
:1020920069280130AA002A08AF070130B336B20C12
:1020A200B10CB00C890B4F2846280130AA002A082F
:1020B200AF070130B0070030B13D0030B23D003013
:1020C200B33D0130B336B20CB10CB00C890B6328AE
:1020D200FF30330503197B28562802302F02031CD8
:1020E2007D280130AF020130B035B10DB20DB30D14
:1020F200890B7528B21F6E282F188728FF30B0056C
:10210200FF30B1057F30B205FF30B3050310AF0CCD
:102112002F08AA00AB01AC01AD011830AA35AB0DF6
:10212200AC0DAD0D890B8F282A08B0042B08B10421
:102132002C08B2042D08B3042E08031DA91FA228DF
:10214200B3173308A9003208A8003108A7003008E5
:10215200A600080040304001A3004030A200003039
:10216200A1000030A000410130088600310887003C
:102172005831403F4001A400413FA500423FA60024
:10218200433FA7009931F12190310318FC28400107
:1021920018109810181198119A1141013108400134
:1021A200E900410130084001E8009631742690317F
:1021B20040304001A3004030A2000030A1000030B6
:1021C200A000410130088600310887005831403FA5
:1021D2004001A400413FA500423FA600433FA700A3
:1021E2009931F12190310318F8280430F92805308B
:1021F2008731FF27903141304001A3005C30A200BB
:10220200CC30A100CD30A000410130088600310859
:1022120087005431403F4001A400413FA500423FA6
:10222200A600433FA7009931F1219031031C3629C2
:1022320041304001A3003030A2000030A100003044
:10224200A000410130088600310887005431403F28
:102252004001A400413FA500423FA600433FA70022
:102262009931F1219031031C8C29A13181219031C6
:10227200A131852190314001A7014A30A800A9303F
:10228200A9000030A3318823903140011810981022
:10229200181198119A118B0105304101B2003208D0
:1022A200B700B430A5000030A6003708B2003208EB
:1022B200A700A801A80AA7312C2790314001A70145
:1022C200A70AEB30A800A930A9000030A331882367
:1022D20090314001A701A70AB430A8000030A9003C
:1022E2000330A3318823903106304101B30013300B
:1022F200B200AD30890B7B29B20B7B29B30B7B2952
:10230200003201304101B7023708031D5229A131C1
:10231200B62190318B2941304001A3005030A200F8
:102322000030A1000030A0004101300886003108D1
:1023320087005431403F4001A400413FA500423F85
:10234200A600433FA7009931F12190310318CA2911
:1023520041304001A3005C30A200CC30A100CD305E
:10236200A000410130088600310887005431403F07
:102372004001A400413FA500423FA600433FA70001
:102382009931F1219031031CCA2902308731FF278C
:10239200080041304001A3003030A2000030A1000B
:1023A2000030A00041013008860031088700543116
:1023B200403F4001A400413FA500423FA600433FE9
:1023C200A7009931F12190310318080041304001F2
:1023D200A3003630A2006630A1006630A0004101A1
:1023E20030088600310887005431403F4001A40084
:1023F200413FA500423FA600433FA7009931F1218A
:102402009031031C080003308731FF270800400188
:1024120034088600350887005031403FA000413F14
:10242200A100423FA200433FA300C130A700F03009
:10243200A6000030A5000030A4009931F1219231AC
:10244200031C3E2A42304001A300C830A2000030E3
:10245200A1000030A0003408860035088700503102
:10246200403FA400413FA500423FA600433FA700D2
:102472009931F12192310318472A400134082C3E48
:1024820086000030353D87000111612B4001340880
:102492002C3E86000030353D87000115612B42013C
:1024A2002B084001A70042012A084001A600420170
:1024B20029084001A500420128084001A400A631D4
:1024C2001526923140012708031D712A2608031D93
:1024D200712A2508031D712A32302402031C0800C8
:1024E200A23104229231400123084201A700400197
:1024F20022084201A600400121084201A500400134
:1025020020084201A4002708AB002608AA002508DB
:10251200A9002408A8003F30A131AC214101ED01FE
:10252200ED0A0800420127084001A70042012608DF
:102532004001A600420125084001A50042012408ED
:102542004001A400A6311526923140012708031D3F
:10255200B42A2608031DB42A2508031DB42A1530FF
:102562002402031CC02A34082C3E86000030353D6C
:10257200870081104101ED01A13189210800A131BB
:10258200CB219231003A03190800A1317421923112
:102592004001B6003608BA003A08860001308700CA
:1025A200AA300106031D552B3A08023E860001306F
:1025B20087000103031D552B3A08033E86000130B4
:1025C2008700403FB600413FB700423FB800433F5B
:1025D200B90034088600350887003608C03F37083E
:1025E200C13F3808C23F3908C33F3A08073E860058
:1025F20001308700403FB600413FB700423FB8007C
:10260200433FB90034088600350887004431360854
:10261200C03F3708C13F3808C23F3908C33F3A08B4
:102622000B3E860001308700403FB600413FB700B5
:10263200423FB800433FB90034088600350887009E
:1026420048313608C03F3708C13F3808C23F390811
:10265200C33F3A0A8600013087000108B600B7017D
:10266200B801B9013908A9003808A8003708A7003D
:102672003608A6000030903115209231400134080E
:102682008600350887004C312608C03F2708C13F25
:102692002808C23F2908C33F34082C3E8600003078
:1026A200353D870081145E2B34082C3E86000030B5
:1026B200353D87008110A13189214101ED010800DA
:1026C20041016D084001B600B7013708003A03190D
:1026D2006B2B5E2B3608003A0319502A013A031974
:1026E200932A5E2B0800400155088039D60056080F
:1026F200DF005535D6005608E600D41B661466087E
:102702000319912B660A031D8E2B0030D500003071
:10271200D4000030D3000030D200D417D501992B59
:102722000030D5000030D4000030D3000030D20099
:1027320051088039D6005608DF065135D6005608B2
:10274200E700D01B671467080319B52B670A031D3E
:10275200B22B0030D1000030D0000030CF0000306A
:10276200CE00D017D101BD2B0030D1000030D000F7
:102772000030CF000030CE00510850044F044E0408
:10278200031DDC2B0030D5000030D4000030D30014
:102792000030D2008030D4047F30D5045F08D600E8
:1027A2005608D5045508D1005408D0005308CF006C
:1027B2005208CE0008006608031DE82B0030D10045
:1027C2000030D0000030CF000030CE000800660894
:1027D200D600D7015708D90067085602D800031C53
:1027E200D90358087F3EE0000030593DE10055080A
:1027F200DE005408DD005308DC005208DB00003024
:10280200D5000030D4000030D3000030D2000030B8
:10281200E5000030E4000030E3000030E200E701B0
:102822001A30670203184D2C670803192F2C013048
:10283200DB35DC0DDD0DDE0D890B192C0130D235B7
:10284200D30DD40DD50D890B202CE51B521401306C
:10285200E235E30DE40DE50D890B292C51085E02EA
:10286200031D3D2C50085D02031D3D2C4F085C02E8
:10287200031D3D2C4E085B02031C482C65174E08B5
:10288200DB024F08DC3B5008DD3B5108DE3B0130E8
:10289200D6005608E707112C5E085D045C045B0451
:1028A200031D6214D41B6A2C0130D235D30DD40D12
:1028B200D50D890B562CE51B52140130E235E30D80
:1028C200E40DE50D890B5F2CFF30E007FF30E13DA1
:1028D200532CE701E51F832CFF306205D600FF3041
:1028E2006305D700FF306405D8007F306505D90045
:1028F200590858045704560403195218812C832C82
:10290200E701E70A67080319AC2C0130D20700304F
:10291200D33D0030D43D0030D53D551CAC2C52087F
:10292200D6005308D7005408D8005508D900013002
:10293200DA00D937D80CD70CD60CDA0B9A2C5908F6
:10294200D5005808D4005708D3005608D2000130E9
:10295200E0070030E13D6108803AD600803056023F
:10296200031DB52CFF306002031CC42CFF30400154
:10297200E0000030E1000030D5000030D40000302B
:10298200D3000030D20040016108803AD600803086
:102992005602031DCE2C013060020318DC2C4001CC
:1029A200E001E1010030D5000030D4000030D30056
:1029B2000030D200DF0140016008D6005608E60070
:1029C200661CE52CD417E92C7F30D6005608D405B6
:1029D2006636D6005608D500CF2B4101B000AB01B8
:1029E200AB0AAF01AC0128084001A300410127084E
:1029F2004001A200410126084001A1004101250831
:102A02004001A0000030A7000030A6000030A50061
:102A12000030A4009931F12194310318402DBF30C8
:102A22004001B7008030B6000030B5000030B4007D
:102A3200410128084001BB00410127084001BA00BA
:102A4200410126084001B900410125084001B800B2
:102A5200853102259431400137084101A800400127
:102A620036084101A700400135084101A600400196
:102A720034084101A500AC01AC0A0130A9024101B0
:102A820028084001A300410127084001A20041019A
:102A920026084001A100410125084001A000413063
:102AA200A7002030A6000030A5000030A400993114
:102AB200F1219431031C902D41304001D10020308E
:102AC200D0000030CF000030CE0041012808400184
:102AD200D500410127084001D400410126084001E8
:102AE200D300410125084001D2009331742394316F
:102AF200400151084101A800400150084101A700CE
:102B020040014F084101A60040014E084101A500C5
:102B120001304001EE006E084101AB07402D41013A
:102B22002B082A074001EE006E084101AE002A0878
:102B3200031DA12D01304001EE006E084101A907DD
:102B42000130A90229082E020318BB2D20304001B2
:102B5200EE0041012F0830074001EF006F088600A8
:102B6200013087006E0881000130EE006E084101DD
:102B7200AF07A12D2C080319D12D2D304001EE00F5
:102B820041012F0830074001EF006F088600013035
:102B920087006E0881000130EE006E084101AF0728
:102BA2000130AE022E0A03196A2E28084001EB00FA
:102BB200410127084001EA00410126084001E900DD
:102BC200410125084001E80099317F2194314001FB
:102BD2006808EE006E084101AD000A304001A20013
:102BE2000030A30041012D084001EE00EF016E0804
:102BF200A0006F08A100A2312622943140012008D2
:102C0200A6002108A700890D893B8909A800A9000F
:102C1200013090311520943140012908E50028083F
:102C2200E4002708E3002608E2004130B700203024
:102C3200B6000030B5000030B40041012808400160
:102C4200BB00410127084001BA00410126084001AA
:102C5200B900410125084001B800853102259431AF
:102C620040013708E9003608E8003508E700340873
:102C7200E600A23161229431400165084101A800B9
:102C8200400164084101A700400163084101A60018
:102C9200400162084101A5002D08303E4001EE00CE
:102CA20041012F0830074001EF006F088600013014
:102CB20087006E0881000130EE006E084101AF0707
:102CC2002E080319D12D2E082A06031DD12D2E30D0
:102CD200BF2D2F0830074001EE006E08860001303C
:102CE20087008101080006308831012096314001B9
:102CF2002108EF002008EE006F08AD006E08AC005E
:102D0200420131084001AF00420130084001AE00EB
:102D12000030B3000030B2005930B1009930B00039
:102D2200A631C326963140012D084201B10040016F
:102D32002C084201B0001030883101209631400148
:102D42002108EF002008EE006F08AD006E08AC000D
:102D520042012F084001AF0042012E084001AE009F
:102D62000030B3000030B2005930B1009930B000E9
:102D7200A631C326963140012D084201AF00400121
:102D82002C084201AE0011308831012096314001F9
:102D92002108EF002008EE006F08AD006E08AC00BD
:102DA20042012D084001AF0042012C084001AE0053
:102DB2000030B3000030B2005930B1009930B00099
:102DC200A631C326963140012D084201AD004001D3
:102DD2002C084201AC00C2304001D1000A30D000C0
:102DE2000C30CF004A30CE003D30B700F330B60091
:102DF200EA30B500B330B400420130084001A60009
:102E0200420131084001A700A801A9010030903118
:102E12001520963140012908BB002808BA0027086E
:102E2200B9002608B80085310225963140013708DD
:102E3200D5003608D4003508D3003408D2008C31CE
:102E42001B249631400168088600690887005031CA
:102E52004E08C03F4F08C13F5008C23F5108C33F10
:102E62004030B700A030B6000030B5000030B400EA
:102E720042012E084001A60042012F084001A7008E
:102E8200A801A9010030903115209631400129088E
:102E9200BB002808BA002708B9002608B800853107
:102EA2000225963140013708ED003608EC0035085E
:102EB200EB003408EA004730D1003B30D000D1307B
:102EC200CF000030CE004330B7004530B6000030AE
:102ED200B5000030B4006D08BB006C08BA006B0886
:102EE200B9006A08B80085310225963140013708D9
:102EF200D5003608D4003508D3003408D200933107
:102F020074239631400168088600690887005431AD
:102F12004E08C03F4F08C13F5008C23F5108C33F4F
:102F22004530D1001F30D000D830CF000030CE0065
:102F32004030B700A030B6000030B5000030B40019
:102F420042012C084001A60042012D084001A700C1
:102F5200A801A901003090311520963140012908BD
:102F6200BB002808BA002708B9002608B800853136
:102F72000225963140013708D5003608D4003508BD
:102F8200D3003408D200933174239631400168088B
:102F920086006908870058314E08C03F4F08C13F7C
:102FA2005008C23F5108C33F68088600690887007D
:102FB2005831403FB400413FB500423FB600433F65
:102FC200B70068088600690887005431403FB8009E
:102FD200413FB900423FBA00433FBB008531022561
:102FE200400168088600690887005C313408C03FE8
:0E2FF2003508C13F3608C23F3708C33F08000C
:1030020018341834033404340434043403340034DC
:10301200003400340034043400340034003400340A
:1030220001340134053409341F34083404340034C3
:103032000034103418341C34183410340034003482
:10304200D1340834FD340D34D4341E34B3341D3439
:10305200F8341A342E340734A13418343334183483
:10306200103419340030A331BA23983141016F086A
:10307200031945284001A701FC30A800A830A90087
:103082000030A3318823983141013108243EA00049
:103092000030323DA100C230A5004830A40000300B
:1030A200A3000030A200C130A900A030A800003067
:1030B200A7000030A6003F30AD008030AC000030E9
:1030C200AB000030AA0088311E209831410131083E
:1030D200243E86000030323D8700403FA500413F3C
:1030E200A600423FA700433FA8000330B3003308C5
:1030F200A900AA0159309431EE2498314001A70168
:10310200A70AC930A800A930A9000030A33188233A
:1031120098314001A701A70A5930A8000130A9003F
:103122000130A331882398314001A701A70A6B30EF
:10313200A800A930A9000430A33188230030080078
:103142000030A331BA23983141016F080319B32823
:103152004001A7010930A800A930A9000030A3311D
:103162008823983141013108203EA0000030323DD1
:10317200A1000030A5000030A4000030A300003000
:10318200A2004130A9002030A8000030A700003082
:10319200A6003F30AD000030AC000030AB00003084
:1031A200AA0088311E20983141013108203E860054
:1031B2000030323D8700403FA500413FA600423F1C
:1031C200A700433FA8000430B3003308A900AA01B6
:1031D200AA0A59309431EE2498314001A701A70A76
:1031E200C430A800A930A9000030A3318823983147
:1031F2004001A701A70A5930A8000130A9000630F2
:10320200A331882398314001A701A70AEF30A80013
:10321200A930A9000A30A331882300300800003009
:10322200A331BA23993141016F08031922294001C0
:10323200A701A030A800A830A9000030A33188233C
:10324200993141013108283EA0000030323DA100F1
:103252003D30A500CC30A400CC30A300CD30A2007C
:103262004030A900A030A8000030A7000030A6001E
:103272003D30AD00CC30AC00CC30AB00CD30AA003C
:1032820088311E20993141013108283E86000030E4
:10329200323D8700403FA500413FA600423FA700C4
:1032A200433FA8000330B3003308A900AA01AA0AC9
:1032B20059309431EE2499314001A701A70AC9304F
:1032C200A800A930A9000030A33188239931400118
:1032D200A701A70A5930A8000130A9000130A33183
:1032E200882399314001A701A70A7430A800A930A8
:1032F200A9000430A33188230030080003104001E4
:103302006A0D6B0D4101A00020084001ED006D081F
:10331200031D94290030EB000030EA000030E90080
:103322000030E800080068084101A0004001690877
:103332004101A10040016A084101A20040016B085D
:103342004101A3001F30A336A20CA10CA00C890BD3
:10335200A4292008A40024084001EC00EA17FF3049
:10336200E805FF30E905FF30EA050030EB0596304D
:10337200ED02ED1FD1296D08803A973E031C8B297F
:103382000130EB36EA0CE90CE80C890BC22901305A
:103392004101A00020084001ED070319E229C129DB
:1033A20020306D0203188B296D080319E2290130C0
:1033B200E835E90DEA0DEB0D890BD9290130ED0253
:1033C200D5296C0803190800E809E909EA09EB099B
:1033D200E80A0319E90A0319EA0A0319EB0A0800C1
:1033E200003040012005A80000302105A9008030EE
:1033F2002205AA007F302305AB002B082A042904EA
:103402002804031D0C2A0030A3000030A200003063
:10341200A1000030A00000302405A80000302505DE
:10342200A90080302605AA007F302705AB002B08B3
:103432002A0429042804031D262A0030A70000308C
:10344200A6000030A5000030A400A31F402A0030CF
:10345200A8000030A9000030AA008030AB0020088C
:10346200A8022108A93B2208AA3B2308AB3B2B0850
:10347200A3002A08A2002908A1002808A000A71F6B
:103482005A2A0030A8000030A9000030AA0080307B
:10349200AB002408A8022508A93B2608AA3B270856
:1034A200AB3B2B08A7002A08A6002908A50028087C
:1034B200A4008030A3068030A70627082302031D3C
:1034C200080026082202031D080025082102031D08
:1034D200080024082002080040011912191199114C
:1034E20041304001A700EE30890B752AA70B752ADF
:1034F20000004001991019109A121A120330A431D7
:1035020024249A3107304001A7007D30890B872A95
:10351200A70B872A0830A43124249A3107304001AE
:10352200A7007D30890B932AA70B932A0230A4317E
:1035320024249A3107304001A7007D30890B9F2A4D
:10354200A70B9F2A0230A43124249A31073040016C
:10355200A7007D30890BAB2AA70BAB2A0830A43118
:1035620024249A3107304001A7007D30890BB72A05
:10357200A70BB72A0830A131A2219A3107304001A6
:10358200A7007D30890BC32AA70BC32A0130A131C2
:10359200A2219A3107304001A7007D30890BCF2A42
:1035A200A70BCF2A0630A131A2219A310730400160
:1035B200A7007D30890BDB2AA70BDB2A0230A13161
:1035C200A2219A3107304001A7007D30890BE72AFA
:1035D200A70BE72A0C30A131A2219A310730400112
:1035E200A7007D30890BF32AA70BF32A08000030CD
:1035F200A331BA239A3141016F0803190A2B400102
:10360200A701D530A800A830A9000030A331882333
:103612009A3141016408B300B4010530B335B40DE9
:10362200890B0F2B33083107B5003408323DB60041
:103632003508433EA0000030363DA1003F30A500D2
:103642008030A4000030A3000030A2004130A90065
:103652008030A8000030A7000030A6003F30AD0047
:103662000030AC000030AB000030AA0088311E20D0
:103672009A3141016408B300B4010530B335B40D89
:10368200890B3F2B33083107B5003408323DB600B1
:103692003508433E86000030363D8700403FA50096
:1036A200413FA600423FA700433FA8000430B700B5
:1036B2003708A900AA01AA0A59309431EE249A3196
:1036C2004001A701A70AC930A800A930A90000300B
:1036D200A33188239A314001A701A70A5930A800D3
:1036E2000130A9000130A33188239A314001A7019A
:1036F200A70A8630A800A930A9000530A331882383
:103702000030080000304101DD000030DC000030F4
:10371200DB000030DA00A53132259B3140019916D9
:103722009A316D229B31A231A0229B31A131852198
:103732009B31A13181219B3143304001A0002730D0
:10374200A1009C31AB249B3140019A1518146400EE
:1037520043304001E8002730E900963174269B315E
:1037620043304001B4002730B500923108229B312A
:1037720041015D084001A70041015C084001A6002B
:1037820041015B084001A50041015A084001A40023
:10379200A63115269B3140012708031DDA2B260886
:1037A200031DDA2B2508031DDA2B0B302402031C20
:1037B200FC2BA23104229B31400123084101DD0090
:1037C200400122084101DC00400121084101DB00E7
:1037D200400120084101DA004330B0002730B10037
:1037E2009031AB209B3143304001EA002730EB009F
:1037F2008031B5209B3143304001EE002730EF008D
:103802008A3165229B3143304101BC002730BD0023
:10381200A6316B269B310D304101D900FB30890B5B
:10382200102CD90B102C0032A82B4001AB00AC019C
:103832002C08A800A9012808A0002908A100053029
:10384200A2000030A300A23126229C3140012108AF
:103852008500200884004C308407A830853D00088C
:103862002B06031DA12C2C08A800A9012808A000E2
:103872002908A1000530A2000030A300A2312622AF
:103882009C31400121088500200884004D308407C6
:10389200A830853D0008260603196A2C2C08A800CA
:1038A200A9012808A0002908A1000530A2000030C3
:1038B200A300A23126229C31400121088500200864
:1038C20084004D308407A830853D1200FF3A031D65
:1038D200A12C2703031D852C2C08A800A901280868
:1038E200A0002908A1000530A2000030A300A231E7
:1038F2002622400121088500200884004E308407DA
:10390200A830853D0008080002302706031DA12CBF
:103912002C08A800A9012808A0002908A100053048
:10392200A2000030A300A231262240012108850016
:10393200200884004F308407A830853D0008080025
:103942000130A8002808AC070C302C02031C192CEB
:10395200FF3008004001200886002108870000305F
:10396200C03F0030C13F0030C23F0030C33F20089B
:1039720086002108870044310030C03F0030C13F3B
:103982000030C23F0030C33F200886002108870074
:1039920048310030C03F0030C13F0030C23F0030EC
:1039A200C33F20088600210887004C310030C03F09
:1039B2000030C13F0030C23F0030C33F20088600C4
:1039C2002108870050310030C03F0030C13F003035
:1039D200C23F0030C33F20088600210887005431CF
:1039E2000030C03F0030C13F0030C23F0030C33F13
:1039F200200886002108870058310030C03F00307F
:103A0200C13F0030C23F0030C33F2008860021087A
:103A120087005C310030C03F0030C13F0030C23F00
:103A22000030C33F2008203E86000030213D870041
:103A32000030C03F0030C13F4030C23F4030C33F42
:103A42002008243E86000030213D87000030C03F20
:103A52000030C13F2030C23FC230C33F2008283E61
:103A620086000030213D87000030C03F0030C13F5A
:103A72008030C23F3F30C33FA6012608A200A30107
:103A82000530A235A30D890B422D22082007A40080
:103A92002308213DA50024082D3EA7000030253D26
:103AA200A800270886002808870056310030C03F4A
:103AB2000030C13F8030C23F4030C33F27081F3E25
:103AC200A2000030283DA3002208860023088700B8
:103AD2000130810027081E3EA2000030283DA300CD
:103AE200220886002308870001308100270886000B
:103AF2002808870044310030C03F0030C13F003009
:103B0200C23F0030C33F270886002808870048319B
:103B12000030C03F0030C13F0030C23F0030C33FE1
:103B220027088600280887004C310030C03F00304B
:103B3200C13F0030C23F0030C33F2708860028083B
:103B420087000030C03F0030C13F0030C23F00302C
:103B5200C33F0130A2002208A60704302602031840
:103B620008003E2D41016408B300B4010530B335AD
:103B7200B40D890BB82D33083107B5003408323D36
:103B8200B60035082D3EB7000030363DB800003093
:103B9200A331BA239D3141016F080319DA2D400187
:103BA200A7013D30A800A930A9000030A331882325
:103BB2009D3141013708103EA0000030383DA10080
:103BC2000030A5000030A4000030A3000030A200A5
:103BD20037088600380887004431403FA600413F3D
:103BE200A700423FA800433FA9003E30AD0080300D
:103BF200AC000030AB000030AA0088311E209D319D
:103C0200410137088600380887005031403F4001A3
:103C1200A000413FA100423FA200433FA300003069
:103C2200A7000030A6000030A5000030A400A53196
:103C32007A259D31031C492E59304101A5000130DE
:103C4200A6006408013EB3003308A700A801A80A31
:103C5200A7312C279D314001A701A70AD930A8001E
:103C6200A930A9000030A33188239D314001A7016A
:103C7200A70A5930A8000130A9000530A3318823D2
:103C82009D314001A701A70AB630A800A930972E9E
:103C9200410137088600380887005031403F400113
:103CA200A000413FA100423FA200433FA3004101C7
:103CB20037088600380887004431403F4001A4009D
:103CC200413FA500423FA600433FA7009931F121A1
:103CD2009D31031C9A2E59304101A5000130A600E6
:103CE2006408013EB3003308A700A801A80AA7315F
:103CF2002C279D314001A701A70AD930A800A9307D
:103D0200A9000030A33188239D314001A701A70AF1
:103D12005930A8000130A9000530A33188239D3114
:103D22004001A701A70ABD30A800A930A9000630AA
:103D3200D02E4001A701A70AC930A800A930A900C6
:103D42000030A33188239D314101370886003808AD
:103D520087005031403FA500413FA600423FA700E7
:103D6200433FA8000430B3003308A900AA01AA0AFD
:103D720059309431EE249D314001A701A70A5930F0
:103D8200A8000130A9000130A33188239D314001F0
:103D9200A701A70A8E30A800A930A9000530A331D7
:103DA20088230030080041016408B300B4010530E3
:103DB200B335B40D890BD92E33083107B500340859
:103DC200323DB60035082D3EB7000030363DB80012
:103DD2006108A331BA239E3141016F080319F02F04
:103DE2004001A701C930A800A830A9000030A331C2
:103DF20088239E31410137088600380887005031F8
:103E0200403F4001A000413FA100423FA200433F8A
:103E1200A3000030A7000030A6000030A50000304B
:103E2200A400A5317A259E31031C432F4001A7012E
:103E3200A70ADA30A800A930A9000030A3318823EC
:103E42009E3159304101A5000130A6006408013EAF
:103E5200B3003308A700A801A80AA7312C279E3176
:103E62004001A701A70A5930A8000130A900043077
:103E7200A33188239E314001A701A70A9E30A800E2
:103E8200A930912F41013708860038088700503148
:103E9200403F4001A000413FA100423FA200433FFA
:103EA200A300410137088600380887004431403FAB
:103EB2004001A400413FA500423FA600433FA700A6
:103EC2009931F1219E31031C942F4001A701A70AC9
:103ED200DA30A800A930A9000030A33188239E312E
:103EE20059304101A5000130A6006408013EB3002B
:103EF2003308A700A801A80AA7312C279E31400148
:103F0200A701A70A5930A8000130A9000430A33143
:103F120088239E314001A701A70AAE30A800A9302C
:103F2200A9000530BF2F41013708860038088700F5
:103F32005031403FA500413FA600423FA700433F0A
:103F4200A8000430B3003308A900AA01AA0A593014
:103F52009431EE249E314001A701A70A5930A800EE
:103F62000130A9000030A33188239E314001A7010E
:103F7200A70A7D30A800A930A9000430A331882304
:103F82009E31410137088600380887005631403F8C
:103F9200A500413FA600423FA700433FA8000430CE
:103FA200B3003308A900AA01AA0A59309431EE24B9
:103FB2009E314001A701A70A5930A8000130A9008B
:103FC2000C30A33188239E314001A701A70AA630F5
:103FD200A800A930A9001130A33188239E310230F4
:103FE2004101B30033084001A70041016108A73134
:0E3FF20095274101B4003408E1006108080081
:1042E8004A3008004101690808001830A131A221AC
:1042F80008001C30A131A22108000130A131A221FF
:1043080008000230A131A2210800420119081D123B
:104318001D169D139D17FC01080000344034143409
:1043280054340034403414345434400119151030D6
:10433800890B9C2900324001191108004001A60090
:10434800A30126088731E827A131A23142220800BB
:104358004001A000200842019A0000004E010F1AF7
:104368000800B2290830A131A221A1311330A131AE
:10437800A2214001991608004001A600A301A30A42
:1043880026088731E827A131A231422208004101DD
:1043980066084001A0002008A1004101E601400193
:1043A80021080800410168084001A0002008A10078
:1043B8004101E80140012108080041016708400166
:1043C800A0002008A1004101E701400121080800E0
:1043D8006400800101310130FE020030FF3B7F089C
:1043E8007E0403190034ED29FE0012001E0001307E
:1043F800FE020030FF3B7F087E0403190034F929D0
:10440800420123084001A300420122084001A20002
:10441800420121084001A100420120084001A000FA
:104428000800A1318521A231A1318121A2314001A9
:10443800A7015630A800A930A9000030A33188236D
:10444800A231252A4001A401A501201C2F2A2208F7
:10445800A4072308A53D0130A235A30D890B302AF6
:104468000130A136A00C890B352A20082104031D30
:10447800292A2508A1002408A000080040011416D4
:104488001912991519110330890B482A00004001A7
:1044980019150330890B4E2A0000003040010E1A0E
:1044A8000130A0001911A1319921A2314001200841
:1044B800031D462A14129911080080304001E506B0
:1044C8006908D1006808D0006708CF006608CE00E8
:1044D8006508D5006408D4006308D3006208D200D8
:1044E8008C311B2440015108E5005008E4004F08B6
:1044F800E3004E08E20008004001A800A401A5015D
:104508002008A200A3012208A6002308A700281C4F
:10451800912A2608A4072708A53D0130A635A70D2E
:10452800890B922A0310A80C2808031D8B2A25083A
:10453800A1002408A0000800A030860001308700F0
:10454800283084000030850020304001A700160084
:104558001A00A70BAB2A4830A131A221A231400191
:10456800C8014808283E860087010108A131C021FA
:10457800A23101304001A7002708C80720304802AF
:1045880003180800B52A40018C1BCD2A9031002061
:104598000800A1317621A231F0007008F100063040
:1045A8007102031CE12A333071020318E12A013039
:1045B800F00070084101E700080033307102031C65
:1045C800EF2A973071020318EF2A0230F0007008C2
:1045D8004101E70008000330F00070084101E700DE
:1045E800080000304001AB000030AA000030A900EC
:1045F8000030A800201C082B2408A8072508A93D7E
:104608002608AA3D2708AB3D0130A435A50DA60D07
:10461800A70D890B092B0130A336A20CA10CA00C05
:10462800890B102B2308220421042004031DFE2AD1
:104638002B08A3002A08A2002908A1002808A00026
:104648000800F4007408F3007308F5007108720498
:1046580003194B2B0130F1020030F23B750886003C
:1046680001308700F50A7008840001308500F00ADF
:104678000008C03F890803194B2B2A2B75088600B0
:104688000130870081010130F3007308F50701301C
:10469800F1020030F23B710A031D422B720A031922
:1046A8000800422B4001A300712B200C031C18109A
:1046B800031818140800200C031C981003189814E9
:1046C8000800200C031C1811031818150800200CEA
:1046D800031C98110318981508002308A100A201CB
:1046E8002208003A0319792B872B2108003A03196D
:1046F800592B013A03195F2B033A0319652B013A29
:1047080003196B2B872B08004001AF004201660894
:104718004001AE00420165084001AD004201640855
:104728004001AC00420163084001AB0027082B3E62
:104738008600870101082F078038A131A221A33103
:104748004001280884002908850012000319080080
:1047580028088400290885000008A131C021A33158
:1047680001304001A8070030A93DA42B4001A90051
:1047780041016F08031908000130A131A221A331BA
:104788000230A131A221A3314001AA012908A700C2
:10479800A8012708A0002808A1000C30A2000030BA
:1047A800A300A2312622A33140012108803A803C8F
:1047B800031DE02B20082A02031808001830A13135
:1047C800A221A33101304001A7002708AA07CA2B5C
:1047D80040010C0E0139F0000C0E890C0139090753
:1047E8007004F1007108F7007D080739F000F10145
:1047F800F035F10DF035F10DAD30F200A830F300D1
:1048080070087207F4007108733DF50077087407A3
:10481800840075080318750A85000008F6007608F4
:10482800FD00FD1F1C2C0130F00070084101E8005C
:104838007D1F08000230F00070084101E800080000
:104848004001A20022080139A000A00D1908200685
:10485800FD39200699002208A0000130A036890BF6
:10486800322C01302005A10019082106FE39210645
:1048780099002208A0000230A036890B402C20089D
:104888000139A100A10EA10D1A082106DF39210660
:104898009A002208A0000330A036890B502C20086B
:1048A8000139A100A10E1A082106EF3921069A0044
:1048B8001030890B5D2C0032A1319921080040018C
:1048C800AB00AC012C08A800A9012808A000290801
:1048D800A1000330A2000030A300A2312622A43197
:1048E8004001210885002008840000308407A83092
:1048F800853D00082B06031D9C2C2C08A800A90147
:104908002808A0002908A1000330A2000030A30055
:10491800A2312622400121088500200884000130A8
:104928008407A830853D003FA600013FA700080086
:104938000130A8002808AC0709302C02031C662C9B
:10494800A601A701080042019D1CB02C1D121D16CE
:104958000130F6007608B4071D1DB82C9D139D176D
:104968000130F6007608B5070F307C020318D42C06
:104978001908F6007C08363E860001308700760864
:1049880081007C08363E8600013087000108F60069
:1049980076084101E5060130F6007608FC070800B4
:1049A800190841016506031DE82C0130F600760858
:1049B800E6003630F6007608F0000F30F1000030DF
:1049C800F2004A30A33125234101E501FC0108002A
:1049D8004001A601A31FF72CA209A309A20A0319E3
:1049E800A30AA601A60AA11FFE2CA009A109A00AD4
:1049F8000319A10A200821040319252DA501A50AD8
:104A0800A11B102D0130A035A10D890B072D0130F8
:104A1800A4002408A507042D21082302031D162D30
:104A280020082202031C1C2D2008A2022108A33BF7
:104A38000130A136A00C890B1D2D0130A502031DE4
:104A4800102D260803192D2DA209A309A20A03195E
:104A5800A30A2308A1002208A0000800023051017F
:104A6800930060308D000F1E372D7D014B08C03933
:104A78001738CB000F307E01A6004030B800C301C4
:104A88000330CE00F030400192009301873094004B
:104A980041011D14E0309E0080304B019E004730DC
:104AA8009F00B2309C00333044018E0001309100E9
:104AB800CF308D002B308C0030304E0196002030E6
:104AC800990001309A00C0308B00B0307E01BD00E3
:104AD800B030BE000430D400083042019F001930C5
:104AE8009B0090309D0020309E000800003040015F
:104AF8002005A80000302105A90080302205AA0061
:104B08007F302305AB002B082A0429042804031D41
:104B1800952D0030A3000030A2000030A100003025
:104B2800A00000302405A80000302505A900803029
:104B38002605AA007F302705AB002B082A04290484
:104B48002804031DAF2D0030A7000030A600003058
:104B5800A5000030A40027082306031DBD2D260844
:104B68002206031DBD2D25082106031DBD2D240881
:104B780020060319C12D0310080003140800400182
:104B8800A601A11FCE2DA009A109A00A0319A10AF7
:104B9800A601A60AA31FD92DA209A309A20A0319CF
:104BA800A30A0130A4002408A606A701A80120082A
:104BB80021040319082EA501A50AA11BED2D01301A
:104BC800A035A10D890BE42D0130A4002408A50708
:104BD800E12D0130A735A80D890BEE2D2108230200
:104BE800031DF82D20082202031CFF2D2008A20215
:104BF8002108A33B27140130A136A00C890B002EF5
:104C08000130A502031DED2D26080319102EA70952
:104C1800A809A70A0319A80A2808A1002708A000BC
:104C28000800A2310422A63140012308B30022085B
:104C3800B2002108B1002008B00027083302031D84
:104C48002F2E26083202031D2F2E25083102031DA0
:104C58002F2E24083002031C462E24083002A800F8
:104C68002508313BA9002608323BAA002708333B18
:104C7800AB002B08A7002A08A6002908A5002808C9
:104C8800A40008000130A800CA30A9009A30AA0080
:104C98003B30AB0024083002AC002508313BAD00A6
:104CA8002608323BAE002708333BAF002C08A80784
:104CB8002D08A93D2E08AA3D2F08AB3D2B08A700BB
:104CC8002A08A6002908A5002808A4000800410110
:104CD8005F08A4316324A631400127084101C500BB
:104CE800400126084101C4004408450403198A2EDE
:104CF8003D08B2003C08B10045088A0044080A0093
:104D0800A6314101BE003E08C2008D2EA2311522F7
:104D1800A6314101EF01A131E121A6314101BE00D7
:104D28003E08C3004208BE003E084001A6004101FB
:104D38004308BF003F084001A70041015F089C31BC
:104D48001624A6314101C0004008C600C61B080051
:104D58004608BE00BF01BE1BBF035F08C000C101FB
:104D68003F084106031DBA2E3E08400603190800F5
:104D7800EF01EF0A4608BE003E08DF0008004001C8
:104D88002E08A0002F08A100A201A3010030B40042
:104D98000030B5000130B6000030B7003008B4026A
:104DA8003108B53B3208B63B3308B73B3708A70094
:104DB8003608A6003508A5003408A400A231F5225B
:104DC800A63140012008B8002108B9002208BA001D
:104DD8002308BB002C08A0002D08A100A201A301F4
:104DE8003308A7003208A6003108A5003008A4003F
:104DF800A231F522A63140012008B8072108B93DA3
:104E08002208BA3D2308BB3D3B08BF003A08BE0054
:104E18003908BD003808BC000030B4008030B50047
:104E28000030B6000030B7003C08B4073D08B53D77
:104E38003E08B63D3F08B73D1030B736B60CB50C46
:104E4800B40C890B212F3508AD003408AC000800DC
:104E580041012808A900AA012908250786002A086F
:104E6800263D8700810127080319912F2808031977
:104E7800912F0A304001A0000030A100410127080D
:104E8800A900AA0129084001A20041012A084001FD
:104E9800A300A431EC24A73140012008303E410191
:104EA800AB000130A8022808AC00AD012C0825078A
:104EB800AE002D08263DAF002E0886002F0887007B
:104EC8002B0881000A304001A0000030A1004101F8
:104ED8002708A900AA0129084001A20041012A08BF
:104EE8004001A300A531C325A73140012008410195
:104EF800AB002B08A700372F0130A8022808A9000B
:104F0800AA0129082507AB002A08263DAC002B0872
:104F180086002C0887002030810028080319080023
:104F2800802F4001AA004E011612A131D621A731C7
:104F38004001A8002808AB002B0841015E06031DAC
:104F4800F52F40012B03031DD52F2708FF3EA8008E
:104F5800FF3003180030A9002908803A803C031D5F
:104F6800B72F28082A020318D52F01304001A800BE
:104F78002808AA07AC01A1317921A7311A304001CC
:104F8800A800F830890BC62FA80BC62F00000130E7
:104F98004001A8002808AC070C302C020318F52F94
:104FA800BF2F023040012B06031DF52F2A080319D5
:104FB800F52F0130AA02AC01A1317D21A7311A30A9
:104FC8004001A800F830890BE72FA80BE72F000055
:104FD80001304001A8002808AC070C302C02031C43
:104FE800E02F40012B08A80028084101DE004E01EF
:104FF800161640012A0808000034D1340834013458
:10500800FD340D340234D4341E340334B3341D3427
:105018000434F8341A3405342E3407340634A134F1
:1050280018340734333418340834103419345434E9
:1050380065346D3470346534723461347434753465
:10504800723465342034523465346C342E34683408
:1050580075346D346934643469347434793444345F
:105068006534773470346F3469346E347434203472
:105078002034203420344234613474342E342034C3
:105088002034203450346F3477346534723400342B
:105098000034FF340134053400340134FF34003463
:1050A800023401340234003403340134013402344C
:1050B800013404340134013403340034023402343A
:1050C8000234043400340234023402340534003427
:1050D8000634003400340534013407340034003415
:1050E80005340234083400340034063400340534FE
:1050F80005340534073400340534053405340834E0
:1051080000340534053405344434503420346F34C5
:10511800663466347334653474342034203420346F
:1051280053346B3479342034743465346D347034CA
:105138002E342034203420344634753464346734B3
:105148006534203466346134633474346F347234B3
:10515800003400340434013400348234003401341F
:10516800003402340334013400340234033400348C
:1051780080344534043400340034053404340634AF
:10518800003405340034063440344F3475347434F4
:10519800703475347434203470346F347734653433
:1051A80072344C3465346E34733420346434693466
:1051B80061346D342E342034203400344F34663456
:1051C80066342034203420342034203420342034F1
:1051D800203420340034533468346F3472347434D7
:1051E80065346434213420342034203420340034AD
:1051F80053346B3479342034743465346D347034FA
:105208002E342034203420340034443450342034B4
:105218006F3466346634733465347434203420341F
:10522800203400344F347634653472346334753442
:105238007234723465346E34743421340034443436
:105248006934733463346F346E346E346534633464
:1052580074346534643400344F346E3464347234D6
:1052680065345334703465346334693461346C3470
:1052780000344F34753474347034753474342034D5
:1052880070346F34773465347234003454345534A0
:1052980052344E3449344E34473420344F34463433
:1052A800463400344D3465346E34753420346534F6
:1052B800723472346F347234003401342034203440
:1052C8002034203420342034203420340034013475
:1052D8002034033420342034203420342034003463
:1052E8002034033420342034203420342034203433
:1052F8000034573420346D3461346E34753461347D
:105308006C340034203469346E34633468342034A7
:1053180003340034573420346D3461346E342E3401
:105328000334003401342034203420342034203431
:105338002034003420346F3466346634203420340A
:1053480020340034203469346E34633468342034B3
:105358002034003420346134753474346F3420348C
:105368002034003420346F346634663420340334F7
:10537800003420346134753474346F3403340034A9
:10538800743465346D3470342E3404340034253468
:1053980020342034203420342034003474346534EC
:1053A8006D3470342E34203400340434433468347B
:1053B8002E3420340034013420340234003456347E
:1053C80020342034003443346834203400344934E1
:1053D8004E34203400340134033400340134203492
:1053E80000342234203400343A3420340034573422
:0C53F800203400340134003457340034F9
:020000040001F9
:0A000E00EC3FFF3F9F3FFF3FFF3F25
:00000001FF
