:020000040000FA
:0400000080314728DC
:100008007E1480314E01961E0A280B2815288C1E56
:100018000E280F281528B2304B019C004E018C1277
:100028004528161E182819281F280C1E1C281D28AC
:100038001F280C1245280B1F2228232845281A1C84
:10004800262827283328101C2A282B283328CF3085
:1000580044018D002B308C004E0110104528991E4C
:100068003628372845288F1E3A283B2845289D31B1
:10007800E12580314E018F1245284528452845281D
:1000880045287E10090080314928EC3084009A30D8
:1000980085005C3086000130870008309A31E622FE
:1000A8008031F701F801F901FA01FB01FC01E830A0
:1000B80084000030850008309A31E02280315330C6
:1000C80084000130850009309A31E0228031A03067
:1000D80084000130850023309A31E02280312030BD
:1000E80084000230850050309A31E02280317E1041
:1000F800400191312A294101E70040015C0886004E
:100108008701403FDE00413FDF005E0884005F0852
:1001180085001200253A031D92289328B72B5C0806
:10012800860087010130810741310318810A4101A6
:10013800EA01EB01EE01EF01FF30EC00FF30ED00CA
:1001480040015C0886008701403FDE00413FDF0038
:100158005E0884005F08850012002A3A031DB5284E
:10016800B628D9285C08860087010130810741310B
:100178000318810A5D0886000130870001088400A1
:100188000130850002308107003F4101EA00013F4C
:10019800EB00EB1FD028D12846296E14EA09EB0999
:1001A800EA0A0319EB0A4629462940015C08860039
:1001B8008701403FA600413FA7009231CF228031FE
:1001C800400127084101EB00400126084101EA00EF
:1001D800F72840015C08860087010130810741311A
:1001E8000318810AF72840015C0886008701403F10
:1001F800DE00413FDF005E0884005F0885000008DC
:10020800D03EE000FF3003180030E100003061020A
:100218000A3003196002031C122914290130152918
:100228000030E200E30162084101D900400163089F
:100238004101DA003E2940015C0886008701403F01
:10024800DE00413FDF005E0884005F08850000088B
:10025800E000E1016008A0006108A1009B312023B3
:100268008031400121084101DA00400120084101A4
:10027800D9003E2959085A04031D43294429ED2869
:100288004629462940015C0886008701403FDE0078
:10029800413FDF005E0884005F08850012002E3AA7
:1002A800031D57295829FB294101EC01ED014001A3
:1002B8005C08860087010130810741310318810AF3
:1002C8005C0886008701403FDE00413FDF005E0892
:1002D80084005F08850012002A3A031D74297529D5
:1002E8008D295C0886008701013081074131031898
:1002F800810A5D088600013087000108840001300A
:10030800850002308107003F4101EC00013FED000C
:10031800FB2940015C0886008701403FA600413F59
:10032800A7009231CF228031400127084101ED001A
:10033800400126084101EC00AB2940015C08860019
:1003480087010130810741310318810AAB29400137
:100358005C0886008701403FDE00413FDF005E0801
:1003680084005F0885000008D03EE000FF300318D5
:100378000030E100003061020A3003196002031CFA
:10038800C629C8290130C9290030E200E301620802
:100398004101DB00400163084101DC00F229400112
:1003A8005C0886008701403FDE00413FDF005E08B1
:1003B80084005F0885000008E000E1016008A000F3
:1003C8006108A1009B3120238031400121084101AF
:1003D800DC00400120084101DB00F2295B085C04D5
:1003E800031DF729F829A129FB29FB29FB2940012D
:1003F8005C0886008701403FDE00413FDF005E0861
:1004080084005F0885000008E000E1016008A6009C
:100418006108A7009C31B524803140012608E2001C
:1004280062084101DF005F0803191B2A1C2A612AA0
:1004380040015C0886008701403FDE00413FDF0045
:1004480001305E0784005F0803185F0A8500000812
:10045800E000E1016008A6006108A7009C31B5240E
:10046800803140012608E20062084101E00060088E
:1004780003193F2A402A612A40015C088600870147
:10048800403FDE00413FDF0002305E0784005F0826
:1004980003185F0A85000008E000E1016008A60073
:1004A8006108A7009C31B524803140012608E2008C
:1004B80062084101E100612A612A66305F06031D76
:1004C800662A672AB52A40015C0886008701403FF2
:1004D800DE00413FDF005E0884005F0885000008F9
:1004E800E00060084101E60040015C0886008701E1
:1004F8000130810741310318810A5D088600013007
:100508008700010884000130850004308107003F1E
:100518004101E200013FE300023FE400033FE50040
:1005280065084001D600410164084001D500410139
:1005380063084001D400410162084001D300410131
:1005480066084001DE005E08D7004101670888316F
:100558000D20803140015408DD005308DC00E02BF9
:10056800E02B25304001A000A030A1000230A200FD
:100578000030A300DF309F319827803140012008E8
:100588002104031DC82AC92A7E2B5C08860087011E
:10059800403FDE00413FDF0001305E0784005F0816
:1005A80003185F0A85000008E00060084101E600C2
:1005B80040015C0886008701403FDE00413FDF00C4
:1005C8005E0884005F0885000008BF3EE000FF3039
:1005D80003180030E100003061021A30031960028C
:1005E800031CF72AF92A0130FA2A0030E200E30155
:1005F80062084101DD00400163084101DE00232B50
:1006080040015C0886008701403FDE00413FDF0073
:100618005E0884005F0885000008E000E1016008CA
:10062800A0006108A1009B313A23803140012108D4
:100638004101DE00400120084101DD00232B5D0857
:100648005E040319282B292B3E2B40015D088600E8
:1006580001308700010884000130850004308107DB
:10066800003F4101E200013FE300023FE400033F95
:10067800E500532B40015D08860001308700010822
:1006880084000130850004308107003F4101E20009
:10069800013FE300023FE400033FE500532B400124
:1006A8005C08860087010230810741310318810AFE
:1006B800410165084001D600410164084001D500A8
:1006C800410163084001D400410162084001D300A0
:1006D800410166084001DE005E08D7004101670855
:1006E80088310D20803140015408DD005308DC00BA
:1006F800E02BE02B5C0886008701403FDE00413F8D
:10070800DF005E0884005F0885001200253A031D9B
:100718008E2B8F2BAB2B5C0886008701013081075D
:1007280041310318810A2530A0000030A1004101A1
:1007380067084001DE005E08A2009F313A27803139
:1007480001304001DC000030DD00E02BE02B5C08CC
:10075800860087010130810741310318810ADC01D5
:10076800DD01E02BE02B5C0886008701403FDE00BE
:10077800413FDF005E0884005F0885000008E00054
:10078800E1016008A0006108A1004101670840017B
:10079800E2006208A2009F313A27803140015C08DC
:1007A800860087010130810741310318810A013031
:1007B800DC000030DD00E02B080040012308803910
:1007C800A8002808B4002335A8002808B600A21FEE
:1007D800EE2BEF2BF12B3614F12B36080319F52BE2
:1007E800F62B072C360A031DFA2BFB2B042C0030A2
:1007F800A3000030A2000030A1000030A000042CAB
:10080800A217A301102C0030A3000030A200003072
:10081800A1000030A000102C27088039A800280863
:10082800B5003508340603191A2C1B2C1D2C341757
:100838001D2C2735A8002808B500A61F242C252C18
:10084800272C3514272C350803192B2C2C2C3D2C40
:10085800350A031D302C312C3A2C0030A70000300B
:10086800A6000030A5000030A4003A2CA617A70166
:10087800452C0030A7000030A6000030A50000304D
:10088800A4003608350203184A2C4B2C912C341F2F
:100898004E2C4F2C542C8030A8002808B406542C19
:1008A8003608A8002808B7003508A8002808B600A8
:1008B8003708A8002808B5002008A8002808B700AD
:1008C8002408A8002808A0003708A8002808A400C1
:1008D8002108A8002808B7002508A8002808A100B2
:1008E8003708A8002808A5002208A8002808B7008B
:1008F8002608A8002808A2003708A8002808A6008B
:100908002308A8002808B7002708A8002808A3007B
:100918003708A8002808A700912CB7013608A800B6
:10092800A901A809A909A80A0319A90A35082807C5
:10093800AA0029080318290AAB002B08803AAC0042
:1009480080302C02031DAA2C1A302A02031CAD2C5D
:10095800AE2CEA2C40012308220421042004031DA4
:10096800B62CB82C0130B92C0030A8002808B700E4
:100978000030A3000030A2000030A1000030A00029
:100988003508A8002808B600F22CEA2C371CCD2C14
:10099800CE2CD42C37360138A8002808B700D72C1D
:1009A8000310B70CD72C201CDA2CDB2CDD2CB71746
:1009B800DD2C0130A800A337A20CA10CA00CA80BB9
:1009C800DF2C0130A8002808B607EA2C40013508BA
:1009D8003602031CF02CF12CCA2CF22C341BF52CFB
:1009E800F62C322D3608031DFA2CFB2C052D003071
:1009F800A3000030A2000030A1000030A000522E59
:100A0800522E2408A0072508A13D2608A23D270844
:100A1800A33D231C102D112DD92D371C142D152D58
:100A28001B2D37360138A8002808B7001E2D0310E3
:100A3800B70C1E2D201C212D222D242DB717242D57
:100A48000130A800A337A20CA10CA00CA80B262DDE
:100A58000130A8002808B607D92DD92D2308803AD7
:100A6800A8002708803A2802031D442D26082202E0
:100A7800031D442D25082102031D442D24082002AE
:100A88000318472D482D942DFF30A800FF30A900EA
:100A9800FF30AA00FF30AB002408AC002508AD00E9
:100AA8002608AE002708AF002009B0002109B100D0
:100AB8002209B2002309B300B00A0319B10A0319C5
:100AC800B20A0319B30A3008AC073108AD3D320841
:100AD800AE3D3308AF3D2C08A8072D08A93D2E08C8
:100AE800AA3D2F08AB3D2B08A3002A08A20029081D
:100AF800A1002808A0008030A8002808B406B7097B
:100B0800B70A3708031D892D8A2D9C2D0130A007AF
:100B18000030A13D0030A23D0030A33D9C2D9C2D0E
:100B28002408A0022508A13B2608A23B2708A33BCE
:100B38002308220421042004031DA32DA42DD32D52
:100B48003708031DA82DA92DD32D0030A300003090
:100B5800A2000030A1000030A000522E522ED32D4A
:100B68000130A035A10DA20DA30D890BB52DB71F1E
:100B7800BE2DBF2DC02D2014371CC32DC42DC72D4D
:100B88000314B70DCA2D0310B70DCA2D3608031963
:100B9800CE2DCF2DD32D0130B602D32DD32DA21FAC
:100BA800D62DD72DB42DD92DD92DB501B71FDD2DB3
:100BB800DE2DF02D37087F390319E32DE42DE72DBD
:100BC800B501B50AF02D201CEA2DEB2DF02DB5014D
:100BD800B50AF02DF02DF02D35080319F42DF52D5B
:100BE800242E0130A0070030A13D0030A23D003086
:100BF800A33D231C002E012E242E2008A800210826
:100C0800A9002208AA002308AB000130AC00AB37CA
:100C1800AA0CA90CA80CAC0B0B2E2B08A3002A08B5
:100C2800A2002908A1002808A000360A03191D2ED1
:100C38001E2E242E0130A8002808B607242E242EA4
:100C4800360A0319282E292E2F2E3608031D2D2E7D
:100C58002E2E3F2E2F2E0030A3000030A200003091
:100C6800A1000030A0003608031D3B2E3C2E3F2E6D
:100C7800B4013F2E3F2E361C422E432E452EA2177E
:100C8800492E7F30A8002808A2053636A800280873
:100C9800A300B41F502E512E522EA3170800420154
:100CA80056084001CD00420155084001CC004201E0
:100CB80054084001CB00420153084001CA003D08D6
:100CC800CD003C08CC003B08CB003A08CA004A08D3
:100CD800BE004B08BF004C08C0004D08C1001730CB
:100CE800C136C00CBF0CBE0C890B742EFF303E05FC
:100CF800C20000303F05C3004208813EC800FF30F3
:100D0800433DC9004908803ABE0080303E02031DB9
:100D18008F2E17304802031C922E932E942E412FAB
:100D28004001C91B982E992EF72EFF30BE00FF30C8
:100D3800BF007F30C0000030C100480AA72EC1376D
:100D4800C00CBF0CBE0C890BA32E4108C70040087D
:100D5800C6003F08C5003E08C4004A084405BE0056
:100D68004B084505BF004C084605C0004D0847051F
:100D7800C100410840043F043E04031DC42EC52E93
:100D8800C62E412F4A08BE004B08BF004C08C000C1
:100D98004D08C1001F30C136C00CBF0CBE0C890BFA
:100DA800CF2E410840043F043E040319DC2EDD2EFB
:100DB800E62E4408CA074508CB3D4608CC3D4708FF
:100DC800CD3DE62E4409BE004509BF004609C000D6
:100DD8004709C1003E08CA053F08CB054008CC05B5
:100DE8004108CD05382F4A08BE004B08BF004C0803
:100DF800C0004D08C1001F30C136C00CBF0CBE0C6E
:100E0800890B002F410840043F043E04031D0D2FA9
:100E18000E2F172F0030CD000030CC000030CB0053
:100E28000030CA00382F4A08BE004B08BF004C08E3
:100E3800C0004D08C1000130BE35BF0DC00DC10D49
:100E4800890B202F410840043F043E0403192D2F2D
:100E58002E2F382FBF30CD008030CC000030CB0093
:100E68000030CA00382F382F4D08BD004C08BC0090
:100E78004B08BB004A08BA00412F08000030400167
:100E88004305CB0000304405CC0080304505CD003B
:100E98007F304605CE004E084D044C044B04031D1C
:100EA800562F572F5F2F0030C6000030C500003086
:100EB800C4000030C30000304705CB0000304805AF
:100EC800CC0080304905CD007F304A05CE004E0861
:100ED8004D044C044B04031D722F732F7C2F0030DC
:100EE800CA000030C9000030C8000030C7007C2F9D
:100EF800C61F7F2F802FA82F0030CB000030CC00DA
:100F08000030CD008030CE004309CF004409D00026
:100F18004509D1004609D200CF0A0319D00A03199E
:100F2800D10A0319D20A4F08CB075008CC3D510803
:100F3800CD3D5208CE3D4E08C6004D08C5004C08B0
:100F4800C4004B08C300A82FCA1FAB2FAC2FD42F47
:100F58000030CB000030CC000030CD008030CE0017
:100F68004709CF004809D0004909D1004A09D200F1
:100F7800CF0A0319D00A0319D10A0319D20A4F0854
:100F8800CB075008CC3D5108CD3D5208CE3D4E0808
:100F9800CA004D08C9004C08C8004B08C700D42F28
:100FA8008030C6068030CA064A084602031DE62F6E
:100FB80049084502031DE62F48084402031DE62F91
:100FC800470843020318E92FEA2FEC2F0310EF2FED
:100FD8000314EF2FEF2F08004001230822042104F7
:100FE80020040319F82FF92FFC2F8030A306FC2FBB
:060FF800FD2F08000800B7
:101002004001A600A301A30A26089B3108238831C8
:101012009B317523883108004101BA00BB01BC0134
:10102200400156084101D000400155084101CF005E
:10103200400154084101CE00400153084101CD0056
:1010420050084001C60041014F084001C50041015E
:101052004E084001C40041014D084001C300003068
:10106200CA000030C9000030C8000030C700873114
:101072004227883103183E283F2867280130410162
:10108200BB000030BC0050084001A30041014F08E2
:101092004001A20041014E084001A10041014D085A
:1010A2004001A0008731F027883140012308410127
:1010B200D000400122084101CF0040012108410136
:1010C200CE00400120084101CD0067284101D30133
:1010D200D4016B08C1006A08C0003B083C04031D30
:1010E2007328742879286E1D772878289F287928F4
:1010F2003B083C04031D7E287F2884282B30A40053
:101102000030A50089282D30A4000030A5008928D0
:1011120024084001D80041015308203E86000230D5
:10112200870040015808810001304101D307003097
:10113200D43DFF30C007FF30C13D9F285008400119
:10114200A30041014F084001A20041014E084001A5
:10115200A10041014D084001A0009031A720883133
:10116200400120032104031DB728B8282429570869
:10117200BF3ED800FF3003180030D90000305902BA
:101182001A3003195802031CC728C9280130CA287B
:101192000030DA00DB015A084101A60040015B0879
:1011A2004101A700E82840015708D800D901580892
:1011B200A0005908A1009B313A238831400121083F
:1011C2004101A700400120084101A600E8282608A5
:1011D20027040319ED28EE28FA2815304001A00053
:1011E200A030A10041015308203E9B31DF2388310A
:1011F20006291D304001A000A030A1004101530882
:10120200203E9B31DF2388310629FD304101C00792
:10121200FF30C13D20304001D8005808B0004101E4
:1012220041084001B200410140084001B1004101C2
:101232003A089E317F26883140013108D4003008B7
:10124200D300FF2FFF2F410150084001A3004101AD
:101252004F084001A20041014E084001A100410196
:101262004D084001A0009031A7208831400120089C
:101272002104031D3D293E29AA295708BF3ED80053
:10128200FF3003180030D900003059021A30031918
:101292005802031C4D294F29013050290030DA0031
:1012A200DB015A084101A80040015B084101A90085
:1012B2006E2940015708D800D9015808A0005908E2
:1012C200A1009B313A238831400121084101A90044
:1012D200400120084101A8006E29280829040319A9
:1012E20073297429802919304001A000A030A1007F
:1012F20041015308203E9B31DF2388318C29213064
:101302004001A000A030A10041015308203E9B31C2
:10131200DF2388318C29FD304101C007FF30C13DF8
:1013220020304001D8005808B00041014108400176
:10133200B200410140084001B10041013A089E312A
:101342007F26883140013108D4003008D300FF2FB6
:10135200FF2F3F304101D8008030D7000030D60047
:101362000030D500D101D20150084001A300410153
:101372004F084001A20041014E084001A100410175
:101382004D084001A0000030A7000030A600003048
:10139200A5000030A4009E312E2688310318D229E0
:1013A200D3299D2A062A062A41304001AC0020306A
:1013B200AB000030AA000030A900410158084001EA
:1013C200B000410157084001AF00410156084001F9
:1013D200AE00410155084001AD0095319525883197
:1013E20040012C084101D80040012B084101D700DF
:1013F20040012A084101D600400129084101D500D7
:101402000130D1070030D23D062A41015008400187
:10141200C60041014F084001C50041014E0840018C
:10142200C40041014D084001C3004130AC002030EE
:10143200AB000030AA000030A90041015808400169
:10144200B000410157084001AF0041015608400178
:10145200AE00410155084001AD0095319525883116
:1014620040012C08CA002B08C9002A08C800290814
:10147200C7008731422788310318402A412AD529DB
:10148200742A742A41304001A3002030A2000030A7
:10149200A1000030A000410158084001A70041010D
:1014A20057084001A600410156084001A50041012C
:1014B20055084001A4009331B62388314001230826
:1014C2004101D800400122084101D7004001210812
:1014D2004101D600400120084101D500FF30D1076B
:1014E200FF30D23D742A410150084001C60041013B
:1014F2004F084001C50041014E084001C4004101AE
:101502004D084001C300410158084001CA00410191
:1015120057084001C900410156084001C800410175
:1015220055084001C700873142278831031C9A2A97
:101532009B2A432A9D2A9D2A40015708D800D90197
:101542005808A6005908A7009C31B52488314001EB
:101552002608DA005A084101C20042084001D800B8
:1015620058084101BF0067304206031DB92ABA2A52
:10157200E02A6C086D04031DBF2AC02AC42A013068
:10158200EC000030ED006D08803A4001D800803058
:101592005802031DCF2A013041016C020318D22ADE
:1015A200D32AD92A06304101BD000030BE00EF2AFD
:1015B20041016D08BE006C08BD00EF2AEF2AED1B49
:1015C200E32AE42AE92A6D08BE006C08BD00EF2A6E
:1015D2000630BD000030BE00EF2AEF2A6730420617
:1015E200031DF42AF52A2E2B5208803A4001D80016
:1015F2007F305802031D002BFC3041015102031CB5
:10160200032B042B272B41013D08FF3E4001D8004C
:10161200FF3041013E3D4001D9005908803ADA00CD
:1016220041015208803A40015A02031D1C2B41011C
:10163200510840015802031C1F2B202B272B663018
:101642004001D80058084101BF002E2B65304001EF
:10165200D80058084101BF002E2B3E08B5003D08B6
:10166200B40067304206031D372B382B432B6630FC
:101672003F06031D3D2B3E2B482BD21F412B422BF5
:10168200482B432B0130B4070030B53D482B663060
:101692003F06031D4D2B4E2B692BD21F512B522B74
:1016A2005D2B3F30D8008030D7000030D6000030AC
:1016B200D500D101D2015D2B673042060319622B9E
:1016C200632B692B5108B4075208B53D692B692B6E
:1016D200CB01CC015008C6004F08C5004E08C4001B
:1016E2004D08C3005808A3005708A2005608A100DD
:1016F2005508A000542C410158084001A3004101A3
:1017020057084001A200410156084001A1004101D1
:1017120055084001A000410146084001A7004101CF
:1017220045084001A600410144084001A5004101CD
:1017320043084001A4009331B623883140012308B5
:10174200BD002208BC002108BB002008BA00863177
:101752005326883140013D084101CA0040013C083E
:101762004101C90040013B084101C80040013A085B
:101772004101C7004A084001A30041014908400154
:10178200A200410148084001A1004101470840016F
:10179200A00092313A228831400121084101B9006A
:1017A200400120084101B8004A084001B00041014F
:1017B20049084001AF00410148084001AE00410123
:1017C20047084001AD00410158084001AC00410109
:1017D20057084001AB00410156084001AA004101EF
:1017E20055084001A90095319525883140012C0802
:1017F200C6002B08C5002A08C4002908C3004101FD
:1018020046084001CA00410145084001C9004101A2
:1018120044084001C800410143084001C7009B3110
:1018220054238831400146084101C6004001450861
:101832004101C500400144084101C4004001430880
:101842004101C30041304001A3002030A20000301A
:10185200A1000030A000410158084001A700410149
:1018620057084001A600410156084001A500410168
:1018720055084001A4009331B62388314001230862
:101882004101D800400122084101D700400121084E
:101892004101D600400120084101D5000130CB07AB
:1018A2000030CC3D542C4C08803A4001D800410114
:1018B2003508803A40015802031D622C4101340868
:1018C2004B02031C652C662C7C2B672C403040019C
:1018D200AC00A030AB000030AA000030A9004101EA
:1018E20058084001B000410157084001AF004101D2
:1018F20056084001AE00410155084001AD00953146
:101902009525883140012C084101CA0040012B086D
:101912004101C90040012A084101C80040012908CB
:101922004101C70046084001C60041014508400187
:10193200C500410144084001C4004101430840017F
:10194200C30041014A084001CA004101490840015F
:10195200C900410148084001C8004101470840014F
:10196200C7008731422788310318B82CB92CC32C01
:1019720000304101CA000030C9000030C800003008
:10198200C700F92C410146084001A3004101450866
:101992004001A200410144084001A1004101430865
:1019A2004001A00041014A084001A7004101490845
:1019B2004001A600410148084001A5004101470835
:1019C2004001A4009E312E268831031CE92CEA2C0A
:1019D200F92C41013818EE2CEF2CF92C0030CA00FA
:1019E2000030C9000030C8000030C700F92CF92CC3
:1019F20041014A084001A300410149084001A200F7
:101A0200410148084001A100410147084001A000EE
:101A1200410150084001A70041014F084001A600C2
:101A220041014E084001A50041014D084001A400BA
:101A32008331E1238831400123084101C60040017E
:101A420022084101C500400121084101C4004001B2
:101A520020084101C3002308D8002208D70021082A
:101A6200D6002008D50065303F060319392D3A2DDE
:101A72003F2D5208B7005108B600412DB601B701FB
:101A8200B201B301B001B101CB01CC019A2E4101E7
:101A920058084001A300410157084001A20041013A
:101AA20056084001A100410155084001A000410132
:101AB20046084001A700410145084001A600410136
:101AC20044084001A500410143084001A4009331AC
:101AD200B623883140012308BD002208BC0021083A
:101AE200BB002008BA0086315326883140013D08E8
:101AF2004101CA0040013C084101C90040013B08C4
:101B02004101C80040013A084101C7004A084001AA
:101B1200A300410149084001A200410148084001D7
:101B2200A100410147084001A00092313A228831C8
:101B3200400121084101B900400120084101B800DB
:101B42006E1AA42DA52DBA2D38083904031DAA2D0D
:101B5200AB2DBA2D67304206031DB02DB12DBA2D23
:101B6200B71FB42DB52DBA2D0130B0070030B13DED
:101B7200172E32083304031DBF2DC02DF92DB71FB8
:101B8200C32DC42DF92D2E304001D8004101530838
:101B9200203E860002308700400158088100013053
:101BA2004101D3070030D43DFF30C007FF30C13DB3
:101BB2000130B2000030B300F92DF92D3030400170
:101BC200D80041015308203E8600023087004001C0
:101BD2005808810001304101D3070030D43DFF3065
:101BE200C007FF30C13DFF30B007FF30B13DF92DD6
:101BF20030083104031DFE2DFF2DDF2D002E380885
:101C0200303E4001D80041015308203E8600023098
:101C1200870040015808810001304101D30700309C
:101C2200D43DFF30C007FF30C13D172E4A084001A6
:101C3200B000410149084001AF004101480840019C
:101C4200AE00410147084001AD0041015808400182
:101C5200AC00410157084001AB0041015608400168
:101C6200AA00410155084001A90095319525883106
:101C720040012C08C6002B08C5002A08C400290808
:101C8200C300410146084001CA0041014508400124
:101C9200C900410144084001C80041014308400114
:101CA200C7009B3154238831400146084101C600D8
:101CB200400145084101C500400144084101C400FA
:101CC200400143084101C30041304001A3002030DC
:101CD200A2000030A1000030A000410158084001DC
:101CE200A700410157084001A600410156084001E2
:101CF200A500410155084001A4009331B623883163
:101D0200400123084101D800400122084101D700C7
:101D1200400121084101D600400120084101D500BF
:101D2200FF30B607FF30B73D0130CB070030CC3D66
:101D32009A2E4C08803A4001D80041013508803A79
:101D420040015802031DA82E410134084B0203181A
:101D5200AB2EAC2EBE2E41015408803A4001D80071
:101D620080305802031DB82E4B3041015302031C30
:101D7200BB2EBC2E482DBE2EBE2E4101320833048E
:101D8200031DC42EC52EDB2E6E1EC82EC92EDB2EC1
:101D92002E304001D80041015308203E8600023017
:101DA200870040015808810001304101D30700300B
:101DB200D43DDB2E5308203E86000230870081018D
:101DC20065303F06031DE62EE72EE72F4F30CB008E
:101DD2000030CC004B08203E860002308700810193
:101DE200BB01BC01D21FF62EF72E012F0130BB0022
:101DF2000030BC00D109D209D10A0319D20A012F3D
:101E02000230BD000030BE00482FFF304101CB0739
:101E1200FF30CC3D0A304001A0000030A10041015A
:101E220052084001A300410151084001A2009E3125
:101E3200DC26883140012008303ED80041014B08A1
:101E4200203E8600023087004001580881000A3097
:101E5200A0000030A100410152084001A30041014D
:101E620051084001A20090313D20883140012108F3
:101E72004101D200400120084101D100FF30BD07DD
:101E8200FF30BE3DFF30C007FF30C13D482F510833
:101E92005204031D4D2F4E2F062F3E08803A40015B
:101EA200D80080305802031D592F013041013D02F4
:101EB20003185C2F5D2F062F5E2FFF304101CB07E9
:101EC200FF30CC3D3B083C04031D682F692F6E2F69
:101ED2002B30AA000030AB00732F2D30AA00003047
:101EE200AB00732F2A084001D80041014B08203E65
:101EF200860002308700400158088100FF3041010E
:101F0200C007FF30C13DFF30CB07FF30CC3D400161
:101F12005708BF3ED800FF3003180030D900003008
:101F220059021A3003195802031C982F9A2F0130B4
:101F32009B2F0030DA00DB015A084101AE0040015C
:101F42005B084101AF00B92F40015708D800D90101
:101F52005808A0005908A1009B313A23883140015A
:101F620021084101AF00400120084101AE00B92F14
:101F72002E082F04031DBE2FBF2FC42F6530AC00C7
:101F82000030AD00C92F4530AC000030AD00C92F84
:101F92002C084001D80041014B08203E8600023047
:101FA2008700400158088100FF304101C007FF301F
:101FB200C13D4B08203E4001A0000230A10041017A
:101FC2005308203E9B31DF238831E72F2030400128
:101FD200D8005808B000410141084001B200410157
:101FE20040084001B10041013A089E317F26883104
:101FF20040013108D4003008D300FF2F080002301E
:102002009A31FD22903108004001AE0042015F0882
:102012004001AD0042015E084001AC0042015D0892
:102022004001AB0042015C084001AA0027082A3E99
:102032008600870101082E0780389A31FD229031EF
:1020420031284001280886000130870001088831C4
:102052000120903101304001A9002908A807312848
:10206200400128088600013087000108031D3A2834
:102072003B2822283C2808004001A601A11F422833
:1020820043284B28A009A109A00A0319A10AA60105
:10209200A60A4B28A31F4E284F285928A209A30994
:1020A200A20A0319A30A0130A4002408A60659288B
:1020B200A701A80120082104031960286128962895
:1020C200A501A50A6E280130A035A10D890B65284E
:1020D2000130A4002408A5076E28A11F71287228C8
:1020E2006428742874280130A735A80D890B752837
:1020F20021082302031D7F2820082202031C8228B4
:10210200832889282008A2022108A33B27148928B2
:102112000130A136A00C890B8A280130A502031DCB
:1021220093289428742896289628260803199A2812
:102132009B28A128A709A809A70A0319A80AA12868
:102142002808A1002708A000A628080042015A0872
:102152004001AF00420159084001AE004201580857
:102162004001AD00420157084001AC002308AF0016
:102172002208AE002108AD002008AC002C08A40003
:102182002D08A5002E08A6002F08A7001730A73695
:10219200A60CA50CA40C890BC828FF302405AA00A4
:1021A20000302505AB002A082B04031DD928DA28A4
:1021B200FD282C08A4002D08A5002E08A6002F0833
:1021C200A7000130A435A50DA60DA70D890BE328A4
:1021D2002708260425042404031DF028F128F628E4
:1021E2000230A0000030A10029290330A0000030F5
:1021F200A1002929292929292A0A2B04031D022998
:10220200032924292C08A4002D08A5002E08A600C5
:102212002F08A7000930A435A50DA60DA70D890B1F
:102222000C292708260425042404031919291B292B
:1022320001301C290030A800A9012808A0002908A3
:10224200A100292929290430A0000030A100292950
:1022520008009D319D259131400199169A159131C1
:10226200AF21913190310020913101309A31FD221C
:102272009131C0308B00640042015B03031D42298F
:10228200432993290030A000A030A1000730B43EBA
:10229200860001308700403FA200413FA300423F39
:1022A200A400433FA5000330B43E860001308700FE
:1022B200403FA600413FA700423FA800433FA9007C
:1022C20033309C31812491310C304201A000A03086
:1022D200A1000B30B43E860001308700403FA200CF
:1022E200413FA300423FA400433FA50043309C313D
:1022F200812491314001A7013330ED006D08A8001F
:1023020000309031052091314001A701A70A4330E6
:10231200ED006D08A8000030903105209131420196
:10232200DB01932906304001EE001330ED00AD30A1
:10233200890B9929ED0B9929EE0B992900323F302F
:1023420042019A000000A5294E010F1EA929AA29BF
:10235200A5293C293C293C298031472840011912F2
:102362001911991141304001A700EE30890BB729AC
:10237200A70BB72900004001991019109A121A12DE
:1023820003309D315D25913107304001A7007D303A
:10239200890BC929A70BC92908309D315D259131C7
:1023A20007304001A7007D30890BD529A70BD5291D
:1023B20002309D315D25913107304001A7007D300B
:1023C200890BE129A70BE12902309D315D2591316D
:1023D20007304001A7007D30890BED29A70BED29BD
:1023E20008309D315D25913107304001A7007D30D5
:1023F200890BF929A70BF92908309A31FD2291316D
:1024020007304001A7007D30890B052AA70B052A5A
:1024120001309A31FD22913107304001A7007D3011
:10242200890B112AA70B112A06309A31FD2291310C
:1024320007304001A7007D30890B1D2AA70B1D2AFA
:1024420002309A31FD22913107304001A7007D30E0
:10245200890B292AA70B292A0C309A31FD229131A6
:1024620007304001A7007D30890B352AA70B352A9A
:10247200080040012008A4002108A5002208A600A7
:102482002308A7000310260D270DA8002808AA007C
:102492002A08031D4D2A4E2A582A0030A300003074
:1024A200A2000030A1000030A000CE2ACE2A2008CF
:1024B200A4002108A5002208A6002308A7001F30B7
:1024C200A736A60CA50CA40C890B612A2408A80027
:1024D2002808A900A217FF30A005FF30A105FF3090
:1024E200A2050030A3059630AA02AA1F792A7A2AE9
:1024F2009D2A2A08803A973E0318802A812A8C2A2C
:102502000030A3000030A2000030A1000030A00083
:10251200CE2ACE2A8C2A0130A336A20CA10CA00C02
:10252200890B8D2A0130A4002408AA07031D9A2AC8
:102532009B2A8C2ABE2ABE2A20302A02031CA22AE7
:10254200A32AB72A0030A3000030A2000030A10065
:102552000030A000CE2ACE2AB72A0130A035A10D24
:10256200A20DA30D890BAF2A0130AA022A08031D6E
:10257200BB2ABC2AAE2ABE2ABE2A29080319C22AAD
:10258200C32ACE2AA009A109A209A309A00A0319F4
:10259200A10A0319A20A0319A30A08004001B30100
:1025A200B401AC01AD01DA2A0130A6070030A73D23
:1025B200DA2AB201B20A260884002708850012002E
:1025C200203A0319E52AE62AFC2A2608840027086D
:1025D20085000008F73EA800FF3003180030A9006C
:1025E20000302902053003192802031CF92AFA2AAD
:1025F200FC2AB201FC2A3208A800A9012808AE0070
:102602002908AF00182B2608840027088500000837
:10261200A800A9012808A0002908A1009B31BB231A
:10262200923140012108AF002008AE00182B2E087D
:102632002F04031D1D2B1E2BD52A292B292B0130DC
:10264200AC000030AD000130A6070030A73D652B7D
:1026520026088400270885000008A800A901290887
:10266200003A0319352B652B28082B3A0319242B22
:10267200063A0319202B652B652B260884002708B0
:1026820085000008D03EA800FF3003180030A900E2
:10269200A809A909A80A0319A90A3408A10033083C
:1026A200A0000A30A2000030A3009B31982392318F
:1026B200400128082007B3002908213DB400013059
:1026C200A6070030A73D652B260884002708850051
:1026D2000008D03EA800FF3003180030A9000030E7
:1026E20029020A3003192802031C782B7A2B0130A5
:1026F2007B2B0030AA00AB012A08B0002B08B100E6
:10270200962B26088400270885000008A800A90146
:102712002808A0002908A1009B3120239231400102
:102722002108B1002008B000962B30083104031DA7
:102732009B2B9C2B3E2B9D2B2C082D04031DA22B87
:10274200A32BAF2B3309A8003409A900A80A031947
:10275200A90A2808A6002908A700B52B3408A70053
:102762003308A600B52BB52B080040012708803995
:10277200A8002808B1002735A8002808B800A61F1D
:10278200C32BC42BC62B3814C62B38080319CA2BEB
:10279200CB2BDC2B380A031DCF2BD02BD92B0030AF
:1027A200A7000030A6000030A5000030A400D92BFD
:1027B200A617A701E52B0030A7000030A6000030C5
:1027C200A5000030A400E52B23088039A8002808C2
:1027D200B1062335A8002808B900A21FF12BF22B5D
:1027E200F42B3914F42B39080319F82BF92B0A2C82
:1027F200390A031DFD2BFE2B072C0030A3000030ED
:10280200A2000030A1000030A000072CA217A301F3
:10281200122C0030A3000030A2000030A1000030D2
:10282200A0002308220421042004031D192C1A2CC1
:10283200342C0030A7000030A6000030A500003084
:10284200A4008030A6047F30A7043108A80028081D
:10285200A7042708A3002608A2002508A10024082F
:10286200A000942D942D3808031D382C392C4B2CA4
:102872000030A7000030A6000030A5000030A40000
:102882002708A3002608A2002508A1002408A0000A
:10289200942D942D3908A800A901A809A909A80A0C
:1028A2000319A90A38082807AA0029080318290ABF
:1028B200AB002A087F3EB20000302B3DB300270850
:1028C200B0002608AF002508AE002408AD00003095
:1028D200A7000030A6000030A5000030A4000030A0
:1028E200B7000030B6000030B5000030B400B901C6
:1028F200BC2C390803197E2C7F2C9B2C0130AD3562
:10290200AE0DAF0DB00D890B802C0130A435A50D95
:10291200A60DA70D890B872CB71F902C912C932CF9
:102922002414932C0130B435B50DB60DB70D890BB7
:10293200942C9B2C23083002031DA92C22082F0261
:10294200031DA92C21082E02031DA92C20082D02EB
:10295200031CAC2CAD2CB72C37172008AD02210874
:10296200AE3B2208AF3B2308B03BB72C0130A80096
:102972002808B907BC2C1A303902031CC12CC22CFE
:102982007A2CC32C30082F042E042D040319CA2CD0
:10299200CB2CE72C3414E72CE72C0130A435A50D01
:1029A200A60DA70D890BCF2CB71FD82CD92CDB2C49
:1029B2002414DB2C0130B435B50DB60DB70D890BDF
:1029C200DC2CFF30B207FF30B33DE72CA61FEA2C08
:1029D200EB2CCE2CEC2CB901B71FF02CF12C112DC5
:1029E200FF303405A800FF303505A900FF30360559
:1029F200AA007F303705AB002B082A0429042804DB
:102A02000319042D052D082DB901B90A112D241C15
:102A12000B2D0C2D112DB901B90A112D112D112DCE
:102A220039080319152D162D402D0130A407003049
:102A3200A53D0030A63D0030A73D271C212D222DAB
:102A4200402D2408A8002508A9002608AA00270866
:102A5200AB000130AC00AB37AA0CA90CA80CAC0B34
:102A62002C2D2B08A7002A08A6002908A500280853
:102A7200A4000130B2070030B33D402D402D330891
:102A8200803AA80080302802031D492DFF3032020F
:102A9200031C4C2D4D2D5A2DFF304001B200003049
:102AA200B3000030A7000030A6000030A5000030BF
:102AB200A40040013308803AA80080302802031D98
:102AC200642D013032020318672D682D742D4001E8
:102AD200B201B3010030A7000030A6000030A5000B
:102AE2000030A400B10140013208A8002808B80053
:102AF200381C7C2D7D2D7F2DA617832D7F30A800BD
:102B02002808A6053836A8002808A7003108A8001A
:102B12002808A7042708A3002608A2002508A10068
:102B22002408A000942D080040012C088039B1002F
:102B32003108B6002C35B1003108BC00AB1FA22D04
:102B4200A32DA52D3C14A52D3C080319A92DAA2DB2
:102B5200BA2D3C0A031DAE2DAF2DB82D0030AC00AE
:102B62000030AB000030AA000030A900B82DAB172E
:102B7200C32D0030AC000030AB000030AA000030A2
:102B8200A900C32D30088039B1003108B6063035AE
:102B9200B1003108BB00AF1FCF2DD02DD22D3B1479
:102BA200D22D3B080319D62DD72DE72D3B0A031D45
:102BB200DB2DDC2DE52D0030B0000030AF00003001
:102BC200AE000030AD00E52DAF17F02D0030B000A3
:102BD2000030AF000030AE000030AD00F02D3B08F9
:102BE2000319F42DF52DFB2D3C08031DF92DFA2DAB
:102BF200052EFB2D0030AC000030AB000030AA00E7
:102C02000030A900FF2FFF2F2908B1003108A000D2
:102C12002F089C310424953140012108C20020086C
:102C2200C1004108B100B201B301B4013408BA00D5
:102C32003308B9003208B8003108B7004208B100C1
:102C4200B201B301B4013408C0003308BF00320836
:102C5200BE003108BD002A08B1003108A0002E08CC
:102C62009C310424953140012108C2002008C10092
:102C72004108B100B201B301B4013108B70732080B
:102C8200B83D3308B93D3408BA3D4208B100B2013B
:102C9200B301B4013108BD073208BE3D3308BF3D60
:102CA2003408C03D2B08B1003108A0002D089C312A
:102CB2000424953140012108C2002008C1004108C6
:102CC200B100B201B301B4013108B7073208B83D0F
:102CD2003308B93D3408BA3D4208B100B201B3012C
:102CE200B4013108BD073208BE3D3308BF3D340888
:102CF200C03D0830B735B80DB90DBA0D890B7B2E22
:102D02002A08B1003108A0002D089C310424953115
:102D120040012108C2002008C1004108B70742084B
:102D2200B83D0030B93DBA3D2908B1003108A000D4
:102D32002E089C310424953140012108C20020084C
:102D4200C1004108B7074208B83D0030B93DBA3D5D
:102D52000830B735B80DB90DBA0D890BAA2E29085E
:102D6200B1003108A0002D089C31042495314001A6
:102D72002108C2002008C1004108B7074208B83D37
:102D82000030B93DBA3D2A08B1003108A0002F0831
:102D92009C310424953140012108C2002008C10061
:102DA2004108BD074208BE3D0030BF3DC03D2B0873
:102DB200B1003108A0002E089C3104249531400155
:102DC2002108C2002008C1004108BD074208BE3DDB
:102DD2000030BF3DC03D2B08B1003108A0002F08D4
:102DE2009C310424953140012108C2002008C10011
:102DF2004108B1004208B200B301B4010830B13554
:102E0200B20DB30DB40D890B002F3108BD07320886
:102E1200BE3D3308BF3D3408C03D3708B100380815
:102E2200B2003908B3003A08B4001830B436B30C13
:102E3200B20CB10C890B172F3108BD073208BE3D09
:102E42003308BF3D3408C03D0830B735B80DB90D61
:102E5200BA0D890B262F3C083B07B100B201B20D17
:102E62003108823EC100FF30323DC200512F013095
:102E7200BD35BE0DBF0DC00D890B392FBA1F422FB4
:102E8200432F452F3D14452F0130B735B80DB90DED
:102E9200BA0D890B462FFF30C107FF30C23D512FBB
:102EA200BF1F542F552F382F562FBB01BA1F5A2F31
:102EB2005B2F7B2FFF303705B100FF303805B200A2
:102EC200FF303905B3007F303A05B40034083304CB
:102ED2003204310403196E2F6F2F722FBB01BB0A0C
:102EE2007B2F3D1C752F762F7B2FBB01BB0A7B2FBF
:102EF2007B2F7B2F3B0803197F2F802FAA2F0130B6
:102F0200BD070030BE3D0030BF3D0030C03D401C1B
:102F12008B2F8C2FAA2F3D08B1003E08B2003F082C
:102F2200B3004008B4000130B500B437B30CB20CA2
:102F3200B10CB50B962F3408C0003308BF0032081D
:102F4200BE003108BD000130C1070030C23DAA2FCA
:102F5200AA2F4208803AB10080303102031DB32FFC
:102F6200FF304102031CB62FB72FC12F7F30400123
:102F7200C0008030BF000030BE000030BD00F22F24
:102F820040014208803AB10080303102031DCB2F4C
:102F9200013041020318CE2FCF2FDA2F003040012B
:102FA200C0000030BF000030BE000030BD00B601DE
:102FB200F22F40014108B1003108BC00FF30BD05CD
:102FC200FF30BE057F30BF050030C0053C1CEA2F34
:102FD200EB2FED2FBF17ED2F3C36B1003108C000AB
:102FE200F22F3608B1003108C0044008AC003F0897
:0E2FF200AB003E08AA003D08A900FF2F080012
:1035C000640080010131890BE12A0034FE00120001
:1035D0001E00FE0BE72A0034003440341434543407
:1035E0000034403414345434400119151030890B20
:1035F000F72A00324001191108004001A600A3017A
:1036000026089B3108239A319B3175239A31080093
:103610004001A500230C031C191203181916991157
:103620002508A4000430A436890B132B24089D31EF
:103630005D259B31400125089D315D259B310800AA
:1036400040012008D03EA200FF30213DA300003001
:1036500023020A3003192202031C2F2B312B0130C5
:10366000322B0030A400A5012408A0002508A100E9
:10367000392B080040012008BF3EA200FF30213D49
:10368000A300003023021A3003192202031C492B25
:103690004B2B01304C2B0030A400A5012408A000C6
:1036A0002508A100532B080080304001C6064A08B7
:1036B000A3004908A2004808A1004708A000460846
:1036C000A7004508A6004408A5004308A4008331CC
:1036D000E1239B3140012308C6002208C5002108D0
:1036E000C4002008C300742B08004001A001A00AF8
:1036F00014161912991519110330890B7D2B00002E
:10370000400119150330890B832B00000030400164
:103710000E1A0130A00019119A31F4229B31400198
:103720002008031D942B952B7B2B14129911080054
:103730004001A401A5019C2B201C9F2BA02BA42B96
:103740002208A4072308A53D0130A235A30D890B4B
:10375000A52B0130A136A00C890BAA2B200821042F
:10376000031DB32BB42B9C2BB52B2508A1002408DB
:10377000A000BA2B08004001A401A40A20302006B2
:1037800021040319C42BC52BD62B2008F73EA20019
:10379000FF30213DA300003023020530031922022F
:1037A000031CD32BD42BD62BA401D62B2408A20088
:1037B000A3012208A0002308A100DE2B080040017D
:1037C000A7002108A5002008A4002708A2002208BD
:1037D000A600EB2BEB2B2608860002308700A60AFA
:1037E0002508A3002408A200A40A0319A50A220898
:1037F0008400230885000008C03F8908031D012CB0
:10380000022CEB2B032C08004001A800A401A50109
:103810002008A200A3012208A6002308A700102C5C
:10382000281C132C142C182C2608A4072708A53DA7
:103830000130A635A70D890B192C0310A80C2808F8
:10384000031D232C242C102C252C2508A100240832
:10385000A0002A2C08004001AF00AD01AE01442CAD
:103860002C08A900AA012908A0002A08A1002808FC
:10387000AB002B08A2009F313A279C310130400158
:10388000AD070030AE3D442C2D082F07A9002908B4
:103890008600023087000108AA002A08AC002C0824
:1038A000031D532C542C302C552C08004001A7002C
:1038B0002708A2002208A600622C0130A2002208DC
:1038C000A707622C27088600023087000108031D25
:1038D0006A2C6B2C5D2C6C2C2608A2000230A300F5
:1038E000A209A309A20A0319A30A2708A400023007
:1038F000A50022082407A0002308253DA100802C54
:1039000008004201AC0022304001EC006C0842018A
:10391000AD002C084001EC006C084201AE00AF0184
:10392000B001B101B20121084001E50042012008C7
:103930004001E4002D30EC006C08E6002E309C3194
:10394000EA249C31400165084201AB004001640853
:103950004201AA002F082C074001EC006C088600E9
:10396000013087008101B42C080040012608BF3EC9
:10397000A800FF30273DA900003029021A300319A2
:103980002802031CC42CC62C0130C72C0030AA000E
:10399000AB012A08AC002B08AD00DB2C2708A100E6
:1039A0002608A0009B313A239C3140012108AD003C
:1039B0002008AC00DB2C2C082D040319E02CE12C92
:1039C000E92C20302604A60000302704A700E92CAB
:1039D000E92C08004001E9006508EB006408EA00F2
:1039E0004101E801E9010A2D6A304001E70067085A
:1039F000DC006608E8006808DD00690880317F2087
:103A00009C3140015C084101E80740015D0841012B
:103A1000E93D0A2D40016A0884006B088500120008
:103A2000031D132D142DF42C152D4101690840019F
:103A3000E500410168084001E4001E2D0800F40083
:103A40007408F3007308F5003D2D0130F1020030D9
:103A5000F23B7508860001308700F50A7008840083
:103A600001308500F00A0008C03F8908031D392D88
:103A70003A2D3D2D4F2D4F2D3D2D71087204031D04
:103A8000422D432D252D4F2D4F2D750886000130D9
:103A9000870081010130F3007308F5074F2D0130D5
:103AA000F1020030F23B710A031D5A2D720A031D08
:103AB0005A2D5B2D452D5C2D08004001A2002208E7
:103AC0000139A000A00D19082006FD392006990033
:103AD0002208A0000130A036890B6B2D0130200593
:103AE000A10019082106FE39210699002208A0002C
:103AF0000230A036890B792D20080139A100A10ED2
:103B0000A10D1A082106DF3921069A002208A0001B
:103B10000330A036890B892D20080139A100A10EA0
:103B20001A082106EF3921069A001030890B962DCC
:103B300000329A31F4229D31080002305101930085
:103B400060308D00A32D0F1EA62DA72DA32DA82D0F
:103B50000F307E01A6002030B800C3010330CE0034
:103B6000F03040019200930187309400E030410131
:103B70009E0080304B019E0047309F00B2309C0079
:103B8000333044018E0001309100CF308D002B3056
:103B90008C0030304E0196002030990001309A00A0
:103BA000B0307E01BD00B030BE000430D40008301B
:103BB00042019F0019309B0090309D0020309E00F4
:103BC000080042019D1CE52DE62DED2D1D121D1650
:103BD0000130F6007608F907ED2D1D1DF02DF12DB1
:103BE000F82D9D139D170130F6007608FA07F82D81
:103BF0000F3078020318FD2DFE2D152E1908F60042
:103C00007808A03E86000130870076088100780899
:103C1000A03E8600013087000108F6007608F7060E
:103C20000130F6007608F8072D2E19087706031DD7
:103C30001A2E1B2E2A2EDB01DB0AA030F600760896
:103C4000F0000F30F1000030F200B4309D311F253C
:103C50009D312A2EF701F8012D2E08000030400179
:103C60002005A80000302105A90080302205AA0007
:103C70007F302305AB002B082A0429042804031DE8
:103C8000422E432E4B2E0030A3000030A200003005
:103C9000A1000030A00000302405A8000030250558
:103CA000A90080302605AA007F302705AB002B082D
:103CB0002A0429042804031D5E2E5F2E672E00307F
:103CC000A7000030A6000030A5000030A40027089F
:103CD0002306031D752E26082206031D752E2508B2
:103CE0002106031D752E240820060319782E792E2F
:103CF0007B2E03107E2E03147E2E7E2E08004001A4
:103D0000B80041016E1C852E862E902E4001380889
:103D1000B3003308A80030089C312B249E31902E2C
:103D20004001B21B942E952E9A2E3208B70031080E
:103D3000B6009C2EB601B701B401B501B12E2030FA
:103D40004001A0000030A1003808B3003308A200F1
:103D50009F313A279E3101304001B4070030B53D14
:103D6000B12E3508803AB3003708803A3302031D7C
:103D7000BB2E36083402031CBE2EBF2E9F2E4101DF
:103D80006E18C32EC42ECE2E40013808B30033085F
:103D9000A80030089C312B249E31CE2E40013008E3
:103DA0009C3156249E31400136082007B000370868
:103DB000213DB100DB2E08004001A601A31FE12E2A
:103DC000E22EEA2EA209A309A20A0319A30AA60158
:103DD000A60AEA2EA11FED2EEE2EF42EA009A109AF
:103DE000A00A0319A10AF42E200821040319F92EB0
:103DF000FA2E292FA501A50A072F0130A035A10D04
:103E0000890BFE2E0130A4002408A507072FA11F4F
:103E10000A2F0B2FFD2E0D2F0D2F21082302031D1E
:103E2000132F20082202031C162F172F1C2F2008E7
:103E3000A2022108A33B1C2F0130A136A00C890B44
:103E40001D2F0130A502031D262F272F0D2F292FEF
:103E5000292F260803192D2F2E2F342FA209A3094D
:103E6000A20A0319A30A342F2308A1002208A000E4
:103E7000392F08004001220803193F2F402F462FF9
:103E80002208031D442F452F4B2F462F2008873132
:103E9000FE279F31972F40012208033E8600013004
:103EA0008700160001040319562F572F772F220879
:103EB000033E860001308700403FA300413FA4003D
:103EC000220A860001308700403FA500413FA6003E
:103ED0002608803AA7002408803A2702031D722F83
:103EE000230825020318752F762F972F772F40016F
:103EF0002008A3002208860001308700220A8400DF
:103F00000130850000080107A40024088600013064
:103F1000870023088100220A8600013087000130D3
:103F2000810741310318810A972F972F972F080097
:103F30004001A6002608A4002408A9002108A80022
:103F40002008A7000130A2020030A33B220A031D73
:103F5000AD2F230A031DAD2FAE2FC02FA001A1014D
:103F6000FF2FFF2FC02F0130A4002408A907013024
:103F7000A7070030A83D0130A2020030A33BC02FAC
:103F800029088600870101080319C72FC82FE82FC9
:103F9000270884002808850012000319D02FD12F8C
:103FA000E82F220823040319D62FD72FE82F27083C
:103FB0008400280885000008A400290886008701DD
:103FC000010824060319E52FE62FB32FE82FE82F69
:103FD00027088400280885000008A400A501A4097A
:103FE000A509A40A0319A50A290886008701010862
:103FF0002407A00025080318250AA100FF2F0800A8
:10400000253436342E34323466347C342534363418
:104010002E34323466340034443450343A34253447
:1040200036342E3432346634003449344E34463417
:1040300000344E3441344E34003469346E346634C6
:1040400000346E3461346E3400346C3466340034C1
:020000040001F9
:0A000E00EF3FFE3F9F3FFF3FFF3F23
:00000001FF
