:020000040000FA
:0400000080314628DD
:100008007E1480314E01961E0A280B2822288C1E49
:100018000E280F28222863304B019C004E018C12B9
:1000280003104001181C031403181B281E28400144
:10003800181420284001181000004428161E2528EE
:1000480026282C280C1E29282A282C28442844280D
:100058000B1F2F28302844281A1C332834283A2804
:10006800101C372838283A2844284428991E3D2847
:100078003E2844280F084428442844284428442873
:100088007E100900803148280830840082308500BD
:1000980020308600003087000830823110228031FD
:1000A8007E1040018131A5294001191219119911B9
:1000B8000230F8000430F700BA30890B6128F70BDA
:1000C8006128F80B612800324001991019109A1222
:1000D8001A1203308031E62080311A30F700F830E8
:1000E800890B7428F70B7428003208308031E62019
:1000F80080311A30F700F830890B8028F70B8028F8
:10010800003202308031E62080311A30F700F830B2
:10011800890B8C28F70B8C28003202308031E620BE
:1001280080311A30F700F830890B9828F70B982897
:10013800003208308031E62080311A30F700F8307C
:10014800890BA428F70BA428003208308131F52147
:1001580080311A30F700F830890BB028F70BB02837
:10016800003201308131F52180311A30F700F83042
:10017800890BBC28F70BBC28003206308131F521E9
:1001880080311A30F700F830890BC828F70BC828D7
:10019800003202308131F52180311A30F700F83011
:1001A800890BD428F70BD42800320C308131F52183
:1001B80080311A30F700F830890BE028F70BE02877
:1001C80000320800F20072080139F000F00D400119
:1001D80019087006FD39700699007208F0000130A0
:1001E800F036890BF42801307005F1001908710602
:1001F800FE39710699007208F0000230F036890B5A
:10020800022970080139F100F10EF10D1A08710682
:10021800DF3971069A007208F0000330F036890B56
:10022800122970080139F100F10E1A087106EF3928
:1002380071069A004230890B1F2900328131FF2153
:100248008031080020307E01B800C3010330CE00A1
:10025800F03040019200930187309400E030410172
:100268009E0080304B019E0048309F009C309C00CF
:10027800333044018E0001309100C3308D0050307E
:100288008C0030304E0196002030990001309A00E1
:10029800B0307E01BD00B030BE000430D40008008C
:1002A8004001AC002308AB002208AA002108A900DD
:1002B8002008A8007708283E8600870101082C0737
:1002C80080388131F52181317629780884007908D0
:1002D800850000088131EA2181310130F8070030BA
:1002E800F93D762978088400790885001200031DF5
:1002F8007E297F29692980290800F001F00A400138
:10030800141619129915400119110D30890B8A29F3
:100318000000400119150D30890B902900000030AC
:1003280040010E1A0130F00019118131FF2181318D
:100338007008031DA029A1298729400114129911C9
:100348000800813126218131400199169A158031A2
:100358005820813182311622813101308131F521D5
:100368008131F701DD30F8008130F900003081314A
:1003780054218131C0308B00C1290000C129C12915
:1003880080314628F500730C4001031C191203182C
:10039800191699117508F4000430F436890BD1291F
:1003A80074088031E620813175088031E62081317A
:1003B8000800483465346C346C346F342034573456
:1003C8006F3472346C34643421340034F600F30131
:1003D800F30A76088131C621813181318121813149
:1003E8000800F600F30176088131C6218131813198
:1003F800812181310800400119154230890B022AF8
:1004080000324001191108000034403414345434C7
:100418000034403414345434FE0012001E00FE0B25
:0E042800112A003402308131F52182310800A2
:020000040001F9
:0A000E009C3FFF3F9F3FEF3FFF3F85
:00000001FF
