:020000040000FA
:0400000080316E28B5
:100008007E1480314E01961A8C1E1C280130F8008F
:1000180078084201EE0704307D06031D1628A83132
:1000280023208031B2304B019C004E018C126C2889
:10003800161A0C1E38287E01BF1F2728A831232036
:1000480080317E01BF133F1E2E28B731B62780317D
:100058007E013F12BF1E3528B731B62780317E0199
:10006800BF124E010C126C280B1F6C281A18101C9A
:10007800652844013508FB003408FA003308F90004
:100088003208F8000130B2070030B33DB43DB53D49
:1000980000307802CA30793B9A307A3B3B307B3B60
:1000A800031C5E280030B5000030B4000030B300F7
:1000B8000030B200CF308D002B308C004E01101074
:1000C8006C28991A8F1E6C28B63197264E018F120C
:1000D8007E1009008031702841018731FA2780316C
:1000E800ED0042018731FB278031EF002430840086
:1000F800B330850064308600023087000030FF008E
:100108000C30B3311823803100308400A0308500D2
:1001180020308600033087000030FF002030B331E4
:10012800182380314A30840027308500A630FE002D
:100138000030FF00B3310C238031FC01FD01410187
:10014800EB01EC015C308400013085001330FE00C7
:100158000030FF00B3310C238031E03084000130DF
:1001680085001030FE000030FF00B3310C238031D1
:1001780020308400023085002730FE000030FF0068
:10018800B3310C238031A030840002308500383030
:10019800FE000030FF00B3310C237E104001AC316B
:1001A800402C4101E9013C304001C400D030C3007B
:1001B8001330C200A930C10041016908AD00AE0189
:1001C8002D084001AD0041012E084001AE001F304E
:1001D800AF000030B000B331712380318930410164
:1001E800AF002730B00040012D0841012F078600DD
:1001F80040012E084101303D8700403F4001C500C5
:10020800413FC600423FC700433FC80085316125D2
:100218008031400144084101D400400143084101B4
:10022800D300400142084101D20040014108410188
:10023800D10040304001C4004830C300F530C2004E
:10024800C330C100410154084001C80041015308AE
:100258004001C700410152084001C6004101510850
:100268004001C500853161258031400144084101C4
:10027800E000400143084101DF004001420841011C
:10028800DE00400141084101DD0040304001DE0050
:100298008030DD000030DC000030DB004101540814
:1002A8004001C400410153084001C3004101520804
:1002B8004001C200410151084001C10041016008EC
:1002C8004001C80041015F084001C70041015E08C4
:1002D8004001C60041015D084001C5008531612526
:1002E800803140014408E2004308E1004208E00090
:1002F8004108DF009E312826803140015E08410117
:10030800DC0040015D084101DB0040015C0841015F
:10031800DA0040015B084101D9004A3086002730E5
:1003280087005D31403F4001DB00413FDC00423F38
:10033800DD00433FDE004A30860027308700483121
:10034800403FDF00413FE000423FE100433FE20021
:1003580092313222803140015E084101BC004001E7
:100368005D084101BB0040015C084101BA00400141
:100378005B084101B90043304001DE008830DD00F0
:100388009330DC003330DB0041013C084001E200DF
:1003980041013B084001E10041013A084001E00009
:1003A800410139084001DF00923132228031400199
:1003B8005E084101E40040015D084101E30040019D
:1003C8005C084101E20040015B084101E100433063
:1003D8004001DE008830DD009330DC003330DB0084
:1003E8006B30860027308700403FDF00413FE00048
:1003F800423FE100433FE200923132228031400126
:100408005E084101E80040015D084101E700400144
:100418005C084101E60040015B084101E50068080D
:100428004001C400410167084001C300410166085A
:100438004001C200410165084001C100410168084E
:100448004001C800410167084001C7004101660832
:100458004001C600410165084001C500853161259C
:100468008031400144084101E00040014308410156
:10047800DF00400142084101DE004001410841011E
:10048800DD0068084001C400410167084001C3005D
:10049800410166084001C200410165084001C100F0
:1004A800410160084001C80041015F084001C700E0
:1004B80041015E084001C60041015D084001C500D8
:1004C800853161258031400144084101C000400167
:1004D80043084101BF00400142084101BE004001FC
:1004E80041084101BD0064084001C400410163089E
:1004F8004001C300410162084001C2004101610896
:100508004001C100410164084001C800410163087D
:100518004001C700410162084001C600410161086D
:100528004001C50085316125803140014408410101
:10053800C400400143084101C30040014208410191
:10054800C200400141084101C10064084001C400E3
:10055800410163084001C300410162084001C20033
:10056800410161084001C100410144084001C8003F
:10057800410143084001C700410142084001C6004B
:10058800410141084001C5008531612580314001A4
:1005980044084101C800400143084101C700400127
:1005A80042084101C600400141084101C5006808F0
:1005B8004001C400410167084001C30041016608C9
:1005C8004001C200410165084001C10041014008E5
:1005D8004001C80041013F084001C70041013E08F1
:1005E8004001C60041013D084001C5008531612533
:1005F8008031400144084101A30040014308410102
:10060800A200400142084101A10040014108410106
:10061800A00064084001C400410163084001C30010
:10062800410162084001C200410161084001C10066
:10063800410148084001C800410147084001C7007E
:10064800410146084001C600410145084001C50076
:10065800853161258031400144084101A7004001EE
:1006680043084101A600400142084101A50040019C
:1006780041084101A400B431FB2480314101230821
:10068800CC002208CB002108CA002008C90033305A
:100698004001C4006730C3005930C2003230C10085
:1006A80041015C084001C80041015B084001C700E6
:1006B80041015A084001C600410159084001C500DE
:1006C800853161258031400144084101D000400155
:1006D80043084101CF00400142084101CE004001DA
:1006E80041084101CD004C084001C40041014B08BC
:1006F8004001C30041014A084001C20041014908C4
:100708004001C100410150084001C80041014F08A3
:100718004001C70041014E084001C60041014D0893
:100728004001C500853161258031400144084101FF
:10073800D800400143084101D70040014208410167
:10074800D600400141084101D5006908AD00AE015D
:100758002D084001AD0041012E084001AE001F30B8
:10076800AF000030B000B331712380317C304101DB
:10077800AF002730B00040012D0841012F07860047
:1007880040012E084101303D870058084001C4004F
:10079800410157084001C300410156084001C20009
:1007A800410155084001C1006F30840027308500A1
:1007B800003FC500013FC600023FC700033FC80015
:1007C80085316125803140014108C03F4208C13F61
:1007D8004308C23F4408C33F3E30C4002330C3002F
:1007E8005730C2001D30C10041016908AD00AE019B
:1007F8002D084001AD0041012E084001AE001F3018
:10080800AF000030B000B33171238031893041012D
:10081800AF002730B00040012D0841012F078600A6
:1008280040012E084101303D8700403F4001C5008E
:10083800413FC600423FC700433FC800853161259C
:100848008031400144084101B4004001430841019E
:10085800B300400142084101B20040014108410192
:10086800B1003C304001C400F530C300C230C200C2
:100878008F30C100410134084001C80041013308EC
:100888004001C700410132084001C600410131085A
:100898004001C5008531612580314001440841018E
:1008A800DC00400143084101DB00400142084101EE
:1008B800DA00400141084101D9003F304001C4003D
:1008C8005930C3009930C2009A30C1004030DE0070
:1008D8000030DD000030DC000030DB004101690839
:1008E800AD00AE012D084001AD0041012E084001C8
:1008F800AE001F30AF000030B000B331712380313B
:1009080089304101AF002730B00040012D08410176
:100918002F07860040012E084101303D8700403FE7
:100928004001DF00413FE000423FE100433FE20079
:100938009E312826803140015E08C8005D08C70046
:100948005C08C6005B08C50085316125803140011F
:1009580044084101E000400143084101DF00400133
:1009680042084101DE00400141084101DD005C0808
:100978004001C40041015B084001C30041015A081D
:100988004001C200410159084001C100410160080D
:100998004001C80041015F084001C70041015E08ED
:1009A8004001C60041015D084001C500853161254F
:1009B8008031400144084101B80040014308410129
:1009C800B700400142084101B60040014108410119
:1009D800B5006908AD00AE012D084001AD00410128
:1009E8002E084001AE001F30AF000030B000B33118
:1009F800712380318D304101AF002730B0004001B4
:100A08002D0841012F07860040012E084101303D85
:100A180087004A308400273085000831003FA00055
:100A2800013FA100023FA200033FA3003808400194
:100A3800C400410137084001C300410136084001A4
:100A4800C200410135084001C10041015808400178
:100A5800C800410157084001C7004101560840013C
:100A6800C600410155084001C50085316125803126
:100A7800400144084101A700400143084101A60084
:100A8800400142084101A500400141084101A4007C
:100A9800B431FB24803141012008C03F2108C13F07
:100AA8002208C23F2308C33F0130AD002D08E907E3
:100AB8000430690203180800D72840014408803927
:100AC800C9004908CE004435C9004908D400C31BF1
:100AD8005414540803197D2D540A031D7B2D00302E
:100AE800C4000030C3000030C2000030C100C3178A
:100AF800852D0030C4000030C3000030C200003033
:100B0800C10048088039C9004908CE064835C900DF
:100B18004908CF00C71B4F144F080319A02D4F0ACF
:100B2800031D9E2D0030C8000030C7000030C600ED
:100B38000030C500C717A82D0030C8000030C70016
:100B48000030C6000030C5004F08031D5408031DBF
:100B5800B62D0030C4000030C3000030C2000030A1
:100B6800C10008004108C9004908A0004708A83189
:100B78000320853140012108DA002008D9005908EE
:100B8800C900CA01CB01CC014C08D3004B08D200E4
:100B98004A08D1004908D0005A08C900CA01CB0147
:100BA800CC014C08D8004B08D7004A08D6004908A1
:100BB800D5004208C9004908A0004608A83103200A
:100BC800853140012108DA002008D9005908C900F8
:100BD800CA01CB01CC014908D0074A08D13D4B08CE
:100BE800D23D4C08D33D5A08C900CA01CB01CC01FB
:100BF8004908D5074A08D63D4B08D73D4C08D83D8B
:100C08004308C9004908A0004508A83103208531D8
:100C180040012108DA002008D9005908C900CA0192
:100C2800CB01CC014908D0074A08D13D4B08D23D39
:100C38004C08D33D5A08C900CA01CB01CC01490868
:100C4800D5074A08D63D4B08D73D4C08D83D083053
:100C5800D035D10DD20DD30D890B2C2E4208C900E9
:100C68004908A0004508A831032085314001210822
:100C7800DA002008D9005908D0075A08D13D0030B9
:100C8800D23DD33D4108C9004908A0004608A83113
:100C98000320853140012108DA002008D9005908CD
:100CA800D0075A08D13D0030D23DD33D0830D03569
:100CB800D10DD20DD30D890B5B2E4108C90049080F
:100CC800A0004508A8310320853140012108DA0039
:100CD8002008D9005908D0075A08D13D0030D23D24
:100CE800D33D4208C9004908A0004708A83103209D
:100CF800853140012108DA002008D9005908D507B4
:100D08005A08D63D0030D73DD83D4308C9004908A8
:100D1800A0004608A8310320853140012108DA00E7
:100D28002008D9005908D5075A08D63D0030D73DC4
:100D3800D83D4308C9004908A0004708A831032046
:100D4800853140012108DA002008D9005908C90076
:100D58005A08CA00CB01CC010830C935CA0DCB0DE1
:100D6800CC0D890BB12E4908D5074A08D63D4B084A
:100D7800D73D4C08D83D5008C9005108CA00520850
:100D8800CB005308CC001830CC36CB0CCA0CC90C9D
:100D9800890BC82E4908D5074A08D63D4B08D73DC8
:100DA8004C08D83D0830D035D10DD20DD30D890B64
:100DB800D72E54084F07C900CA01CA0D4908823EF8
:100DC800D900FF304A3DDA00D71BFF2E0130D53558
:100DD800D60DD70DD80D890BEB2ED31B551401302A
:100DE800D035D10DD20DD30D890BF42EFF30D90794
:100DF800FF30DA3DE82ECF01D31F182FFF30500502
:100E0800C900FF305105CA00FF305205CB007F30C2
:100E18005305CC004C084B044A04490403195518DF
:100E2800162F182FCF01CF0A4F080319412F013071
:100E3800D5070030D63D0030D73D0030D83D581C8E
:100E4800412F5508C9005608CA005708CB00580852
:100E5800CC000130CD00CC37CB0CCA0CC90CCD0B63
:100E68002F2F4C08D8004B08D7004A08D60049084D
:100E7800D5000130D9070030DA3D5A08803AC90058
:100E880080304902031D4A2FFF305902031C562F98
:100E98007F304001D8008030D7000030D6000030C5
:100EA800D500802F40015A08803AC9008030490295
:100EB800031D602F0130590203186D2F00304001C7
:100EC800D8000030D7000030D6000030D500CE0161
:100ED800802F40015908C9004908D400FF30D505C2
:100EE800FF30D6057F30D7050030D8055418D717FE
:100EF8005436C9004908D8004E08C9004908D80422
:100F08005808C4005708C3005608C2005508C10055
:100F180008004001AA004E011612B331012387319F
:100F28004001A8002808AB002B0842016206031DF7
:100F3800EF2F40012B03031DCE2F2708FF3EA800EB
:100F4800FF3003180030A9002908803A803C031DAF
:100F5800AF2F28082A020318CE2F01304001A8001D
:100F68002808AA07AC011830B231E22287311A30BA
:100F78004001A800F830890BBF2FA80BBF2F000035
:100F880001304001A8002808AC070C302C020318D7
:100F9800EF2FB72F023040012B06031DEF2F2A0831
:100FA8000319EF2F0130AA02AC011C30B231E22242
:100FB80087311A304001A800F830890BE12FA80BBF
:100FC800E12F000001304001A8002808AC070C30D0
:100FD8002C02031CD92F40012B08A8002808420125
:100FE800E2004E01161640012A08080001340134B7
:101000007D084001A0002008A10004307D06031DDA
:10101000FD01210808004A30860027308700003093
:10102000C03F0030C13F0030C23F0030C33F4A30B4
:1010300086002730870044310030C03F0030C13F78
:101040000030C23F0030C33F4A308600273087005F
:1010500048310030C03F0030C13F0030C23F003057
:10106000C33F4A308600273087004C3181014A3027
:101070008600273087004D310030C03F0030C13F2F
:101080000030C23F0030C33F4A308600273087001F
:1010900051310030C03F0030C13F0030C23F00300E
:1010A000C33F4A3086002730870055310030C03FAB
:1010B0000030C13F0030C23F0030C33F4A3086009D
:1010C0002730870059310030C03F0030C13F003029
:1010D000C23F0030C33F4A308600273087005D3171
:1010E0000030C03F0030C13F4030C23F4030C33FBE
:1010F0006B308600273087000030C03F0030C13F92
:101100002030C23FC230C33F6F3086002730870097
:101110000030C03F0030C13F8030C23F3F30C33F4E
:101120004001B7013708B300B4013308AD003408FB
:10113000AE001F30AF000030B000B33171238831F2
:1011400074304001B5002730B6002D083507B800CF
:101150002E08363DB9003808860039088700553119
:101160000030C03F0030C13F8030C23F4030C33FFD
:1011700038081E3EB3000030393DB4003308860005
:10118000340887000530810038081D3EB300003068
:10119000393DB400330886003408870001308100EF
:1011A000380886003908870044310030C03F0030DD
:1011B000C13F0030C23F0030C33F380886003908C5
:1011C000870050310030C03F0030C13F8030C23F07
:1011D000BF30C33F380886003908870048310030E7
:1011E000C03F0030C13F0030C23F0030C33F38082D
:1011F0008600390887004C310030C03F0030C13FC5
:101200000030C23F0030C33F3808860039088700ED
:101210000030C03F0030C13F0030C23F0030C33F0C
:101220000130B3003308B707043037020318080051
:10123000922842016808B431C924893141016D08FE
:101240000319E229D101043051020318E2294001B7
:10125000AD01DA30AE00BA30AF000C304101C7004A
:1012600047084001A90041015108B33130238931B9
:10127000B43197248931E6304101B3000130B40024
:101280005108013EC7004708B500B601B60AA931AA
:101290008F2189314001AD01E630AE000130AF0051
:1012A0000C304101C70047084001A9004101510825
:1012B000B33130238931033EB43197248931400161
:1012C000AD01E730AE00BA30AF000C304101C700CD
:1012D00047084001A90041015108B3313023893149
:1012E000043EB43197248931E6304101B300013026
:1012F000B4001F304001AF000030B0004101510880
:10130000C700C80147084001AD004101480840013D
:10131000AE00B3317123893189304101C9002730D2
:10132000CA0040012D0841014907860040012E08EE
:1013300041014A3D8700403FA800413FA900423F8C
:10134000AA00433FAB00A831C020893141012808E1
:10135000CB004B08B5000230CC004C08B600A931D8
:101360008F2189314001AD01E630AE000130AF0080
:101370000C304101C70047084001A9004101510854
:10138000B33130238931063EB4319724893140018D
:10139000AD01E430AE00BA30AF000C304101C700FF
:1013A00047084001A90041015108B3313023893178
:1013B000083EB4319724893101304101C700470804
:1013C000D1072329D101043051020318B62B742B05
:1013D0004001AD01AD0AEE30AE00B930AF000C30C7
:1013E0004101C70047084001A90041015108B3313C
:1013F00030238931B43197248931B02B4001AD01BC
:10140000AD0A9330AE00B930AF000C304101C700D7
:1014100047084001A90041015108B3313023893107
:10142000B43197248931B02B5108C700C80147084F
:101430004001AD00410148084001AE001F30AF003F
:101440000030B000B3317123893180304101C900CF
:101450002730CA0040012D0841014907860040019C
:101460002E0841014A3D8700403FCD00413FCE005C
:10147000423FCF00433FD0005008BC004F08BB00A4
:101480004E08BA004D08B9000430C7004708BD0037
:10149000BE01BE0AE630A231082289314001AD0109
:1014A000AD0AE630AE000130AF000C304101C7009C
:1014B00047084001A90041015108B3313023893167
:1014C000B4319724893141015108C700C801470848
:1014D0004001AD00410148084001AE001F30AF009F
:1014E0000030B000B3317123893191304101C9001E
:1014F0002730CA0040012D084101490786004001FC
:101500002E0841014A3D87000103031D052B4001C0
:10151000AD01AD0AEA30AE00BA30AF000C30410187
:10152000C70047084001A90041015108B3313023E9
:101530008931043EB4319724893141015108C700F3
:10154000C80147084001AD00410148084001AE0014
:101550001F30AF000030B000B331712389317C30CF
:101560004101C9002730CA0040012D084101490747
:10157000860040012E0841014A3D8700403FCD00D2
:10158000413FCE00423FCF00433FD0005008BC0057
:101590004F08BB004E08BA004D08B9000430C70020
:1015A0004708BD00BE01BE0AE630A23108228931DB
:1015B0004001AD01AD0AE630AE000130AF000C30A5
:1015C0004101C70047084001A90041015108B3315A
:1015D00030238931063EB431972489314001AD0171
:1015E000AD0AED30AE00BA30AF000C304101C7009B
:1015F00047084001A90041015108B3313023893126
:101600000A3EB43197248931B02B4001AD01AD0AB7
:101610006430AE00BA30AF000C304101C70047085B
:101620004001A90041015108B33130238931043E02
:10163000B43197248931B02B4001AD01AD0A083097
:10164000AE00BA30AF000C304101C700470840017E
:10165000A90041015108B33130238931B4319724B5
:101660008931B02B4001AD01AD0A8630AE00B930F2
:10167000AF000C304101C70047084001A9004101FB
:101680005108B33130238931B43197248931B02BDB
:101690004001AD01AD0AFB30AE00B930AF000C30F7
:1016A0004101C70047084001A90041015108B33179
:1016B00030238931B43197248931B02B4001AD01F9
:1016C000AD0A2230AE00BA30AF000C304101C70085
:1016D00047084001A90041015108B3313023893145
:1016E000B43197248931B02B5108C700C80147088D
:1016F0004001AD00410148084001AE001F30AF007D
:101700000030B000B3317123893192304101C900FA
:101710002730CA0040012D084101490786004001D9
:101720002E0841014A3D87000108CB00CC014C083E
:10173000003A03199C2B5E2B4B08003A0319FE2933
:10174000013A0319142A033A03191C2B013A03190D
:10175000322B073A0319482B013A0319E8295E2B6B
:1017600001304101C7004708D107E3290430C70011
:1017700047084001A7004201680887318D274101D1
:10178000C80048084201E80068084101C70047084E
:10179000EB004201680808004401DD015D08533E8A
:1017A000860002308700810181035D08593E860072
:1017B00002308700810181035D084101D300D4011B
:1017C0000930D50055084001A90044015D08B33136
:1017D00030238B31A03E8600023087004101530840
:1017E000C03F5408C13F44015D084101D300D4010A
:1017F00053084001AD00410154084001AE001F30C4
:10180000AF000030B000B33171238B31743041012F
:10181000D5002730D60040012D084101550786002C
:1018200040012E084101563D8700403FD700413F0F
:10183000D800423FD900433FDA000930DB005B08A3
:101840004001A90044015D08B33130238B31A23E31
:1018500086000230870041015708C03F5808C13F49
:101860005908C23F5A08C33F44015D084101D300F3
:10187000D40153084001AD00410154084001AE00BD
:101880001F30AF000030B000B33171238B3188308E
:101890004101D5002730D60040012D0841015507F0
:1018A000860040012E084101563D87000108D700FF
:1018B0000930D80058084001A90044015D08B3313F
:1018C00030238B31A63E8600023087004101570845
:1018D00081000130D30053084401DD0704305D026C
:1018E000031CCE2B04304101BB000030BC0009308A
:1018F000BD000030BE009A30BF003530C000A030BF
:101900009A31A9228B3100304401D2000030D1003D
:101910000030D0000030CF005208CE005108CD007A
:101920005008CC004F08CB004E08CA004D08C90033
:101930004C08C8004B08C700D801D701DD010930A9
:101940004101D30053084001A90044015D08B331AF
:1019500030238B31A23E860002308700403F400199
:10196000DB00413FDC00423FDD00433FDE0044013D
:101970004A084001E200440149084001E1004401F5
:1019800048084001E000440147084001DF0092316F
:1019900032228B3140015E084401CA0040015D08DB
:1019A0004401C90040015C084401C80040015B08D3
:1019B0004401C70040304101B0006030AF0000304A
:1019C000AE000030AD0044014E084001DE0044018D
:1019D0004D084001DD0044014C084001DC00440199
:1019E0004B084001DB0009304101D300530840019E
:1019F000A90044015D08B33130238B31A23E86003B
:101A000002308700403F4001DF00413FE000423F9D
:101A1000E100433FE200923132228B3140015E0807
:101A20004101B40040015D084101B30040015C0880
:101A30004101B20040015B084101B100AB313923E3
:101A40008B31031C702D09304101D3005308400134
:101A5000A90044015D08B33130238B31A23E8600DA
:101A600002308700403F4001DB00413FDC00423F45
:101A7000DD00433FDE0044014E084001E200440126
:101A80004D084001E10044014C084001E0004401E0
:101A90004B084001DF00923132228B3140015E0859
:101AA0004401CE0040015D084401CD0040015C08C6
:101AB0004401CC0040015B084401CB005D084101BA
:101AC000D30044015708533E86000230870041018D
:101AD000530881000130D30053084401D707052E75
:101AE00040304101B0006030AF000030AE00003047
:101AF000AD00440152084001DE004401510840019C
:101B0000DD00440150084001DC0044014F08400161
:101B1000DB0009304101D30053084001A900440112
:101B20005D08B33130238B31A23E8600023087003E
:101B3000403F4001DF00413FE000423FE100433FC2
:101B4000E200923132228B3140015E084101B40043
:101B500040015D084101B30040015C084101B20051
:101B600040015B084101B100AB3139238B31031CCB
:101B7000052E09304101D30053084001A90044015A
:101B80005D08B33130238B31A23E860002308700DE
:101B9000403F4001DB00413FDC00423FDD00433F6E
:101BA000DE00440152084001E200440151084001B6
:101BB000E100440150084001E00044014F084001A9
:101BC000DF00923132228B3140015E084401D200A5
:101BD00040015D084401D10040015C084401D0008F
:101BE00040015B084401CF005D084101D30044017E
:101BF0005808593E86000230870041015308810091
:101C00000130D30053084401D80701304101D3000B
:101C100053084401DD0704305D02031C9F2C570864
:101C20004101D300D4015308BB005408BC0001306B
:101C3000BD000030BE006530BF003530C0005330FD
:101C40009A31A9228B31440158084101D300D401B3
:101C50005308BB005408BC000130BD000030BE007A
:101C60003030BF003530C00059309A31A9228B3155
:101C70004401DD0157085D020318F42E5D08593E4A
:101C8000860002308700811BAC2E09304101D30051
:101C900053084001A90044015D08593E8600023006
:101CA00087000108B33130238B31A63E8600023015
:101CB000870009304101D40054084001A9004401C3
:101CC0005D08533E8400023085000008B3313023A4
:101CD0008B31A63E840002308500000801074101D7
:101CE000D500D601D60D5608803AD700803057026D
:101CF000031D7C2E65305502031CAC2E09304101BA
:101D0000D30053084001A90044015D08533E8600FA
:101D1000023087000108B33130238B31A63E8600A4
:101D2000023087000108643C4101D4000930D5002D
:101D300055084001A90044015D08593E8600023063
:101D400087000108B33130238B31A63E8600023074
:101D5000870041015408810009304101D300530834
:101D60004001A90044015D08533E8600023087000F
:101D70000108B33130238B31A73E86000230870043
:101D8000810109304101D30053084001A9004401F9
:101D90005D08533E8600023087000108B3313023CE
:101DA0008B31A63E86000230870001084101D40035
:101DB0000930D50055084001A90044015D08533E93
:101DC0008600023087000108B33130238B31A83EF2
:101DD0008600023087004101540881000130D300A1
:101DE00053084401DD073A2EDD0158085D0203184F
:101DF000452F09304101D30053084001A900440197
:101E00005D08593E8600023087000108B331302357
:101E10008B31A63E8600023087000108643C4101F8
:101E2000D4000930D50055084001A90044015D08DF
:101E3000593E8600023087000108B33130238B31D0
:101E4000A73E8600023087004101540881006430BB
:101E5000D3000930D40054084001A90044015D08B2
:101E6000593E8600023087000108B33130238B31A0
:101E7000A83E8600023087004101530881000130EE
:101E8000D30053084401DD07F52EDD01093041017F
:101E9000D30053084001A90044015D08B331302349
:101EA0008B31A03E860002308700403F4001AD00EC
:101EB000413FAE001F30AF000030B000B33171239E
:101EC0008B3180304101D4002730D50040012D08EE
:101ED00041015407860040012E084101553D87000D
:101EE00042304001DE00C830DD000030DC00003050
:101EF000DB001F30AF000030B00009304101D600D8
:101F000056084001A90044015D08B33130238B31EC
:101F1000A03E840002308500003F4001AD00013F3B
:101F2000AE00B33171238B3178304101D7002730B7
:101F3000D80040012D0841015707840040012E08B8
:101F40004101583D8500003F4001C100013FC200F2
:101F5000023FC300033FC40009304101D9005908C2
:101F60004001A90044015D08B33130238B31A63E06
:101F700084000230850000084101DA00DB01DC0149
:101F8000DD015D084001B60041015C084001B5007B
:101F900041015B084001B40041015A084001B3000F
:101FA0000130AC31D1248B3140013608C8003508EE
:101FB000C7003408C6003308C500853161258B3160
:101FC00040014408E2004308E1004208E000410803
:101FD000DF009E3128268B3140015B08C03F5C0842
:101FE000C13F5D08C23F5E08C33F01304101D300DD
:101FF00053084401DD0704305D0203180800462F32
:10200000440135084001AF00440134084001AE00EE
:10201000440133084001AD00440132084001AC00E6
:1020200023082F02031D1E2822082E02031D1E282E
:1020300021082D02031D1E2820082C02031C352810
:1020400020082C02A40021082D3BA50022082E3BCD
:10205000A60023082F3BA7002708A3002608A200FC
:102060002508A1002408A00008000130A400CA30FF
:10207000A5009A30A6003B30A70020082C02A8003B
:1020800021082D3BA90022082E3BAA0023082F3B44
:10209000AB002808A4072908A53D2A08A63D2B085F
:1020A000A73D2708A3002608A2002508A1002408B0
:1020B000A00008007330860027308700010C410122
:1020C000C700C70C470C013942016F06031981286C
:1020D0007330860027308700003081190130EF000F
:1020E0007330860027308700811D7828E9017E281B
:1020F00003304101C70047084201E9004101ED01F9
:10210000ED0A42016908B431C924903141016D08DA
:1021100003199F284001AD016630AE00B030AF001A
:102120000030B431972490314001AD01AD0A9D30AB
:10213000AE00BA30AF003030B431972490317330F4
:10214000860027308700011EFD284A308600273090
:102150008700403F4101B900413FBA00423FBB0008
:10216000433FBC000530C7004708BD00BE01BE0AA2
:10217000E630A231082290314001AD01AD0AE630CF
:10218000AE000130AF000030B431972490314001EF
:10219000AD01AD0AD230AE00BA30AF000530B43177
:1021A000972490314A308600273087004D31403FD8
:1021B0004101B900413FBA00423FBB00433FBC0070
:1021C0000330C7004708BD00BE01E630A231082237
:1021D00090314001AD01AD0AE630AE000130AF00F4
:1021E0000830B431972490314001AD01AD0AF03090
:1021F000AE00BA30AF000B3027294A3086002730B6
:102200008700403F4101B900413FBA00423FBB0057
:10221000433FBC000530C7004708BD00BE01BE0AF1
:10222000E630A231082290314001AD01AD0AE6301E
:10223000AE000130AF000030B4319724903140013E
:10224000AD01AD0A7D30AE00BA30AF000530B4311B
:10225000972490314A308600273087004431403F30
:102260004101B900413FBA00423FBB00433FBC00BF
:102270000530C7004708BD00BE01BE0AE630A231E6
:10228000082290314001AD01AD0AE630AE000130C8
:10229000AF000C30B431972490314001AD01AD0A4C
:1022A000BA30AE00BA30AF001130B431972490315B
:1022B0004A308600273087004831403F4101B9004D
:1022C000413FBA00423FBB00433FBC000530C7005E
:1022D0004708BD00BE01BE0AE630A2310822903197
:1022E0004001AD01AD0AE630AE000130AF0018305C
:1022F000B431972490314001AD01AD0A7D30AE007C
:10230000BA30AF001D30B431972490314A30860086
:10231000273087005131403F4101B900413FBA00A9
:10232000423FBB00433FBC000430C7004708BD002C
:10233000BE01BE0AE630A231082290314001AD0153
:10234000AD0AE630AE000130AF002430B43197243E
:1023500090314001AD01AD0AD630AE00BA30AF00C9
:102360002830B431972490314A30860027308700D6
:102370005931403F4101B900413FBA00423FBB00E3
:10238000433FBC000430C7004708BD00BE01BE0A81
:10239000E630A231082290314001AD01AD0AE630AD
:1023A000AE000130AF002B30B431972490314001A2
:1023B000AD01AD0A3630AE00B930AF002F30B431C8
:1023C00097249031E6304101B3000130B400B501EB
:1023D000B50A0330C7004708B600A9318F219031F4
:1023E0004001AD01E630AE000130AF003830B4310D
:1023F000972490317330860027308700811D2F2A63
:10240000E6304101B3000130B4004A308600273085
:1024100087004C310108C7004708B5000330C800E9
:102420004808B600A9318F2190314001AD01AD0AB5
:10243000E630AE000130AF003830B431972490312F
:1024400005304101C70047084001A7004201690863
:1024500087318D274101C80048084201E900420147
:102460006908080040015E088039E3006308EB005A
:102470005E35E3006308ED00DD1B6D146D08031984
:102480004F2A6D0A031D4C2A0030DE000030DD00AB
:102490000030DC000030DB00DD17DE01572A0030A1
:1024A000DE000030DD000030DC000030DB006208C0
:1024B0008039E3006308EC006C086B06031D6B17A2
:1024C0006235E3006308EC00E11B6C146C0803192F
:1024D000772A6C0A031D742A0030E2000030E10004
:1024E0000030E0000030DF00E117E2017F2A003019
:1024F000E2000030E1000030E0000030DF006D0855
:102500006C020318C52A6B1F892A8030E300630818
:10251000EB066D08E3006308EE006C08E300630857
:10252000ED006E08E3006308EC005B08E30063085D
:10253000EE005F08E3006308DB006E08E300630859
:10254000DF005C08E3006308EE006008E300630856
:10255000DC006E08E3006308E0005D08E300630848
:10256000EE006108E3006308DD006E08E300630825
:10257000E1005E08E3006308EE006208E300630820
:10258000DE006E08E3006308E200EE016C08E30081
:10259000E4016408E6006D086302E500031CE6033D
:1025A0006608803AE70080306702031DD92A1A3096
:1025B0006502031C0D2B40015E085D045C045B0496
:1025C0000319E42A0130E52A0030E3006308EE0035
:1025D0000030DE000030DD000030DC000030DB00C9
:1025E0006C08E3006308ED00122B6E1CFD2A6E36AA
:1025F0000138E3006308EE00FF2A0310EE0C5B18BD
:10260000EE170130E300DE37DD0CDC0CDB0CE30BF6
:10261000032B0130E3006308ED0740016C086D02F5
:10262000031CF52A6B1B432B6D08031D202B003068
:10263000DE000030DD000030DC000030DB00080090
:102640005F08DB076008DC3D6108DD3D6208DE3DB8
:102650005E1CBD2B6E1C322B6E360138E300630806
:10266000EE00342B0310EE0C5B18EE170130E30084
:10267000DE37DD0CDC0CDB0CE30B382B0130E30028
:102680006308ED07BD2B5E08803AE3006208803ADC
:102690006302031D552B61085D02031D552B600865
:1026A0005C02031D552B5F085B0203188D2BFF3066
:1026B000E300FF30E400FF30E500FF30E6005B0898
:1026C0005F02E7005C08603BE8005D08613BE900F1
:1026D0005E08623BEA006708E3076808E43D6908B2
:1026E000E53D6A08E63D6608DE006508DD00640831
:1026F000DC006308DB008030E3006308EB06EE09D2
:10270000EE0A6E08031D952B0130DB070030DC3D1F
:102710000030DD3D0030DE3D952B5F08DB026008B8
:10272000DC3B6108DD3B6208DE3B5E085D045C0467
:102730005B04031DBB2B6E08031DBB2B0030DE00AA
:102740000030DD000030DC000030DB00080001302C
:10275000DB35DC0DDD0DDE0D890BA82BEE1B5B14CC
:102760006E1CB42B0314B52B0310EE0D6D0803196A
:10277000BB2B0130ED02DD1FA72BEC01EE1FC82B98
:102780006E087F3903195B18C62BC82BEC01EC0AC5
:102790006C080319F42B0130DB070030DC3D0030FE
:1027A000DD3D0030DE3D5E1CF42B5B08E3005C0881
:1027B000E4005D08E5005E08E6000130E700E6376A
:1027C000E50CE40CE30CE70BDF2B6608DE00650884
:1027D000DD006408DC006308DB006D0A0319F42BDC
:1027E0000130E3006308ED076D0A031D6D08031D4A
:1027F000042C0030DE000030DD000030DC00003052
:10280000DB006D080319EB016D1C082CDD170C2C87
:102810007F30E3006308DD056D36E3006308DE000A
:10282000EB1F0800DE1708004101CE014E08B90079
:10283000BA0139084001AD0041013A084001AE003B
:102840001F30AF000030B000B331712394317430C9
:102850004101BB002730BC0040012D0841013B076E
:10286000CF0040012E0841013C3DD0004F088600BA
:10287000500887005E31043001060319F62F1F301F
:102880004001AF000030B00041014E08B900BA016C
:1028900039084001AD0041013A084001AE00B331B2
:1028A0007123943174304101BB002730BC004001DA
:1028B0002D0841013B07860040012E0841013C3DA7
:1028C0008700403FA800413FA900423FAA00433F84
:1028D000AB00A831C020943141012908C900280863
:1028E000C8004001AD01AD0A41014E08B631DE26F7
:1028F00094314101C70111309831012094314001D8
:1029000021084101BE00400120084101BD003E08F0
:102910004001AD0041013D084001AC0041014908C2
:102920004001AF00410148084001AE000030B30053
:102930000030B200B330B1003230B000A9312621EE
:10294000943140012D084101C90040012C0841018A
:10295000C8004708C70AB90032303902031C7B2C73
:102960004001AD0141014E08B631DE2694314530BB
:102970004001DE001F30DD00D830DC000030DB001D
:102980004030C400A030C3000030C2000030C1009D
:10299000410148084001B300410149084001B40029
:1029A000B501B6010030AC31D12494314001360874
:1029B000C8003508C7003408C6003308C500853193
:1029C0006125943140014408E2004308E1004208D7
:1029D000E0004108DF009E312826943140015E0866
:1029E0004101CD0040015D084101CC0040015C087F
:1029F0004101CB0040015B084101CA004D08B00015
:102A00004C08AF004B08AE004A08AD003D30B400A2
:102A10004C30B300CC30B200CD30B100AB313923F3
:102A2000943103182D2D41014F088600500887006E
:102A30005E310103031D202D0130B531D1259431C4
:102A400041014F081E3EB9000030503DBA00390820
:102A500086003A0887000230F52F40304101B0006F
:102A60000030AF000030AE000030AD004D08B400C3
:102A70004C08B3004B08B2004A08B100AB3139230F
:102A80009431031C462D40010E19742D0430B531CC
:102A9000D125943141014F081E3EB9000030503D10
:102AA000BA00390886003A088700043081004001E6
:102AB0000E19F62F41014F081E3EB9000030503D5F
:102AC000BA00390886003A088700033081004001C7
:102AD0009A1107304101B9007D30890B6D2DB90B7A
:102AE0006D2D40019A15F62F41014F0886005008C0
:102AF00087004A08C03F4B08C13F4C08C23F4D0801
:102B0000C33F4D084001C40041014C084001C300CF
:102B100041014B084001C20041014A084001C10087
:102B20004A308600273087005131403FC500413F81
:102B3000C600423FC700433FC8008531612594313C
:102B400041014F0886005008870044314001410888
:102B5000C03F4208C13F4308C23F4408C33F410150
:102B60004F088600500887004431403FAD00413F88
:102B7000AE00423FAF00433FB0004F088600500810
:102B800087005031403FB100413FB200423FB300A7
:102B9000433FB400AB31392394310318EA2D41018E
:102BA0004F088600500887004431403FB900413F3C
:102BB000BA00423FBB00433FBC004F0886005008AC
:102BC000870050313908C03F3A08C13F3B08C23F37
:102BD0003C08C33F7330860027308700811D362EA6
:102BE00041014F088600500887005031403FAD003A
:102BF000413FAE00423FAF00433FB0000030B40061
:102C00000030B3000030B2000030B100AB313923E6
:102C100094310318192E41014F081D3EB9000030B0
:102C2000503DBA00390886003A088700013081001B
:102C3000572E00304101B0000030AF000030AE0030
:102C40000030AD004F088600500887005031403FEB
:102C5000B100413FB200423FB300433FB400AB314B
:102C6000392394310318572E4101512E41014F0849
:102C70008600500887004431403FB900413FBA0008
:102C8000423FBB00433FBC004F088600500887000E
:102C900050313908C03F3A08C13F3B08C23F3C08A9
:102CA000C33F4F088600500887005D318101410114
:102CB0004F088600500887005031403F4001A00077
:102CC000413FA100423FA200433FA3000030A700C4
:102CD0000030A6000030A5000030A400B7316D27F9
:102CE0009431031C7B2E41014F0886005008870059
:102CF0005E318101882E41014F081E3EB90000302F
:102D0000503DBA00390886003A088700013081003A
:102D10004F088600500887005D310103031D3A2FDC
:102D200042304001C400C830C3000030C20000304F
:102D3000C10041014F088600500887004431403FE0
:102D40004001DB00413FDC00423FDD00433FDE004D
:102D500041014F088600500887004831403F40013C
:102D6000DF00413FE000423FE100433FE2009E318F
:102D70002826943140015E08C8005D08C7005C0841
:102D8000C6005B08C50085316125943140014408C7
:102D90004101B000400143084101AF004001420839
:102DA0004101AE00400141084101AD004230B40094
:102DB000C830B3000030B2000030B100AB3139236D
:102DC0009431031CEC2E42304101C200C830C100D6
:102DD0000030C0000030312F42304001C400C83004
:102DE000C3000030C2000030C10041014F0886001E
:102DF000500887004431403F4001DB00413FDC0088
:102E0000423FDD00433FDE0041014F08860050088D
:102E100087004831403F4001DF00413FE000423F32
:102E2000E100433FE2009E312826943140015E08D4
:102E3000C8005D08C7005C08C6005B08C500853196
:102E400061259431400144084101C200400143081A
:102E50004101C100400142084101C0004001410858
:102E60004101BF004208AB004108AA004008A90088
:102E70003F08E32F42304001C400C830C300003097
:102E8000C2000030C10041014F0886005008870091
:102E90004431403F4001DB00413FDC00423FDD0068
:102EA000433FDE0041014F08860050088700503143
:102EB000403F4001DF00413FE000423FE100433F2F
:102EC000E2009E312826943140015E08C8005D086A
:102ED000C7005C08C6005B08C500853161259431D8
:102EE000400144084101B000400143084101AF00E6
:102EF000400142084101AE00400141084101AD00DE
:102F00004230B400C830B3000030B2000030B1002D
:102F1000AB3139239431031C962F42304101C60056
:102F2000C830C5000030C4000030DB2F4230400103
:102F3000C400C830C3000030C2000030C1004101ED
:102F40004F088600500887004431403F4001DB00B5
:102F5000413FDC00423FDD00433FDE0041014F08BE
:102F60008600500887005031403F4001DF00413F5C
:102F7000E000423FE100433FE2009E3128269431C9
:102F800040015E08C8005D08C7005C08C6005B0819
:102F9000C500853161259431400144084101C600D6
:102FA000400143084101C500400142084101C400FD
:102FB000400141084101C3004608AB004508AA0092
:102FC0004408A9004308A800A831C0209431410159
:102FD0002808B9004F08143EBA000030503DBB002D
:102FE0003A0886003B08870039088100013041011A
:102FF000B9003908CE0704304E0203180800162C19
:103002004001A3002308A200A20DA20D41011D0848
:10301200400122060339220641019D00003200329E
:10302200000041019D149D1814281C084001A100B4
:1030320041011B084001A000080042016408031975
:1030420048285F084001A30042015E084001A20037
:1030520042015D084001A10042015C084001A0005C
:1030620090310020983140012308031D08002208F6
:10307200031D0800B03020020430213B0318080071
:103082004201E4010C30B231E22298316E285F082D
:103092004001A30042015E084001A20042015D0816
:1030A2004001A10042015C084001A00090310020D3
:1030B200983140012308031D67282208031D672851
:1030C200B13020020430213B031C6E284201E4018E
:1030D200E40A0830B231E2220800420163084101E9
:1030E200D200D301D235D30D543052078400B03010
:1030F200533D8500003FD900013FDA0059085A04C8
:1031020003198D285A088A0059080A00983141018A
:10311200D2005208D60091280B30B531D125983112
:103122004101ED018831002098314101D20052085D
:10313200D70042015F084001A30042015E0840013E
:10314200A20042015D084001A10042015C08400169
:10315200A00090310020983140012308031DBA28B5
:103162002208031DBA282D3020020130213B031C06
:10317200BC280130BD2800304101D2005208D800DD
:103182005608D20052084001B30041015708D3004B
:1031920053084001B40041015808D40054084001CA
:1031A200B50042016308A031202098314101D500C9
:1031B2005508DB00DB1BF7285B08D200D301D21BCA
:1031C200D303420163084101D400D50153085506D7
:1031D200031DED285208540603190800ED01ED0AFB
:1031E2005B08D20052084201E30008000B30B531FF
:1031F200D12508000630983101209831400121087C
:103202004101B200400120084101B10032084001F1
:10321200AD00410131084001AC00430163084001A7
:10322200AF00430162084001AE000030B30000303D
:10323200B2007F30B100FF30B000A93126219831B1
:1032420040012D084301E30040012C084301E20044
:103252001030983101209831400121084101B2001B
:10326200400120084101B10032084001AD00410196
:1032720031084001AC00430161084001AF00430145
:1032820060084001AE000030B3000030B200CC3024
:10329200B100CC30B000A9312621983140012D086F
:1032A2004301E10040012C084301E0001130983154
:1032B20001209831400121084101B200400120085B
:1032C2004101B10032084001AD0041013108400125
:1032D200AC00440137084001AF0044013608400108
:1032E200AE000030B3000030B2004C30B100CC3040
:1032F200B000A9312621983140012D084401B700C0
:1033020040012C084401B600C2304001DE000A3000
:10331200DD000C30DC004A30DB003D30C400F3300D
:10332200C300EA30C200B330C10043016208400169
:10333200B300430163084001B400B501B601003097
:10334200AC31D124983140013608C8003508C70095
:103352003408C6003308C500853161259831400123
:103362004408E2004308E1004208E0004108DF00AF
:103372009231322298314A308600273087004D310F
:1033820040015B08C03F5C08C13F5D08C23F5E0868
:10339200C33F4030C400A030C3000030C200003040
:1033A200C100430160084001B300430161084001CC
:1033B200B400B501B6010030AC31D12498314001DE
:1033C2003608C8003508C7003408C6003308C500EF
:1033D200853161259831400144084101B000400126
:1033E20043084101AF00400142084101AE004001E3
:1033F20041084101AD0047304001DE003B30DD00B5
:10340200D130DC000030DB004330C4004530C30063
:103412000030C2000030C100410130084001C80044
:1034220041012F084001C70041012E084001C6009A
:1034320041012D084001C5008531612598314001C7
:103442004408E2004308E1004208E0004108DF00CE
:103452009E31282698314A30860027308700513124
:1034620040015B08C03F5C08C13F5D08C23F5E0887
:10347200C33F4530DE001F30DD00D830DC000030B5
:10348200DB004030C400A030C3000030C200003076
:10349200C100440136084001B3004401370840012D
:1034A200B400B501B6010030AC31D12498314001ED
:1034B2003608C8003508C7003408C6003308C500FE
:1034C20085316125983140014408E2004308E1005A
:1034D2004208E0004108DF009E31282698314A3038
:1034E200860027308700553140015B08C03F5C08E9
:1034F200C13F5D08C23F5E08C33F4A3086002730A5
:1035020087005531403FC100413FC200423FC300E6
:10351200433FC4004A308600273087005131403F84
:10352200C500413FC600423FC700433FC800853146
:1035320061254A3086002730870059314001410811
:10354200C03F4208C13F4308C23F4408C33F08008E
:103552004101C6004608C1004108C80000303E02D1
:103562003C3003193D02031808002030C100410815
:10357200C7003D084707C1004108860001308700A7
:103582008101CD01CE014301A001A10141013B080E
:10359200FF3E4301A200FF3041013C3D4301A30035
:1035A20041014D08C1000130C135FF3E031DD52A3E
:1035B2004135A03E860001308700403FC900413FAF
:1035C200CA004D08C1000130C135FF3E031DE52A86
:1035D2004135023EA03E860001308700403FCB00CD
:1035E200413FCC00FF30CD07FF30CE3D41014A08BC
:1035F200D0004908CF004C08D2004B08D1003D084A
:10360200C10041084001A900410151084F07400192
:10361200A20041015208503D4001A3000230A00027
:103622000030A100A8316E209A3140012008B33148
:1036320030239A3141014807C20042084001AD00DF
:1036420041013E084001AF0041013D084001AE008A
:1036520041014708B331DB239A3141013D08C100E2
:1036620041084001A90041014F08B33130239A318A
:1036720041014807C20042084001EF006F084101C2
:10368200B3000230B4004708B5000130B60040086C
:103692008A003F080A009B314101B41F592B0130B7
:1036A200CF070030D03D2E2BFF30D107FF30D23D67
:1036B2003D08C10041084001A90041015108B33150
:1036C20030239A3141014807C20042084001EF000D
:1036D20041014708B3000130B40040016F084101C5
:1036E200B5000230B60040088A003F080A009B314C
:1036F2004101B41B552B5208803AC1005008803A50
:103702004102031D862B4F085102031CBE2B4101AF
:103712003E084001AE0041013D084001AD004101BB
:103722003D08C10041084001A90041014F08B331E1
:1037320030239A3141014807C20042084001AF00DC
:1037420041013D08C30043084001A900410151085D
:10375200B33130239A3141014807C4004408400183
:10376200B000B43107249A3101304101CF07003053
:10377200D03DFF30D107FF30D23D41015208803A9F
:10378200C1005008803A4102031DC92B4F08510263
:1037920003182E2B41014F084B02C10050084C3B2D
:1037A200C20049085102C3004A08523BC4004408FF
:1037B200803AC5004208803A4502031DE22B4108C7
:1037C200430203181D2C41015008803AC1004C08E5
:1037D200803A4102031DEF2B4B084F020318172CAE
:1037E20001304101CD070030CE3D4D08C10001300E
:1037F200C135FF3E031DF92B4135A03E8600013045
:1038020087004F08C03F5008C13F4D08C10001303A
:10381200C135FF3E031D092C4135023EA03E860004
:10382200013087004B08C03F4C08C13F410152089C
:10383200CC005108CB00552C41014A08803AC10006
:103842005208803A4102031D282C510849020318EC
:10385200502C01304101CD070030CE3D4D08C10052
:103862000130C135FF3E031D322C4135A03E86009A
:10387200013087004908C03F4A08C13F4D08C100D6
:103882000130C135FF3E031D422C4135023EA03EB0
:103892008600013087005108C03F5208C13F4101F4
:1038A2005008CA004F08C9004A08803AC1004C08B3
:1038B200803A4102031D5F2C4B084902031CF72A80
:1038C2004101CE1B0800D12A40304101B0006030D6
:1038D200AF000030AE000030AD004A308600273025
:1038E20087005531403FB100413FB200423FB30033
:1038F200433FB400AB3139239C310318012D400101
:10390200AD01FF30B631DE269C3140019A114030C4
:103912004101B0006030AF000030AE000030AD00B9
:1039220045304001DE001F30DD00D830DC000030C1
:10393200DB004030C400A030C3000030C2000030C1
:10394200C1001130983101209C3140012008410111
:10395200BE00400121084101BF00C001C101410870
:103962004001B600410140084001B50041013F0855
:103972004001B40041013E084001B3000030AC31C7
:10398200D1249C3140013608C8003508C7003408EC
:10399200C6003308C500853161259C3140014408C9
:1039A200E2004308E1004208E0004108DF009E31E6
:1039B20028269C3140015E084101B40040015D08A7
:1039C2004101B30040015C084101B20040015B08C3
:1039D2004101B100AB3139239C310318F22C09307B
:1039E200FE2C73308600273087000119012D7330B9
:1039F20086002730870001150A30B531D1259C3168
:103A020041304101B0005C30AF00CC30AE00CD306F
:103A1200AD004A308600273087005131403FB10067
:103A2200413FB200423FB300433FB400AB313923C0
:103A32009C31031C372D41304101B0003030AF00C2
:103A42000030AE000030AD004A30860027308700DB
:103A52005131403FB100413FB200423FB300433FCA
:103A6200B400AB3139239C31031C932D8B010130FF
:103A7200B231E2229C310230B231E2229C31400169
:103A8200AD013C30AE00BA30AF000030B431972403
:103A92009C314001AD01FF30B631DE269C31400140
:103AA2009A1105304101BE003E08C500C230B30084
:103AB2000030B4004508BE003E08B500B601B60AA3
:103AC200A9318F219C314001AD01AD0ACE30AE004B
:103AD200BA30AF000030B43197249C314001AD01BF
:103AE200AD0AC230AE000030AF000330B4319724CB
:103AF2009C3106304101BF001330BE00AD30890B4E
:103B0200802DBE0B802DBF0B802D00320130410174
:103B1200C5024508031D572DB231DA229C314001FE
:103B22009912922D41304101B0005030AF00003067
:103B3200AE000030AD004A30860027308700513198
:103B4200403FB100413FB200423FB300433FB400A7
:103B5200AB3139239C310318D82D41304101B000DB
:103B62005C30AF00CC30AE00CD30AD004A308600C4
:103B7200273087005131403FB100413FB200423F00
:103B8200B300433FB400AB3139239C31031CD82D21
:103B92007330860027308700811808007330860052
:103BA2002730870081140530B531D1250800413016
:103BB2004101B0003030AF000030AE000030AD0047
:103BC2004A308600273087005131403FB100413FE3
:103BD200B200423FB300433FB400AB3139239C31C2
:103BE20003181D2E41304101B0003630AF0066305F
:103BF200AE006630AD004A30860027308700513172
:103C0200403FB100413FB200423FB300433FB400E6
:103C1200AB3139239C31031C1D2E733086002730B3
:103C220087000118080073308600273087000114CE
:103C32000630B531D1250800733086002730870061
:103C42008110733086002730870001100800400180
:103C520062088039E30063084101A4004001623533
:103C6200E30063084101AB004001E11F3A2E41012C
:103C72002B1441012B0803194E2E2B0A031D4A2E29
:103C820000304001E2000030E1000030E00000308E
:103C9200DF004001E117E201572E00304001E2004F
:103CA2000030E1000030E0000030DF005E088039C3
:103CB200E30063084101A40640015E35E3006308A6
:103CC2004101AC004001DD1F682E41012C1441016D
:103CD2002C0803197C2E2C0A031D782E003040017B
:103CE200DE000030DD000030DC000030DB0040018F
:103CF200DD17DE01852E00304001DE000030DD00E0
:103D02000030DC000030DB005E085D045C045B0414
:103D1200031DA62E0030E2000030E1000030E0007A
:103D22000030DF008030E1047F30E20441012408EA
:103D32004001E3006308E2046208DE006108DD007E
:103D42006008DC005F08DB00080041012B08031D4E
:103D5200B42E00304001DE000030DD000030DC0017
:103D62000030DB0008002B084001E300E401640896
:103D7200E60041012C0840016302E500031CE60352
:103D820065087F3E4101A50000304001663D4101CA
:103D9200A600400162084101A300400161084101FF
:103DA200A200400160084101A10040015F084101F9
:103DB200A00000304001E2000030E1000030E000ED
:103DC2000030DF0000304101AA000030A9000030BD
:103DD200A8000030A700AC011A302C020318402FB3
:103DE2002C080319102F0130A035A10DA20DA30D2F
:103DF200890BF52E01304001DF35E00DE10DE20DBA
:103E0200890BFC2E4101AA1F082F40015F140130CB
:103E12004101A735A80DA90DAA0D890B092F400153
:103E22005E0841012302031D262F40015D08410166
:103E32002202031D262F40015C0841012102031DBD
:103E4200262F40015B0841012002031C392F2A174B
:103E520040015B084101A00240015C084101A13B15
:103E620040015D084101A23B40015E084101A33BC4
:103E720001304001E30063084101AC07ED2E230845
:103E8200220421042004031D27144001E11B622F98
:103E92000130DF35E00DE10DE20D890B4A2F4101C2
:103EA200AA1F552F40015F1401304101A735A80D0B
:103EB200A90DAA0D890B562FFF30A507FF30A63D8D
:103EC200462F4101AC01AA1F842FFF302705400174
:103ED200E300FF30410128054001E400FF304101C9
:103EE20029054001E5007F3041012A054001E60035
:103EF200660865046404630403195F18812F842F24
:103F02004101AC01AC0A41012C080319B02F013068
:103F12004001DF070030E03D0030E13D0030E23D8E
:103F2200621CB02F5F08E3006008E4006108E5004E
:103F32006208E6000130E700E637E50CE40CE30C2A
:103F4200E70B9D2F6608E2006508E1006408E000C7
:103F52006308DF0001304101A5070030A63D4101A1
:103F62002608803A4001E30080306302031DBC2F23
:103F7200FF3041012502031CCC2FFF304101A50077
:103F82000030A60000304001E2000030E1000030C5
:103F9200E0000030DF0041012608803A4001E300E2
:103FA20080306302031DD82F01304101250203181E
:103FB200E82F4101A501A60100304001E2000030D6
:103FC200E1000030E0000030DF004101A4014101C6
:103FD20025084001E30063084101AB002B1CF42FCC
:103FE2004001E117F92F7F304001E3006308E1054A
:103FF20041012B364001E3006308E200972E18349A
:1040020018340334043404340434033400340034E4
:1040120000340034043400340034003400340134F9
:104022000134053409341F340834043400340034B4
:10403200103418341C341834103400340034400165
:10404200B900BA013A08B600B7013608AD00370820
:10405200AE000630AF000030B000B3317123A031A2
:1040620040012E0885002D08840000308407B030FE
:10407200853D00083906031DDE283A08B600B7015F
:104082003608AD003708AE000630AF000030B00091
:10409200B3317123A03140012E0885002D08840020
:1040A20001308407B030853D0008330603197428B7
:1040B2003A08B600B7013608AD003708AE00063040
:1040C200AF000030B000B3317123A03140012E089F
:1040D20085002D08840001308407B030853D120030
:1040E200FF3A031DDE28350803198F283A08B60067
:1040F200B7013608AD003708AE000630AF00003019
:10410200B000B331712340012E0885002D088400D0
:1041120004308407B030853D000808003403031DD5
:10412200AA283A08B600B7013608AD003708AE0033
:104132000630AF000030B000B331712340012E08C9
:1041420085002D08840002308407B030853D0008C8
:10415200080002303406031DC6283A08B600B7012B
:104162003608AD003708AE000630AF000030B000B0
:10417200B331712340012E0885002D0884000330DD
:104182008407B030853D000808003A08B600B70140
:104192003608AD003708AE000630AF000030B00080
:1041A200B331712340012E0885002D0884000530AB
:1041B2008407B030853D000808000130B60036089B
:1041C200BA070E303A02031C2328FF3008004A3097
:1041D2008600273087004D31403F4101AD00413F0D
:1041E200AE00423FAF00433FB000C130B400F030F8
:1041F200B3000030B2000030B100AB313923A0313E
:10420200031C1E2942304101B0007030AF00003063
:10421200AE000030AD004A308600273087004D31B5
:10422200403FB100413FB200423FB300433FB400C0
:10423200AB313923A031031824297330860027308B
:1042420087000112F4297330860027308700011697
:10425200F429440167084001A300440166084001B3
:10426200A200440165084001A10044016408400124
:10427200A00090310020A03140012308031D4B29EA
:104282002208031D4B292108031D4B2964302002FB
:10429200031C062A44013508B1003408B000330873
:1042A200AF003208AE003108E7003008E6002F0800
:1042B200E5002E08E4003F30B231EC22A031420189
:1042C200E101E10A062A440131084001A300440148
:1042D20030084001A20044012F084001A10044011E
:1042E2002E084001A00090310020A0314001230897
:1042F200031D85292208031D85292108031D8529FF
:1043020015302002031C9A2973308600273087005B
:10431200811D962973308600273087008111420162
:10432200E1010730B531D125A031B231D222A0311D
:10433200062A42016D080319062AED01AA3044013A
:104342003806031DDF293A03031DDF294A308600A0
:10435200273087003B08C03F3C08C13F3D08C23FB1
:104362003E08C33F4A3086002730870044313F0869
:10437200C03F4008C13F4108C23F4208C33F4A30E4
:1043820086002730870048314308C03F4408C13FB8
:104392004508C23F4608C33F39084101B9005630BB
:1043A2008600273087003908810073308600273065
:1043B200870081154201E101013008007330860057
:1043C20027308700811DEE29733086002730870051
:1043D20081110830B531D125A031B231D222A031BC
:1043E2004201E101062A420161084101B900BA0114
:1043F2003A08003A0319FE29F1293908003A03194B
:104402002A29013A03196429F129003008004101DF
:10441200C600C101C10AC501C2013C08B0003B0887
:10442200AF003A08AE003908AD000030B4000030E9
:10443200B3000030B2000030B100AB313923A231F9
:104442000318532ABF304001C4008030C30000303B
:10445200C2000030C10041013C084001C8004101D6
:104462003B084001C70041013A084001C600410132
:1044720039084001C50085316125A2314001440857
:104482004101BC00400143084101BB004001420818
:104492004101BA00400141084101B900C201C20A0A
:1044A2000130BD0241013C08B0003B08AF003A08B0
:1044B200AE003908AD004130B4002030B300003006
:1044C200B2000030B100AB313923A231031C9A2A69
:1044D20041304001DE002030DD000030DC000030E1
:1044E200DB0041013C084001E20041013B08400180
:1044F200E10041013A084001E00041013908400170
:10450200DF009E312826A23140015E084101BC0035
:1045120040015D084101BB0040015C084101BA0055
:1045220040015B084101B9000130BF003F08C107EB
:10453200532A410141083E07BF003F08C4003E081C
:10454200031DA72A0130BF003F08BD070130BD028D
:104552003D0844020318BD2A2030BF004508460723
:10456200C00040088600013087003F08810001300A
:10457200BF003F08C507A72A42080319CF2A2D30DA
:10458200BF0045084607C00040088600013087008A
:104592003F0881000130BF003F08C5070130C40257
:1045A200440A0319662B3C08AB003B08AA003A08F0
:1045B200A9003908A800A831C020A2314101280869
:1045C200BF003F08C3000A304001AF000030B00016
:1045D20041014308BF00C0013F084001AD00410155
:1045E20040084001AE00B3317123A23140012D08D1
:1045F200B3002E08B400890D893B8909B500B600C5
:104602000130AC31D124A231400136084101A3006E
:10461200400135084101A200400134084101A100D6
:10462200400133084101A00041304001C400203064
:10463200C3000030C2000030C10041013C0840010B
:10464200C80041013B084001C70041013A0840014E
:10465200C600410139084001C50085316125A231FA
:10466200400144084101A700400143084101A6005E
:10467200400142084101A500400141084101A40056
:10468200B431FB24A23141012308BC002208BB0043
:104692002108BA002008B9004308303EBF0045088F
:1046A2004607C00040088600013087003F088100AD
:1046B2000130BF003F08C50744080319CF2A440848
:1046C2003E06031DCF2A2E30C12A45084607BF00E9
:1046D2003F08860001308700810108004201650819
:1046E2007C060319822B7C08203E8600023087005C
:1046F20001084001B600B7013608B9003708BA0010
:10470200852B4001B901BA013908B6003608B80054
:104712000230B231E222A331922CAD014130AE001F
:10472200B830AF000030B4319724A3314001AD015D
:10473200AD0A7530AE00B830AF000030B431972406
:10474200A331BE2CAD015B30AE00B830AF000030FB
:10475200B4319724A3314001AD01AD0A9C30AE00C3
:10476200B830AF000030B4319724A331BE2CAD0174
:104772000430AE00B930AF000030B4319724A33119
:104782004001AD01AD0AC330AE00B830AF00003019
:10479200B4319724A331BE2CAD014130AE00B83004
:1047A200AF000030B4319724A3314001AD01AD0A0E
:1047B2001130AE00B930AF000030B4319724A331CC
:1047C200BE2CAD011E30AE00B930AF000030B431A6
:1047D2009724A3314001AD01AD0AD030AE00B8300C
:1047E200AF000030B4319724A331BE2CAD011E308E
:1047F200AE00B930AF000030B4319724A33140018C
:10480200AD01AD0AA930AE00B830AF000030B4310E
:104812009724A331BE2CAD014E30AE00B830AF00AC
:104822000030B4319724A3314001AD01AD0A8F307D
:10483200AE00B830AF000030B4319724A331BE2CA3
:10484200AD013830AE00B930AF000030B43197243A
:10485200A3314001AD01AD0AB630AE00B830AF00B1
:104862000030B4319724A331BE2CAD01EA30AE0042
:10487200B830AF000030B4319724A3314001AD010C
:10488200AD0A2B30AE00B930AF000030B4319724FE
:10489200A331BE2CAD010430AE00B930AF00003000
:1048A200B4319724A3314001AD01AD0A4530AE00C9
:1048B200B930AF000030B4319724A33188310020E1
:1048C200A331013A031DBE2C40019A15BE2CAD0145
:1048D200F730AE00B830AF000030B4319724A331C6
:1048E2004001AD01AD0A6830AE00B830AF00003013
:1048F200B4319724A331BE2CAD018230AE00B83062
:10490200AF000030B4319724A3314001AD01AD0AAC
:10491200DD30AE00B830AF000030B4319724A3319F
:10492200BE2C40013808B600B7013708003A031917
:104932009B2C7D2C3608013A03198E2B033A03195E
:10494200A32B013A0319B82B073A0319CD2B013ACD
:104952000319E22B033A0319F72B013A03190C2C22
:104962000F3A0319212C013A0319362C033A031981
:104972004B2C013A0319682C7D2C88310020A3317D
:10498200013A031DDC2C420165087C060319DC2C6C
:104992000A304001A0000030A1007C08013EA200C4
:1049A200003003180130A300B6315126400120081F
:1049B200B6003608FC004101ED01ED0A0800410194
:1049C2006B08C800C90148084001AD00410149080F
:1049D2004001AE001F30AF000030B000B331712390
:1049E200A43174304101CA002730CB0040012D08A8
:1049F20041014A07CC0040012E0841014B3DCD0048
:104A02000030B431C924A43141014C0886004D085C
:104A120087005E3101030319162D4C0886004D08EC
:104A220087005E310108031D1D2E6D080319232D19
:104A32004001AD012F30AE00BA30AF000030B431CA
:104A42009724A43141014C08103EB90000304D3D7D
:104A5200BA00BE30BE008030BD000030BC00003065
:104A6200BB004C0886004D0887004431403FBF0020
:104A7200413FC000423FC100433FC2003E30C6003A
:104A82008030C5000030C4000030C300AD3167255E
:104A9200A43141014C0886004D0887005031403F47
:104AA2004001A000413FA100423FA200433FA300BA
:104AB2000030A7000030A6000030A5000030A4009E
:104AC200B7316D27A431031C972DE6304101B300A5
:104AD2000130B4006B08013EC8004808B500B601B9
:104AE200B60AA9318F21A4314001AD01AD0AC83007
:104AF200AE00BA30AF000030B4319724A431400187
:104B0200AD01AD0AE630AE000130AF000530B43180
:104B12009724A4314001AD01AD0AA530AE00BA30F0
:104B2200AF000630B4319724A4315A2E41014C080B
:104B320086004D0887005031403FAD00413FAE0036
:104B4200423FAF00433FB0000030B4000030B3003A
:104B52000030B2000030B100AB313923A431031868
:104B6200E32DE6304101B3000130B4006B08013E91
:104B7200C8004808B500B601B60AA9318F21A43190
:104B82004001AD01AD0AC830AE00BA30AF0000300E
:104B9200B4319724A4314001AD01AD0AE630AE0034
:104BA2000130AF000530B4319724A4314001AD018A
:104BB200AD0AAC30AE00BA30AF000630B431972443
:104BC200A4315A2E4001AD01AD0AB830AE00BA3060
:104BD200AF000030B4319724A43141014C08860063
:104BE2004D0887005031403FB900413FBA00423F73
:104BF200BB00433FBC000430C8004808BD00BE01F2
:104C0200BE0AE630A2310822A4314001AD01AD0A4C
:104C1200E630AE000130AF000130B4319724A43148
:104C22004001AD01AD0A7530AE00BA30AF000530BB
:104C3200B4319724A4315A2E4C0886004D088700BF
:104C42005E310430010603192F2E4C0886004D08F0
:104C520087005E3103300106031D5C2E6D080319C7
:104C6200472E4001AD01E130AE00B930AF00003057
:104C7200B4319724A4314001AD01AD0A1530AE0024
:104C8200BA30AF000030B4319724A431883100200B
:104C9200A431023A031D5A2E41014C081E3EC8009F
:104CA20000304D3DC900480886004908870005309C
:104CB2008100003008000130080041016B08C70084
:104CC200C80147084001AD00410148084001AE005B
:104CD2001F30AF000030B000B3317123A631743001
:104CE2004101C9002730CA0040012D08410149078E
:104CF200CB0040012E0841014A3DCC004201670829
:104D0200B431C924A63141014B0886004C08870002
:104D12005E3101030319952E4B0886004C0887006B
:104D22005E310108031D5C2F4001AD012F30AE0042
:104D3200BA30AF000030B4319724A63141014B089C
:104D420086004C0887005031403F4001A000413F9F
:104D5200A100423FA200433FA3000030A700003061
:104D6200A6000030A5000030A400B7316D27A6319F
:104D7200031CE72E4001AD01AD0AC930AE00BA30C6
:104D8200AF000030B4319724A631E6304101B300C0
:104D92000130B4006B08013EC7004708B500B601F8
:104DA200B60AA9318F21A6314001AD01AD0AE63024
:104DB200AE000130AF000430B4319724A631400177
:104DC200AD01AD0A8530AE00BA302D2F41014B083E
:104DD20086004C0887005031403FAD00413FAE0095
:104DE200423FAF00433FB0000030B4000030B30098
:104DF2000030B2000030B100AB313923A6310318C4
:104E0200302F4001AD01AD0AC930AE00BA30AF005B
:104E12000030B4319724A631E6304101B3000130AD
:104E2200B4006B08013EC7004708B500B601B60AD8
:104E3200A9318F21A6314001AD01AD0AE630AE00A5
:104E42000130AF000430B4319724A6314001AD01E6
:104E5200AD0A9530AE00BA30AF000530B42F410133
:104E62004B0886004C0887005031403FB900413F53
:104E7200BA00423FBB00433FBC000430C7004708B2
:104E8200BD00BE01BE0AE630A2310822A6314001B1
:104E9200AD01AD0AE630AE000130AF000030B431F2
:104EA2009724A6314001AD01AD0A6430AE00BA309C
:104EB200AF000430B42F4B0886004C0887005E31E7
:104EC20002300106031D762F4001AD015230AE00C3
:104ED200B930AF000030B4319724A6314001AD01A2
:104EE200AD0ABA30AE00B930B22F4B0886004C087A
:104EF20087005E3105300106031D902F4001AD0190
:104F02006C30AE00B930AF000030B4319724A63116
:104F12004001AD01AD0AA030AE00B930B22F4B084E
:104F220086004C0887005E31043001060319A22F67
:104F32004B0886004C0887005E3103300106031DD2
:104F4200B72F4001AD015F30AE00B930AF00003085
:104F5200B4319724A6314001AD01AD0A7930AE00DB
:104F6200B930AF000030B4319724A6314001AD0111
:104F7200D430AE00B930AF000C30B4319724A63132
:104F820041014B0886004C0887005531403FB9006B
:104F9200413FBA00423FBB00433FBC000430C70060
:104FA2004708BD00BE01BE0AE630A2310822A63182
:104FB2004001AD01AD0AE630AE000130AF000C3069
:104FC200B4319724A6314001AD01AD0A8D30AE0057
:104FD200BA30AF001130B4319724A631023041010A
:104FE200C70047084001A7004201670887318D27A3
:0E4FF2004101C80048084201E70067080800B6
:105006004001A800A401A5012008A200A3012208CE
:10501600A6002308A700281C14282608A40727088A
:10502600A53D0130A635A70D890B15280310A80C40
:105036002808031D0E282508A1002408A000080042
:1050460040018C1B412804307D060319412842018A
:10505600EE010430F0007008FD00440135084201FD
:10506600DF00440134084201DE00440133084201F6
:10507600DD00440132084201DC00080004307D06F0
:10508600031D080042016E08F0007008F1000B30A5
:105096007102031C5A284730710203185A2840012E
:1050A6008C1F5A280130F0007008FD0008004730B8
:1050B6007102031C662840018C1B66280230F00032
:1050C6007008FD00080040018C1F08000330F00046
:1050D6007008FD0008004001A601A11F7928A0095B
:1050E600A109A00A0319A10AA601A60AA31F8428DA
:1050F600A209A309A20A0319A30A0130A4002408DD
:10510600A606A701A801200821040319B328A501B2
:10511600A50AA11B98280130A035A10D890B8F285F
:105126000130A4002408A5078C280130A735A80D56
:10513600890B992821082302031DA328200822028F
:10514600031CAA282008A2022108A33B2714013029
:10515600A136A00C890BAB280130A502031D9828A7
:1051660026080319BB28A709A809A70A0319A80A2C
:105176002808A1002708A0000800031041012A0DF5
:105186002B0DAC002C08B2003208031DD3280030CA
:10519600AB000030AA000030A9000030A8000800CB
:1051A6002808AC002908AD002A08AE002B08AF007D
:1051B6001F30AF36AE0CAD0CAC0C890BDC282C08BE
:1051C600B0003008B100AA17FF30A805FF30A905C6
:1051D600FF30AA050030AB059630B202B21F062991
:1051E6003208803A973E031CCA280130AB36AA0C17
:1051F600A90CA80C890BF9280130AC002C08B207C1
:1052060003191729F828203032020318CA28320851
:10521600031917290130A835A90DAA0DAB0D890B65
:105226000E290130B2020A29310803190800A8091B
:10523600A909AA09AB09A80A0319A90A0319AA0AFE
:105246000319AB0A080040012E08A0002F08A10090
:10525600A201A3010030B4000030B5000130B60051
:105266000030B7003008B4023108B53B3208B63B0F
:105276003308B73B3708A7003608A6003508A5004F
:105286003408A400B4313624A93140012008B800FE
:105296002108B9002208BA002308BB002C08A00088
:1052A6002D08A100A201A3013308A7003208A60019
:1052B6003108A5003008A400B4313624A9314001D4
:1052C6002008B8072108B93D2208BA3D2308BB3D8E
:1052D6003B08BF003A08BE003908BD003808BC00CC
:1052E6000030B4008030B5000030B6000030B700A2
:1052F6003C08B4073D08B53D3E08B63D3F08B73DFE
:105306001030B736B60CB50CB40C890B84293508A9
:10531600AD003408AC00080041013608B700B801FA
:105326003708330786003808343D87008101350881
:105336000319F42936080319F4290A304001A0009C
:105346000030A10041013508B700B8013708400117
:10535600A200410138084001A300B6315126A93107
:1053660040012008303E4101B9000130B60236083E
:10537600BA00BB013A083307BC003B08343DBD0008
:105386003C0886003D088700390881000A30400144
:10539600A0000030A10041013508B700B801370868
:1053A6004001A200410138084001A300A8316E2047
:1053B600A931400120084101B9003908B5009A29F0
:1053C6000130B6023608B700B80137083307B9000E
:1053D6003808343DBA00390886003A08870020307C
:1053E6008100360803190800E3290030B431C924C6
:1053F600A93141016D0803190A2A4001AD01AD30FA
:10540600AE00B930AF000030B4319724A9316B300B
:105416004101B9002730BA00C230BE004830BD0095
:105426000030BC000030BB00C130C200A030C1005B
:105436000030C0000030BF003F30C6008030C500DD
:105446000030C4000030C300AD316725A9316B3090
:10545600860027308700403F4101B900413FBA002E
:10546600423FBB00433FBC000330C8004808BD00B4
:10547600BE01E630A2310822A9314001AD01AD0AD4
:10548600B830AE00BA30AF000030B4319724A9313D
:105496004001AD01AD0AE630AE000130AF0001308B
:1054A600B4319724A9314001AD01AD0A5230AE00A6
:1054B600BA30AF000430B431972400300800003011
:1054C600B431C924AA3141016D080319742A400177
:1054D600AD011830AE00B830AF000030B4319724BB
:1054E600AA316F304101B9002730BA003D30BE0005
:1054F600CC30BD00CC30BC00CD30BB004030C2004B
:10550600A030C1000030C0000030BF003D30C600F2
:10551600CC30C500CC30C400CD30C300AD316725DA
:10552600AA316F30860027308700403F4101B9001D
:10553600413FBA00423FBB00433FBC000330C800B6
:105546004808BD00BE01BE0AE630A2310822AA31D3
:105556004001AD01AD0AB830AE00BA30AF00003040
:10556600B4319724AA314001AD01AD0AE630AE0050
:105576000130AF000130B4319724AA314001AD01AA
:10558600AD0A5B30AE00BA30AF000430B4319724B8
:10559600003008000030B431C924AA3141016D0839
:1055A6000319DF2A4001AD01C730AE00B930AF00A4
:1055B6000030B4319724AA3167304101B900273051
:1055C600BA000030BE000030BD000030BC00003024
:1055D600BB004130C2002030C1000030C0000030A6
:1055E600BF003F30C6000030C5000030C4000030A8
:1055F600C300AD316725AA314A30860027308700BF
:105606005D31403F4101B900413FBA00423FBB0016
:10561600433FBC000430C8004808BD00BE01BE0AB6
:10562600E630A2310822AA314001AD01AD0AB330FD
:10563600AE00BA30AF000030B4319724AA31400131
:10564600AD01AD0AE630AE000130AF000630B43130
:105656009724AA314001AD01AD0ADE30AE00BA3062
:10566600AF000A30B4319724003008000030410101
:105676002D05B50000302E05B60080302F05B70089
:105686007F303005B8003808370436043504031D6A
:10569600542B0030B0000030AF000030AE000030B8
:1056A600AD0000303105B50000303205B60080305F
:1056B6003305B7007F303405B800380837043604A0
:1056C6003504031D6E2B0030B4000030B3000030EB
:1056D600B2000030B100B01F882B0030B50000309A
:1056E600B6000030B7008030B8002D08B5022E088D
:1056F600B63B2F08B73B3008B83B3808B000370830
:10570600AF003608AE003508AD00B41FA22B00303E
:10571600B5000030B6000030B7008030B800310860
:10572600B5023208B63B3308B73B3408B83B3808F5
:10573600B4003708B3003608B2003508B10080302F
:10574600B0068030B40634083002031D0800330862
:105756002F02031D080032082E02031D080031081F
:105766002D0208004001191219119911413040010A
:10577600A700EE30890BBD2BA70BBD2B0000400107
:10578600991019109A121A120330B6310C26AB3141
:1057960007304001A7007D30890BCF2BA70BCF2BFD
:1057A6000830B6310C26AB3107304001A7007D30FA
:1057B600890BDB2BA70BDB2B0230B6310C26AB316A
:1057C60007304001A7007D30890BE72BA70BE72B9D
:1057D6000230B6310C26AB3107304001A7007D30D0
:1057E600890BF32BA70BF32B0830B6310C26AB3104
:1057F60007304001A7007D30890BFF2BA70BFF2B3D
:105806000830B231E222AB3107304001A7007D30CB
:10581600890B0B2CA70B0B2C0130B231E222AB31DA
:1058260007304001A7007D30890B172CA70B172CDA
:105836000630B231E222AB3107304001A7007D309D
:10584600890B232CA70B232C0230B231E222AB3179
:1058560007304001A7007D30890B2F2CA70B2F2C7A
:105866000C30B231E222AB3107304001A7007D3067
:10587600890B3B2CA70B3B2C080000304401E100B0
:105886000030E0000030DF000030DE00E301E30A14
:10589600E201B7312527AC3140019916AB31B5236A
:1058A600AC31B331B423AC310230B231E222AC3187
:1058B6000130B231E222AC3188310B20AC314001EB
:1058C6009A1564009831FB20AC314401610840010F
:1058D600A300440160084001A20044015F084001A2
:1058E600A10044015E084001A00090310020AC31C7
:1058F60040012308031D892C2208031D892C210839
:10590600031D892C06302002031C952C4401350802
:10591600E1003408E0003308DF003208DE009C3185
:105926006524AC31A031E820AC31003A0319A12C32
:105936008031D520AC314401E201E20A440163081A
:105946000319B12C62080319B92C94311424AC3113
:105956008B31CC23AC314401E301B92CAD31FD25AB
:10596600AC314101EA006A084401E300B33159232E
:10597600AC31003A0319C32CA3316F23AC31C62CCA
:1059860098311E20AC311A304101EA00F830890BFB
:10599600CA2CEA0BCA2C00000000642C4001BB0094
:1059A6003B08031DB61FE72C3309BD003409BE00B2
:1059B6003509BF003609C000BD0A0319BE0A03191E
:1059C600BF0A0319C00AEF2C3608C0003508BF000D
:1059D6003408BE003308BD003608350434043304E9
:1059E600031DFE2C0030B6000030B5000030B400B8
:1059F6000030B30008009630B7003708BC00FE3010
:105A060040050319252D0130B7003708BC070130C2
:105A1600C036BF0CBE0CBD0C890B0B2D022D013000
:105A2600B7003708BC070130BD070030BE3D003067
:105A3600BF3D0030C03D0130C036BF0CBE0CBD0CB2
:105A4600890B1F2DFF3040050319372D122D02300B
:105A56003C02031C392D0130BC020130BD35BE0DA0
:105A6600BF0DC00D890B312DBF1F2A2D3C18432DAC
:105A7600FF30BD05FF30BE057F30BF05FF30C005D6
:105A86000310BC0C3C08B700B801B901BA011830C4
:105A9600B735B80DB90DBA0D890B4B2D3708BD04B6
:105AA6003808BE043908BF043A08C0043B08031D81
:105AB600B61F5E2DC0174008B6003F08B5003E0869
:105AC600B4003D08B3000800B3310123AD314001F5
:105AD600EF006F084101C70002304706031DB12DD4
