:020000040000FA
:0400000080317928AA
:100008007E1480314E01961A8C1E1C280130400146
:10001800A8002808E20704307D06031D1628903141
:1000280001208031B2304B019C004E018C127728A0
:10003800161A0C1E38287E01BF1F27289031012070
:1000480080317E01BF133F1E2E28B23144228031F9
:100058007E013F12BF1E3528B231442280317E0115
:10006800BF124E010C1277280B1F77281A18101C84
:10007800702843016E084001AB0043016D08400140
:10008800AA0043016C084001A90043016B08400124
:10009800A80001304301EB070030EC3DED3DEE3D9B
:1000A800003040012802CA30293B9A302A3B3B30B5
:1000B8002B3B031C682800304301EE000030ED00A4
:1000C8000030EC000030EB00CF3044018D002B30C5
:1000D8008C004E0110107728991A8F1E7728B4319A
:1000E800D6244E018F127E10090080317B2887317B
:1000F800FA278031E30043018731FB278031EF0085
:10010800A4308400BE308500583086000230870055
:100118000030FF000C30BE31982680314A30840010
:1001280027308500A630FE000030FF00BE318C2647
:100138008031FD0158308400003085000B30FE000E
:100148000030FF00BE318C2680314201E901EA010E
:10015800EB01EC014301E701E801E901EA01EB01E8
:10016800EC01ED01EE0120308400023085002930D9
:10017800FE000030FF00BE318C268031A0308400A4
:10018800023085004230FE000030FF00BE318C2670
:100198007E10400190313B284201D80104305802BA
:1001A800031808003C304001CC00D030CB0013309D
:1001B800CA00A930C900420158084101C900CA0152
:1001C80049084001B50041014A084001B6001F3006
:1001D800B7000030B800BF310A27803174304101C0
:1001E800CB002730CC004001350841014B07CD003A
:1001F8004001360841014C3DCE004D0886004E08AE
:1002080087005531403F4001CD00413FCE00423F7D
:10021800CF00433FD0008831BA20803140014C08DC
:100228004201C30040014B084201C20040014A0894
:100238004201C100400149084201C000403040016C
:10024800CC004830CB00F530CA00C330C9004201A9
:1002580043084001D000420142084001CF0042015A
:1002680041084001CE00420140084001CD008831DC
:10027800BA20803140014C084201CF0040014B08B0
:100288004201CE0040014A084201CD004001490820
:100298004201CC0040304101B0008030AF00003056
:1002A800AE000030AD00420143084001CC004201DD
:1002B80042084001CB00420141084001CA00420106
:1002C80040084001C90042014F084001D0004201E6
:1002D8004E084001CF0042014D084001CE004201C6
:1002E8004C084001CD008831BA20803140014C08CB
:1002F8004101B40040014B084101B30040014A08E4
:100308004101B200400149084101B100A6316D2602
:100318008031410130084201CB0041012F084201E0
:10032800CA0041012E084201C90041012D084201BD
:10033800C8004A308600273087005D31403F4101C0
:10034800B100413FB200423FB300433FB4004A30DE
:100358008600273087004831403FB500413FB6004E
:10036800423FB700433FB8009E3106268031410125
:1003780034084201AB00410133084201AA0041019F
:1003880032084201A900410131084201A800433066
:100398004101B4008830B3009330B2003330B1006B
:1003A80042012B084101B80042012A084101B70067
:1003B800420129084101B600420128084101B5005F
:1003C8009E3106268031410134084201D3004101A3
:1003D80033084201D200410132084201D1004101F3
:1003E80031084201D00043304101B4008830B300E5
:1003F8009330B2003330B1006B308600273087006D
:10040800403FB500413FB600423FB700433FB80008
:100418009E3106268031410134084201D70041014E
:1004280033084201D600410132084201D50041019A
:1004380031084201D40057084001D0004201560853
:100448004001CF00420155084001CE004201540846
:100458004001CD00420157084001CC004201560836
:100468004001CB00420155084001CA00420154082E
:100478004001C9008831BA20803140014C0842014E
:10048800CF0040014B084201CE0040014A0842011A
:10049800CD00400149084201CC004F084001D0007E
:1004A80042014E084001CF0042014D084001CE00F4
:1004B80042014C084001CD00420157084001CC00E0
:1004C800420156084001CB00420155084001CA00CC
:1004D800420154084001C9008831BA2080314001E6
:1004E8004C084201AF0040014B084201AE004001F8
:1004F8004A084201AD00400149084201AC005308D6
:100508004001CC00420152084001CB004201510891
:100518004001CA00420150084001C9004201530885
:100528004001D000420152084001CF004201510869
:100538004001CE00420150084001CD008831BA2068
:10054800803140014C084201B30040014B08420190
:10055800B20040014A084201B10040014908420185
:10056800B00053084001CC00420152084001CB00C2
:10057800420151084001CA00420150084001C90027
:10058800420133084001D000420132084001CF0047
:10059800420131084001CE00420130084001CD003F
:1005A8008831BA20803140014C084201B70040012F
:1005B8004B084201B60040014A084201B50040011B
:1005C80049084201B40033304001CC006730CB0009
:1005D8005930CA003230C90042014B084001D000EE
:1005E80042014A084001CF00420149084001CE00BB
:1005F800420148084001CD008831BA2080314001CD
:100608004C084201BB0040014B084201BA004001BE
:100618004A084201B900400149084201B8002F08C0
:100628004001D00042012E084001CF0042012D08B0
:100638004001CE0042012C084001CD00420157087C
:100648004001CC00420156084001CB004201550848
:100658004001CA00420154084001C9008831BA204B
:10066800803140014C084101B00040014B08410174
:10067800AF0040014A084101AE004001490841016C
:10068800AD00BE315726803141013008B4002F0833
:10069800B3002E08B2002D08B100420153084001F2
:1006A800CC00420152084001CB00420151084001F0
:1006B800CA00420150084001C90042013708400100
:1006C800D000420136084001CF0042013508400100
:1006D800CE00420134084001CD008831BA20803173
:1006E80040014C084101B80040014B084101B700E6
:1006F80040014A084101B600400149084101B500DE
:100708009E3106268031410134084201BF00410173
:1007180033084201BE00410132084201BD004101D7
:1007280031084201BC003B084001CC0042013A08B4
:100738004001CB00420139084001CA004201380893
:100748004001C90042013F084001D00042013E0873
:100758004001CF0042013D084001CE0042013C0863
:100768004001CD008831BA20803140014C08420157
:10077800C70040014B084201C60040014A08420137
:10078800C500400149084201C40058084101C90098
:10079800CA0149084001B50041014A084001B600B4
:1007A8001F30B7000030B800BF310A2780317430DD
:1007B8004101CB002730CC004001350841014B07EF
:1007C800CD004001360841014C3DCE004D08860061
:1007D8004E0887004831420147084001CC004201D9
:1007E80046084001CB00420145084001CA004201C9
:1007F80044084001C9006F30840027308500003F5D
:10080800CD00013FCE00023FCF00033FD00088312A
:10081800BA20803140014908C03F4A08C13F4B080F
:10082800C23F4C08C33F3E30CC002330CB0057308A
:10083800CA001D30C900420158084101C900CA0157
:1008480049084001B50041014A084001B6001F307F
:10085800B7000030B800BF310A2780317430410139
:10086800CB002730CC004001350841014B07CD00B3
:100878004001360841014C3DCE004D0886004E0827
:1008880087005531403F4001CD00413FCE00423FF7
:10089800CF00433FD0008831BA20803140014C0856
:1008A8004201A30040014B084201A20040014A084E
:1008B8004201A100400149084201A0003C3040012A
:1008C800CC00F530CB00C230CA008F30C9004201DD
:1008D80023084001D000420122084001CF00420114
:1008E80021084001CE00420120084001CD00883196
:1008F800BA20803140014C084201CB0040014B082E
:100908004201CA0040014A084201C90040014908A1
:100918004201C8003F304001CC005930CB0099302B
:10092800CA009A30C90040304101B0000030AF0021
:100938000030AE000030AD00420158084101C90046
:10094800CA0149084001B50041014A084001B60002
:100958001F30B7000030B800BF310A27803174302B
:100968004101CB002730CC004001350841014B073D
:10097800CD004001360841014C3DCE004D088600AF
:100988004E0887005531403FB100413FB200423F19
:10099800B300433FB400A6316D26803141013008D1
:1009A8004001D00041012F084001CF0041012E082D
:1009B8004001CE0041012D084001CD008831BA2008
:1009C800803140014C084201CF0040014B084201F0
:1009D800CE0040014A084201CD00400149084201C9
:1009E800CC004B084001CC0042014A084001CB0032
:1009F800420149084001CA00420148084001C900B3
:100A080042014F084001D00042014E084001CF008A
:100A180042014D084001CE0042014C084001CD0082
:100A28008831BA20803140014C084201A7004001BA
:100A38004B084201A60040014A084201A5004001B6
:100A480049084201A40058084101C900CA014908DF
:100A58004001B50041014A084001B6001F30B70007
:100A68000030B800BF310A27803174304101CB0013
:100A78002730CC004001350841014B07CD0040012B
:100A8800360841014C3DCE004D0886004E088700CF
:100A980059314A308400273085000831003FAD00C5
:100AA800013FAE00023FAF00033FB000BE31572602
:100AB800803141013008B4002F08B3002E08B2007D
:100AC8002D08B100420127084001CC004201260848
:100AD8004001CB00420125084001CA004201240818
:100AE8004001C900420147084001D00042014608C0
:100AF8004001CF00420145084001CE0042014408B0
:100B08004001CD008831BA20803140014C084101B4
:100B1800B80040014B084101B70040014A084101B3
:100B2800B600400149084101B5009E3106268031D2
:100B380041013108C03F3208C13F3308C23F340881
:100B4800C33F0130C90049084201D807D2284101F2
:100B58005D084201DE0041015C084201DD00003011
:100B6800410161023C30031960020318080020307B
:100B7800E40064084201DC004101600842015C07AE
:100B88004101E400640886000130870081014201C8
:100B9800E301E4014301A001A10141015E08FF3E18
:100BA8004301A200FF3041015F3D4301A300420120
:100BB80063084101E4000130E435FF3E031DE02DE8
:100BC8006435A03E860001308700403F4201DF00C7
:100BD800413FE00063084101E4000130E435FF3E95
:100BE800031DF22D6435023EA03E860001308700C9
:100BF800403F4201E100413FE200FF30E307FF30A0
:100C0800E43D42016008E6005F08E5006208E8008C
:100C18006108E70002304001AC000030AD0042013D
:100C2800670865074001AE0042016808663D40015B
:100C3800AF00B3316423853140012D08B6002C087C
:100C4800B500410161084001B80041016008400158
:100C5800B700BF310A2785314001350842015D07D9
:100C68004101E4004001360842015E3D4101E500D2
:100C780064084001BB00410165084001BC00410116
:100C880061084001BE00410160084001BD00420109
:100C98005C08983101208531420166084001B600A0
:100CA800420165084001B500410161084001B800F2
:100CB800410160084001B700BF310A278531400172
:100CC800350842015D074101E40040013608420150
:100CD8005E3D4101E5006408D2006508D300420189
:100CE8005C084101D4000130D50063088A0062081D
:100CF8000A0086314101D31F8C2E01304201E507DD
:100D08000030E63D502EFF304201E707FF30E83D56
:100D180042015C084101D2000130D3004201680859
:100D28004001B600420167084001B5004101610871
:100D38004001B800410160084001B700BF310A27EF
:100D480085314001350842015D074101E400400159
:100D5800360842015E3D4101E5006408D40065089B
:100D6800D50063088A0062080A0086314101D31B56
:100D7800872E42016808803A4101E4004201660872
:100D8800803A41016402031DCC2E420165086702C6
:100D9800031C1E2F410161084001BC00410160088D
:100DA8004001BB00420166084001B60042016508E7
:100DB8004001B500410161084001B80041016008E7
:100DC8004001B700BF310A2785314001350842018B
:100DD8005D074001BD00360842015E3D4001BE008E
:100DE800420168084001B600420167084001B500A9
:100DF800410161084001B800410160084001B700A5
:100E0800BF310A2785314001350842015D0740019D
:100E1800BF00360842015E3D4001C000BF31A22735
:100E2800853101304201E5070030E63DFF30E70734
:100E3800FF30E83D42016808803A4101E400420180
:100E48006608803A41016402031D2D2F420165089E
:100E580067020318502E420165094101E40042016E
:100E680066094101E500E40A0319E50A420161083F
:100E780041016407E600420162084101653DE7005F
:100E880042015F094101E800420160094101E900AE
:100E9800E80A0319E90A4201670841016807EA00FC
:100EA800420168084101693DEB006B08803AEC009B
:100EB8006708803A6C02031D632F66086A020318EC
:100EC800A62F42016608803A4101E4004201620807
:100ED800803A41016402031D742F420161086502D2
:100EE8000318A02F01304201E3070030E43D6308F6
:100EF8004101E4000130E435FF3E031D7F2F6435D6
:100F0800A03E86000130870042016508C03F6608A0
:100F1800C13F63084101E4000130E435FF3E031D91
:100F2800912F6435023EA03E8600013087004201C1
:100F38006108C03F6208C13F42016808E2006708D3
:100F4800E100E62F42016008803A4101E4004201D5
:100F58006808803A41016402031DB52F4201670801
:100F68005F020318E12F01304201E3070030E43D3E
:100F780063084101E4000130E435FF3E031DC02F42
:100F88006435A03E86000130870042015F08C03FFB
:100F98006008C13F63084101E4000130E435FF3EC9
:100FA800031DD22F6435023EA03E86000130870023
:100FB80042016708C03F6808C13F42016608E00077
:100FC8006508DF006008803A4101E40042016208D8
:100FD800803A41016402031DF42F420161085F0257
:100FE800031C052E4201E41B0800DB2D01340134EB
:10100C0040015A08B0315D20883140016308031952
:10101C00AA28B301B730B400B830B5000030B031F5
:10102C008E2088314001B301B30ABD30B400BB300F
:10103C00B5000030B0318E2088314A308600273020
:10104C0087005D31403F4101D900413FDA00423F0A
:10105C00DB00433FDC000430E7006708DD00DE0105
:10106C00DE0A3F30A031A02088314001B301B30A21
:10107C003F30B4000230B5000630B0318E208831DC
:10108C004001B301B30AD930B400BB30B5000A300B
:10109C00B0318E2088316B30860027308700403F7E
:1010AC004101D900413FDA00423FDB00433FDC0005
:1010BC000330E7006708DD00DE013F30A031A020DF
:1010CC0088314001B301B30A3F30B4000230B5009F
:1010DC000C30B0318E2088314001B301B30A44305A
:1010EC00B400BB30B5000F30B0318E2088316F307A
:1010FC00860027308700403F4101D900413FDA008C
:10110C00423FDB00433FDC000330E7006708DD00B3
:10111C00DE01DE0A3F30A031A02088314001B3014E
:10112C00B30A3F30B4000230B5001830B0318E2015
:10113C0088314001B301B30A5130B400BA30B50064
:10114C001C30B0318E20883103304101E700670834
:10115C004001B3005A08B43108244101E800680882
:10116C004001DA005A08080040014C088039D100CF
:10117C0051084101A00040014C35D10051084101FA
:10118C00A2004001CB1FCC284101221441012208AE
:10119C000319DF28220A031DDC2800304001CC0093
:1011AC000030CB000030CA000030C9004001CB1722
:1011BC00E82800304001CC000030CB000030CA00E1
:1011CC000030C90050088039D10051084101A006F7
:1011DC0040015035D10051084101A1004001CF1F01
:1011EC00F928410121144101210803190C29210A74
:1011FC00031D092900304001D0000030CF00003021
:10120C00CE000030CD004001CF1715290030400131
:10121C00D0000030CF000030CE000030CD004101B6
:10122C002108031D2208031D252900304001CC0094
:10123C000030CB000030CA000030C900080040016B
:10124C004908D1005108AC004F08BF3162278831E2
:10125C0040012D084101AC0040012C084101AB00BC
:10126C002B084001D100D201D301D4015408410113
:10127C00A600400153084101A5004001520841015C
:10128C00A400400151084101A3002C084001D100E9
:10129C00D201D301D40154084101AA0040015308E2
:1012AC004101A900400152084101A8004001510828
:1012BC004101A70040014A08D1005108AC004E087A
:1012CC00BF316227883140012D084101AC0040013B
:1012DC002C084101AB002B084001D100D201D301F5
:1012EC00D40151084101A307400152084101A43D1A
:1012FC00400153084101A53D400154084101A63D60
:10130C002C084001D100D201D301D4015108410174
:10131C00A707400152084101A83D40015308410173
:10132C00A93D400154084101AA3D40014B08D100A0
:10133C005108AC004D08BF316227883140012D089F
:10134C004101AC0040012C084101AB002B084001CD
:10135C00D100D201D301D40151084101A3074001AE
:10136C0052084101A43D400153084101A53D4001F3
:10137C0054084101A63D2C084001D100D201D301F3
:10138C00D40151084101A707400152084101A83D71
:10139C00400153084101A93D400154084101AA3DB7
:1013AC000830A335A40DA50DA60D890BD729400136
:1013BC004A08D1005108AC004D08BF316227883172
:1013CC0040012D084101AC0040012C084101AB004B
:1013DC002B08A3072C08A43D0030A53DA63D4001D9
:1013EC004908D1005108AC004E08BF316227883142
:1013FC0040012D084101AC0040012C084101AB001B
:10140C002B08A3072C08A43D0030A53DA63D0830B1
:10141C00A335A40DA50DA60D890B0E2A4001490874
:10142C00D1005108AC004D08BF3162278831400112
:10143C002D084101AC0040012C084101AB002B08E8
:10144C00A3072C08A43D0030A53DA63D40014A0849
:10145C00D1005108AC004F08BF31622788314001E0
:10146C002D084101AC0040012C084101AB002B08B8
:10147C00A7072C08A83D0030A93DAA3D40014B0808
:10148C00D1005108AC004E08BF31622788314001B1
:10149C002D084101AC0040012C084101AB002B0888
:1014AC00A7072C08A83D0030A93DAA3D40014B08D8
:1014BC00D1005108AC004F08BF3162278831400180
:1014CC002D084101AC0040012C084101AB002B0858
:1014DC004001D10041012C084001D200D301D401BC
:1014EC000830D135D20DD30DD40D890B772A510884
:1014FC004101A707400152084101A83D4001530892
:10150C004101A93D400154084101AA3D2308400175
:10151C00D100410124084001D200410125084001BD
:10152C00D300410126084001D4001830D436D30C26
:10153C00D20CD10C890B9C2A51084101A707400100
:10154C0052084101A83D400153084101A93D400109
:10155C0054084101AA3D0830A335A40DA50DA60DD4
:10156C00890BB22A220821074001D100D201D20DE9
:10157C005108823E4101AB00FF304001523D410118
:10158C00AC00A91BDE2A0130A735A80DA90DAA0DA8
:10159C00890BCA2AA61B27140130A335A40DA50D4F
:1015AC00A60D890BD32AFF30AB07FF30AC3DC72A01
:1015BC00A101A61F012BFF3023054001D100FF30F4
:1015CC00410124054001D200FF30410125054001B5
:1015DC00D3007F30410126054001D4005408530448
:1015EC00520451040319FC2A4101FF2A4101271C12
:1015FC00012BA101A10A21080319382B0130A707DF
:10160C000030A83D0030A93D0030AA3D2A1C382BE3
:10161C0027084001D100410128084001D2004101B6
:10162C0029084001D30041012A084001D4000130AF
:10163C00D500D437D30CD20CD10CD50B1F2B54089E
:10164C004101AA00400153084101A9004001520880
:10165C004101A800400151084101A7000130AB072E
:10166C000030AC3D2C08803A4001D1008030510252
:10167C00031D432BFF3041012B02031C4F2B7F30EA
:10168C004101AA008030A9000030A8000030A7005A
:10169C007F2B41012C08803A4001D100803051024F
:1016AC00031D5B2B013041012B020318682B00300A
:1016BC004101AA000030A9000030A8000030A700AA
:1016CC00A0017F2B41012B084001D10051084101A1
:1016DC00A200FF30A705FF30A8057F30A905003018
:1016EC00AA052218A91722364001D1005108410140
:1016FC00AA0020084001D10051084101AA042A087F
:10170C004001CC00410129084001CB0041012808CF
:10171C004001CA00410127084001C90008004601E8
:10172C00B601043036020318462C36082C3E8600CF
:10173C0003308700810181033608323E8600033076
:10174C0087008101810336084401C900CA010930B0
:10175C00CB004B084001AC0046013608BE31B02628
:10176C008B31AA3E86000230870044014908C03FF5
:10177C004A08C13F460136084401C900CA0149085C
:10178C004001B50044014A084001B6001F30B700C3
:10179C000030B800BF310A278B3174304401CB00C4
:1017AC002730CC004001350844014B07860040012E
:1017BC00360844014C3D8700403FCD00413FCE00F0
:1017CC00423FCF00433FD0000930D10051084001C7
:1017DC00AC0046013608BE31B0268B31023EAA3E23
:1017EC0086000230870044014D08C03F4E08C13FBF
:1017FC004F08C23F5008C33F460136084401C90098
:10180C00CA0149084001B50044014A084001B6002C
:10181C001F30B7000030B800BF310A278B3174304D
:10182C004401CB002730CC004001350844014B0764
:10183C00CD004001360844014C3DCE004D088600D9
:10184C004E08870054310108CF000930D0005008F1
:10185C004001AC0046013608BE31B0268B31063E45
:10186C00AA3E86000230870044014F0881000130F7
:10187C00C90049084601B60704303602031C9B2BED
:10188C00AA304101DC000230DD000430DE00003003
:10189C00DF000930E0000030E1007630E20031304A
:1018AC00E3008531AB258B3100304601AB000030B5
:1018BC00AA000030A9000030A8002B08A7002A08B5
:1018CC00A6002908A5002808A4002708A3002608BC
:1018DC00A2002508A1002408A000B101B001B601A6
:1018EC00043036020318E12D09304401C9004908BF
:1018FC004001AC0046013608BE31B0268B31023EA9
:10190C00AA3E860002308700403F4101B100413FB2
:10191C00B200423FB300433FB400460123084101EB
:10192C00B800460122084101B700460121084101D7
:10193C00B600460120084101B5009E3106268B31C8
:10194C00410134084601A300410133084601A200BD
:10195C00410132084601A100410131084601A000B5
:10196C0040304101CC006030CB000030CA00003068
:10197C00C900460127084101B4004601260841016F
:10198C00B300460125084101B2004601240841017B
:10199C00B10009304401C90049084001AC004601BE
:1019AC003608BE31B0268B31023EAA3E860002308C
:1019BC008700403F4101B500413FB600423FB700B0
:1019CC00433FB8009E3106268B3141013408D000CC
:1019DC003308CF003208CE003108CD0098312D20CD
:1019EC008B31031C472D09304401C90049084001C3
:1019FC00AC0046013608BE31B0268B31023EAA3E01
:101A0C00860002308700403F4101B100413FB200E7
:101A1C00423FB300433FB400460127084101B800E0
:101A2C00460126084101B700460125084101B600D0
:101A3C00460124084101B5009E3106268B31410137
:101A4C0034084601A700410133084601A6004101B4
:101A5C0032084601A500410131084601A4003608B0
:101A6C004401C900460130082C3E86000330870033
:101A7C004401490881000130C90049084601B007FA
:101A8C00D72D40304101CC006030CB000030CA0073
:101A9C000030C90046012B084101B40046012A0858
:101AAC004101B300460129084101B2004601280852
:101ABC004101B10009304401C90049084001AC00A2
:101ACC0046013608BE31B0268B31023EAA3E860056
:101ADC0002308700403F4101B500413FB600423F14
:101AEC00B700433FB8009E3106268B3141013408C4
:101AFC00D0003308CF003208CE003108CD00983129
:101B0C002D208B31031CD72D09304401C900490805
:101B1C004001AC0046013608BE31B0268B31023E86
:101B2C00AA3E860002308700403F4101B100413F90
:101B3C00B200423FB300433FB40046012B084101C1
:101B4C00B80046012A084101B700460129084101A5
:101B5C00B600460128084101B5009E3106268B319E
:101B6C00410134084601AB00410133084601AA008B
:101B7C00410132084601A900410131084601A80083
:101B8C0036084401C90046013108323E8600033054
:101B9C0087004401490881000130C9004908460109
:101BAC00B10701304401C90049084601B6070430A9
:101BBC003602031C7A2C2C304101DC000330DD0092
:101BCC00460130084401C900CA0149084101DE0040
:101BDC0044014A084101DF000130E0000030E1001F
:101BEC003630E2003130E3008531AB258B313230B9
:101BFC004101DC000330DD00460131084401C9001D
:101C0C00CA0149084101DE0044014A084101DF00D4
:101C1C000130E0000030E100F630E2003030E3004B
:101C2C008531AB258B314601B601300836020318DD
:101C3C00DD2E3608323E860003308700811B922E43
:101C4C0009304401C90049084001AC00460136087E
:101C5C00323E8600033087000108BE31B0268B313E
:101C6C00063EAA3E86000230870009304401CA00B5
:101C7C004A084001AC00460136082C3E8400033073
:101C8C0085000008BE31B0268B31063EAA3E84008A
:101C9C0002308500000801074401CB00CC01CC0DBB
:101CAC004C08803ACD0080304D02031D5F2E65300C
:101CBC004B02031C922E09304401C9004908400113
:101CCC00AC00460136082C3E860003308700010824
:101CDC00BE31B0268B31063EAA3E8600023087000C
:101CEC000103FF3A643E4401CA000930CB004B08A3
:101CFC004001AC0046013608323E860003308700B6
:101D0C000108BE31B0268B31063EAA3E8600023059
:101D1C00870044014A08810009304401C900490880
:101D2C004001AC00460136082C3E8600033087008B
:101D3C000108BE31B0268B31073EAA3E8600023028
:101D4C008700810109304401C90049084001AC00F9
:101D5C00460136082C3E8600033087000108BE3150
:101D6C00B0268B31063EAA3E860002308700010861
:101D7C004401CA000930CB004B084001AC004601BD
:101D8C0036082C3E8600033087000108BE31B02691
:101D9C008B31083EAA3E86000230870044014A0877
:101DAC0081000130C90049084601B6071B2EB60157
:101DBC00310836020318322F09304401C900490892
:101DCC004001AC0046013608323E860003308700E5
:101DDC000108BE31B0268B31063EAA3E8600023089
:101DEC0087000103FF3A643E4401CA000930CB006E
:101DFC004B084001AC0046013608323E86000330E9
:101E0C0087000108BE31B0268B31073EAA3E860002
:101E1C000230870044014A0881006430C90009304F
:101E2C00CA004A084001AC0046013608323E860022
:101E3C00033087000108BE31B0268B31083EAA3E24
:101E4C008600023087004401490881000130C90036
:101E5C0049084601B607DE2EB601043036020318D7
:101E6C00080009304401C90049084001AC00460192
:101E7C003608BE31B0268B31AA3E86000230870070
:101E8C00403F4001B500413FB6001F30B700003065
:101E9C00B800BF310A278B3174304401CA00273097
:101EAC00CB004001350844014A07CC0040013608FC
:101EBC0044014B3DCD004C0886004D0887004C3149
:101ECC0042304101B000C830AF000030AE000030ED
:101EDC00AD001F304001B7000030B800093044019C
:101EEC00CE004E084001AC0046013608BE31B0268B
:101EFC008B31AA3E840002308500003F4001B500C2
:101F0C00013FB600BF310A278B3174304401CF003A
:101F1C002730D0004001350844014F07D100400163
:101F2C0036084401503DD200510884005208850007
:101F3C000431003F4001C900013FCA00023FCB0001
:101F4C00033FCC0009304401D30053084001AC00DE
:101F5C0046013608BE31B0268B31063EAA3E8400BF
:101F6C000230850000084401D400D501D601D70108
:101F7C0057084001BE00440156084001BD00440111
:101F8C0055084001BC00440154084001BB0001301D
:101F9C00AA31D4228B3140013E08D0003D08CF003D
:101FAC003C08CE003B08CD008831BA208B31400173
:101FBC004C084101B40040014B084101B300400101
:101FCC004A084101B200400149084101B100A63163
:101FDC006D268B3141012D08C03F2E08C13F2F08C3
:101FEC00C23F3008C33F01304401C90049084601D3
:041FFC00B607332FC2
:1020020040018C1B172804307D0603191728E201B2
:102012000430F0007008FD0043016E08EA006D080C
:10202200E9006C08E8006B08E700080004307D0650
:10203200031D08000B3040016202031C2A284730AE
:102042006202031C8C1F2A280130F0007008FD0078
:1020520008004730620203188C1B34280230F0005B
:102062007008FD0008008C1F08000330F0007008A3
:10207200FD00080000304301E3000030E2000030C0
:10208200E1000030E000E501E50AE401E601B331D8
:102092001B23903140019916A9312F219031BE3175
:1020A200EF2690310230BE314D2690310130BE31E3
:1020B2004D269031AE31F226903140019A158C1F97
:1020C2006528A8312320903164009A316A22903128
:1020D200430163084001AF00430162084001AE00C2
:1020E200430161084001AD00430160084001AC00BA
:1020F200B7318027903140012F08031D8A282E080E
:10210200031D8A282D08031D8A2806302C02031C71
:10211200962843016E08E3006D08E2006C08E100B6
:102122006B08E000A23109229031AD31E9259031EE
:10213200003A0319C2288031D02090314301E401D2
:10214200E40A7330860027308700811DC2284A3096
:10215200860027308700403F4101C900413FCA0045
:10216200423FCB00433FCC003F30D0008030CF0015
:102172000030CE000030CD0098312D209031031C6C
:102182000000430165080319D22864080319DA28FC
:102192009331DF2390318B31952390314301E50157
:1021A200DA28AC31342490314101EF006F08430149
:1021B200E500BE31C2269031003A0319ED284301F1
:1021C2006E08EA006D08E9006C08E8006B08E70099
:1021D200A33174239031F42843016608031DF428C7
:1021E200B631952690314301660803191B296A0806
:1021F2004001AF00430169084001AE004301680895
:102202004001AD00430167084001AC00B7318027AF
:10221200903140012F08031D1B292E08031D1B2985
:10222200B0302C0204302D3B03181B294301E60178
:102232000C303F2943016A084001AF00430169089D
:102242004001AE00430168084001AD004301670848
:102252004001AC00B7318027903140012F08031DA7
:102262003B292E08031D3B29B1302C0204302D3BA3
:10227200031C42294301E601E60A0830BE314D261D
:10228200903134304101EF00F130890B4629EF0BD8
:10229200462900320000652840015C08B0315D200B
:1022A2009131400163080319252A4201A401043037
:1022B20024020318252A4001B301D230B400BB30F6
:1022C200B5000C304101E70067084001AC00420153
:1022D2002408BE31B0269131B0318E2091314201B5
:1022E2002408013E4101E70067084001B500B6013C
:1022F200B60A3F30B331B62391314001B3013F30CA
:10230200B4000230B5000C304101E700670840011B
:10231200AC0042012408BE31B0269131033EB031F7
:102322008E2091314001B301DF30B400BB30B500E3
:102332000C304101E70067084001AC00420124086B
:10234200BE31B0269131043EB0318E20913142012E
:1023520024084101E700E80167084001B500410196
:1023620068084001B6001F30B7000030B800BF3126
:102372000A27913174304101E9002730EA00400117
:10238200350841016907EB004001360841016A3D09
:10239200EC006B0886006C0887005531403F420113
:1023A200A000413FA100423FA200433FA3002308F7
:1023B2004101DC00420122084101DB004201210807
:1023C2004101DA00420120084101D9000430E7004E
:1023D2006708DD00DE01DE0A3F30A031A020913126
:1023E2004001B3013F30B4000230B5000C3041016E
:1023F200E70067084001AC0042012408BE31B02664
:102402009131063EB0318E2091314001B301DC3072
:10241200B400BB30B5000C304101E7006708400151
:10242200AC0042012408BE31B02691310A3EB031DF
:102432008E20913101304101E70067084201A40773
:1024420004302402031C5C294201A4018B2B4001AD
:10245200B301B30AEA30B400BA30762B4001B301BB
:10246200B30A8F30B400BA30762B420124084101FE
:10247200E700E80167084001B50041016808400132
:10248200B6001F30B7000030B800BF310A279131C3
:1024920074304101E9002730EA004001350841016A
:1024A2006907EB004001360841016A3DEC006B0808
:1024B20086006C0887004C31403F4201A000413F3A
:1024C200A100423FA200433FA30023084101DC00D8
:1024D200420122084101DB00420121084101DA00E8
:1024E200420120084101D9000430E7006708DD00FD
:1024F200DE01DE0A3F30A031A02091314001B3015C
:10250200B30A3F30B4000230B5000C304101E7009D
:1025120067084001AC0042012408BE31B026913167
:10252200B0318E209131420124084101E700E801D7
:1025320067084001B500410168084001B6001F303C
:10254200B7000030B800BF310A2791317430410121
:10255200E9002730EA004001350841016907EB0034
:102562004001360841016A3DEC006B0886006C08A8
:1025720087005D310103031D472B4001B301B30AFC
:10258200E230B400BB30B5000C304101E70067080F
:102592004001AC0042012408BE31B0269131043E14
:1025A200B0318E209131420124084101E700E80157
:1025B20067084001B500410168084001B6001F30BC
:1025C200B7000030B800BF310A27913174304101A1
:1025D200E9002730EA004001350841016907EB00B4
:1025E2004001360841016A3DEC006B0886006C0828
:1025F20087004831403F4201A000413FA100423FD5
:10260200A200433FA30023084101DC00420122084B
:102612004101DB00420121084101DA0042012008A8
:102622004101D9000430E7006708DD00DE01DE0A5F
:102632003F30A031A02091314001B301B30A3F30B5
:10264200B4000230B5000C304101E70067084001D8
:10265200AC0042012408BE31B0269131063EB031B1
:102662008E2091314001B301B30AE530B400BB3092
:10267200B5000C304101E70067084001AC0042019F
:102682002408BE31B02691310A3E822B4001B301AB
:10269200B30A6030B400BB30B5000C304101E70032
:1026A20067084001AC0042012408BE31B0269131D6
:1026B200043E822B4001B301B30A0430B400BB30A4
:1026C200762B4001B301B30A8230B400BA30762BC4
:1026D2004001B301B30AF730B400BA30762B40019F
:1026E200B301B30A1E30B400BB30B5000C30410157
:1026F200E70067084001AC0042012408BE31B02661
:102702009131B0318E20913101304101E7006708EB
:102712004201A407043024020318C92B42012408F1
:102722004101E700E80167084001B500410168087E
:102732004001B6001F30B7000030B800BF310A2791
:10274200913174304101E9002730EA004001350837
:1027520041016907EB004001360841016A3DEC0086
:102762006B0886006C0887005E310108ED00EE01FF
:102772006E08003A0319BE2B702B6D0884000630D8
:1027820004020318702BBB310435383E8200852BBE
:1027920004304101E70067084001B3005C08B4312E
:1027A20008244101E80068084001DC005C0841019E
:1027B200E70067084001DE005C0808004201B10141
:1027C200043031020318080031084101D900DA014E
:1027D20059084001B50041015A084001B6001F30B6
:1027E200B7000030B800BF310A279331743041017D
:1027F200DB002730DC004001350841015B07420164
:10280200B2004001360841015C3D4201B30032088A
:102812008600330887005E31043001060319F92F60
:102822004001B001B00A42013108B2318B2293312A
:102832004201A201AB01AC011130BF312627933115
:1028420040012D084201A10040012C084201A000D4
:1028520021084001B900420120084001B8004201AC
:102862002C084001BB0042012B084001BA00003095
:10287200BF000030BE00B330BD003230BC00B53105
:1028820040259331400139084201AC00400138082B
:102892004201AB002208A20A4101D900323059029A
:1028A200031C1D2C4001B00142013108B2318B22C0
:1028B200933145304101B0001F30AF00D830AE0037
:1028C2000030AD0040304001CC00A030CB000030E1
:1028D200CA000030C90042012B084001BB0042017E
:1028E2002C084001BC00BD01BE010030AA31D42237
:1028F200933140013E08D0003D08CF003C08CE0095
:102902003B08CD008831BA20933140014C08410187
:10291200B40040014B084101B30040014A084101A3
:10292200B200400149084101B100A6316D26933140
:10293200410130084201B00041012F084201AF00BD
:1029420041012E084201AE0041012D084201AD00B5
:1029520030084101CC0042012F084101CB00420165
:102962002E084101CA0042012D084101C9003D3033
:10297200D0004C30CF00CC30CE00CD30CD009831DD
:102982002D2093310318E22C4201320886003308CD
:1029920087005E310103031DD22C0130B031C1200A
:1029A2009331420132081E3E4101D90000304201FA
:1029B200333D4101DA00590886005A088700023087
:1029C200F82F40304101CC000030CB000030CA006B
:1029D2000030C900420130084101D00042012F08F5
:1029E2004101CF0042012E084101CE0042012D08D3
:1029F2004101CD0098312D209331031C032D40015C
:102A02000E19372D0430B031C12093314201320802
:102A12001E3E4101D90000304201333D4101DA003E
:102A2200590886005A0887000430810040010E19B7
:102A3200F92F420132081E3E4101D9000030420105
:102A4200333D4101DA00590886005A0887000330F5
:102A5200810040019A1107304101D9007D30890B74
:102A6200302DD90B302D40019A15F92F4201320831
:102A72008600330887002D08C03F2E08C13F2F086B
:102A8200C23F3008C33F30084001CC0042012F084A
:102A92004001CB0042012E084001CA0042012D082C
:102AA2004001C9004A308600273087005131403F3B
:102AB200CD00413FCE00423FCF00433FD00088319E
:102AC200BA2093314201320886003308870044312C
:102AD20040014908C03F4A08C13F4B08C23F4C0869
:102AE200C33F420132088600330887004431403F29
:102AF2004101C900413FCA00423FCB00433FCC00E5
:102B0200420132088600330887005031403F4101BC
:102B1200CD00413FCE00423FCF00433FD00098312D
:102B22002D2093310318B32D420132088600330859
:102B320087004431403F4101D900413FDA00423F22
:102B4200DB00433FDC004201320886003308870085
:102B5200503141015908C03F5A08C13F5B08C23F8A
:102B62005C08C33F7330860027308700811D042E26
:102B7200420132088600330887005031403F41014C
:102B8200C900413FCA00423FCB00433FCC00003066
:102B9200D0000030CF000030CE000030CD009831A0
:102BA2002D2093310318E62D420132081D3E4101CA
:102BB200D90000304201333D4101DA005908860054
:102BC2005A08870001308100292E00304101CC00D3
:102BD2000030CB000030CA000030C9004201320888
:102BE2008600330887005031403F4101CD00413F0C
:102BF200CE00423FCF00433FD00098312D20933189
:102C02000318292E222E420132088600330887003B
:102C12004431403F4101D900413FDA00423FDB00ED
:102C2200433FDC00420132088600330887005031FE
:102C320041015908C03F5A08C13F5B08C23F5C08C6
:102C4200C33F420132088600330887005D318101AB
:102C5200420132088600330887005031403F40016C
:102C6200AC00413FAD00423FAE00433FAF000030F9
:102C7200B3000030B2000030B1000030B000B23119
:102C8200D2229331031C4D2E4201320886003308B2
:102C920087005E3181015D2E420132081E3E4101F4
:102CA200D90000304201333D4101DA005908860063
:102CB2005A08870001308100420132088600330839
:102CC20087005D310103031D242F42304001CC00F7
:102CD200C830CB000030CA000030C90042013208BF
:102CE2008600330887004431403F4101AD00413F37
:102CF200AE00423FAF00433FB000420132088600BF
:102D0200330887004831403F4101B100413FB200E2
:102D1200423FB300433FB400A6316D2693314101D7
:102D220030084001D00041012F084001CF0041018D
:102D32002E084001CE0041012D084001CD0088310E
:102D4200BA20933140014C084101CC0040014B08AC
:102D52004101CB0040014A084101CA004001490833
:102D62004101C9004230D000C830CF000030CE004F
:102D72000030CD0098312D209331031CC92E4230F2
:102D82004201A600C830A5000030A4000030152F73
:102D920042304001CC00C830CB000030CA000030C5
:102DA200C900420132088600330887004431403F9F
:102DB2004101AD00413FAE00423FAF00433FB00092
:102DC200420132088600330887004831403F410102
:102DD200B100413FB200423FB300433FB400A631CD
:102DE2006D269331410130084001D00041012F0886
:102DF2004001CF0041012E084001CE0041012D08C3
:102E02004001CD008831BA20933140014C08420183
:102E1200A60040014B084201A50040014A084201B8
:102E2200A400400149084201A30026084101CC0048
:102E3200420125084101CB00420124084101CA0098
:102E420042012308E12F42304001CC00C830CB00C0
:102E52000030CA000030C90042013208860033083F
:102E620087004431403F4101AD00413FAE00423F47
:102E7200AF00433FB00042013208860033088700AA
:102E82005031403F4101B100413FB200423FB300E7
:102E9200433FB400A6316D26933141013008400111
:102EA200D00041012F084001CF0041012E0840010E
:102EB200CE0041012D084001CD008831BA20933166
:102EC20040014C084101CC0040014B084101CB00BC
:102ED20040014A084101CA00400149084101C900B4
:102EE2004230D000C830CF000030CE000030CD00DC
:102EF20098312D209331031C872F42304201AA00C2
:102F0200C830A9000030A8000030D32F4230400161
:102F1200CC00C830CB000030CA000030C9004201EA
:102F220032088600330887004431403F4101AD003A
:102F3200413FAE00423FAF00433FB0004201320882
:102F42008600330887005031403F4101B100413FC4
:102F5200B200423FB300433FB400A6316D26933125
:102F6200410130084001D00041012F084001CF004B
:102F720041012E084001CE0041012D084001CD0043
:102F82008831BA20933140014C084201AA00400125
:102F92004B084201A90040014A084201A800400131
:102FA20049084201A7002A084101CC004201290830
:102FB2004101CB00420128084101CA004201270811
:102FC2004101C900A931BA21933141014908D9000F
:102FD20042013208143E4101DA0000304201333D21
:102FE2004101DB005A0886005B088700590881000E
:0E2FF20001304101D90059084201B107E12B1D
:103002004001C0003C08C3003B08C2004008BF00AA
:103012003F08C4000130BD020030BE3B3D0A031927
:103022003E0A031908004208860043088700010887
:10303200BF003F08C1000130C2070030C33D410854
:10304200BF0044088600013087003F08810001303C
:10305200BF003F08C4070B28003041014905D100D9
:1030620000304A05D20080304B05D3007F304C053A
:10307200D4005408530452045104031D482800305C
:10308200CC000030CB000030CA000030C900003054
:103092004D05D10000304E05D20080304F05D300DF
:1030A2007F305005D4005408530452045104031DC8
:1030B20062280030D0000030CF000030CE00003057
:1030C200CD00CC1F8B280030D1000030D200003060
:1030D200D3008030D4004909D5004A09D6004B09F3
:1030E200D7004C09D800D50A0319D60A0319D70A02
:1030F2000319D80A5508D1075608D23D5708D33DBF
:103102005808D43D5408CC005308CB005208CA00DA
:103112005108C900D01FB4280030D1000030D200BD
:103122000030D3008030D4004D09D5004E09D600BE
:103132004F09D7005009D800D50A0319D60A031936
:10314200D70A0319D80A5508D1075608D23D57089D
:10315200D33D5808D43D5408D0005308CF0052083C
:10316200CE005108CD008030CC068030D006500809
:103172004C02031D08004F084B02031D08004E08B5
:103182004A02031D08004D084902080040015E087A
:103192004101E700E80167084001B5004101680804
:1031A2004001B6001F30B7000030B800BF310A2717
:1031B200983174304101E9002730EA0040013508B6
:1031C20041016907EB004001360841016A3DEC000C
:1031D20040015B08B0315D20983141016B088600E7
:1031E2006C0887005E3101030319FF286B08860013
:1031F2006C0887005E310108031DC4294001B30138
:103202002B30B400BB30B5000030B0318E20983185
:1032120041016B0886006C0887005031403F400135
:10322200AC00413FAD00423FAE00433FAF00003033
:10323200B3000030B2000030B1000030B000B23153
:10324200D2229831031C50294001B301B30AC53080
:10325200B400BB30B5000030B0318E20983140014F
:103262005E08013E4101E70067084001B500B60172
:10327200B60A3F30B331B62398314001B301B30AE5
:103282003F30B4000230B5000430B0318E209831A6
:103292004001B301B30A8130B400BB30952941012A
:1032A2006B0886006C0887005031403FC900413FDF
:1032B200CA00423FCB00433FCC000030D000003078
:1032C200CF000030CE000030CD0098312D20983153
:1032D200031898294001B301B30AC530B400BB30CA
:1032E200B5000030B0318E20983140015E08013EB9
:1032F2004101E70067084001B500B601B60A3F3058
:10330200B331B62398314001B301B30A3F30B40060
:103312000230B5000430B0318E2098314001B30143
:10332200B30A9130B400BB30B50005301F2A410109
:103332006B0886006C0887005031403FD900413F3E
:10334200DA00423FDB00433FDC000430E70067085D
:10335200DD00DE01DE0A3F30A031A02098314001BD
:10336200B301B30A3F30B4000230B5000030B031CF
:103372008E2098314001B301B30A6030B400BB30F3
:10338200B50004301F2A41016B0886006C088700D3
:103392005E3102300106031DDF294001B3014E30C8
:1033A200B400BA30B5000030B0318E2098314001FF
:1033B200B301B30AB630B400BA301D2A41016B081A
:1033C20086006C0887005E3105300106031DFA296C
:1033D2004001B3016830B400BA30B5000030B031FA
:1033E2008E2098314001B301B30A9C30B400BA3048
:1033F2001D2A41016B0886006C0887005E3104308B
:10340200010603190D2A6B0886006C0887005E31DD
:1034120003300106031D222A4001B3015B30B400D0
:10342200BA30B5000030B0318E2098314001B3017E
:10343200B30A7530B400BA30B5000030B0318E2016
:1034420098314001B301D030B400BA30B5000C302D
:10345200B0318E20983141016B0886006C088700DC
:103462005531403FD900413FDA00423FDB00433F44
:10347200DC000430E7006708DD00DE01DE0A3F30D1
:10348200A031A02098314001B301B30A3F30B4000B
:103492000230B5000C30B0318E2098314001B301BA
:1034A200B30A8930B400BB30B5001130B0318E2080
:1034B200983102304101E70067084001B3005B0820
:1034C200B43108244101E80068084001DB005B08D0
:1034D20008000630BF3126279A3140012D084101EC
:1034E200CE0040012C084101CD004E084001B90038
:1034F20041014D084001B80044012D084001BB00C4
:1035020044012C084001BA000030BF000030BE0068
:103512007F30BD00FF30BC00B53140259A314001FB
:1035220039084401AD00400138084401AC001030B4
:10353200BF3126279A3140012D084101CE004001BA
:103542002C084101CD004E084001B90041014D084F
:103552004001B80044012B084001BB0044012A0885
:103562004001BA000030BF000030BE00CC30BD00C8
:10357200CC30BC00B53140259A31400139084401B4
:10358200AB00400138084401AA001130BF312627A0
:103592009A3140012D084101CE0040012C08410121
:1035A200CD004E084001B90041014D084001B8006C
:1035B200440129084001BB00440128084001BA0027
:1035C2000030BF000030BE004C30BD00CC30BC002B
:1035D200B53140259A31400139084401A900400122
:1035E20038084401A800C2304101B4000A30B300D7
:1035F2000C30B2004A30B1003D304001CC00F33013
:10360200CB00EA30CA00B330C90044012C084001A3
:10361200BB0044012D084001BC00BD01BE010030C9
:10362200AA31D4229A3140013E08D0003D08CF0091
:103632003C08CE003B08CD008831BA209A314001C7
:103642004C084101B80040014B084101B70040015C
:103652004A084101B600400149084101B5009E31C6
:1036620006269A314A308600273087004D314101C3
:103672003108C03F3208C13F3308C23F3408C33F5C
:1036820040304001CC00A030CB000030CA000030F6
:10369200C90044012A084001BB0044012B08400133
:1036A200BC00BD01BE010030AA31D4229A314001D2
:1036B2003E08D0003D08CF003C08CE003B08CD00BC
:1036C2008831BA209A3140014C084101CC004001B6
:1036D2004B084101CB0040014A084101CA004001A8
:1036E20049084101C9004730B0003B30AF00D1303A
:1036F200AE000030AD0043304001CC004530CB007D
:103702000030CA000030C90041014C084001D0001D
:1037120041014B084001CF0041014A084001CE005F
:10372200410149084001CD008831BA209A31400157
:103732004C084101B40040014B084101B300400173
:103742004A084101B200400149084101B100A631D5
:103752006D269A314A308600273087005131410167
:103762002D08C03F2E08C13F2F08C23F3008C33F7B
:103772004530B0001F30AF00D830AE000030AD0091
:1037820040304001CC00A030CB000030CA000030F5
:10379200C900440128084001BB0044012908400136
:1037A200BC00BD01BE010030AA31D4229A314001D1
:1037B2003E08D0003D08CF003C08CE003B08CD00BB
:1037C2008831BA209A3140014C084101B4004001CD
:1037D2004B084101B30040014A084101B2004001D7
:1037E20049084101B100A6316D269A314A3086005E
:1037F20027308700553141012D08C03F2E08C13FB7
:103802002F08C23F3008C33F4A3086002730870066
:103812005531403F4001C900413FCA00423FCB0001
:10382200433FCC004A308600273087005131403F69
:10383200CD00413FCE00423FCF00433FD000883110
:10384200BA204A30860027308700593140014908A2
:10385200C03F4A08C13F4B08C23F4C08C33F080063
:103862007330860027308700010C4101E700E70C26
:10387200670C013943016F060319582C7330860017
:1038820027308700003081190130EF007330860045
:1038920027308700811D502C4001DD01562C03305A
:1038A2004101E70067084001DD00E301E30A40014E
:1038B2005D08B0315D209C31400163080319752C0D
:1038C200B3017E30B400B830B5000030B0318E2084
:1038D2009C314001B301B30A9930B400BB30B5004A
:1038E2003030B0318E209C31733086002730870013
:1038F200011ED32C4A30860027308700403F410109
:10390200D900413FDA00423FDB00433FDC00053093
:10391200E7006708DD00DE01DE0A3F30A031A020AB
:103922009C314001B301B30A3F30B4000230B5000C
:103932000030B0318E209C314001B301B30ACA304D
:10394200B400BB30B5000530B0318E209C314A3016
:103952008600273087004D31403F4101D900413F69
:10396200DA00423FDB00433FDC000330E700670838
:10397200DD00DE013F30A031A0209C314001B301C7
:10398200B30A3F30B4000230B5000830B0318E20A7
:103992009C314001B301B30AE830B400BB30B5003A
:1039A2000B30FD2C4A30860027308700403F410112
:1039B200D900413FDA00423FDB00433FDC000530E3
:1039C200E7006708DD00DE01DE0A3F30A031A020FB
:1039D2009C314001B301B30A3F30B4000230B5005C
:1039E2000030B0318E209C314001B301B30A7930EE
:1039F200B400BB30B5000530B0318E209C314A3066
:103A02008600273087004431403F4101D900413FC1
:103A1200DA00423FDB00433FDC000530E700670885
:103A2200DD00DE01DE0A3F30A031A0209C314001E2
:103A3200B301B30A3F30B4000230B5000C30B031EC
:103A42008E209C314001B301B30AB630B400BB30C2
:103A5200B5001130B0318E209C314A3086002730BB
:103A620087004831403F4101D900413FDA00423FDF
:103A7200DB00433FDC000530E7006708DD00DE01C4
:103A8200DE0A3F30A031A0209C314001B301B30ACD
:103A92003F30B4000230B5001830B0318E209C3176
:103AA2004001B301B30A7930B400BB30B5001D3018
:103AB200B0318E209C314A30860027308700513148
:103AC200403F4101D900413FDA00423FDB00433F22
:103AD200DC000430E7006708DD00DE01DE0A3F306B
:103AE200A031A0209C314001B301B30A3F30B400A1
:103AF2000230B5002430B0318E209C314001B30138
:103B0200B30ACE30B400BB30B5002830B0318E20BD
:103B12009C314A308600273087005931403F4101AD
:103B2200D900413FDA00423FDB00433FDC00043072
:103B3200E7006708DD00DE01DE0A3F30A031A02089
:103B42009C314001B301B30A3F30B4000230B500EA
:103B52002B30B0318E209C314001B301B30A323098
:103B6200B400BA30B5002F30B0318E209C31400104
:103B7200B501B50A03304101E70067084001B6000C
:103B82003F30B331B6239C314001B3013F30B40022
:103B92000230B5003830B0318E209C31733086004F
:103BA20027308700811D032E4A3086002730870088
:103BB2004C3101084101E70067084001B5000330BC
:103BC2004101E80068084001B6003F30B331B62336
:103BD2009C314001B301B30A3F30B4000230B5005A
:103BE2003830B0318E209C3105304101E700670842
:103BF2004001B3005D08B43108244101E8006808BF
:103C02004001DD0040015D080800410134088039AF
:103C1200B9003908C5003435B9003908C700B31BEB
:103C2200471447080319232E470A031D202E00308C
:103C3200B4000030B3000030B2000030B100B3175E
:103C4200B4012B2E0030B4000030B3000030B200BB
:103C52000030B10038088039B9003908C60046087A
:103C62004506031D45173835B9003908C600B71B8C
:103C72004614460803194B2E460A031D482E0030EF
:103C8200B8000030B7000030B6000030B500B717FA
:103C9200B801532E0030B8000030B7000030B60033
:103CA2000030B500470846020318992E451F5D2EC5
:103CB2008030B9003908C5064708B9003908C8007C
:103CC2004608B9003908C7004808B9003908C600D3
:103CD2003108B9003908C8003508B9003908B100FF
:103CE2004808B9003908B5003208B9003908C800D7
:103CF2003608B9003908B2004808B9003908B600D8
:103D02003308B9003908C8003708B9003908B300C8
:103D12004808B9003908B7003408B9003908C800A2
:103D22003808B9003908B4004808B9003908B800A1
:103D3200C8014708B900BA01B909BA09B90A031991
:103D4200BA0A46083907BB003A0803183A0ABC0007
:103D52003C08803ABD0080303D02031DB22E1A306D
:103D62003B02031CE62E41013408330432043104C1
:103D72000319BD2E0130BE2E0030B9003908C8002B
:103D82000030B4000030B3000030B2000030B100A7
:103D92004608B9003908C700EB2E481CD62E483613
:103DA2000138B9003908C800D82E0310C80C3118E0
:103DB200C8170130B900B437B30CB20CB10CB90B4F
:103DC200DC2E0130B9003908C70741014608470215
:103DD200031CCE2E451B1C2F4708031DF92E003055
:103DE200B4000030B3000030B2000030B10008006F
:103DF2003508B1073608B23D3708B33D3808B43D3F
:103E0200341CA92F481C0B2F48360138B900390839
:103E1200C8000D2F0310C80C3118C8170130B900A3
:103E2200B437B30CB20CB10CB90B112F0130B9007D
:103E32003908C707A92F3408803AB9003808803AF0
:103E42003902031D2E2F37083302031D2E2F360889
:103E52003202031D2E2F350831020318792FFF304D
:103E6200B900FF30BA00FF30BB00FF30BC0035089C
:103E7200BD003608BE003708BF003808C00031094F
:103E8200C1003209C2003309C3003409C400C10AA7
:103E92000319C20A0319C30A0319C40A4108BD0758
:103EA2004208BE3D4308BF3D4408C03D3D08B90736
:103EB2003E08BA3D3F08BB3D4008BC3D3C08B4004B
:103EC2003B08B3003A08B2003908B1008030B900AB
:103ED2003908C506C809C80A4808031D812F0130E0
:103EE200B1070030B23D0030B33D0030B43D812F08
:103EF2003508B1023608B23B3708B33B3808B43B49
:103F02003408330432043104031DA72F4808031D6B
:103F1200A72F0030B4000030B3000030B2000030F0
:103F2200B10008000130B135B20DB30DB40D890BEB
:103F3200942FC81B3114481CA02F0314A12F031067
:103F4200C80D47080319A72F0130C702B31F932FCB
:103F5200C601C81FB42F48087F39031DB22F311C78
:103F6200B42FC601C60A46080319E02F0130B10773
:103F72000030B23D0030B33D0030B43D341CE02F80
:103F82003108B9003208BA003308BB003408BC005B
:103F92000130BD00BC37BB0CBA0CB90CBD0BCB2F2A
:103FA2003C08B4003B08B3003A08B2003908B1003B
:103FB200470A0319E02F0130B9003908C707470A39
:103FC200031D4708031DF02F0030B4000030B3007A
:103FD2000030B2000030B10047080319C501471C88
:103FE200F42FB317F82F7F30B9003908B3054736DD
:0E3FF200B9003908B400C51F0800B417080054
:10400C00003070054001A00000307105A100803027
:10401C007205A2007F307305A3002308220421043B
:10402C002004031D21280030F3000030F200003082
:10403C00F1000030F00000307405A0000030750570
:10404C00A10080307605A2007F307705A3002308FD
:10405C00220421042004031D3B280030F70000300B
:10406C00F6000030F5000030F400F31F6428003037
:10407C00A0000030A1000030A2008030A300700925
:10408C00A4007109A5007209A6007309A700A40A6F
:10409C000319A50A0319A60A0319A70A2408A007DD
:1040AC002508A13D2608A23D2708A33D2308F300BF
:1040BC002208F2002108F1002008F000F71F8D28DB
:1040CC000030A0000030A1000030A2008030A3001E
:1040DC007409A4007509A5007609A6007709A70044
:1040EC00A40A0319A50A0319A60A0319A70A240886
:1040FC00A0072508A13D2608A23D2708A33D2308BB
:10410C00F7002208F6002108F5002008F4008030A2
:10411C00F3068030F70677087302031D0800760853
:10412C007202031D080075087102031D0800740853
:10413C00700208004101E600E101E10A5D08DF00C0
:10414C005F08E400E501E301E2015C08CC005B08D8
:10415C00CB005A08CA005908C9000030D000003002
:10416C00CF000030CE000030CD0098312D20A03192
:10417C000318F028BF304001CC008030CB00003059
:10418C00CA000030C90041015C084001D000410167
:10419C005B084001CF0041015A084001CE004101AB
:1041AC0059084001CD008831BA20A03140014C089B
:1041BC004101DC0040014B084101DB0040014A0891
:1041CC004101DA00400149084101D900E201E20A4B
:1041DC000130DD0241015C08CC005B08CB005A08C1
:1041EC00CA005908C9004130D0002030CF0000303F
:1041FC00CE000030CD0098312D20A031031C282991
:10420C0041304101B0002030AF000030AE00003032
:10421C00AD005C08B4005B08B3005A08B200590842
:10422C00B100A6316D26A03141013008DC002F0809
:10423C00DB002E08DA002D08D9000130DF005F0802
:10424C00E107F028410161085E07DF005F08E40028
:10425C005E08031D35290130DF005F08DD070130E2
:10426C00DD025D08640203184B292030DF0065086D
:10427C006607E00060088600023087005F08810056
:10428C000130DF005F08E5073529620803195D2955
:10429C002D30DF0065086607E000600886000230FC
:1042AC0087005F0881000130DF005F08E5070130FF
:1042BC00E402640A0319002A5C08CC005B08CB00FA
:1042CC005A08CA005908C900A931BA21A0314101C4
:1042DC004908DF005F08E3000A304001B7000030F6
:1042EC00B80041016308DF00E0015F084001B50040
:1042FC00410160084001B600BF310A27A0314001DE
:10430C003508BB003608BC00890D893B8909BD0006
:10431C00BE000130AA31D422A03140013E08410137
:10432C00B00040013D084101AF0040013C08410193
:10433C00AE0040013B084101AD00BE315726A03113
:10434C0041013008B4002F08B3002E08B2002D082C
:10435C00B10041304001CC002030CB000030CA000D
:10436C000030C90041015C084001D00041015B08EC
:10437C004001CF0041015A084001CE0041015908CB
:10438C004001CD008831BA20A03140014C084101D8
:10439C00B80040014B084101B70040014A084101F7
:1043AC00B600400149084101B5009E310626A031F6
:1043BC0041013408DC003308DB003208DA00310834
:1043CC00D9006308303EDF0065086607E00060082E
:1043DC008600023087005F0881000130DF005F0833
:1043EC00E507640803195D2964085E06031D5D2951
:1043FC002E304F2965086607DF005F088600023003
:10440C0087008101080040304101CC006030CB00B6
:10441C000030CA000030C9004A30860027308700BF
:10442C005531403FCD00413FCE00423FCF00433F8E
:10443C00D00098312D20A2310318A52A4001B001DB
:10444C00FF30B2318B22A23140019A114030410130
:10445C00CC006030CB000030CA000030C9004530C1
:10446C00B0001F30AF00D830AE000030AD0040308F
:10447C004001CC00A030CB000030CA000030C90095
:10448C001130BF312627A23140012C084101D9003F
:10449C0040012D084101DA00DB01DC015C08400120
:1044AC00BE0041015B084001BD0041015A084001BA
:1044BC00BC00410159084001BB000030AA31D42294
:1044CC00A23140013E08D0003D08CF003C08CE0090
:1044DC003B08CD008831BA20A23140014C08410183
:1044EC00B40040014B084101B30040014A084101AE
:1044FC00B200400149084101B100A6316D26A2313C
:10450C0041013008D0002F08CF002E08CE002D0816
:10451C00CD0098312D20A2310318962A0930A22AF9
:10452C0073308600273087000119A52A7330860066
:10453C002730870001150A30B031C120A23141303B
:10454C004101CC005C30CB00CC30CA00CD30C9006E
:10455C004A308600273087005131403FCD00413F23
:10456C00CE00423FCF00433FD00098312D20A231E6
:10457C00031CDB2A41304101CC003030CB00003031
:10458C00CA000030C9004A308600273087005131FC
:10459C00403FCD00413FCE00423FCF00433FD000D3
:1045AC0098312D20A231031CDF2A0B30B031C120F1
:1045BC00080041304101CC005030CB000030CA0023
:1045CC000030C9004A308600273087005131403F07
:1045DC00CD00413FCE00423FCF00433FD000983149
:1045EC002D20A2310318242B41304101CC005C302A
:1045FC00CB00CC30CA00CD30C9004A308600273001
:10460C0087005131403FCD00413FCE00423FCF00AB
:10461C00433FD00098312D20A231031C242B733042
:10462C0086002730870081180800733086002730F9
:10463C00870081140530B031C120080041304101A0
:10464C00CC003030CB000030CA000030C9004A30FA
:10465C008600273087005131403FCD00413FCE00CE
:10466C00423FCF00433FD00098312D20A231031898
:10467C00692B41304101CC003630CB006630CA008A
:10468C006630C9004A308600273087005131403FE0
:10469C00CD00413FCE00423FCF00433FD000983188
:1046AC002D20A231031C692B733086002730870024
:1046BC00011808007330860027308700011406307B
:1046CC00B031C1200800733086002730870081107C
:1046DC00733086002730870001100800400159080C
:1046EC0058060319862B5808A03E86000230870016
:1046FC000108BC00BD013C08BF003D08C000882B70
:10470C00BF01C0013F08BC003C08BE000230BE31F6
:10471C004D26A331B62C4001B3013030B400B93072
:10472C00B5000030B0318E20A3314001B301B30A83
:10473C006430B400B930B5000030B0318E20A331F4
:10474C00CC2C4001B3014A30B400B930B500003074
:10475C00B0318E20A3314001B301B30A8B30B400C9
:10476C00B930B5000030B0318E20A331CC2C4001D3
:10477C00B301F330B400B930B5000030B0318E2045
:10478C00A3314001B301B30AB230B400B930B50063
:10479C000030B0318E20A331CC2C4001B30130302D
:1047AC00B400B930B5000030B0318E20A3314001D7
:1047BC00B301B30A0030B400BA30B5000030B031E8
:1047CC008E20A331CC2C4001B3010D30B400BA3093
:1047DC00B5000030B0318E20A3314001B301B30AD3
:1047EC00BF30B400B930B5000030B0318E20A331E9
:1047FC00CC2C4001B3010D30B400BA30B500003000
:10480C00B0318E20A3314001B301B30A9830B4000B
:10481C00B930B5000030B0318E20A331CC2C400122
:10482C00B3013D30B400B930B5000030B0318E204A
:10483C00A3314001B301B30A7E30B400B930B500E6
:10484C000030B0318E20A331CC2C4001B301343078
:10485C00B400BA30B5000030B0318E20A331400125
:10486C00B301B30AA530B400B930B5000030B03193
:10487C008E20A331CC2C4001B301D930B400B93017
:10488C00B5000030B0318E20A3314001B301B30A22
:10489C002730B400BA30B5000030B0318E20A331CF
:1048AC00CC2C4001B3011A30B400BA30B500003042
:1048BC00B0318E20A3314001B301B30A2730B400CC
:1048CC00BA30B5000030B0318E20A331CC2C400171
:1048DC00B301F330B400B930B5000030B0318E20E4
:1048EC00A3314001B301B30A4130B400BA30B50072
:1048FC000030B0318E20A331BE318126A331013A74
:10490C00031DCC2C40019A15CC2CB301E630B4001D
:10491C00B930B5000030B0318E20A3314001B30165
:10492C00B30A5730B400B930B5000030B0318E2026
:10493C00A331CC2C4001B3017130B400B930B500B7
:10494C000030B0318E20A3314001B301B30ACC301A
:10495C00B400B930B5000030B0318E20A331CC2C6E
:10496C0040013E08BC00BD013D08003A0319BF2CB4
:10497C00A02C3C08FF3E031CA02C84000C3004022D
:10498C000318A02CB9310435183E8200BE318126A3
:10499C00A331013A031DE92C4001590858060319AB
:1049AC00E92C0A30AC000030AD005808013EAE00D6
:1049BC00003003180130AF00B131FE2140012C084A
:1049CC00BC003C08D8004001E301E30A08004001A8
:1049DC005E084101E700E80167084001B5004101AC
:1049EC0068084001B6001F30B7000030B800BF3176
:1049FC000A27A43174304101E9002730EA00400154
:104A0C00350841016907EB004001360841016A3D58
:104A1C00EC000030B0315D20A43141016B08860000
:104A2C006C0887005E3101030319242D6B08860086
:104A3C006C0887005E310108031D292E40016308B4
:104A4C000319312DB3012B30B400BB30B50000304D
:104A5C00B0318E20A43141016B08103ED9000030DA
:104A6C006C3DDA00BE30DE008030DD000030DC0052
:104A7C000030DB006B0886006C0887004431403F37
:104A8C00DF00413FE000423FE100433FE2003E30A7
:104A9C00E6008030E5000030E4000030E300AA318D
:104AAC004722A43141016B0886006C088700503105
:104ABC00403F4001AC00413FAD00423FAE00433FA0
:104ACC00AF000030B3000030B2000030B100003055
:104ADC00B000B231D222A431031CA42D40015E08D7
:104AEC00013E4101E70067084001B500B601B60A76
:104AFC003F30B331B623A4314001B301B30AC43003
:104B0C00B400BB30B5000030B0318E20A431400170
:104B1C00B301B30A3F30B4000230B5000530B031F8
:104B2C008E20A4314001B301B30AA130B400BB30D4
:104B3C00B5000630B0318E20A4316B2E41016B08CC
:104B4C0086006C0887005031403FC900413FCA00C5
:104B5C00423FCB00433FCC000030D0000030CF00B0
:104B6C000030CE000030CD0098312D20A431031838
:104B7C00EF2D40015E08013E4101E700670840014E
:104B8C00B500B601B60A3F30B331B623A4314001AB
:104B9C00B301B30AC430B400BB30B5000030B0313F
:104BAC008E20A4314001B301B30A3F30B40002306F
:104BBC00B5000530B0318E20A4314001B301B30AE9
:104BCC00A830B400BB30B5000630B0318E20A43113
:104BDC006B2E4001B301B30AB430B400BB30B50046
:104BEC000030B0318E20A43141016B0886006C0876
:104BFC0087005031403FD900413FDA00423FDB0093
:104C0C00433FDC000430E7006708DD00DE01DE0A0C
:104C1C003F30A031A020A4314001B301B30A3F3092
:104C2C00B4000230B5000130B0318E20A431400107
:104C3C00B301B30A7130B400BB30B5000530B031EC
:104C4C008E20A4316B2E41016B0886006C08870006
:104C5C005E310430010603193C2E6B0886006C088B
:104C6C0087005E3103300106031D692E4001630885
:104C7C000319542EB301DD30B400BA30B500003046
:104C8C00B0318E20A4314001B301B30A1130B4000D
:104C9C00BB30B5000030B0318E20A431BE3181263E
:104CAC00A431023A031D672E41016B081E3EE7003A
:104CBC0000306C3DE8006708860068088700053006
:104CCC00810000300800013008000030080041016C
:104CDC0034088039B5003508BE003435B5003508C8
:104CEC00C500B31B4514450803198A2E450A031D3C
:104CFC00872E0030B4000030B3000030B20000301A
:104D0C00B100B317B401922E0030B4000030B300E0
:104D1C000030B2000030B10030088039B5003508E1
:104D2C00BE063035B5003508C600AF1B4614460824
:104D3C000319AE2E460A031DAB2E0030B000003016
:104D4C00AF000030AE000030AD00AF17B001B62E92
:104D5C000030B0000030AF000030AE000030AD00CD
:104D6C0030082F042E042D04031DD52E0030B40062
:104D7C000030B3000030B2000030B1008030B3041A
:104D8C007F30B4043E08B5003508B4043408B000D4
:104D9C003308AF003208AE003108AD0008004508FA
:104DAC00031DE92E0030B4000030B3000030B20017
:104DBC000030B1003408B0003308AF003208AE0048
:104DCC003108AD0008004608B500B601B509B609B2
:104DDC00B50A0319B60A45083507B7003608031893
:104DEC00360AB80037087F3EBF000030383DC0009F
:104DFC003408BD003308BC003208BB003108BA00CF
:104E0C000030B4000030B3000030B2000030B1000C
:104E1C000030C4000030C3000030C2000030C100BC
:104E2C00C6011A3046020318532F46080319352FB2
:104E3C000130BA35BB0DBC0DBD0D890B1F2F0130D8
:104E4C00B135B20DB30DB40D890B262FC41B311423
:104E5C000130C135C20DC30DC40D890B2F2F300885
:104E6C003D02031D432F2F083C02031D432F2E0828
:104E7C003B02031D432F2D083A02031C4E2F4417EF
:104E8C002D08BA022E08BB3B2F08BC3B3008BD3B9B
:104E9C000130B5003508C607172F3D083C043B040C
:104EAC003A04031D4114B31B702F0130B135B20D00
:104EBC00B30DB40D890B5C2FC41B31140130C135FB
:104ECC00C20DC30DC40D890B652FFF30BF07FF301A
:104EDC00C03D592FC601C41F892FFF304105B500B5
:104EEC00FF304205B600FF304305B7007F30440564
:104EFC00B8003808370436043504031D872F311CDD
:104F0C00892FC601C60A46080319B22F0130B10712
:104F1C000030B23D0030B33D0030B43D341CB22FF4
:104F2C003108B5003208B6003308B7003408B800B1
:104F3C000130B900B837B70CB60CB50CB90BA02FB3
:104F4C003808B4003708B3003608B2003508B10091
:104F5C000130BF070030C03D4008803AB5008030BA
:104F6C003502031DBB2FFF303F02031CCA2FFF303D
:104F7C004101BF000030C0000030B4000030B3006D
:104F8C000030B2000030B10041014008803AB50059
:104F9C0080303502031DD42F01303F020318E22F5D
:104FAC004101BF01C0010030B4000030B30000303B
:104FBC00B2000030B100BE0141013F08B500350818
:104FCC00C500451CEB2FB317EF2F7F30B50035080C
:104FDC00B3054536B5003508B4003E08B5003508B4
:104FEC00B4043408B0003308AF003208AE00310806
:044FFC00AD000800FC
:1050060000308B1B01304001AE008B132C08500181
:105016009A0040012D0850019B001E131E1400002B
:10502600000040012E0C031C8B1303188B17500134
:105036001D084001AD0050011C084001AC000800ED
:105046004001B00120303002031851283008803E5C
:10505600AC003F3003184030AD00A8310320A83122
:1050660040013035A03E860087012C08C03F2D0840
:10507600C13F3035A03E860087010108AF003008E9
:10508600203E8600013087002F0881000130AF00E6
:105096002F08B00720303002031C292889308600EB
:1050A6002730870042012008C03F2108C13F22085F
:1050B600C23F2308C33FA830860027308700240854
:1050C600C03F2508C13F2608C23F2708C33FC73057
:1050D6008600273087002808C03F2908C13F2A08D4
:1050E600C23F2B08C33FE6308600273087002C08D6
:1050F600C03F2D08C13F2E08C23F2F08C33F4A308C
:105106008600273087005D313008C03F3108C13F37
:105116003208C23F3308C33F6B3086002730870012
:105126003408C03F3508C13F3608C23F3708C33F81
:105136006F308600273087003808C03F3908C13FE6
:105146003A08C23F3B08C33F080089308600273033
:105156008700403F4201A000413FA100423FA2001C
:10516600433FA300A830860027308700403FA400B5
:10517600413FA500423FA600433FA700C730860037
:1051860027308700403FA800413FA900423FAA00C0
:10519600433FAB00E630860027308700403FAC0037
:1051A600413FAD00423FAE00433FAF004A3086006C
:1051B600273087005D31403FB000413FB100423F9C
:1051C600B200433FB3006B30860027308700403F74
:1051D600B400413FB500423FB600433FB7006F30D1
:1051E600860027308700403FB800413FB900423F64
:1051F600BA00433FBB004001BB0120303B0203180D
:105206001C293B08203E8600013087000108B900B2
:10521600BA013B35A03E860087013908C03F3A08EF
:10522600C13F0130B9003908BB0720303B02031CDF
:1052360004298030AC003F30AD00BF318227A83151
:1052460080304001AF003F30B000A030B9003908CF
:10525600B100B4316D2408004001191219119911D9
:1052660041304001B300EE30890B3729B30B3729A3
:1052760000004001991019109A121A120330B13128
:10528600B921A93107304001B3007D30890B492986
:10529600B30B49290830B131B921A9310730400192
:1052A600B3007D30890B5529B30B55290230B13136
:1052B600B921A93107304001B3007D30890B61293E
:1052C600B30B61290230B131B921A9310730400150
:1052D600B3007D30890B6D29B30B6D290830B131D0
:1052E600B921A93107304001B3007D30890B7929F6
:1052F600B30B79290830BE314D26A931073040015C
:10530600B3007D30890B8529B30B85290130BE3169
:105316004D26A93107304001B3007D30890B912914
:10532600B30B91290630BE314D26A9310730400115
:10533600B3007D30890B9D29B30B9D290230BE3108
:105346004D26A93107304001B3007D30890BA929CC
:10535600B30BA9290C30BE314D26A93107304001C7
:10536600B3007D30890BB529B30BB529080041017F
:105376004908CD004A08CE004B08CF004C08D000A3
:1053860003104F0D500DD10051084001D7005708AA
:10539600031DD72900304101CC000030CB0000307E
:1053A600CA000030C900080041014908CD004A087A
:1053B600CE004B08CF004C08D0001F30D036CF0CA3
:1053C600CE0CCD0C890BE1294D08D10051084001C6
:1053D600D6004101CB17FF30C905FF30CA05FF30A3
:1053E600CB050030CC0596304001D702D71F1A2ACC
:1053F6005708803A973E03180A2A00304101CC002C
:105406000030CB000030CA000030C900080001306F
:105416004101CC36CB0CCA0CC90C890B0B2A0130C6
:10542600CD004D084001D7070319372A0A2A203034
:105436005702031C332A00304101CC000030CB0058
:105446000030CA000030C900080001304101C935EA
:10545600CA0DCB0DCC0D890B292A01304001D7028C
:1054660040015708031D282A560803190800410160
:10547600C909CA09CB09CC09C90A0319CA0A0319F9
:10548600CB0A0319CC0A0800BE317626AA314001A0
:10549600D6005608D70002305706031D912A41014F
:1054A6005E08CC005D08CB005C08CA005B08C9003A
:1054B600590886005A088700403FCD00413FCE007C
:1054C600423FCF00433FD00098312D20AA31031828
:1054D600912A41016608CC006508CB006408CA0021
:1054E6006308C900590886005A088700403FCD0066
:1054F600413FCE00423FCF00433FD000BF3143275C
:105506004101590886005A0887004908C03F4A08E1
:10551600C13F4B08C23F4C08C33F08004001570338
:10552600031D08004101590886005A088700403FBC
:10553600C900413FCA00423FCB00433FCC0062084E
:10554600D0006108CF006008CE005F08CD0098311A
:105556002D20AA310318080041016608B400650829
:10556600B3006408B2006308B100590886005A08FF
:105576008700403FB500413FB600423FB700433F7A
:10558600B8009E3106264101590886005A08870050
:105596003108C03F3208C13F3308C23F3408C33F19
:1055A60008004001C3004308031DBE1FEA2A3B0949
:1055B600C5003C09C6003D09C7003E09C800C50A2A
:1055C6000319C60A0319C70A0319C80AF22A3E08AC
:1055D600C8003D08C7003C08C6003B08C5003E0899
:1055E6003D043C043B04031D012B0030BE0000308B
:1055F600BD000030BC000030BB0008009630BF0084
:105606003F08C400FE3048050319282B0130BF00AF
:105616003F08C4070130C836C70CC60CC50C890B39
:105626000E2B052B0130BF003F08C4070130C5070C
:105636000030C63D0030C73D0030C83D0130C83699
:10564600C70CC60CC50C890B222BFF304805031965
:10565600362B152B0130C4020130C535C60DC70DDA
:10566600C80D890B302BC71B3C2B02304402031894
:105676002D2B4418462BFF30C505FF30C6057F305D
:10568600C705FF30C8050310C40C4408BF00C0019D
:10569600C101C2011830BF35C00DC10DC20D890B45
:1056A6004E2B3F08C5044008C6044108C7044208FB
:1056B600C8044308031DBE1F612BC8174808BE0057
:1056C6004708BD004608BC004508BB00080000307E
:1056D600B0315D20AB314001630803197B2BB30168
:1056E600D030B400BA30B5000030B0318E20AB31C6
:1056F60040015E084101E700E80167084001B50086
:10570600410168084001B6001F30B7000030B800FC
:10571600BF310A27AB3174304101E9002730EA0076
:105726004001350841016907EB0040013608410197
:105736006A3DEC006B08153ED90000306C3DDA007E
:105746003F30DE008030DD000030DC000030DB0062
:105756004130E2008030E1000030E0000030DF0040
:105766003F30E6000030E5000030E4000030E300A2
:10577600AA314722AB3140015E084101E700E8014A
:1057860067084001B500410168084001B6001F30B6
:10579600B7000030B800BF310A27AB317430410181
:1057A600E9002730EA004001350841016907EB00AE
:1057B6004001360841016A3DEC006B0886006C0822
:1057C60087005531403F4201C000413FC100423F82
:1057D600C200433FC30043084101DC0042014208C6
:1057E6004101DB00420141084101DA004201400863
:1057F6004101D9000430E7006708DD00DE01DE0A5A
:105806003F30A031A020AB314001B301B30AB43020
:10581600B400BB30B5000030B0318E20AB31400152
:10582600B301B30A3F30B4000230B5000130B031E5
:105836008E20AB314001B301B30A6930B400BB30EE
:10584600B5000530B0318E20AB31BE318126AB318B
:10585600013A031D322CA831A8200030080001307F
:1058660008004201690803194A2C43016E084401E5
:10587600A30043016D084401A20043016C084401E2
:10588600A10043016B084401A0004201E901440163
:1058960023084001AF00440122084001AE00440144
:1058A60021084001AD00440120084001AC00B73199
:1058B6008027AC3140012F08C8002E08C7002D08EC
:1058C600C6002C08C500C901043049020318F22C91
:1058D6000930C0004008AC004908BE31B026AC31E2
:1058E600083EAA3E86000230870001084001C1003A
:1058F600C201C301C40144084802031D8C2C43089D
:105906004702031D8C2C42084602031D8C2C4108BD
:105916004502031C902CB001D92C09304001C0006F
:105926004008AC004908BE31B026AC31073EAA3E5D
:1059360086000230870001084001C100C201C30190
:10594600C40144084802031DB22C43084702031D44
:10595600B22C42084602031DB22C41084502031C24
:10596600E92C0930C0004008AC004908BE31B02619
:10597600AC31083EAA3E860002308700010840018D
:10598600C100C201C301C40144084802031DD52C4D
:1059960043084702031DD52C42084602031DD52C99
:1059A600410845020318E92CB001B00A0930C000CD
:1059B6004008AC004908BE31B026AC31AA3E86008C
:1059C600023087000108B2318B22AC310130400130
:1059D600C0004008C90704304902031C6B2C480864
:1059E600031DFF2C4708031DFF2C4608031DFF2C33
:1059F60064304502031C022D4201E901E90A420115
:105A0600690808004001C800C9011230490203189C
:105A1600E72D4908C300C4014308B5004408B60091
:105A26000630B7000030B800BF310A27AD3140015B
:105A3600360885003508840000308407B830853D77
:105A460000084806031DDF2D4908C300C4014308AA
:105A5600B5004408B6000630B7000030B800BF31C4
:105A66000A27AD3140013508013EC5000030363DFC
:105A7600C600003045078400B830463D8500000862
:105A860040060319652D4908C300C4014308B50043
:105A96004408B6000630B7000030B800BF310A2708
:105AA600AD3140013508013EC5000030363DC60027
:105AB600003045078400B830463D85001200FF3AA5
:105AC600031DDF2D42080319842D4908C300C401B4
:105AD6004308B5004408B6000630B7000030B800E9
:105AE600BF310A2740013508043EC5000030363D67
:105AF600C600003045078400B830463D85000008E2
