:0400000080315F28C4
:100008007E1480314E01961A8C1E1128FD0AB230DA
:100018004B019C004E018C125D28161A0C1E2D28CF
:100028007E01BF1F1C288731D52780317E01BF1371
:100038003F1E23289C315A2480317E013F12BF1E67
:100048002A289C315A2480317E01BF124E010C129D
:100058005D280B1F5D281A18101C562843012B0811
:10006800FA002A08F9002908F8002808F7000130E2
:10007800A8070030A93DAA3DAB3D7702CA30783BBE
:100088009A30793B3B307A3B031C4E28A801A901E2
:10009800AA01AB01CF3044018D002B308C004E01FA
:1000A80010105D28991A8F1E5D289C318A244E01F4
:1000B8008F127E1009008031612842010130EE0064
:1000C800453084009C308500D83086000130870098
:1000D800153088310D2080315C30FB01FC01FD01B9
:1000E8008400013085001230883107208031A0302B
:1000F8008400013085003830883107208031203075
:100108008400023085003530883107208031A030E6
:10011800840002308500503088310720803120303B
:100128008400033085003D308831072080317E10FF
:1001380040019E28D8228031400199169A15C02086
:1001480080313A268031BE20803118146400203076
:100158001F23803120307521803120303C268031AA
:100168000D304201DB00FB30890BB828DB0BB828C7
:100178000032AA2801306E2919121911991141303B
:100188004001A600EE30890BC728A60BC72800003F
:100198004001991019109A121A1203304021803127
:1001A80007304001A6007D30890BD828A60BD82837
:1001B80008304021803107304001A6007D30890B8E
:1001C800E328A60BE32802304021803107304001A4
:1001D800A6007D30890BEE28A60BEE2802304021C0
:1001E800803107304001A6007D30890BF928A60B25
:1001F800F92808304021803107304001A6007D30C1
:10020800890B0429A60B042908306E218031073098
:100218004001A6007D30890B0F29A60B0F2901305C
:100228006E21803107304001A6007D30890B1A29E4
:10023800A60B1A2906306E21803107304001A6002E
:100248007D30890B2529A60B252902306E218031A6
:1002580007304001A6007D30890B3029A60B3029D4
:100268000C306E21803107304001A6007D30890BAB
:100278003B29A60B3B2908004001A2000139A00038
:10028800A00D19082006FD39200699002208A000B3
:100298000130A0362005A10019082106FE392106E3
:1002A80099002208A000B3278031A10D1A08210661
:1002B800DF3921069A002208A000A036B327803132
:1002C8001A082106EF3921069A001030890B6A298D
:1002D8000032DD2E4001A500A3012508C12280318E
:1002E800E62ED800BA27C700413FC800423FC900E0
:1002F800433FCA00C130CE00F030CD00CC01CB0165
:100308008C31CA248031031C9D294230CA00C83070
:10031800C900C801C7015808BA27CB00413FCC0023
:10032800423FCD00433FCE008C31CA2480310318B0
:10033800A129A72780310111582AA7278031011543
:10034800582A430133084001A700430132084001FD
:10035800A600430131084001A500430130084001CF
:10036800A4006B2280312708031DC4292608031D19
:10037800C4292508031DC42932302402031C08009F
:10038800B022803123084301AF0040012208430115
:10039800AE00400121084301AD004001200843019F
:1003A800AC002F08B3002E08B2002D08B1002C08AD
:1003B800B0003F3002274201ED01ED0A0800430179
:1003C8002F084001A70043012E084001A600430161
:1003D8002D084001A50043012C084001A4006B2210
:1003E80080312708031D542A2608031D542A25088E
:0803F800031D542A15302402F4
:10040000031C452A542A5708023E86000130870003
:10041000010B542A5708033E86003D2780310C27E4
:1004200080315708073E8600013087003D27803124
:10043000043E0C27803157080B3E860001308700B0
:100440003D278031083E0C278031570A8600013055
:1004500087000108A0000030A101A201A3014225EC
:1004600058080C3E8600023087002008C03F210853
:10047000C13F2208C23F2308C33F5808203E8600E0
:10048000023081144201ED010800CF228031003A90
:1004900003190800CE228031D70086000130870082
:1004A000AA3001060319032AA72780318110422AA6
:1004B00042016D084001D300D4015408003A0319E9
:1004C000622A422A5308003A0319A529013A03195E
:1004D000E329422A0800B02280312308B300220811
:1004E000B2002108B1002008B00027083302031D24
:1004F000832A26083202031D832A25083102031DA0
:10050000832A24083002031C922A24083002A800FF
:100510002508313BA9002608323BAA002708333BB7
:10052000AB008F2F0130A800CA30A9009A30AA0072
:100530003B30AB0024083002AC002508313BAD0055
:100540002608323BAE002708333BAF002C08A80733
:100550002D08A93D2E08AA3D2F08AB3D2B088F2F53
:1005600043012B084001A30043012A084001A200D7
:10057000430129084001A100430128084001A000CF
:100580000800A400230C031C191203181916991152
:10059000240E0F394021803124084029BC34420107
:1005A00068084001A0004201E8014001200808005D
:1005B00002305101930060308D000F1EDD2A7D0155
:1005C0004B08C0391738CB000F307E01A6004030F1
:1005D000B800C3010330CE00F03040019200930117
:1005E0008730940041011D14E0309E0080304B01A3
:1005F0009E0047309F00B2309C00333044018E0093
:1006000001309100CF308D002B308C0030304E0106
:1006100096002030990001309A00C0308B00B03035
:100620007E01BD00BE000430D400083042019F00AE
:1006300019309B0090309D0020309E000800400142
:10064000E6000630AB258031332780313B0840017E
:10065000AF0043013A0864278031CA2580312D0854
:100660004301BB0040012C084301BA001030AB2508
:1006700080313327803139084001AF004301380809
:1006800064278031CA2580312D084301B90040011B
:100690002C084301B8001130AB258031332780315D
:1006A00037084001AF004301360864278031CA256E
:1006B00080312D084301B70040012C084301B600EA
:1006C000C2304001CA000A30C9000C30C8004A30AC
:1006D000C7003D30B100F330B000EA30AF00B330B6
:1006E000AE0043013A084001A00043013B08AD279A
:1006F0008031422580315B27803111243108CE00C2
:100700003008CD002F08CC002E08CB009C31E1240E
:1007100080316608103E8600023087004708C03FDF
:100720004808C13F4908C23F4A08C33F4030A0279C
:10073000803138084001A00043013908AD278031DD
:10074000422580315B278031112480313108E3005C
:100750003008E2002F08E1002E08E0004730CA0010
:100760003B30C900D130C8004330C701B10045302B
:10077000B000AF01AE016308B5006208B4006108C3
:10078000B3006008B2001124803186278B31CC235E
:1007900080316608143E7A2780314530CA001F3008
:1007A000C900D830C8004030C701A02780313608C2
:1007B0004001A00043013708AD2780314225803138
:1007C0005B2780311124803186278B31CC23803107
:1007D0006608183E7A2780316608183E8600403F3A
:1007E000AE00413FAF00423FB000433FB10066085A
:1007F000143E8600403FB200413FB300423FB40088
:10080000433FB500112466081C3E86000230870075
:100810002E08C03F2F08C13F3008C23F3108C33FF8
:1008200008003108BA008030BA053135C000B01B6D
:10083000401440080319222C400F202CCB27803174
:10084000B017242CCB27803135088039BA063535CE
:10085000BB00B41B3B143B080319342C3B0F322C58
:10086000C6278031B417362CC62780313B08031DBC
:100870004008031D402CAE01AF01B001B1010800DA
:100880002E08A00034082B2580312108C60020083E
:10089000C500BC00BD01BE01BF014608C100C201C8
:1008A000C301C4012F08A00033082B258031210883
:1008B00047278031C10701300318C2070318C30757
:1008C0000318C4073008A00032082B258031210806
:1008D00047278031232780312F08A00032082B259D
:1008E0008031182780312E08A00033082B25803155
:1008F000182780313E08BF003D08BE003C08BD00FF
:10090000BC012E08A00032082B2580311827803129
:100910002F08A00034082B2580316D278031330843
:100920002B2580316D27803134082B25803121081B
:10093000C6002008C500B6004608B700B801B901D6
:100940003808B9003708B8003608B700B6013608CD
:10095000C1073708C23D3808C33D3908C43D3F08C8
:10096000232780314008C500C6013B08C50703188E
:10097000C60A8230C507031CC603C31BCB2CC13576
:10098000C20DC30DC40DBF1B4114FF30BC35BD0DDE
:10099000BE0DBF0DBA2CBB01BF1FE02C3C08B6003A
:1009A0003D08B7003E08B8007F303F05B900380465
:1009B0003704360403194118DE2CE02CBB01BB0AB6
:1009C0003B080319F22C0130C1070030C23DC33D82
:1009D000C43D441CF22CC437C30CC20CC10CC50A64
:1009E0000319C60AC0278031031DF82CFF304502C9
:1009F000031C022D7F304001C4008030C300C201BF
:100A0000C101202D4001C0278031031D092D013077
:100A100045020318122D4001C101C201C301C401E6
:100A2000BA01202D40014508C000FF30C105C205B4
:100A30007F30C3050030C4014018C3174036C400DE
:100A40003A08C4044408B1004308B0004208AF00AB
:100A50004108AE000800A700A301A4012008A500DA
:100A6000A601271C372D2508A3072608A43DA53578
:100A7000A60DA7362708031D312D2408A100230841
:100A8000A0000800A8002808031DA31F572D200957
:100A9000AA002109AB002209AC002309AD00AA0A73
:100AA0000319AB0A0319AC0A0319AD0A5F2D230819
:100AB000AD002208AC002108AB002008AA002308E2
:100AC000220421042004031D6A2DA001A101A2011A
:100AD000A30108009630A900FE302D0503197D2DD5
:100AE000A90AD02780316C2D0130A90AAA0700304D
:100AF000AB3DAC3DAD3DD0278031FF302D05031916
:100B00008B2D742D02302902031C8D2DA903AA35CB
:100B1000AB0DAC0DAD0DAC1F822D291CAC13A9364D
:100B20002908A700A601A501A4012408AA042508F4
:100B3000AB042608AC042708AD042808031DA31F36
:100B4000A22DAD172D08A3002C08A2002B08A10090
:100B50002A08A00008004001A300A200A20DA20DD7
:100B600041011D08400122060339220641019D0072
:100B700000320032000041019D149D18BD2D1C085B
:100B80004001A100A00141011B084001A00703187A
:100B9000A10A08002C08A0002D08A100A201A301B1
:100BA0003308A7003208A6003108A5003008A400C9
:100BB000152680312308BB002208BA002108B9009D
:100BC0002008B8000130A701A600A501A401300843
:100BD000A4023108A53B3208A63B3308A73B2E08E8
:100BE000A0002F08A100A201A30115262008B80724
:100BF0002108B93D2208BA3D2308BB3D8030B4012D
:100C0000B500B601B7013808B4073908B53D3A0850
:100C1000B63D3B08B73D3608B4003708B500B6010D
:100C2000B701AD003408AC000800A801A901AA0171
:100C3000AB01201C232E2408A8072508A93D26085F
:100C4000AA3D2708AB3DA435A50DA60DA70DA336DB
:100C5000A20CA10CA00C2308220421042004031DD3
:100C6000192E2B08A3002A08A2002908A100280891
:100C7000A000080002306E294201D700D20065357D
:100C8000D83E860001308700413F8A00403F0A007D
:100C900086314201D800EE01D52680314201D900CB
:100CA00058084001A600420159084001A70042012E
:100CB0006508732680314201DA00DA1B0800D30090
:100CC000D401D31BD4036508D500D60154085606B9
:100CD000031D6C2E5308550603190800EE01EE0A99
:100CE0005A08E50008004001A900AA0154278031F4
:100CF000C02680312108850020088400A8308407A0
:100D0000A030853D00082906031DBA2E54278031E6
:100D1000C0268031972780310008260603199A2EB5
:100D200054278031C0268031972780311200FF3A46
:100D3000031DBA2E270BA92E54278031C026210867
:100D4000850020088400AA308407A030853D000873
:100D5000080002302706031DBA2E54278031C02612
:100D60002108850020088400AB308407A030853D31
:100D7000000808000630AA0A2A020318FF34762E5B
:100D8000A401A501201CC82E2208A4072308A53D04
:100D9000A235A30DA136A00C20082104031DC22EEC
:100DA0002508A1002408A00008006B084001A0004D
:100DB0004201EB01400120080800400119151030E4
:100DC000890BE02E00324001191108001416191287
:100DD000991519110330890BEB2E000040011915EC
:100DE0000330890BF12E0000003040010E1A013053
:100DF000A0001911DD2680312008031DE92E1412F0
:100E0000991108004001A000200842019A0000004A
:100E10004E010F1A0800082F860002308700530881
:100E2000C03F5408C13F5508C23F5608C33F0800A1
:100E30002108C6002008C500BC074608BD3D00309B
:100E4000BE3DBF3D0800C10701300318C2070318AB
:100E5000C3070318C4073E08BF003D08BE003C0896
:100E6000BD00BC0108002108E5002008E400650879
:100E7000AD006408AC0043010800403FD300413F8F
:100E8000D400423FD500433FD60058080800C600B2
:100E90002008C500BC0701300318BD070318BE07B2
:100EA0000318BF07460808002A08A0000530A10162
:100EB000A200A30108002308B5002208B4002108FD
:100EC000B3002008B20008004001AE00A630B30114
:100ED000B201B1006530B00008002108C60020084A
:100EE000C500C1074608C23D0030C33DC43D3008BF
:100EF000A00008008600023087004708C03F48086D
:100F0000C13F4908C23F4A08C33F08003108CE002C
:100F10003008CD002F08CC002E08CB000800A70019
:100F20002A08A6002908A5002808A400080021080E
:100F3000850020088400A9308407A030853D080082
:100F4000B100A030B000AF01AE0143010800580865
:100F5000203E86000230870008004001A1000030DA
:100F6000A201A3010800A036A03620080139A10083
:100F7000A10E0800103E860002308700403F0800A6
:100F80004608803AB600803036020800B201B3014C
:100F9000B401B5010800AE01AF01B001B101080014
:100FA000AD36AC0CAB0CAA0C080040018C1BD92F41
:100FB000FA2FF8278731F000063070023330031C17
:100FC000E92F70020318E82F01304201EB000800FE
:100FD00033307002031CF42F973070020318F42F83
:100FE00002304201EB00080003304201EB00080030
:080FF0007D080800FD01080066
:10100E00640080010131890B08280034FE001200B3
:10101E001E00FE0B0E28003440012030A401A40A4D
:10102E0020062104031928282008F73EA200FF30CD
:10103E00213DA300003023020530031922020318BC
:10104E00A4012408A000A10108004101C600C401AA
:10105E00C50140016B084101DA0040016A084101F7
:10106E00D900400169084101D800400168084101DA
:10107E00D70026268831CB268831CA24883103181A
:10108E006C284101C401C40AC5015A084001A300DD
:10109E00410159084001A200410158084001A10038
:1010AE00410157084001A0005E2588312308410107
:1010BE00DA00400122084101D90040012108410116
:1010CE00D800400120084101D7004101DD01DE01B9
:1010DE0042015D084101CB0042015C084101CA009A
:1010EE0044084504031D7E284201601D92284101DB
:1010FE0044084504031D85282B3086282D30AE006C
:10110E00AF014501A0004101DD0A0319DE0AFF30DF
:10111E00CA07031CCB035D2688315927883120036B
:10112E002104031DB828A2258831B000B101310475
:10113E000319A62837304001A000A130AA283F305D
:10114E004001A000A130C626883124258831FD300B
:10115E004101CA07031CCB034F2691313921883137
:10116E00A92E5D2688315927883120082104031DB8
:10117E00DE28A2258831B200B30133040319CC282E
:10118E003B304001A000A130D02843304001A000E8
:10119E00A130C626883124258831FD304101CA0789
:1011AE00031CCB034F26913139218831A92E3F30B4
:1011BE004101932688315A084001A3004101590884
:1011CE004001A200410158084001A1004101570809
:1011DE004001A00004278831D0268831031C112934
:1011EE004A294130B10020308E25843111248831B6
:1011FE0031084101E200400130084101E1004001A7
:10120E002F084101E00040012E084101DF00DB0AFA
:10121E000319DC0A4101262688314130B100203005
:10122E008E258431112488313108CE003008CD004E
:10123E002F08CC002E08CB00CA248831031C33297A
:10124E00F828413067258831CC238831162688311D
:10125E00FF30DB07031CDC034101262688314101E8
:10126E0062084001CE00410161084001CD004101FC
:10127E0060084001CC0041015F084001CB00CA2448
:10128E008831031C28296C08A400A50195313A2544
:10129E00883124084101CC00C90067304C06031D7B
:1012AE006F2942015E085F04031D6029DE01DE0A1C
:1012BE00DF015F08A3268831031D68290130420132
:1012CE005E020318722906304101C700C8017A294F
:1012DE004201DF1B6A2942015F084101C800420139
:1012EE005E084101C70067304C06031DA9295C0842
:1012FE00803A4001ED007F306D02031D8929FC30DC
:10130E0041015B02031CA62941014708FF3E400133
:10131E00ED00FF304101483D4001EE00803AEF0004
:10132E0041015C08803A40016F02031DA229410170
:10133E005B0840016D02031CA6296630A7296530A3
:10134E004101C9004808BF004708BE0067304C067F
:10135E00031DB629663049060319DC1FB929BE0ADA
:10136E000319BF0A66304906031DCA29DC1FC229AC
:10137E003F309326883167304C060319CA295B0823
:10138E00BE075C08BF3DD501D6015A08D0005908EA
:10139E00CF005808CE005708CD006208AD00610896
:1013AE00AC006008AB005F08AA006E2688310318F7
:1013BE00022AB5258831CC2388318A2690313D20EA
:1013CE008831F6258831092788319B268831D62524
:1013DE0084311124883136268831412588317D2586
:1013EE00883167258831CC23883116268831D50A75
:0213FE000319D1
:10140000D60ADC2940304001B100A0308E2584315D
:101410001124883131084101D400400130084101D4
:10142000D30040012F084101D20040012E084101A4
:10143000D10050084001CA0041014F084001C900D5
:1014400041014E084001C80041014D084001C7005C
:10145000410154084001CE00410153084001CD0034
:10146000410152084001CC00410151084001CB002C
:10147000CA24883103183E2A4101652A41015008D7
:101480004001A30041014F084001A20041014E0864
:101490004001A10041014D084001A0004101540854
:1014A0004001A700410153084001A6004101520834
:1014B0004001A500410151084001A400D026883117
:1014C000031C692A41014218692AD101D201D301C2
:1014D000D401410154084001CA00410153084001B0
:1014E000C900410152084001C800410151084001B2
:1014F000C70041015A084001CE004101590840018E
:10150000CD00410158084001CC004101570840017D
:10151000CB009C31E12488314A084101D0004001D0
:1015200049084101CF00400148084101CE00400177
:1015300047084101CD002D08E2002C08E1002B08EE
:10154000E0002A08DF00653049060319AC2A5C0870
:10155000C1005B08C000AE2AC001C101BC01BD01D1
:10156000BA01BB01D501D601122BB5258831CC2398
:1015700088318A2690313D208831F6258831092727
:1015800088319B2688314201601AD42A41014208E1
:101590004304031DD42A67304C060319C11FD42A03
:1015A000BA0A0319BB0AFB2A41013C083D0403198E
:1015B000C11FE42A7D2688312E3083268831031C02
:1015C000CB03BC01BC0ABD013A083B040319F32A52
:1015D0007D268831303083268831031CCB03BA073F
:1015E000031CBB03E42A7D2688314208303E832653
:1015F0008831031CCB03D62584311124883136264B
:101600008831412588317D25883167258831CC2373
:10161000883116268831FF30C007031CC103D50A64
:101620000319D60A6E2688310318212B41015E0862
:10163000A3268831031D1F2B4B3041015D02031C83
:10164000B52A41013C083D04031D312B4201601EB7
:10165000312B41017D2688312E308100DD0A0319AE
:10166000DE0A41017D268831653081014906031D6E
:10167000C72B4F30D500D601A03E86008101C401A2
:10168000C501DC1F4B2BC401C40AC501DB09DC0901
:10169000DB0A0319DC0A0230C700C8015B085C04DE
:1016A0000319862BFF304101D507031CD603AE2654
:1016B0000A304001A000A10141015C084001A300E3
:1016C00041015B084001A2009031042088312008CC
:1016D000303E81000A30A000A10141015C084001B8
:1016E000A30041015B084001A200C0278831210806
:1016F0004101DC00400120084101DB00FF30C70749
:10170000031CC803CA07031CCB034E2B4808A3269F
:101710008831031D8E2B013041014702FF30031831
:10172000532B4101D507031CD60344084504031D70
:101730009B2B2B309C2B2D30B400B501AE2688316D
:1017400034088100FF30CA07031CCB03D507031CF4
:10175000D6034001A2258831B800B9013904031D20
:10176000B32B6530B42B4530B600B701AE268831B7
:1017700036088100FF30CA07031CCB035508A03E82
:101780004001A0000230C6268831242588314F262A
:10179000913139218831A92E4E08D7008030D705E4
:1017A0004E35DE00CD1B5E145E080319DF2B5E0F85
:1017B000DD2BCB01CC01CD01CE01CD17E22BCB012E
:1017C000CC01CD01CE014A088039D7064A35DF0069
:1017D000C91B5F145F080319F52B5F0FF32BC701BB
:1017E000C801C901CA01C917F82BC701C801C9013D
:1017F000CA014A08490448044704031D122C8030DA
:10180000CB01CC01CD01CE01CD047F30CE045708F1
:10181000CE044E08CA004D08C9004C08C8004B0849
:10182000C70008005E08031D1A2CC701C801C901C2
:10183000CA0108005E08D800D9015F08D802031C5D
:10184000D9037F30D8070318D90A4E08D6004D08AF
:10185000D5004C08D4004B08D300CB01CC01CD01FE
:10186000CE01DA01DB01DC01DD01DF011A305F02AC
:101870000318662C5F0803194B2CD335D40DD50DF6
:10188000D60DCB35CC0DCD0DCE0DDD1B4B14DA3581
:10189000DB0DDC0DDD0D4A085602031D592C4908ED
:1018A0005502031D592C48085402031D592C4708A2
:1018B0005302031C642C5D174708D3024808D43B2D
:1018C0004908D53B4A08D63BDF0A362C5608550452
:1018D00054045304031D5A14CD1B7D2CCB35CC0D61
:1018E000CD0DCE0DDD1B4B14FF30DA35DB0DDC0DDD
:1018F000DD0DD807031CD9036C2CDF01DD1F922CF2
:101900005A08CF005B08D0005C08D1007F305D052D
:10191000D200510450044F0403194B18902C922C00
:10192000DF01DF0A5F080319A42C0130CB07003068
:10193000CC3DCD3DCE3D4E1CA42CCE37CD0CCC0C99
:10194000CB0CD80A0319D90ABA268831031DAA2C50
:10195000FF305802031CB12CFF304001D800B426E0
:1019600088314001BA268831031DB82C0130580255
:101970000318BF2C4001D801B4268831D70140019B
:101980005808DE005E1CC62CCD17C72CCD135E3662
:10199000CE00072C8030CF01D0014905D1007F3027
:1019A0004A05D200510450044F04031DDB2CC7012B
:1019B000C801C901CA018030CF01D0014D05D10055
:1019C0007F304E05D200510450044F04031DEA2C11
:1019D000CB268831CA1FFE2CC02688314708CF028B
:1019E0004808D03B4908D13B4A08D23B5208CA00BC
:1019F0005108C9005008C8004F08C700CE1F122D5B
:101A0000C02688314B08CF024C08D03B4D08D13B53
:101A10004E08D23B5208CE005108CD005008CC00F1
:101A20004F08CB008030CA06CE064E084A02031D7E
:101A300008004D084902031D08004C084802031D18
:101A400008004B08470208004001A7002108A50034
:101A50002008A4002708A600260886000230870078
:101A6000A60A2508A3002408A200A40A0319A50AAF
:101A70008400230885000008C03F89080319080076
:101A80002C2D8030DE066208CA006108C90060089B
:101A9000C8005F08C7005E08CE005D08CD005C0886
:101AA000CC005B08CB009C31E1244A08DE004908E9
:101AB000DD004808DC004708DB000800230822049A
:101AC00021042004031908008030A3060800CA007E
:101AD0002030C900C801C701410162084001CE00A1
:101AE000410161084001CD00410160084001CC0086
:101AF00041015F084001CB0008005E084101D000B1
:101B000040015D084101CF0040015C084101CE0069
:101B100040015B084101CD0040014134B000AF01FC
:101B2000AE01410162084001B50041016108400178
:101B3000B400410160084001B30041015F08400169
:101B4000B20008006C08BF3EED00FF300318003003
:101B5000EE0000306E021A3003196D020318B22D28
:101B60000130B32D003041010800410162084001FD
:101B7000CA00410161084001C900410160084001FB
:101B8000C80041015F084001C70041015008400101
:101B9000CE0041014F084001CD0041014E084001F7
:101BA000CC0041014D084001CB0008005408400121
:101BB000B500410153084001B40041015208400101
:101BC000B300410151084001B200410162084001E7
:101BD000B100410161084001B000410160084001CD
:101BE000AF0041015F084001AE00080040016308FA
:101BF0004101D400400162084101D3004001610865
:101C00004101D200400160084101D1005408400167
:101C1000A300410153084001A200410152084001C4
:101C2000A100410151084001A00008004A084101FB
:101C3000E200400149084101E1004001480841013A
:101C4000E000400147084101DF0008005A08400158
:101C5000CA00410159084001C9004101580840012A
:101C6000C800410157084001C70008003108DE00E4
:101C70003008DD002F08DC002E08DB004101500891
:101C80004001E20041014F084001E10041014E08DE
:101C90004001E00041014D084001DF000800A03094
:101CA0004001AE0041014B084001B00041014A082B
:101CB0004001AF0041014608080041015A084001B7
:101CC000A300410159084001A20041015808400108
:101CD000A100410157084001A00008005608803AC1
:101CE0004001ED0041013F08803A40016D02031DB3
:101CF000080041013E08550208005D08A03E86002C
:101D00000230870008008100DD0A0319DE0AFF3077
:101D1000CA0708004A08E3004908E2004808E10051
:101D20004708E0000800E2008030E100E001DF0148
:101D3000DB01DC01080021084101C300400120084B
:101D40004101C2000800803A4001ED0080306D0280
:101D500008002F08E9002E08E80008005508A03EFA
:101D60008600023087000800D901CB01CC01CD01EB
:101D7000CE0108005908803ACF0080304F02080099
:101D80008030CF01D001D101D2000800A100410173
:101D90005D08A03E0800CB01CC01CD01CE010800BA
:101DA0008030A801A9012205AA007F302305AB00DD
:101DB0002A0429042804031DE12EA001A101A20187
:101DC000A3018030A801A9012605AA007F302705BC
:101DD000AB002A0429042804031DF02E04278831AF
:101DE00027082306031DFE2E26082206031DFE2EAD
:101DF00025082106031DFE2E240820060319022FA4
:101E00000310080003140800A401A501A601A701FE
:101E10000800502788310310260D270DA900290836
:101E2000031D172FA001A101A201A3010800502743
:101E300088311F30A736A60CA50CA40C890B1A2FCD
:101E40002408A8009630A217A301A902A91F342FC5
:101E50002908803A973E031C122FA336A20CA10C2E
:101E6000A00CA90F2D2F412F203029020318122F6B
:101E700029080319412FA035A10DA20DA30DA90317
:101E8000382F280803190800A009A109A209A309ED
:101E9000A00A0319A10A0319A20A0319A30A080038
:101EA0002008A4002108A5002208A6002308A700F6
:101EB0000800430127084001AD0043012608400106
:101EC000AC00430125084001AB0043012408400158
:101ED000AA002308AD002208AC002108AB002008AE
:101EE000AA00B8278831260D270DA400A501A60158
:101EF000A701A50D2508A9002408A800FF30A80502
:101F0000A90128082904031D9A2F2A08B827883117
:101F1000A435A50DA60DA70D270826042504240425
:101F2000031D962F0230A000A10108000330A0007D
:101F3000A1010800280A2904031DB42F2A08B82784
:101F400088310930A435A50DA60DA70D890BA22F48
:101F50002708260425042404031DB02F0130B12FC7
:101F60000030A000A10108000430A000A101080079
:101F7000A4002B08A5002C08A6002D08A700080027
:101F8000A501A11FCA2FA009A109A00A0319A10A2E
:101F9000A501A50AA31FD32FA209A309A20A031909
:101FA000A30A0130A506A601A701200821040319F0
:101FB000F32FA401A40AA11BE02FA035A10DDA2F55
:101FC000A635A70D21082302031DE82F20082202B1
:101FD000031CEF2F2008A2022108A33B2614A136E0
:101FE000A00CA40BE02F25080319FB2FA609A709B5
:101FF000A60A0319A70A2708A1002608A0000800BE
:10200800A501A31F0E28A209A309A20A0319A30A5E
:10201800A501A50AA11F1528A009A109A00A03194D
:10202800A10A2008210403193028A401A40AA11B2D
:102038002028A035A10D1A2821082302031D2628CF
:1020480020082202031C2C282008A2022108A33BF6
:10205800A136A00CA40B2028250803193828A209AA
:10206800A309A20A0319A30A2308A1002208A000B1
:102078000800430123084101A90043012208410146
:10208800A800430121084101A7004301200841019C
:10209800A600400163084101A9004001620841010E
:1020A800A800400161084101A70040016008410102
:1020B800A60025219031660D670DE400E501E601D3
:1020C800E701E50D65084101A500400164084101EB
:1020D800A4008130A501A407031CA5032508803AA4
:1020E8004001E40080306402031D7D28173041015F
:1020F8002402031808004101A51BEE28FF30400107
:10210800E400E5007F30E600E7014101240A4001D0
:102118009128E737E60CE50CE40C890B8D28670855
:102128004101A300400166084101A2004001650881
:102138004101A100400164084101A00026054001B9
:10214800E4004101270821054001E5004101280874
:1021580022054001E6004101290823054001E70066
:102168006604650464040319080041012608252152
:1021780090311F3034219031890BBE28640803192F
:10218800CE2841012008A6072108A73D2208A83D1E
:102198002308A93D410120094001E400410121092A
:1021A8004001E500410122094001E60041012309FF
:1021B8004001E70064084101A605400165084101A6
:1021C800A705400166084101A805400167084101CB
:1021D800A90514292608252190311F303421903172
:1021E800890BF2286408031DFF284101A601A701F5
:1021F800A801A90114294101260825219031E435B7
:10220800E50DE60DE70D6708660465046404031927
:102218001429BF304101A9008030A800A701A601F8
:10222800410129084001E300410128084001E2007A
:10223800410127084001E100410126084001E00072
:1022480008004001E400410127084001E500410180
:1022580028084001E600410129084001E70008007C
:10226800E736E60CE50CE40C08004001B600420134
:10227800601C4229FB2791317D2191314001B01B1F
:102288004A293008B5002F08B4004C29B401B5011B
:10229800B201B3013308803AB1003508803A3102FF
:1022A800031D5829340832020318672920304001D9
:1022B800A000A1013608A200642691314001B20AAB
:1022C8000319B30A4E29420160186E29FB27913180
:1022D8007D21913140012E08A0000230A100AA26DC
:1022E8002108AF002008AE003408AE073508AF3D1E
:1022F8000800AD00AB01AC012B082D07A900860032
:10230800023087000108AA002A0803190800A00063
:10231800A1012808A200642691314001AB0A0319E3
:10232800AC0A80296308ED22913142016E08031935
:10233800A62940011C30A601A700A030A800003043
:102348009E22913104304001A60042016308102307
:102358004201E300E600630808000030ED229131F5
:1023680040012B30A601A700A130A80000309E2212
:102378009131203081279131CB2291313C27913105
:102388009E2200340030ED22913140011E30A6011A
:10239800A700A130A80000309E229131203081276B
:1023A8009131CB2291313C2791319E220034620831
:1023B800ED2291314001C630A601A700A030A80047
:1023C80000309E2291319F279131DF30B600A03036
:1023D800B7006608B800B9016608BA00BB01CB228D
:1023E80091313C2791319E2291310230A600420161
:0823F800620810234201E2001B
:1024000008006408ED229131D8279131811C792A86
:1024100040014D30A601A700A030A80000309E2248
:102420009131D8279131CB30B4000130B500011D76
:10243000262AF230B600A030B700520886006C277A
:1024400091315208103E95279131302A1130B60053
:10245000A130B70052088600023087006C27913106
:10246000CB2291312030B4000330B5007E30B6006D
:10247000A030B700CB30B8005208043E86000230CE
:102480008700403FB900413FBA00423FBB00433F95
:10249000BC005208083E8600403FBD00413FBE00E0
:1024A000423FBF00433FC0005208143E8600403FF9
:1024B000C100413FC200423FC300433FC400520835
:1024C0001C3E8600403FC500413FC600423FC7005A
:1024D000433FC800CB2291313C2791319E2291315C
:1024E0000430A60042016408102391314201E40047
:1024F0009B2AE40186313A2691317130A601A7006A
:10250000A030A80000309E2291319F279131993050
:10251000B600A030B7005208143E86000230870093
:102520006C27913152081C3E95279131CB22913175
:102530003C2791319E22420164080800AE0043010D
:102540006C084001AD0043016B084001AC00430141
:102550006A084001AB00430169084001AA0026084F
:102560002A3E8600870101082E07803881316E21BE
:1025700091312708840028088500120003190800FB
:102580002708840028088500000859239131A70AEC
:102590000319A80AB92A3830CB003508CD00340811
:1025A000CC00CE01CF01D001D10137084101EA00B2
:1025B000420136084101E9004B30EB004C307023FA
:1025C0004E30860001308700403F420134078400CE
:1025D000413F353D8500800108004001A6004201D1
:1025E0006E0803190800023081316E219131A70174
:1025F0002608A0000C30A101A200A3018631C0264C
:1026000091312108803A803C031D082B20082702C5
:1026100003180800183081316E219131A70AF82A79
:102620004001AA004E01161267239131A900290B1F
:102630003B2B2608FF3EA700FF3003180030A80000
:10264000803A803C031D262B27082A0203183B2BC7
:102650004001AA0AAB01612391311A304001A70061
:10266000F830890B312BA70B312B0000F12791316A
:102670000318542B2B2B023040012906031D542B29
:102680002A080319542BAA03AB01642391311A3091
:102690004001A700F830890B4B2BA70B4B2B0000F8
:1026A000F1279131031C452B4E01161640012A08D3
:1026B0000800A500A301A30A25088231C1228631A2
:1026C000E62E183081316E291C3081316E2942018D
:1026D0006C084001A0004201EC0140012008080004
:1026E000ED006A08EF006908EE004301B401B5018E
:1026F00041016E0884006F088500120003198F2BBA
:10270000EE30E3006B08E4006D0898239131630814
:102710004301B407410164084301B53D782B4301EF
:1027200035084101EA00430134084101E90008008D
:102730004201B3004101F62691311200253A031DF2
:102740002B2D242791310318810A4201FF30DC012F
:10275000DD01E001E101DE00DF004101F6269131FB
:1027600012002A3A031DC52B630886000927913100
:102770004201DC00013FDD00DD1FE02B6014DC09BD
:10278000DD09DC0A0319DD0AE02BAB279131552561
:10279000913127084201DD00400126084201DC009A
:1027A000D62B4101242791310318810A4101F626D5
:1027B000913159279131A500A6012604031DD12B83
:1027C0004101F626913112002E3A031D192C4201C7
:1027D000DE01DF014101242791310318810AF62629
:1027E000913112002A3A031DFE2B63088600092747
:1027F00091314201DE00013FDF00192CAB279131FE
:102800005525913127084201DF0040012608420189
:10281000DE000F2C4101242791310318810A410168
:10282000F626913159279131A700A8012804031DEC
:102830000A2C4101F626913100084001A400A501AF
:102840003A25913124084201AB002B080319492C89
:10285000410163080227913101308D2791314001F8
:10286000A400A5013A25913124084201AC002C08AE
:102870000319492C410163080227913102308D2749
:1028800091314001A400A5013A259131240842016B
:10289000AD004101F62691311200643A0319562C1D
:1028A000F62691311200693A031D822C63088600D6
:1028B0000927E500013FE60065084201A00041014B
:1028C00066084201A100890D893B8909A200A30085
:1028D0004001BA00420122084001B900420121082A
:1028E0004001B800420120084001B700420133080E
:1028F0009E312B2638084101E40040013708410190
:10290000E3000800663042012B06031DA42C4101A0
:10291000F62691310008EB27913101301B279131C8
:10292000010884000130850004308107003F420126
:10293000AE00013FAF00023FB000033FB1004427AB
:1029400088312C209131B42F47304001A000A130B4
:10295000A1000230A2002B30A301C0269131200833
:102960002104031DEE2C410163080227913101303F
:102970008D279131EB279131403FE500413FE60043
:1029800065088400660885000008BF3EE700FF3048
:1029900003180030E800003068021A30031967029B
:1029A0000318D42C0130D52C00304201A900AA0113
:1029B0004101640886002B279131B1004101630871
:1029C000860002308701810741310318810A4201E4
:1029D0003108442788312C209131B42F4101F6264B
:1029E00091311200733A031D102D630886000130E7
:1029F00087011B279131403F840001308500810A07
:102A000000084201A4004001A80042013308CE257D
:102A100029084101E400400128084101E3000800C1
:102A2000F62691311200253A031D252D24279131D8
:102A30000318810A25304001A000DF279131642668
:102A40004101E301E30AE401080024270318810A95
:102A5000E301E4010800F626913100084001A000DE
:102A6000DF279131642691314101242791310318E8
:102A7000810A202D2408BF3EA600FF30253DA70077
:102A8000003027021A30031926020318492D01309D
:102A90004A2D0030A800A90129040319080020309C
:102AA0002404A4002508A5000800B201B301AB016D
:102AB000AC01B101B10A2608840027088500120084
:102AC000203A03196D2DA5279131F73EBC2791318E
:102AD0000530031928020318B1013108AD00AE0119
:102AE0002E0403197B2DA60A0319A70A592DAB0141
:102AF000AB0AAC01A42DA5279131A800A901290892
:102B0000003A0319842DA72D28082B3A0319A42D68
:102B1000063A0319772DA72DA527A8003308A10091
:102B20003208A0000A30A200A3018631C0269131EC
:102B30002108AA0028082002A900031CAA03303E8D
:102B4000B20000302A3DB300A60A0319A70AA52740
:102B50009131D03EBC2791310A3003192802031865
:102B6000B32D0130B42D0030AF00B0013004031D8F
:102B70008C2D2B082C04031DC92D3209A800330904
:102B8000A900A80A0319A90A2808A6002908A7006D
:102B900008003308A7003208A60008004001B6006C
:102BA000E2308600013087002B3084000030850041
:102BB0000730AA0016001A00AA0BDA2D2808B70061
:102BC0000130B8003704031DE92D2B30B700003069
:102BD000B8003808A1003708A000AA2691312108C2
:102BE000BC002008BB0042015F084001BA0042015E
:102BF0005E084001B900BA1B0E2E3A08803AAA00BE
:102C00003C08803A2A02031D072E3B0839020318AC
:102C10000E2E40013A08BC003908BB0040013C08B8
:102C2000BA003B08B90042015D084001B50042010D
:102C30005C084001B4004201601C272E2B2ED127D6
:102C40009131642691314001BB0A0319BC0A7527F2
:102C50009131031C1F2E4001B201B3013308803AA9
:102C6000AA003A08803A2A02031D382E3908320297
:102C700003184E2E400137088600380887000108E7
:102C8000A000A1013608A200642691314001B70AD4
:102C90000319B80AB20A0319B30A2E2E42016018AA
:102CA0005A2E5E2ED1279131642691314001BB0A04
:102CB0000319BC0A75279131031C522E40013C08B0
:102CC000A9003B08A80008002208031D2208031DD4
:102CD0006B2E2008F52EE52791311600010403190B
:102CE000892EE5279131403FA300413FA4002208EF
:102CF000023E8600403FA500413FA600803AA70063
:102D00002408803A2702031D872E23082502031872
:102D1000080040012208023E860001308700220898
:102D2000840001308500403F0007A3000131413F8E
:102D3000003DA400230886002408870020088100A5
:102D40002208023E860001308700810741310318C6
:102D5000810A08002108A3002008A200200886009C
:102D60002108870001080319B92EA00A0319A10A36
:102D7000AE2E22082002A0002308213BA10008005B
:102D8000A500A8002108A7002008A600F627913179
:102D9000220FE82E230A031DE82EA001A10108003E
:102DA000260884002708850012000319EC2E22084B
:102DB00023040319EC2ECA279131C427913124062C
:102DC000031DEC2EA80AA60A0319A70AF6279131BB
:102DD000C4279131031DD02EC4279131A000A10139
:102DE000CA27A002031CA10308000800630886008C
:102DF0008701403FE500413FE60065088400660822
:102E00008500080086008701403FE500413FE6005D
:102E1000080001308701810741310318810A6408E5
:102E200086000130870001088400013085000230EF
:102E30008107003F0800810741310318810A6408B7
:102E40008600013087000800630886000130870192
:102E500081074131080001308700010884000130FA
:102E6000850004308107003F4201AE00013FAF0002
:102E7000023FB000033F080040012030A601A60A2F
:102E8000A7000330A80000344001EB0042013008E5
:102E90004001EA0042012F084001E90042012E08EA
:102EA0004001E800420132084001EC0042013308D1
:102EB00008000008D03EE700FF3003180030E800AB
:102EC000003068020A30031967020318692F0130C5
:102ED0006A2F003042010800403FB800413FB9006E
:102EE000423FBA00433FBB00080040013C08803A23
:102EF000AA003508803A2A02031D080034083B0264
:102F000008004201B4000330B5000330B600A13020
:102F1000B7006608B800B9010800650784006608B4
:102F20000318660A8500000808008600403FBC00C0
:102F3000413FBD00423FBE00433FBF00080020307C
:102F40004201B4000330B5000800260884002708B9
:102F5000850000080800630886008701403F4001A3
:102F6000A600413FA700080069084101E4004001B4
:102F700068084101E3000800A800FF300318003092
:102F8000A9000030290208002808860001308700C7
:102F90000108080026088400270885000008A4000E
:102FA000080020304001A000A1013608A20008005E
:102FB00042015208203E8600023087000800A1012D
:102FC000420133084001A20008002208043E8600A6
:102FD0000130870008004201B20041016308860009
:102FE000080040010C30AB0A2B0208000130A2029D
:102FF0000030A33B080040013608A8002E08080056
:10383A0040012008D03EA200FF30213DA300003005
:10384A0023020A300319220203182D2C01302E2CD0
:10385A000030A000A101080040012008BF3EA200DC
:10386A00FF30213DA300003023021A30031922023F
:10387A000318412C0130422C0030A000A10108009D
:10388A000134123496341134DB341134C634113411
:10389A00B134113428346E3475346C346C342934B0
:1038AA000034003440341434543440010C0E0139CD
:1038BA00F0000C0E890C013909077004F6007C0827
:1038CA000739F0000030F101F035F10DF035F10D56
:1038DA00F200A030F30070087207F4007108733D1B
:1038EA00F50076087407840075080318750A8500C0
:1038FA000008FC00FC1F842C01304201EC007C1FF4
:10390A00080002304201EC00080042019D1C902C84
:10391A001D121D16E90A1D1D952C9D139D17EA0AF5
:10392A000F307B020318A72C7B08413E8600023029
:10393A008700190881007B08413E86000108E706D6
:10394A00FB0A080019086706031DB42C0130E800B9
:10395A004130F0000F30F100BC30F201B724E7012A
:10396A00FB010800F300F400710872040130031926
:10397A00D82CF1020030F23B74088600013087002F
:10398A00F40A7008840002308500F00A0008C03F7B
:10399A0089080319D72CB92C7408860001308700CE
:1039AA008101F40A0130F1020030F23B710FD12C8F
:1039BA00720A03190800D12C4A08D7008030D705AB
:1039CA004A35D900C91B591459080319F42C590F3F
:1039DA00F22CC701C801C901CA01C917F72CC701CE
:1039EA00C801C901CA014E08D8008030D805580854
:1039FA005706031D57174E35D800CD1B58145808C3
:103A0A0003190F2D580F0D2DCB01CC01CD01CE017D
:103A1A00CD17122DCB01CC01CD01CE015908580288
:103A2A000318392D571F1B2D8030D7065908DA0085
:103A3A005808D9005A08D8004708DA004B08C700C6
:103A4A005A08CB004808DA004C08C8005A08CC00CB
:103A5A004908DA004D08C9005A08CD004A08DA00B8
:103A6A004E08CA005A08CE00DA015808CF00D00121
:103A7A005008D20059084F02D100031CD203520841
:103A8A00803AD30080305302031D4D2D1A30510263
:103A9A00031C6A2D40014A084904480447040319D3
:103AAA00582D0130592D0030DA00C701C801C9016B
:103ABA00CA015808D9006F2D5A1C672D5A36013889
:103ACA00DA00682DDA3617269C3140015808590267
:103ADA00031C612D571B892D5908031D752D262E90
:103AEA004B08C7074C08C83D4D08C93D4E08CA3D9A
:103AFA004A1CE92D5A1C852D5A360138DA00862DC2
:103B0A00DA3617269C31E92D4A08803ACF004E084A
:103B1A00803A4F02031D9B2D4D084902031D9B2D20
:103B2A004C084802031D9B2D4B0847020318C62D5B
:103B3A00FF30CF00D000D100D20047084B02D3009B
:103B4A0048084C3BD40049084D3BD5004A084E3B37
:103B5A00D6005308CF075408D03D5508D13D560822
:103B6A00D23D5208CA005108C9005008C8004F087F
:103B7A00C7008030D706DA09DA0FCE2D1F269C310E
:103B8A00CE2D4B08C7024C08C83B4D08C93B4E080E
:103B9A00CA3B4A08490448044704031DE72D5A084A
:103BAA00031DE72D262EC735C80DC90DCA0DDA1B10
:103BBA0047145A1CE32D0314DA0DE42DDA3559089B
:103BCA00031DD903C91FD82DD801DA1FF42D5A08AD
:103BDA007F3903194718F22DF42DD801D80A58084D
:103BEA000319012E1F269C314A1C012ECA37C90C03
:063BFA00C80CC70C590FB6
:103C0000D90A590A031D5908031D0D2EC701C80101
:103C1000C901CA0159080319D701591C112EC91726
:103C2000122EC9135936CA00D71BCA1708004718E5
:103C3000DA17CA37C90CC80CC70CD90A08000130FA
:103C4000C7070030C83DC93DCA3D0800C701C801CB
:103C5000C901CA0108004001BE003A08C80039087D
:103C6000C7003808C6003708C500C81F392E013004
:103C70003A2E0030C300C401440403194A2EC5097A
:103C8000C609C709C809C50A0319C60A0319C70A1C
:103C90000319C80A4201DF1FE0105F08803A4001A3
:103CA000BB0080303B02031D582E013042015E02F2
:103CB00003185F2E4001BF01BF0AC001672E4201F9
:103CC0005F084001C00042015E084001BF004201A0
:103CD0005D084001C20042015C084001C100430888
:103CE0004404031D762E4201601D7B2EFF304001EF
:103CF000C107031CC2034F304001C900CA0145017E
:103D0000EF01E12E40014808470446044504031D25
:103D1000A32E4008803ABB0080303B02031D922E48
:103D200001303F020318A32E40014208803ABB0035
:103D300080303B02031D9E2E01304102031CED2EFC
:103D40004201E01CED2EFF304001C907031CCA03ED
:103D5000F4279E310A30A000A101A201A301480866
:103D6000A7004708A6004608A5004508A40082272A
:103D70009E312108AB002008AA00DC279E314001BB
:103D80002A08303E8100FF30BF07031CC003C10773
:103D9000031CC2030A30A000A101A201A30148082C
:103DA000A7004708A6004608A5004508A400162756
:103DB0009E312308C8002208C7002108C600200839
:103DC000C50040014A08803ABB0080303B02031D19
:103DD000EB2E013049020318822E400143084404AF
:103DE000031DF52E4201601D062FFF304001C9075B
:103DF000031CCA0343084404031D002F2B30012F6A
:103E00002D30BC00BD01F4273C0881004001490869
:103E1000A03EAE004208B0004108AF003E0891311C
:103E200039212F08B8002E08B7000800A901A31FE8
:103E3000262FA009A109A209A309A00A0319A10A12
:103E40000319A20A0319A30AA901A90AA71F352F5A
:103E5000A409A509A609A709A40A0319A50A031913
:103E6000A60A0319A70A0130A906AA01AB01AC01F1
:103E7000AD01230822042104200403196B2FA8019B
:103E8000A80AA31B482FA035A10DA20DA30D402FFA
:103E9000AA35AB0DAC0DAD0D23082702031D5A2F1B
:103EA00022082602031D5A2F21082502031D5A2F1E
:103EB00020082402031C652F2008A4022108A53B2A
:103EC0002208A63B2308A73B2A14A336A20CA10C68
:103ED000A00CA80B482F29080319792FAA09AB09B0
:103EE000AC09AD09AA0A0319AB0A0319AC0A0319F4
:103EF000AD0A2D08A3002C08A2002B08A1002A0857
:103F0000A0000800A901A71F8F2FFA279E310319CF
:103F1000A50A0319A60A0319A70AA901A90AA31F3A
:103F20009C2FA009A109A209A309A00A0319A10AAB
:103F30000319A20A0319A30A230822042104200456
:103F40000319C92FA801A80AA31BAB2FA035A10DE7
:103F5000A20DA30DA32F23082702031DB92F2208AA
:103F60002602031DB92F21082502031DB92F2008A1
:103F70002402031CC32F2008A4022108A53B220809
:103F8000A63B2308A73BA336A20CA10CA00CA80BB0
:103F9000AB2F29080319D32FFA270319A50A0319F0
:103FA000A60A0319A70A2708A3002608A2002508C5
:103FB000A1002408A00008002B08803AAC00803043
:103FC0002C02031DE52F01302A02031808004001CE
:103FD0002A09AC002B09AD00AC0A0319AD0A2C0864
:103FE000AA002D08AB0008004908A03E8600023058
:103FF00087000800A409A509A609A709A40A0800C2
:104000000034043401340034823400340134003488
:104010000234033401340034023403340034803475
:104020004534043400340034053404340634003498
:1040300005340034063440344334683431343A347F
:10404000203478347834203469346E3463346834FE
:104050004334683432343A34203478347834203479
:1040600069346E34633468344334683433343A34F6
:10407000203478347834203469346E3463346834CE
:104080004334683434343A34203478347834203447
:1040900069346E34633468340034543465346D34B8
:1040A0007034653472346134743475347234653408
:1040B0002034523465346C342E34683475346D34A5
:1040C000693464346934743479344434653477340D
:1040D00070346F3469346E347434203420342034B6
:1040E00020344234613474342E342034203420346B
:1040F00050346F347734653472340034253473347B
:10410000253435342E343134663420342534253486
:1041100020342034203420342034253435342E34D7
:10412000313466342034DF344334203420342034B6
:104130002034253434342E3431346634563420342B
:104140002034253434342E3431346634573400343A
:104150000034FF340134003400340134FF340034BF
:1041600002340134023400340334013401340234A3
:104170000134043401340134033400340234023491
:104180000234043400340234023402344F347534BF
:104190007434703475347434203470346F3477343C
:1041A0006534723420344C3465346E3473342034C6
:1041B0006434693461346D342E3420340034253451
:1041C00031346434203420342034203420342034FA
:1041D0002034203420342034203420342534313429
:1041E00064340034253433342E343034663420348F
:1041F0007C342034253433342E3430346634203447
:10420000DF344334003425343134643420342034F2
:1042100020342034203420342034203420342034FE
:104220000034253435342E34313466342034DF34D0
:104230004334203420342034203400345334653463
:10424000743420346F347534743470342034203432
:1042500020342034003453346534743420346C34C6
:1042600065346E34733420342034203400344934BF
:104270004E34463400344E3441344E3400346934C4
:104280006E34663400346E3461346E3400346C3411
:04429000663400345C
:020000040001F9
:0A000E00EC3FFF3F9F3FFF3FFF3F25
:020000040000FA
:00005F01A0
