:020000040000FA
:1000000080317A28013401347E1480314E01961AF1
:100010008C1E1D2801304001A00020084301ED077F
:1000200004307D06031D1728A93164218031B230C8
:100030004B019C004E018C127828161A0C1E392890
:100040007E01BF1F2828A931642180317E01BF13A2
:100050003F1E2F28A831502080317E013F12BF1E45
:100060003628A831502080317E01BF124E010C127B
:1000700078280B1F78281A18101C71284201640870
:100080004001A300420163084001A200420162084E
:100090004001A100420161084001A000013042017D
:1000A000E1070030E23DE33DE43D00304001200245
:1000B000CA30213B9A30223B3B30233B031C69284A
:1000C00000304201E4000030E3000030E200003084
:1000D000E100CF3044018D002B308C004E01101018
:1000E0007828991A8F1E7828AA313D224E018F1246
:1000F0007E10090080317C2841018031032080314D
:10010000ED004301803102208031EE00C6308400D2
:10011000B430850060308600023087000030FF0078
:100120000830883100208031C4308400B53085002B
:10013000CD308600023087000030FF00203088314B
:10014000002080314630840027308500AA30FE0030
:100150000030FF00B5312A258031FC01FD0140014E
:10016000E801E901EA01EB0161308400013085001A
:100170000F30FE000030FF00B5312A258031E0301D
:100180008400013085000E30FE000030FF00B531E4
:100190002A25803120308400023085004030FE0066
:1001A0000030FF00B5312A258031A03084000230B4
:1001B00085002D30FE000030FF00B5312A257E106D
:1001C0004001A031B6284101EB013C304001BB00A9
:1001D000D030BA001330B900A930B80041016B0823
:1001E000AF00B0010530AF35B00D890BF3282F08F3
:1001F0002D07B10030082E3DB2003108403E860088
:100200000030323D8700403F4001BC00413FBD000F
:10021000423FBE00433FBF009531D42580314001AD
:100220003B084101D60040013A084101D500400198
:1002300039084101D400400138084101D300403061
:100240004001BB004830BA00F530B900C330B800F7
:10025000410156084001BF00410155084001BE0060
:10026000410154084001BD00410153084001BC0058
:100270009531D425803140013B084101E200400125
:100280003A084101E100400139084101E000400124
:1002900038084101DF0040304001D5008030D400F3
:1002A0000030D3000030D200410156084001BB00AD
:1002B000410155084001BA00410154084001B9000C
:1002C000410153084001B800410162084001BF00EC
:1002D000410161084001BE00410160084001BD00CC
:1002E00041015F084001BC009531D42580314001B7
:1002F0003B08D9003A08D8003908D7003808D6009A
:100300009E3128268031400155084101DE00400120
:1003100054084101DD00400153084101DC00400167
:1003200052084101DB002D0886002E0887005D3150
:10033000403F4001D200413FD300423FD400433F01
:10034000D50041012D0886002E0887004831403F26
:100350004001D600413FD700423FD800433FD9007B
:1003600092310E228031400155084101BE0040010A
:1003700054084101BD00400153084101BC00400147
:1003800052084101BB0043304001D5008830D40001
:100390009330D3003330D20041013E084001D900F0
:1003A00041013D084001D80041013C084001D7000F
:1003B00041013B084001D60092310E2280314001BC
:1003C00055084101E600400154084101E5004001A3
:1003D00053084101E400400152084101E300433069
:1003E0004001D5008830D4009330D3003330D200A0
:1003F00041012D08213E860000302E3D8700403F00
:100400004001D600413FD700423FD800433FD900CA
:1004100092310E228031400155084101EA0040012D
:1004200054084101E900400153084101E80040013E
:1004300052084101E7006A084001BB004101690818
:100440004001BA00410168084001B9004101670854
:100450004001B80041016A084001BF00410169083C
:100460004001BE00410168084001BD00410167082C
:100470004001BC009531D425803140013B08410149
:10048000E20040013A084101E10040013908410120
:10049000E000400138084101DF006A084001BB006C
:1004A000410169084001BA00410168084001B900F2
:1004B000410167084001B800410162084001BF00E6
:1004C000410161084001BE00410160084001BD00DA
:1004D00041015F084001BC009531D42580314001C5
:1004E0003B084101C20040013A084101C1004001FE
:1004F00039084101C000400138084101BF006608C9
:100500004001BB00410165084001BA004101640897
:100510004001B900410163084001B800410166088B
:100520004001BF00410165084001BE00410164086F
:100530004001BD00410163084001BC009531D42554
:10054000803140013B084101C60040013A084101A9
:10055000C500400139084101C4004001380841018B
:10056000C30066084001BB00410165084001BA00B4
:10057000410164084001B900410163084001B8002D
:10058000410146084001BF00410145084001BE004D
:10059000410144084001BD00410143084001BC0045
:1005A0009531D425803140013B084101CA0040010A
:1005B0003A084101C900400139084101C800400121
:1005C00038084101C7006A084001BB0041016908C1
:1005D0004001BA00410168084001B90041016708C3
:1005E0004001B800410142084001BF0041014108FB
:1005F0004001BE00410140084001BD0041013F08EB
:100600004001BC009531D425803140013B084101B7
:10061000A30040013A084101A2004001390841010C
:10062000A100400138084101A00066084001BB005C
:10063000410165084001BA00410164084001B90068
:10064000410163084001B80041014A084001BF0070
:10065000410149084001BE00410148084001BD0078
:10066000410147084001BC009531D425803140014B
:100670003B084101A70040013A084101A6004001A2
:1006800039084101A500400138084101A400B731F3
:100690005927803141012308CE002208CD002108CE
:1006A000CC002008CB0033304001BB006730BA00DB
:1006B0005930B9003230B80041015E084001BF0036
:1006C00041015D084001BE0041015C084001BD00E0
:1006D00041015B084001BC009531D42580314001C7
:1006E0003B084101D20040013A084101D1004001DC
:1006F00039084101D000400138084101CF004E08BF
:100700004001BB0041014D084001BA0041014C08C5
:100710004001B90041014B084001B80041015208B5
:100720004001BF00410151084001BE004101500895
:100730004001BD0041014F084001BC009531D42566
:10074000803140013B084101DA0040013A08410193
:10075000D900400139084101D80040013808410161
:10076000D7005A084001BB00410159084001BA00B6
:10077000410158084001B900410157084001B80043
:1007800041012D08253E860000302E3D8700403F68
:100790004001BC00413FBD00423FBE00433FBF009F
:1007A0009531D425803141016B08AF00B00105308F
:1007B000AF35B00D890BD82B2F082D07B1003008AD
:1007C0002E3DB2003108323E86000030323D8700B7
:1007D00040013808C03F3908C13F3A08C23F3B08D2
:1007E000C33F3E30BB002330BA005730B9001D3044
:1007F000B80041016B08AF00B0010530AF35B00D56
:10080000890BFE2B2F082D07B10030082E3DB200BA
:100810003108403E86000030323D8700403F4001B5
:10082000BC00413FBD00423FBE00433FBF00953189
:10083000D425803140013B084101B60040013A080F
:100840004101B500400139084101B40040013808B8
:100850004101B3003C304001BB00F530BA00C2306A
:10086000B9008F30B800410136084001BF00410196
:1008700035084001BE00410134084001BD0041017E
:1008800033084001BC009531D425803140013B083C
:100890004101DE0040013A084101DD004001390814
:1008A0004101DC00400138084101DB003F304001DC
:1008B000BB005930BA009930B9009A30B8004030C6
:1008C000D5000030D4000030D3000030D200410108
:1008D0006B08AF00B0010530AF35B00D890B6C2C43
:1008E0002F082D07B10030082E3DB2003108403EE0
:1008F00086000030323D8700403F4001D600413F36
:10090000D700423FD800433FD9009E31282680318E
:1009100040015508BF005408BE005308BD005208EE
:10092000BC009531D425803140013B084101E200F3
:1009300040013A084101E100400139084101E0006D
:10094000400138084101DF005E084001BB00410161
:100950005D084001BA0041015C084001B900410155
:100960005B084001B800410162084001BF0041013D
:1009700061084001BE00410160084001BD00410125
:100980005F084001BC009531D425803140013B080F
:100990004101BA0040013A084101B900400139085B
:1009A0004101B800400138084101B7002D08860018
:1009B0002E0887004831403FA000413FA100423F40
:1009C000A200433FA3003A084001BB00410139089F
:1009D0004001BA00410138084001B900410137081F
:1009E0004001B80041015A084001BF0041015908C7
:1009F0004001BE00410158084001BD0041015708B7
:100A00004001BC009531D425803140013B084101B3
:100A1000A70040013A084101A60040013908410100
:100A2000A500400138084101A400B73159278031A1
:100A300041016B08AF00B0010530AF35B00D890B37
:100A40001D2D2F082D07B10030082E3DB2003108B2
:100A5000443E86000030323D87002008C03F210818
:100A6000C13F2208C23F2308C33F0130AF002F0817
:100A7000EB0704306B0203180800E52842016E08FA
:100A800090310120853141016D080319F92DCF0105
:100A900004304F020318F92D4001B101DA30B200E1
:100AA000BA30B3000C304101C90049084001AD0023
:100AB00041014F08B53145258531B73127278531AB
:100AC0004E304101B6000230B7004F08013EC90068
:100AD0004908B800B901B90AAB3146238531400154
:100AE000B1014E30B2000230B3000C304101C900F8
:100AF00049084001AD0041014F08B5314525853118
:100B0000033EB731272785314001B101E730B200FC
:100B1000BA30B3000C304101C90049084001AD00B2
:100B200041014F08B53145258531043EB7312727AE
:100B300085314E304101B6000230B7004F08C90080
:100B4000CA010530C935CA0D890BA22D49084707CE
:100B5000CB004A08483DCC004B08403E86000030A0
:100B60004C3D8700403FAD00413FAE00423FAF00EB
:100B7000433FB000AD316525853141012D08CD00E1
:100B80004D08B8000230CE004E08B900AB31462304
:100B900085314001B1014E30B2000230B3000C305B
:100BA0004101C90049084001AD0041014F08B5317C
:100BB00045258531063EB731272785314001B101F2
:100BC000E430B200BA30B3000C304101C90049082A
:100BD0004001AD0041014F08B53145258531083E42
:100BE000B7312727853101304101C9004908CF07B6
:100BF000482DCF0104304F0203188D2F572F40018D
:100C0000B101B10AEE30B200B930B3000C3041018D
:100C1000C90049084001AD0041014F08B5314525E3
:100C20008531B73127278531872F4001B101B10ABE
:100C30009330B200B930B3000C304101C90049080B
:100C40004001AD0041014F08B53145258531B7312F
:100C500027278531872F4F08C900CA010530C935BC
:100C6000CA0D890B2F2E49084707CB004A08483D7B
:100C7000CC004B08363E860000304C3D8700403F9C
:100C8000B900413FBA00423FBB00433FBC000430C3
:100C9000CD004D08BD00BE01BE0A4E30A531152560
:100CA00085314001B101B10A4E30B2000230B300CB
:100CB0000C304101C90049084001AD0041014F0815
:100CC000B53145258531B7312727853141014F0899
:100CD000C900CA010530C935CA0D890B6B2E4908F8
:100CE0004707CB004A08483DCC004B08483E8600E9
:100CF00000304C3D87000103031DE82E4001B10187
:100D0000B10AEA30B200BA30B3000C304101C90078
:100D100049084001AD0041014F08B53145258531F5
:100D2000043EB7312727853141014F08C900CA0168
:100D30000530C935CA0D890B992E49084707CB00E4
:100D40004A08483DCC004B08323E860000304C3DFE
:100D50008700403FB900413FBA00423FBB00433FDC
:100D6000BC000430CD004D08BD00BE01BE0A4E30AF
:100D7000A531152585314001B101B10A4E30B200CF
:100D80000230B3000C304101C90049084001AD00F8
:100D900041014F08B53145258531063EB73127273A
:100DA00085314001B101B10AED30B200BA30B30073
:100DB0000C304101C90049084001AD0041014F0814
:100DC000B531452585310A3EB73127278531872F33
:100DD0004001B101B10A6430B200BA30B3000C3046
:100DE0004101C90049084001AD0041014F08B5313A
:100DF00045258531043EB73127278531872F4001AE
:100E0000B101B10A0830B200BA30B3000C30410170
:100E1000C90049084001AD0041014F08B5314525E1
:100E20008531B73127278531872F4001B101B10ABC
:100E30008630B200B930B3000C304101C900490816
:100E40004001AD0041014F08B53145258531B7312D
:100E500027278531872F4001B101B10AFB30B2004D
:100E6000B930B3000C304101C90049084001AD0060
:100E700041014F08B53145258531B73127278531E7
:100E8000872F4001B101B10A2230B200BA30B3005D
:100E90000C304101C90049084001AD0041014F0833
:100EA000B53145258531B73127278531872F4F0843
:100EB000C900CA010530C935CA0D890B5B2F490825
:100EC0004707CB004A08483DCC004B08493E860006
:100ED00000304C3D87000108CD00CE014E08003A9D
:100EE0000319732F412F4D08003A0319152E013AAB
:100EF00003192B2E033A0319FF2E013A0319152F5C
:100F0000073A03192B2F013A0319FF2D412F013006
:100F10004101C9004908CF07FA2D0430C90049082A
:100F20004001AB0042016E08AB31AF234101CA0062
:100F30004A084201EE006E084101C900490840011B
:100F4000EA0042016E080800A83100208731400104
:100F50002708B7002608B6002508B5002408B40005
:100F60002B083702031DBE2F2A083602031DBE2F91
:100F700029083502031DBE2F28083402031CD52F73
:100F800028083402AC002908353BAD002A08363B5E
:100F9000AE002B08373BAF002F08AB002E08AA008D
:100FA0002D08A9002C08A80008000130AC00CA30A8
:100FB000AD009A30AE003B30AF0028083402B000DC
:100FC0002908353BB1002A08363BB2002B08373BD5
:100FD000B3003008AC073108AD3D3208AE3D3308F0
:100FE000AF3D2F08AB002E08AA002D08A9002C0841
:100FF000A80008000230B431EA240800BE3008001E
:10100000FE0012001E000130FE020030FF3B7F0890
:101010007E0403190034012840016A084101C90017
:10102000CA010530C935CA0D890B1228490847077E
:10103000CB004A08483DCC004B082A3ECD0000308A
:101040004C3DCE00003090310120883141014D08E7
:1010500086004E0887005F310103031937284D08C9
:1010600086004E0887005F310108031D42296D0884
:10107000031944284001B1012F30B200BA30B30047
:101080000030B7312727883141014D08103EB900A3
:1010900000304E3DBA00BE30BE008030BD00003092
:1010A000BC000030BB004D0886004E08870044316C
:1010B000403FBF00413FC000423FC100433FC2002C
:1010C0003E30C6008030C5000030C4000030C30090
:1010D000A0311F20883141014D0886004E0887004D
:1010E0005031403F4001A400413FA500423FA600CF
:1010F000433FA7000030AB000030AA000030A90039
:101100000030A800A931F4218831031CBA284E30E0
:101110004101B6000230B70040016A08013E4101BA
:10112000C9004908B800B901B90AAB314623883172
:101130004001B101B10AC830B200BA30B30000308A
:10114000B731272788314001B101B10A4E30B200D2
:101150000230B3000530B731272788314001B10193
:10116000B10AA530B200BA30B3000630B731272734
:1011700088317F2941014D0886004E088700503193
:10118000403FAD00413FAE00423FAF00433FB000A3
:101190000030B4000030B3000030B2000030B100C5
:1011A000AD31D6258831031808294E304101B600EB
:1011B0000230B70040016A08013E4101C9004908F8
:1011C000B800B901B90AAB31462388314001B101F9
:1011D000B10AC830B200BA30B3000030B7312727A7
:1011E00088314001B101B10A4E30B2000230B30083
:1011F0000530B731272788314001B101B10AAC3041
:10120000B200BA30B3000630B731272788317F29C2
:101210004001B101B10AB830B200BA30B3000030B9
:10122000B7312727883141014D0886004E088700D5
:101230005031403FB900413FBA00423FBB00433FFD
:10124000BC000430C9004908BD00BE01BE0A4E30D2
:10125000A531152588314001B101B10A4E30B200E7
:101260000230B3000130B731272788314001B10186
:10127000B10A7530B200BA30B3000530B731272754
:1012800088317F294D0886004E0887005F31043081
:101290000106031954294D0886004E0887005F3166
:1012A00003300106031D81296D0803196C294001D3
:1012B000B101E130B200B930B3000030B7312727B7
:1012C00088314001B101B10A1530B200BA30B30023
:1012D0000030B73127278831B5311F258831023AD0
:1012E000031D7F2941014D081F3EC90000304E3DBE
:1012F000CA00490886004A0887000530810000308E
:10130000080001300800420169080319A629E90113
:101310004301E3014001E801410139082A3E86000A
:1013200000303A3D8700403FAD00413FAE00423FB4
:10133000AF00433FB000AD316525893141012E0832
:101340004301E10041012D084301E000400168082C
:101350004101BB00BC010530BB35BC0D890BAC297C
:101360003B083907BD003C083A3DBE003D082A3E17
:10137000C50000303E3DC60045088600460887008F
:101380005F3104300106031D022A0130BB003B0817
:101390004001E80704306802031CFF294201E9010B
:1013A000E90AFF291130B531872589314001250827
:1013B0004101C000400124084101BF004008400134
:1013C000B10041013F084001B00043016108400104
:1013D000B300430160084001B2000030B7000030A4
:1013E000B600B330B5003230B400AA31DD2240017E
:1013F00031084301E100400130084301E0004201AF
:10140000690808004001A401A40A6808A9311D2147
:10141000893143016308E30A4101BB000A303B0202
:10142000031CD2294001A4016808A9311D2189317A
:1014300045304001D5001F30D400D830D3000030F3
:10144000D2004030BB00A030BA000030B9000030FC
:10145000B800430160084001AA004301610840014F
:10146000AB00AC01AD010030AF316A2789314001DA
:101470002D08BF002C08BE002B08BD002A08BC00A8
:101480009531D425893140013B08D9003A08D8006C
:101490003908D7003808D6009E3128268931400106
:1014A00055084101C400400154084101C3004001F6
:1014B00053084101C200400152084101C1004408E3
:1014C000B0004308AF004208AE004108AD003D3017
:1014D000B4004C30B300CC30B200CD30B100AD31EF
:1014E000D625893103188E2A410145088600460811
:1014F00087005F310103031D812A0130B731C52701
:101500008931410145081F3EBB000030463DBC000B
:101510003B0886003C08870002306A2C40304101BD
:10152000B0000030AF000030AE000030AD00440825
:10153000B4004308B3004208B2004108B100AD3125
:10154000D6258931031CA72A40010E19D92A043057
:10155000B731C5278931410145081F3EBB00003026
:10156000463DBC003B0886003C08870004308100F3
:1015700040010E196B2C410145081F3EBB00003095
:10158000463DBC003B0886003C08870003308100D4
:101590000030B431AE24893107304101BB007D30C9
:1015A000890BD02ABB0BD02A0130B431AE2489314B
:1015B0006B2C410145088600460887004108C03F62
:1015C0004208C13F4308C23F4408C33F44084001AA
:1015D000BB00410143084001BA00410142084001FB
:1015E000B900410141084001B800410139088600B5
:1015F0003A0887005131403F4001BC00413FBD00E7
:10160000423FBE00433FBF009531D425893141019F
:101610004508860046088700443140013808C03F2D
:101620003908C13F3A08C23F3B08C33F4101450862
:101630008600460887004431403FAD00413FAE0080
:10164000423FAF00433FB000450886004608870090
:101650005031403FB100413FB200423FB300433FF1
:10166000B400AD31D62589310318512B410145080D
:101670008600460887004431403FBB00413FBC0024
:10168000423FBD00433FBE00450886004608870034
:1016900050313B08C03F3C08C13F3D08C23F3E08B7
:1016A000C33F41013908293E860000303A3D87009A
:1016B000811D9F2B45088600460887005031403F1A
:1016C000AD00413FAE00423FAF00433FB0000030AD
:1016D000B4000030B3000030B2000030B100AD31D2
:1016E000D62589310318822B410145081E3EBB00D7
:1016F0000030463DBC003B0886003C0887000130B6
:101700008100BF2B00304101B0000030AF0000303D
:10171000AE000030AD004508860046088700503115
:10172000403FB100413FB200423FB300433FB400ED
:10173000AD31D62589310318BF2B4101B92B45089E
:101740008600460887004431403FBB00413FBC0053
:10175000423FBD00433FBE00450886004608870063
:1017600050313B08C03F3C08C13F3D08C23F3E08E6
:10177000C33F45088600460887005E31810141016C
:1017800045088600460887005031403F4001A400CC
:10179000413FA500423FA600433FA7000030AB00F9
:1017A0000030AA000030A9000030A800A931F421BF
:1017B0008931031CE32B4101450886004608870058
:1017C0005F318101F02B410145081F3EBB00003015
:1017D000463DBC003B0886003C0887000130810084
:1017E00045088600460887005E310103031D152C5D
:1017F00045088600460887004831403F4001D60032
:10180000413FD700423FD800433FD900410145083E
:101810008600460887004431403F4001D200413FE6
:10182000D300423FD400433F312C45088600460890
:1018300087005031403F4001D600413FD700423F32
:10184000D800433FD900410145088600460887007B
:101850004431403F4001D200413FD300423FD400D9
:10186000433FD5009E312826893140015508BF00ED
:101870005408BE005308BD005208BC004230BB00F3
:10188000C830BA000030B9000030B8009531D42516
:10189000893140013B084101B00040013A08410153
:1018A000AF00400139084101AE0040013808410154
:1018B000AD00AD316525893141012D08BB004508DA
:1018C000143EBC000030463DBD003C0886003D088B
:1018D00087003B0881000330400168020318CE29CD
:1018E00001304101BB003B084001E8074301E3012F
:1018F000FF294601AD012D085C3E860002308700BD
:10190000810181032D08583E860002308700810145
:1019100081032D084101D800D90146012D0841015C
:10192000DA000230DA35FF3E031D922C5A352E3E86
:101930008600023087005808C03F5908C13F460161
:101940002D084101D800D9010530D835D90D890BB2
:10195000A52C58085607DA005908573DDB005A08ED
:101960002A3E860000305B3D8700403FDC00413F5F
:10197000DD00423FDE00433FDF0046012D0841010C
:10198000E0000230E035FF3E031DC22C6035303EE2
:101990008600023087005C08C03F5D08C13F5E08DA
:1019A000C23F5F08C33F46012D084101D800D9015D
:1019B0000530D835D90D890BD92C58085607DA00CF
:1019C0005908573DDB005A083E3E860000305B3D1B
:1019D00087000108DC0046012D084101DD000230CE
:1019E000DD35FF3E031DF02C5D35343E86000230B0
:1019F00087005C0881000130D80058084601AD0717
:101A000004302D02031C7B2C04304101BE00003049
:101A1000BF000830C0000030C1008E30C200373037
:101A2000C3002E309A31C4228C3100304601AB0005
:101A30000030AA000030A9000030A8002B08A70041
:101A40002A08A6002908A5002808A4002708A30042
:101A50002608A2002508A1002408A0004301E401F3
:101A6000E5014601AD012D084101D8000230D8350D
:101A7000FF3E031D372D5835343E86000230870067
:101A80000108D90046012D084101DA000230DA359B
:101A9000FF3E031D472D5A35353E86000230870034
:101AA0005908810046012D084101D8000230D8357F
:101AB000FF3E031D572D5835303E8600023087000B
:101AC000403F4001D200413FD300423FD400433F5A
:101AD000D500460123084001D900460122084001F3
:101AE000D800460121084001D700460120084001E6
:101AF000D60092310E228C31400155084601A300D8
:101B0000400154084601A200400153084601A100CB
:101B1000400152084601A00040304101B000403071
:101B2000AF000030AE000030AD0046012708400194
:101B3000D500460126084001D40046012508400191
:101B4000D300460124084001D20046012D0841017E
:101B5000D8000230D835FF3E031DAA2D5835303E3F
:101B6000860002308700403F4001D600413FD70049
:101B7000423FD800433FD90092310E228C314001C0
:101B800055084101B400400154084101B30040012F
:101B900053084101B200400152084101B100AD318A
:101BA000D6258C31031C202E46012D084101D8007A
:101BB0000230D835FF3E031DD92D5835303E860002
:101BC00002308700403F4001D200413FD300423FF6
:101BD000D400433FD500460127084001D900460103
:101BE00026084001D800460125084001D7004601DB
:101BF00024084001D60092310E228C314001550854
:101C00004601A700400154084601A60040015308C0
:101C10004601A500400152084601A4002D084101DB
:101C2000D800430165085C3E860002308700410110
:101C3000580881000130D80058084301E507B32E49
:101C400040304101B0004030AF000030AE00003005
:101C5000AD0046012B084001D50046012A0840018D
:101C6000D400460129084001D3004601280840015C
:101C7000D20046012D084101D8000230D835FF3E80
:101C8000031D3E2E5835303E860002308700403F0F
:101C90004001D600413FD700423FD800433FD90022
:101CA00092310E228C31400155084101B4004001AF
:101CB00054084101B300400153084101B200400102
:101CC00052084101B100AD31D6258C31031CB32E31
:101CD00046012D084101D8000230D835FF3E031DD2
:101CE0006D2E5835303E860002308700403F40015F
:101CF000D200413FD300423FD400433FD5004601CC
:101D00002B084001D90046012A084001D8004601AD
:101D100029084001D700460128084001D600923129
:101D20000E228C31400155084601AB004001540899
:101D30004601AA00400153084601A900400152088B
:101D40004601A8002D084101D80043016408583E0F
:101D50008600023087004101580881000130D80018
:101D600058084301E40701304101D80058084601F2
:101D7000AD0704302D02031C332D430165084101DA
:101D8000D800D9015808BE005908BF000130C00072
:101D90000030C1009630C2003630C3005C309A314A
:101DA000C4228C31430164084101D800D90158088C
:101DB000BE005908BF000130C0000030C1006630CD
:101DC000C2003630C30058309A31C4228C314601EB
:101DD000AD014301650846012D0203185D2F2D0852
:101DE000583E860002308700811B562F2D08583E32
:101DF00086000230870001084101D8000230D83542
:101E0000FF3E031DFF2E5835343E8600023087000A
:101E100046012D085C3E8400023085000008410127
:101E2000D9000230D935FF3E031D122F5935343EFB
:101E300084000230850000080107DA00DB01DB0DB9
:101E40005B08803ADC0080305C02031D292F65307E
:101E50005A02031C562F46012D085C3E86000230B4
:101E6000870001084101D8000230D835FF3E031D2C
:101E7000352F5835343E8600023087000108643C17
:101E8000D90046012D08583E86000230870001081F
:101E90004101DA000230DA35FF3E031D4B2F5A357F
:101EA000353E86000230870059088100013041012B
:101EB000D80058084601AD07E92EAD012D084101B3
:101EC000D8000230D835FF3E031D622F58352E3E14
:101ED0008600023087000108D90059084601AC008D
:101EE00042304001D500C830D4000030D30000306B
:101EF000D20046012C084101D800D9010530D8355F
:101F0000D90D890B7F2F58085607DA005908573D1D
:101F1000DB005A082E3E860000305B3D8700403FC4
:101F20004001B800413FB900423FBA00433FBB0007
:101F300046012D084101DC000230DC35FF3E031D67
:101F40009D2F5C35353E8600023087000108DD009C
:101F5000DE01DF01E00160084001AD0041015F08E2
:101F60004001AC0041015E084001AB0041015D0849
:101F70004001AA000130AF316A278C3140012D08A1
:101F8000BF002C08BE002B08BD002A08BC009531FC
:101F9000D4258C3140013B08D9003A08D8003908D3
:101FA000D7003808D6009E3128268C3146012C08EF
:101FB0004101E100E2010530E135E20D890BDC2F42
:101FC00061085607E3006208573DE4006308363EA7
:101FD00086000030643D870040015208C03F53082E
:101FE000C13F5408C23F5508C33F01304101D800EA
:101FF00058084601AD0704302D02031808005E2F73
:102002004001AD0041016D08031908000130B431EF
:10201200EA2490310230B431EA2490314001AE0119
:102022002D08AB00AC012B08A4002C08A5000C3035
:10203200A6000030A7009831002090314001250809
:10204200803A803C031D272824082E02031808002A
:102052001830B431EA24903101304001AB002B0832
:10206200AE07112840304101B0004030AF000030CF
:10207200AE000030AD0041088600420887005531AD
:10208200403FB100413FB200423FB300433FB40082
:10209200AD31D62590310318D6284001A401FF3076
:1020A200A9311D2190310030B431AE24903140303D
:1020B2004101B0004030AF000030AE000030AD0052
:1020C20045304001D5001F30D400D830D300003055
:1020D200D2004030BB00A030BA000030B90000305E
:1020E200B8001130B53187259031400124084101F3
:1020F200C300400125084101C400C501C6014608CC
:102102004001AD00410145084001AC0041014408D5
:102112004001AB00410143084001AA000030AF3149
:102122006A27903140012D08BF002C08BE002B0801
:10213200BD002A08BC009531D425903140013B08EE
:10214200D9003A08D8003908D7003808D6009E319D
:1021520028269031400155084101B400400154083D
:102162004101B300400153084101B200400152084D
:102172004101B100AD31D62590310318C228093092
:10218200D32841014108293E86000030423D8700A4
:102192000119D6284108293E86000030423D8700B9
:1021A20001150A30B731C527903141304101B000E5
:1021B2005C30AF00CC30AE00CD30AD0041088600BF
:1021C200420887005131403FB100413FB200423FD7
:1021D200B300433FB400AD31D6259031031C0C2926
:1021E20041304101B0003030AF000030AE0000306D
:1021F200AD0041088600420887005131403FB100DE
:10220200413FB200423FB300433FB400AD31D62557
:102212009031031C6A298B01B431AA249031873191
:10222200FA2790314001B1013C30B200BA30B3001C
:102232000030B731272790314001A401FF30A93186
:102242001D2190310030B431AE249031053041016E
:10225200C3004308CA00C730B6000030B7004A08BE
:10226200C3004308B800B901B90AAB314623903123
:102272004001B101B10ACE30B200BA30B300003031
:10228200B731272790314001B101B10AC730B200FE
:102292000030B3000330B7312727903106304101B7
:1022A200C4001330C300AD30890B5529C30B552927
:1022B200C40B5529003201304101CA024A08031DEC
:1022C2002C29B431B62490310030B431BE2490317F
:1022D200692941304101B0005030AF000030AE00FA
:1022E2000030AD0041088600420887005131403F6E
:1022F200B100413FB200423FB300433FB400AD31B1
:10230200D62590310318B42941304101B0005C3028
:10231200AF00CC30AE00CD30AD004108860042089F
:1023220087005131403FB100413FB200423FB3000C
:10233200433FB400AD31D6259031031CB42941018D
:102342004108293E86000030423D8700811808007E
:102352004108293E86000030423D87008114053045
:10236200B731C527080041304101B0003030AF001D
:102372000030AE000030AD00410886004208870000
:102382005131403FB100413FB200423FB300433FB1
:10239200B400AD31D62590310318FE2941304101F8
:1023A200B0003630AF006630AE006630AD00410896
:1023B2008600420887005131403FB100413FB200E0
:1023C200423FB300433FB400AD31D6259031031CE8
:1023D200FE2941014108293E86000030423D870026
:1023E200011808004108293E86000030423D87005E
:1023F20001140630B731C527080041014108293EC2
:1024020086000030423D870081104108293E860047
:102412000030423D87000110080040015508803914
:10242200DA005A08E2005535DA005A08E400D41BF3
:102432006414640803192B2A640A031D282A003035
:10244200D5000030D4000030D3000030D200D417C1
:10245200D501332A0030D5000030D4000030D3003B
:102462000030D20059088039DA005A08E3006308C4
:102472006206031D62175935DA005A08E300D81BB9
:10248200631463080319532A630A031D502A003098
:10249200D9000030D8000030D7000030D600D8175D
:1024A200D9015B2A0030D9000030D8000030D700B3
:1024B2000030D600640863020318A12A621F652A4D
:1024C2008030DA005A08E2066408DA005A08E500A9
:1024D2006308DA005A08E4006508DA005A08E300E3
:1024E2005208DA005A08E5005608DA005A08D20003
:1024F2006508DA005A08D6005308DA005A08E500DF
:102502005708DA005A08D3006508DA005A08D700DB
:102512005408DA005A08E5005808DA005A08D400CC
:102522006508DA005A08D8005508DA005A08E500AA
:102532005908DA005A08D5006508DA005A08D900A5
:10254200E5016308DA00DB015B08DD0064085A027A
:10255200DC00031CDD035D08803ADE0080305E0291
:10256200031DB52A1A305C02031CE92A40015508F2
:102572005404530452040319C02A0130C12A003002
:10258200DA005A08E5000030D5000030D4000030EF
:10259200D3000030D2006308DA005A08E400EE2AC1
:1025A200651CD92A65360138DA005A08E500DB2AAB
:1025B2000310E50C5218E5170130DA00D537D40CB8
:1025C200D30CD20CDA0BDF2A0130DA005A08E40706
:1025D200400163086402031CD12A621B1F2B64089A
:1025E200031DFC2A0030D5000030D4000030D30097
:1025F2000030D20008005608D2075708D33D5808C9
:10260200D43D5908D53D551C992B651C0E2B6536BA
:102612000138DA005A08E500102B0310E50C5218B5
:10262200E5170130DA00D537D40CD30CD20CDA0B13
:10263200142B0130DA005A08E407992B5508803A26
:10264200DA005908803A5A02031D312B5808540205
:10265200031D312B57085302031D312B560852021A
:102662000318692BFF30DA00FF30DB00FF30DC009B
:10267200FF30DD0052085602DE005308573BDF00F0
:102682005408583BE0005508593BE1005E08DA0760
:102692005F08DB3D6008DC3D6108DD3D5D08D5007B
:1026A2005C08D4005B08D3005A08D2008030DA00FC
:1026B2005A08E206E509E50A6508031D712B013097
:1026C200D2070030D33D0030D43D0030D53D712BD0
:1026D2005608D2025708D33B5808D43B5908D53B79
:1026E2005508540453045204031D972B6508031D17
:1026F200972B0030D5000030D4000030D3000030DA
:10270200D20008000130D235D30DD40DD50D890B7E
:10271200842BE51B5214651C902B0314912B031080
:10272200E50D64080319972B0130E402D41F832BB3
:10273200E301E51FA42B65087F3903195218A22B68
:10274200A42BE301E30A63080319D02B0130D2075B
:102752000030D33D0030D43D0030D53D551CD02B48
:102762005208DA005308DB005408DC005508DD008B
:102772000130DE00DD37DC0CDB0CDA0CDE0BBB2BB0
:102782005D08D5005C08D4005B08D3005A08D2006B
:10279200640A0319D02B0130DA005A08E407640AEC
:1027A200031D6408031DE02B0030D5000030D40067
:1027B2000030D3000030D20064080319E201641C27
:1027C200E42BD417E82B7F30DA005A08D40564369C
:1027D200DA005A08D500E21F0800D51708004101A7
:1027E2004708293E86000030483D8700010CC90099
:1027F200C90C490C013943016E060319202C410111
:102802004708293E86000030483D87000030811984
:1028120001304301EE0041014708293E86000030A5
:10282200483D8700811D182C4201EF011D2C033009
:10283200C90049084201EF004101ED01ED0A4201E0
:102842006F0890310120933141016D0803193E2C2C
:102852004001B1016F30B200B030B3000030B73187
:10286200272793314001B101B10A9D30B200BA303D
:10287200B3003030B7312727933141014708293E51
:1028820086000030483D8700011E9E2C47088600C6
:1028920048088700403FB900413FBA00423FBB00B1
:1028A200433FBC000530C9004908BD00BE01BE0A55
:1028B2004E30A531152593314001B101B10A4E3098
:1028C200B2000230B3000030B73127279331400104
:1028D200B101B10AD230B200BA30B3000530B7311B
:1028E20027279331410147088600480887004D3168
:1028F200403FB900413FBA00423FBB00433FBC00EA
:102902000330C9004908BD00BE014E30A53115256E
:1029120093314001B101B10A4E30B2000230B3002E
:102922000830B731272793314001B101B10AF030A5
:10293200B200BA30B3000B30C72C470886004808F3
:102942008700403FB900413FBA00423FBB00433FCE
:10295200BC000530C9004908BD00BE01BE0A4E30A8
:10296200A531152593314001B101B10A4E30B200B3
:102972000230B3000030B731272793314001B10153
:10298200B10A7D30B200BA30B3000530B731272723
:102992009331410147088600480887004431403F8F
:1029A200B900413FBA00423FBB00433FBC00053083
:1029B200C9004908BD00BE01BE0A4E30A531152529
:1029C20093314001B101B10A4E30B2000230B3007E
:1029D2000C30B731272793314001B101B10ABA3027
:1029E200B200BA30B3001130B73127279331410119
:1029F20047088600480887004831403FB900413FF8
:102A0200BA00423FBB00433FBC000530C900490841
:102A1200BD00BE01BE0A4E30A531152593314001DD
:102A2200B101B10A4E30B2000230B3001830B731F2
:102A3200272793314001B101B10A7D30B200BA308B
:102A4200B3001D30B7312727933141014708860073
:102A5200480887005131403FB900413FBA00423F28
:102A6200BB00433FBC000430C9004908BD00BE01A1
:102A7200BE0A4E30A531152593314001B101B10A8C
:102A82004E30B2000230B3002430B73127279331E1
:102A92004001B101B10AD630B200BA30B3002830D9
:102AA200B73127279331410147088600480887003C
:102AB2005931403FB900413FBA00423FBB00433F5A
:102AC200BC000430C9004908BD00BE01BE0A4E3038
:102AD200A531152593314001B101B10A4E30B20042
:102AE2000230B3002B30B731272793314001B101B7
:102AF200B10A3630B200B930B3002F30B7312727D0
:102B020093314E304101B6000230B700B801B80A25
:102B12000330C9004908B900AB3146239331400163
:102B2200B1014E30B2000230B3003830B73127273E
:102B3200933141014708293E86000030483D870015
:102B4200811DD12D4E30B6000230B70047088600F5
:102B5200480887004C310108C9004908B800033011
:102B6200CA004A08B900AB31462393314001B10192
:102B7200B10A4E30B2000230B3003830B7312727E5
:102B8200933105304101C90049084001AB004201BF
:102B92006F08AB31AF234101CA004A084201EF007E
:102BA20042016F08080040013B088039C00040081C
:102BB200C5003B35C0004008CB00BA1B4B144B0884
:102BC2000319F02D4B0A031DEE2D0030BB0000301F
:102BD200BA000030B9000030B800BA17F82D003042
:102BE200BB000030BA000030B9000030B8003F0826
:102BF2008039C0004008C5063F35C0004008C60005
:102C0200BE1B461446080319132E460A031D112E35
:102C12000030BF000030BE000030BD000030BC00FC
:102C2200BE171B2E0030BF000030BE000030BD00BA
:102C32000030BC004608031D4B08031D292E00303E
:102C4200BB000030BA000030B9000030B800080004
:102C52003808C0004008A4003E08B531A4259531CB
:102C620040012508D1002408D0005008C000C1014D
:102C7200C201C3014308CA004208C9004108C80092
:102C82004008C7005108C000C101C201C301430886
:102C9200CF004208CE004108CD004008CC003908E0
:102CA200C0004008A4003D08B531A425953140017B
:102CB2002508D1002408D0005008C000C101C2017B
:102CC200C3014008C7074108C83D4208C93D43083F
:102CD200CA3D5108C000C101C201C3014008CC076E
:102CE2004108CD3D4208CE3D4308CF3D3A08C000E1
:102CF2004008A4003C08B531A425953140012508BF
:102D0200D1002408D0005008C000C101C201C30193
:102D12004008C7074108C83D4208C93D4308CA3DAB
:102D22005108C000C101C201C3014008CC074108DB
:102D3200CD3D4208CE3D4308CF3D0830C735C80DD2
:102D4200C90DCA0D890B9F2E3908C0004008A40086
:102D52003C08B531A425953140012508D10024084D
:102D6200D0005008C7075108C83D0030C93DCA3DD0
:102D72003808C0004008A4003D08B531A4259531AB
:102D820040012508D1002408D0005008C707510887
:102D9200C83D0030C93DCA3D0830C735C80DC90D10
:102DA200CA0D890BCE2E3808C0004008A4003C088A
:102DB200B531A425953140012508D1002408D00061
:102DC2005008C7075108C83D0030C93DCA3D3908FF
:102DD200C0004008A4003E08B531A4259531400149
:102DE2002508D1002408D0005008CC075108CD3D59
:102DF2000030CE3DCF3D3A08C0004008A4003D0857
:102E0200B531A425953140012508D1002408D00010
:102E12005008CC075108CD3D0030CE3DCF3D3A0899
:102E2200C0004008A4003E08B531A42595314001F8
:102E32002508D1002408D0005008C0005108C10064
:102E4200C201C3010830C035C10DC20DC30D890BCB
:102E5200242F4008CC074108CD3D4208CE3D43080F
:102E6200CF3D4708C0004808C1004908C2004A08CF
:102E7200C3001830C336C20CC10CC00C890B3B2FE7
:102E82004008CC074108CD3D4208CE3D4308CF3D26
:102E92000830C735C80DC90DCA0D890B4A2F4B081A
:102EA2004607C000C101C10D4008823ED000FF307C
:102EB200413DD100CE1B722F0130CC35CD0DCE0D50
:102EC200CF0D890B5E2FCA1B4C140130C735C80DBC
:102ED200C90DCA0D890B672FFF30D007FF30D13DD6
:102EE2005B2FC601CA1F8B2FFF304705C000FF3082
:102EF2004805C100FF304905C2007F304A05C300C2
:102F0200430842044104400403194C18892F8B2FB3
:102F1200C601C60A46080319B42F0130CC07003097
:102F2200CD3D0030CE3D0030CF3D4F1CB42F4C087C
:102F3200C0004D08C1004E08C2004F08C300013056
:102F4200C400C337C20CC10CC00CC40BA22F43086F
:102F5200CF004208CE004108CD004008CC0001302D
:102F6200D0070030D13D5108803AC0008030400285
:102F7200031DBD2FFF305002031CC92F7F304001BB
:102F8200CF008030CE000030CD000030CC00F32FD7
:102F920040015108803AC00080304002031DD32F07
:102FA200013050020318E02F00304001CF00003002
:102FB200CE000030CD000030CC00C501F32F40011F
:102FC2005008C0004008CB00FF30CC05FF30CD05D3
:102FD2007F30CE050030CF054B18CE174B36C000E0
:102FE2004008CF004508C0004008CF044F08BB008E
:102FF2004E08BA004D08B9004C08B800080040015C
:10300200A801A901241C09282608A8072708A93D08
:103012000130A635A70D890B0A280130A536A40C6C
:10302200890B0F2824082504031D03282908A5005D
:103032002808A4000800400124088600250887000B
:103042000030C03F0030C13F0030C23F0030C33FBC
:10305200240886002508870044310030C03F003034
:10306200C13F0030C23F0030C33F2408860025081C
:10307200870048310030C03F0030C13F0030C23FBE
:103082000030C33F24088600250887004C318101A7
:1030920024088600250887004D310030C03F0030EB
:1030A200C13F0030C23F0030C33F240886002508DC
:1030B200870051310030C03F0030C13F0030C23F75
:1030C2000030C33F240886002508870055310030B0
:1030D200C03F0030C13F0030C23F0030C33F240830
:1030E20086002508870059310030C03F0030C13FBB
:1030F2000030C23F0030C33F240886002508870005
:103102005D310030C03F0030C13F4030C23F4030EF
:10311200C33F2408213E86000030253D8700003051
:10312200C03F0030C13F2030C23FC230C33F2408FD
:10313200253E86000030253D87000030C03F00302C
:10314200C13F8030C23F3F30C33FAA012A08A600D8
:10315200A7010530A635A70D890BAB282608240741
:10316200A8002708253DA90028082A3EAB00003008
:10317200293DAC002B0886002C0887005631003010
:10318200C03F0030C13F8030C23F4030C33F2B08B8
:103192001F3EA60000302C3DA70026088600270807
:1031A2008700053081002B081E3EA60000302C3D12
:1031B200A7002608860027088700013081002B0817
:1031C20086002C08870044310030C03F0030C13FE8
:1031D2000030C23F0030C33F2B0886002C08870016
:1031E20050310030C03F0030C13F8030C23FBF305D
:1031F200C33F2B0886002C08870048310030C03FAF
:103202000030C13F0030C23F0030C33F2B08860070
:103212002C0887004C310030C03F0030C13F0030E5
:10322200C23F0030C33F2B0886002C0887000030C5
:10323200C03F0030C13F0030C23F0030C33F0130C9
:10324200A6002608AA0704302A0203180800A728A5
:1032520040016A084101C900CA010530C935CA0DD9
:10326200890B2F2949084707CB004A08483DCC0063
:103272004B082A3ECD0000304C3DCE0042016D0885
:1032820090310120993141014D0886004E08870096
:103292005F310103031955294D0886004E08870046
:1032A2005F310108031D202A4001B1012F30B20015
:1032B200BA30B3000030B7312727993141014D08A8
:1032C20086004E0887005031403F4001A400413F34
:1032D200A500423FA600433FA7000030AB000030EC
:1032E200AA000030A9000030A800A931F4219931C8
:1032F200031CA9294001B101B10AC930B200BA3098
:10330200B3000030B731272799314E304101B60062
:103312000230B70040016A08013E4101C900490874
:10332200B800B901B90AAB31462399314001B10164
:10333200B10A4E30B2000230B3000430B731272751
:1033420099314001B101B10A8530B200BA30F12998
:1033520041014D0886004E0887005031403FAD00C4
:10336200413FAE00423FAF00433FB0000030B400E7
:103372000030B3000030B2000030B100AD31D625CC
:1033820099310318F4294001B101B10AC930B200E0
:10339200BA30B3000030B731272799314E3041019E
:1033A200B6000230B70040016A08013E4101C9007F
:1033B2004908B800B901B90AAB3146239931400135
:1033C200B101B10A4E30B2000230B3000430B7315D
:1033D200272799314001B101B10A9530B200BA30C4
:1033E200B3000530782A41014D0886004E08870057
:1033F2005031403FB900413FBA00423FBB00433F1A
:10340200BC000430C9004908BD00BE01BE0A4E30EE
:10341200A531152599314001B101B10A4E30B200F2
:103422000230B3000030B731272799314001B10192
:10343200B10A6430B200BA30B3000430782A4D08C1
:1034420086004E0887005F3102300106031D3A2ACA
:103452004001B1015230B200B930B3000030B7318F
:10346200272799314001B101B10ABA30B200B9300F
:10347200762A4D0886004E0887005F310530010626
:10348200031D542A4001B1016C30B200B930B300BF
:103492000030B731272799314001B101B10AA0307C
:1034A200B200B930762A4D0886004E0887005F3197
:1034B200043001060319662A4D0886004E0887006B
:1034C2005F3103300106031D7B2A4001B1015F30E9
:1034D200B200B930B3000030B7312727993140012B
:1034E200B101B10A7930B200B930B3000030B7315E
:1034F200272799314001B101D430B200B930B3006D
:103502000C30B7312727993141014D0886004E080A
:1035120087005631403FB900413FBA00423FBB00ED
:10352200433FBC000430C9004908BD00BE01BE0AC9
:103532004E30A531152599314001B101B10A4E3005
:10354200B2000230B3000C30B73127279931400165
:10355200B101B10A8D30B200BA30B3001130B731C7
:103562002727993102304101C90049084001AB00C7
:1035720042016D08AB31AF234101CA004A08420142
:10358200ED006D0808004101C9004908C400440863
:10359200CB00003041023C300319400203180800FE
:1035A2002030C4004408CA0040084A07C400440846
:1035B2008600013087008101D001D1014301A001C1
:1035C200A10141013E08FF3E4301A200FF3041013B
:1035D2003F3D4301A30041015008C4000130C435FE
:1035E200FF3E031DF02A4435A03E860001308700CD
:1035F200403FCC00413FCD005008C4000130C435EB
:10360200FF3E031D002B4435023EA03E86000130E2
:103612008700403FCE00413FCF00FF30D007FF3050
:10362200D13D41014D08D3004C08D2004F08D500CE
:103632004E08D4004008C40044084001AD004101D6
:10364200540852074001A60041015508533D40016C
:10365200A7000230A4000030A500AA318B229A31C3
:1036620040012408B53145259A3141014B07C50077
:1036720045084001B100410141084001B300410148
:1036820040084001B20041014A08B6310B269A3186
:1036920041014008C40044084001AD004101520804
:1036A200B53145259A3141014B07B6000230B700CA
:1036B2004A08B8000130B90043088A0042080A00EB
:1036C2009B314101B71F6E2B0130D2070030D33D31
:1036D200492BFF30D407FF30D53D4A08B6000130F0
:1036E200B7004008C40044084001AD00410154083D
:1036F200B53145259A3141014B07B8000230B90076
:1037020043088A0042080A009B314101B71B6A2B19
:103712005508803AC4005308803A4402031D932B93
:1037220052085402031CCB2B410141084001B20054
:10373200410140084001B10041014008C400440871
:103742004001AD0041015208B53145259A31410190
:103752004B07C50045084001B30041014008C600BF
:1037620046084001AD0041015408B53145259A3162
:1037720041014B07C70047084001B400B631372664
:103782009A3101304101D2070030D33DFF30D407D6
:10379200FF30D53D41015508803AC4005308803AB4
:1037A2004402031DD62B520854020318492B41012F
:1037B20052084E02C40053084F3BC5004C08540245
:1037C200C6004D08553BC7004708803AC800450867
:1037D200803A4802031DEF2B4408460203182A2CA4
:1037E20041015308803AC4004F08803A4402031D45
:1037F200FC2B4E0852020318242C01304101D00741
:103802000030D13D5008C4000130C435FF3E031DD5
:10381200062C4435A03E8600013087005208C03F86
:103822005308C13F5008C4000130C435FF3E031D98
:10383200162C4435023EA03E8600013087004E0819
:10384200C03F4F08C13F41015508CF005408CE0088
:10385200622C41014D08803AC4005508803A440266
:10386200031D352C54084C0203185D2C0130410114
:10387200D0070030D13D5008C4000130C435FF3EAE
:10388200031D3F2C4435A03E8600013087004C08C2
:10389200C03F4D08C13F5008C4000130C435FF3E4F
:1038A200031D4F2C4435023EA03E860001308700A6
:1038B2005408C03F5508C13F41015308CD0052088A
:1038C200CC004D08803AC4004F08803A4402031DE0
:1038D2006C2C4E084C02031C122B4101D11B080018
:1038E200EC2A0630B53187259C314001250841017B
:1038F200B400400124084101B30034084001B10082
:10390200410133084001B00044012D084001B300D9
:1039120044012C084001B2000030B7000030B6006C
:103922007F30B500FF30B400AA31DD229C31400166
:1039320031084401AD00400130084401AC001030B0
:10394200B53187259C31400125084101B400400171
:1039520024084101B30034084001B1004101330899
:103962004001B00044012B084001B30044012A0881
:103972004001B2000030B7000030B600CC30B500D4
:10398200CC30B400AA31DD229C314001310844011F
:10399200AB00400130084401AA001130B53187253F
:1039A2009C31400125084101B40040012408410135
:1039B200B30034084001B100410133084001B000B6
:1039C200440129084001B300440128084001B20023
:1039D2000030B7000030B6004C30B500CC30B40037
:1039E200AA31DD229C31400131084401A900400185
:1039F20030084401A800C2304001D5000A30D4008A
:103A02000C30D3004A30D2003D30BB00F330BA0054
:103A1200EA30B900B330B80044012C084001AA00D2
:103A220044012D084001AB00AC01AD010030AF31C3
:103A32006A279C3140012D08BF002C08BE002B08CC
:103A4200BD002A08BC009531D4259C3140013B08B9
:103A5200D9003A08D8003908D7003808D600923180
:103A62000E229C3141012D0886002E0887004D311F
:103A720040015208C03F5308C13F5408C23F550895
:103A8200C33F4030BB00A030BA000030B900003064
:103A9200B80044012A084001AA0044012B08400151
:103AA200AB00AC01AD010030AF316A279C3140015F
:103AB2002D08BF002C08BE002B08BD002A08BC0040
:103AC2009531D4259C3140013B084101B2004001AF
:103AD2003A084101B100400139084101B0004001FA
:103AE20038084101AF0047304001D5003B30D400D7
:103AF200D130D3000030D2004330BB004530BA0091
:103B02000030B9000030B800410132084001BF0066
:103B1200410131084001BE00410130084001BD00B1
:103B220041012F084001BC009531D4259C31400150
:103B32003B08D9003A08D8003908D7003808D6001F
:103B42009E3128269C3141012D0886002E088700CF
:103B5200513140015208C03F5308C13F5408C23F8F
:103B62005508C33F4530D5001F30D400D830D300AC
:103B72000030D2004030BB00A030BA000030B900A3
:103B82000030B800440128084001AA004401290875
:103B92004001AB00AC01AD010030AF316A279C316E
:103BA20040012D08BF002C08BE002B08BD002A08CA
:103BB200BC009531D4259C3140013B08D9003A081C
:103BC200D8003908D7003808D6009E3128269C3103
:103BD20041012D0886002E08870055314001520808
:103BE200C03F5308C13F5408C23F5508C33F41017B
:103BF2002D0886002E0887005531403F4001B8004D
:103C0200413FB900423FBA00433FBB0041012D088A
:103C120086002E0887005131403F4001BC00413FE1
:103C2200BD00423FBE00433FBF009531D425410154
:103C32002D0886002E088700593140013808C03F00
:103C42003908C13F3A08C23F3B08C33F0800400160
:103C520059088039DA005A084101A4004001593557
:103C6200DA005A084101AB004001D81F3A2E410147
:103C72002B1441012B0803194E2E2B0A031D4A2E29
:103C820000304001D9000030D8000030D7000030A9
:103C9200D6004001D817D901572E00304001D90073
:103CA2000030D8000030D7000030D60055088039E7
:103CB200DA005A084101A40640015535DA005A08D3
:103CC2004101AC004001D41F682E41012C14410176
:103CD2002C0803197C2E2C0A031D782E003040017B
:103CE200D5000030D4000030D3000030D2004001B3
:103CF200D417D501852E00304001D5000030D40004
:103D02000030D3000030D20055085404530452044A
:103D1200031DA62E0030D9000030D8000030D70095
:103D22000030D6008030D8047F30D9044101240805
:103D32004001DA005A08D9045908D5005808D400BD
:103D42005708D3005608D200080041012B08031D72
:103D5200B42E00304001D5000030D4000030D30032
:103D62000030D20008002B084001DA00DB015B08BA
:103D7200DD0041012C0840015A02DC00031CDD0376
:103D82005C087F3E4101A500003040015D3D4101DC
:103D9200A600400159084101A30040015808410111
:103DA200A200400157084101A1004001560841010B
:103DB200A00000304001D9000030D8000030D70008
:103DC2000030D60000304101AA000030A9000030C6
:103DD200A8000030A700AC011A302C020318402FB3
:103DE2002C080319102F0130A035A10DA20DA30D2F
:103DF200890BF52E01304001D635D70DD80DD90DDE
:103E0200890BFC2E4101AA1F082F400156140130D4
:103E12004101A735A80DA90DAA0D890B092F400153
:103E2200550841012302031D262F40015408410178
:103E32002202031D262F4001530841012102031DC6
:103E4200262F4001520841012002031C392F2A1754
:103E5200400152084101A002400153084101A13B27
:103E6200400154084101A23B400155084101A33BD6
:103E720001304001DA005A084101AC07ED2E230857
:103E8200220421042004031D27144001D81B622FA1
:103E92000130D635D70DD80DD90D890B4A2F4101E6
:103EA200AA1F552F4001561401304101A735A80D14
:103EB200A90DAA0D890B562FFF30A507FF30A63D8D
:103EC200462F4101AC01AA1F842FFF302705400174
:103ED200DA00FF30410128054001DB00FF304101DB
:103EE20029054001DC007F3041012A054001DD0047
:103EF2005D085C045B045A0403195618812F842F51
:103F02004101AC01AC0A41012C080319B02F013068
:103F12004001D6070030D73D0030D83D0030D93DB2
:103F2200591CB02F5608DA005708DB005808DC008D
:103F32005908DD000130DE00DD37DC0CDB0CDA0C69
:103F4200DE0B9D2F5D08D9005C08D8005B08D70006
:103F52005A08D60001304101A5070030A63D4101B3
:103F62002608803A4001DA0080305A02031DBC2F35
:103F7200FF3041012502031CCC2FFF304101A50077
:103F82000030A60000304001D9000030D8000030D7
:103F9200D7000030D60041012608803A4001DA00FD
:103FA20080305A02031DD82F013041012502031827
:103FB200E82F4101A501A60100304001D9000030DF
:103FC200D8000030D7000030D6004101A4014101E1
:103FD20025084001DA005A084101AB002B1CF42FDE
:103FE2004001D817F92F7F304001DA005A08D8056E
:103FF20041012B364001DA005A08D900972E4001C0
:1040020014161912991519110330890B062800008C
:10401200400119150330890B0C28000000304001C3
:104022000E1A0130A4001911B431CE24A03140017E
:104032002408031D0428141299110800B53114250F
:10404200A0314001E6006608E70002306706031D62
:10405200692841013E08B0003D08AF003C08AE00AF
:104062003B08AD00390886003A088700403FB1009E
:10407200413FB200423FB300433FB400AD31D625C9
:10408200A0310318692841014608A3004508A2008F
:104092004408A1004308A000390886003A088700B6
:1040A200403FA400413FA500423FA600433FA70076
:1040B200B73159274101390886003A08870020089C
:1040C200C03F2108C13F2208C23F2308C33F080066
:1040D20040016703031D08004101390886003A08C0
:1040E2008700403FAD00413FAE00423FAF00433F3B
:1040F200B0004208B4004108B3004008B2003F08D3
:10410200B100AD31D625A03103180800410146089F
:104112004001D500410145084001D4004101440855
:104122004001D300410143084001D2004101390856
:1041320086003A088700403F4001D600413FD70041
:10414200423FD800433FD90092310E224101390843
:1041520086003A08870040015208C03F5308C13F19
:104162005408C23F5508C33F080000304201DF0037
:104172000030DE000030DD000030DC00E001E00A4B
:10418200A931AC21A03140019916AE315226A0319D
:10419200B531E425A0318731FA27A031B431AA2400
:1041A200A03146304001A4002730A50098311C20E0
:1041B200A0310130B431AE24A03164004630410157
:1041C200AD002730AE009C317224A03142015F085D
:1041D2004001AB0042015E084001AA0042015D08B5
:1041E2004001A90042015C084001A8008731A427D0
:1041F200A03140012B08031D08292A08031D0829A4
:104202002908031D082906302802031C2329A83186
:104212000020A031400127084201DF0040012608AA
:104222004201DE00400125084201DD004001240870
:104232004201DC0046304101C1002730C20090310A
:104242003320A03146304101B9002730BA00A631EF
:104252007C26A031003A031938294201E001463098
:104262004101AD002730AE008031E320A031420190
:104272006008031D4F2946304101B9002730BA00BA
:1042820089318321A031003A03194F294630410177
:10429200D6002730D7008C317924A031B5313625AC
:1042A200A031003A03195929A331CC23A031612945
:1042B20046304101D0002730D100A231ED22A03199
:1042C2001A304101EC00F830890B6529EC0B6529A5
:1042D2000000DE2842016C0890310120A131410129
:1042E2006D080319142A4001B1010030B200B83040
:1042F200B3000030B7312727A1314001B101B10A23
:10430200C130B200BA30B3000030B7312727A13133
:10431200410147088600480887005D31403FB900E7
:10432200413FBA00423FBB00433FBC000430C900DA
:104332004908BD00BE01BE0A4E30A5311525A13186
:104342004001B101B10A4E30B2000230B300063072
:10435200B7312727A1314001B101B10AE130B200E2
:10436200BA30B3000A30B7312727A13141014708DB
:10437200213E86000030483D8700403FB900413F62
:10438200BA00423FBB00433FBC000330C9004908AA
:10439200BD00BE014E30A5311525A1314001B1014C
:1043A200B10A4E30B2000230B3000C30B7312727C9
:1043B200A1314001B101B10A4830B200BA30B300B4
:1043C2000F30B7312727A13141014708253E86002A
:1043D2000030483D8700403FB900413FBA00423FAC
:1043E200BB00433FBC000330C9004908BD00BE0109
:1043F200BE0A4E30A5311525A1314001B101B10AE5
:104402004E30B2000230B3001830B7312727A13145
:104412004001B101B10A5530B200B930B3001C30CD
:10442200B7312727A13103304101C90049084001B2
:10443200AB0042016C08AB31AF234101CA004A080C
:104442004201EC006C0808004001B000B1013108E3
:10445200AD00AE012D08A4002E08A5000630A6006E
:104462000030A70098310020A231400125088500C4
:104472002408840000308407B030853D00083006EF
:10448200031DE32A3108AD00AE012D08A4002E0859
:10449200A5000630A6000030A70098310020A23106
:1044A2004001250885002408840001308407B030CB
:1044B200853D00082A060319792A3108AD00AE01AC
:1044C2002D08A4002E08A5000630A6000030A70083
:1044D20098310020A231400125088500240884007B
:1044E20001308407B030853D1200FF3A031DE32AF4
:1044F2002C080319942A3108AD00AE012D08A4003E
:104502002E08A5000630A6000030A7009831002032
:104512004001250885002408840004308407B03057
:10452200853D000808002B03031DAF2A3108AD00AA
:10453200AE012D08A4002E08A5000630A60000300A
:10454200A700983100204001250885002408840036
:1045520002308407B030853D0008080002302B0687
:10456200031DCB2A3108AD00AE012D08A4002E0890
:10457200A5000630A6000030A700983100204001B7
:10458200250885002408840003308407B030853D67
:10459200000808003108AD00AE012D08A4002E0865
:1045A200A5000630A6000030A70098310020400187
:1045B200250885002408840005308407B030853D35
:1045C200000808000130AD002D08B1070E3031029D
:1045D200031C282AFF300800430167080319182B1F
:1045E200420168084001AB00420167084001AA008D
:1045F200420166084001A900420165084001A80085
:104602008731A427A23140012B08031D08002A0884
:10461200031D0800B03028020430293B03180800AB
:104622004301E7010C30B431EA24A2313F2B4201AD
:1046320068084001AB00420167084001AA0042013C
:1046420066084001A900420165084001A8008731BF
:10465200A427A23140012B08031D382B2A08031D71
:10466200382BB13028020430293B031C3F2B430175
:10467200E701E70A0830B431EA24080042016A0877
:10468200A8319320A23140012B084101DA004001F8
:104692002A084101D90059085A0403195E2B51080E
:1046A200C8005008C7005A088A0059080A00A331F6
:1046B2004101D2005208D600622B0B30B731C52718
:1046C200A2314101ED01B5311F25A2314101D200D4
:1046D2005208D700420168084001AB004201670856
:1046E2004001AA00420166084001A9004201650892
:1046F2004001A8008731A427A23140012B08031DE5
:104702008B2B2A08031D8B2B2D3028020130293BCD
:10471200031C8D2B01308E2B00304101D200520838
:10472200D8005608D20052084001AA004101570899
:10473200D30053084001AB0041015808D40054088B
:104742004001AC0042016A08A2312522A231410196
:10475200D5005508DB00DB1BC82B5B08D200D30158
:10476200D21BD30342016A084101D400D501530888
:104772005506031DBE2B5208540603190800ED010D
:10478200ED0A5B08D20052084201EA0008000B3031
:10479200B731C5270800B5313625A3314001BA002B
:1047A2003A08BC008731FA27A331DD2CB101413030
:1047B200B200B830B3000030B7312727A33140012F
:1047C200B101B10A7530B200B830B3000030B73170
:1047D2002727A331092DB1015B30B200B830B300F5
:1047E2000030B7312727A3314001B101B10A9C3013
:1047F200B200B830B3000030B7312727A331092DFA
:10480200B1010430B200B930B3000030B73127270C
:10481200A3314001B101B10AC330B200B830B300D4
:104822000030B7312727A331092DB1014130B20041
:10483200B830B3000030B7312727A3314001B101AE
:10484200B10A1130B200B930B3000030B7312727B6
:10485200A331092DB1011E30B200B930B3000030CE
:10486200B7312727A3314001B101B10AD030B200DC
:10487200B830B3000030B7312727A331092DB10179
:104882001E30B200B930B3000030B7312727A33150
:104892004001B101B10AA930B200B830B300003012
:1048A200B7312727A331092DB1014E30B200B830FC
:1048B200B3000030B7312727A3314001B101B10A5B
:1048C2008F30B200B830B3000030B7312727A331A0
:1048D200092DB1013830B200B930B3000030B73120
:1048E2002727A3314001B101B10AB630B200B83076
:1048F200B3000030B7312727A331092DB101EA30C7
:10490200B200B830B3000030B7312727A3314001DD
:10491200B101B10A2B30B200B930B3000030B73167
:104922002727A331092DB1010430B200B930B300F9
:104932000030B7312727A3314001B101B10A453018
:10494200B200B930B3000030B7312727A331B531F7
:104952001F25A331013A031D092D0130B431AE24C4
:10496200A331092DB101F730B200B830B3000030E5
:10497200B7312727A3314001B101B10A6830B20033
:10498200B830B3000030B7312727A331092DB10168
:104992008230B200B830B3000030B7312727A331DC
:1049A2004001B101B10ADD30B200B830B3000030CD
:1049B200B7312727A331092D40013C08BA00BB01BA
:1049C2003B08003A0319E62CC82C3A08013A0319AD
:1049D200D72B033A0319EC2B013A0319012C073A9E
:1049E2000319162C013A03192B2C033A0319402CF4
:1049F200013A0319552C0F3A03196A2C013A03198B
:104A02007F2C033A0319942C013A0319B32CC82CB6
:104A1200B5311F25A331013A031D112DB5316E2584
:104A22004101ED01ED0A08004101C600C101C10AC0
:104A3200C501C2013C08B0003B08AF003A08AE0015
:104A42003908AD000030B4000030B3000030B200CD
:104A52000030B100AD31D625A5310318602DBF302D
:104A62004001BB008030BA000030B9000030B8000D
:104A720041013C084001BF0041013B084001BE002A
:104A820041013A084001BD00410139084001BC0022
:104A92009531D425A53140013B084101BC004001BC
:104AA2003A084101BB00400139084101BA00400106
:104AB20038084101B900C201C20A0130BD024101F8
:104AC2003C08B0003B08AF003A08AE003908AD0020
:104AD2004130B4002030B3000030B2000030B100E9
:104AE200AD31D625A531031CA72D41304001D5009B
:104AF2002030D4000030D3000030D20041013C0805
:104B02004001D90041013B084001D80041013A0867
:104B12004001D700410139084001D6009E312826C4
:104B2200A531400155084101BC0040015408410132
:104B3200BB00400153084101BA0040015208410143
:104B4200B9000130BF003F08C107602D4101410893
:104B52003E07BF003F08C4003E08031DB42D0130CC
:104B6200BF003F08BD070130BD023D0844020318E3
:104B7200CA2D2030BF0045084607C0004008860005
:104B8200023087003F0881000130BF003F08C5079F
:104B9200B42D42080319DC2D2D30BF00450846070D
:104BA200C00040088600023087003F0881000130C3
:104BB200BF003F08C5070130C402440A0319732E1F
:104BC2003C08B0003B08AF003A08AE003908AD001F
:104BD200AD316525A53141012D08BF003F08C30055
:104BE2000A304001A6000030A70041014308BF007F
:104BF200C0013F084001A400410140084001A50056
:104C020098310020A53140012408AA002508AB00F4
:104C1200890D893B8909AC00AD000130AF316A27AB
:104C2200A53140012D084101A30040012C0841019A
:104C3200A20040012B084101A10040012A084101C4
:104C4200A00041304001BB002030BA000030B90062
:104C52000030B80041013C084001BF0041013B085F
:104C62004001BE0041013A084001BD00410139083E
:104C72004001BC009531D425A53140013B084101DA
:104C8200A70040013A084101A6004001390841014C
:104C9200A500400138084101A400B7315927A531C8
:104CA20041012308BC002208BB002108BA002008E9
:104CB200B9004308303EBF0045084607C00040081F
:104CC2008600023087003F0881000130BF003F08A4
:104CD200C50744080319DC2D44083E06031DDC2DDC
:104CE2002E30CE2D45084607BF003F088600023011
:104CF2008700810108004101390886003A088700CF
:104D02004D31403FAD00413FAE00423FAF00433F17
:104D1200B000C130B400F030B3000030B200003057
:104D2200B100AD31D625A631031CB22E423041016D
:104D3200B000C830AF000030AE000030AD0039081E
:104D420086003A0887004D31403FB100413FB20032
:104D5200423FB300433FB400AD31D625A63103181C
:104D6200BB2E41013908293E860000303A3D8700BA
:104D72000112EC2F41013908293E860000303A3DEC
:104D820087000116EC2F440127084001AB004401C3
:104D920026084001AA00440125084001A900440157
:104DA20024084001A8008731A427A63140012B081E
:104DB200031DE52E2A08031DE52E2908031DE52EF5
:104DC20032302802031CFE2FA8310020A6314001F8
:104DD20027084401A300400126084401A200400123
:104DE20025084401A100400124084401A000230831
:104DF200A7002208A6002108A5002008A4003F3031
:104E0200B431F424A6314301E201E20AFE2F440147
:104E120023084001AB00440122084001AA004401DA
:104E220021084001A900440120084001A80087315F
:104E3200A427A63140012B08031D292F2A08031D90
:104E4200292F2908031D292F15302802031C432F5F
:104E520041013908293E860000303A3D8700811D14
:104E62003F2F3908293E860000303A3D87008111E4
:104E72004301E2010730B731C527A631B431D72447
:104E8200A631FE2FB5310925A631003A0319FE2FAE
:104E92008731FE27A6314101BB003B084001E600F5
:104EA2006608860002308700AA300106031DD22F51
:104EB2006608023E8600023087000103031DD22FDE
:104EC2006608033E860002308700403F4101BB0076
:104ED200413FBC00423FBD00433FBE00390886004F
:104EE2003A0887003B08C03F3C08C13F3D08C23F2B
:104EF2003E08C33F40016608073E86000230870035
:104F0200403F4101BB00413FBC00423FBD00433F27
:104F1200BE00390886003A08870044313B08C03F8A
:104F22003C08C13F3D08C23F3E08C33F40016608FE
:104F32000B3E860002308700403F4101BB00413FEB
:104F4200BC00423FBD00433FBE00390886003A081C
:104F5200870048313B08C03F3C08C13F3D08C23F83
:104F62003E08C33F4001660A8600023087000108FE
:104F72004101BB0039080C3EBC0000303A3DBD0087
:104F82003C0886003D0887003B0881003908293E1D
:104F9200860000303A3D870081154301E20101306D
:104FA200080041013908293E860000303A3D870059
:104FB200811DE62F3908293E860000303A3D8700E0
:104FC20081110830B731C527A631B431D724A631B3
:104FD2004301E201FE2F430162084101BB00BC0113
:104FE2003C08003A0319F62FE92F3B08003A03194F
:104FF200C42E013A0319082FE92F0030080042019C
:1050020064084001A700420163084001A600420172
:1050120062084001A500420161084001A4000800A5
:105022004001A60026080139A400A40D190824068F
:10503200FD39240699002608A4000130A436890B04
:105042001F2801302405A50019082506FE3925066A
:1050520099002608A4000230A436890B2D282408C2
:105062000139A500A50EA50D1A082506DF3925066A
:105072009A002608A4000330A436890B3D28240890
:105082000139A500A50E1A082506EF3925069A0052
:105092001030890B4A280032B431CE240800400176
:1050A2000C0E0139F4000C0E890C01390907740445
:1050B200F5007508FB007C080739F400F501F435AA
:1050C200F50DF435F50D2530F600B830F70074080B
:1050D2007607F8007508773DF9007B0878078400A9
:1050E20079080318790A85000008FA007A08FC009A
:1050F200FC1F80280130F40074084301EC007C1F7F
:1051020087280230F40074084301EC00B431E02433
:1051120073084201E8007208E7007108E6007008AF
:10512200E50008004001AF00B0013008AC00AD015D
:105132002C08A4002D08A5000330A6000030A7000B
:1051420098310020A83140012508850024088400F8
:1051520054308407B030853D00082F06031DCC284B
:105162003008AC00AD012C08A4002D08A5000330C6
:10517200A6000030A70098310020400125088500D4
:105182002408840055308407B030853D003FAA00D2
:10519200013FAB0008000130AC002C08B007093019
:1051A2003002031C9628AA01AB0108004001AA01A3
:1051B200A71FE228A609A709A60A0319A70AAA0196
:1051C200AA0AA51FE928A409A509A40A0319A50A80
:1051D2002408250403191029A901A90AA51BFB28E3
:1051E2000130A435A50D890BF2280130A80028084A
:1051F200A907EF2825082702031D012924082602F2
:10520200031C07292408A6022508A73B0130A5365E
:10521200A40C890B08290130A902031DFB282A08C6
:1052220003191829A609A709A60A0319A70A270814
:10523200A5002608A40008004001A7004D29240C5F
:10524200031C1810031818140800240C031C9810CF
:10525200031898140800240C031C181103181815BD
:105262000800240C031C9811031898150800240C3C
:10527200031C181003181814240C031C981003188C
:105282009814240C031C181103181815240C031C61
:1052920098110318981508002708A500A6012608EA
:1052A200003A0319552938292508003A03192029FB
:1052B200013A03192629033A03192C29013A031941
:1052C20032293829080040018C1B7E2904307D06D2
:1052D20003197E29B4319F24A9310430F4007408E3
:1052E200FD00B431E02473084201E8007208E700CF
:1052F2007108E6007008E500080004307D06031D11
:105302000800B4319C24A931F4007408F5000B3074
:105312007502031C98294730750203189829400129
:105322008C1F98290130F4007408FD0008004730F2
:105332007502031CA42940018C1BA4290230F4002D
:105342007408FD00080040018C1F08000330F400BF
:105352007408FD00080002305101930060308D0096
:105362000F1EB1297D014B08C0391738CB000F3011
:105372007E01A6004030B800C3010330CE00F030F9
:105382004001920093018730940041011D14E030E6
:105392009E0080304B019E0047309F00B2309C003F
:1053A200333044018E0001309100CF308D002B301C
:1053B2008C0030304E0196002030990001309A0066
:1053C200C0308B00B0307E01BD00B030BE00043072
:1053D200D400083042019F0019309B0090309D009C
:1053E20020309E000800003040012405AC0000304F
:1053F2002505AD0080302605AE007F302705AF00C1
:105402002F082E042D042C04031D0F2A0030A700A0
:105412000030A6000030A5000030A40000302805AE
:10542200AC0000302905AD0080302A05AE007F3087
:105432002B05AF002F082E042D042C04031D292A4E
:105442000030AB000030AA000030A9000030A800F4
:105452002B082706031D372A2A082606031D372A8A
:1054620029082506031D372A2808240603193B2A82
:10547200031008000314080042019D1C472A1D1254
:105482001D160130F60076084301EA0742011D1D90
:10549200512A9D139D170130F60076084301EB0750
:1054A2000F3040016B020318712A42011908F600FD
:1054B20040016B08AA3E8600023087007608810010
:1054C2006B08AA3E8600023087000108F6007608C3
:1054D2004301E8060130F60076084001EB070800B8
:1054E2004201190843016806031D862A0130F600AD
:1054F2007608E900AA30F6007608F0000F30F100D5
:105502000030F200BE30B631F6264301E801400118
:10551200EB0108004001AA01A51F962AA409A509CA
:10552200A40A0319A50AAA01AA0AA71FA12AA60961
:10553200A709A60A0319A70A0130A8002808AA0683
:10554200AB01AC01240825040319D02AA901A90A38
:10555200A51BB52A0130A435A50D890BAC2A013053
:10556200A8002808A907A92A0130AB35AC0D890B80
:10557200B62A25082702031DC02A24082602031C76
:10558200C72A2408A6022508A73B2B140130A536FA
:10559200A40C890BC82A0130A902031DB52A2A08C6
:1055A2000319D82AAB09AC09AB0A0319AC0A2C08B7
:1055B200A5002B08A400080040013208A40033080B
:1055C200A500A601A7010030B8000030B9000130E3
:1055D200BA000030BB003408B8023508B93B3608BF
:1055E200BA3B3708BB3B3B08AB003A08AA00390874
:1055F200A9003808A800B631C626AA3140012408FD
:10560200BC002508BD002608BE002708BF003008E0
:10561200A4003108A500A601A7013708AB0036088F
:10562200AA003508A9003408A800B631C626AA3156
:1056320040012408BC072508BD3D2608BE3D2708B9
:10564200BF3D3F08C3003E08C2003D08C1003C0800
:10565200C0000030B8008030B9000030BA0000301D
:10566200BB004008B8074108B93D4208BA3D4308AB
:10567200BB3D1030BB36BA0CB90CB80C890B3B2BB6
:105682003908B1003808B000080041013908BA00F1
:10569200BB013A08360786003B08373D8700810187
:1056A20038080319AB2B39080319AB2B0A30400118
:1056B200A4000030A50041013808BA00BB013A0835
:1056C2004001A60041013B084001A700A831D720B4
:1056D200AB3140012408303E4101BC000130B90227
:1056E2003908BD00BE013D083607BF003E08373D00
:1056F200C0003F088600400887003C0881000A304D
:105702004001A4000030A50041013808BA00BB01E5
:105712003A084001A60041013B084001A700AA3116
:105722008B22AB31400124084101BC003C08B80087
:10573200512B0130B9023908BA00BB013A083607C9
:10574200BC003B08373DBD003C0886003D08870091
:10575200203081003908031908009A2B4001AE005D
:105762004E011612B5311425AB314001AC002C08A4
:10577200AF002F0843016606031D0F2C40012F03C3
:10578200031DEF2B2B08FF3EAC00FF300318003047
:10579200AD002D08803A803C031DD12B2C082E022F
:1057A2000318EF2B01304001AC002C08AE07B0010A
:1057B200B431A224AB311A304001AC00F830890B6D
:1057C200E02BAC0BE02B000001304001AC002C08B8
:1057D200B0070C30300203180F2CD92B02304001D5
:1057E2002F06031D0F2C2E0803190F2C0130AE02B9
:1057F200B001B431A624AB311A304001AC00F8300C
:10580200890B012CAC0B012C000001304001AC00D3
:105812002C08B0070C303002031CFA2B40012F0871
:10582200AC002C084301E6004E01161640012E087A
:105832000800003090310120AC3141016D0803199C
:105842002C2C4001B101C730B200B930B300003096
:10585200B7312727AC31410147081D3EB90000305E
:10586200483DBA000030BE000030BD000030BC0030
:105872000030BB004130C2002030C1000030C00007
:105882000030BF003F30C6000030C5000030C40009
:105892000030C300A0311F20AC314101470886000F
:1058A200480887005D31403FB900413FBA00423F9E
:1058B200BB00433FBC000430C9004908BD00BE0123
:1058C200BE0A4E30A5311525AC314001B101B10AF5
:1058D200B330B200BA30B3000030B7312727AC3151
:1058E2004001B101B10A4E30B2000230B3000630BD
:1058F200B7312727AC314001B101B10ADE30B20025
:10590200BA30B3000A30B731272700300800003020
:1059120090310120AC3141016D0803199A2C4001EC
:10592200B101AD30B200B930B3000030B731272732
:10593200AC3141014708213EB9000030483DBA0070
:10594200C230BE004830BD000030BC000030BB0099
:10595200C130C200A030C1000030C0000030BF0022
:105962003F30C6008030C5000030C4000030C300A4
:10597200A0311F20AC3141014708213E8600003092
:10598200483D8700403FB900413FBA00423FBB005B
:10599200433FBC000330C9004908BD00BE014E3080
:1059A200A5311525AC314001B101B10AB830B200C0
:1059B200BA30B3000030B7312727AC314001B10112
:1059C200B10A4E30B2000230B3000130B73127279E
:1059D200AC314001B101B10A5230B200BA30B30069
:1059E2000430B73127270030080000309031012001
:1059F200AC3141016D080319082D4001B101183085
:105A0200B200B830B3000030B7312727AC314101C2
:105A12004708253EB9000030483DBA003D30BE007F
:105A2200CC30BD00CC30BC00CD30BB004030C20019
:105A3200A030C1000030C0000030BF003D30C600C1
:105A4200CC30C500CC30C400CD30C300A0311F2003
:105A5200AC3141014708253E86000030483D8700B1
:105A6200403FB900413FBA00423FBB00433FBC0048
:105A72000330C9004908BD00BE01BE0A4E30A5313F
:105A82001525AC314001B101B10AB830B200BA30CB
:105A9200B3000030B7312727AC314001B101B10A60
:105AA2004E30B2000230B3000130B7312727AC319B
:105AB2004001B101B10A5B30B200BA30B300043028
:105AC200B731272700300800031041012F0D300D98
:105AD200B10031084001E7006708031D7A2D00304C
