:020000040000FA
:0400000080314728DC
:100008007E1480314E01961E0A280B2815288C1E56
:100018000E280F281528B2304B019C004E018C1277
:100028004528161E182819281F280C1E1C281D28AC
:100038001F280C1245280B1F2228232845281A1C84
:10004800262827283328101C2A282B283328CF3085
:1000580044018D002B308C004E0110104528991E4C
:100068003628372845288F1E3A283B2845288031CE
:10007800ED2080314E018F12452845284528452816
:1000880045287E1009008031492889308400823053
:100098008500473086000030870008308231912281
:1000A8008031FB01FC0120308400003085002730BE
:1000B8008231972280317E1040018131B729400179
:1000C8001912191199114130F800EE30890B6A287C
:1000D800F80B6A2800324001991019109A121A1266
:1000E80003308131772180310730F8007D30890B6A
:1000F8007B28F80B7B28000008308131772180317C
:100108000730F8007D30890B8728F80B8728000016
:1001180002308131772180310730F8007D30890B3A
:100128009328F80B93280000023081317721803121
:100138000730F8007D30890B9F28F80B9F280000B6
:1001480008308131772180310730F8007D30890B04
:10015800AB28F80BAB2800000830823176228031BA
:100168000730F8007D30890BB728F80BB728000056
:1001780001308231762280310730F8007D30890BDA
:10018800C328F80BC328000006308231762280315C
:100198000730F8007D30890BCF28F80BCF280000F6
:1001A80002308231762280310730F8007D30890BA9
:1001B800DB28F80BDB2800000C30823176228031F6
:1001C8000730F8007D30890BE728F80BE728000096
:1001D800080042019D1CF128F228FA281D121D165C
:1001E8000130F00070084001C307FA2842011D1DC4
:1001F800FE28FF2807299D139D170130F00070087D
:100208004001C40707290E307B0203180C290D2969
:10021800242942011908F0007B08203E8600870146
:10022800700881007B08203E860087010108F000E5
:1002380070084001C2060130F0007008FB0732293F
:100248004201190840014206031D2B292C292F2998
:10025800FC01FC0A2F29C201FB01322908000230E7
:100268005101930060308D0039290F1E3C293D292A
:1002780039293E290F307E01A6002030B800C3017D
:100288000330CE00F0304001920093018730940093
:10029800E03041019E0080304B019E0047309F00B6
:1002A800B2309C00333044018E0001309100CF30D1
:1002B8008D002B308C0030304E0196002030990094
:1002C80001309A00B0307E01BD00B030BE0004306D
:1002D800D400083042019F0019309B0090309D00E7
:1002E80020309E000800F30073080139F100F10D79
:1002F800400119087106FD39710699007308F1006B
:100308000130F136890B852901307105F200190891
:100318007206FE39720699007308F1000230F13650
:10032800890B932971080139F200F20EF20D1A08AF
:100338007206DF3972069A007308F1000330F1364D
:10034800890BA32971080139F200F20E1A08720606
:10035800EF3972069A001030890BB02900328231C9
:100368008022813108008131332181314001991681
:100378009A1580316320813182319D22813101308B
:10038800823176228131F8015E30F9008230FA003C
:1003980000308131F6218131C0308B0064007C034C
:1003A800031DD729D829DA29FC01DA2906304001AA
:1003B800D6001330D500AD30890BE029D50BE029E4
:1003C800D60BE02900323F3042019A000000EC29A8
:1003D8004E010F1EF029F129EC29D229D229D22960
:1003E800803147284001D4004A08D3004908D20088
:1003F8004808D1004708D0007808503E8600870199
:10040800010854078038823176228131182A790808
:1004180084007A088500000882316B22813101301E
:10042800F9070030FA3D182A790884007A0885000F
:100438001200031D202A212A0B2A222A0800F10172
:10044800F10A4001141619129915400119110330C7
:10045800890B2C2A0000400119150330890B322A18
:100468000000003040010E1A0130F10019118231EC
:10047800802282317108031D422A432A292A400119
:10048800141299110800F600740C4001031C19128B
:100498000318191699117608F5000430F536890BFA
:1004A800522A750881317721823176088131772186
:1004B80082310800483465346C346C346F3420342D
:1004C80057346F3472346C34643421340034F70098
:1004D800F401F40A770882314722823182312322DB
:1004E80082310800F700F40177088231472282310F
:1004F8008231232282310800400119151030890BFE
:10050800832A0032400119110800003440341434A1
:1005180054340034403414345434FE0012001E00A5
:10052800FE0B922A0034640080010131890B982A5D
:0C0538000034023082317622823108004B
:020000040001F9
:0A000E00EF3FFF3F9F3FFF3FFF3F22
:00000001FF
