:020000040000FA
:0400000080316E28B5
:100008007E1480314E01961A8C1E1C280130F8008F
:1000180078084201EE0704307D06031D1628B53125
:100028004F258031B2304B019C004E018C126C2858
:10003800161A0C1E38287E01BF1F2728B5314F25F8
:1000480080317E01BF133F1E2E28B431CC2480316D
:100058007E013F12BF1E3528B431CC2480317E0189
:10006800BF124E010C126C280B1F6C281A18101C9A
:10007800652844013908FB003808FA003708F900F8
:100088003608F8000130B6070030B73DB83DB93D35
:1000980000307802CA30793B9A307A3B3B307B3B60
:1000A800031C5E280030B9000030B8000030B700EB
:1000B8000030B600CF308D002B308C004E01101070
:1000C8006C28991A8F1E6C28B5310C254E018F1299
:1000D8007E1009008031702841018731F92780316D
:1000E800EC0042018731FA278031EF0004308400A8
:1000F8008830850060308600023087000030FF00BD
:100108000C30B1318221803168308400B2308500F2
:1001180020308600033087000030FF002030B131E6
:10012800822180314A30840027308500A630FE00C5
:100138000030FF00B13176218031FC01FD01410121
:10014800EB015C308400013085001330FE00003084
:10015800FF00B13176218031E03084000130850024
:100168000E30FE000030FF00B131762180312030A2
:100178008400023085002930FE000030FF00B131D4
:1001880076218031A0308400023085003830FE00AE
:100198000030FF00B13176217E104001A131922953
:1001A8004101E9013C304001C400D030C3001330A4
:1001B800C200A930C10041016908AD00AE012D0897
:1001C8004001AD0041012E084001AE001F30AF00D4
:1001D8000030B000B131CF21803189304101AF000A
:1001E8002730B00040012D0841012F07860040014B
:1001F8002E084101303D8700403F4001C500413F86
:10020800C600423FC700433FC800853160258031A2
:10021800400144084101D400400143084101D30092
:10022800400142084101D200400141084101D1008A
:1002380040304001C4004830C300F530C200C3302C
:10024800C100410154084001C80041015308400160
:10025800C700410152084001C60041015108400150
:10026800C500853160258031400144084101E00026
:10027800400143084101DF00400142084101DE001E
:10028800400141084101DD0040304001DE0080307E
:10029800DD000030DC000030DB0041015408400183
:1002A800C400410153084001C30041015208400104
:1002B800C200410151084001C100410160084001EC
:1002C800C80041015F084001C70041015E084001C4
:1002D800C60041015D084001C500853160258031B7
:1002E80040014408E2004308E1004208E0004108F8
:1002F800DF009E312826803140015E084101DC0084
:1003080040015D084101DB0040015C084101DA0061
:1003180040015B084101D9004A3086002730870038
:100328005D31403F4001DB00413FDC00423FDD00E2
:10033800433FDE004A308600273087004831403F7F
:10034800DF00413FE000423FE100433FE2009331DC
:100358006C23803140015E084101BC0040015D080A
:100368004101BB0040015C084101BA0040015B0843
:100378004101B90043304001DE008830DD00933090
:10038800DC003330DB0041013C084001E200410160
:100398003B084001E10041013A084001E000410109
:1003A80039084001DF0093316C23803140015E0839
:1003B8004101E40040015D084101E30040015C089F
:1003C8004101E20040015B084101E1004330400186
:1003D800DE008830DD009330DC003330DB006B302A
:1003E800860027308700403FDF00413FE000423F62
:1003F800E100433FE20093316C23803140015E0805
:100408004101E80040015D084101E70040015C0846
:100418004101E60040015B084101E5006808400130
:10042800C400410167084001C3004101660840015A
:10043800C200410165084001C1004101680840014E
:10044800C800410167084001C70041016608400132
:10045800C600410165084001C5008531602580312D
:10046800400144084101E000400143084101DF0028
:10047800400142084101DE00400141084101DD0020
:1004880068084001C400410167084001C3004101F8
:1004980066084001C200410165084001C1004101F0
:1004A80060084001C80041015F084001C7004101E0
:1004B8005E084001C60041015D084001C500853164
:1004C80060258031400144084101C00040014308D3
:1004D8004101BF00400142084101BE0040014108FE
:1004E8004101BD0064084001C400410163084001A6
:1004F800C300410162084001C20041016108400196
:10050800C100410164084001C8004101630840017D
:10051800C700410162084001C6004101610840016D
:10052800C500853160258031400144084101C4007F
:10053800400143084101C300400142084101C20093
:10054800400141084101C10064084001C400410163
:1005580063084001C300410162084001C200410133
:1005680061084001C100410144084001C80041013F
:1005780043084001C700410142084001C60041014B
:1005880041084001C500853160258031400144089B
:100598004101C800400143084101C7004001420829
:1005A8004101C600400141084101C50068084001F9
:1005B800C400410167084001C300410166084001C9
:1005C800C200410165084001C100410140084001E5
:1005D800C80041013F084001C70041013E084001F1
:1005E800C60041013D084001C500853160258031C4
:1005F800400144084101A300400143084101A20011
:10060800400142084101A100400141084101A00008
:1006180064084001C400410163084001C30041016E
:1006280062084001C200410161084001C100410166
:1006380048084001C800410147084001C70041017E
:1006480046084001C600410145084001C500853102
:1006580060258031400144084101A700400143085A
:100668004101A600400142084101A500400141089E
:100678004101A400B331F623803141012308CC00A5
:100688002208CB002108CA002008C90033304001E5
:10069800C4006730C3005930C2003230C100410184
:1006A8005C084001C80041015B084001C7004101E6
:1006B8005A084001C600410159084001C50085316A
:1006C80060258031400144084101D00040014308C1
:1006D8004101CF00400142084101CE0040014108DC
:1006E8004101CD004C084001C40041014B084001C4
:1006F800C30041014A084001C200410149084001C4
:10070800C100410150084001C80041014F084001A3
:10071800C70041014E084001C60041014D08400193
:10072800C500853160258031400144084101D80069
:10073800400143084101D700400142084101D60069
:10074800400141084101D5006908AD00AE012D08FE
:100758004001AD0041012E084001AE001F30AF003E
:100768000030B000B131CF2180317C304101AF0081
:100778002730B00040012D0841012F0786004001B5
:100788002E084101303D870058084001C40041014E
:1007980057084001C300410156084001C200410109
:1007A80055084001C1006F30840027308500003FA4
:1007B800C500013FC600023FC700033FC80085319E
:1007C8006025803140014108C03F4208C13F4308CD
:1007D800C23F4408C33F3E30C4002330C3005730F3
:1007E800C2001D30C10041016908AD00AE012D08ED
:1007F8004001AD0041012E084001AE001F30AF009E
:100808000030B000B131CF21803189304101AF00D3
:100818002730B00040012D0841012F078600400114
:100828002E084101303D8700403F4001C500413F4F
:10083800C600423FC700433FC8008531602580316C
:10084800400144084101B400400143084101B3009C
:10085800400142084101B200400141084101B10094
:100868003C304001C400F530C300C230C2008F30B4
:10087800C100410134084001C8004101330840016A
:10088800C700410132084001C6004101310840015A
:10089800C500853160258031400144084101DC00F4
:1008A800400143084101DB00400142084101DA00F0
:1008B800400141084101D9003F304001C40059308E
:1008C800C3009930C2009A30C1004030DE000030C9
:1008D800DD000030DC000030DB0041016908AD00BC
:1008E800AE012D084001AD0041012E084001AE00C7
:1008F8001F30AF000030B000B131CF2180318930D6
:100908004101AF002730B00040012D0841012F07F9
:10091800860040012E084101303D8700403F4001DC
:10092800DF00413FE000423FE100433FE2009E31EB
:100938002826803140015E08C8005D08C7005C08B1
:10094800C6005B08C5008531602580314001440838
:100958004101E000400143084101DF004001420835
:100968004101DE00400141084101DD005C08400111
:10097800C40041015B084001C30041015A0840011D
:10098800C200410159084001C1004101600840010D
:10099800C80041015F084001C70041015E084001ED
:1009A800C60041015D084001C500853160258031E0
:1009B800400144084101B800400143084101B70023
:1009C800400142084101B600400141084101B5001B
:1009D8006908AD00AE012D084001AD0041012E08A7
:1009E8004001AE001F30AF000030B000B131CF2160
:1009F80080318D304101AF002730B00040012D0813
:100A080041012F07860040012E084101303D870033
:100A18004A308400273085000831003FA000013F9C
:100A2800A100023FA200033FA30038084001C40010
:100A3800410137084001C300410136084001C200A6
:100A4800410135084001C100410158084001C80072
:100A5800410157084001C700410156084001C6003E
:100A6800410155084001C5008531602580314001AC
:100A780044084101A700400143084101A600400184
:100A880042084101A500400141084101A400B331D9
:100A9800F623803141012008C03F2108C13F2208C8
:100AA800C23F2308C33F0130AD002D08E9070430D9
:100AB800690203180800D628400144088039C90093
:100AC8004908CE004435C9004908D400C31B541452
:100AD800540803197C2D540A031D7A2D0030C400D4
:100AE8000030C3000030C2000030C100C317842D9D
:100AF8000030C4000030C3000030C2000030C10024
:100B080048088039C9004908CE064835C90049084F
:100B1800CF00C71B4F144F0803199F2D4F0A031D01
:100B28009D2D0030C8000030C7000030C6000030DE
:100B3800C500C717A72D0030C8000030C700003017
:100B4800C6000030C5004F08031D5408031DB52D0D
:100B58000030C4000030C3000030C2000030C100C3
:100B680008004108C9004908A0004708B231082216
:100B7800853140012108DA002008D9005908C90048
:100B8800CA01CB01CC014C08D3004B08D2004A085B
:100B9800D1004908D0005A08C900CA01CB01CC01CC
:100BA8004C08D8004B08D7004A08D6004908D50099
:100BB8004208C9004908A0004608B2310822853118
:100BC80040012108DA002008D9005908C900CA01E3
:100BD800CB01CC014908D0074A08D13D4B08D23D8A
:100BE8004C08D33D5A08C900CA01CB01CC014908B9
:100BF800D5074A08D63D4B08D73D4C08D83D430891
:100C0800C9004908A0004508B231082285314001D1
:100C18002108DA002008D9005908C900CA01CB0107
:100C2800CC014908D0074A08D13D4B08D23D4C08B1
:100C3800D33D5A08C900CA01CB01CC014908D507E0
:100C48004A08D63D4B08D73D4C08D83D0830D0352A
:100C5800D10DD20DD30D890B2B2E4208C90049089E
:100C6800A0004508B2310822853140012108DA0088
:100C78002008D9005908D0075A08D13D0030D23D84
:100C8800D33D4108C9004908A0004608B2310822EE
:100C9800853140012108DA002008D9005908D00719
:100CA8005A08D13D0030D23DD33D0830D035D10D62
:100CB800D20DD30D890B5A2E4108C9004908A0004E
:100CC8004508B2310822853140012108DA002008A0
:100CD800D9005908D0075A08D13D0030D23DD33D3C
:100CE8004208C9004908A0004708B23108228531E6
:100CF80040012108DA002008D9005908D5075A0808
:100D0800D63D0030D73DD83D4308C9004908A0006A
:100D18004608B2310822853140012108DA0020084E
:100D2800D9005908D5075A08D63D0030D73DD83DD7
:100D38004308C9004908A0004708B2310822853194
:100D480040012108DA002008D9005908C9005A08CA
:100D5800CA00CB01CC010830C935CA0DCB0DCC0D6A
:100D6800890BB02E4908D5074A08D63D4B08D73D10
:100D78004C08D83D5008C9005108CA005208CB0099
:100D88005308CC001830CC36CB0CCA0CC90C890BD4
:100D9800C72E4908D5074A08D63D4B08D73D4C0809
:100DA800D83D0830D035D10DD20DD30D890BD62EB4
:100DB80054084F07C900CA01CA0D4908823ED90024
:100DC800FF304A3DDA00D71BFE2E0130D535D60D4F
:100DD800D70DD80D890BEA2ED31B55140130D03509
:100DE800D10DD20DD30D890BF32EFF30D907FF306B
:100DF800DA3DE72ECF01D31F172FFF305005C9006A
:100E0800FF305105CA00FF305205CB007F30530533
:100E1800CC004C084B044A04490403195518152FF3
:100E2800172FCF01CF0A4F080319402F0130D507DC
:100E38000030D63D0030D73D0030D83D581C402FFB
:100E48005508C9005608CA005708CB005808CC00F6
:100E58000130CD00CC37CB0CCA0CC90CCD0B2E2FD2
:100E68004C08D8004B08D7004A08D6004908D500D6
:100E78000130D9070030DA3D5A08803AC90080307D
:100E88004902031D492FFF305902031C552F7F309B
:100E98004001D8008030D7000030D6000030D5009F
:100EA8007F2F40015A08803AC90080304902031D4B
:100EB8005F2F0130590203186C2F00304001D80011
:100EC8000030D7000030D6000030D500CE017F2F8B
:100ED80040015908C9004908D400FF30D505FF3042
:100EE800D6057F30D7050030D8055418D7175436A3
:100EF800C9004908D8004E08C9004908D80458084C
:100F0800C4005708C3005608C2005508C1000800AD
:100F18004001AA004E011612B1316021873140010B
:100F2800A8002808AB002B0842016006031DEE2F1D
:100F380040012B03031DCD2F2708FF3EA800FF30DB
:100F480003180030A9002908803A803C031DAE2F01
:100F580028082A020318CD2F01304001A8002808CC
:100F6800AA07AC011830B1314B2187311A30400142
:100F7800A800F830890BBE2FA80BBE2F0000013047
:100F88004001A8002808AC070C302C020318EE2FEB
:100F9800B62F023040012B06031DEE2F2A08031935
:100FA800EE2F0130AA02AC011C30B1314B21873140
:100FB8001A304001A800F830890BE02FA80BE02F69
:100FC800000001304001A8002808AC070C302C02B2
:100FD800031CD82F40012B08A80028084201E00074
:0E0FE8004E01161640012A080800013401349B
:10100800643400340034003400344034143454342C
:1010180000344034143454344101CE014E08B90030
:10102800BA0139084001AD0041013A084001AE005B
:101038001F30AF000030B000B131CF21883174309B
:101048004101BB002730BC0040012D0841013B078E
:10105800CF0040012E0841013C3DD0004F088600DA
:10106800500887005E31043001060319C22B400185
:10107800AD01AD0A41014E08B6311E268831410145
:10108800C701C801C9011130B131EB2188314001D4
:1010980021084101BE00400120084101BD003E0871
:1010A8004001AD0041013D084001AC004101490843
:1010B8004001AF00410148084001AE000030B300D4
:1010C8000030B200B330B1003230B000A93107218E
:1010D800883140012D084101C90040012C08410117
:1010E800C8004708C70AB90032303902031C47282C
:1010F8004001AD0141014E08B6311E268831453008
:101108004001DE001F30DD00D830DC000030DB009D
:101118004030C400A030C3000030C2000030C1001D
:10112800410148084001B300410149084001B400A9
:10113800B501B6010030AD31682588314001360867
:10114800C8003508C7003408C6003308C500853113
:101158006025883140014408E2004308E100420864
:10116800E0004108DF009E312826883140015E08F2
:101178004101CD0040015D084101CC0040015C08FF
:101188004101CB0040015B084101CA004D08B00095
:101198004C08AF004B08AE004A08AD003D30B40023
:1011A8004C30B300CC30B200CD30B100AA31D222DD
:1011B80088310318F92841014F0886005008870034
:1011C8005E310103031DEC280130A831012088316C
:1011D80041014F081E3EB9000030503DBA003908A1
:1011E80086003A0887000230C12B40304101B00028
:1011F8000030AF000030AE000030AD004D08B40044
:101208004C08B3004B08B2004A08B100AA31D222F8
:101218008831031C122940010E1940290430A831D5
:101228000120883141014F081E3EB9000030503D71
:10123800BA00390886003A08870004308100400166
:101248000E19C22B41014F081E3EB9000030503D17
:10125800BA00390886003A08870003308100400147
:101268009A1107304101B9007D30890B3929B90B32
:10127800392940019A15C22B41014F0886005008B0
:1012880087004A08C03F4B08C13F4C08C23F4D0881
:10129800C33F4D084001C40041014C084001C30050
:1012A80041014B084001C20041014A084001C10008
:1012B8004A308600273087005131403FC500413F02
:1012C800C600423FC700433FC800853160258831CA
:1012D80041014F0886005008870044314001410809
:1012E800C03F4208C13F4308C23F4408C33F4101D1
:1012F8004F088600500887004431403FAD00413F09
:10130800AE00423FAF00433FB0004F088600500890
:1013180087005031403FB100413FB200423FB30027
:10132800433FB400AA31D22288310318B6294101BB
:101338004F088600500887004431403FB900413FBC
:10134800BA00423FBB00433FBC004F08860050082C
:10135800870050313908C03F3A08C13F3B08C23FB7
:101368003C08C33F7330860027308700811D022A5E
:1013780041014F088600500887005031403FAD00BA
:10138800413FAE00423FAF00433FB0000030B400E1
:101398000030B3000030B2000030B100AA31D222D0
:1013A80088310318E52941014F081D3EB900003076
:1013B800503DBA00390886003A088700013081009C
:1013C800232A00304101B0000030AF000030AE00E9
:1013D8000030AD004F088600500887005031403F6C
:1013E800B100413FB200423FB300433FB400AA31CD
:1013F800D22288310318232A41011D2A41014F08AE
:101408008600500887004431403FB900413FBA0088
:10141800423FBB00433FBC004F088600500887008E
:1014280050313908C03F3A08C13F3B08C23F3C0829
:10143800C33F4F088600500887005D318101410194
:101448004F088600500887005031403F4001A000F7
:10145800413FA100423FA200433FA3000030A70044
:101468000030A6000030A5000030A400B631652683
:101478008831031C472A41014F088600500887001D
:101488005E318101542A41014F081E3EB9000030E7
:10149800503DBA00390886003A08870001308100BB
:1014A8004F088600500887005D310103031D062B95
:1014B80042304001C400C830C3000030C2000030D0
:1014C800C10041014F088600500887004431403F61
:1014D8004001DB00413FDC00423FDD00433FDE00CE
:1014E80041014F088600500887004831403F4001BD
:1014F800DF00413FE000423FE100433FE2009E3110
:101508002826883140015E08C8005D08C7005C08CD
:10151800C6005B08C5008531602588314001440854
:101528004101B000400143084101AF0040014208B9
:101538004101AE00400141084101AD004230B40014
:10154800C830B3000030B2000030B100AA31D22256
:101558008831031CB82A42304101C200C830C1009A
:101568000030C0000030FD2A42304001C400C830BD
:10157800C3000030C2000030C10041014F0886009E
:10158800500887004431403F4001DB00413FDC0008
:10159800423FDD00433FDE0041014F08860050080E
:1015A80087004831403F4001DF00413FE000423FB3
:1015B800E100433FE2009E312826883140015E0861
:1015C800C8005D08C7005C08C6005B08C500853117
:1015D80060258831400144084101C20040014308A8
:1015E8004101C100400142084101C00040014108D9
:1015F8004101BF004208AB004108AA004008A90009
:101608003F08AF2B42304001C400C830C30000304F
:10161800C2000030C10041014F0886005008870011
:101628004431403F4001DB00413FDC00423FDD00E8
:10163800433FDE0041014F088600500887005031C3
:10164800403F4001DF00413FE000423FE100433FAF
:10165800E2009E312826883140015E08C8005D08F6
:10166800C7005C08C6005B08C50085316025883165
:10167800400144084101B000400143084101AF0066
:10168800400142084101AE00400141084101AD005E
:101698004230B400C830B3000030B2000030B100AE
:1016A800AA31D2228831031C622B42304101C60084
:1016B800C830C5000030C4000030A72B42304001BC
:1016C800C400C830C3000030C2000030C10041016E
:1016D8004F088600500887004431403F4001DB0036
:1016E800413FDC00423FDD00433FDE0041014F083F
:1016F8008600500887005031403F4001DF00413FDD
:10170800E000423FE100433FE2009E312826883155
:1017180040015E08C8005D08C7005C08C6005B0899
:10172800C500853160258831400144084101C60063
:10173800400143084101C500400142084101C4007D
:10174800400141084101C3004608AB004508AA0012
:101758004408A9004308A800A831A1208831410104
:101768002808B9004F08143EBA000030503DBB00AD
:101778003A0886003B08870039088100013041019A
:10178800B9003908CE0704304E02031808001228A1
:101798004401DF015F08553E860002308700810161
:1017A80081035F085B3E8600023087008101810368
:1017B8005F084101D300D4010930D5005508400124
:1017C800A90044015F08B1318E218B31A03E86000B
:1017D8000230870041015308C03F5408C13F44010B
:1017E8005F084101D300D40153084001AD00410115
:1017F80054084001AE001F30AF000030B000B131D6
:10180800CF218B3174304101D5002730D6004001FB
:101818002D0841015507860040012E084101563D1B
:101828008700403FD700413FD800423FD900433F9F
:10183800DA000930DB005B084001A90044015F08B9
:10184800B1318E218B31A23E8600023087004101E2
:101858005708C03F5808C13F5908C23F5A08C33FFC
:1018680044015F084101D300D40153084001AD0091
:10187800410154084001AE001F30AF000030B000F5
:10188800B131CF218B3188304101D5002730D600C6
:1018980040012D0841015507860040012E084101ED
:1018A800563D87000108D7000930D8005808400184
:1018B800A90044015F08B1318E218B31A63E860014
:1018C800023087004101570881000130D3005308D6
:1018D8004401DF0704305F02031CCE2B04304101B2
:1018E800BB000030BC000930BD000030BE009530A0
:1018F800BF003430C000A0309C316C248B310030E4
:101908004401D4000030D3000030D2000030D100B0
:101918005408D0005308CF005208CE005108CD001B
:101928005008CC004F08CB004E08CA004D08C9002B
:10193800DA01D901DF0109304101D3005308400120
:10194800A90044015F08B1318E218B31A23E860087
:1019580002308700403F4001DB00413FDC00423F4E
:10196800DD00433FDE0044014C084001E200440131
:101978004B084001E10044014A084001E0004401ED
:1019880049084001DF0093316C238B3140015E0828
:101998004401CC0040015D084401CB0040015C08D3
:1019A8004401CA0040015B084401C90040304101BC
:1019B800B0006030AF000030AE000030AD00440130
:1019C80050084001DE0044014F084001DD00440199
:1019D8004E084001DC0044014D084001DB0009309D
:1019E8004101D30053084001A90044015F08B13107
:1019F8008E218B31A23E860002308700403F400195
:101A0800DF00413FE000423FE100433FE200933105
:101A18006C238B3140015E084101B40040015D0830
:101A28004101B30040015C084101B20040015B087C
:101A38004101B100AA31D2228B31031C702D09302B
:101A48004101D30053084001A90044015F08B131A6
:101A58008E218B31A23E860002308700403F400134
:101A6800DB00413FDC00423FDD00433FDE00440134
:101A780050084001E20044014F084001E1004401E0
:101A88004E084001E00044014D084001DF00933159
:101A98006C238B3140015E084401D00040015D0891
:101AA8004401CF0040015C084401CE0040015B08BE
:101AB8004401CD005F084101D30044015908553E57
:101AC8008600023087004101530881000130D300AD
:101AD80053084401D907052E40304101B000603059
:101AE800AF000030AE000030AD00440154084001A2
:101AF800DE00440153084001DD0044015208400162
:101B0800DC00440151084001DB0009304101D300E9
:101B180053084001A90044015F08B1318E218B317F
:101B2800A23E860002308700403F4001DF00413F6F
:101B3800E000423FE100433FE20093316C238B31E8
:101B480040015E084101B40040015D084101B30055
:101B580040015C084101B20040015B084101B1004D
:101B6800AA31D2228B31031C052E09304101D30042
:101B780053084001A90044015F08B1318E218B311F
:101B8800A23E860002308700403F4001DB00413F13
:101B9800DC00423FDD00433FDE00440154084001C1
:101BA800E200440153084001E100440152084001A9
:101BB800E000440151084001DF0093316C238B3170
:101BC80040015E084401D40040015D084401D3008F
:101BD80040015C084401D20040015B084401D10087
:101BE8005F084101D30044015A085B3E8600023079
:101BF80087004101530881000130D3005308440194
:101C0800DA0701304101D30053084401DF070430EB
:101C18005F02031C9F2C59084101D300D4015308CB
:101C2800BB005408BC000130BD000030BE0060306D
:101C3800BF003430C00055309C316C248B314401D6
:101C48005A084101D300D4015308BB005408BC0012
:101C58000130BD000030BE002B30BF003430C00062
:101C68005B309C316C248B314401DF0159085F02E1
:101C78000318F42E5F085B3E860002308700811B44
:101C8800AC2E09304101D30053084001A90044019A
:101C98005F085B3E8600023087000108B1318E2163
:101CA8008B31A63E86000230870009304101D400FE
:101CB80054084001A90044015F08553E84000230E1
:101CC80085000008B1318E218B31A63E8400023098
:101CD8008500000801074101D500D601D60D560838
:101CE800803AD70080305702031D7C2E653055029C
:101CF800031CAC2E09304101D30053084001A90050
:101D080044015F08553E8600023087000108B13162
:101D18008E218B31A63E8600023087000108643C84
:101D28004101D4000930D50055084001A9004401FB
:101D38005F085B3E8600023087000108B1318E21C2
:101D48008B31A63E8600023087004101540881008D
:101D580009304101D30053084001A90044015F083C
:101D6800553E8600023087000108B1318E218B3143
:101D7800A73E860002308700810109304101D30067
:101D880053084001A90044015F08553E860002300F
:101D980087000108B1318E218B31A63E86000230C2
:101DA800870001084101D4000930D50055084001D9
:101DB800A90044015F08553E8600023087000108EB
:101DC800B1318E218B31A83E860002308700410157
:101DD800540881000130D30053084401DF073A2E2C
:101DE800DF015A085F020318452F09304101D3006B
:101DF80053084001A90044015F085B3E8600023099
:101E080087000108B1318E218B31A63E8600023051
:101E180087000108643C4101D4000930D500550809
:101E28004001A90044015F085B3E8600023087003C
:101E38000108B1318E218B31A73E86000230870020
:101E48004101540881006430D3000930D40054089B
:101E58004001A90044015F085B3E8600023087000C
:101E68000108B1318E218B31A83E860002308700EF
:101E78004101530881000130D30053084401DF07B2
:101E8800F52EDF0109304101D30053084001A900B4
:101E980044015F08B1318E218B31A03E86000230AB
:101EA8008700403F4001AD00413FAE001F30AF000A
:101EB8000030B000B131CF218B3180304101D400E6
:101EC8002730D50040012D08410154078600400104
:101ED8002E084101553D870042304001DE00C830E0
:101EE800DD000030DC000030DB001F30AF000030C8
:101EF800B00009304101D60056084001A90044014C
:101F08005F08B1318E218B31A03E840002308500FC
:101F1800003F4001AD00013FAE00B131CF218B3110
:101F280078304101D7002730D80040012D08410101
:101F38005707840040012E084101583D8500003FA5
:101F48004001C100013FC200023FC300033FC4007B
:101F580009304101D90059084001A90044015F082E
:101F6800B1318E218B31A63E8400023085000008F5
:101F78004101DA00DB01DC01DD015D084001B6004A
:101F880041015C084001B50041015B084001B40013
:101F980041015A084001B3000130AD3168258B3149
:101FA80040013608C8003508C7003408C6003308A1
:101FB800C500853160258B3140014408E2004308A3
:101FC800E1004208E0004108DF009E3128268B31FD
:101FD80040015B08C03F5C08C13F5D08C23F5E0826
:101FE800C33F01304101D30053084401DF070430E7
:081FF8005F0203180800462FE8
:10200A00420162087C06031918287C08203E8600D3
:10201A000230870001084001B600B7013608B9004E
:10202A003708BA001B284001B901BA013908B600BD
:10203A003608B8000230B1314B2190313D29AD014B
:10204A008C30AE00B830AF000030B33192239031FB
:10205A004001AD01AD0AC030AE00B830AF0000306B
:10206A00B331922390316C29AD01A630AE00B8305D
:10207A00AF000030B331922390314001AD01AD0A77
:10208A00E730AE00B830AF000030B3319223903160
:10209A006C29AD014F30AE00B930AF000030B3311A
:1020AA00922390314001AD01AD0A0E30AE00B93035
:1020BA00AF000030B331922390316C29AD018C30DE
:1020CA00AE00B830AF000030B331922390314001F6
:1020DA00AD01AD0A5C30AE00B930AF000030B331AB
:1020EA00922390316C29AD016930AE00B930AF004E
:1020FA000030B331922390314001AD01AD0A1B305B
:10210A00AE00B930AF000030B331922390316C2960
:10211A00AD016930AE00B930AF000030B33192235F
:10212A0090314001AD01AD0AF430AE00B830AF00D5
:10213A000030B331922390316C29AD019930AE0051
:10214A00B830AF000030B331922390314001AD0175
:10215A00AD0ADA30AE00B830AF000030B3319223A6
:10216A0090316C29AD019030AE00B930AF0000302B
:10217A00B331922390314001AD01AD0A0130AE0076
:10218A00B930AF000030B331922390316C29AD01E0
:10219A003530AE00B930AF000030B3319223903100
:1021AA004001AD01AD0A8330AE00B930AF00003056
:1021BA00B331922390316C29AD017630AE00B9303B
:1021CA00AF000030B331922390314001AD01AD0A26
:1021DA008330AE00B930AF000030B3319223903172
:1021EA006C29AD014F30AE00B930AF000030B331C9
:1021FA00922390314001AD01AD0A9D30AE00B93055
:10220A00AF000030B33192239031B1316B2190315C
:10221A00013A031D6C2940019A156C29AD0142301F
:10222A00AE00B930AF000030B33192239031400193
:10223A00AD01AD0AB330AE00B830AF000030B331F3
:10224A00922390316C29AD01CD30AE00B830AF0089
:10225A000030B331922390314001AD01AD0A2830EC
:10226A00AE00B930AF000030B331922390316C29FF
:10227A0040013808B600B7013708003A0319462961
:10228A0028293608013A03192428033A0319392858
:10229A00013A03194E28073A03196328013A031928
:1022AA007828033A03198D28013A0319A2280F3A0C
:1022BA000319B728013A0319CC28033A0319F62857
:1022CA00013A0319E128073A031913292829B131D8
:1022DA006B219031013A031D8A29420162087C066A
:1022EA0003198A290A304001A0000030A1007C08A5
:1022FA00013EA200003003180130A300B531D825F1
:10230A0040012008B6003608FC004101EC01EC0A45
:10231A0008007330860027308700010C4101C7008E
:10232A00C70C470C013942016F060319B5297330EE
:10233A00860027308700003081190130EF007330A2
:10234A00860027308700811DAC29E601B2290330B7
:10235A004101C70047084201E6004101EC01EC0ACD
:10236A0042016608B331C423913141016C08031953
:10237A00D3294001AD011230AE00B830AF000030B1
:10238A00B331922391314001AD01AD0AF530AE006F
:10239A00BA30AF003030B3319223913173308600B6
:1023AA0027308700011E312A4A30860027308700ED
:1023BA00403F4101B900413FBA00423FBB00433FA1
:1023CA00BC000530C7004708BD00BE01BE0AE430A4
:1023DA00A331AC2391314001AD01AD0AE430AE0026
:1023EA000130AF000030B331922391314001AD0189
:1023FA00AD0A2A30AE00BB30AF000530B3319223AC
:10240A0091314A308600273087004D31403F4101E3
:10241A00B900413FBA00423FBB00433FBC00033012
:10242A00C7004708BD00BE01E430A331AC23913197
:10243A004001AD01AD0AE430AE000130AF00083012
:10244A00B331922391314001AD01AD0A4830AE005B
:10245A00BB30AF000B305B2A4A308600273087003A
:10246A00403F4101B900413FBA00423FBB00433FF0
:10247A00BC000530C7004708BD00BE01BE0AE430F3
:10248A00A331AC2391314001AD01AD0AE430AE0075
:10249A000130AF000030B331922391314001AD01D8
:1024AA00AD0AD530AE00BA30AF000530B331922351
:1024BA0091314A308600273087004431403F41013C
:1024CA00B900413FBA00423FBB00433FBC00053060
:1024DA00C7004708BD00BE01BE0AE430A331AC23E1
:1024EA0091314001AD01AD0AE430AE000130AF00D8
:1024FA000C30B331922391314001AD01AD0A123053
:10250A00AE00BB30AF001130B331922391314A3063
:10251A008600273087004831403F4101B900413FDA
:10252A00BA00423FBB00433FBC000530C700470822
:10253A00BD00BE01BE0AE430A331AC239131400193
:10254A00AD01AD0AE430AE000130AF001830B3314E
:10255A00922391314001AD01AD0AD530AE00BA30B7
:10256A00AF001D30B331922391314A3086002730B3
:10257A0087005131403F4101B900413FBA00423F13
:10258A00BB00433FBC000430C7004708BD00BE0182
:10259A00BE0AE430A331AC2391314001AD01AD0A4A
:1025AA00E430AE000130AF002430B33192239131D0
:1025BA004001AD01AD0A2E30AE00BB30AF0028306D
:1025CA00B331922391314A3086002730870059313E
:1025DA00403F4101B900413FBA00423FBB00433F7F
:1025EA00BC000430C7004708BD00BE01BE0AE43083
:1025FA00A331AC2391314001AD01AD0AE430AE0004
:10260A000130AF002B30B331922391314001AD013B
:10261A00AD0A8E30AE00B930AF002F30B3319223FD
:10262A009131E4304001A9000130AA00AB01AB0AA4
:10263A0003304101C70047084001AC00B731A32766
:10264A0091314001AD01E430AE000130AF003830C5
:10265A00B331922391317330860027308700811D70
:10266A00692BE4304001A9000130AA004A308600F3
:10267A00273087004C3101084101C7004708400153
:10268A00AB0003304101C80048084001AC00B73133
:10269A00A32791314001AD01AD0AE430AE0001300B
:1026AA00AF003830B3319223913105304101C70070
:1026BA0047084001A7004201660887318C2741017B
:1026CA00C80048084201E6004201660808004001C5
:1026DA005E088039E3006308EB005E35E3006308B7
:1026EA00ED00DD1B6D146D080319892B6D0A031D9E
:1026FA00862B0030DE000030DD000030DC000030C8
:10270A00DB00DD17DE01912B0030DE000030DD003A
:10271A000030DC000030DB0062088039E300630827
:10272A00EC006C086B06031D6B176235E300630847
:10273A00EC00E11B6C146C080319B12B6C0A031D25
:10274A00AE2B0030E2000030E1000030E000003043
:10275A00DF00E117E201B92B0030E2000030E100AE
:10276A000030E0000030DF006D086C020318FF2B18
:10277A006B1FC32B8030E3006308EB066D08E30090
:10278A006308EE006C08E3006308ED006E08E300DE
:10279A006308EC005B08E3006308EE005F08E300EF
:1027AA006308DB006E08E3006308DF005C08E300EF
:1027BA006308EE006008E3006308DC006E08E300CB
:1027CA006308E0005D08E3006308EE006108E300C7
:1027DA006308DD006E08E3006308E1005E08E300B9
:1027EA006308EE006208E3006308DE006E08E30097
:1027FA006308E200EE016C08E300E4016408E60005
:10280A006D086302E500031CE6036608803AE700E8
:10281A0080306702031D132C1A306502031C472CF3
:10282A0040015E085D045C045B0403191E2C013040
:10283A001F2C0030E3006308EE000030DE00003099
:10284A00DD000030DC000030DB006C08E3006308C8
:10285A00ED004C2C6E1C372C6E360138E3006308F1
:10286A00EE00392C0310EE0C5B18EE170130E30072
:10287A00DE37DD0CDC0CDB0CE30B3D2C0130E30016
:10288A006308ED0740016C086D02031C2F2C6B1BBB
:10289A007D2C6D08031D5A2C0030DE000030DD004F
:1028AA000030DC000030DB0008005F08DB0760084E
:1028BA00DC3D6108DD3D6208DE3D5E1CF72C6E1CC6
:1028CA006C2C6E360138E3006308EE006E2C0310A0
:1028DA00EE0C5B18EE170130E300DE37DD0CDC0C82
:1028EA00DB0CE30B722C0130E3006308ED07F72CD5
:1028FA005E08803AE3006208803A6302031D8F2C67
:10290A0061085D02031D8F2C60085C02031D8F2C79
:10291A005F085B020318C72CFF30E300FF30E400B6
:10292A00FF30E500FF30E6005B085F02E7005C0865
:10293A00603BE8005D08613BE9005E08623BEA0033
:10294A006708E3076808E43D6908E53D6A08E63D6B
:10295A006608DE006508DD006408DC006308DB0049
:10296A008030E3006308EB06EE09EE0A6E08031DE9
:10297A00CF2C0130DB070030DC3D0030DD3D00307C
:10298A00DE3DCF2C5F08DB026008DC3B6108DD3BE3
:10299A006208DE3B5E085D045C045B04031DF52CE3
:1029AA006E08031DF52C0030DE000030DD0000301B
:1029BA00DC000030DB0008000130DB35DC0DDD0D0A
:1029CA00DE0D890BE22CEE1B5B146E1CEE2C03143D
:1029DA00EF2C0310EE0D6D080319F52C0130ED02F2
:1029EA00DD1FE12CEC01EE1F022D6E087F39031961
:1029FA005B18002D022DEC01EC0A6C0803192E2D30
:102A0A000130DB070030DC3D0030DD3D0030DE3DCB
:102A1A005E1C2E2D5B08E3005C08E4005D08E500FF
:102A2A005E08E6000130E700E637E50CE40CE30C4B
:102A3A00E70B192D6608DE006508DD006408DC0076
:102A4A006308DB006D0A03192E2D0130E3006308C9
:102A5A00ED076D0A031D6D08031D3E2D0030DE00D3
:102A6A000030DD000030DC000030DB006D080319A7
:102A7A00EB016D1C422DDD17462D7F30E300630804
:102A8A00DD056D36E3006308DE00EB1F0800DE1784
:102A9A00080042016508B331C423953141016C082D
:102AAA000319162ED101043051020318162E4001C3
:102ABA00AD013230AE00BB30AF000C304101C7006F
:102ACA0047084001A90041015108B1318E219531D1
:102ADA00B33192239531E4304001A9000130AA00B4
:102AEA0041015108013EC70047084001AB00AC0153
:102AFA00AC0AB731A32795314001AD01E430AE00ED
:102B0A000130AF000C304101C70047084001A9005D
:102B1A0041015108B1318E219531033EB3319223DF
:102B2A0095314001AD013F30AE00BB30AF000C30F3
:102B3A004101C70047084001A90041015108B131CC
:102B4A008E219531043EB3319223953141015108CA
:102B5A00C700C80147084001AD00410148084001CB
:102B6A00AE001F30AF000030B000B131CF21953137
:102B7A0089304101C9002730CA0040012D084101AE
:102B8A004907860040012E0841014A3D8700403F1F
:102B9A00CD00413FCE00423FCF00433FD000500816
:102BAA00BC004F08BB004E08BA004D08B9000430FB
:102BBA00C7004708BD00BE01BE0AE430A331AC23FA
:102BCA0095314001AD01E430AE000130AF000C3068
:102BDA004101C70047084001A90041015108B1312C
:102BEA008E219531063EB331922395314001AD01D4
:102BFA003C30AE00BB30AF000C304101C700470883
:102C0A004001A90041015108B1318E2195310A3E96
:102C1A00B3319223953101304101C7004708D107EA
:102C2A00582DD101043051020318EA2FA82F400170
:102C3A00AD01AD0A4630AE00BA30AF000C304101EA
:102C4A00C70047084001A90041015108B1318E214E
:102C5A009531B33192239531E42F4001AD01AD0A8C
:102C6A00EB30AE00B930AF000C304101C700470865
:102C7A004001A90041015108B1318E219531B3318A
:102C8A0092239531E42F5108C700C8014708400133
:102C9A00AD00410148084001AE001F30AF000030CE
:102CAA00B000B131CF21953180304101C9002730C0
:102CBA00CA0040012D0841014907860040012E083B
:102CCA0041014A3D8700403FCD00413FCE00423F8F
:102CDA00CF00433FD0005008BC004F08BB004E084D
:102CEA00BA004D08B9000430C7004708BD00BE014C
:102CFA00BE0AE430A331AC2395314001AD01AD0ADF
:102D0A00E430AE000130AF000C304101C700470883
:102D1A004001A90041015108B1318E219531B331E9
:102D2A009223953141015108C700C8014708400163
:102D3A00AD00410148084001AE001F30AF0000302D
:102D4A00B000B131CF21953191304101C90027300E
:102D5A00CA0040012D0841014907860040012E089A
:102D6A0041014A3D87000103031D392F4001AD018E
:102D7A00AD0A4230AE00BB30AF000C304101C70093
:102D8A0047084001A90041015108B1318E2195310E
:102D9A00043EB3319223953141015108C700C8015D
:102DAA0047084001AD00410148084001AE001F300C
:102DBA00AF000030B000B131CF2195317C304101F4
:102DCA00C9002730CA0040012D0841014907860081
:102DDA0040012E0841014A3D8700403FCD00413F56
:102DEA00CE00423FCF00433FD0005008BC004F08FE
:102DFA00BB004E08BA004D08B9000430C7004708A6
:102E0A00BD00BE01BE0AE430A331AC2395314001B6
:102E1A00AD01AD0AE430AE000130AF000C30410123
:102E2A00C70047084001A90041015108B1318E216C
:102E3A009531063EB331922395314001AD01AD0A79
:102E4A004530AE00BB30AF000C304101C700470827
:102E5A004001A90041015108B1318E2195310A3E44
:102E6A00B33192239531E42F4001AD01AD0ABC3054
:102E7A00AE00BA30AF000C304101C700470840012C
:102E8A00A90041015108B1318E219531043EB33177
:102E9A0092239531E42F4001AD01AD0A6030AE00B6
:102EAA00BA30AF000C304101C70047084001A90001
:102EBA0041015108B1318E219531B33192239531B7
:102ECA00E42F4001AD01AD0ADE30AE00B930AF00EB
:102EDA000C304101C70047084001A90041015108CF
:102EEA00B1318E219531B33192239531E42F4001CE
:102EFA00AD01AD0A5330AE00BA30AF000C3041011B
:102F0A00C70047084001A90041015108B1318E218B
:102F1A009531B33192239531E42F4001AD01AD0AC9
:102F2A007A30AE00BA30AF000C304101C700470812
:102F3A004001A90041015108B1318E219531B331C7
:102F4A0092239531E42F5108C700C8014708400170
:102F5A00AD00410148084001AE001F30AF0000300B
:102F6A00B000B131CF21953192304101C9002730EB
:102F7A00CA0040012D0841014907860040012E0878
:102F8A0041014A3D87000108CB00CC014C08003AB8
:102F9A000319D02F922F4B08003A0319322E013A07
:102FAA000319482E033A0319502F013A0319662FC1
:102FBA00073A03197C2F013A03191C2E922F01306C
:102FCA004101C7004708D107172E0430C700470838
:102FDA004001A7004201650887318C274101C800DA
:102FEA0048084201E50065084101C7004708EB00AF
:102FFA004201650808004001A000200842019A0029
:10300A0000004E010F1A080006284A3086002730B1
:10301A0087000030C03F0030C13F0030C23F00305F
:10302A00C33F4A3086002730870044310030C03F12
:10303A000030C13F0030C23F0030C33F4A308600F3
:10304A002730870048310030C03F0030C13F003090
:10305A00C23F0030C33F4A308600273087004C31D8
:10306A0081014A308600273087004D310030C03F49
:10307A000030C13F0030C23F0030C33F4A308600B3
:10308A002730870051310030C03F0030C13F003047
:10309A00C23F0030C33F4A3086002730870055318F
:1030AA000030C03F0030C13F0030C23F0030C33F54
:1030BA004A3086002730870059310030C03F00303F
:1030CA00C13F0030C23F0030C33F4A30860027303C
:1030DA0087005D310030C03F0030C13F4030C23F01
:1030EA004030C33F6B308600273087000030C03F36
:1030FA000030C13F2030C23FC230C33F6F3086002C
:10310A00273087000030C03F0030C13F8030C23FC7
:10311A003F30C33F4001B7013708B300B401330859
:10312A00AD003408AE001F30AF000030B000B1313E
:10313A00CF21983174304001B5002730B6002D08F0
:10314A003507B8002E08363DB90038088600390818
:10315A00870055310030C03F0030C13F8030C23F48
:10316A004030C33F38081E3EB3000030393DB4003A
:10317A0033088600340887000530810038081D3E70
:10318A00B3000030393DB4003308860034088700A4
:10319A000130810038088600390887004431003040
:1031AA00C03F0030C13F0030C23F0030C33F380843
:1031BA0086003908870050310030C03F0030C13FD7
:1031CA008030C23FBF30C33F3808860039088700C5
:1031DA0048310030C03F0030C13F0030C23F0030AC
:1031EA00C33F38088600390887004C310030C03F99
:1031FA000030C13F0030C23F0030C33F380886006C
:10320A00390887000030C03F0030C13F0030C23F5C
:10321A000030C33F0130B3003308B7070430370228
:10322A0003180800912841016B08C700C801470824
:10323A004001AD00410148084001AE001F30AF0017
:10324A000030B000B131CF21993174304101C90049
:10325A002730CA0040012D0841014907CB0040012F
:10326A002E0841014A3DCC0042016408B331C4230F
:10327A00993141014B0886004C0887005E310103F1
:10328A0003194F294B0886004C0887005E31010854
:10329A00031D1A2A4001AD018730AE00BA30AF00D3
:1032AA000030B3319223993141014B0886004C0812
:1032BA0087005031403F4001A000413FA100423FFA
:1032CA00A200433FA3000030A7000030A600003050
:1032DA00A5000030A400B63165269931031CA32944
:1032EA004001AD01AD0A2130AE00BB30AF00003065
:1032FA00B33192239931E4304001A9000130AA0088
:10330A0041016B08013EC70047084001AB00AC0110
:10331A00AC0AB731A32799314001AD01AD0AE430B7
:10332A00AE000130AF000430B3319223993140012D
:10333A00AD01AD0ADD30AE00BA30EB2941014B08D0
:10334A0086004C0887005031403FAD00413FAE0037
:10335A00423FAF00433FB0000030B4000030B3003A
:10336A000030B2000030B100AA31D22299310318DC
:10337A00EE294001AD01AD0A2130AE00BB30AF00ED
:10338A000030B33192239931E4304001A900013071
:10339A00AA0041016B08013EC70047084001AB0083
:1033AA00AC01AC0AB731A32799314001AD01AD0A8E
:1033BA00E430AE000130AF000430B33192239931CA
:1033CA004001AD01AD0AED30AE00BA30AF000530B4
:1033DA00722A41014B0886004C0887005031403F51
:1033EA00B900413FBA00423FBB00433FBC00043032
:1033FA00C7004708BD00BE01BE0AE430A331AC23B2
:10340A0099314001AD01AD0AE430AE000130AF00A0
:10341A000030B331922399314001AD01AD0ABC307D
:10342A00AE00BA30AF000430722A4B0886004C084E
:10343A0087005E3102300106031D342A4001AD01C6
:10344A00AA30AE00B930AF000030B33192239931BF
:10345A004001AD01AD0A1230AE00BA30702A4B08F5
:10346A0086004C0887005E3105300106031D4E2A8E
:10347A004001AD01C430AE00B930AF000030B33105
:10348A00922399314001AD01AD0AF830AE00B9304E
:10349A00702A4B0886004C0887005E31043001060A
:1034AA000319602A4B0886004C0887005E310330F6
:1034BA000106031D752A4001AD01B730AE00B930CF
:1034CA00AF000030B331922399314001AD01AD0A0A
:1034DA00D130AE00B930AF000030B3319223993108
:1034EA004001AD012C30AE00BA30AF000C30B33120
:1034FA009223993141014B0886004C0887005531C7
:10350A00403FB900413FBA00423FBB00433FBC00C5
:10351A000430C7004708BD00BE01BE0AE430A3312B
:10352A00AC2399314001AD01AD0AE430AE0001305F
:10353A00AF000C30B331922399314001AD01AD0A8D
:10354A00E530AE00BA30AF001130B3319223993171
:10355A0002304101C70047084001A7004201640840
:10356A0087318C274101C80048084201E4006408F9
:10357A0008000630B131EB219A314001210841019E
:10358A00B200400120084101B10032084001AD00FB
:10359A00410131084001AC0042015D084001AF0021
:1035AA0042015C084001AE000030B3000030B200B6
:1035BA007F30B100FF30B000A93107219A314001B4
:1035CA002D084201DD0040012C084201DC001030C8
:1035DA00B131EB219A31400121084101B200400189
:1035EA0020084101B10032084001AD004101310813
:1035FA004001AC00430163084001AF004301620887
:10360A004001AE000030B3000030B200CC30B1004F
:10361A00CC30B000A93107219A3140012D0843016D
:10362A00E30040012C084301E2001130B131EB21E3
:10363A009A31400121084101B200400120084101AC
:10364A00B10032084001AD00410131084001AC002F
:10365A00430161084001AF00430160084001AE0028
:10366A000030B3000030B2004C30B100CC30B000B2
:10367A00A93107219A3140012D084301E100400197
:10368A002C084301E000C2304001DE000A30DD00B0
:10369A000C30DC004A30DB003D30C400F330C3009C
:1036AA00EA30C200B330C10042015C084001B300F5
:1036BA0042015D084001B400B501B6010030AD31E8
:1036CA0068259A3140013608C8003508C700340811
:1036DA00C6003308C500853160259A314001440887
:1036EA00E2004308E1004208E0004108DF009331AC
:1036FA006C239A314A308600273087004D314001C9
:10370A005B08C03F5C08C13F5D08C23F5E08C33F1B
:10371A004030C400A030C3000030C2000030C100F5
:10372A00430162084001B300430163084001B40049
:10373A00B501B6010030AD3168259A31400136082D
:10374A00C8003508C7003408C6003308C5008531EB
:10375A0060259A31400144084101B0004001430804
:10376A004101AF00400142084101AE004001410859
:10377A004101AD0047304001DE003B30DD00D13071
:10378A00DC000030DB004330C4004530C3000030A9
:10379A00C2000030C100410130084001C8004101A7
:1037AA002F084001C70041012E084001C60041010F
:1037BA002D084001C500853160259A314001440831
:1037CA00E2004308E1004208E0004108DF009E31C0
:1037DA0028269A314A308600273087005131400125
:1037EA005B08C03F5C08C13F5D08C23F5E08C33F3B
:1037FA004530DE001F30DD00D830DC000030DB0051
:10380A004030C400A030C3000030C2000030C10004
:10381A00430160084001B300430161084001B4005C
:10382A00B501B6010030AD3168259A31400136083C
:10383A00C8003508C7003408C6003308C5008531FA
:10384A0060259A3140014408E2004308E100420839
:10385A00E0004108DF009E3128269A314A3086006E
:10386A0027308700553140015B08C03F5C08C13FE3
:10387A005D08C23F5E08C33F4A3086002730870092
:10388A005531403FC100413FC200423FC300433F60
:10389A00C4004A308600273087005131403FC500B6
:1038AA00413FC600423FC700433FC80085316025FB
:1038BA004A30860027308700593140014108C03F0D
:1038CA004208C13F4308C23F4408C33F08004101C0
:1038DA00C6004608C1004108C80000303E023C301C
:1038EA0003193D02031808002030C1004108C7002F
:1038FA003D084707C1004108860001308700810161
:10390A00CD01CE014301A001A10141013B08FF3EC7
:10391A004301A200FF3041013C3D4301A3004101A4
:10392A004D08C1000130C135FF3E031D982C4135B9
:10393A00A03E860001308700403FC900413FCA00CF
:10394A004D08C1000130C135FF3E031DA82C413589
:10395A00023EA03E860001308700403FCB00413F37
:10396A00CC00FF30CD07FF30CE3D41014A08D000E0
:10397A004908CF004C08D2004B08D1003D08C100CD
:10398A0041084001A900410151084F074001A20026
:10399A0041015208503D4001A3000230A00000300E
:1039AA00A100B631F7269C3140012008B1318E21A1
:1039BA009C3141014807C20042084001AD00410163
:1039CA003E084001AF0041013D084001AE004101FF
:1039DA004708B231D6229C3141013D08C100410855
:1039EA004001A90041014F08B1318E219C314101AA
:1039FA004807C20042084001EF006F084101B300C6
:103A0A000230B4004708B5000130B60040088A0009
:103A1A003F080A009D314101B41F1C2D0130CF0718
:103A2A000030D03DF12CFF30D107FF30D23D3D08A8
:103A3A00C10041084001A90041015108B1318E215C
:103A4A009C3141014807C20042084001EF00410190
:103A5A004708B3000130B40040016F084101B500C6
:103A6A000230B60040088A003F080A009D31410131
:103A7A00B41B182D5208803AC1005008803A4102FE
:103A8A00031D492D4F085102031C812D41013E0897
:103A9A004001AE0041013D084001AD0041013D0831
:103AAA00C10041084001A90041014F08B1318E21EE
:103ABA009C3141014807C20042084001AF00410160
:103ACA003D08C30043084001A90041015108B13132
:103ADA008E219C3141014807C40044084001B000CE
:103AEA00B33102239C3101304101CF070030D03D70
:103AFA00FF30D107FF30D23D41015208803AC10060
:103B0A005008803A4102031D8C2D4F0851020318B8
:103B1A00F12C41014F084B02C10050084C3BC20036
:103B2A0049085102C3004A08523BC4004408803A7B
:103B3A00C5004208803A4502031DA52D41084302EB
:103B4A000318E02D41015008803AC1004C08803A20
:103B5A004102031DB22D4B084F020318DA2D013022
:103B6A004101CD070030CE3D4D08C1000130C135BD
:103B7A00FF3E031DBC2D4135A03E86000130870063
:103B8A004F08C03F5008C13F4D08C1000130C13540
:103B9A00FF3E031DCC2D4135023EA03E860001307A
:103BAA0087004B08C03F4C08C13F41015208CC0076
:103BBA005108CB00182E41014A08803AC100520828
:103BCA00803A4102031DEB2D510849020318132EB6
:103BDA0001304101CD070030CE3D4D08C100013012
:103BEA00C135FF3E031DF52D4135A03E860001304B
:103BFA0087004908C03F4A08C13F4D08C10001304B
:103C0A00C135FF3E031D052E4135023EA03E86000A
:103C1A00013087005108C03F5208C13F4101500896
:103C2A00CA004F08C9004A08803AC1004C08803AC5
:103C3A004102031D222E4B084902031CBA2C4101E2
:103C4A00CE1B0800942C400162088039E300630807
:103C5A004101A40040016235E30063084101AB0061
:103C6A004001E11F3A2E41012B1441012B0803198F
:103C7A004E2E2B0A031D4A2E00304001E20000306E
:103C8A00E1000030E0000030DF004001E117E2010E
:103C9A00572E00304001E2000030E1000030E00021
:103CAA000030DF005E088039E30063084101A406A2
:103CBA0040015E35E30063084101AC004001DD1FAD
:103CCA00682E41012C1441012C0803197C2E2C0A60
:103CDA00031D782E00304001DE000030DD00003088
:103CEA00DC000030DB004001DD17DE01852E0030EC
:103CFA004001DE000030DD000030DC000030DB0077
:103D0A005E085D045C045B04031DA62E0030E2001D
:103D1A000030E1000030E0000030DF008030E104D4
:103D2A007F30E204410124084001E3006308E20411
:103D3A006208DE006108DD006008DC005F08DB0065
:103D4A00080041012B08031DB42E00304001DE009B
:103D5A000030DD000030DC000030DB0008002B08FA
:103D6A004001E300E4016408E60041012C08400137
:103D7A006302E500031CE60365087F3E4101A500D6
:103D8A0000304001663D4101A60040016208410140
:103D9A00A300400161084101A200400160084101FD
:103DAA00A10040015F084101A00000304001E2008B
:103DBA000030E1000030E0000030DF000030410157
:103DCA00AA000030A9000030A8000030A700AC010A
:103DDA001A302C020318402F2C080319102F013017
:103DEA00A035A10DA20DA30D890BF52E01304001BE
:103DFA00DF35E00DE10DE20D890BFC2E4101AA1F12
:103E0A00082F40015F1401304101A735A80DA90D03
:103E1A00AA0D890B092F40015E0841012302031DE7
:103E2A00262F40015D0841012202031D262F400171
:103E3A005C0841012102031D262F40015B08410154
:103E4A002002031C392F2A1740015B084101A002F6
:103E5A0040015C084101A13B40015D084101A23BD0
:103E6A0040015E084101A33B01304001E3006308C1
:103E7A004101AC07ED2E2308220421042004031D6E
:103E8A0027144001E11B622F0130DF35E00DE10DFF
:103E9A00E20D890B4A2F4101AA1F552F40015F14D9
:103EAA0001304101A735A80DA90DAA0D890B562F7E
:103EBA00FF30A507FF30A63D462F4101AC01AA1FDE
:103ECA00842FFF3027054001E300FF304101280518
:103EDA004001E400FF30410129054001E5007F303F
:103EEA0041012A054001E60066086504640463048A
:103EFA0003195F18812F842F4101AC01AC0A4101DB
:103F0A002C080319B02F01304001DF070030E03DD3
:103F1A000030E13D0030E23D621CB02F5F08E30053
:103F2A006008E4006108E5006208E6000130E70085
:103F3A00E637E50CE40CE30CE70B9D2F6608E2007C
:103F4A006508E1006408E0006308DF000130410110
:103F5A00A5070030A63D41012608803A4001E3004A
:103F6A0080306302031DBC2FFF3041012502031C70
:103F7A00CC2FFF304101A5000030A60000304001DF
:103F8A00E2000030E1000030E0000030DF004101D3
:103F9A002608803A4001E30080306302031DD82FCF
:103FAA000130410125020318E82F4101A501A601AC
:103FBA0000304001E2000030E1000030E000003053
:103FCA00DF004101A401410125084001E300630823
:103FDA004101AB002B1CF42F4001E117F92F7F3070
:103FEA004001E3006308E10541012B364001E3008B
:103FFA006308E200972E0830B1314B21A03113300B
:10400A00B1314B21080042015E0803191728440107
:10401A003908AD003808AC003708AB003608AA00EA
:10402A004201DE0144012D084001A30044012C088D
:10403A004001A20044012B084001A10044012A08C2
:10404A004001A000B7314927A03140012308B90037
:10405A002208B8002108B7002008B600BA010930C2
:10406A00B1003108A9003A08B1318E21A031A83E29
:10407A0086000230870001084001B200B301B40192
:10408A00B50135083902031D542834083802031DC6
:10409A00542833083702031D542832083602031CF9
:1040AA005828AD019E280930B1003108A9003A0804
:1040BA00B1318E21A031A73E860002308700010867
:1040CA004001B200B301B401B50135083902031D3C
:1040DA00782834083802031D782833083702031D6C
:1040EA00782832083602031CAE280930B10031089C
:1040FA00A9003A08B1318E21A031A83E86000230CB
:10410A00870001084001B200B301B401B5013508C6
:10411A003902031D9A2834083802031D9A283308E5
:10412A003702031D9A28320836020318AE28AD0159
:10413A00AD0A0930B1003108A9003A08B1318E211F
:10414A00A031A03E8600023087000108B6311E2643
:10415A00A03101304001B1003108BA0704303A02F7
:10416A00031C34283908031DC4283808031DC42831
:10417A003708031DC42864303602031CC7284201CD
:10418A00DE01DE0A42015E0808004001B900BA01F8
:10419A003A08B600B7013608AD003708AE00063057
:1041AA00AF000030B000B131CF21A03140012E085C
:1041BA0085002D08840000308407B030853D000852
:1041CA003906031D88293A08B600B7013608AD003A
:1041DA003708AE000630AF000030B000B131CF2151
:1041EA00A03140012E0885002D0884000130840783
:1041FA00B030853D0008330603191E293A08B60077
:10420A00B7013608AD003708AE000630AF000030FF
:10421A00B000B131CF21A03140012E0885002D0810
:10422A00840001308407B030853D1200FF3A031D37
:10423A0088293508031939293A08B600B70136081A
:10424A00AD003708AE000630AF000030B000B13123
:10425A00CF2140012E0885002D08840004308407F0
:10426A00B030853D000808003403031D54293A087C
:10427A00B600B7013608AD003708AE000630AF0009
:10428A000030B000B131CF2140012E0885002D0841
:10429A00840002308407B030853D000808000230EF
:1042AA003406031D70293A08B600B7013608AD0076
:1042BA003708AE000630AF000030B000B131CF2170
:1042CA0040012E0885002D08840003308407B03091
:1042DA00853D000808003A08B600B7013608AD0067
:1042EA003708AE000630AF000030B000B131CF2140
:1042FA0040012E0885002D08840005308407B0305F
:10430A00853D000808000130B6003608BA071230A9
:10431A003A02031CCD28FF30080000304501DB00BB
:10432A000030DA000030D9000030D800DD01DD0AA3
:10433A00DC01DE01B631AE26A13140019916AC315D
:10434A005024A131B231AF22A1310230B1314B2117
:10435A00A1310130B1314B21A13198310A20A1316B
:10436A0040019A158C1FBC29AB314E23A131640040
:10437A009A31BE22A13145015B084001A3004501E3
:10438A005A084001A200450159084001A10045010F
:10439A0058084001A000B7314927A131400123083C
:1043AA00031DE1292208031DE1292108031DE12932
:1043BA0006302002031CF429440139084501DB00B8
:1043CA00440138084501DA00440137084501D9009B
:1043DA00440136084501D800A5311325A131A2317F
:1043EA008C22A131003A0319002A8031D420A1314C
:1043FA004501DC01DC0A45015D080319102A5C0845
:10440A000319182A88311020A1318B31CC23A1310C
:10441A004501DD01182AA0310820A1314101EA0035
:10442A006A084501DD00B131B721A131003A03190B
:10443A002B2A44013908B5003808B4003708B300FC
:10444A003608B20090310520A131322A45015E08B2
:10445A00031D322AAC31DB24A13145015E08031960
:10446A005A2A440135084001A30044013408400196
:10447A00A200440133084001A1004401320840016E
:10448A00A000B7314927A13140012308031D5A2A48
:10449A002208031D5A2AB03020020430213B031897
:1044AA005A2A4501DE010C307E2A440135084001B2
:1044BA00A300440134084001A2004401330840012A
:1044CA00A100440132084001A000B7314927A131B7
:1044DA0040012308031D7A2A2208031D7A2AB130D3
:1044EA0020020430213B031C812A4501DE01DE0A39
:1044FA000830B1314B21A13134304101EA00F130A9
:10450A00890B852AEA0B852A00320000BC294A3029
:10451A008600273087004D31403F4101AD00413FC1
:10452A00AE00423FAF00433FB000C130B400F030AC
:10453A00B3000030B2000030B100AA31D222A23159
:10454A00031CC22A42304101B0007030AF00003073
:10455A00AE000030AD004A308600273087004D316A
:10456A00403FB100413FB200423FB300433FB40075
:10457A00AA31D222A2310318C82A73308600273002
:10458A0087000112982B73308600273087000116A6
:10459A00982B440163084001A300440162084001CA
:1045AA00A200440161084001A100440160084001E1
:1045BA00A000B7314927A23140012308031DEF2A81
:1045CA002208031DEF2A2108031DEF2A6430200266
:1045DA00031CAA2B44013908B1003808B000370877
:1045EA00AF003608AE003108E3003008E2002F08B9
:1045FA00E1002E08E0003F3098310020A23142014C
:10460A00DF01DF0AAA2B440131084001A30044015B
:10461A0030084001A20044012F084001A1004401D2
:10462A002E084001A000B7314927A23140012308D2
:10463A00031D292B2208031D292B2108031D292BC1
:10464A0015302002031C3E2B73308600273087006A
:10465A00811D382B7330860027308700811107307F
:10466A00A8310120A2314201DF01B1314321A23137
:10467A00AA2B42016D080319AA2BED01AA304401A5
:10468A003A06031D832B3C03031D832B4A30860005
:10469A00273087003D08C03F3E08C13F3F08C23F60
:1046AA004008C33F4A30860027308700443141081A
:1046BA00C03F4208C13F4308C23F4408C33F4A3093
:1046CA0086002730870048314508C03F4608C13F69
:1046DA004708C23F4808C33F3B084101B90056306A
:1046EA00860027308700390881007330860027301A
:1046FA00870081154201DF0101300800733086000E
:10470A0027308700811D922B73308600273087005F
:10471A0081110830A8310120A231B1314321A231DF
:10472A004201DF01AA2B42015F084101B900BA0127
:10473A003A08003A0319A22B952B3908003A0319B3
:10474A00CE2A013A0319082B952B003008004101A3
:10475A00C600C101C10AC501C2013C08B0003B083C
:10476A00AF003A08AE003908AD000030B40000309E
:10477A00B3000030B2000030B100AA31D222A33116
:10478A000318F72BBF304001C4008030C30000304B
:10479A00C2000030C10041013C084001C80041018B
:1047AA003B084001C70041013A084001C6004101E7
:1047BA0039084001C50085316025A331400144080C
:1047CA004101BC00400143084101BB0040014208CD
:1047DA004101BA00400141084101B900C201C20ABF
:1047EA000130BD0241013C08B0003B08AF003A0865
:1047FA00AE003908AD004130B4002030B3000030BB
:10480A00B2000030B100AA31D222A331031C3E2CDF
:10481A0041304001DE002030DD000030DC00003095
:10482A00DB0041013C084001E20041013B08400134
:10483A00E10041013A084001E00041013908400124
:10484A00DF009E312826A33140015E084101BC00E9
:10485A0040015D084101BB0040015C084101BA000A
:10486A0040015B084101B9000130BF003F08C107A0
:10487A00F72B410141083E07BF003F08C4003E082C
:10488A00031D4B2C0130BF003F08BD070130BD029C
:10489A003D0844020318612C2030BF004508460732
:1048AA00C00040088600013087003F0881000130BF
:1048BA00BF003F08C5074B2C42080319732C2D3043
:1048CA00BF0045084607C00040088600013087003F
:1048DA003F0881000130BF003F08C5070130C4020C
:1048EA00440A03190A2D3C08AB003B08AA003A08FF
:1048FA00A9003908A800A831A120A331410128083C
:10490A00BF003F08C3000A304001AF000030B000CA
:10491A0041014308BF00C0013F084001AD00410109
:10492A0040084001AE00B131CF21A33140012D082A
:10493A00B3002E08B400890D893B8909B500B60079
:10494A000130AD316825A331400136084101A30089
:10495A00400135084101A200400134084101A1008B
:10496A00400133084101A00041304001C400203019
:10497A00C3000030C2000030C10041013C084001C0
:10498A00C80041013B084001C70041013A08400103
:10499A00C600410139084001C50085316025A331AF
:1049AA00400144084101A700400143084101A60013
:1049BA00400142084101A500400141084101A4000B
:1049CA00B331F623A33141012308BC002208BB00FE
:1049DA002108BA002008B9004308303EBF00450844
:1049EA004607C00040088600013087003F08810062
:1049FA000130BF003F08C50744080319732C440857
:104A0A003E06031D732C2E30652C45084607BF0051
:104A1A003F088600013087008101080040304101CB
:104A2A00B0006030AF000030AE000030AD004A3058
:104A3A008600273087005531403FB100413FB20020
:104A4A00423FB300433FB400AA31D222A531031832
:104A5A00AF2D4001AD01FF30B6311E26A531400110
:104A6A009A1140304101B0006030AF000030AE0012
:104A7A000030AD0045304001DE001F30DD00D83087
:104A8A00DC000030DB004030C400A030C30000303E
:104A9A00C2000030C1001130B131EB21A531400113
:104AAA0020084101B900400121084101BA00BB01B7
:104ABA00BC013C084001B60041013B084001B50079
:104ACA0041013A084001B400410139084001B300EC
:104ADA000030AD316825A53140013608C8003508D7
:104AEA00C7003408C6003308C50085316025A531E2
:104AFA0040014408E2004308E1004208E00041089E
:104B0A00DF009E312826A53140015E084101B4002C
:104B1A0040015D084101B30040015C084101B20057
:104B2A0040015B084101B100AA31D222A531031824
:104B3A00A02D0930AC2D733086002730870001196B
:104B4A00AF2D733086002730870001150A30A8314F
:104B5A000120A53141304101B0005C30AF00CC30BA
:104B6A00AE00CD30AD004A30860027308700513183
:104B7A00403FB100413FB200423FB300433FB4005F
:104B8A00AA31D222A531031CE52D41304101B000E2
:104B9A003030AF000030AE000030AD004A30860041
:104BAA00273087005131403FB100413FB200423FB8
:104BBA00B300433FB400AA31D222A531031CE92D28
:104BCA000B30A8310120080041304101B0005030BB
:104BDA00AF000030AE000030AD004A30860027300A
:104BEA0087005131403FB100413FB200423FB3001C
:104BFA00433FB400AA31D222A53103182E2E4130E8
:104C0A004101B0005C30AF00CC30AE00CD30AD0019
:104C1A004A308600273087005131403FB100413F7A
:104C2A00B200423FB300433FB400AA31D222A531B9
:104C3A00031C2E2E73308600273087008118080047
:104C4A00733086002730870081140530A83101208F
:104C5A00080041304101B0003030AF000030AE00F2
:104C6A000030AD004A308600273087005131403F7E
:104C7A00B100413FB200423FB300433FB400AA3102
:104C8A00D222A5310318732E41304101B0003630CB
:104C9A00AF006630AE006630AD004A30860027307D
:104CAA0087005131403FB100413FB200423FB3005B
:104CBA00433FB400AA31D222A531031C732E7330AC
:104CCA0086002730870001180800733086002730D5
:104CDA00870001140630A8310120080073308600CD
:104CEA002730870081107330860027308700011033
:104CFA00080041016B08C800C90148084001AD001D
:104D0A00410149084001AE001F30AF000030B00039
:104D1A00B131CF21A63174304101CA002730CB000E
:104D2A0040012D0841014A07CC0040012E084101EB
:104D3A004B3DCD000030B331C423A63141014C08AC
:104D4A0086004D0887005E3101030319B42E4C0812
:104D5A0086004D0887005E310108031DBF2F6C08CD
:104D6A000319C12E4001AD018730AE00BA30AF0041
:104D7A000030B3319223A63141014C08103EB900EC
:104D8A0000304D3DBA00BE30BE008030BD0000305C
:104D9A00BC000030BB004C0886004D088700443137
:104DAA00403FBF00413FC000423FC100433FC200F5
:104DBA003E30C6008030C5000030C4000030C30059
:104DCA00AD31FE25A63141014C0886004D08870009
:104DDA005031403F4001A000413FA100423FA200A4
:104DEA00433FA3000030A7000030A6000030A50012
:104DFA000030A400B6316526A631031C372FE430F3
:104E0A004001A9000130AA0041016B08013EC80017
:104E1A0048084001AB00AC01AC0AB731A327A63160
:104E2A004001AD01AD0A2030AE00BB30AF0000300A
:104E3A00B3319223A6314001AD01AD0AE430AE0090
:104E4A000130AF000530B3319223A6314001AD01E4
:104E5A00AD0AFD30AE00BA30AF000630B33192234E
:104E6A00A631FC2F41014C0886004D0887005031BD
:104E7A00403FAD00413FAE00423FAF00433FB0006C
:104E8A000030B4000030B3000030B2000030B1008E
:104E9A00AA31D222A6310318852FE4304001A90095
:104EAA000130AA0041016B08013EC80048084001D0
:104EBA00AB00AC01AC0AB731A327A6314001AD0162
:104ECA00AD0A2030AE00BB30AF000030B3319223C0
:104EDA00A6314001AD01AD0AE430AE000130AF00A9
:104EEA000530B3319223A6314001AD01AD0A043039
:104EFA00AE00BB30AF000630B3319223A631FC2F8F
:104F0A004001AD01AD0A1030AE00BB30AF00003039
:104F1A00B3319223A63141014C0886004D0887001F
:104F2A005031403FB900413FBA00423FBB00433FC6
:104F3A00BC000430C8004808BD00BE01BE0AE43007
:104F4A00A331AC23A6314001AD01AD0AE430AE0075
:104F5A000130AF000130B3319223A6314001AD01D7
:104F6A00AD0ACD30AE00BA30AF000530B33192236E
:104F7A00A631FC2F4C0886004D0887005E310430AC
:104F8A0001060319D12F4C0886004D0887005E31AF
:104F9A0003300106031DFE2F6C080319E92F400197
:104FAA00AD013930AE00BA30AF000030B3319223D0
:104FBA00A6314001AD01AD0A6D30AE00BA30AF0086
:104FCA000030B3319223A631B1316B21A631023AB6
:104FDA00031DFC2F41014C081E3EC80000304D3D08
:104FEA00C90048088600490887000530810000305A
:064FFA0008000130080070
:105002004001A8002808A70042016208203E86004D
:10501200023087004001270881000A30A0000030DA
:10502200A10042016208013E4001A20000300318C3
:105032000130A300B531D825A83140012008A700CE
:1050420027084201E20062087C06031D08000A30BC
:105052004001A0000030A1007C08013EA200003007
:1050620003180130A300B531D82540012008A7005C
:105072002708FC000800E03040012305A9003F306A
:105082002405AA0000308B1B0130AB002A0824063D
:10509200031D4D2829082306031D08008B1324082D
:1050A200A1002308A000B2312822A83150011E130A
:1050B2001E159E164001AC01230850019A004001C2
:1050C200240850019B0040012C352507A600260824
:1050D20086008701010850019C0040012C352507FC
:1050E200A600260886008701403FA700413FA8008E
:1050F200280850019D001F3040012C06031D832803
:1051020050019E12553050019F00AA309F009E14FC
:105112000000000001304001A3070030A43D01302F
:10512200A6002608AC0720302C02031C5D28500183
:105132001E1140012B0C031C8B1303188B17080044
:10514200031041012A0D2B0DAC002C08B2003208CD
:10515200031DB4280030AB000030AA000030A900C3
:105162000030A80008002808AC002908AD002A0871
:10517200AE002B08AF001F30AF36AE0CAD0CAC0C3E
:10518200890BBD282C08B0003008B100AA17FF30E7
:10519200A805FF30A905FF30AA050030AB059630FF
:1051A200B202B21FE7283208803A973E031CAB28AE
:1051B2000130AB36AA0CA90CA80C890BDA280130F5
:1051C200AC002C08B2070319F828D9282030320283
:1051D2000318AB2832080319F8280130A835A90DA5
:1051E200AA0DAB0D890BEF280130B202EB28310872
:1051F20003190800A809A909AA09AB09A80A0319F1
:10520200A90A0319AA0A0319AB0A080040012E08C9
:10521200A0002F08A100A201A3010030B4000030B9
:10522200B5000130B6000030B7003008B4023108D2
:10523200B53B3208B63B3308B73B3708A700360800
:10524200A6003508A5003408A400B3313123A931E2
:1052520040012008B8002108B9002208BA0023083A
:10526200BB002C08A0002D08A100A201A301330855
:10527200A7003208A6003108A5003008A400B33107
:105282003123A93140012008B8072108B93D22087D
:10529200BA3D2308BB3D3B08BF003A08BE003908AF
:1052A200BD003808BC000030B4008030B5000030CA
:1052B200B6000030B7003C08B4073D08B53D3E08D3
:1052C200B63D3F08B73D1030B736B60CB50CB40C3E
:1052D200890B65293508AD003408AC0008000030A0
:1052E200B331C423A93141016C0803198229400159
:1052F200AD010530AE00BA30AF000030B3319223B9
:10530200A9316B304101B9002730BA00C230BE006A
:105312004830BD000030BC000030BB00C130C200CC
:10532200A030C1000030C0000030BF003F30C600D6
:105332008030C5000030C4000030C300AD31FE250E
:10534200A9316B30860027308700403F4101B90008
:10535200413FBA00423FBB00433FBC000330C8009C
:105362004808BD00BE01E430A331AC23A93140019D
:10537200AD01AD0A1030AE00BB30AF000030B3312A
:105382009223A9314001AD01AD0AE430AE000130F3
:10539200AF000130B3319223A9314001AD01AD0A12
:1053A200AA30AE00BA30AF000430B3319223A93133
:1053B200B1316B21A931013A031DE329AB31CE236F
:1053C20000300800013008000030B331C423A93195
:1053D20041016C080319F7294001AD016330AE00A9
:1053E200B830AF000030B3319223A9316F304101A0
:1053F200B9002730BA003D30BE00CC30BD00CC3001
:10540200BC00CD30BB004030C200A030C100003033
:10541200C0000030BF003D30C600CC30C500CC30EB
:10542200C400CD30C300AD31FE25A9316F308600F6
:1054320027308700403F4101B900413FBA00423F57
:10544200BB00433FBC000330C8004808BD00BE019A
:10545200BE0AE430A331AC23A9314001AD01AD0A4B
:105462001030AE00BB30AF000030B3319223A9310F
:105472004001AD01AD0AE430AE000130AF000130B1
:10548200B3319223A9314001AD01AD0AB330AE0070
:10549200BA30AF000430B3319223A931B1316B215C
:1054A200A931013A031D592AAB31CE23003008003D
:1054B200013008000030B331C423AA3141016C0825
:1054C20003196D2A4001AD011F30AE00BA30AF00A2
:1054D2000030B3319223AA3167304101B90027303D
:1054E200BA000030BE000030BD000030BC00003009
:1054F200BB004130C2002030C1000030C00000308B
:10550200BF003F30C6000030C5000030C40000308C
:10551200C300AD31FE25AA314A308600273087000C
:105522005D31403F4101B900413FBA00423FBB00FB
:10553200433FBC000430C8004808BD00BE01BE0A9B
:10554200E430A331AC23AA314001AD01AD0A0B30E6
:10555200AE00BB30AF000030B3319223AA3140011C
:10556200AD01AD0AE430AE000130AF000630B33118
:105572009223AA314001AD01AD0A3630AE00BB30F4
:10558200AF000A30B3319223AA31B1316B21AA3173
:10559200013A031DD02AAB31CE230030080001307E
:1055A2000800003041012D05B50000302E05B6007F
:1055B20080302F05B7007F303005B8003808370437
:1055C20036043504031DED2A0030B0000030AF0070
:1055D2000030AE000030AD0000303105B5000030C3
:1055E2003205B60080303305B7007F303405B8008D
:1055F2003808370436043504031D072B0030B40085
:105602000030B3000030B2000030B100B01F212BD7
:105612000030B5000030B6000030B7008030B8006E
:105622002D08B5022E08B63B2F08B73B3008B83B11
:105632003808B0003708AF003608AE003508AD00B4
:10564200B41F3B2B0030B5000030B6000030B7006D
:105652008030B8003108B5023208B63B3308B73B98
:105662003408B83B3808B4003708B3003608B20033
:105672003508B1008030B0068030B40634083002FC
:10568200031D080033082F02031D080032082E02F2
:10569200031D080031082D0208004001E4016408DE
:1056A200803EA0003F3003184030A100B2314822B2
:1056B200AB3140016435243E860087012008C03F9B
:1056C2002108C13F6435243E860087010108A300FA
:1056D2006408A03E86008701230881000130A300F0
:1056E2002308E40720306402031C502B8930860013
:1056F2002730870041012008C03F2108C13F22080E
:10570200C23F2308C33FA830860027308700240801
:10571200C03F2508C13F2608C23F2708C33FC73004
:105722008600273087002808C03F2908C13F2A0881
:10573200C23F2B08C33FE6308600273087002C0883
:10574200C03F2D08C13F2E08C23F2F08C33F4A3039
:105752008600273087005D313008C03F3108C13FE5
:105762003208C23F3308C33F6B30860027308700C0
:105772003408C03F3508C13F3608C23F3708C33F2F
:105782006F308600273087003808C03F3908C13F94
:105792003A08C23F3B08C33F0800893086002730E1
:1057A2008700403F4101A000413FA100423FA200CB
:1057B200433FA300A830860027308700403FA40063
:1057C200413FA500423FA600433FA700C7308600E5
:1057D20027308700403FA800413FA900423FAA006E
:1057E200433FAB00E630860027308700403FAC00E5
:1057F200413FAD00423FAE00433FAF004A3086001A
:10580200273087005D31403FB000413FB100423F49
:10581200B200433FB3006B30860027308700403F21
:10582200B400413FB500423FB600433FB7006F307E
:10583200860027308700403FB800413FB900423F11
:10584200BA00433FBB004001EF016F08A03E860053
:1058520087010108AD00AE016F352F3E860087013A
:105862002D08C03F2E08C13F0130AD002D08EF07C3
:1058720020306F02031C262C8030A0003F30A10094
:10588200B2312822AB3180304001A3003F30A40066
:105892002F30AD002D08A500A8313C2008004001A2
:1058A20019121911991141304001A700EE30890BEC
:1058B200582CA70B582C00004001991019109A126D
:1058C2001A120330B5319325AC3107304001A700DD
:1058D2007D30890B6A2CA70B6A2C0830B5319325D1
:1058E200AC3107304001A7007D30890B762CA70B25
:1058F200762C0230B5319325AC3107304001A70038
:105902007D30890B822CA70B822C0230B531932576
:10591200AC3107304001A7007D30890B8E2CA70BDC
:105922008E2C0830B5319325AC3107304001A700E9
:105932007D30890B9A2CA70B9A2C0830B1314B2160
:10594200AC3107304001A7007D30890BA62CA70B94
:10595200A62C0130B1314B21AC3107304001A700F8
:105962007D30890BB22CA70BB22C0630B1314B2102
:10597200AC3107304001A7007D30890BBE2CA70B4C
:10598200BE2C0230B1314B21AC3107304001A700AF
:105992007D30890BCA2CA70BCA2C0C30B1314B219C
:1059A200AC3107304001A7007D30890BD62CA70B04
:1059B200D62C0800420161084101D200D301D23540
:1059C200D30D003052078400B830533D8500003FAC
:1059D200D900013FDA0059085A040319FA2C5A086F
:1059E2008A0059080A00AC314101D2005208D6009F
:1059F200FE2C0C30A8310120AC314101EC01B13157
:105A02006B21AC314101D2005208D7004401350864
:105A12004001A300440134084001A20044013308BC
:105A22004001A100440132084001A000B7314927DA
:105A3200AC3140012308031D272D2208031D272D09
:105A42002D3020020130213B031C292D01302A2D4B
:105A520000304101D2005208D8005608D200520844
:105A62004001B30041015708D30053084001B4007C
:105A720041015808D40054084001B50042016108B0
:105A8200A031CA20AC314101D5005508DB00DB1B37
:105A9200642D5B08D200D301D21BD30342016108FB
:105AA2004101D400D50153085506031D5A2D520851
:105AB200540603190800EC01EC0A5B08D2005208F4
:105AC2004201E10008000C30A83101200800400129
:105AD200BB003B08031DB61F7E2D3309BD003409F0
:105AE200BE003509BF003609C000BD0A0319BE0A4F
