:020000040000FA
:1000000080317928013401347E1480314E01961AF2
:100010008C1E1C2801304001A0002008EA07043093
:100020007D06031D1628B43159248031B2304B01AE
:100030009C004E018C127728161A0C1E38287E015F
:10004000BF1F2728B431592480317E01BF133F1EC2
:100050002E28B631422680317E013F12BF1E352840
:10006000B631422680317E01BF124E010C12772834
:100070000B1F77281A18101C7028420166084001CF
:10008000A300420165084001A2004201640840014A
:10009000A100420163084001A00001304201E307D2
:1000A0000030E43DE53DE63D003040012002CA302D
:1000B000213B9A30223B3B30233B031C6828003015
:1000C0004201E6000030E5000030E4000030E300CB
:1000D000CF3044018D002B308C004E01101077285A
:1000E000991A8F1E7728B43199244E018F127E10F1
:1000F000090080317B28803103208031EB004301EF
:10010000803102208031EE00043084008830850088
:1001100060308600023087000030FF000C30B131C3
:10012000922180314A30840027308500A630FE00BD
:100130000030FF00B13186218031FD014001E8012E
:10014000E901EA014101EF016330840001308500DB
:100150000D30FE000030FF00B13186218031E030EB
:100160008400013085000E30FE000030FF00B13108
:100170008621803120308400023085002930FE0045
:100180000030FF00B13186218031A0308400023080
:1001900085003830FE000030FF00B13186217E102E
:1001A0004001A13132294201D8013C304001C80050
:1001B000D030C7001330C600A930C500420158082E
:1001C0004101B400B50134084001B10041013508D6
:1001D0004001B2001F30B3000030B400B131E22161
:1001E000803189304101B6002730B7004001310825
:1001F000410136078600400132084101373D870042
:10020000403F4001C900413FCA00423FCB00433F4D
:10021000CC00933124238031400148084201C300BF
:10022000400147084201C200400146084201C100A6
:10023000400145084201C00040304001C80048303C
:10024000C700F530C600C330C50042014308400175
:10025000CC00420142084001CB004201410840016C
:10026000CA00420140084001C90093312423803173
:10027000400148084201CF00400147084201CE003A
:10028000400146084201CD00400145084201CC0032
:1002900040304001E2008030E1000030E0000030FA
:1002A000DF00420143084001C8004201420840010A
:1002B000C700420141084001C60042014008400118
:1002C000C50042014F084001CC0042014E084001E8
:1002D000CB0042014D084001CA0042014C084001D8
:1002E000C90093312423803140014808E6004708C3
:1002F000E5004608E4004508E3009E312E268031E3
:10030000400162084201CB00400161084201CA007D
:10031000400160084201C90040015F084201C80075
:100320004A308600273087005D31403F4001DF00C2
:10033000413FE000423FE100433FE2004A30860097
:10034000273087004831403FE300413FE400423F0F
:10035000E500433FE60085316F25803140016208AA
:100360004201AB00400161084201AA00400160085F
:100370004201A90040015F084201A800433040014A
:10038000E2008830E1009330E0003330DF004201CA
:100390002B084001E60042012A084001E500420125
:1003A00029084001E400420128084001E3008531AA
:1003B0006F258031400162084201D300400161088D
:1003C0004201D200400160084201D10040015F08B3
:1003D0004201D00043304001E2008830E100933018
:1003E000E0003330DF006B30860027308700403F6D
:1003F000E300413FE400423FE500433FE600853132
:100400006F258031400162084201D7004001610838
:100410004201D600400160084201D50040015F085A
:100420004201D40057084001C8004201560840016B
:10043000C700420155084001C6004201540840016E
:10044000C500420157084001CC0042015608400156
:10045000CB00420155084001CA0042015408400146
:10046000C900933124238031400148084201CF0064
:10047000400147084201CE00400146084201CD003C
:10048000400145084201CC0057084001C800420124
:1004900056084001C700420155084001C60042010C
:1004A00054084001C50042014F084001CC00420100
:1004B0004E084001CB0042014D084001CA004201F4
:1004C0004C084001C9009331242380314001480881
:1004D0004201AF00400147084201AE00400146081A
:1004E0004201AD00400145084201AC005308400103
:1004F000C800420152084001C700420151084001B2
:10050000C600420150084001C500420153084001A5
:10051000CC00420152084001CB0042015108400189
:10052000CA00420150084001C900933124238031A0
:10053000400148084201B300400147084201B200AF
:10054000400146084201B100400145084201B000A7
:1005500053084001C800420152084001C70042014F
:1005600051084001C600420150084001C500420147
:1005700033084001CC00420132084001CB00420167
:1005800031084001CA00420130084001C9009331DE
:1005900024238031400148084201B7004001470848
:1005A0004201B600400146084201B500400145083D
:1005B0004201B40057084001C800420156084001FA
:1005C000C700420155084001C600420154084001DD
:1005D000C50042012F084001CC0042012E08400115
:1005E000CB0042012D084001CA0042012C08400105
:1005F000C900933124238031400148084101AF00F4
:10060000400147084101AE00400146084101AD00EC
:10061000400145084101AC00420153084001C800B7
:10062000420152084001C700420151084001C60082
:10063000420150084001C500420137084001CC008A
:10064000420136084001CB00420135084001CA0092
:10065000420134084001C900933124238031400114
:1006600048084101B300400147084101B200400180
:1006700046084101B100400145084101B000B331D5
:100680008323803141012F084201BB0041012E0824
:100690004201BA0041012D084201B90041012C0874
:1006A0004201B80033304001C8006730C7005930FC
:1006B000C6003230C50042014B084001CC00420167
:1006C0004A084001CB00420149084001CA004201EA
:1006D00048084001C9009331242380314001480873
:1006E0004201BF00400147084201BE0040014608E8
:1006F0004201BD00400145084201BC003B084001E9
:10070000C80042013A084001C700420139084001CF
:10071000C600420138084001C50042013F084001BF
:10072000CC0042013E084001CB0042013D0840019F
:10073000CA0042013C084001C900933124238031A2
:10074000400148084201C700400147084201C60075
:10075000400146084201C500400145084201C4006D
:1007600058084101B400B50134084001B10041010D
:1007700035084001B2001F30B3000030B400B13181
:10078000E22180317C304101B6002730B7004001C2
:100790003108410136078600400132084101373DEA
:1007A0008700420147084001C80042014608400155
:1007B000C700420145084001C6004201440840010B
:1007C000C5006F30840027308500003FC900013F1D
:1007D000CA00023FCB00033FCC0093312423803179
:1007E00040014508C03F4608C13F4708C23F48088E
:1007F000C33F3E30C8002330C7005730C6001D300D
:10080000C500420158084101B400B5013408400157
:10081000B100410135084001B2001F30B300003083
:10082000B400B131E221803189304101B600273076
:10083000B700400131084101360786004001320807
:100840004101373D8700403F4001C900413FCA0098
:10085000423FCB00433FCC00933124238031400101
:1008600048084201A300400147084201A20040019C
:1008700046084201A100400145084201A0003C3069
:100880004001C800F530C700C230C6008F30C50037
:10089000420123084001CC00420122084001CB0064
:1008A000420121084001CA00420120084001C9005C
:1008B000933124238031400148084201CB0040019C
:1008C00047084201CA00400146084201C9004001F0
:1008D00045084201C8003F304001C8005930C700F8
:1008E0009930C6009A30C5004030E2000030E10087
:1008F0000030E0000030DF00420158084101B40040
:10090000B50134084001B100410135084001B20091
:100910001F30B3000030B400B131E22180318930A2
:100920004101B6002730B7004001310841013607C8
:100930008600400132084101373D8700403F4001B9
:10094000E300413FE400423FE500433FE6009E31C3
:100950002E26803140016208CC006108CB0060087F
:10096000CA005F08C9009331242380314001480840
:100970004201CF00400147084201CE004001460835
:100980004201CD00400145084201CC004B08400126
:10099000C80042014A084001C7004201490840011D
:1009A000C600420148084001C50042014F0840010D
:1009B000CC0042014E084001CB0042014D084001ED
:1009C000CA0042014C084001C90093312423803100
:1009D000400148084201A700400147084201A60023
:1009E000400146084201A500400145084201A4001B
:1009F00058084101B400B50134084001B10041017B
:100A000035084001B2001F30B3000030B400B131EE
:100A1000E22180318D304101B6002730B70040011E
:100A20003108410136078600400132084101373D57
:100A300087004A308400273085000831003FAC0031
:100A4000013FAD00023FAE00033FAF004201270867
:100A50004001C800420126084001C70042012508A4
:100A60004001C600420124084001C5004201470878
:100A70004001CC00420146084001CB00420145083C
:100A80004001CA00420144084001C90093312423B7
:100A90008031400148084101B3004001470841014D
:100AA000B200400146084101B10040014508410142
:100AB000B000B3318323803141012C08C03F2D08A1
:100AC000C13F2E08C23F2F08C33F0130B400340895
:100AD0004201D8070430580203180800D528400105
:100AE000620880394101A0002008A8004001623559
:100AF0004101A0002008AA004001E11F812D410111
:100B00002A1441012A080319952D2A0A031D912D43
:100B100000304001E2000030E1000030E000003031
:100B2000DF004001E117E2019E2D00304001E200AC
:100B30000030E1000030E0000030DF00660880395E
:100B40004101A0002008A90029082806031D281734
:100B5000400166354101A0002008A9004001E51FC1
:100B6000B32D41012914410129080319C72D290A70
:100B7000031DC32D00304001E6000030E5000030C9
:100B8000E4000030E3004001E517E601D02D00301D
:100B90004001E6000030E5000030E4000030E300F2
:100BA00041012A0829020318302E281FDB2D80302E
:100BB000A0002008A8062A08A0002008AB002908E9
:100BC000A0002008AA002B08A0002008A9004001CE
:100BD0005F084101A0002008AB004001630841010B
:100BE000A00020084001DF0041012B08A0002008E0
:100BF0004001E30060084101A0002008AB00400173
:100C000064084101A00020084001E00041012B08D8
:100C1000A00020084001E40061084101A000200874
:100C2000AB00400165084101A00020084001E1003F
:100C300041012B08A00020084001E50062084101A5
:100C4000A0002008AB00400166084101A000200878
:100C50004001E20041012B08A00020084001E6000D
:100C60004101AB012908A000A1012108A3002A0825
:100C70002002A200031CA3032308803AA4008030B2
:100C80002402031D452E1A302202031C822E40012D
:100C90006208610460045F040319502E0130512E74
:100CA00000304101A0002008AB0000304001E2000C
:100CB0000030E1000030E0000030DF004101290891
:100CC000A0002008AA00872E2B1C6C2E2B36013882
:100CD000A0002008AB006E2E0310AB0C40015F1C7F
:100CE000732E4101AB1701304101A0004001E237F2
:100CF000E10CE00CDF0C4101A00B762E0130A000CE
:100D00002008AA07410129082A02031C642E281B77
:100D1000C12E2A08031D962E00304001E20000304B
:100D2000E1000030E0000030DF000800400163080F
:100D3000DF076408E03D6508E13D6608E23D621CAE
:100D40005A2F41012B1CAA2E2B360138A000200857
:100D5000AB00AC2E0310AB0C40015F1CB12E410167
:100D6000AB1701304101A0004001E237E10CE00C7B
:100D7000DF0C4101A00BB42E0130A0002008AA070F
:100D80005A2F40016208803A4101A00040016608E4
:100D9000803A410120024001031DD82E65086102FE
:100DA000031DD82E64086002031DD82E63085F025D
:100DB0000318222FFF304101A000FF30A100FF30B7
:100DC000A200FF30A30040015F0863024101A400BC
:100DD00040016008643B4101A50040016108653B9A
:100DE0004101A60040016208663B4101A7002408BA
:100DF000A0072508A13D2608A23D2708A33D2308FA
:100E00004001E200410122084001E10041012108C6
:100E10004001E000410120084001DF008030410135
:100E2000A0002008A806AB09AB0A2B08031D2A2F37
:100E300001304001DF070030E03D0030E13D00308F
:100E4000E23D2A2F6308DF026408E03B6508E13BCE
:100E50006608E23B40016208610460045F04031D10
:100E6000572F41012B08031D572F00304001E2008E
:100E70000030E1000030E0000030DF000800013009
:100E8000DF35E00DE10DE20D890B402F4101AB1F75
:100E90004B2F40015F1441012B1C502F0314512F85
:100EA0000310AB0D2A080319572F0130AA02400185
:100EB000E11F3F2F4101A901AB1F682F2B087F398C
:100EC000031D652F40015F1C682F4101A901A90A7C
:100ED000410129080319A52F01304001DF07003027
:100EE000E03D0030E13D0030E23D621CA52F5F088F
:100EF0004101A000400160084101A10040016108DA
:100F00004101A200400162084101A3000130A40098
:100F1000A337A20CA10CA00CA40B882F230840011E
:100F2000E200410122084001E100410121084001A5
:100F3000E000410120084001DF0041012A0A0319B5
:100F4000A52F0130A0002008AA0741012A0A031D8D
:100F50002A08031DB82F00304001E2000030E100F4
:100F60000030E0000030DF0041012A080319A80129
:100F70002A1CBD2F4001E117C22F7F30A00020089E
:100F80004001E10541012A36A00020084001E200AD
:100F90004101A81F08004001E21708004001B90004
:100FA000440167084001B800440166084001B700E9
:100FB000440165084001B600440164084001B500E1
:100FC0003108353E86008701010839078038B13184
:100FD0005121873140013208840033088500120016
:100FE0000319080032088400330885000008B13175
:100FF0006521873101304001B2070030B33DEA2F4F
:10100800643400340034003400344034143454342C
:1010180000344034143454344101D4015408BF001E
:10102800C0013F084001B100410140084001B20041
:101038001F30B3000030B400B131E2218831743080
:101048004101C1002730C200400131084101410778
:10105800D500400132084101423DD60055088600BE
:10106800560887005E31043001060319C22B40017F
:10107800B101B10A41015408B531692588314101EE
:10108800CD01CE01CF011130B131FE2188314001AF
:1010980025084101C400400124084101C300440857
:1010A8004001B100410143084001B00041014F082F
:1010B8004001B30041014E084001B2000030B700C2
:1010C8000030B600B330B5003230B400A031002093
:1010D8008831400131084101CF0040013008410109
:1010E800CE004D08CD0ABF0032303F02031C47280E
:1010F8004001B10141015408B531692588314530B5
:101108004001E2001F30E100D830E0000030DF008D
:101118004030C800A030C7000030C6000030C5000D
:1011280041014E084001B70041014F084001B80095
:10113800B901BA010030AC31A224883140013A0823
:10114800CC003908CB003808CA003708C9009331E9
:101158002423883140014808E6004708E50046088E
:10116800E4004508E3009E312E26883140016208DC
:101178004101D300400161084101D20040016008EB
:101188004101D10040015F084101D0005308B5007A
:101198005208B4005108B3005008B2003D30B900FD
:1011A8007530B800C230B7008F30B600AA3192222D
:1011B80088310318F9284101550886005608870028
:1011C8005E310103031DEC28013090310420883181
:1011D800410155081E3EBF000030563DC0003F0883
:1011E8008600400887000230C12B40304101B5001D
:1011F8000030B4000030B3000030B2005308B9002A
:101208005208B8005108B7005008B600AA31922217
:101218008831031C122940010E19402907309031EA
:1012280004208831410155081E3EBF000030563D5C
:10123800C0003F0886004008870004308100400154
:101248000E19C22B410155081E3EBF000030563D05
:10125800C0003F0886004008870003308100400135
:101268009A1107304101BF007D30890B3929BF0B26
:10127800392940019A15C22B4101550886005608A4
:1012880087005008C03F5108C13F5208C23F530869
:10129800C33F53084001C800410152084001C7003C
:1012A800410151084001C600410150084001C500F4
:1012B8004A308600273087005131403FC900413FFE
:1012C800CA00423FCB00433FCC00933124238831EE
:1012D80041015508860056088700443140014508F9
:1012E800C03F4608C13F4708C23F4808C33F4101C5
:1012F80055088600560887004431403FB200413FF8
:10130800B300423FB400433FB50055088600560875
:1013180087005031403FB600413FB700423FB80018
:10132800433FB900AA31922288310318B6294101F6
:1013380055088600560887004431403FBF00413FAA
:10134800C000423FC100433FC2005508860056080E
:10135800870050313F08C03F4008C13F4108C23FA5
:101368004208C33F7330860027308700811D022A58
:10137800410155088600560887005031403FB200A9
:10138800413FB300423FB400433FB5000030B900CD
:101398000030B8000030B7000030B600AA31922201
:1013A80088310318E529410155081D3EBF0000306A
:1013B800563DC0003F088600400887000130810084
:1013C800232A00304101B5000030B4000030B300DA
:1013D8000030B20055088600560887005031403F5B
:1013E800B600413FB700423FB800433FB900AA31B9
:1013F800922288310318232A41011D2A41015508E8
:101408008600560887004431403FBF00413FC00076
:10141800423FC100433FC200550886005608870076
:1014280050313F08C03F4008C13F4108C23F420811
:10143800C33F55088600560887005D318101410188
:1014480055088600560887005031403F4001A400E7
:10145800413FA500423FA600433FA7000030AB0034
:101468000030AA000030A9000030A800B531B0252E
:101478008831031C472A4101550886005608870011
:101488005E318101542A410155081E3EBF000030DB
:10149800563DC0003F0886004008870001308100A3
:1014A80055088600560887005D310103031D062B89
:1014B80042304001C800C830C7000030C6000030C4
:1014C800C500410155088600560887004431403F51
:1014D8004001DF00413FE000423FE100433FE200BE
:1014E800410155088600560887004831403F4001B1
:1014F800E300413FE400423FE500433FE6009E3100
:101508002E26883140016208CC006108CB006008B3
:10151800CA005F08C9009331242388314001480874
:101528004101B500400147084101B40040014608A7
:101538004101B300400145084101B2004230B90001
:10154800C830B8000030B7000030B600AA31922287
:101558008831031CB82A42304101C800C830C7008E
:101568000030C6000030FD2A42304001C800C830B3
:10157800C7000030C6000030C5004101550886008C
:10158800560887004431403F4001DF00413FE000FA
:10159800423FE100433FE2004101550886005608FA
:1015A80087004831403F4001E300413FE400423FAB
:1015B800E500433FE6009E312E268831400162084F
:1015C800CC006108CB006008CA005F08C9009331ED
:1015D80024238831400148084101C80040014708D8
:1015E8004101C700400146084101C60040014508C5
:1015F8004101C5004808B7004708B6004608B500CD
:101608004508AF2B42304001C800C830C700003041
:10161800C6000030C50041015508860056088700FD
:101628004431403F4001DF00413FE000423FE100DC
:10163800433FE200410155088600560887005031B3
:10164800403F4001E300413FE400423FE500433FA3
:10165800E6009E312E26883140016208CC006108E0
:10166800CB006008CA005F08C90093312423883181
:10167800400148084101B500400147084101B40054
:10168800400146084101B300400145084101B2004C
:101698004230B900C830B8000030B7000030B6009A
:1016A800AA3192228831031C622B42304101CC00BE
:1016B800C830CB000030CA000030A72B42304001B0
:1016C800C800C830C7000030C6000030C50041015E
:1016D80055088600560887004431403F4001DF0026
:1016E800413FE000423FE100433FE200410155082D
:1016F8008600560887005031403F4001E300413FD3
:10170800E400423FE500433FE6009E312E26883143
:1017180040016208CC006108CB006008CA005F087D
:10172800C900933124238831400148084101CC0085
:10173800400147084101CB00400146084101CA0069
:10174800400145084101C9004C08B7004B08B600E4
:101758004A08B5004908B400A8315420883141012D
:101768003408BF005508143EC0000030563DC10083
:1017780040088600410887003F0881000130410188
:10178800BF003F08D4070430540203180800122889
:101798004401DF015F08553E860002308700810161
:1017A80081035F08593E860002308700810181036A
:1017B8005F084101DF00E0010930E10061084001F4
:1017C800AD0044015F08B1319E218B31A03E8600F7
:1017D8000230870041015F08C03F6008C13F4401F3
:1017E8005F084101DF00E0015F084001B1004101ED
:1017F80060084001B2001F30B3000030B400B131BE
:10180800E2218B3174304101E1002730E2004001D0
:101818003108410161078600400132084101623DFB
:101828008700403FE300413FE400423FE500433F7B
:10183800E6000930E70067084001AD0044015F0891
:10184800B1319E218B31A23E8600023087004101D2
:101858006308C03F6408C13F6508C23F6608C33FCC
:1018680044015F084101DF00E0015F084001B10069
:10187800410160084001B2001F30B3000030B400DD
:10188800B131E2218B3188304101E1002730E2009B
:1018980040013108410161078600400132084101D9
:1018A800623D87000108E3000930E4006408400154
:1018B800AD0044015F08B1319E218B31A63E860000
:1018C800023087004101630881000130DF005F08B2
:1018D8004401DF0704305F02031CCE2B04304101B2
:1018E800C7000030C8000930C9000030CA002230E3
:1018F800CB003430CC00A0309C316E248B310030CA
:101908004401D4000030D3000030D2000030D100B0
:101918005408D0005308CF005208CE005108CD001B
:101928005008CC004F08CB004E08CA004D08C9002B
:10193800DE01DD01DF0109304101DF005F08400100
:10194800AD0044015F08B1319E218B31A23E860073
:1019580002308700403F4001DF00413FE000423F46
:10196800E100433FE20044014C084001E600440125
:101978004B084001E50044014A084001E4004401E5
:1019880049084001E30085316F258B314001620829
:101998004401CC00400161084401CB0040016008CB
:1019A8004401CA0040015F084401C90040304101B8
:1019B800B5006030B4000030B3000030B20044011C
:1019C80050084001E20044014F084001E100440191
:1019D8004E084001E00044014D084001DF00093095
:1019E8004101DF005F084001AD0044015F08B131EB
:1019F8009E218B31A23E860002308700403F400185
:101A0800E300413FE400423FE500433FE600853103
:101A18006F258B31400162084101B900400161081E
:101A28004101B800400160084101B70040015F086A
:101A38004101B600AA3192228B31031C702D093066
:101A48004101DF005F084001AD0044015F08B1318A
:101A58009E218B31A23E860002308700403F400124
:101A6800DF00413FE000423FE100433FE200440124
:101A780050084001E60044014F084001E5004401D8
:101A88004E084001E40044014D084001E30085315F
:101A98006F258B31400162084401D0004001610884
:101AA8004401CF00400160084401CE0040015F08B6
:101AB8004401CD005F084101DF0044015D08553E47
:101AC80086000230870041015F0881000130DF0095
:101AD8005F084401DD07052E40304101B500603044
:101AE800B4000030B3000030B20044015408400193
:101AF800E200440153084001E1004401520840015A
:101B0800E000440151084001DF0009304101DF00D5
:101B18005F084001AD0044015F08B1319E218B315F
:101B2800A23E860002308700403F4001E300413F6B
:101B3800E400423FE500433FE60085316F258B31E5
:101B4800400162084101B900400161084101B80043
:101B5800400160084101B70040015F084101B6003B
:101B6800AA3192228B31031C052E09304101DF0076
:101B78005F084001AD0044015F08B1319E218B31FF
:101B8800A23E860002308700403F4001DF00413F0F
:101B9800E000423FE100433FE200440154084001B5
:101BA800E600440153084001E500440152084001A1
:101BB800E400440151084001E30085316F258B3171
:101BC800400162084401D400400161084401D30087
:101BD800400160084401D20040015F084401D1007F
:101BE8005F084101DF0044015E08593E860002306B
:101BF800870041015F0881000130DF005F08440170
:101C0800DE0701304101DF005F084401DF070430CF
:101C18005F02031C9F2C5D084101DF00E0015F08A3
:101C2800C7006008C8000130C9000030CA00ED30A4
:101C3800CB003330CC0055309C316E248B314401BD
:101C48005E084101DF00E0015F08C7006008C800C6
:101C58000130C9000030CA00B830CB003330CC00A6
:101C680059309C316E248B314401DF015D085F02DD
:101C78000318F42E5F08593E860002308700811B46
:101C8800AC2E09304101DF005F084001AD0044017E
:101C98005F08593E8600023087000108B1319E2155
:101CA8008B31A63E86000230870009304101E000F2
:101CB80060084001AD0044015F08553E84000230D1
:101CC80085000008B1319E218B31A63E8400023088
:101CD8008500000801074101E100E201E20D620808
:101CE800803AE30080306302031D7C2E6530610278
:101CF800031CAC2E09304101DF005F084001AD0034
:101D080044015F08553E8600023087000108B13162
:101D18009E218B31A63E8600023087000108643C74
:101D28004101E0000930E10061084001AD004401D3
:101D38005F08593E8600023087000108B1319E21B4
:101D48008B31A63E86000230870041016008810081
:101D580009304101DF005F084001AD0044015F0820
:101D6800553E8600023087000108B1319E218B3133
:101D7800A73E860002308700810109304101DF005B
:101D88005F084001AD0044015F08553E86000230FF
:101D980087000108B1319E218B31A63E86000230B2
:101DA800870001084101E0000930E10061084001B5
:101DB800AD0044015F08553E8600023087000108E7
:101DC800B1319E218B31A83E860002308700410147
:101DD800600881000130DF005F084401DF073A2E08
:101DE800DF015E085F020318452F09304101DF005B
:101DF8005F084001AD0044015F08593E860002308B
:101E080087000108B1319E218B31A63E8600023041
:101E180087000108643C4101E0000930E1006108E5
:101E28004001AD0044015F08593E8600023087003A
:101E38000108B1319E218B31A73E86000230870010
:101E48004101600881006430DF000930E00060086B
:101E58004001AD0044015F08593E8600023087000A
:101E68000108B1319E218B31A83E860002308700DF
:101E780041015F0881000130DF005F084401DF078E
:101E8800F52EDF0109304101DF005F084001AD0098
:101E980044015F08B1319E218B31A03E860002309B
:101EA8008700403F4001B100413FB2001F30B300FE
:101EB8000030B400B131E2218B3180304101E000C3
:101EC8002730E100400131084101600786004001E8
:101ED80032084101613D870042304001E200C830CC
:101EE800E1000030E0000030DF001F30B3000030B8
:101EF800B40009304101E20062084001AD0044012C
:101F08005F08B1319E218B31A03E840002308500EC
:101F1800003F4001B100013FB200B131E2218B31F5
:101F280078304101E3002730E400400131084101E5
:101F380063078400400132084101643D8500003F89
:101F48004001C500013FC600023FC700033FC8006B
:101F580009304101E50065084001AD0044015F0812
:101F6800B1319E218B31A63E8400023085000008E5
:101F78004101E600E701E801E90169084001BA000A
:101F8800410168084001B900410167084001B800F3
:101F9800410166084001B7000130AC31A2248B3101
:101FA80040013A08CC003908CB003808CA00370885
:101FB800C900933124238B3140014808E6004708C3
:101FC800E5004608E4004508E3009E312E268B31E3
:101FD80040015F08C03F6008C13F6108C23F620816
:101FE800C33F01304101DF005F084401DF070430CF
:081FF8005F0203180800462FE8
:102008004001AC002C08AB0042016808203E860065
:102018000230870040012B0881000A30A4000030FC
:10202800A50042016808013E4001A60000300318DF
:102038000130A700B5312325903140012408AB00B9
:102048002B084201E800680840016806031D0800E3
:102058000A30A4000030A5006808013EA600003040
:1020680003180130A700B531232540012408AB002F
:102078002B08E80008004A30860027308700003027
:10208800C03F0030C13F0030C23F0030C33F4A303C
:1020980086002730870044310030C03F0030C13F00
:1020A8000030C23F0030C33F4A30860027308700E7
:1020B80048310030C03F0030C13F0030C23F0030DF
:1020C800C33F4A308600273087004C3181014A30AF
:1020D8008600273087004D310030C03F0030C13FB7
:1020E8000030C23F0030C33F4A30860027308700A7
:1020F80051310030C03F0030C13F0030C23F003096
:10210800C33F4A3086002730870055310030C03F32
:102118000030C13F0030C23F0030C33F4A30860024
:102128002730870059310030C03F0030C13F0030B0
:10213800C23F0030C33F4A308600273087005D31F8
:102148000030C03F0030C13F4030C23F4030C33F45
:102158006B308600273087000030C03F0030C13F19
:102168002030C23FC230C33F6F308600273087001F
:102178000030C03F0030C13F8030C23F3F30C33FD6
:102188004001BB013B08B700B8013708B100380867
:10219800B2001F30B3000030B400B131E2219031F9
:1021A80074304001B9002730BA0031083907BC0043
:1021B80032083A3DBD003C0886003D08870055318D
:1021C8000030C03F0030C13F8030C23F4030C33F85
:1021D8003C081E3EB70000303D3DB8003708860079
:1021E80038088700053081003C081D3EB7000030E4
:1021F8003D3DB80037088600380887000130810067
:102208003C0886003D08870044310030C03F00305C
:10221800C13F0030C23F0030C33F3C0886003D0844
:10222800870050310030C03F0030C13F8030C23F8E
:10223800BF30C33F3C0886003D0887004831003066
:10224800C03F0030C13F0030C23F0030C33F3C08B0
:1022580086003D0887004C310030C03F0030C13F48
:102268000030C23F0030C33F3C0886003D0887006D
:102278000030C03F0030C13F0030C23F0030C33F94
:102288000130B7003708BB0704303B0203180800C9
:10229800C6287330860027308700010C4101CD0025
:1022A800CD0C4D0C013943016E06031975297330A5
:1022B800860027308700003081190130EE00733026
:1022C800860027308700811D6C294201EC017229A4
:1022D80003304101CD004D084201EC004001EB0103
:1022E800EB0A42016C08B3315223913140016B086B
:1022F80003199229B1011230B200B830B30000308E
:102308008731CE2791314001B101B10A0930B200BD
:10231800BB30B30030308731CE279131733086001F
:1023280027308700011EF0294A30860027308700B1
:10233800403F4101BF00413FC000423FC100433F11
:10234800C2000530CD004D08C300C401C40AE43002
:10235800A2312C2291314001B101B10AE430B2001E
:102368000130B30000308731CE2791314001B101EF
:10237800B10A3A30B200BB30B30005308731CE27FE
:1023880091314A308600273087004D31403F410166
:10239800BF00413FC000423FC100433FC20003307D
:1023A800CD004D08C300C401E430A2312C22913184
:1023B8004001B101B10AE430B2000130B300083085
:1023C8008731CE2791314001B101B10A5830B200AE
:1023D800BB30B3000B301A2A4A30860027308700FA
:1023E800403F4101BF00413FC000423FC100433F61
:1023F800C2000530CD004D08C300C401C40AE43052
:10240800A2312C2291314001B101B10AE430B2006D
:102418000130B30000308731CE2791314001B1013E
:10242800B10AE930B200BA30B30005308731CE279F
:1024380091314A308600273087004431403F4101BE
:10244800BF00413FC000423FC100433FC2000530CA
:10245800CD004D08C300C401C40AE430A2312C22C7
:1024680091314001B101B10AE430B2000130B3004A
:102478000C308731CE2791314001B101B10A2630A5
:10248800B200BB30B30011308731CE2791314A30CA
:102498008600273087004831403F4101BF00413F57
:1024A800C000423FC100433FC2000530CD004D0887
:1024B800C300C401C40AE430A2312C229131400186
:1024C800B101B10AE430B2000130B30018308731ED
:1024D800CE2791314001B101B10AE930B200BA30DA
:1024E800B3001D308731CE2791314A30860027301E
:1024F80087005131403F4101BF00413FC000423F8A
:10250800C100433FC2000430CD004D08C300C401E0
:10251800C40AE430A2312C2291314001B101B10A40
:10252800E430B2000130B30024308731CE27913136
:102538004001B101B10A3E30B200BB30B3002830CF
:102548008731CE2791314A308600273087005931AC
:10255800403F4101BF00413FC000423FC100433FEF
:10256800C2000430CD004D08C300C401C40AE430E1
:10257800A2312C2291314001B101B10AE430B200FC
:102588000130B3002B308731CE2791314001B101A2
:10259800B10AAE30B200B930B3002F308731CE2740
:1025A80091314001AD01AD0A03304101CD004D0824
:1025B8004001AE00E430A831022091314001B10160
:1025C800E430B2000130B30038308731CE27913182
:1025D8007330860027308700811D212B4A30860002
:1025E800273087004C3101084101CD004D084001DA
:1025F800AD0003304101CE004E084001AE00E4308A
:10260800A831022091314001B101B10AE430B20091
:102618000130B30038308731CE2791310530410180
:10262800CD004D084001AB0042016C08B7313C2792
:102638004101CE004E084201EC0042016C0808003E
:10264800400148088039CD004D08D2004835CD00FA
:102658004D08D800C71B581458080319402B580AAE
:10266800031D3E2B0030C8000030C7000030C600F4
:102678000030C500C717482B0030C8000030C7001D
:102688000030C6000030C5004C088039CD004D0828
:10269800D2064C35CD004D08D300CB1B531453083C
:1026A8000319632B530A031D612B0030CC00003043
:1026B800CB000030CA000030C900CB176B2B0030AC
:1026C800CC000030CB000030CA000030C9005308ED
:1026D800031D5808031D792B0030C8000030C700BF
:1026E8000030C6000030C50008004508CD004D0880
:1026F800A4004B08B2311B22933140012508DE00AB
:102708002408DD005D08CD00CE01CF01D0015008BE
:10271800D7004F08D6004E08D5004D08D4005E08F3
:10272800CD00CE01CF01D0015008DC004F08DB00FE
:102738004E08DA004D08D9004608CD004D08A4001F
:102748004A08B2311B22933140012508DE002408D3
:10275800DD005D08CD00CE01CF01D0014D08D407C2
:102768004E08D53D4F08D63D5008D73D5E08CD00F0
:10277800CE01CF01D0014D08D9074E08DA3D4F08E8
:10278800DB3D5008DC3D4708CD004D08A400490852
:10279800B2311B22933140012508DE002408DD00F8
:1027A8005D08CD00CE01CF01D0014D08D4074E08F9
:1027B800D53D4F08D63D5008D73D5E08CD00CE0127
:1027C800CF01D0014D08D9074E08DA3D4F08DB3D4F
:1027D8005008DC3D0830D435D50DD60DD70D890B02
:1027E800EF2B4608CD004D08A4004908B2311B2242
:1027F800933140012508DE002408DD005D08D40778
:102808005E08D53D0030D63DD73D4508CD004D0882
:10281800A4004A08B2311B22933140012508DE008A
:102828002408DD005D08D4075E08D53D0030D63D9C
:10283800D73D0830D435D50DD60DD70D890B1E2CB4
:102848004508CD004D08A4004908B2311B22933138
:1028580040012508DE002408DD005D08D4075E0875
:10286800D53D0030D63DD73D4608CD004D08A400E3
:102878004B08B2311B22933140012508DE002408A1
:10288800DD005D08D9075E08DA3D0030DB3DDC3D40
:102898004708CD004D08A4004A08B2311B229331E5
:1028A80040012508DE002408DD005D08D9075E0820
:1028B800DA3D0030DB3DDC3D4708CD004D08A40083
:1028C8004B08B2311B22933140012508DE00240851
:1028D800DD005D08CD005E08CE00CF01D0010830D4
:1028E800CD35CE0DCF0DD00D890B742C4D08D907E1
:1028F8004E08DA3D4F08DB3D5008DC3D5408CD005A
:102908005508CE005608CF005708D0001830D036EA
:10291800CF0CCE0CCD0C890B8B2C4D08D9074E084B
:10292800DA3D4F08DB3D5008DC3D0830D435D50D85
:10293800D60DD70D890B9A2C58085307CD00CE0118
:10294800CE0D4D08823EDD00FF304E3DDE00DB1B24
:10295800C22C0130D935DA0DDB0DDC0D890BAE2C1C
:10296800D71B59140130D435D50DD60DD70D890B89
:10297800B72CFF30DD07FF30DE3DAB2CD301D71F6E
:10298800DB2CFF305405CD00FF305505CE00FF305D
:102998005605CF007F305705D00050084F044E042D
:1029A8004D0403195918D92CDB2CD301D30A530829
:1029B8000319042D0130D9070030DA3D0030DB3D22
:1029C8000030DC3D5C1C042D5908CD005A08CE00AF
:1029D8005B08CF005C08D0000130D100D037CF0CA5
:1029E800CE0CCD0CD10BF22C5008DC004F08DB00CC
:1029F8004E08DA004D08D9000130DD070030DE3D11
:102A08005E08803ACD0080304D02031D0D2DFF3049
:102A18005D02031C192D7F304001DC008030DB0093
:102A28000030DA000030D900432D40015E08803ABA
:102A3800CD0080304D02031D232D01305D020318A7
:102A4800302D00304001DC000030DB000030DA00BF
:102A58000030D900D201432D40015D08CD004D085A
:102A6800D800FF30D905FF30DA057F30DB050030AC
:102A7800DC055818DB175836CD004D08DC00520825
:102A8800CD004D08DC045C08C8005B08C7005A0884
:102A9800C6005908C500080042016B08B33152232B
:102AA800953140016B080319152E4101D7010430F7
:102AB80057020318152E4001B1014230B200BB3055
:102AC800B3000C304101CD004D084001AD0041017B
:102AD8005708B1319E2195318731CE279531410173
:102AE8005708013ECD004D084001AD00AE01AE0AC9
:102AF800E430A831022095314001B101E430B20040
:102B08000130B3000C304101CD004D084001AD004B
:102B180041015708B1319E219531033E8731CE27B7
:102B280095314001B1014F30B200BB30B3000C30D9
:102B38004101CD004D084001AD0041015708B131B8
:102B48009E219531043E8731CE27953141015708A2
:102B5800CD00CE014D084001B10041014E084001B1
:102B6800B2001F30B3000030B400B131E22195311A
:102B780089304101CF002730D000400131084101A0
:102B88004F078600400132084101503D8700403F11
:102B9800D300413FD400423FD500433FD6005608FA
:102BA800C2005508C1005408C0005308BF000430D3
:102BB800CD004D08C300C401C40AE430A2312C2260
:102BC80095314001B101E430B2000130B3000C305E
:102BD8004101CD004D084001AD0041015708B13118
:102BE8009E219531063E8731CE2795314001B101AE
:102BF8004C30B200BB30B3000C304101CD004D0861
:102C08004001AD0041015708B1319E2195310A3E7E
:102C18008731CE27953101304101CD004D08D707C6
:102C28005B2D4101D701043057020318EA2FA82F62
:102C38004001B101B10A6630B200BA30B3000C30BD
:102C48004101CD004D084001AD0041015708B131A7
:102C58009E2195318731CE279531E42F4001B1016E
:102C6800B10A0B30B200BA30B3000C304101CD00CC
:102C78004D084001AD0041015708B1319E21953101
:102C88008731CE279531E42F5708CD00CE014D0866
:102C98004001B10041014E084001B2001F30B300AD
:102CA8000030B400B131E221953180304101CF00CC
:102CB8002730D0004001310841014F07860040010C
:102CC80032084101503D8700403FD300413FD400C6
:102CD800423FD500433FD6005608C2005508C10000
:102CE8005408C0005308BF000430CD004D08C3008D
:102CF800C401C40AE430A2312C2295314001B1014B
:102D0800B10AE430B2000130B3000C304101CD000B
:102D18004D084001AD0041015708B1319E21953160
:102D28008731CE27953141015708CD00CE014D0896
:102D38004001B10041014E084001B2001F30B3000C
:102D48000030B400B131E221953191304101CF001A
:102D58002730D0004001310841014F07860040016B
:102D680032084101503D87000103031D392F4001FE
:102D7800B101B10A5230B200BB30B3000C3041018E
:102D8800CD004D084001AD0041015708B1319E21E9
:102D98009531043E8731CE27953141015708CD0042
:102DA800CE014D084001B10041014E084001B2007A
:102DB8001F30B3000030B400B131E22195317C30CE
:102DC8004101CF002730D0004001310841014F07B1
:102DD8008600400132084101503D8700403FD30042
:102DE800413FD400423FD500433FD6005608C200B9
:102DF8005508C1005408C0005308BF000430CD0076
:102E08004D08C300C401C40AE430A2312C22953114
:102E18004001B101B10AE430B2000130B3000C3016
:102E28004101CD004D084001AD0041015708B131C5
:102E38009E219531063E8731CE2795314001B1015B
:102E4800B10A5530B200BB30B3000C304101CD009F
:102E58004D084001AD0041015708B1319E2195311F
:102E68000A3E8731CE279531E42F4001B101B10ADE
:102E7800D030B200BA30B3000C304101CD004D085B
:102E88004001AD0041015708B1319E219531043E02
:102E98008731CE279531E42F4001B101B10A803046
:102EA800B200BA30B3000C304101CD004D084001EA
:102EB800AD0041015708B1319E2195318731CE27A8
:102EC8009531E42F4001B101B10AFE30B200B930AA
:102ED800B3000C304101CD004D084001AD00410167
:102EE8005708B1319E2195318731CE279531E42F8E
:102EF8004001B101B10A7330B200BA30B3000C30EE
:102F08004101CD004D084001AD0041015708B131E4
:102F18009E2195318731CE279531E42F4001B101AB
:102F2800B10A9A30B200BA30B3000C304101CD007A
:102F38004D084001AD0041015708B1319E2195313E
:102F48008731CE279531E42F5708CD00CE014D08A3
:102F58004001B10041014E084001B2001F30B300EA
:102F68000030B400B131E221953192304101CF00F7
:102F78002730D0004001310841014F078600400149
:102F880032084101503D87000108D100D2015208A2
:102F9800003A0319D02F922F5108003A0319322E04
:102FA800013A0319482E033A0319502F013A03191D
:102FB800662F073A03197C2F013A03191C2E922F0A
:102FC80001304101CD004D08D707172E0430CD0040
:102FD8004D084001AB0042016B08B7313C27410165
:102FE800CE004E084201EB006B084101CD004D08B0
:082FF800EF0042016B08080024
:103002004201680840016806031914286808203E36
:103012008600023087000108A400A5012408A6004A
:103022002508A7001628A601A701260808004A308D
:103032008600273087004D31403F4101B200413FB9
:10304200B300423FB400433FB500C130B900F03095
:10305200B8000030B7000030B600AA319222983191
:10306200031C4E2842304101B5007030B4000030DC
:10307200B3000030B2004A308600273087004D315D
:10308200403FB600413FB700423FB800433FB9005E
:10309200AA319222983103185428733086002730BF
:1030A20087000112592873308600273087000116E5
:1030B20042016F08031D9B28440163084001A700D9
:1030C200440162084001A600440161084001A500D4
:1030D200440160084001A400B631E2269831400163
:1030E2002708031D7E282608031D7E282508031DA8
:1030F2007E2864302402031C9B2842016608440196
:10310200B100420165084401B00042016408440173
:10311200AF00420163084401AE003108E300300809
:10312200E2002F08E1002E08E0003F30B1315B21C0
:103132009831202942016F03031D202944013108DF
:103142004001A700440130084001A60044012F08B5
:103152004001A50044012E084001A400B631E22638
:10316200983140012708031DC0282608031DC028E6
:103172002508031DC02815302402031CD228420151
:10318200EF01B1314A219831733086002730870030
:10319200811D2029733086002730870081110A3073
:1031A2001E294201EF01AA3044013A06031D1229E9
:1031B2003C03031D12294A308600273087003D0850
:1031C200C03F3E08C13F3F08C23F4008C33F4A30AC
:1031D20086002730870044314108C03F4208C13F82
:1031E2004308C23F4408C33F4A3086002730870065
:1031F20048314508C03F4608C13F4708C23F48081A
:10320200C33F3B084001E700563086002730870065
:1032120067088100733086002730870081150130EE
:1032220008007330860027308700811D2029733003
:1032320086002730870081110B3090310420003046
:10324200080041016F08CD00CE014D084001B100D8
:1032520041014E084001B2001F30B3000030B400FB
:10326200B131E221993174304101CF002730D000D1
:103272004001310841014F07D100400132084101AC
:10328200503DD20042016A08B331522399314101C3
:1032920051088600520887005E310103031959293B
:1032A20051088600520887005E310108031D1C2A5E
:1032B2004001B101A730B200BA30B300003087310B
:1032C200CE279931410151088600520887005031BA
:1032D200403F4001A400413FA500423FA600433FBA
:1032E200A7000030AB000030AA000030A900003077
:1032F200A800B531B0259931031CA9294001B101BB
:10330200B10A3530B200BB30B30000308731CE276E
:10331200993141016F08013ECD004D084001AD00D9
:10332200AE01AE0AE430A831022099314001B10168
:10333200B10AE430B2000130B30004308731CE2745
:1033420099314001B101B10AF130B200BA30ED2930
:10335200410151088600520887005031403FB200B7
:10336200413FB300423FB400433FB5000030B900D3
:103372000030B8000030B7000030B600AA31922207
:1033820099310318F0294001B101B10A3530B20078
:10339200BB30B30000308731CE27993141016F082D
:1033A200013ECD004D084001AD00AE01AE0AE43051
:1033B200A831022099314001B101B10AE430B200D2
:1033C2000130B30004308731CE2799314001B10179
:1033D200B10A0130B200BB30B3000530742A41019A
:1033E20051088600520887005031403FBF00413FDC
:1033F200C000423FC100433FC2000430CD004D082F
:10340200C300C401C40AE430A2312C229931400124
:10341200B101B10AE430B2000130B30000308731AB
:10342200CE2799314001B101B10AD030B200BA3091
:10343200B3000430742A51088600520887005E31B6
:1034420002300106031D362A4001B101CA30B20022
:10345200B930B30000308731CE2799314001B10134
:10346200B10A3230B200BA30722A510886005208CC
:1034720087005E3105300106031D502A4001B1016B
:10348200E430B200B930B30000308731CE27993131
:103492004001B101B10A1830B200BA30722A5108A3
:1034A2008600520887005E31043001060319622A41
:1034B20051088600520887005E3103300106031D61
:1034C200772A4001B101D730B200B930B3000030E1
:1034D2008731CE2799314001B101B10AF130B200F2
:1034E200B930B30000308731CE2799314001B101A4
:1034F2004C30B200BA30B3000C308731CE2799314C
:10350200410151088600520887005531403FBF00F3
:10351200413FC000423FC100433FC2000430CD00E2
:103522004D08C300C401C40AE430A2312C229931EF
:103532004001B101B10AE430B2000130B3000C30F5
:103542008731CE2799314001B101B10AF930B20079
:10355200BA30B30011308731CE27993102304101A0
:10356200CD004D084001AB0042016A08B7313C274B
:103572004101CE004E084201EA006A080800063006
:10358200B131FE219A31400125084101B7004001C5
:1035920024084101B60037084001B1004101360854
:1035A2004001B000430161084001B30043016008DB
:1035B2004001B2000030B7000030B6007F30B500E5
:1035C200FF30B400A03100209A314001310843019C
:1035D200E100400130084301E0001030B131FE212A
:1035E2009A31400125084101B700400124084101F8
:1035F200B60037084001B100410136084001B00071
:10360200440139084001B300440138084001B200C6
:103612000030B7000030B600CC30B500CC30B4007A
:10362200A03100209A31400131084401B900400123
:1036320030084401B8001130B131FE219A31400105
:1036420025084101B700400124084101B6003708AE
:103652004001B100410136084001B0004401370881
:103662004001B300440136084001B2000030B70007
:103672000030B6004C30B500CC30B400A031002090
:103682009A31400131084401B70040013008440139
:10369200B600C2304001E2000A30E1000C30E00026
:1036A2004A30DF003D30C800F330C700EA30C600C0
:1036B200B330C500430160084001B700430161080F
:1036C2004001B800B901BA010030AC31A2249A31EC
:1036D20040013A08CC003908CB003808CA00370844
:1036E200C900933124239A3140014808E600470873
:1036F200E5004608E4004508E30085316F259A316C
:103702004A308600273087004D3140015F08C03FB4
:103712006008C13F6108C23F6208C33F4030C80031
:10372200A030C7000030C6000030C5004401380890
:103732004001B700440139084001B800B901BA019B
:103742000030AC31A2249A3140013A08CC00390849
:10375200CB003808CA003708C900933124239A31B4
:10376200400148084101B500400147084101B40049
:10377200400146084101B300400145084101B20041
:1037820047304001E2003B30E100D130E000003040
:10379200DF004330C8004530C7000030C6000030AB
:1037A200C500410135084001CC0041013408400107
:1037B200CB00410133084001CA00410132084001F7
:1037C200C900933124239A3140014808E600470892
:1037D200E5004608E4004508E3009E312E269A31B2
:1037E2004A30860027308700513140015F08C03FD0
:1037F2006008C13F6108C23F6208C33F4530E20032
:103802001F30E100D830E0000030DF004030C80057
:10381200A030C7000030C6000030C50044013608A1
:103822004001B700440137084001B800B901BA01AC
:103832000030AC31A2249A3140013A08CC00390858
:10384200CB003808CA003708C900933124239A31C3
:1038520040014808E6004708E5004608E40045083C
:10386200E3009E312E269A314A30860027308700A7
:10387200553140015F08C03F6008C13F6108C23F47
:103882006208C33F4A308600273087005531403FE7
:10389200C500413FC600423FC700433FC8004A300F
:1038A2008600273087005131403FC900413FCA009E
:1038B200423FCB00433FCC00933124234A30860061
:1038C20027308700593140014508C03F4608C13FB3
:1038D2004708C23F4808C33F08004101D2005208CE
:1038E200CD004D08D40000304A023C300319490291
:1038F200031808002030CD004D08D30049085307B3
:10390200CD004D088600013087008101D901DA011E
:103912004301A001A10141014708FF3E4301A2006A
:10392200FF304101483D4301A30041015908CD0048
:103932000130CD35FF3E031D9A2C4D35A03E860049
:1039420001308700403FD500413FD6005908CD00E5
:103952000130CD35FF3E031DAA2C4D35023EA03E5F
:10396200860001308700403FD700413FD800FF303A
:10397200D907FF30DA3D41015608DC005508DB006B
:103982005808DE005708DD0053084001B10001303D
:10399200B20041014908CD004D084001AD0041018E
:1039A2005D085B074001A60041015E085C3D4001E5
:1039B200A7000230A4000030A500B63190269C3149
:1039C20040012408B1319E219C3141015407CE00AF
:1039D2004E084001B30041014A084001B5004101CF
:1039E20049084001B400B231CA229C314101490860
:1039F200CD004D084001AD0041015B08B1319E216F
:103A02009C3141015407CE004E084001E70067088F
:103A12004101BF000230C0005308C1000130C200A2
:103A22004C088A004B080A009D314101C01F222D1B
:103A32000130DB070030DC3DF72CFF30DD07FF30C3
:103A4200DE3D4908CD004D084001AD0041015D0851
:103A5200B1319E219C3141015407CE004E084001F4
:103A6200E70041015308BF000130C0004001670870
:103A72004101C1000230C2004C088A004B080A0012
:103A82009D314101C01B1E2D5E08803ACD005C08AD
:103A9200803A4D02031D4F2D5B085D02031C872DEA
:103AA20041014A084001B200410149084001B10008
:103AB20041014908CD004D084001AD0041015B08BC
:103AC200B1319E219C3141015407CE004E08400184
:103AD200B30041014908CF004F084001AD00410148
:103AE2005D08B1319E219C3141015407D00050083C
:103AF2004001B400B231F3229C3101304101DB07B5
:103B02000030DC3DFF30DD07FF30DE3D41015E0865
:103B1200803ACD005C08803A4D02031D922D5B086D
:103B22005D020318F72C41015B085702CD005C08C7
:103B3200583BCE0055085D02CF0056085E3BD000D0
:103B42005008803AD1004E08803A5102031DAB2D35
:103B52004D084F020318E62D41015C08803ACD0062
:103B62005808803A4D02031DB82D57085B0203180E
:103B7200E02D01304101D9070030DA3D5908CD006E
:103B82000130CD35FF3E031DC22D4D35A03E8600CE
:103B9200013087005B08C03F5C08C13F5908CD0077
:103BA2000130CD35FF3E031DD22D4D35023EA03EE4
:103BB2008600013087005708C03F5808C13F4101C5
:103BC2005E08D8005D08D7001E2E41015608803AD3
:103BD200CD005E08803A4D02031DF12D5D085502AD
:103BE2000318192E01304101D9070030DA3D590876
:103BF200CD000130CD35FF3E031DFB2D4D35A03EDE
:103C02008600013087005508C03F5608C13F590859
:103C1200CD000130CD35FF3E031D0B2E4D35023E4A
:103C2200A03E8600013087005D08C03F5E08C13FAC
:103C320041015C08D6005B08D5005608803ACD00E9
:103C42005808803A4D02031D282E57085502031CBE
:103C5200BC2C4101DA1B0800962C40016608803911
:103C62004101A0002008A900400166354101A000E1
:103C72002008B0004001E51F402E410130144101EF
:103C820030080319542E300A031D502E0030400113
:103C9200E6000030E5000030E4000030E3004001BF
:103CA200E517E6015D2E00304001E6000030E50038
:103CB2000030E4000030E300620880394101A000D6
:103CC2002008A906400162354101A0002008B10088
:103CD2004001E11F6E2E41013114410131080319E7
:103CE200822E310A031D7E2E00304001E200003098
:103CF200E1000030E0000030DF004001E117E201A6
:103D02008B2E00304001E2000030E1000030E00084
:103D12000030DF006208610460045F04031DAC2E02
:103D22000030E6000030E5000030E4000030E3003F
:103D32008030E5047F30E60441012908A000200814
:103D42004001E6046608E2006508E1006408E0005C
:103D52006308DF00080041013008031DBA2E00305D
:103D62004001E2000030E1000030E0000030DF00FE
:103D720008003008A000A1012108A3003108200298
:103D8200A200031CA30322087F3EAA000030233DA9
:103D9200AB00400166084101A800400165084101ED
:103DA200A700400164084101A600400163084101E7
:103DB200A50000304001E6000030E5000030E400DC
:103DC2000030E30000304101AF000030AE000030AF
:103DD200AD000030AC00B1011A30310203183E2FA1
:103DE20031080319102F0130A535A60DA70DA80D16
:103DF200890BF52E01304001E335E40DE50DE60DAA
:103E0200890BFC2E4101AF1F082F400163140130C2
:103E12004101AC35AD0DAE0DAF0D890B092F40013F
:103E2200620841012802031D262F40016108410159
:103E32002702031D262F4001600841012602031DAF
:103E4200262F40015F0841012502031C392F2F173D
:103E520040015F084101A502400160084101A63B03
:103E6200400161084101A73B400162084101A83BB2
:103E72000130A0002008B107ED2E280827042604EF
:103E82002504031D2C144001E51B602F0130E3358E
:103E9200E40DE50DE60D890B482F4101AF1F532FAD
:103EA2004001631401304101AC35AD0DAE0DAF0DD3
:103EB200890B542FFF30AA07FF30AB3D442F41013D
:103EC200B101AF1F7C2FFF302C05A000FF302D0564
:103ED200A100FF302E05A2007F302F05A30023088A
:103EE200220421042004031D792F4001631C7C2F2E
:103EF2004101B101B10A410131080319B62F013064
:103F02004001E3070030E43D0030E53D0030E63D8E
:103F1200661CB62F63084101A000400164084101FC
:103F2200A100400165084101A2004001660841016B
:103F3200A3000130A400A337A20CA10CA00CA40B77
:103F42009C2F23084001E600410122084001E500C0
:103F5200410121084001E400410120084001E30041
:103F620001304101AA070030AB3D41012B08803AE4
:103F7200A00080302002031DC02FFF302A02031C44
:103F8200D02FFF304101AA000030AB0000304001C9
:103F9200E6000030E5000030E4000030E3004101BB
:103FA2002B08803AA00080302002031DDA2F013056
:103FB2002A020318EA2F4101AA01AB010030400195
:103FC200E6000030E5000030E4000030E30041018B
:103FD200A90141012A08A0002008B000301CF42FDA
:103FE2004001E517F92F7F30A00020084001E505C8
:103FF20041013036A00020084001E6009D2E40011C
:104002003208A4003308A500A601A7010030B800B9
:104012000030B9000130BA000030BB003408B802E9
:104022003508B93B3608BA3B3708BB3B3B08AB0007
:104032003A08AA003908A9003808A800B331222397
:10404200A03140012408BC002508BD002608BE009E
:104052002708BF003008A4003108A500A601A70167
:104062003708AB003608AA003508A9003408A800B2
:10407200B3312223A03140012408BC072508BD3DED
:104082002608BE3D2708BF3D3F08C3003E08C200C8
:104092003D08C1003C08C0000030B8008030B900C3
:1040A2000030BA000030BB004008B8074108B93DF3
:1040B2004208BA3D4308BB3D1030BB36BA0CB90CBE
:1040C200B80C890B5E283908B1003808B000080026
:1040D2004301620803197F28420166084401AD00CA
:1040E200420165084401AC00420164084401AB008E
:1040F200420163084401AA004301E20144012D0880
:104102004001A70044012C084001A60044012B08ED
:104112004001A50044012A084001A400B631E2266C
:10412200A03140012708BD002608BC002508BB00BD
:104132002408BA00BE010930B5003508AD003E08BA
:10414200B1319E21A031A83E8600023087000108CD
:104152004001B600B701B801B90139083D02031D9B
:10416200BC2838083C02031DBC2837083B02031D4B
:10417200BC2836083A02031CC028B10106290930BE
:10418200B5003508AD003E08B1319E21A031A73EF1
:1041920086000230870001084001B600B701B8016D
:1041A200B90139083D02031DE02838083C02031D0D
:1041B200E02837083B02031DE02836083A02031CB8
:1041C20016290930B5003508AD003E08B1319E21EF
:1041D200A031A83E86000230870001084001B600E7
:1041E200B701B801B90139083D02031D0229380897
:1041F2003C02031D022937083B02031D022936082F
:104202003A0203181629B101B10A0930B50035087E
:10421200AD003E08B1319E21A031A03E86000230A1
:1042220087000108B5316925A03101304001B50090
:104232003508BE0704303E02031C9C283D08031DBE
:104242002C293C08031D2C293B08031D2C29643012
:104252003A02031C2F294301E201E20A43016208E8
:10426200080000304201DF000030DE000030DD00D7
:104272000030DC00E101E10AE001E201B531F9259B
:10428200A13140019916AC311724A131B131C721B6
:10429200A1310230B1315121A1310130B13151216D
:1042A200A13190313F20A13140019A158C1F5C2928
:1042B200AB319123A13164009A31C022A131420174
:1042C2005F084001A70042015E084001A6004201CA
:1042D2005D084001A50042015C084001A400B6311E
:1042E200E226A13140012708031D81292608031D6A
:1042F20081292508031D812906302402031C8D29EA
:1043020042016608DF006508DE006408DD0063081C
:10431200DC00A3319323A13198311820A131003A56
:10432200031999298031D320A1314201E001E00A29
:10433200420161080319A92960080319B1298831CA
:104342001020A1318B31CC23A1314201E101B129ED
:10435200A0316920A1314101EE006E084201E10065
:1043620098310120A131003A0319CB294201660894
:104372004401B500420165084401B40042016408E9
:104382004401B300420163084401B200A631782619
:10439200A131D22942016208031DD229AA31192270
:1043A200A131420162080319FA294401350840018A
:1043B200A700440134084001A6004401330840012B
:1043C200A500440132084001A400B631E226A13121
:1043D20040012708031DFA292608031DFA29B030D7
:1043E20024020430253B0318FA294201E2010C3071
:1043F2001E2A440135084001A70044013408400147
:10440200A600440133084001A500440132084001DE
:10441200A400B631E226A13140012708031D1A2A61
:104422002608031D1A2AB13024020430253B031C3E
:10443200212A4201E201E20A0830B1315121A131BF
:1044420034304101EE00F130890B252AEE0B252A8A
:10445200003200005C294101CC00C701C70ACB0130
:10446200C8014208B5004108B4004008B3003F0843
:10447200B2000030B9000030B8000030B7000030A0
:10448200B600AA319222A2310318772ABF30400126
:10449200C8008030C7000030C6000030C5004101AE
:1044A20042084001CC00410141084001CB004101DA
:1044B20040084001CA0041013F084001C900933150
:1044C2002423A231400148084101C20040014708AB
:1044D2004101C100400146084101C00040014508B8
:1044E2004101BF00C801C80A0130C30241014208AC
:1044F200B5004108B4004008B3003F08B2004130A3
:10450200B9002030B8000030B7000030B600AA3140
:104512009222A231031CBE2A41304001E200203027
:10452200E1000030E0000030DF00410142084001BC
:10453200E600410141084001E50041014008400117
:10454200E40041013F084001E3009E312E26A231E2
:10455200400162084101C200400161084101C100FD
:10456200400160084101C00040015F084101BF00F5
:104572000130C5004508C707772A410147084407AB
:10458200C5004508CA004408031DCB2A0130C500F6
:104592004508C3070130C30243084A020318E12A4F
:1045A2002030C5004B084C07C60046088600013083
:1045B2008700450881000130C5004508CB07CB2A9A
:1045C20048080319F32A2D30C5004B084C07C600D2
:1045D2004608860001308700450881000130C50089
:1045E2004508CB070130CA024A0A03198A2B42083E
:1045F200B7004108B6004008B5003F08B400A83132
:104602005420A23141013408C5004508C9000A30CE
:104612004001B3000030B40041014908C500C601A1
:1046220045084001B100410146084001B200B131E4
:10463200E221A23140013108B7003208B800890DE9
:10464200893B8909B900BA000130AC31A224A231F8
:1046520040013A084101AF00400139084101AE0072
:10466200400138084101AD00400137084101AC006A
:1046720041304001C8002030C7000030C600003081
:10468200C500410142084001CC00410141084001FE
:10469200CB00410140084001CA0041013F084001EE
:1046A200C90093312423A231400148084101B300DB
:1046B200400147084101B200400146084101B100F2
:1046C200400145084101B000B3318323A2314101C9
:1046D2002F08C2002E08C1002D08C0002C08BF0000
:1046E2004908303EC5004B084C07C6004608860004
:1046F20001308700450881000130C5004508CB071D
:104702004A080319F32A4A084406031DF32A2E30E5
:10471200E52A4B084C07C500450886000130870092
:104722008101080040304101B5006030B400003022
:10473200B3000030B2004A3086002730870055317E
:10474200403FB600413FB700423FB800433FB90087
:10475200AA319222A33103182F2C4001B101FF305C
:10476200B5316925A33140019A1140304101B500AC
:104772006030B4000030B3000030B2004530400178
:10478200E2001F30E100D830E0000030DF004030AE
:10479200C800A030C7000030C6000030C50011308C
:1047A200B131FE21A331400124084101BE00400184
:1047B20025084101BF00C001C10141084001BA0002
:1047C200410140084001B90041013F084001B800E1
:1047D20041013E084001B7000030AC31A224A331B0
:1047E20040013A08CC003908CB003808CA00370823
:1047F200C90093312423A33140014808E600470849
:10480200E5004608E4004508E3009E312E26A33168
:10481200400162084101B900400161084101B8004C
:10482200400160084101B70040015F084101B60044
:10483200AA319222A3310318202C0C302C2C733075
:1048420086002730870001192F2C7330860027300D
:10485200870001150D3090310420A3314130410110
:10486200B5005C30B400CC30B300CD30B2004A3079
:104872008600273087005131403FB600413FB700E4
:10488200423FB800433FB900AA319222A331031C30
:10489200652C41304101B5003030B4000030B30026
:1048A2000030B2004A308600273087005131403F45
:1048B200B600413FB700423FB800433FB900AA31BA
:1048C2009222A331031C692C0E309031042008007F
:1048D20041304101B5005030B4000030B300003027
:1048E200B2004A308600273087005131403FB6007F
:1048F200413FB700423FB800433FB900AA3192227C
:10490200A3310318AE2C41304101B5005C30B40034
:10491200CC30B300CD30B2004A3086002730870059
:104922005131403FB600413FB700423FB800433FDC
:10493200B900AA319222A331031CAE2C7330860037
:1049420027308700811808007330860027308700DF
:104952008114083090310420080041304101B50033
:104962003030B4000030B3000030B2004A3086006C
:10497200273087005131403FB600413FB700423FE8
:10498200B800433FB900AA319222A3310318F32C95
:1049920041304101B5003630B4006630B3006630B4
:1049A200B2004A308600273087005131403FB600BE
:1049B200413FB700423FB800433FB900AA319222BB
:1049C200A331031CF32C73308600273087000118B3
:1049D20008007330860027308700011409309031B7
:1049E200042008007330860027308700811073305E
:1049F2008600273087000110080041016F08CD00B2
:104A0200CE014D084001B10041014E084001B20003
:104A12001F30B3000030B400B131E221A431743050
:104A22004101CF002730D0004001310841014F073A
:104A3200D100400132084101503DD2000030B33173
:104A42005223A431410151088600520887005E3189
:104A520001030319342D51088600520887005E3184
:104A62000108031D372E40016B080319412DB101C6
:104A7200A730B200BA30B30000308731CE27A4315C
:104A820041015108103EBE000030523DBF00BE3011
:104A9200C3008030C2000030C1000030C0005108A5
:104AA2008600520887004431403FC400413FC500A0
:104AB200423FC600433FC7003E30CB008030CA00B1
:104AC2000030C9000030C800AD313825A4314101A1
:104AD20051088600520887005031403F4001A4002F
:104AE200413FA500423FA600433FA7000030AB0074
:104AF2000030AA000030A9000030A800B531B0256E
:104B0200A431031CB32D41016F08013ECD004D08B5
:104B12004001AD00AE01AE0AE430A8310220A4315A
:104B22004001B101B10A3430B200BB30B3000030F1
:104B32008731CE27A4314001B101B10AE430B2007D
:104B42000130B30005308731CE27A4314001B101D5
:104B5200B10A1130B200BB30B30006308731CE2724
:104B6200A431742E41015108860052088700503149
:104B7200403FB200413FB300423FB400433FB50063
:104B82000030B9000030B8000030B7000030B60085
:104B9200AA319222A4310318FD2D41016F08013E72
:104BA200CD004D084001AD00AE01AE0AE430A8319F
:104BB2000220A4314001B101B10A3430B200BB304D
:104BC200B30000308731CE27A4314001B101B10AD0
:104BD200E430B2000130B30005308731CE27A43172
:104BE2004001B101B10A1830B200BB30B300063047
:104BF2008731CE27A431742E4001B101B10A24308D
:104C0200B200BB30B30000308731CE27A43141015E
:104C120051088600520887005031403FBF00413F93
:104C2200C000423FC100433FC2000430CD004D08E6
:104C3200C300C401C40AE430A2312C22A4314001D1
:104C4200B101B10AE430B2000130B3000130873162
:104C5200CE27A4314001B101B10AE130B200BA302D
:104C6200B30005308731CE27A431742E5108860057
:104C7200520887005E31043001060319492E51089B
:104C82008600520887005E3103300106031D762E2E
:104C920040016B080319612EB1015930B200BA30DC
:104CA200B30000308731CE27A4314001B101B10AEF
:104CB2008D30B200BA30B30000308731CE27A43134
:104CC200B1317B21A431023A031D742E41015108F6
:104CD2001E3ECD000030523DCE004D0886004E08EB
:104CE20087000530810000300800013008004201D1
:104CF20068084001680603198B2E6808203E86006A
:104D0200023087000108BA00BB013A08BC003B0828
:104D1200BD008D2EBC01BD013C08BA003A08BE00A0
:104D22000230B1315121A631AF2FB101AC30B20006
:104D3200B830B30000308731CE27A6314001B1012F
:104D4200B10AE030B200B830B30000308731CE276C
:104D5200A631DE2FB101C630B200B830B300003048
:104D62008731CE27A6314001B101B10A0730B20026
:104D7200B930B30000308731CE27A631DE2FB10122
:104D82006F30B200B930B30000308731CE27A63180
:104D92004001B101B10A2E30B200B930B300003087
:104DA2008731CE27A631DE2FB101AC30B200B83048
:104DB200B30000308731CE27A6314001B101B10ADC
:104DC2007C30B200B930B30000308731CE27A63133
:104DD200DE2FB1018930B200B930B3000030873123
:104DE200CE27A6314001B101B10A3B30B200B93041
:104DF200B30000308731CE27A631DE2FB1018930D2
:104E0200B200B930B30000308731CE27A63140015D
:104E1200B101B10A1430B200B930B30000308731A9
:104E2200CE27A631DE2FB101B930B200B830B300BF
:104E320000308731CE27A6314001B101B10AFA30E4
:104E4200B200B830B30000308731CE27A631DE2F52
:104E5200B101B030B200B930B30000308731CE2793
:104E6200A6314001B101B10A2130B200B930B3001C
:104E720000308731CE27A631DE2FB1015530B20086
:104E8200B930B30000308731CE27A6314001B101DD
:104E9200B10AA330B200B930B30000308731CE2757
:104EA200A631DE2FB1019630B200B930B300003026
:104EB2008731CE27A6314001B101B10AA330B20039
:104EC200B930B30000308731CE27A631DE2FB101D1
:104ED2006F30B200B930B30000308731CE27A6312F
:104EE2004001B101B10ABD30B200B930B3000030A7
:104EF2008731CE27A631B1317B21A631013A031D7C
:104F0200DE2F40019A15DE2FB1016230B200B930B6
:104F1200B30000308731CE27A6314001B101B10A7A
:104F2200D330B200B830B30000308731CE27A6317B
:104F3200DE2FB101ED30B200B830B300003087315E
:104F4200CE27A6314001B101B10A4830B200B930D2
:104F5200B30000308731CE27A631DE2F40013E0854
:104F6200BA00BB013B08003A0319B82F9A2F3A083E
:104F7200013A0319962E043A0319AB2E033A031988
:104F8200C02E013A0319D52E0F3A0319EA2E013A1F
:104F92000319FF2E033A0319142F013A0319292F7B
:104FA200073A03193E2F013A0319682F033A0319EE
:104FB200532F013A0319852F9A2FB1317B21A63144
:104FC200013A031DFC2F42016808400168060319DB
:104FD200FC2F0A30A4000030A5006808013EA6009C
:104FE200003003180130A700B53123254001240801
:0E4FF200BA003A08E8004001EB01EB0A0800A3
:105004004001B3002E083307AF002F08860001309B
:10501400870081012D08031950282E0803195028F0
:105024000A30A4000030A5002D08AF00B0012F08FD
:10503400A6003008A700B5312325A8314001240873
:10504400303EB1000130AE022E083307B200320800
:10505400860001308700310881000A30A400003046
:10506400A5002D08AF00B0012F08A6003008A70046
:10507400B6319026A83140012408B1003108AD00B2
:105084000C282030AF000130AE022E083307B000E8
:1050940030088600013087002F0881002E0803198C
:1050A4000800432803104101360D370DB8003808B5
:1050B400BE003E08031D67280030B7000030B6006C
:1050C4000030B5000030B40008003408B8003508DA
:1050D400B9003608BA003708BB001F30BB36BA0C1B
:1050E400B90CB80C890B70283808BC003C08BD000A
:1050F400B617FF30B405FF30B505FF30B6050030F4
:10510400B7059630BE02BE1F9A283E08803A973EE5
:10511400031C5E280130B736B60CB50CB40C890BF1
:105124008D280130B8003808BE070319AB288C2835
:1051340020303E0203185E283E080319AB280130D4
:10514400B435B50DB60DB70D890BA2280130BE02DA
:105154009E283D0803190800B409B509B609B70922
:10516400B40A0319B50A0319B60A0319B70A0800E1
:105174000030B3315223A83140016B080319CB2806
:10518400B1012530B200BA30B30000308731CE27E8
:10519400A8316B304101BE002730BF00C230C300CC
:1051A4004830C2000030C1000030C000C130C70028
:1051B400A030C6000030C5000030C4003F30CB0032
:1051C4008030CA000030C9000030C800AD31382535
:1051D400A8316B30860027308700403F4101BF0073
:1051E400413FC000423FC100433FC2000330E000E2
:1051F4006008C300C401E430A2312C22A83140016C
:10520400B101B10A2430B200BB30B30000308731A1
:10521400CE27A8314001B101B10AE430B200013017
:10522400B30001308731CE27A8314001B101B10A62
:10523400BE30B200BA30B30004308731CE27A83173
:10524400B1317B21A831013A031D2C29AB310E2346
:1052540000300800013008000030B3315223A93176
:1052640040016B0803193F29B1016330B200B83023
:10527400B30000308731CE27A9316F304101BE0021
:105284002730BF003D30C300CC30C200CC30C10059
:10529400CD30C0004030C700A030C6000030C5008B
:1052A4000030C4003D30CB00CC30CA00CC30C90043
:1052B400CD30C800AD313825A9316F308600273094
:1052C4008700403F4101BF00413FC000423FC10051
:1052D400433FC2000330E0006008C300C401C40AB5
:1052E400E430A2312C22A9314001B101B10A2430A9
:1052F400B200BB30B30000308731CE27A931400162
:10530400B101B10AE430B2000130B3000130873199
:10531400CE27A9314001B101B10AC730B200BA3079
:10532400B30004308731CE27A931B1317B21A931B3
:10533400013A031DA129AB310E23003008000130CE
:1053440008000030B3315223A93140016B0803191E
:10535400B429B1013F30B200BA30B3000030873114
:10536400CE27A93167304101BE002730BF0000308D
:10537400C3000030C2000030C1000030C000413022
:10538400C7002030C6000030C5000030C4003F30E4
:10539400CB000030CA000030C9000030C800AD3175
:1053A4003825A9314A308600273087005D31403FD7
:1053B4004101BF00413FC000423FC100433FC20022
:1053C4000430E0006008C300C401C40AE430A23120
:1053D4002C22A9314001B101B10A1F30B200BB3007
:1053E400B30000308731CE27A9314001B101B10AA1
:1053F400E430B2000130B30006308731CE27A93142
:105404004001B101B10A4630B200BB30B3000A30EA
:105414008731CE27A931B1317B21A931013A031D4E
:10542400172AAB310E230030080001300800420176
:1054340067084101E800E901E835E90D0030680733
:105444008400B830693D8500013F8A00003F0A00AE
:10545400AA314101EA006A08EC004001EB01410174
:105464006C08E80068084001B700B1317B21AA311B
:105474004101E90069084001B800440135084001D0
:10548400A700440134084001A60044013308400148
:10549400A500440132084001A400B631E226AA3135
:1054A40040012708031D5F2A2608031D5F2AB13027
:1054B40024020430253B031C612A0130622A003097
:1054C4004101EA006A084001B90042016708AF31AE
:1054D4003827AA314101EB006B08ED00ED1B8E2A41
:1054E4006D08E800E901E81BE9034201670841018E
:1054F400EA00EB0169086B06031D822A68086A0644
:10550400031908004001EB01EB0A41016D08E800B2
:1055140068084201E70008000F30903104200800B9
:10552400003041013205BA0000303305BB00803041
:105534003405BC007F303505BD003D083C043B0408
:105544003A04031DAD2A0030B5000030B400003029
:10555400B3000030B20000303605BA000030370521
:10556400BB0080303805BC007F303905BD003D08E4
:105574003C043B043A04031DC72A0030B900003040
:10558400B8000030B7000030B600B51FE12A003083
:10559400BA000030BB000030BC008030BD003208CF
:1055A400BA023308BB3B3408BC3B3508BD3B3D085D
:1055B400B5003C08B4003B08B3003A08B200B91F78
:1055C400FB2A0030BA000030BB000030BC00803041
:1055D400BD003608BA023708BB3B3808BC3B390863
:1055E400BD3B3D08B9003C08B8003B08B7003A0889
:1055F400B6008030B5068030B90639083502031D7F
:10560400080038083402031D080037083302031D5C
:1056140008003608320208008930860027308700E7
:10562400403F4201A000413FA100423FA200433F4E
:10563400A300A830860027308700403FA400413FE4
:10564400A500423FA600433FA700C730860027308D
:105654008700403FA800413FA900423FAA00433FC2
:10566400AB00E630860027308700403FAC00413F66
:10567400AD00423FAE00433FAF004A3086002730C2
:1056840087005D31403FB000413FB100423FB2006E
:10569400433FB3006B30860027308700403FB4009F
:1056A400413FB500423FB600433FB7006F3086002C
:1056B40027308700403FB800413FB900423FBA005D
:1056C400433FBB004001B3013308203E8600013054
:1056D40087000108B100B2013335A03E860087017E
:1056E4003108C03F3208C13F0130B1003108B3076F
:1056F40020303302031C662B8030A4003F30A50009
:10570400B2313B22AB3180304001A7003F30A800CA
:10571400A030B1003108A900B7319B27080041012E
:10572400A0012008803E4001A4003F30031840300F
:10573400A500B2315B22AB3141012035283E860001
:10574400870140012408C03F2508C13F410120359D
:10575400283E8600870101084001A7004101200876
:10576400A13E860087014001270881000130A7007F
:1057740027084101A00720302002031C932B893005
:105784008600273087002108C03F2208C13F230834
:10579400C23F2408C33FA83086002730870025086D
:1057A400C03F2608C13F2708C23F2808C33FC7306F
:1057B4008600273087002908C03F2A08C13F2B08EC
:1057C400C23F2C08C33FE6308600273087002D08EF
:1057D400C03F2E08C13F2F08C23F3008C33F4A30A4
:1057E4008600273087005D313108C03F3208C13F51
:1057F4003308C23F3408C33F6B308600273087002C
:105804003508C03F3608C13F3708C23F3808C33F98
:105814006F308600273087003908C03F3A08C13FFF
:105824003B08C23F3C08C33F08004001191219114C
:10583400991141304001AB00EE30890B1F2CAB0BAA
:105844001F2C00004001991019109A121A120330EB
:10585400B431DE24AC3107304001AB007D30890B1C
:10586400312CAB0B312C0830B431DE24AC31073091
:105874004001AB007D30890B3D2CAB0B3D2C02303D
:10588400B431DE24AC3107304001AB007D30890BEC
:10589400492CAB0B492C0230B431DE24AC31073037
:1058A4004001AB007D30890B552CAB0B552C0830D7
:1058B400B431DE24AC3107304001AB007D30890BBC
:1058C400612CAB0B612C0830B1315121AC31073064
:1058D4004001AB007D30890B6D2CAB0B6D2C01307E
:1058E400B1315121AC3107304001AB007D30890B1F
:1058F400792CAB0B792C0630B1315121AC31073006
:105904004001AB007D30890B852CAB0B852C02301C
:10591400B1315121AC3107304001AB007D30890BEE
:10592400912CAB0B912C0C30B1315121AC3107309F
:105934004001AB007D30890B9D2CAB0B9D2C0800E6
:105944004001BF003F08031DBA1FB82C3709C1002E
:105954003809C2003909C3003A09C400C10A03194D
:10596400C20A0319C30A0319C40AC02C3A08C400A2
:105974003908C3003808C2003708C1003A0839049E
:1059840038043704031DCF2C0030BA000030B900AE
:105994000030B8000030B70008009630BB003B0868
:1059A400C000FE3044050319F62C0130BB003B084F
:1059B400C0070130C436C30CC20CC10C890BDC2CEB
:1059C400D32C0130BB003B08C0070130C1070030B5
:1059D400C23D0030C33D0030C43D0130C436C30C69
:1059E400C20CC10C890BF02CFF3044050319082D9F
:1059F400E32C02304002031C0A2D0130C0020130A6
:105A0400C135C20DC30DC40D890B022DC31FFB2C60
:105A14004018142DFF30C105FF30C2057F30C30587
:105A2400FF30C4050310C00C4008BB00BC01BD011D
:105A3400BE011830BB35BC0DBD0DBE0D890B1C2D30
:105A44003B08C1043C08C2043D08C3043E08C40426
:105A54003F08031DBA1F2F2DC4174408BA0043087A
:105A6400B9004208B8004108B7000800B1317021FC
:105A7400AD314001E70067084101CC0002304C061B
:105A8400031D822D4308B5004208B4004108B30049
:105A94004008B2003E0886003F088700403FB60039
:105AA400413FB700423FB800433FB900AA319222B8
:105AB400AD310318822D41014B08AF004A08AE00F6
:105AC4004908AD004808AC003E0886003F0887003E
:105AD400403FB000413FB100423FB200433FB300FA
:105AE400B331832341013E0886003F0887002C0818
