:020000040000FA
:0400000080314728DC
:100008007E1480314E01961E0A280B2815288C1E56
:100018000E280F281528B2304B019C004E018C1277
:100028004528161E182819281F280C1E1C281D28AC
:100038001F28452845280B1F2228232845281A1C35
:10004800262827283328101C2A282B283328CF3085
:1000580044018D002B308C004E0110104528991E4C
:100068003628372845288F1E3A283B2845288031CE
:10007800EF2080314E018F12452845284528452814
:1000880045287E100900803149289C308400823040
:1000980085005D3086000030870008308231A42258
:1000A8008031F601F701F801203084000030850026
:1000B8002D308231AA2280317E1040018131B5294C
:1000C800400119121911991141304001D400EE3044
:1000D800890B6C28D40B6C2800004001991019106A
:1000E8009A121A120330813175218031073040018C
:1000F800D4007D30890B7E28D40B7E2808308131CE
:100108007521803107304001D4007D30890B8A2861
:10011800D40B8A28023081317521803107304001A3
:10012800D4007D30890B9628D40B96280230813173
:100138007521803107304001D4007D30890BA22819
:10014800D40BA22808308131752180310730400155
:10015800D4007D30890BAE28D40BAE28083082310C
:100168008822803107304001D4007D30890BBA28BD
:10017800D40BBA28013082318822803107304001FF
:10018800D4007D30890BC628D40BC62806308231AE
:100198008822803107304001D4007D30890BD22875
:1001A800D40BD228023082318822803107304001B6
:1001B800D4007D30890BDE28D40BDE280C30823148
:1001C8008822803107304001D4007D30890BEA282D
:1001D800D40BEA28080042019D1CF328F428FB28C8
:1001E8001D121D160130F5007508F707FB281D1DA7
:1001F800FE28FF2806299D139D170130F500750874
:10020800F80706291430760203180B290C2932291D
:100218001908F5007608253E8600870175088100D3
:100228007608F60A253E860087010A300106031D76
:100238001E291F2934297608253E86008701810159
:100248004001A401A40A2530F5007508F0003930F2
:1002580082313B228031F60134293429F6013429D0
:10026800080002305101930060308D003B290F1EB9
:100278003E293F293B29402920307E01B800C3018F
:100288000330CE00F0304001920093018730940093
:10029800E03041019E0080304B019E0047309F00B6
:1002A800B2309C00333044018E0001309100CF30D1
:1002B8008D002B308C0030304E0196002030990094
:1002C80001309A00B0307E01BD00B030BE0004306D
:1002D800D400083042019F0019309B0090309D00E7
:1002E80008004001CF004F080139CD00CD0D190895
:1002F8004D06FD394D0699004F08CD000130CD3629
:10030800890B832901304D05CE0019084E06FE39A8
:100318004E0699004F08CD000230CD36890B912941
:100328004D080139CE00CE0ECE0D1A084E06DF3923
:100338004E069A004F08CD000330CD36890BA1290F
:100348004D080139CE00CE0E1A084E06EF394E067A
:100358009A001030890BAE29003282319322813104
:100368000800813135218131400199169A15803173
:10037800642081318231B02281310130823188227A
:1003880081314001D4016F30D5008230D600003071
:100398008131E8218131C0308B00640040012403A1
:1003A800031DD729D829D129A401D401D40A393069
:1003B800D5000030D60000308131E8218131D129C3
:1003C800D129D129803147284001DC006008DB00B1
:1003D8005F08DA005E08D9005D08D8005408583E66
:1003E8008600870101085C078038823188228131C4
:1003F8000C2A4001550884005608850000088231FF
:100408007C22813101304001D5070030D63D0C2ACD
:10041800400155088400560885001200031D152A5E
:10042800162AFD29172A08004001CD01CD0A141605
:100438001912991519110330890B202A000040015F
:1004480019150330890B262A0000003040010E1AC6
:100458000130CD00191182319322823140014D08BB
:10046800031D372A382A1E2A141299110800F4008D
:100478007008F1007108F2007408F1007108F300C7
:10048800462A462A730886008701F30A7208840000
:100498008501F20A0008C03F8908031D542A552A1D
:1004A800462A562A08004001D200500C031C191293
:1004B8000318191699115208D1000430D136890B46
:1004C800622A5108813175218231400152088131F7
:1004D800752182310800483465346C346C346F34CB
:1004E800203457346F3472346C346434213400341B
:1004F8004001D300D001D00A5308823157228231FB
:1005080082311822823108004001D300D0015308FB
:10051800823157228231823118228231080040010B
:1005280019151030890B962A00324001191108005C
:1005380000344034143454340034403414345434C3
:10054800FE0012001E00FE0BA52A00346400800184
:100558000131890BAB2A0034023082318822823182
:02056800080089
:020000040001F9
:0A000E00EF3FFF3F9F3FFF3FFF3F22
:00000001FF
