:020000040000FA
:10000000803168283C3008007E1480314E01961AF9
:100010008C1E15280130F80078084301CA07B23059
:100020004B019C004E018C126628161A0C1E3128BA
:100030007E01BF1F2028AC31332480317E01BF13E5
:100040003F1E27289831012080317E013F12BF1EBC
:100050002E289831012080317E01BF124E010C12F2
:1000600066280B1F66281A18101C5F2843012308F6
:10007000FB002208FA002108F9002008F8000130EE
:10008000A0070030A13DA23DA33D00307802CA3058
:10009000793B9A307A3B3B307B3B031C572800303E
:1000A000A3000030A2000030A1000030A000CF303B
:1000B00044018D002B308C004E0110106628991AD7
:1000C0008F1E6628AE316B264E018F127E100900FE
:1000D00080316A2843018731FF278031EF00583093
:1000E0008400AB3085004B30860002308700003042
:1000F000FF002130A931E921803176308400AA3017
:100100008500D1308600023087000030FF001830B3
:10011000A931E921803153308400273085009D309A
:10012000FE000030FF00A931DD218031FC01FD011E
:10013000A0308400013085003B30FE000030FF001D
:10014000A931DD21803120308400023085002B3040
:10015000FE000030FF00A931DD218031A030840095
:10016000023085003130FE000030FF00A931DD2172
:10017000803120308400033085005030FE00003094
:10018000FF00A931DD217E104001A331E12B4101A7
:10019000C900CA01CB012D08DF002C08DE002B08A6
:1001A000DD002A08DC005F084001CB0041015E0849
:1001B0004001CA0041015D084001C90041015C08DD
:1001C0004001C8000030CF000030CE000030CD002C
:1001D0000030CC00A331652380310318162901308B
:1001E0004101CA000030CB005F084001A30041017B
:1001F0005E084001A20041015D084001A1004101EB
:100200005C084001A000A931A721803140012308EA
:100210004101DF00400122084101DE0040012108C8
:100220004101DD00400120084101DC004101E20103
:10023000E30143012F084101D00043012E08410191
:10024000CF004A084B04031D28294301321D4229CF
:1002500041014A084B04031D2F292B3030292D3032
:10026000B3000030B40033084001EC006C084601D4
:10027000A00001304101E2070030E33DFF30CF072D
:10028000FF30D03D41015F084001A30041015E08FD
:100290004001A20041015D084001A10041015C084C
:1002A0004001A000A231ED22803140012003210451
:1002B000031DB02941012E08BF3E4001EC00FF3074
:1002C00003180030ED0000306D021A3003196C0283
:1002D00003186C2901306D290030EE00EF016E0823
:1002E0004101B50040016F084101B60035083604F0
:1002F000031984296208203E4001A5000330A600AE
:100300007C30A700B2308D296208203E4001A50054
:100310000330A6008430A700B230A800AB319B2385
:100320008031FD304101CF07FF30D03D203040010A
:10033000EC006C08B000410150084001B2004101DE
:100340004F084001B10041014908AF31AD274001DC
:1003500031084101AB00400130084101AA0008000A
:1003600041015F084001A30041015E084001A20075
:1003700041015D084001A10041015C084001A0006D
:10038000A231ED228031400120082104031D1E2AE4
:1003900041012E08BF3E4001EC00FF300318003041
:1003A000ED0000306D021A3003196C020318DA29CF
:1003B0000130DB290030EE00EF016E084101B7008B
:1003C00040016F084101B800370838040319F229C9
:1003D0006208203E4001A5000330A6008030A7003F
:1003E000B230FB296208203E4001A5000330A60080
:1003F0008830A700B230A800AB319B238031FD309C
:100400004101CF07FF30D03D20304001EC006C08A7
:10041000B000410150084001B20041014F084001C5
:10042000B10041014908AF31AD2740013108410118
:10043000AB00400130084101AA0008003F304101F3
:10044000E7008030E6000030E5000030E400E00125
:10045000E1015F084001A30041015E084001A200E4
:1004600041015D084001A10041015C084001A0007C
:100470000030A7000030A6000030A5000030A40026
:10048000AE3122268031031C762A052B41304001F3
:10049000B1002030B0000030AF000030AE004101AC
:1004A00067084001B500410166084001B400410100
:1004B00065084001B300410164084001B2008A317F
:1004C00027228031400131084101E7004001300816
:1004D0004101E60040012F084101E50040012E08DE
:1004E0004101E4000130E0070030E13D41015F08D7
:1004F0004001CB0041015E084001CA0041015D0896
:100500004001C90041015C084001C8004130B10010
:100510002030B0000030AF000030AE00410167086D
:100520004001B500410166084001B4004101650881
:100530004001B300410164084001B2008A31272222
:10054000803140013108CF003008CE002F08CD00A7
:100550002E08CC00A33165238031031CE02A462AF3
:1005600041304001CB002030CA000030C9000030CB
:10057000C800410167084001CF0041016608400101
:10058000CE00410165084001CD00410164084001F1
:10059000CC009131D021803140014B084101E7006E
:1005A00040014A084101E600400149084101E500D7
:1005B000400148084101E400FF30E007FF30E13D21
:1005C00041015F084001CB0041015E084001CA00C3
:1005D00041015D084001C90041015C084001C800BB
:1005E000410167084001CF00410166084001CE008B
:1005F000410165084001CD00410164084001CC0083
:10060000A33165238031031CB02A41012E0840012B
:10061000EC00ED016C08A6006D08A700AB31792352
:10062000803140012608EE006E084101D1005108DA
:100630004001EC006C084101CE0067305106031DFB
:100640003D2B430130083104031D2A2B0130B0003B
:100650000030B1003108803A4001EC0080306C027B
:10066000031D352B0130430130020318402B0630A7
:100670004101CC000030CD00482B4301B11B372B8A
:10068000430131084101CD00430130084101CC0054
:1006900067305106031D7B2B6108803A4001EC0056
:1006A0007F306C02031D572BFC3041016002031C9C
:1006B000752B41014C08FF3E4001EC00FF30410129
:1006C0004D3D4001ED006D08803AEE0041016108AA
:1006D000803A40016E02031D712B41016008400108
:1006E0006C02031C752B6630762B65304001EC00E4
:1006F0006C084101CE004D08C4004C08C3006730AF
:100700005106031D882B66304E060319E11F8C2B02
:100710000130C3070030C43D66304E06031DA42BD4
:10072000E11F9C2B3F30E7008030E6000030E50001
:100730000030E400E001E101673051060319A42B09
:100740006008C3076108C43DDA01DB015F08D5001A
:100750005E08D4005D08D3005C08D2006708B200D0
:100760006608B1006508B0006408AF005B08803A15
:100770004001EC0041014408803A40016C02031D35
:10078000C42B410143085A0203189E2C41016708FB
:100790004001CB00410166084001CA0041016508E3
:1007A0004001C900410164084001C80041015508E9
:1007B0004001CF00410154084001CE0041015308DF
:1007C0004001CD00410152084001CC009131D021BF
:1007D000803140014B08E5004A08E4004908E30085
:1007E0004808E2009D3181258031400165084101C2
:1007F000D900400164084101D8004001630841016B
:10080000D700400162084101D60059084001A30009
:10081000410158084001A200410157084001A100D0
:10082000410156084001A000A2311E228031400142
:1008300021084101C800400120084101C7005908B2
:100840004001B500410158084001B400410157087A
:100850004001B300410156084001B2004101670860
:100860004001B100410166084001B0004101650846
:100870004001AF00410164084001AE008A312722E7
:10088000803140013108DF003008DE002F08DD0034
:100890002E08DC00410155084001E30041015408E5
:1008A0004001E200410153084001E10041015208CA
:1008B0004001E000AB311923803140015F08410164
:1008C000D50040015E084101D40040015D084101AE
:1008D000D30040015C084101D20041304001CB000F
:1008E0002030CA000030C9000030C800410167084C
:1008F0004001CF00410166084001CE00410165087A
:100900004001CD00410164084001CC009131D0216B
:10091000803140014B084101E70040014A08410194
:10092000E600400149084101E50040014808410155
:10093000E4000130DA070030DB3DB62B40304001E7
:10094000B100A030B0000030AF000030AE00410177
:1009500067084001B500410166084001B40041014B
:1009600065084001B300410164084001B2008A31CA
:1009700027228031400131084101D900400130086F
:100980004101D80040012F084101D70040012E0845
:100990004101D60055084001CB00410154084001F7
:1009A000CA00410153084001C900410152084001F9
:1009B000C800410159084001CF00410158084001D9
:1009C000CE00410157084001CD00410156084001C9
:1009D000CC00A331652380310318F12C0030410194
:1009E0001A2D410155084001A3004101540840015E
:1009F000A200410153084001A100410152084001F9
:100A0000A000410159084001A700410158084001D8
:100A1000A600410157084001A500410156084001C8
:100A2000A400AE3122268031031C212D410147183C
:100A3000212D0030D9000030D8000030D700003020
:100A4000D600410159084001CB004101580840013E
:100A5000CA00410157084001C90041015608400140
:100A6000C80041015F084001CF0041015E0840011C
:100A7000CE0041015D084001CD0041015C0840010C
:100A8000CC0088314520803140014B084101D50020
:100A900040014A084101D400400149084101D30006
:100AA000400148084101D2003208E7003108E60061
:100AB0003008E5002F08E40065304E060319652D67
:100AC0006108C6006008C500672DC501C601C101E7
:100AD000C201BF01C001DA01DB01AE2E410167088E
:100AE0004001CB00410166084001CA004101650890
:100AF0004001C900410164084001C8004101550896
:100B00004001CF00410154084001CE00410153088B
:100B10004001CD00410152084001CC009131D0216B
:100B2000803140014B08E5004A08E4004908E30031
:100B30004808E2009D31812580314001650841016E
:100B4000D900400164084101D80040016308410117
:100B5000D700400162084101D60059084001A300B6
:100B6000410158084001A200410157084001A1007D
:100B7000410156084001A000A2311E2280314001EF
:100B800021084101C800400120084101C70043017C
:100B9000321AD92D410147084804031DD92D673069
:100BA00051060319C61FD92D0130BF070030C03DC3
:100BB0002C2E4101410842040319C61FF82D2E3086
:100BC0004001EC0041016208203E860003308700AE
:100BD00040016C08810001304101E2070030E33D33
:100BE000FF30CF07FF30D03D0130C1000030C200E0
:100BF0003F0840040319162E30304001EC0041013B
:100C00006208203E86000330870040016C088100A6
:100C100001304101E2070030E33DFF30CF07FF30F4
:100C2000D03DFF30BF07FF30C03DF82D4708303EB4
:100C30004001EC0041016208203E8600033087003D
:100C400040016C08810001304101E2070030E33DC2
:100C5000FF30CF07FF30D03D59084001B5004101BA
:100C600058084001B400410157084001B300410158
:100C700056084001B200410167084001B10041013E
:100C800066084001B000410165084001AF00410124
:100C900064084001AE008A312722803140013108CA
:100CA000DF003008DE002F08DD002E08DC004101E7
:100CB00055084001E300410154084001E2004101B0
:100CC00053084001E100410152084001E000AB310E
:100CD0001923803140015F084101D50040015E08C1
:100CE0004101D40040015D084101D30040015C088E
:100CF0004101D20041304001CB002030CA00003019
:100D0000C9000030C800410167084001CF0041011F
:100D100066084001CE00410165084001CD00410157
:100D200064084001CC009131D021803140014B0852
:100D30004101E70040014A084101E600400149083D
:100D40004101E500400148084101E400FF30C507CA
:100D5000FF30C63D0130DA070030DB3D5B08803AEA
:100D60004001EC0041014408803A40016C02031D3F
:100D7000BC2E410143085A020318CC2E41016308DE
:100D8000803A4001EC0080306C02031DCA2E4B30CB
:100D900041016202031C6E2D410141084204031D02
:100DA000E52E4301321EE52E2E304001EC004101BC
:100DB0006208203E86000330870040016C088100F5
:100DC00001304101E2070030E33D41016208203E6D
:100DD000860003308700810165304E06031DC82F51
:100DE0004F30DA000030DB005A08203E8600033026
:100DF00087008101CA01CB01E11F072F0130CA0022
:100E00000030CB00E009E109E00A0319E10A0230F1
:100E1000CC000030CD00600861040319512FFF3071
:100E20004101DA07FF30DB3D0A304001A00000300D
:100E3000A100410161084001A30041016008400197
:100E4000A200AD319425803140012008303EEC00F5
:100E500041015A08203E86000330870040016C089B
:100E600081000A30A0000030A1004101610840016A
:100E7000A300410160084001A200AE31B6268031D6
:100E8000400121084101E100400120084101E0004A
:100E9000FF30CC07FF30CD3DFF30CF07FF30D03DD6
:100EA0000B2F4D08803A4001EC0080306C02031D8E
:100EB0005C2F013041014C0203180F2FFF3041011C
:100EC000DA07FF30DB3D4A084B04031D692F2B3046
:100ED0006A2F2D30B9000030BA0039084001EC000B
:100EE00041015A08203E86000330870040016C080B
:100EF0008100FF304101CF07FF30D03DFF30DA07DE
:100F0000FF30DB3D2E08BF3E4001EC00FF300318F0
:100F10000030ED0000306D021A3003196C02031826
:100F2000932F0130942F0030EE00EF016E08410145
:100F3000BD0040016F084101BE003D083E04031D95
:100F4000A32F6530A42F4530BB000030BC003B0808
:100F50004001EC0041015A08203E86000330870022
:100F600040016C088100FF304101CF07FF30D03DC8
:100F70006208203E4001A5000330A60041015A0846
:100F8000203E4001A7000330A800AB319B238031F5
:100F900020304001EC006C08B000410150084001D5
:100FA000B20041014F084001B10041014908AF3191
:100FB000AD27400131084101AB004001300841013B
:100FC000AA0008004001A401A40A20302006210440
:100FD0000319F72F2008F73EA200FF30213DA300A0
:100FE000003023020530031922020318A40124084B
:100FF000A200A3012208A0002308A10008000134D8
:1010000008004001AB00AC012C08A800A901280889
:10101000A0002908A1000330A2000030A300AA31DB
:10102000C122883140012108850020088400003059
:101030008407B030853D00082B06031D3A282C0894
:10104000A800A9012808A0002908A1000330A200D7
:101050000030A300AA31C1224001210885002008E8
:10106000840001308407B030853D003FA600013F79
:10107000A70008000130A8002808AC0709302C029E
:10108000031C0428A601A701080040014B08803971
:10109000D0005008D8004B35D0005008DA00CA1BE9
:1010A0005A145A08031962285A0A031D5F2800308F
:1010B000CB000030CA000030C9000030C800CA1799
:1010C000CB016A280030CB000030CA000030C900D4
:1010D0000030C8004F088039D0005008D9005908A6
:1010E0005806031D58174F35D0005008D900CE1BA5
:1010F0005914590803198A28590A031D87280030F2
:10110000CF000030CE000030CD000030CC00CE1734
:10111000CF0192280030CF000030CE000030CD004B
:101120000030CC005A0859020318D828581F9C28B0
:101130008030D0005008D8065A08D0005008DB0094
:101140005908D0005008DA005B08D0005008D900D8
:101150004808D0005008DB004C08D0005008C800F8
:101160005B08D0005008CC004908D0005008DB00D4
:101170004D08D0005008C9005B08D0005008CD00D1
:101180004A08D0005008DB004E08D0005008CA00C2
:101190005B08D0005008CE004B08D0005008DB00A0
:1011A0004F08D0005008CB005B08D0005008CF009B
:1011B000DB015908D000D1015108D3005A08500270
:1011C000D200031CD3035308803AD4008030540269
:1011D000031DEC281A305202031C202940014B0841
:1011E0004A04490448040319F7280130F82800305C
:1011F000D0005008DB000030CB000030CA000030C7
:10120000C9000030C8005908D0005008DA0025296C
:101210005B1C10295B360138D0005008DB00122916
:101220000310DB0C4818DB170130D000CB37CA0C99
:10123000C90CC80CD00B16290130D0005008DA07B1
:10124000400159085A02031C0829581B56295A08FC
:10125000031D33290030CB000030CA000030C90024
:101260000030C80008004C08C8074D08C93D4E08AA
:10127000CA3D4F08CB3D4B1CD0295B1C45295B3632
:101280000138D0005008DB0047290310DB0C481858
:10129000DB170130D000CB37CA0CC90CC80CD00BFF
:1012A0004B290130D0005008DA07D0294B08803A8A
:1012B000D0004F08803A5002031D68294E084A02A8
:1012C000031D68294D084902031D68294C0848027E
:1012D0000318A029FF30D000FF30D100FF30D2002A
:1012E000FF30D30048084C02D40049084D3BD500DC
:1012F0004A084E3BD6004B084F3BD7005408D00756
:101300005508D13D5608D23D5708D33D5308CB0070
:101310005208CA005108C9005008C8008030D000E7
:101320005008D806DB09DB0A5B08031DA829013039
:10133000C8070030C93D0030CA3D0030CB3DA82968
:101340004C08C8024D08C93B4E08CA3B4F08CB3B6E
:101350004B084A0449044804031DCE295B08031DB9
:10136000CE290030CB000030CA000030C900003068
:10137000C80008000130C835C90DCA0DCB0D890B56
:10138000BB29DB1B48145B1CC7290314C8290310A5
:10139000DB0D5A080319CE290130DA02CA1FBA2917
:1013A000D901DB1FDB295B087F3903194818D929CC
:1013B000DB29D901D90A59080319072A0130C807BE
:1013C0000030C93D0030CA3D0030CB3D4B1C072AE0
:1013D0004808D0004908D1004A08D2004B08D30081
:1013E0000130D400D337D20CD10CD00CD40BF2295D
:1013F0005308CB005208CA005108C9005008C80061
:101400005A0A0319072A0130D0005008DA075A0A8D
:10141000031D5A08031D172A0030CB000030CA00F4
:101420000030C9000030C8005A080319D8015A1CFE
:101430001B2ACA171F2A7F30D0005008CA055A3607
:10144000D0005008CB00D81F0800CB17080040017F
:1014500031088039B6003608BB003135B600360891
:10146000C100B01B411441080319432A410A031D5E
:10147000412A0030B1000030B0000030AF00003031
:10148000AE00B0174B2A0030B1000030B000003081
:10149000AF000030AE0035088039B6003608BB0614
:1014A0003535B6003608BC00B41B3C143C080319A3
:1014B000662A3C0A031D642A0030B5000030B400DF
:1014C0000030B3000030B200B4176E2A0030B5000F
:1014D0000030B4000030B3000030B2003C08031DFF
:1014E0004108031D7C2A0030B1000030B0000030FC
:1014F000AF000030AE0008002E08B6003608A0008D
:101500003408AB3138238A3140012108C700200854
:10151000C6004608B600B701B801B9013908C000D5
:101520003808BF003708BE003608BD004708B600BF
:10153000B701B801B9013908C5003808C400370837
:10154000C3003608C2002F08B6003608A0003308D2
:10155000AB3138238A3140012108C7002008C6007A
:101560004608B600B701B801B9013608BD0737080B
:10157000BE3D3808BF3D3908C03D4708B600B70139
:10158000B801B9013608C2073708C33D3808C43D61
:101590003908C53D3008B6003608A0003208AB3126
:1015A00038238A3140012108C7002008C6004608B8
:1015B000B600B701B801B9013608BD073708BE3D0E
:1015C0003808BF3D3908C03D4708B600B701B8012B
:1015D000B9013608C2073708C33D3808C43D390889
:1015E000C53D0830BD35BE0DBF0DC00D890BF22ABB
:1015F0002F08B6003608A0003208AB3138238A31F4
:1016000040012108C7002008C6004608BD0747085A
:10161000BE3D0030BF3DC03D2E08B6003608A000DC
:101620003308AB3138238A3140012108C700200834
:10163000C6004608BD074708BE3D0030BF3DC03D5F
:101640000830BD35BE0DBF0DC00D890B212B2E08F6
:10165000B6003608A0003208AB3138238A31400189
:101660002108C7002008C6004608BD074708BE3D40
:101670000030BF3DC03D2F08B6003608A00034083A
:10168000AB3138238A3140012108C7002008C60049
:101690004608C2074708C33D0030C43DC53D300879
:1016A000B6003608A0003308AB3138238A31400138
:1016B0002108C7002008C6004608C2074708C33DE6
:1016C0000030C43DC53D3008B6003608A0003408DF
:1016D000AB3138238A3140012108C7002008C600F9
:1016E0004608B6004708B700B801B9010830B6355A
:1016F000B70DB80DB90D890B772B3608C20737081F
:10170000C33D3808C43D3908C53D3D08B6003E0814
:10171000B7003F08B8004008B9001830B936B80C17
:10172000B70CB60C890B8E2B3608C2073708C33DA1
:101730003808C43D3908C53D0830BD35BE0DBF0D64
:10174000C00D890B9D2B41083C07B600B701B70DB2
:101750003608823EC600FF30373DC700C41BC52B8C
:101760000130C235C30DC40DC50D890BB12BC01B93
:1017700042140130BD35BE0DBF0DC00D890BBA2B13
:10178000FF30C607FF30C73DAE2BBC01C01FDE2BAC
:10179000FF303D05B600FF303E05B700FF303F0586
:1017A000B8007F304005B9003908380437043604E2
:1017B00003194218DC2BDE2BBC01BC0A3C080319C0
:1017C000072C0130C2070030C33D0030C43D00305B
:1017D000C53D451C072C4208B6004308B700440825
:1017E000B8004508B9000130BA00B937B80CB70CD9
:1017F000B60CBA0BF52B3908C5003808C4003708F9
:10180000C3003608C2000130C6070030C73D470894
:10181000803AB60080303602031D102CFF3046029D
:10182000031C1C2C7F304001C5008030C4000030F8
:10183000C3000030C200462C40014708803AB60081
:1018400080303602031D262C013046020318332C4B
:1018500000304001C5000030C4000030C30000303B
:10186000C200BB01462C40014608B6003608C10044
:10187000FF30C205FF30C3057F30C4050030C50509
:101880004118C4174136B6003608C5003B08B600FB
:101890003608C5044508B1004408B0004308AF004D
:1018A0004208AE0008004201B80041016808860005
:1018B00001308700403FEA00413FEB006A088400A6
:1018C0006B0885001200253A031DD52F6808860095
:1018D000013087000130810741310318810A43013B
:1018E000AE01AF01B201B301FF30B000FF30B10073
:1018F00041016808860001308700403FEA00413F0F
:10190000EB006A0884006B08850012002A3A031D68
:10191000AA2C680886000130870001308107413118
:101920000318810A690886000130870001088400D5
:101930000130850002308107003F4301AE00013FC6
:10194000AF00AF1FF42C3214AE09AF09AE0A031971
:10195000AF0AF42C6808860001308700403F400140
:10196000A600413FA700A631AC268C3140012708D4
:101970004301AF00400126084301AE00C92C4101DC
:101980006808860001308700013081074131031863
:10199000810A41016808860001308700403FEA0063
:1019A000413FEB006A0884006B0885000008D03EC8
:1019B000EC00FF3003180030ED0000306D020A30FB
:1019C00003196C020318E62C0130E72C0030EE00FE
:1019D000EF016E084201AA0041016F084201AB000D
:1019E0002A082B04031DBF2C410168088600013022
:1019F0008700403FEA00413FEB006A0884006B0823
:101A0000850012002E3A031D852D4301B001B1015E
:101A100041016808860001308700013081074131AB
:101A20000318810A6808860001308700403FEA00F9
:101A3000413FEB006A0884006B08850012002A3AD7
:101A4000031D3B2D680886000130870001308107A7
:101A500041310318810A69088600013087000108B6
:101A600084000130850002308107003F4301B0004F
:101A7000013FB100852D6808860001308700403F96
:101A80004001A600413FA700A631AC268C314001A1
:101A900027084301B100400126084301B0005A2D38
:101AA000410168088600013087000130810741311B
:101AB0000318810A41016808860001308700403F11
:101AC000EA00413FEB006A0884006B0885000008CB
:101AD000D03EEC00FF3003180030ED0000306D0206
:101AE0000A3003196C020318772D0130782D00306D
:101AF000EE00EF016E084201AC0041016F084201A7
:101B0000AD002C082D04031D502D410168088600EE
:101B100001308700403FEA00413FEB006A08840043
:101B20006B0885000008EC00ED016C084001A60080
:101B300041016D084001A700AB3179238C31400190
:101B400026084101EE006E084201B4003408031972
:101B5000F42D41016808860001308700403FEA000B
:101B6000413FEB0001306A0784006B0803186B0AE1
:101B700085000008EC00ED016C084001A600410161
:101B80006D084001A700AB3179238C314001260854
:101B90004101EE006E084201B50035080319F42D2D
:101BA00041016808860001308700403FEA00413F5C
:101BB000EB0002306A0784006B0803186B0A85008B
:101BC0000008EC00ED016C084001A60041016D0821
:101BD0004001A700AB3179238C3140012608410137
:101BE000EE006E084201B60041016808860001302F
:101BF0008700403FEA00413FEB006A0884006B0821
:101C000085001200643A0319152E68088600013019
:101C10008700403FEA00413FEB006A0884006B0800
:101C200085001200693A031D682E6808860001309D
:101C300087000130810741310318810A6908860055
:101C400001308700010884000130850002308107DF
:101C5000003FEA00013FEB006A084201A000410199
:101C60006B084201A100890D893B8909A200A300EC
:101C7000A400A500A600A70020084001BB00420167
:101C800021084001BC00420122084001BD00420180
:101C900023084001BE00420124084001BF00420168
:101CA00025084001C000420126084001C100420150
:101CB00027084001C200420138089E31AF2640018A
:101CC0003C084101E90040013B084101E8000800EF
:101CD000663042013406031DBB2E410168088600B0
:101CE00001308700403FEA00413FEB006A08840072
:101CF0006B0885000008EC006C084201B700410148
:101D000068088600013087000130810741310318DF
:101D1000810A6908860001308700010884000130CB
:101D2000850004308107003F4201B000013FB1004F
:101D3000023FB200033FB30033084101AD0042014E
:101D400032084101AC00420131084101AB004201BF
:101D500030084101AA00420137084101EA006A083F
:101D6000AE00420138088031C72041012B08E9004C
:101D70002A08E80008008C304001A000B230A10021
:101D80000230A2000030A3003430AF3108278C317C
:101D9000400120082104031D5F2F410168088600CF
:101DA00001308700403FEA00413FEB0001306A0705
:101DB00084006B0803186B0A85000008EC006C08AF
:101DC0004201B70041016808860001308700403FAA
:101DD000EA00413FEB006A0884006B0885000008B8
:101DE000BF3EEC00FF3003180030ED0000306D0204
:101DF0001A3003196C020318FF2E0130002F003037
:101E0000EE00EF016E084201AE0041016F08420191
:101E1000AF002E082F040319212F41016908860005
:101E200001308700010884000130850004308107FB
:101E3000003F4201B000013FB100023FB200033F4A
:101E4000342F4101690886000130870001088400B1
:101E50000130850004308107003F4201B000013F9E
:101E6000B100023FB200033FB300410168088600A1
:101E7000013087000230810741310318810A420195
:101E800033084101AD00420132084101AC0042017A
:101E900031084101AB00420130084101AA00420172
:101EA00037084101EA006A08AE0042013808803173
:101EB000C72041012B08E9002A08E8000800410179
:101EC0006808860001308700403FEA00413FEB0090
:101ED0006A0884006B0885001200733A031D9C2F6A
:101EE00068088600013087000130810741310318FE
:101EF000810A6908860001308700010884000130EA
:101F0000850002308107003F4201A800013FA9007F
:101F100029084001A900420128084001A800420107
:101F2000380898313920400129084101E900400171
:101F300028084101E8000800680886000130870091
:101F4000403FEA00413FEB006A0884006B088500CF
:101F50001200253A031DC92F68088600013087004A
:101F60000130810741310318810A25304001A0006A
:101F70000030A100420138084101EA006A0840012E
:101F8000A200AF315A2701304101E8000030E900DA
:101F90000800680886000130870001308107413160
:101FA0000318810AE801E901080068088600013089
:101FB0008700403FEA00413FEB006A0884006B085D
:101FC00085000008EC00ED016C084001A000410113
:101FD0006D084001A100420138084101EE006E0881
:101FE0004001A200AF315A278C31410168088600B8
:101FF000013087000130810741310318810AC32F66
:102000004301CA0108000230A931932108004001B0
:10201000AA004E011612A931C72190314001A80033
:102020002808AB002B0843013C06031D672840012C
:102030002B03031D47282708FF3EA800FF30031885
:102040000030A9002908803A803C031D292828086F
:102050002A020318472801304001A8002808AA07CF
:10206000AC01A9317E2190311A304001A800F8302E
:10207000890B3828A80B3828000001304001A8003F
:102080002808AC070C302C020318672831280230CE
:1020900040012B06031D67282A0803196728013011
:1020A000AA02AC01A931822190311A304001A80066
:1020B000F830890B5928A80B59280000013040013D
:1020C000A8002808AC070C302C02031C5228400141
:1020D0002B08A80028084301BC004E011616400139
:1020E0002A0808004001540886005508870050312E
:1020F000403FC800413FC900423FCA00433FCB00B8
:10210000C130CF00F030CE000030CD000030CC0028
:10211000A33165239031031CA82842304001CB0035
:10212000C830CA000030C9000030C800540886001A
:10213000550887005031403FCC00413FCD00423F21
:10214000CE00433FCF00A331652390310318B1285F
:10215000400154082C3E86000030553D8700011197
:10216000BD29400154082C3E86000030553D8700B3
:102170000115BD2943012B084001A70043012A088E
:102180004001A600430129084001A5004301280899
:102190004001A400A0310220903140012708031D16
:1021A000DB282608031DDB282508031DDB28323029
:1021B0002402031C0800A931F521903140012308B5
:1021C0004301A700400122084301A6004001210865
:1021D0004301A500400120084301A4002708AB00EB
:1021E0002608AA002508A9002408A8003F30A93124
:1021F0009D214301CD01CD0A08004301270840017C
:10220000A700430126084001A6004301250840011C
:10221000A500430124084001A400A0310220903110
:1022200040012708031DB5292608031DB5292508E7
:10223000031DB52915302402031CA029B5295A080D
:10224000023E8600023087000103031DB5295A08AB
:10225000033E860002308700403FD600413FD70052
:10226000423FD800433FD9005408860055088700F4
:102270005608C03F5708C13F5808C23F5908C33FDE
:102280005A08073E860002308700403FD600413F93
:10229000D700423FD800433FD90054088600550874
:1022A000870044315608C03F5708C13F5808C23F15
:1022B0005908C33F5A080B3E860002308700403F52
:1022C000D600413FD700423FD800433FD9005408D1
:1022D00086005508870048315608C03F5708C13F5F
:1022E0005808C23F5908C33F5A0A86000230870087
:1022F0000108D600D701D801D9015908A300580810
:10230000A2005708A1005608A0000030A5317D2585
:10231000400154088600550887004C312008C03F12
:102320002108C13F2208C23F2308C33F54082C3E66
:1023300086000030553D870081144301CD0108001F
:10234000A931BC219031003A0319080080310220E4
:1023500090314001D6005608DA005A088600023053
:102360008700AA30010603191F2954082C3E860055
:102370000030553D870081109D2943014D084001E3
:10238000D600D7015708003A0319C7299D295608D6
:10239000003A0319BA28013A0319FD289D290800BB
:1023A00040014F088039D0005008D9004F35D00087
:1023B0005008E000CE1B601460080319ED29600A84
:1023C000031DEA290030CF000030CE000030CD00E0
:1023D0000030CC00CE17CF01F5290030CF000030FF
:1023E000CE000030CD000030CC004B088039D0004A
:1023F0005008D9064B35D0005008E100CA1B6114C3
:1024000061080319112A610A031D0E2A0030CB004E
:102410000030CA000030C9000030C800CA17CB0124
:10242000192A0030CB000030CA000030C90000304B
:10243000C8004B084A0449044804031D382A0030E8
:10244000CF000030CE000030CD000030CC00803016
:10245000CE047F30CF045908D0005008CF044F0875
:10246000CB004E08CA004D08C9004C08C80008003F
:102470006008031D442A0030CB000030CA00003041
:10248000C9000030C80008006008D000D101510820
:10249000D30061085002D200031CD30352087F3ED0
:1024A000DA000030533DDB004F08D8004E08D7005B
:1024B0004D08D6004C08D5000030CF000030CE00CB
:1024C0000030CD000030CC000030DF000030DE00F6
:1024D0000030DD000030DC00E1011A306102031839
:1024E000A92A610803198B2A0130D535D60DD70DDD
:1024F000D80D890B752A0130CC35CD0DCE0DCF0D01
:10250000890B7C2ADF1B4C140130DC35DD0DDE0D20
:10251000DF0D890B852A4B085802031D992A4A08AA
:102520005702031D992A49085602031D992A480893
:102530005502031CA42A5F174808D5024908D63B58
:102540004A08D73B4B08D83B0130D0005008E10780
:102550006D2A5808570456045504031D5C14CE1BFD
:10256000C62A0130CC35CD0DCE0DCF0D890BB22A48
:10257000DF1B4C140130DC35DD0DDE0DDF0D890B6A
:10258000BB2AFF30DA07FF30DB3DAF2AE101DF1F56
:10259000DF2AFF305C05D000FF305D05D100FF3041
:1025A0005E05D2007F305F05D3005308520451040A
:1025B000500403194C18DD2ADF2AE101E10A610801
:1025C0000319082B0130CC070030CD3D0030CE3D43
:1025D0000030CF3D4F1C082B4C08D0004D08D100D7
:1025E0004E08D2004F08D3000130D400D337D20CAC
:1025F000D10CD00CD40BF62A5308CF005208CE00D1
:102600005108CD005008CC000130DA070030DB3D26
:102610005B08803AD00080305002031D112BFF3040
:102620005A02031C202BFF304001DA000030DB008F
:102630000030CF000030CE000030CD000030CC00A4
:1026400040015B08803AD00080305002031D2A2BE5
:1026500001305A020318382B4001DA01DB01003047
:10266000CF000030CE000030CD000030CC00D901CA
:1026700040015A08D0005008E000601C412BCE17E2
:10268000452B7F30D0005008CE056036D000500872
:10269000CF002B2A4001260886002708870000303B
:1026A000C03F0030C13F0030C23F0030C33F26086A
:1026B00086002708870044310030C03F0030C13F0A
:1026C0000030C23F0030C33F26088600270887003D
:1026D00048310030C03F0030C13F0030C23F0030C1
:1026E000C33F26088600270887004C310030C03FD2
:1026F0000030C13F0030C23F0030C33F2608860093
:102700002708870050310030C03F0030C13F003003
:10271000C23F0030C33F2608860027088700543197
:102720000030C03F0030C13F0030C23F0030C33FE7
:10273000260886002708870058310030C03F003047
:10274000C13F0030C23F0030C33F26088600270843
:1027500087005C310030C03F0030C13F0030C23FD5
:102760000030C33F2608203E86000030273D87000A
:102770000030C03F0030C13F4030C23F4030C33F17
:102780002608243E86000030273D87000030C03FE9
:102790000030C13F2030C23FC230C33F2608283E30
:1027A00086000030273D87000030C03F0030C13F29
:1027B0008030C23F3F30C33FAE012E08A800A901C0
:1027C0002808A0002908A1001C30A2000030A300A6
:1027D000AA31C1229331400120082607AA0021080E
:1027E000273DAB002A083F3E860000302B3D870086
:1027F0000030C03F0030C13F8030C23F4030C33F57
:102800002E08A800A9012808A0002908A1001C3052
:10281000A2000030A300AA31C12293314001200858
:102820002607AA002108273DAB002A08483E86005B
:1028300000302B3D870081012E08A800A90128083F
:10284000A0002908A1001C30A2000030A300AA317A
:10285000C1229331400120082607AA002108273D04
:10286000AB002A08473EAC0000302B3DAD002C08E1
:1028700086002D088700013081002E08A800A901DC
:102880002808A0002908A1001C30A2000030A300E5
:10289000AA31C1229331400120082607AA0021084D
:1028A000273DAB002A08313E860000302B3D8700D3
:1028B0000030C03F0030C13F2030C23F4130C33FF5
:1028C0002E08A800A9012808A0002908A1001C3092
:1028D000A2000030A300AA31C12293314001200898
:1028E0002607AA002108273DAB002A08353E8600AE
:1028F00000302B3D87000030C03F0030C13F00302A
:10290000C23F0030C33F2E08A800A9012808A0003C
:102910002908A1001C30A2000030A300AA31C12266
:102920009331400120082607AA002108273DAB006B
:102930002A08393E860000302B3D87000030C03F1A
:102940000030C13F0030C23F0030C33F2E08A80016
:10295000A9012808A0002908A1001C30A20000300D
:10296000A300AA31C1229331400120082607AA0002
:102970002108273DAB002A082D3E860000302B3D64
:1029800087000030C03F0030C13F0030C23F003000
:10299000C33F0130A8002808AE0704302E020318F8
:1029A0000800DD2B0630AA31DD22943140012108D8
:1029B000E9002008E8006908AD006808AC004301A0
:1029C00039084001AF00430138084001AE00003033
:1029D000B3000030B200A630B1006530B000A231C3
:1029E0008422943140012D084301B90040012C0894
:1029F0004301B8001030AA31DD2294314001210892
:102A0000E9002008E8006908AD006808AC0043014F
:102A100037084001AF00430136084001AE000030E6
:102A2000B3000030B200A630B1006530B000A23172
:102A30008422943140012D084301B70040012C0845
:102A40004301B6001130AA31DD2294314001210842
:102A5000E9002008E8006908AD006808AC004301FF
:102A600035084001AF00430134084001AE0000309A
:102A7000B3000030B200A630B1006530B000A23122
:102A80008422943140012D084301B50040012C08F7
:102A90004301B400C2304001CB000A30CA000C3000
:102AA000C9004A30C8003D30B100F330B000EA3010
:102AB000AF00B330AE00430138084001A00043012D
:102AC00039084001A100A201A3010030A5317D25F4
:102AD000943140012308B5002208B4002108B30056
:102AE0002008B2008A312722943140013108CF00FA
:102AF0003008CE002F08CD002E08CC0088314520AC
:102B0000943140016208860063088700503148080C
:102B1000C03F4908C13F4A08C23F4B08C33F40304D
:102B2000B100A030B0000030AF000030AE00430173
:102B300036084001A000430137084001A100A2016E
:102B4000A3010030A5317D25943140012308B50053
:102B50002208B4002108B3002008B2008A312722DD
:102B6000943140013108E7003008E6002F08E50005
:102B70002E08E4004730CB003B30CA00D130C900FA
:102B80000030C8004330B1004530B0000030AF0025
:102B90000030AE006708B5006608B4006508B300F1
:102BA0006408B2008A312722943140013108CF00F5
:102BB0003008CE002F08CD002E08CC009131D02156
:102BC0009431400162088600630887005431480848
:102BD000C03F4908C13F4A08C23F4B08C33F453088
:102BE000CB001F30CA00D830C9000030C8004030C8
:102BF000B100A030B0000030AF000030AE004301A3
:102C000034084001A000430135084001A100A201A1
:102C1000A3010030A5317D25943140012308B50082
:102C20002208B4002108B3002008B2008A3127220C
:102C3000943140013108CF003008CE002F08CD007C
:102C40002E08CC009131D0219431400162088600D9
:102C50006308870058314808C03F4908C13F4A0807
:102C6000C23F4B08C33F62088600630887005831A3
:102C7000403FAE00413FAF00423FB000433FB10094
:102C800062088600630887005431403FB200413F2C
:102C9000B300423FB400433FB5008A3127224001D0
:102CA00062088600630887005C312E08C03F2F0849
:102CB000C13F3008C23F3108C33F0800430140080C
:102CC000AC316124963143016F080319D92E4501B7
:102CD000A0014301E50165084201E300E401630846
:102CE0004001A000420164084001A1001C30A20084
:102CF0000030A300AA31C1229631400120084201D0
:102D00006107E500400121084201623DE6006508D7
:102D10003F3E86000030663D8700403F4301DF00B4
:102D2000413FE000423FE100433FE200CE3042013C
:102D3000C1000130C2004530C300B130C4004301BE
:102D40006508013E4201C500003003180130C6008D
:102D5000430162084201CA00430161084201C900FF
:102D6000430160084201C80043015F084201C700F7
:102D7000AB31E6239631CE304201E30063084001D7
:102D8000B100A030AA31A722963101304201E30000
:102D900063084301E50704306502031C6B2E400104
:102DA000A701A030A8000230A9000030AC31F02407
:102DB00096314501A0014301E501A22FCE3040012B
:102DC000A5000130A600D530A700B1308A2F4301FD
:102DD00065084201E300E40163084001A0004201EC
:102DE00064084001A1001C30A2000030A300AA31F9
:102DF000C12296314001200842016107E5004001EF
:102E000021084201623DE6006508393E8600003037
:102E1000663D8700403F4301DB00413FDC00423F0D
:102E2000DD00433FDE0065084201E300E401630882
:102E30004001A000420164084001A1001C30A20032
:102E40000030A300AA31C12296314001200842017E
:102E50006107E500400121084201623DE600650886
:102E6000473E86000030663D8700010303193D2F71
:102E700036304301E300B230412F8A304301E30092
:102E8000B130E400CE304201C1000130C2006230F6
:102E9000C300B230C40043015E084201C8004301D0
:102EA0005D084201C70043015C084201C6004301BE
:102EB0005B084201C500430164084201CA004301A6
:102EC00063084201C900AB31E62396318E2FCE3024
:102ED0004001A5000130A6001630A700B2308A2FAD
:102EE000CE304001A5000130A600E230A700B1308D
:102EF0008A2FCE304001A5000130A6000930A7007E
:102F0000B2308A2FCE304001A5000130A600233018
:102F1000A700B230A800AB319B239631CE304201DE
:102F2000E30063084001B100A030AA31A722963126
:102F300001304201E30063084301E5070430650204
:102F40000318DE2F65084201E300E4016308400135
:102F5000A000420164084001A1001C30A200003022
:102F6000A300AA31C1229631400120084201610725
:102F7000E500400121084201623DE6006508483E47
:102F800086000030663D87000108E700E801680818
:102F9000003A0319CC2F822F6708003A0319DE2E5E
:102FA000013A0319E72E033A0319672F013A03196F
:102FB000702F073A0319792F822F8E2F4001A70116
:102FC000A70AA030A8000230A9000030AC31F024DC
:102FD000963104304201E30063084001A700430139
:102FE0004008903107204201E40064084301C0001A
:102FF00040084201E30063084301C20040080800A2
:1030020040010C0E0139F0000C0E890C0139090740
:103012007004F1007108F7007C080739F000F10133
:10302200F035F10DF035F10D1030F200B130F30052
:1030320070087207F4007108733DF5007708740791
:10304200840075080318750A85000008F6007608E2
:10305200FC00FC1F31280130F00070084301C90058
:103062007C1F08000230F00070084301C90008000C
:103072004001B8005D308600023087002D308400A8
:10308200003085000730AA0016001A00AA0B452856
:103092002908BA002808B90039083A04031D55283E
:1030A2002D30B9000030BA003A08A1003908A0005A
:1030B200AA314622983140012108BE002008BD00F5
:1030C200430131084001BC00430130084001BB000C
:1030D200BC1B7C283C08803AAA003E08803A2A029F
:1030E200031D75283D083B0203187C2840013C085B
:1030F200BE003B08BD0040013E08BC003D08BB00CD
:1031020043012F084001B70043012E084001B600D9
:103112004301321C9E28AB2820304001A000003021
:10312200A1003808AA002A08A200AF315A27983114
:1031320001304001BD070030BE3D40013E08803AEB
:10314200AA003708803A2A02031DA92836083D0240
:10315200031C8D284001B401B5013508803AAA004C
:103162003C08803A2A02031DB8283B08340203189F
:10317200D7284001390884003A0885000008AA00CF
:10318200AB012A08A0002B08A1003808AC002C08CB
:10319200A200AF315A27983101304001B9070030FF
:1031A200BA3D0130B4070030B53DAE2843013218B4
:1031B200EC28F92820304001A0000030A100380896
:1031C200AA002A08A200AF315A27983101304001E3
:1031D200BD070030BE3D40013E08803AAA003708D4
:1031E200803A2A02031DF72836083D02031CDB2819
:1031F20040013E08A9003D08A8000800430142081A
:103202004201E300E40163084001A00042016408B6
:103212004001A1001C30A2000030A300AA31C1224B
:1032220098314001200842016107E5004001210870
:103232004201623DE60065082D3EE7000030663D32
:10324200E8000030AC31612498314001A7013D30E3
:10325200A800B230A9000030AC31F024983142010C
:103262006708083E4101A00000304201683D41016B
:10327200A1000030A5000030A4000030A3000030FF
:10328200A200420167088600680887004431403F77
:103292004101A600413FA700423FA800433FA900C9
:1032A2003E30AD008030AC000030AB000030AA00F0
:1032B200A7314D27983142016708860068088700C8
:1032C2004831403F4001A000413FA100423FA200DF
:1032D200433FA3000030A7000030A6000030A50045
:1032E2000030A400AE3122269831031C8129CE3051
:1032F2004201C1000130C2007330C300B130AC29B9
:10330200420167088600680887004831403F400153
:10331200A000413FA100423FA200433FA30042015F
:1033220067088600680887004431403F4001A400D6
:10333200413FA500423FA600433FA700AE312226EF
:103342009831031CB729CE304201C1000130C200BE
:103352008230C300B130C40043014208013E420141
:10336200C500003003180130C600CD29CE3042011D
:10337200C1000130C200AD30C300B130C4006708E3
:103382008600680887004831403FC500413FC600BB
:10339200423FC700433FC800AB31E62398314001AA
:1033A200A701A70ACE30A8000130A9000030AC3135
:1033B200F024003008004001B201283086000030BD
:1033C2008700473FB000B01F082A4001A809A90999
:1033D200AA09AB09AC09AD09AE09AF09A80A031DD8
:1033E200052AA90A031D052AAA0A031D052AAB0AF2
:1033F200031D052AAC0A031D052AAD0A031D052A71
:10340200AE0A031D052AAF0A4001B201B20A2030FA
:10341200860000308700473F4001B000B01F302ACD
:103422004001A009A109A209A309A409A509A609A5
:10343200A709A00A031D302AA10A031D302AA20AE5
:10344200031D302AA30A031D302AA40A031D302AB1
:10345200A50A031D302AA60A031D302AA70A400125
:10346200200821042204230424042504260427041A
:103472000319882AB101B10AA71B4C2AA035A10D54
:10348200A20DA30DA40DA50DA60DA70D0130B00030
:103492003008B1073D2A27082F02031D6A2A260891
:1034A2002E02031D6A2A25082D02031D6A2A2408FA
:1034B2002C02031D6A2A23082B02031D6A2A2208F2
:1034C2002A02031D6A2A21082902031D6A2A2008EA
:1034D2002802031C7C2A2008A8022108A93B2208F2
:1034E200AA3B2308AB3B2408AC3B2508AD3B26088E
:1034F200AE3B2708AF3BA736A60CA50CA40CA30C29
:10350200A20CA10CA00C0130B102031D4C2A3208FE
:103512000319A92AA809A909AA09AB09AC09AD0985
:10352200AE09AF09A80A031DA92AA90A031DA92ADF
:10353200AA0A031DA92AAB0A031DA92AAC0A031D64
:10354200A92AAD0A031DA92AAE0A031DA92AAF0A98
:1035520040012808A0002908A1002A08A2002B087F
:10356200A3002C08A4002D08A5002E08A6002F08F1
:10357200A7000800430142084201E300E401630896
:103582004001A000420164084001A1001C30A200D9
:103592000030A300AA31C1229A3140012008420121
:1035A2006107E500400121084201623DE60065082D
:1035B2002D3EE7000030663DE80043013F08AC3194
:1035C20061249A314001A7012C30A800B130A90032
:1035D2000030AC31F0249A31420167088600680855
:1035E20087004831403F4001A000413FA100423FD7
:1035F200A200433FA3000030A7000030A600003025
:10360200A5000030A400AE3122269A31031C122BF1
:10361200A0304201C1000230C2007330C300B13099
:103622003D2B420167088600680887004831403F09
:103632004001A000413FA100423FA200433FA3003E
:10364200420167088600680887004431403F400114
:10365200A400413FA500423FA600433FA700AE3170
:1036620022269A31031C482BA0304201C1000230AD
:10367200C2008230C300B130C40043014208013E9F
:103682004201C500003003180130C6005E2BA03095
:103692004201C1000230C2003030C300B230C40067
:1036A20067088600680887004831403FC500413FEF
:1036B200C600423FC700433FC800AB31E6239A3100
:1036C200CE304201C1000130C2009F30C300B13090
:1036D200C40067088600680887005231403FC50071
:1036E200413FC600423FC700433FC800AB31E6231B
:1036F2009A31CE304201E30063084001B100A030AC
:10370200AA31A7229A314001A701A70AA030A80036
:103712000230A9000030AC31F0249A31023042016B
:10372200E30063084001A70043013F0890310720EE
:103732004201E40064084301BF003F08080043015E
:103742004108AC3161249B31420161082C3E860064
:103752000030623D8700811C5A2C4001A7018C3049
:10376200A800B030A9000030AC31F0249B314201F6
:1037720061082C3E86000030623D8700011DE32B6C
:10378200CE30C1000130C2009130C300B130C4005C
:103792006108860062088700403FC500413FC600BD
:1037A200423FC700433FC8006108860062088700A5
:1037B2005031403FC900413FCA00423FCB00433F26
:1037C200CC00F72BCE30C1000130C200C830C3009C
:1037D200B130C4006108860062088700403FC5001E
:1037E200413FC600423FC700433FC800AB31E6231A
:1037F2009B31A0304201C1000230C200BD30C30083
:10380200B030C400CE30C5000130C6006108860069
:10381200620887004431403FC700413FC800423F31
:10382200C900433FCA006108860062088700483128
:10383200403FCB00413FCC00423FCD00433FCE0052
:1038420061088600620887005431403FCF00413F43
:10385200D000423FD100433FD20061088600620897
:1038620087005C31403FD300413FD400423FD50046
:10387200433FD600AB31E6239B314001A701A70AA3
:10388200A030A8000230A9000030AC31F0249B31F6
:1038920004304201E30063084001A70043014108EC
:1038A200903107209B314201E40064084301C100CA
:1038B200872C4301C101903103209B314001A701B4
:1038C200B030A800B030A9000030AC31F0249B31F8
:1038D200CE304201C1000130C2007530C300B230A7
:1038E200C4004130C8001F30C700F430C600ED30BC
:1038F200C500AB31E6239B314001A701A70ACE30B8
:10390200A8000130A9000030AC31F0244301410885
:1039120008004001B2012030860000308700473F96
:10392200B000B01FB62C4001A009A109A209A30949
:10393200A409A509A609A709A00A031DB32CA10A77
:10394200031DB32CA20A031DB32CA30A031DB32C1F
:10395200A40A031DB32CA50A031DB32CA60A031D3A
:10396200B32CA70A4001B201B20A28308600003007
:103972008700473F4001B000B01FE32C4001A80977
:10398200A909AA09AB09AC09AD09AE09AF09A80A90
:10399200031DDE2CA90A031DDE2CAA0A031DDE2C40
:1039A200AB0A031DDE2CAC0A031DDE2CAD0A031D7F
:1039B200DE2CAE0A031DDE2CAF0A01304001B0003E
:1039C2003008B206333086000030870008304001EC
:1039D200B00000301E00B00BEB2C200821042204A2
:1039E2002304240425042604270403194E2DB101BF
:1039F200B10AA71B092DA035A10DA20DA30DA40D7F
:103A0200A50DA60DA70D0130B0003008B107FA2CA4
:103A1200B335B40DB50DB60DB70DB80DB90DBA0D60
:103A220027082F02031D2F2D26082E02031D2F2DDE
:103A320025082D02031D2F2D24082C02031D2F2DD6
:103A420023082B02031D2F2D22082A02031D2F2DCE
:103A520021082902031D2F2D20082802031C422DB4
:103A62002008A8022108A93B2208AA3B2308AB3B55
:103A72002408AC3B2508AD3B2608AE3B2708AF3BEC
:103A82003314A736A60CA50CA40CA30CA20CA10CF3
:103A9200A00C0130B102031D092D320803196F2D4C
:103AA200B309B409B509B609B709B809B909BA0918
:103AB200B30A031D6F2DB40A031D6F2DB50A031D32
:103AC2006F2DB60A031D6F2DB70A031D6F2DB80A9D
:103AD200031D6F2DB90A031D6F2DBA0A4001330869
:103AE200A0003408A1003508A2003608A300370858
:103AF200A4003808A5003908A6003A08A700080063
:103B0200440123084101A900440122084101A800FF
:103B1200440121084101A700440120084101A600F7
:103B2200400165084101A900400164084101A80063
:103B3200400163084101A700400162084101A6005B
:103B420026084001E600410127084001E700410143
:103B520028084001E800410129084001E900173026
:103B6200E936E80CE70CE60C890BB12DFF3066054F
:103B7200EA0000306705EB006A08813E4101A400BB
:103B8200FF3040016B3D4101A5002508803A40010C
:103B9200E60080306602031DD12D17304101240258
:103BA200031808004101A51B572EFF304001E60013
:103BB200FF30E7007F30E8000030E9004101240ACD
:103BC2004001E72DE937E80CE70CE60C890BE32D01
:103BD20069084101A300400168084101A2004001B7
:103BE20067084101A100400166084101A0002608C2
:103BF20020054001E6004101270821054001E700B8
:103C02004101280822054001E80041012908230555
:103C12004001E900690868046704660403190800A2
:103C2200410126084001E600410127084001E70062
:103C3200410128084001E800410129084001E9004A
:103C42001F30E936E80CE70CE60C890B222E6908D6
:103C52006804670466040319372E41012008A60789
:103C62002108A73D2208A83D2308A93D41012009BA
:103C72004001E600410121094001E700410122091A
:103C82004001E800410123094001E90066084101C1
:103C9200A605400167084101A705400168084101E6
:103CA200A805400169084101A9059E2E2608400188
:103CB200E600410127084001E700410128084001D0
:103CC200E800410129084001E9001F30E936E80C0B
:103CD200E70CE60C890B672E690868046704660422
:103CE200031D782E00304101A9000030992E4101B8
:103CF20026084001E600410127084001E700410192
:103D020028084001E800410129084001E90001308A
:103D1200E635E70DE80DE90D890B892E690868047F
:103D22006704660403199E2EBF304101A90080304A
:103D3200A8000030A7000030A60041012908400178
:103D4200E500410128084001E40041012708400143
:103D5200E300410126084001E20008004001C600DC
:103D62003B08CF003C08D0003D08D1003E08D200FD
:103D72003F08D3004008D4004108D5004208D600CD
:103D82004F30860000308700473FC300C31FCB2E51
:103D92000130CC2E00304001C400C5014408CD00E2
:103DA2004508CE004D084E040319F52ECF09D0095F
:103DB200D109D209D309D409D509D609CF0A031DDD
:103DC200F52ED00A031DF52ED10A031DF52ED20AB7
:103DD200031DF52ED30A031DF52ED40A031DF52E5D
:103DE200D50A031DF52ED60A4301B11BFC2EFD3068
:103DF200B205FF30B3053108803A4001C30080307C
:103E02004302031D072F01304301300203180F2F15
:103E120001304001C9000030CA00172F43013108A8
:103E22004001CA00430130084001C90043012F0884
:103E32004001CC0043012E084001CB004D084E0446
:103E4200031D262F4301321D2B2FFF304001CB07CC
:103E5200FF30CC3D4F304001D7000030D800460142
:103E6200EF01C12F40014F08500451045204530482
:103E7200540455045604031D582F4A08803AC300BF
:103E820080304302031D472F013049020318582F87
:103E920040014C08803AC30080304302031D532F77
:103EA20001304B02031CCD2F4301B21CCD2FFF303A
:103EB2004001D707FF30D83D0A30A000A101A2017E
:103EC200A301A401A501A601A7014F08A80050085B
:103ED200A9005108AA005208AB005308AC005408CC
:103EE200AD005508AE005608AF009931DC219E3175
:103EF20040012108B4002008B300AA318E229E316D
:103F020040013308303EC3005708203E860003308C
:103F1200870043088100FF30C907FF30CA3DFF30E8
:103F2200CB07FF30CC3D0A30A000A101A201A301C2
:103F3200A401A501A601A7014F08A8005008A900E5
:103F42005108AA005208AB005308AC005408AD0057
:103F52005508AE005608AF009C318A249E314001BC
:103F62002008CF002108D0002208D1002308D20067
:103F72002408D3002508D4002608D5002708D60037
:103F820040015808803AC30080304302031DCB2F02
:103F9200013057020318332F40014D084E04031D10
:103FA200D52F4301321DED2FFF304001D707FF30DF
:103FB200D83D4D084E04031DE02F2B30E12F2D304C
:103FC200C7000030C8004708C3005708203E8600DB
:103FD200033087004308810040015708203EC30098
:103FE2004308B0004C08B2004B08B1004608AF319C
:0E3FF200AD2740013108BC003008BB000800BC
:10400400A931F521A03140012308B3002208B200F0
:104014002108B1002008B00027083302031D1C2822
:1040240026083202031D1C2825083102031D1C2802
:1040340024083002031C332824083002A800250871
:10404400313BA9002608323BAA002708333BAB00CA
:104054002B08A7002A08A6002908A5002808A40000
:1040640008000130A800CA30A9009A30AA003B30E9
:10407400AB0024083002AC002508313BAD00260813
:10408400323BAE002708333BAF002C08A8072D08AD
:10409400A93D2E08AA3D2F08AB3D2B08A7002A08EE
:1040A400A6002908A5002808A40008000030AC31A7
:1040B4006124A0314001A701FC30A800B130A9005F
:1040C4000030AC31F024A03142016108203E4101AE
:1040D400A00000304201623D4101A1000030A50072
:1040E4000030A4000030A3000030A2004130A90039
:1040F4002030A8000030A7000030A6003F30AD00FB
:104104000030AC000030AB000030AA00A7314D27CE
:10411400A031CE304201C1000130C200BB30C30027
:10412400B130C4006108203E86000030623D870043
:10413400403FC500413FC600423FC700433FC8005F
:10414400AB31E623A0314001A701A70ACE30A80075
:104154000130A9000030AC31F024003008000030F8
:10416400AC316124A0314001A701EF30A800B13087
:10417400A9000030AC31F024A03142016108243E92
:104184004101A00000304201623D4101A100C23062
:10419400A5004830A4000030A3000030A200C130C4
:1041A400A900A030A8000030A7000030A6003F30CE
:1041B400AD008030AC000030AB000030AA00A73165
:1041C4004D27A031CE304201C1000130C20055302C
:1041D400C300B130C4006108243E86000030623D53
:1041E4008700403FC500413FC600423FC700433FF0
:1041F400C800AB31E623A0314001A701A70ACE30A5
:10420400A8000130A9000030AC31F02400300800CF
:104214000030AC316124A1314001A7014A30A8002B
:10422400B230A9000030AC31F024A1314201610860
:10423400283E4101A00000304201623D4101A1003D
:104244003D30A500CC30A400CC30A300CD30A2007A
:104254004030A900A030A8000030A7000030A6001C
:104264003D30AD00CC30AC00CC30AB00CD30AA003A
:10427400A7314D27A131CE304201C1000130C20027
:104284006430C300B130C4006108283E86000030A9
:10429400623D8700403FC500413FC600423FC70022
:1042A400433FC800AB31E623A1314001A701A70A6F
:1042B400CE30A8000130A9000030AC31F024003029
:1042C400080043013D0888310120A131400127083D
:1042D4004301ED00400126084301EC006C086D0425
:1042E4000319842942016C08E2006B08E1004301D0
:1042F4006D088A006C080A00A1314301E6006608D3
:10430400EA008729AA310622A1314301EF01A9312C
:10431400D221A1314301E6006608EB006A08E600F9
:1043240066084001A60043016B08E70067084001E6
:10433400A70043013D08A431E824A1314301E8006A
:104344006808EE00EE1B08006E08E600E701E61BB5
:10435400E7033D08E800E90167086906031DB4297D
:104364006608680603190800EF01EF0A6E08E60004
:104374006608BD00080043013E08AC316124A13148
:104384004001A701E730A800B030A9000030AC31EB
:10439400F024A131A0304201C1000230C2001B3020
:1043A400C300B030C4006108203E86000030623D86
:1043B4008700403FC500413FC600423FC700433F1E
:1043C400C8006108243E86000030623D8700403FFB
:1043D400C900413FCA00423FCB00433FCC006108C3
:1043E400283E86000030623D8700403FCD00413FBB
:1043F400CE00423FCF00433FD000AB31E623A13192
:104404004001A701A70AA030A8000230A90000308B
:10441400AC31F024A13104304201E30063084001CF
:10442400A70043013E08903107204201E4006408DC
:104434004301BE003E08080003104001220D230D75
:10444400A4002408AA002A08031D312A0030A3006E
:104454000030A2000030A1000030A00008002008B5
:10446400A4002108A5002208A6002308A7001F30E5
:10447400A736A60CA50CA40C890B3A2A2408A8007C
:104484002808A900A217FF30A005FF30A105FF30BE
:10449400A2050030A3059630AA02AA1F642A2A089E
:1044A400803A973E031C282A0130A336A20CA10CA3
:1044B400A00C890B572A0130A4002408AA07031969
:1044C400752A562A20302A020318282A2A08031992
:1044D400752A0130A035A10DA20DA30D890B6C2AFC
:1044E4000130AA02682A290803190800A009A109B1
:1044F400A209A309A00A0319A10A0319A20A03190C
:10450400A30A080040012E08A0002F08A100A20160
:10451400A3010030B4000030B5000130B600003013
:10452400B7003008B4023108B53B3208B63B330853
:10453400B73B3708A7003608A6003508A50034089D
:10454400A400AC318F24A23140012008B800210816
:10455400B9002208BA002308BB002C08A0002D08CB
:10456400A100A201A3013308A7003208A600310864
:10457400A5003008A400AC318F24A23140012008EA
:10458400B8072108B93D2208BA3D2308BB3D3B08C2
:10459400BF003A08BE003908BD003808BC0000302E
:1045A400B4008030B5000030B6000030B7003C08DD
:1045B400B4073D08B53D3E08B63D3F08B73D103051
:1045C400B736B60CB50CB40C890BE22A3508AD002D
:1045D4003408AC000800440127084001AF0044013E
:1045E40026084001AE00440125084001AD00440105
:1045F40024084001AC002308AF002208AE002108C3
:10460400AD002008AC002C08A4002D08A5002E083D
:10461400A6002F08A7001730A736A60CA50CA40CDB
:10462400890B0E2BFF302405AA0000302505AB00B2
:104634002A082B04031D3D2B2C08A4002D08A500DB
:104644002E08A6002F08A7000130A435A50DA60D3D
:10465400A70D890B272B2708260425042404031DF2
:10466400382B0230A0000030A10008000330A00065
:104674000030A10008002A0A2B04031D602B2C081B
:10468400A4002D08A5002E08A6002F08A7000930B5
:10469400A435A50DA60DA70D890B4A2B27082604C2
:1046A40025042404031D582B0130592B0030A80085
:1046B400A9012808A0002908A10008000430A000CE
:1046C4000030A1000800003040014805D00000304F
:1046D4004905D10080304A05D2007F304B05D30014
:1046E4005308520451045004031D802B0030CB00A6
:1046F4000030CA000030C9000030C80000304C054A
:10470400D00000304D05D10080304E05D2007F30FE
:104714004F05D3005308520451045004031D9A2B2F
:104724000030CF000030CE000030CD000030CC008F
:10473400CB1FB42B0030D0000030D1000030D200A9
:104744008030D3004808D0024908D13B4A08D23B04
:104754004B08D33B5308CB005208CA005108C90088
:104764005008C800CF1FCE2B0030D0000030D1003D
:104774000030D2008030D3004C08D0024D08D13B29
:104784004E08D23B4F08D33B5308CF005208CE000B
:104794005108CD005008CC008030CB068030CF06C5
:1047A4004F084B02031D08004E084A02031D08006F
:1047B4004D084902031D08004C0848020800003057
:1047C4004401EF000030EE000030ED000030EC005A
:1047D400AD31DA25A33140019916A4315D24A3310A
:1047E400AC310C24A33190310320A331A9318621AB
:1047F400A33153304001A6002730A70093314A2348
:10480400A33140019A151814640053304001E200AA
:104814002730E3009431D224A33153304001D40033
:104824002730D50090317220A33144016F08400134
:10483400A70044016E084001A60044016D08400130
:10484400A50044016C084001A400A0310220A3315A
:1048540040012708031D382C2608031D382C250881
:10486400031D382C0B302402031C4B2CA931F521D9
:10487400A331400123084401EF0040012208440110
:10488400EE00400121084401ED00400120084401EC
:10489400EC0053304201EB002730EC00A1316321DE
:1048A400A3310D304201ED00FB30890B572CED0B89
:1048B400572C0032062C400119121911991141305C
:1048C4004001A700EE30890B652CA70B652C000076
:1048D4004001991019109A121A120330AD3155255E
:1048E400A43107304001A7007D30890B772CA70B3A
:1048F400772C0830AD315525A43107304001A7008D
:104904007D30890B832CA70B832C0230AD315525C8
:10491400A43107304001A7007D30890B8F2CA70BF1
:104924008F2C0230AD315525A43107304001A7004A
:104934007D30890B9B2CA70B9B2C0830AD31552562
:10494400A43107304001A7007D30890BA72CA70BA9
:10495400A72C0830A9319321A43107304001A700C6
:104964007D30890BB32CA70BB32C0130A9319321D3
:10497400A43107304001A7007D30890BBF2CA70B61
:10498400BF2C0630A9319321A43107304001A70080
:104994007D30890BCB2CA70BCB2C0230A931932172
:1049A400A43107304001A7007D30890BD72CA70B19
:1049B400D72C0C30A9319321A43107304001A70032
:1049C4007D30890BE32CA70BE32C08004001AB00DE
:1049D400AC012C08A800A9012808A0002908A100FE
:1049E4000530A2000030A300AA31C122A431400145
:1049F400210885002008840050308407B030853DAC
:104A040000082B06031D732D2C08A800A9012808F3
:104A1400A0002908A1000530A2000030A300AA319B
:104A2400C122A431400121088500200884005130AE
:104A34008407B030853D0008260603193C2D2C0858
:104A4400A800A9012808A0002908A1000530A20097
:104A54000030A300AA31C122A431400121088500FD
:104A64002008840051308407B030853D1200FF3A9D
:104A7400031D732D2703031D572D2C08A800A9011E
:104A84002808A0002908A1000530A2000030A300D6
:104A9400AA31C12240012108850020088400523037
:104AA4008407B030853D0008080002302706031D46
:104AB400732D2C08A800A9012808A0002908A1002A
:104AC4000530A2000030A300AA31C1224001210810
:104AD40085002008840053308407B030853D0008E9
:104AE40008000130A8002808AC070C302C02031C75
:104AF400EB2CFF3008004001A8002808031DA31F69
:104B0400932D2009AA002109AB002209AC00230936
:104B1400AD00AA0A0319AB0A0319AC0A0319AD0ABA
:104B24009B2D2308AD002208AC002108AB0020080F
:104B3400AA002308220421042004031DAA2D003006
:104B4400A3000030A2000030A1000030A000080043
:104B54009630A4002408A900FE302D050319D12D98
:104B64000130A4002408A9070130AD36AC0CAB0C0D
:104B7400AA0C890BB72DAE2D0130A4002408A90777
:104B84000130AA070030AB3D0030AC3D0030AD3DF4
:104B94000130AD36AC0CAB0CAA0C890BCB2DFF301D
:104BA4002D050319E32DBE2D02302902031CE52D2A
:104BB4000130A9020130AA35AB0DAC0DAD0D890B46
:104BC400DD2DAC1FD62D2918EF2DFF30AA05FF309F
:104BD400AB057F30AC05FF30AD050310A90C2908E7
:104BE400A400A501A601A7011830A435A50DA60DA2
:104BF400A70D890BF72D2408AA042508AB04260861
:104C0400AC042708AD042808031DA31F0A2EAD1702
:104C14002D08A3002C08A2002B08A1002A08A0003C
:104C240008000030AC316124A6314001A7013830BE
:104C3400A800B130A9000030AC31F024A631430102
:104C440042084201E300E40163084001A00042017C
:104C540064084001A1001C30A2000030A300AA3166
:104C6400C122A6314001200842016107E50040014C
:104C740021084201623DE60065083F3E4101A00073
:104C840000304201663D4101A1003F30A500803063
:104C9400A4000030A3000030A2004130A9008030FD
:104CA400A8000030A7000030A6003F30AD0000305F
:104CB400AC000030AB000030AA00A7314D27A6316C
:104CC400430142084201E300E40163084001A000FB
:104CD400420164084001A1001C30A2000030A3007E
:104CE400AA31C122A6314001200842016107E50032
:104CF400400121084201623DE60065083F3E86000E
:104D04000030663D8700403FE700413FE800423FF6
:104D1400E900433FEA00CE30C1000130C2009F30B9
:104D2400C300B130C4006A08C8006908C700680835
:104D3400C6006708C500AB31E623A6314001A701D0
:104D4400A70ACE30A8000130A9000030AC31F0240D
:104D5400003008004001B301B401AC01AD01B2015F
:104D6400B20A26088400270885001200203A031995
:104D7400CD2E26088400270885000008F73EA800E9
:104D8400FF3003180030A900003029020530031950
:104D940028020318B2013208A800A9012808AE00AD
:104DA4002908AF002E082F040319E22E0130A607AC
:104DB4000030A73DB12E0130AC000030AD00152FFE
:104DC40026088400270885000008A800A9012908EE
:104DD400003A0319EE2E192F28082B3A0319152F20
:104DE400063A0319DD2E192F2608840027088500AA
:104DF4000008A8003408A1003308A0000A30A2006B
:104E04000030A300AA31C122A63140012108AA0022
:104E140028082002A900031CAA032908303EB30075
:104E240000302A3DB4000130A6070030A73D260813
:104E34008400270885000008D03EA800FF3003182E
:104E44000030A900003029020A300319280203188F
:104E54002D2F01302E2F0030AA00AB012A08B000FC
:104E64002B08B10030083104031DF62E2C082D0444
:104E7400031D482F3309A8003409A900A80A0319FF
:104E8400A90A2808A6002908A70008003408A700D2
:104E94003308A6000800A931C721A7314001E40066
:104EA4006408E50002306506031DAA2F41012508A8
:104EB4004001CB00410124084001CA0041012308FC
:104EC4004001C900410122084001C80041012008F5
:104ED400860021088700403F4001CC00413FCD00BF
:104EE400423FCE00433FCF00A3316523A7310318CF
:104EF400AA2F41012D084001DF0041012C08400187
:104F0400DE0041012B084001DD0041012A08400177
:104F1400DC0041012008860021088700403F400151
:104F2400E000413FE100423FE200433FE300AB3198
:104F340019234101200886002108870040015C08EC
:104F4400C03F5D08C13F5E08C23F5F08C33F080021
:104F540040016503031D0800410120088600210863
:104F64008700403F4001C800413FC900423FCA009A
:104F7400433FCB00410129084001CF0041012808EB
:104F84004001CE00410127084001CD00410126081F
:104F94004001CC00A3316523A73103180800410167
:104FA4002D084001CB0041012C084001CA004101F9
:104FB4002B084001C90041012A084001C8004101F1
:104FC4002008860021088700403F4001CC00413F73
:104FD400CD00423FCE00433FCF0088314520410100
:104FE400200886002108870040014808C03F49087E
:0C4FF400C13F4A08C23F4B08C33F080001
:1052F60043014A0808001830A931932108001C30E0
:10530600A931932108000130A931932108004001F9
:1053160019151030890B8D2900324001191108002A
:105326004001A600A3012608AA311722A931AA31F5
:10533600FA2208004001A000200842019A0000005D
:105346004E010F1A0800A329400123082204210454
:105356002004031908008030A30608004001A600B7
:10536600A301A30A2608AA311722A931AA31FA22D3
:105376000800430145084001A0002008A1004301A0
:10538600C501400121080800430149084001A00069
:105396002008A1004301C90140012108080043017A
:1053A60048084001A0002008A1004301C8014001AF
:1053B600210808006400800101310130FE0200303E
:1053C600FF3B7F087E0403190034DE29FE0012002D
:1053D6001E000130FE020030FF3B7F087E040319E9
:1053E6000034EA29430123084001A30043012208AF
:1053F6004001A200430121084001A1004301200809
:105406004001A000080090310320AA31A93186216D
:10541600AA314001A7015730A800B230A9000030D8
:10542600AC31F024AA31162A4001A500230C031C36
:1054360019120318191699112508A4000430A43668
:10544600890B222A2408AD315525AA3140012508A9
:10545600AD315525080040012008D03EA200FF309E
:10546600213DA300003023020A300319220203184B
:105476003E2A01303F2A0030A400A5012408A000DE
:105486002508A100080040012108A4002008A30067
:10549600200884002108850012000319572A0130CC
:1054A600A0070030A13D4B2A23082002A0002408B3
:1054B600213BA100080040012008BF3EA200FF30AA
:1054C600213DA300003023021A30031922020318DB
:1054D6006E2A01306F2A0030A400A5012408A0001E
:1054E6002508A100080018341834033404340434A1
:1054F60004340334003400340034003404340034FB
:1055060000340034003401340134053409341F34C6
:1055160008340434003440013408803AB500803041
:105526003502031D982A0130330203180800400192
:105536003309B5003409B600B50A0319B60A3508A9
:10554600B3003608B40008004001B4003408A000D7
:105556000230A100AA314622AA3140012008B20039
:105566002108B30034083207A5000230A60031082E
:10557600A7000130A800AB319B2308004001A4011D
:10558600A501201CCA2A2208A4072308A53D01302C
:10559600A235A30D890BCB2A0130A136A00C890BAD
:1055A600D02A20082104031DC42A2508A1002408A6
:1055B600A00008004001A3002308A200A20DA20D2E
:1055C60041011D08400122060339220641019D00C2
:1055D60000320032000041019D149D18F02A1C087B
:1055E6004001A10041011B084001A0000800400144
:1055F60014161912991519110330890B002B000086
:10560600400119150330890B062B000000304001BC
:105616000E1A0130A0001911A9318A21AA314001C0
:105626002008031DFE2A141299110800803040013B
:10563600DF066308CB006208CA006108C90060087B
:10564600C8005F08CF005E08CE005D08CD005C088C
:10565600CC008831452040014B08DF004A08DE00B7
:105666004908DD004808DC0008004001A800A40144
:10567600A5012008A200A3012208A6002308A7006E
:10568600281C492B2608A4072708A53D0130A63566
:10569600A70D890B4A2B0310A80C2808031D432BC2
:1056A6002508A1002408A0000800A0341B345E349D
:1056B6001634BB341A34FF34183413342634BD344C
:1056C600213458342034B13420340A342134283477
:1056D6006E3475346C346C34293400340034403400
:1056E60014345434003440341434543440012608FD
:1056F600BF3EA800FF30273DA900003029021A301E
:10570600031928020318892B01308A2B0030AA00BE
:10571600AB012A08AC002B08AD002C082D04031998
:10572600080020302604A60000302704A700080041
:1057360040012808AE002708AD002608B00025085D
:10574600AF003008AA002F08A900AF0A0319B00A53
:10575600290886002A0887002E08AC002D08AB0011
:10576600AD0A0319AE0A2B0884002C088500000830
:10577600C03F890803190800A42B4001AF00AD0102
:10578600AE012D082F07A9002908860003308700DF
:105796000108AA002A08AC002C08031908002C08E6
:1057A600A900AA012908A0002A08A1002808AB0020
:1057B6002B08A200AF315A27AB3101304001AD07AB
:1057C6000030AE3DC42B45304201D7005708DA0001
:1057D6004208DC004108DB00DD01DE01DF01E001FB
:1057E6004408BA004308B9005A30D7005708BB002E
:1057F6005B30AD31222502305B3E860001308700EA
:10580600403F420141078400413F423D85008001FF
:105816000800D1308600023087002830840000302E
:10582600850018304001A70016001A00A70B172C98
:105836004830A9319321AC314001C0014008283ECF
:10584600860087010108A931B121AC310130400140
:10585600A7002708C0071830400203180800212CAB
:1058660040018C1B392C903100200800A9317B2186
:10587600AC31F0007008F10006307102031C4D2CAB
:105886003330710203184D2C0130F00070084301CB
:10589600C800080033307102031C5B2C973071027C
:1058A60003185B2C0230F00070084301C8000800A2
:1058B6000330F00070084301C80008004001A90049
:1058C60043016F08031908000230A9319321AC3156
:1058D6004001AA012908A700A8012708A000280856
:1058E600A1000C30A2000030A300AA31C122AC31C5
:1058F60040012108803A803C031D832C20082A029F
:10590600031808001830A9319321AC310130400149
:10591600A7002708AA076D2C00304001AB00003015
:10592600AA000030A9000030A800201CA22C2408E0
:10593600A8072508A93D2608AA3D2708AB3D013042
:10594600A435A50DA60DA70D890BA32C0130A336F2
:10595600A20CA10CA00C890BAA2C2308220421045A
:105966002004031D982C2B08A3002A08A20029084E
:10597600A1002808A0000800F4007408F3007308CA
:10598600F500710872040319E52C0130F1020030AC
:10599600F23B7508860002308700F50A700884001D
:1059A60002308500F00A0008C03F89080319E52C7B
:1059B600C42C750886000230870081010130F3008F
:1059C6007308F5070130F1020030F23B710A031D3E
:1059D600DC2C720A03190800DC2C4001AF004401DC
:1059E60067084001AE00440166084001AD0044016D
:1059F60065084001AC00440164084001AB0027087B
:105A06002B3E8600870101082F078038A931932194
:105A1600AC314001280884002908850012000319CA
:105A2600080028088400290885000008A931B1214A
:105A3600AC3101304001A8070030A93D0C2D4201D0
:105A4600BE003A08C0003908BF004301AC01AD01F1
:105A560042013F08840040088500120003194C2DBE
:105A66003F30BC003C084101E80042013B08BD0054
:105A76003D084101E90042013E088C315324AD3115
:105A8600410168084301AC07410169084301AD3D86
:105A96002B2D43012D084201BA0043012C08420177
:105AA600B90008004001A20022080139A000A00D9B
:105AB60019082006FD39200699002208A0000130A9
:105AC600A036890B632D01302005A1001908210697
:105AD600FE39210699002208A0000230A036890B63
:105AE600712D20080139A100A10EA10D1A08210669
:105AF600DF3921069A002208A0000330A036890B60
:105B0600812D20080139A100A10E1A082106EF39BE
:105B160021069A001030890B8E2D0032A9318A2178
:105B260008004001A601A31F9F2DA209A309A20AEE
:105B36000319A30AA601A60AA11FA62DA009A10959
:105B4600A00A0319A10A200821040319CD2DA501D5
:105B5600A50AA11BB82D0130A035A10D890BAF2DCB
:105B66000130A4002408A507AC2D21082302031D3B
:105B7600BE2D20082202031CC42D2008A2022108E3
:105B8600A33B0130A136A00C890BC52D0130A5021F
:105B9600031DB82D26080319D52DA209A309A20AAB
:105BA6000319A30A2308A1002208A0000800023056
:105BB6005101930060308D000F1EDF2D7D014B08D3
:105BC600C0391738CB000F307E01A6004030B80030
:105BD600C3010330CE00F0304001920093018730BC
:105BE600940041011D14E0309E0080304B019E0060
:105BF60047309F00B2309C00333044018E000130A4
:105C06009100CF308D002B308C0030304E01960045
:105C16002030990001309A00C0308B00B0307E01F0
:105C2600BD00B030BE000430D400083042019F00F1
:105C360019309B0090309D0020309E0008000030F7
:105C460040012005A80000302105A900803022056A
:105C5600AA007F302305AB002B082A042904280458
:105C6600031D3D2E0030A3000030A2000030A1002D
:105C76000030A00000302405A80000302505A9004A
:105C860080302605AA007F302705AB002B082A04A2
:105C960029042804031D572E0030A7000030A60053
:105CA6000030A5000030A40027082306031D652E3A
:105CB60026082206031D652E25082106031D652ECE
:105CC600240820060319692E03100800031408008F
:105CD60042019D1C752E1D121D160130F600760818
:105CE6004301C60742011D1D7F2E9D139D170130DE
:105CF600F60076084301C7070F3043014402031834
:105D06009D2E42011908F60043014408283E8600EC
:105D160002308700760881004408283E860002305B
:105D260087000108F6007608C3060130F6007608FB
:105D3600C40708004201190843014306031DB22E99
:105D46000130F6007608C5002830F6007608F00027
:105D56000F30F1000030F2003C30AC31BF2443017B
:105D6600C301C40108004001A601A11FC12EA0095C
:105D7600A109A00A0319A10AA601A60AA31FCC2EEF
:105D8600A209A309A20A0319A30A0130A400240840
:105D9600A606A701A801200821040319FB2EA501C8
:105DA600A50AA11BE02E0130A035A10D890BD72E27
:105DB6000130A4002408A507D42E0130A735A80D6C
:105DC600890BE12E21082302031DEB2E2008220257
