:020000040000FA
:1000000080315428080008007E1480314E01961E6D
:100010000A280B2813288C1E0E280F281328A73116
:10002000EE2780315228161E162817281F280C1E6E
:100030001A281B281F289A314122803152280B1F71
:100040002228232852281A1C262827282F28101C4B
:100050002A282B282F289831AE2080315228191EAB
:10006000322833283E280F1E362837283E284301E1
:1000700041088A0040080A0080315228991E412810
:10008000422852288F1E45284628522843013F08FF
:100090008A003E080A0080315228522852285228ED
:1000A000522852287E1009008031562818308400CA
:1000B00098308500C2308600013087000830A731B3
:1000C000FA278031F801F901FA01FB01FC01FD0179
:1000D000EF014101EE0147308400013085001F30FF
:1000E000A731F4278031A03084000130850018301A
:1000F000A731F42780317E10400180317F2899316B
:10010000342180318B170B17983108208031400142
:1001100099169A159031142080318831032080314E
:100120003D304001A0001F30A10098314D208031AA
:10013000FF304001A0001B30A10098313B208031EE
:10014000FF304001A0001B30A100983144208031D5
:1001500020304001A0001830A10098315F2080318C
:1001600002304001A0001D30A1009831682080318C
:10017000FA304001A0001830A1009831562080319B
:1001800032304101EB006B084201CF00C7289D319E
:100190004C258031063042016002031CD028D12852
:1001A000892C9A31B92280314101EB006B08420160
:1001B000C60046084101EB00EC016B084201B200A9
:1001C00041016C084201B3009A31B92280314101EA
:1001D000EB006B084201C60046084101EB00EC0150
:1001E0006B08EC00EB016B084201B20441016C08A2
:1001F0004201B3049A31B92280314101EB006B080E
:100200004201C60046084101EB00EC016B084201C7
:10021000B40041016C084201B5009A31B922803125
:100220004101EB006B084201C60046084101EB00AA
:10023000EC016B08EC00EB016B084201B4044101D6
:100240006C084201B5049A31B92280314101EB00BA
:100250006B084201C60046084101EB00EC016B0847
:100260004201A40041016C084201A5009A31B92263
:1002700080314101EB006B084201C6004608410194
:10028000EB00EC016B08EC00EB016B084201A404ED
:1002900041016C084201A504C0304101B500C030E5
:1002A000B4000030B3000030B20047304001EA0033
:1002B0008030E9000030E8000030E7004230B6004E
:1002C000FA30B5000030B4000030B300420132080B
:1002D0004001A000420133084001A100A201A30196
:1002E000003093313923803140012308BA002208BD
:1002F000B9002108B8002008B7008B3123238031D2
:1003000040013608EE003508ED003408EC003308F3
:10031000EB008831EB20803140016A084101B900CF
:10032000400169084101B800400168084101B70077
:10033000400167084101B6008D318E2580314101B1
:1003400035084201C500410134084201C4004101A1
:1003500033084201C300410132084201C200C230E9
:100360004101B5003B30B4006630B3006630B200E6
:1003700047304001EA008030E9000030E8000030FA
:10038000E7004330B6002F30B500B830B40052302B
:10039000B300420134084001A00042013508400189
:1003A000A100A201A3010030933139238031400123
:1003B0002308BA002208B9002108B8002008B700B5
:1003C0008B312323803140013608EE003508ED00E3
:1003D0003408EC003308EB008831EB208031400119
:1003E0006A084101B900400169084101B8004001B3
:1003F00068084101B700400167084101B6008D312E
:100400008E258031410135084201C1004101340887
:100410004201C000410133084201BF0041013208DE
:100420004201BE0045084101E60042014408410185
:10043000E500420143084101E40042014208410154
:10044000E3009C317B248031410166084201A90010
:10045000410165084201A800410164084201A7006A
:10046000410163084201A60043304101B5007330E9
:10047000B4001E30B300B830B2004201410841015F
:10048000B900420140084101B80042013F08410162
:10049000B70042013E084101B6008D318E25803102
:1004A000410135084001EA00410134084001E900FA
:1004B000410133084001E800410132084001E700F2
:1004C0004130B6008C30B500F530B400C330B30015
:1004D000420141084001BA00420140084001B90010
:1004E00042013F084001B80042013E084001B70008
:1004F0008B312323803140013608EE003508ED00B2
:100500003408EC003308EB008831EB2080314001E7
:100510006A084201AD00400169084201AC00400197
:1005200068084201AB00400167084201AA003E3062
:100530004001EA00DE30E9005C30E8009230E7007C
:10054000C0304101B5000030B4000030B3000030CD
:10055000B200420129084101B900420128084101C5
:10056000B800420127084101B700420126084101B5
:10057000B6008D318E258031410135084001EE00F5
:10058000410134084001ED00410133084001EC0015
:10059000410132084001EB008831EB2080314001FD
:1005A0006A084201B100400169084201B0004001FF
:1005B00068084201AF00400167084201AE002D0803
:1005C0004101B50042012C084101B40042012B0851
:1005D0004101B30042012A084101B2004201310841
:1005E0004101B900420130084101B80042012F0821
:1005F0004101B70042012E084101B6008D318E2520
:100600008031410135084201B900410134084201FD
:10061000B800410133084201B700410132084201EC
:10062000B60041304101B5008C30B400F530B30064
:10063000C330B200420139084001E60042013808E7
:100640004001E500420137084001E400420136085C
:100650004001E3009831BC2080314001660841012F
:10066000B900400165084101B8004001640841013A
:10067000B700400163084101B6008D318E258031FD
:10068000410135084001EA00410134084001E90018
:10069000410133084001E800410132084001E70010
:1006A0004330B6007330B5001E30B400B830B3002C
:1006B000420139084001BA00420138084001B9003E
:1006C000420137084001B800420136084001B70036
:1006D0008B312323803140013608EE003508ED00D0
:1006E0003408EC003308EB008831EB208031400106
:1006F0006A084201A300400169084201A2004001CA
:1007000068084201A100400167084201A0004508B5
:100710004001A300420144084001A20042014308F5
:100720004001A100420142084001A0000030A700A2
:100730000030A6000030A5000030A40092318B22CA
:1007400080310318A42BA52BAF2B00304201C5002C
:100750000030C4000030C3000030C200DA2B423049
:100760004001A300C830A2000030A1000030A0006A
:10077000420145084001A700420144084001A6008B
:10078000420143084001A500420142084001A40083
:1007900092318B2280310318CE2BCF2BDA2B4230B3
:1007A0004201C500C830C4000030C3000030C200A0
:1007B000DA2BDA2B420145084001BA004201440815
:1007C0004001B900420143084001B800420142081B
:1007D0004001B7004130B6002030B5000030B40011
:1007E0000030B3008B3123238031400136084101B2
:1007F000CD00400135084101CC00400134084101E1
:10080000CB00400133084101CA009031E120803122
:1008100041014D084201BD0041014C084201BC00AC
:1008200041014B084201BB0041014A084201BA00A4
:100830003D084001D00042013C084001CF00420188
:100840003B084001CE0042013A084001CD00913101
:10085000F621803140014D084101EB006B08420157
:10086000DC0041084001BA00420140084001B900E3
:1008700042013F084001B80042013E084001B70074
:100880004130B6002030B5000030B4000030B30075
:100890008B3123238031400136084101CD004001D6
:1008A00035084101CC00400134084101CB00400132
:1008B00033084101CA009031E120803141014D08E7
:1008C0004201BD0041014C084201BC0041014B08FE
:1008D0004201BB0041014A084201BA003D08400103
:1008E000D00042013C084001CF0042013B084001DA
:1008F000CE0042013A084001CD009131F62180310D
:1009000040014D084101EB006B084201E500000089
:10091000892C42015F08031D8E2C8F2C962C883168
:1009200003208031883100208031962C9331EE23D2
:100930008031003A031D9D2C9E2CA22C8431AF24C3
:100940008031A22C21304101EB007630890BA62C9E
:10095000EB0BA62C0000C728C72880315428410182
:10096000DF0142015B08031DB62CB72CDB2D0330E1
:100970004001D00050084101DF004001A7013B3099
:10098000A800A030A90000309B311A238431420115
:10099000E51BCB2CCC2CD32C65084101DD00DE01FE
:1009A000DD1BDE03E72C420165084001D000D101C8
:1009B000D01BD103D009D109D00A0319D10A50089C
:1009C0004101DD00400151084101DE00E72C0A3001
:1009D0004001A0000030A10042015A084001A300DC
:1009E000420159084001A2009C31BE2484314001DB
:1009F0002008D000D10150084101E0004001510819
:100A00004101E1000A304001A8000030A900420184
:100A10005A084001AB00420159084001AA009B312D
:100A2000C323843140012808D000D101500841017E
:100A3000E200400151084101E3000A304001A000FA
:100A40000030A100420156084001A30042015508B0
:100A50004001A2009C31BE248431400121084101A3
:100A6000E500400120084101E4000A304001A800EF
:100A70000030A900420156084001AB004201550870
:100A80004001AA009B31C323843140012908410160
:100A9000E700400128084101E60000304001AE00B7
:100AA000A030AF000A30A0000030A100420165086C
:100AB0004001A200A301A21BA3039031772084313F
:100AC00040012008B000B101B01BB1030A30A00002
:100AD0000030A10041015E084001A30041015D0812
:100AE0004001A2009E31DF26843140012008B2007F
:100AF000B301B21BB3030A30A0000030A1004201D1
:100B00005C084001D000D1015008A2005108A300A8
:100B100090317720843140012008D200D30152085F
:100B2000B4005308B5000A30A0000030A100420113
:100B30005C084001D400D5015408A2005508A30068
:100B40009E31DF26843140012008D600D7015608A7
:100B5000B6005708B700410161084001B9004101E2
:100B600060084001B800410163084001BB00410139
:100B700062084001BA00410165084001BD00410121
:100B800064084001BC00410167084001BF00410109
:100B900066084001BE00A030963114268431400121
:100BA000A701A70AA030A8000030A90000309B319F
:100BB0001A2384315A2F42015B03031DE02DE12DDE
:100BC000A62E03304001D00050084101DF00400153
:100BD000A7016830A800A030A90000309B311A237B
:100BE00084310A304001A0000030A10042014808D1
:100BF0004001A300420147084001A2009C31BE24ED
:100C00008431400121084101E100400120084101F7
:100C1000E0000A304001A8000030A9004201480865
:100C20004001AB00420147084001AA009B31C323A9
:100C30008431400129084101E300400128084101B5
:100C4000E2000A304001A0000030A10042014A0841
:100C50004001A300420149084001A2009C31BE248A
:100C60008431400121084101E50040012008410193
:100C7000E4000A304001A8000030A90042014A08FF
:100C80004001AB00420149084001AA009B31C32347
:100C90008431400129084101E70040012808410151
:100CA000E600B8304001AE00A030AF0042014F086E
:100CB0004001D000D1015008B0005108B1004101FD
:100CC00061084001B300410160084001B2004101E8
:100CD00063084001B500410162084001B4004201CF
:100CE00050084001D200D3015208B6005308B700A3
:100CF000410165084001B900410164084001B800A4
:100D0000410167084001BB00410166084001BA008B
:100D1000A0309631142684314001A701A70AA030E3
:100D2000A8000030A90000309B311A238431023022
:100D30007C06031D9C2E9D2E5A2F0A304001D000A8
:100D400050084201DB00FC015A2F5A2F0A305B0683
:100D5000031DAB2EAC2E5A2F4001A7014E30A80028
:100D6000A130A9000C30D0005008A00041016E084D
:100D70009931622184319B311A2384310E30400134
:100D8000AE00A130AF0041016E08013E4001B0004D
:100D9000003003180130B100A030963114268431A0
:100DA0004001A701A70AA030A8000030A9000C301C
:100DB000D0005008A00041016E08993162218431B1
:100DC0009B311A2384314D2F40016F03031DE92EFF
:100DD000EA2E042F41016E084F3E86000130870045
:100DE000633001020318F52EF62E042F0130400166
:100DF000D00041016E084F3E86000130870040015F
:100E000050088107EF01212F023040016F06031DBA
:100E10000A2F0B2F212F41016E084F3E8600013013
:100E2000870001080319152F162F212F6E084F3E3A
:100E3000860001308700013081024001EF01212F3F
:100E4000212F6F304001AE00A130AF0041016E088C
:100E50004F3E86000130870001084001D000D101DB
:100E60005008B0005108B100A030963114268431EA
:100E70004001A701A70AA030A8000030A9000C304B
:100E8000D0005008A00041016E08993162218431E0
:100E9000093E9B311A2384314D2F7C080319512FB1
:100EA000522FE42E532FFC014201DB01DB0A5A2FA3
:100EB0005A2F5A2F7C03031D5E2F5F2F762FFC01C4
:100EC00042015B08031D652F662F692FDB01DB0ADA
:100ED000702F5B03031D6D2F6E2F702FDB01702FA2
:100EE0004101EE01A731DF278431762F0A3042011C
:100EF0005B0203187C2F7D2FEB2F40016F03031D36
:100F0000822F832FB52F41015F086E020318892FAE
:100F10008A2FB52F01304001D00050084101EE0763
:100F20004001EF014101E8010C306802031C992FD8
:100F30009A2F9C2FEB2FEB2FA731E427843107301A
:100F40004001D0007D30890BA32FD00BA32F01309F
:100F50004001D00050084101E8070C306802031C32
:100F6000B22FB32F9C2FEB2FEB2F023040016F06D7
:100F7000031DBB2FBC2FEB2F41016E080319C12F9E
:100F8000C22FEB2F0130EE024001EF014101E801D9
:100F90000C306802031CCD2FCE2FD02FEB2FEB2F60
:100FA000A731E927843107304001D0007D30890B1B
:100FB000D72FD00BD72F01304001D000500841016E
:100FC000E8070C306802031CE62FE72FD02FEB2F29
:100FD000EB2FEB2FEB2F080044010E1DF02FF12F0C
:100FE000F82F0E1071088D0070088C000E14FD2F64
:100FF00071088D0070088C00FD2F080008000800A3
:1010000044010E140800400118149B318A238831D2
:1010100040013B084301A10040013A084301A00000
:101020009A31E622883140013B08C7003A08C600E1
:10103000181098149B318A23883140013B084301E2
:10104000A30040013A084301A2009A31E622883108
:1010500040013B08CA003A08C90047084A02031D7C
:101060003328460849020318362837283C284A08FE
:10107000C7004908C6003C28981018159B318A23E0
:10108000883140013B084301A50040013A08430173
:10109000A4009A31E622883140013B08CA003A0890
:1010A000C90047084A02031D572846084902031889
:1010B0005A285B2860284A08C7004908C6006028EB
:1010C000181198159B318A23883140013B08430150
:1010D000A70040013A084301A6009A31E622883170
:1010E00040013B08CA003A08C90047084A02031DEC
:1010F0007B284608490203187E287F2884284A084E
:10110000C7004908C6008428981147084201DA0040
:10111000400146084201D900D501D6014001C8016D
:1011200004304802031C952896289828EA28EA28C3
:101130000030AF000030AE000330AD00E830AC004E
:101140004908A0004A08A100A201A3014835A03E19
:10115000860001308700403FC400413FC50044087D
:10116000A4004508A500A601A7019B3152238831A0
:1011700040012308B3002208B2002108B100200872
:10118000B0009F319E27883140014835473E860098
:10119000013087002C08C03F2D08C13F4835473E2D
:1011A000860001308700403FC400413FC50044082D
:1011B0004201D507400145084201D63D01304001BA
:1011C000C4004408C80704304802031CE828E92882
:1011D0009828EA28080040016E0880394101A000E3
:1011E0002008A90040016E354101A0002008B00090
:1011F0004001ED1FFC28FD28002941013014002981
:10120000410130080319052906291929300A031D4F
:101210000A290B29152900304001EE000030ED00AD
:101220000030EC000030EB0015294001ED17EE0115
:10123000232900304001EE000030ED000030EC00CA
:101240000030EB0023296A0880394101A000200802
:10125000A90640016A354101A0002008B100400103
:10126000E91F332934293729410131143729410134
:10127000310803193C293D295029310A031D412910
:1012800042294C2900304001EA000030E9000030DA
:10129000E8000030E7004C294001E917EA0159292C
:1012A00000304001EA000030E9000030E800003082
:1012B000E7006A08690468046704031D602961295E
:1012C0007D290030EE000030ED000030EC000030F1
:1012D000EB008030ED047F30EE0441012908A000CE
:1012E00020084001EE046E08EA006D08E9006C0871
:1012F000E8006B08E700222B222B41013008031D78
:1013000082298329962900304001EE000030ED004B
:101310000030EC000030EB006E08EA006D08E900D8
:101320006C08E8006B08E700222B222B41013108F2
:10133000A000A101A009A109A00A0319A10A30086F
:101340002007A20021080318210AA30022087F3EDB
:10135000AA000030233DAB0040016E084101A80007
:1013600040016D084101A70040016C084101A60041
:1013700040016B084101A50000304001EE00003043
:10138000ED000030EC000030EB0000304101AF0018
:101390000030AE000030AD000030AC00B101262AB4
:1013A00031080319D429D529F5290130A535A60D11
:1013B000A70DA80D890BD62901304001EB35EC0DA6
:1013C000ED0DEE0D890BDD294101AF1FE829E9295B
:1013D000EC2940016B14EC2901304101AC35AD0D15
:1013E000AE0DAF0D890BED29F52940016A084101C9
:1013F0002802031D0B2A4001690841012702031D31
:101400000B2A4001680841012602031D0B2A4001F6
:10141000670841012502031C0E2A0F2A212A2F17D3
:10142000400167084101A502400168084101A63B4F
:10143000400169084101A73B40016A084101A83BFE
:10144000212A0130A0002008B107262A1A303102D3
:10145000031C2B2A2C2AD0292D2A280827042604ED
:1014600025040319342A352A552A2C14552A552ABD
:1014700001304001EB35EC0DED0DEE0D890B392AF5
:101480004101AF1F442A452A482A40016B14482ACB
:1014900001304101AC35AD0DAE0DAF0D890B492AC0
:1014A000FF30AA07FF30AB3D552A4001ED1F592AF6
:1014B0005A2A382A5B2A4101B101AF1F602A612AEA
:1014C000832AFF302C05A000FF302D05A100FF303E
:1014D0002E05A2007F302F05A3002308220421043B
:1014E00020040319742A752A782AB101B10A832AC3
:1014F00040016B1C7C2A7D2A832A4101B101B10A7B
:10150000832A832A832A410131080319882A892AD8
:10151000C32A01304001EB070030EC3D0030ED3DC7
:101520000030EE3D6E1C952A962AC32A6B084101B5
:10153000A00040016C084101A10040016D0841017B
:10154000A20040016E084101A3000130A400A337AE
:10155000A20CA10CA00CA40BA72A23084001EE00AA
:10156000410122084001ED00410121084001EC0049
:10157000410120084001EB0001304101AA07003081
:10158000AB3DC32AC32A41012B08803AA00080301A
:101590002002031DCD2AFF302A02031CD02AD12AA3
:1015A000DF2AFF304101AA000030AB0000304001CB
:1015B000EE000030ED000030EC000030EB004101A7
:1015C0002B08803AA00080302002031DE92A013058
:1015D0002A020318EC2AED2AFB2A4101AA01AB01D9
:1015E00000304001EE000030ED000030EC00003033
:1015F000EB004101A90141012A08A0002008B00028
:10160000301C032B042B072B4001ED170D2B7F30D3
:101610004101A00020084001ED0541013036A00045
:1016200020084001EE0041012908A00020084001E7
:10163000EE046E08EA006D08E9006C08E8006B082B
:10164000E700222B0800400136088039BB003B0828
:10165000C0003635BB003B08C600B51F302B312B10
:10166000332B4614332B46080319372B382B482BC2
:10167000460A031D3C2B3D2B462B0030B6000030A4
:10168000B5000030B4000030B300462BB517512B25
:101690000030B6000030B5000030B4000030B300B8
:1016A000512B3A088039BB003B08C0063A35BB00D5
:1016B0003B08C500B91F5D2B5E2B602B4514602BCA
:1016C00045080319642B652B752B450A031D692BEF
:1016D0006A2B732B0030BA000030B9000030B8001C
:1016E0000030B700732BB9177E2B0030BA000030E2
:1016F000B9000030B8000030B7007E2B4508031950
:10170000822B832B892B4608031D872B882B932B39
:10171000892B0030B6000030B5000030B400003036
:10172000B3008D2D8D2D3308BB003B08A000390878
:101730009A3166228B3140012108CC002008CB0071
:101740004B08BB00BC01BD01BE013E08C4003D0802
:10175000C3003C08C2003B08C1004C08BB00BC01F0
:10176000BD01BE013E08CA003D08C9003C08C800D2
:101770003B08C7003408BB003B08A00038089A317A
:1017800066228B3140012108CC002008CB004B0899
:10179000BB00BC01BD01BE013B08C1073C08C23D06
:1017A0003D08C33D3E08C43D4C08BB00BC01BD0123
:1017B000BE013B08C7073C08C83D3D08C93D3E087F
:1017C000CA3D3508BB003B08A00037089A316622A5
:1017D0008B3140012108CC002008CB004B08BB0016
:1017E000BC01BD01BE013B08C1073C08C23D3D082C
:1017F000C33D3E08C43D4C08BB00BC01BD01BE0159
:101800003B08C7073C08C83D3D08C93D3E08CA3DE6
:101810000830C135C20DC30DC40D890B092C340825
:10182000BB003B08A00037089A3166228B3140018B
:101830002108CC002008CB004B08C1074C08C23D52
:101840000030C33DC43D3308BB003B08A00038084E
:101850009A3166228B3140012108CC002008CB0050
:101860004B08C1074C08C23D0030C33DC43D0830A1
:10187000C135C20DC30DC40D890B382C3308BB0014
:101880003B08A00037089A3166228B3140012108BD
:10189000CC002008CB004B08C1074C08C23D0030EB
:1018A000C33DC43D3408BB003B08A00039089A3151
:1018B00066228B3140012108CC002008CB004B0868
:1018C000C7074C08C83D0030C93DCA3D3508BB00BC
:1018D0003B08A00038089A3166228B31400121086C
:1018E000CC002008CB004B08C7074C08C83D00308F
:1018F000C93DCA3D3508BB003B08A00039089A31F4
:1019000066228B3140012108CC002008CB004B0817
:10191000BB004C08BC00BD01BE010830BB35BC0D8E
:10192000BD0DBE0D890B8E2C3B08C7073C08C83D7A
:101930003D08C93D3E08CA3D4108BB004208BC0005
:101940004308BD004408BE001830BE36BD0CBC0CB8
:10195000BB0C890BA52C3B08C7073C08C83D3D08BC
:10196000C93D3E08CA3D0830C135C20DC30DC40D86
:10197000890BB42C46084507BB00BC01BC0D3B08D5
:10198000823ECB00FF303C3DCC00DF2C0130C73520
:10199000C80DC90DCA0D890BC72CC41FD02CD12C62
:1019A000D32C4714D32C0130C135C20DC30DC40D47
:1019B000890BD42CFF30CB07FF30CC3DDF2CC91F67
:1019C000E22CE32CC62CE42CC501C41FE82CE92C26
:1019D000092DFF304105BB00FF304205BC00FF3040
:1019E0004305BD007F304405BE003E083D043C0475
:1019F0003B040319FC2CFD2C002DC501C50A092D43
:101A0000471C032D042D092DC501C50A092D092DDB
:101A1000092D450803190D2D0E2D382D0130C7074E
:101A20000030C83D0030C93D0030CA3D4A1C192D68
:101A30001A2D382D4708BB004808BC004908BD00D6
:101A40004A08BE000130BF00BE37BD0CBC0CBB0C49
:101A5000BF0B242D3E08CA003D08C9003C08C80041
:101A60003B08C7000130CB070030CC3D382D382D66
:101A70004C08803ABB0080303B02031D412DFF30F3
:101A80004B02031C442D452D4F2D7F304001CA00D1
:101A90008030C9000030C8000030C700802D4001F0
:101AA0004C08803ABB0080303B02031D592D0130A9
:101AB0004B0203185C2D5D2D682D00304001CA00DB
:101AC0000030C9000030C8000030C700C001802DC0
:101AD00040014B08BB003B08C600FF30C705FF3084
:101AE000C8057F30C9050030CA05461C782D792D00
:101AF0007B2DC9177B2D4636BB003B08CA00802DC5
:101B00004008BB003B08CA044A08B6004908B500B3
:101B10004808B4004708B3008D2D0800410135087E
:101B20008039BA003A08C6003535BA003A08C8000C
:101B3000B41F9B2D9C2D9E2D48149E2D48080319E3
:101B4000A22DA32DB42D480A031DA72DA82DB12D1C
:101B50000030B5000030B4000030B3000030B200F7
:101B6000B12DB417B501BD2D0030B5000030B40063
:101B70000030B3000030B200BD2D39088039BA0002
:101B80003A08C700470846060319C72DC82DCA2DB5
:101B90004617CA2D3935BA003A08C700B81FD12DEB
:101BA000D22DD42D4714D42D47080319D82DD92D63
:101BB000EA2D470A031DDD2DDE2DE72D0030B9008B
:101BC0000030B8000030B7000030B600E72DB8177D
:101BD000B901F22D0030B9000030B8000030B70074
:101BE0000030B600480847020318F72DF82D3E2EA6
:101BF000461FFB2DFC2D012E8030BA003A08C60688
:101C0000012E4808BA003A08C9004708BA003A0845
:101C1000C8004908BA003A08C7003208BA003A08B2
:101C2000C9003608BA003A08B2004908BA003A08B2
:101C3000B6003308BA003A08C9003708BA003A08B3
:101C4000B3004908BA003A08B7003408BA003A08A5
:101C5000C9003808BA003A08B4004908BA003A087E
:101C6000B8003508BA003A08C9003908BA003A087D
:101C7000B5004908BA003A08B9003E2EC901480823
:101C8000BA00BB01BA09BB09BA0A0319BB0A470863
:101C90003A07BC003B0803183B0ABD003D08803AE8
:101CA000BE0080303E02031D572E1A303C02031C3A
:101CB0005A2E5B2E972E410135083404330432042A
:101CC000031D632E652E0130662E0030BA003A08DF
:101CD000C9000030B5000030B4000030B30000305F
:101CE000B2004708BA003A08C8009F2E972E491C38
:101CF0007A2E7B2E812E49360138BA003A08C90067
:101D0000842E0310C90C842E321C872E882E8A2E16
:101D1000C9178A2E0130BA00B537B40CB30CB20C17
:101D2000BA0B8C2E0130BA003A08C807972E410131
:101D300047084802031C9D2E9E2E772E9F2E461B81
:101D4000A22EA32EDF2E4808031DA72EA82EB22EEA
:101D50000030B5000030B4000030B3000030B200F5
:101D6000FF2FFF2F3608B2073708B33D3808B43DC0
:101D70003908B53D351CBD2EBE2E862F491CC12EFF
:101D8000C22EC82E49360138BA003A08C900CB2EF7
:101D90000310C90CCB2E321CCE2ECF2ED12EC9173C
:101DA000D12E0130BA00B537B40CB30CB20CBA0B5B
:101DB000D32E0130BA003A08C807862F862F35087F
:101DC000803ABA003908803A3A02031DF12E3808E9
:101DD0003402031DF12E37083302031DF12E36089D
:101DE00032020318F42EF52E412FFF30BA00FF30D7
:101DF000BB00FF30BC00FF30BD003608BE00370816
:101E0000BF003808C0003908C1003209C2003309D8
:101E1000C3003409C4003509C500C20A0319C30A46
:101E20000319C40A0319C50A4208BE074308BF3D87
:101E30004408C03D4508C13D3E08BA073F08BB3DC8
:101E40004008BC3D4108BD3D3D08B5003C08B4001C
:101E50003B08B3003A08B2008030BA003A08C60620
:101E6000C909C90A4908031D362F372F492F0130E8
:101E7000B2070030B33D0030B43D0030B53D492FCE
:101E8000492F3608B2023708B33B3808B43B39084B
:101E9000B53B3508340433043204031D502F512F51
:101EA000802F4908031D552F562F802F0030B50075
:101EB0000030B4000030B3000030B200FF2FFF2F1D
:101EC000802F0130B235B30DB40DB50D890B622FE3
:101ED000C91F6B2F6C2F6D2F3214491C702F712F5F
:101EE000742F0314C90D772F0310C90D772F4808DD
:101EF00003197B2F7C2F802F0130C802802F802F69
:101F0000B41F832F842F612F862F862FC701C91FEF
:101F10008A2F8B2F9D2F49087F390319902F912FDE
:101F2000942FC701C70A9D2F321C972F982F9D2FE2
:101F3000C701C70A9D2F9D2F9D2F47080319A12F69
:101F4000A22FD12F0130B2070030B33D0030B43D95
:101F50000030B53D351CAD2FAE2FD12F3208BA0061
:101F60003308BB003408BC003508BD000130BE009A
:101F7000BD37BC0CBB0CBA0CBE0BB82F3D08B5006E
:101F80003C08B4003B08B3003A08B200480A031901
:101F9000CA2FCB2FD12F0130BA003A08C807D12F52
:101FA000D12F480A0319D52FD62FDC2F4808031D3F
:101FB000DA2FDB2FEC2FDC2F0030B5000030B4001F
:101FC0000030B3000030B2004808031DE82FE92FAD
:101FD000EC2FC601EC2FEC2F481CEF2FF02FF22F27
:101FE000B417F62F7F30BA003A08B4054836BA0065
:101FF0003A08B500C61FFD2FFE2FFF2FB5170800AA
:10200000080044010E10080043013C083D04031978
:102010000A280B2811283D088A003C080A00903144
:1020200011287E015511080040011912191199114A
:1020300011304001A7003A30890B1C28A70B1C283F
:1020400000004001991019109A121A1203309C31A5
:102050003C249031FA300032890B2B2808309C3117
:102060003C249031FA300032890B332802309C3105
:102070003C249031FA300032890B3B2802309C31ED
:102080003C249031FA300032890B432808309C31CF
:102090003C249031FA300032890B4B2808309831BB
:1020A0007B209031FA300032890B5328013098316F
:1020B0007B209031FA300032890B5B280630983152
:1020C0007B209031FA300032890B6328023098313E
:1020D0007B209031FA300032890B6B280C3098311C
:1020E0007B209031FA300032890B732808004001C0
:1020F000A601A11F7C287D288528A009A109A00A86
:102100000319A10AA601A60A8528A31F88288928E1
:102110009328A209A309A20A0319A30A0130A40063
:102120002408A6069328A701A80120082104031962
:102130009A289B28D028A501A50AA8280130A035F7
:10214000A10D890B9F280130A4002408A507A82809
:10215000A11FAB28AC289E28AE28AE280130A73599
:10216000A80D890BAF2821082302031DB9282008D8
:102170002202031CBC28BD28C3282008A202210873
:10218000A33B2714C3280130A136A00C890BC42817
:102190000130A502031DCD28CE28AE28D028D02896
:1021A00026080319D428D528DB28A709A809A70AD7
:1021B0000319A80ADB282808A1002708A000E028A6
:1021C000080041014D08B5004C08B4004B08B300AD
:1021D0004A08B2004D084001DB0041014C084001B3
:1021E000DA0041014B084001D90041014A08400191
:1021F000D8009E318B26903140015B08E6005A08DA
:10220000E5005908E4005808E3009831BC209031FB
:10221000400166084101B900400165084101B8006C
:10222000400164084101B700400163084101B60064
:102230008D318E25903141013508D1003408D00010
:102240003308CF003208CE005108B5005008B40062
:102250004F08B3004E08B2004D08B9004C08B80052
:102260004B08B7004A08B6008D318E2590314101E8
:102270003508CD003408CC003308CB003208CA0042
:102280004D084001DB0041014C084001DA004101EA
:102290004B084001D90041014A084001D8009E3155
:1022A0008B26903140015B084101CD0040015A0866
:1022B0004101CC00400159084101CB0040015808C0
:1022C0004101CA006329080041015108D3005008A8
:1022D000D200D235D30DD235D30D4E08520784002B
:1022E0004F08533D8500003FD400013FD500023F19
:1022F000D600033FD7005708DB005608DA00550820
:10230000D9005408D800E529FF30D007FF30D13D6F
:102310005108D3005008D200D235D30DD235D30D99
:102320004E08520784004F08533D8500003FD400FB
:10233000013FD500023FD600033FD7005708B50044
:102340005608B4005508B3005408B2005B084001B9
:10235000B60041015A084001B50041015908400149
:10236000B400410158084001B30041014D0840014B
:10237000BA0041014C084001B90041014B0840013D
:10238000B80041014A084001B7008B312323913145
:10239000400136084101B900400135084101B8004B
:1023A000400134084101B700400133084101B60043
:1023B0008D318E25913141013508DB003408DA007A
:1023C0003308D9003208D800E52950085104031D0C
:1023D000EA29EB298429EC295B08CD005A08CC00B6
:1023E0005908CB005808CA00F529080040014D08DB
:1023F000D1004E08D2004F08D3005008D40003107B
:10240000530D540DD5005508D7005708031D092A50
:102410000A2A142A0030D0000030CF000030CE004D
:102420000030CD008A2A8A2A4D08D1004E08D200F9
:102430004F08D3005008D4001F30D436D30CD20C30
:10244000D10C890B1D2A5108D5005508D600CF178D
:10245000FF30CD05FF30CE05FF30CF050030D00571
:102460009630D702D71F352A362A592A5708803A7C
:10247000973E03183C2A3D2A482A0030D0000030FD
:10248000CF000030CE000030CD008A2A8A2A482AA8
:102490000130D036CF0CCE0CCD0C890B492A01303F
:1024A000D1005108D707031D562A572A482A7A2AED
:1024B0007A2A20305702031C5E2A5F2A732A0030D2
:1024C000D0000030CF000030CE000030CD008A2A8E
:1024D0008A2A732A0130CD35CE0DCF0DD00D890B50
:1024E0006B2A0130D7025708031D772A782A6A2AF7
:1024F0007A2A7A2A560803197E2A7F2A8A2ACD093F
:10250000CE09CF09D009CD0A0319CE0A0319CF0A83
:102510000319D00A0800003040012005A80000304F
:102520002105A90080302205AA007F302305AB00D9
:102530002B082A0429042804031D9F2AA02AA82A5C
:102540000030A3000030A2000030A1000030A00045
:1025500000302405A80000302505A900803026059C
:10256000AA007F302705AB002B082A042904280481
:10257000031DBB2ABC2AC52A0030A7000030A600D4
:102580000030A5000030A400C52AA31FC82AC92A0C
:10259000F12A0030A8000030A9000030AA008030E5
:1025A000AB002009AC002109AD002209AE002309CF
:1025B000AF00AC0A0319AD0A0319AE0A0319AF0A3A
:1025C0002C08A8072D08A93D2E08AA3D2F08AB3DD1
:1025D0002B08A3002A08A2002908A1002808A000AF
:1025E000F12AA71FF42AF52A1D2B0030A80000307D
:1025F000A9000030AA008030AB002409AC002509F6
:10260000AD002609AE002709AF00AC0A0319AD0AD8
:102610000319AE0A0319AF0A2C08A8072D08A93D13
:102620002E08AA3D2F08AB3D2B08A7002A08A600BC
:102630002908A5002808A4001D2B8030A30680309F
:10264000A70627082302031D2F2B26082202031D9D
:102650002F2B25082102031D2F2B240820020318ED
:10266000322B332B352B0310382B0314382B382BFC
:1026700008004001A800280803193F2B402B542BC9
:10268000A31F432B442B542B2009AA002109AB0084
:102690002209AC002309AD00AA0A0319AB0A0319E9
:1026A000AC0A0319AD0A5C2B2308AD002208AC006C
:1026B0002108AB002008AA002308220421042004DA
:1026C000031D632B642B6E2B0030A3000030A2008F
:1026D0000030A1000030A000ED2BED2B9630A400BF
:1026E0002408A9007F2B0130A4002408A907013089
:1026F000AD36AC0CAB0CAA0C890B782B7F2BFE30C3
:102700002D05031D842B852B732B9A2B9A2B0130BF
:10271000A4002408A9070130AA070030AB3D00300F
:10272000AC3D0030AD3D0130AD36AC0CAB0CAA0C6D
:10273000890B942BFF302D05031D9F2BA02B872B7E
:10274000AC2BAC2B0130A9020130AA35AB0DAC0D7E
:10275000AD0D890BA52BAC2BAC1BAF2BB02BB72B26
:10276000023029020318B52BB62BA22BB72B291840
:10277000BA2BBB2BC32BFF30AA05FF30AB057F3034
:10278000AC05FF30AD050310A90C2908A400A50174
:10279000A601A7011830A435A50DA60DA70D890B1C
:1027A000CB2B2408AA042508AB042608AC04270870
:1027B000AD0428080319DD2BDE2BE42BA31FE12B2E
:1027C000E22BE42BAD17E42B2D08A3002C08A2006C
:1027D0002B08A1002A08A000ED2B080000304201C0
:1027E0005A026930031959020318F72BF82B182CD9
:1027F000A731DF279331013098317B20933140019D
:10280000A7012F30A800A130A90000309B311A2366
:1028100093314001A701A70A1930A800A130A900EF
:1028200000309B311A2393310130F62CF62C672CA3
:10283000003042015A02853003195902031C212C31
:10284000222C4B2C00305A029130031959020318E4
:102850002A2C2B2C4B2CA731DF27933101309831B8
:102860007B2093314001A7012F30A800A130A9009F
:1028700000309B311A2393314001A701A70A44304D
:10288000A800A130A90000309B311A2393310130F8
:10289000F62CF62C672C003042015A0291300319B5
:1028A0005902031C542C552C672C083098317B207E
:1028B0009331400199129A119910991019109A1296
:1028C0001A1219121911632C672C672C672C4201FC
:1028D0005D0803196C2C6D2CF42CA731DF27933184
:1028E000FC01E52C013098317B2093314001A70198
:1028F0006830A800A130A90000309B311A23933121
:102900004001A701A70A2430A800A130A900003087
:102910009B311A23933102304001B100E730B000FF
:102920000030890B912CB00B912CB10B912C000035
:10293000013098317B2093314001A701F530A80088
:10294000A030A90000309B311A2393314001A70128
:10295000A70A6030A800A130A90000309B311A23DB
:10296000933102304001B100E730B0000030890BF4
:10297000B72CB00BB72CB10BB72C0000013098313D
:102980007B2093314001A7010230A800A130A900AB
:1029900000309B311A2393314001A701A70A573019
:1029A000A800A130A90000309B311A2393310230D6
:1029B0004001B100E730B0000030890BDD2CB00BD6
:1029C000DD2CB10BDD2C0000E52C03307C06031D53
:1029D000EA2CEB2C722CEC2C4201DD0140019A1503
:1029E000883100209331F42C0030F62C080041018E
:1029F0005F084001A30041015E084001A2004101BF
:102A00005D084001A10041015C084001A0000030C8
:102A1000A7000030A6000030A5000030A4009231CD
:102A20008B2294310318152D162D262D21304201AD
:102A3000D3000030D40000304101DF000030DE0060
:102A40000030DD000030DC00132E132E41015F0842
:102A50004001A30041015E084001A20041015D0860
:102A60004001A10041015C084001A0000030A70026
:102A70000030A6000030A5000030A4009D31E625FE
:102A80009431031C442D452D552D22304201D30095
:102A90000030D40000304101DF000030DE000030A3
:102AA000DD000030DC00132E132EBF304101B500D5
:102AB0008030B4000030B3000030B200403040013C
:102AC000B6000030B5000030B4000030B300E13093
:102AD0004101E00060084001B00041015F08400191
:102AE000AF0041015E084001AE0041015D084001B8
:102AF000AD0041015C084001AC009E3137269431A5
:102B000040012F08BA002E08B9002D08B8002C0883
:102B1000B7008B3123239431400136084101B900BD
:102B2000400135084101B800400134084101B700B7
:102B3000400133084101B6008D318E2594314101A9
:102B40003508DF003408DE003308DD003208DC0021
:102B5000FF30E107FF30E23D5F08CD005E08CC00AA
:102B60005D08CB005C08CA009430CE00A030CF00D6
:102B70000830D0000030D1009131642194314101FE
:102B80004D08DF004C08DE004B08DD004A08DC0081
:102B90005F08B5005E08B4005D08B3005C08B200D1
:102BA0003F304001B6003130B5007230B40018300B
:102BB000B300410161084001A000410162084001E9
:102BC000A100890D893B8909A200A300013093313E
:102BD0003923943140012308BA002208B9002108A2
:102BE000B8002008B7008B31232394314001360808
:102BF0004101B900400135084101B80040013408E5
:102C00004101B700400133084101B6008D318E25E6
:102C1000943141013508DF003408DE003308DD005F
:102C20003208DC00132E08004001CE003030C00016
:102C30004008C600E32F25304F060319202E212E11
:102C40002D2E4F08C0004E088600870140088100E5
:102C50000130C0004008CE07E32FCC01CD01C901EF
:102C60002E0884002F088500000899311F21963115
:102C7000031C3B2E3C2ED12E4001CC01CD01402E19
:102C80000A304001A0000030A1004D08A3004C080C
:102C9000A2009A311E22963140012108CD00200861
:102CA000CC002E0884002F0885000008D03EC0000C
:102CB000FF3003180030C1004008CC074108CD3D6B
:102CC0000130AE070030AF3D2E0884002F0885008C
:102CD000000899311F21963103186F2E702E402E57
:102CE000D12ED12ED12EF92FEC2EEC2E40014D08F5
:102CF0004802031D7D2E4C0847020318802E812EAA
:102D0000862E4708CC024808CD3B962ECC01CD013B
:102D1000962E962E2030C0004E088600870140086F
:102D200081000130C0004008CE07962EFF30CC074E
:102D3000FF30CD3D4C0A031DA12E4D0A031DA12ECF
:102D4000A22E8A2EB72EB72E4408860087010108CE
:102D5000C0004E0886008701400881000130C00095
:102D60004008C4070130C0004008CE07B72E01302C
:102D7000C7020030C83B470A031DC22E480A031D84
:102D8000C22EC32EA42EE32FE32F4F30C0004008E5
:102D9000C4000130C7000030C800762E4917EC2E61
:102DA000EC2E40012F08C1002E08C000AE0A031906
:102DB000AF0A40088400410885000008CF00003AAF
:102DC0000319F92F643A0319EC2E0D3A0319EC2E6E
:102DD0001C3A0319CE2EC52E4001491BF02EF12EB0
:102DE0000B2F460886008701403FCA00413FCB00B9
:102DF0000230C0004008C607CB1FFF2E002F172F40
:102E00000330C0004008C904CA09CB09CA0A031923
:102E1000CB0A172F172F460886008701403FCA00AC
:102E2000413FCB000230C0004008C607172FCF013A
:102E3000CF0A05304F06031D1E2F1F2F212F472FAE
:102E4000472F4F08C000C101C035C10D3A304007BF
:102E50008400A130413D8500003FC200013FC30016
:102E600043084B02031D362F42084A020318392F2C
:102E70003A2F3C2F472F472F0130C0004008CF0783
:102E800005304F06031D452F462F212F472F4C0895
:102E90004D0403194C2F4D2F572F4908033903199F
:102EA000522F532F572FFF30CC07FF30CD3D4D0809
:102EB000803A803C031D5E2F4C084F020318612F9F
:102EC000622F6B2F40014F08C000C1014008CC02A7
:102ED0004108CD3B6F2F4001CC01CD016F2F4C0835
:102EE0004D040319742F752F8D2F762F2030C000BD
:102EF0004E0886008701400881000130C00040086C
:102F0000CE07FF30CC07FF30CD3D4C084D04031DEC
:102F10008A2F8B2F762F8D2F8D2F49080339031978
:102F2000922F932F9F2F2D30C0004E0886008701CF
:102F3000400881000130C0004008CE079F2F4F0895
:102F4000C0004008C500D82F0A30A8000030A900F2
:102F50004508C000C101C035C10D3A3040078400AA
:102F6000A130413D8500003FA000013FA1004B087A
:102F7000A3004A08A2009C31BE24963140012108DA
:102F8000AB002008AA009B31C323963140012808DA
:102F9000303EC2004208CF004F08C0004E088600F5
:102FA0008701400881000130C0004008CE07D82FBB
:102FB000FF30C0004008C507450A031DE02FE12F80
:102FC000A42FE32FE32F2F08C1002E08C000AE0A64
:102FD0000319AF0A40088400410885000008C200B8
:102FE0004208CF004F08031DF62FF72F1B2EF92F95
:102FF000F92F40014E08860087018101FF2F08004C
:10300000400119150430890B0328400119110800EB
:10301000013041019D00E0309E009B019C010800B1
:103020004F0196019701980199019A019B010800AF
:1030300000344034143454340034403414345434A0
:103040000130F8070030F93D0030FA3D0030FB3D1B
:103050000800400121084301BF004001200843014E
:10306000BE000800400121084301C10040012008C2
:103070004301C0000800400121084201ED00400169
:1030800020084201EC000800400121084201EB0049
:10309000400120084201EA000800400121084201E5
:1030A000E900400120084201E80008004001210831
:1030B0004301BD00400120084301BC00080040015D
:1030C00021084301BB00400120084301BA00080069
:1030D000400121084301B900400120084301B80024
:1030E0000800623051018D008F0191010230930080
:1030F0009001920108004001A600A3012608993121
:103100004A21983199317C21983108004001A6006C
:10311000A301A30A260899314A21983199317C21CB
:103120009831080043013A083B040319982899286C
:103130009F283B088A003A080A0098319F28080017
:103140004301380839040319A628A728AD283908EF
:103150008A0038080A009831AD2808004E01101086
:1031600042016708F1006608F0008731EC279831CA
:103170009831A02098310800400166086504640475
:1031800063040319C428C528C8288030E606C82867
:10319000C928080042016C086D040319D028D12801
:1031A000D7286D088A006C080A009831D7287E015C
:1031B0003F12080042016A086B040319E028E12865
:1031C000E7286B088A006A080A009831E7287E0120
:1031D000BF1208004201680869040319F028F128A9
:1031E000F72869088A0068080A009831F7287E01E4
:1031F000BF13080040019A1190310120983140011D
:1032000018109810181198110130F0007008420140
:10321000DD00080052304B019F007C309D009C0176
:103220004E018C129616FF304001A0000730A1001D
:1032300098315F20993184304B019E000800400195
:10324000A100A0013A302102031827292829312999
:1032500030302102031C2D292E293129A001A00A7A
:103260003129200C332908009831102099319D31E3
:1032700097259931983171209931983108209931E9
:1032800099319921993199310A2199319A318D22B7
:10329000993108004001A500230C031C19120318E2
:1032A000191699112508A4000430A436890B552954
:1032B00024089C313C249931400125089C313C2450
:1032C000993108004001A300A2016629231C692945
:1032D0006A296F292008A1002108A2076F2903107D
:1032E000A00D0310A30C2308031D77297829662954
:1032F000792922087B2908004001A001A00A1416A0
:1033000019129915191100324001191500320030B7
:1033100040010E1A0130A000191198310020993196
:1033200040012008031D952996298229141299111C
:10333000080044018F019001013091009E308D0002
:1033400058308C000D084201E70044010C0842018E
:10335000E6004E0110101A14FE304001A0000730A4
:10336000A100983168209931053044018E00080091
:103370004001A3002308A200A20DA20D41011D08D7
:10338000400122060339220641019D001D14000060
:1033900041019D14CB299D18CE29CF29CB29D029B5
:1033A0001C084001A10041011B084001A000D829D0
:1033B000080042019D1CDD29DE29E1291D121D1690
:1033C000E1291908F0006208A83E86000130870054
:1033D000700881000130F0007008E20708306202D6
:1033E000031CF329F429F629E201F6290130F00043
:1033F0007008E0070800083042016E020318012A35
:10340000022A1A2A6308B03E8600013087000108AC
:103410009A000130F0007008E30708306302031CD3
:10342000122A132A152AE301152A0130F000700828
:10343000EE071D2A4E0119121D2A08004001A401A1
:10344000A501222A201C252A262A2A2A2208A40786
:103450002308A53D0130A235A30D890B2B2A01308D
:10346000A136A00C890B302A20082104031D392A1B
:103470003A2A222A3B2A2508A1002408A000402A33
:1034800008007E013F1E452A462A4A2A9831CA2052
:103490009A314A2A7E01BF1E4E2A4F2A532A98315A
:1034A000DA209A31532A7E01BF1F572A582A5C2AF4
:1034B0009831EA209A315C2A7E01551D602A612AE2
:1034C000652A903104209A31652A08004001A8003D
:1034D000A401A5012008A200A3012208A600230838
:1034E000A700722A281C752A762A7A2A2608A40799
:1034F0002708A53D0130A635A70D890B7B2A0310AF
:10350000A80C2808031D852A862A722A872A2508DE
:10351000A1002408A0008C2A08004E019912D9307D
:103520004001A0001930A100983129209A314E01A4
:103530001912FB304001A0001930A100983132204F
:103540009A31083042019F0090309D0004309E0067
:1035500019309B009C01E401E30108304001A20006
:1035600022084201EE00E201E101E0014E0199165C
:1035700008004001A101BD2ABD2A420160080319CB
:10358000C22AC32ABD2AC42A6108A83E8600013087
:10359000870001084001A0002008A1000130A00020
:1035A00020084201E10708306102031CD82AD92A09
:1035B000DB2AE101DB2A4E01991201304201E002CF
:1035C0004E01991640012108E52A08001030993172
:1035D000B8219A3140012008C0002108C100C20171
:1035E000C3010030AF000030AE002730AD00103016
:1035F000AC004008BC004108BD004208BE004308C2
:10360000BF000B30BC35BD0DBE0DBF0D890B022BAD
:103610003F08B3003E08B2003D08B1003C08B000CE
:103620009F319E279A3140012D08BB002C08BA001B
:10363000192B08004001AF00430145084001AE00CE
:10364000430144084001AD00430143084001AC0080
:10365000430142084001AB0027082B3E860087014A
:1036600001082F07803898317B209B31462B400181
:1036700028088400290885000008983186209B319D
:1036800001304001A8070030A93D462B4001280821
:103690008400290885001200031D4F2B502B372B67
:1036A000512B080000304001AB000030AA00003070
:1036B000A9000030A8005C2B201C5F2B602B692B1D
:1036C0002408A8072508A93D2608AA3D2708AB3DE0
:1036D000692B0130A435A50DA60DA70D890B6A2B0A
:1036E0000130A336A20CA10CA00C890B712B23086E
:1036F000220421042004031D7E2B7F2B5C2B802BB6
:103700002B08A3002A08A2002908A1002808A0006D
:10371000892B080011309931B8219B3140012008D4
:10372000BC002108BD00BE01BF010030AF00003069
:10373000AE000330AD00E830AC003F08A3003E0807
:10374000A2003D08A1003C08A0000030A700003006
:10375000A6000730A500A330A4009B3152239B3163
:1037600040012308B3002208B2002108B10020085C
:10377000B0009F319E279B3140012D08BB002C08D3
:10378000BA00C22B08004001280829040319C92BDC
:10379000CA2BF92BAD01AD0AD72B0130A835A90DE5
:1037A000890BCE2B0130AC002C08AD07D72BA91FFD
:1037B000DA2BDB2BCD2BDD2BDD2B29082B02031D78
:1037C000E32B28082A02031CE62BE72BEC2B280806
:1037D000AA022908AB3BEC2B0130A936A80C890BB7
:1037E000ED2B0130AD02031DF62BF72BDD2BF92B52
:1037F000F92B2B08A9002A08A800FE2B080040017D
:103800000C0E0139F0000C0E890C01390907700407
:10381000F1007108F7007D080739F000F101F0357B
:10382000F10DF035F10DD930F200A030F300700841
:103830007207F4007108733DF5007708740784007F
:1038400075080318750A85000008F6007608FD0063
:10385000FD1F2B2C2C2C312C0130F0007008EF00B8
:10386000312C7D1F342C352C3A2C0230F00070089E
:10387000EF003A2C000008004001A20022080139A4
:10388000A000A00D19082006FD3920069900220885
:10389000A0000130A036890B4A2C01302005A10080
:1038A00019082106FE39210699002208A0000230DD
:1038B000A036890B582C20080139A100A10EA10DBA
:1038C0001A082106DF3921069A002208A0000330D9
:1038D000A036890B682C20080139A100A10E1A0816
:1038E0002106EF3921069A000430890B752C983196
:1038F00000209C31080041016608DF006508DE00F9
:103900006408DD006308DC009431F7249C31410138
:103910005F08EA005E08E9005D08E8005C08E7006F
:103920003E304001B600DE30B5005B30B400D93027
:10393000B30041016A084001BA0041016908400131
:10394000B900410168084001B80041016708400121
:10395000B7008B3123239C31400136084101E6003A
:10396000400135084101E500400134084101E4000F
:10397000400133084101E300BD2C08004001A501CE
:10398000A601200821040319C62CC72CFC2CA70172
:10399000A70AD42C0130A035A10D890BCB2C013006
:1039A000A4002408A707D42CA11FD72CD82CCA2CDC
:1039B000DA2CDA2C0130A535A60D890BDB2C210879
:1039C0002302031DE52C20082202031CE82CE92C0D
:1039D000EF2C2008A2022108A33B2514EF2C013074
:1039E000A136A00C890BF02C0130A702031DF92C85
:1039F000FA2CDA2CFC2CFC2C2608A1002508A000AF
:103A0000012D080042015F08DF0AF00064307002F7
:103A1000031C0B2D0C2D162DDF01903101209D3143
:103A2000400118109810181198114B2D42014F08A1
:103A30005F0203181C2D1D2D202D40011814232D6D
:103A400040011810232D420150085F020318292D50
:103A50002A2D2D2D40019814302D40019810302D25
:103A6000420151085F020318362D372D3A2D4001CF
:103A700018153D2D400118113D2D420152085F02DD
:103A80000318432D442D472D400198154B2D40011F
:103A900098114B2D4B2D080006309931B8219D31DE
:103AA00040012008BE002108BF00C001C101003054
:103AB000AF000030AE000030AD006430AC003130FB
:103AC000BA007930BB00FF30BC00FF30BD004108B8
:103AD000A3004008A2003F08A1003E08A00000305B
:103AE000A7000030A6000030A5007730A4009B316D
:103AF00052239D3140012008BA072108BB3D22080E
:103B0000BC3D2308BD3D3D08B3003C08B2003B0866
:103B1000B1003A08B0009F319E279D3140012D0829
:103B20004201D80040012C084201D70008004001A2
:103B3000980199019A01F0309200C03093008730CB
:103B400094000B307E01CE00C030C3004030B8007E
:103B5000E501C401B901CF01BA01C501D0013F128D
:103B6000BF12BF133E16BE16BE173D16BD16BD17BB
:103B700055115415531500304001A0001030A1001C
:103B800098313B209D31DE304001A0002730A1005C
:103B9000983144209D3102304001A0000030A10046
:103BA00098314D209D3103304001A0000030A1002C
:103BB000983156209D314E0116167D014B08C039B3
:103BC0001738CB000F307E01A600080000304001FE
:103BD0002005A80000302105A90080302205AA0098
:103BE0007F302305AB002B082A0429042804031D79
:103BF000FA2DFB2D032E0030A3000030A200003070
:103C0000A1000030A00000302405A80000302505E8
:103C1000A90080302605AA007F302705AB002B08BD
:103C20002A0429042804031D162E172E1F2E0030E7
:103C3000A7000030A6000030A5000030A40027082F
:103C40002306031D2D2E26082206031D2D2E2508D2
:103C50002106031D2D2E240820060319302E312E97
:103C6000332E0310362E0314362E362E0800400154
:103C70002F08A3002E08A2002D08A1002C08A000E8
:103C80000030A7000030A6000030A5000030A400DE
:103C90009D31E6259E31031C4E2E4F2E602E400195
:103CA0003008860087010030C03FC13F0030AF00C0
:103CB0000030AE000030AD000030AC008A2E8A2EFD
:103CC00040012F087F39B100B201B135B20D300883
:103CD000860087013108C03F3208C13F2E0D2E0DEE
:103CE0000139B100B2013008860087013108810432
:103CF0004131320881043008860087018230810713
:103D00004131FF30813D7F312F0880393F38AF008E
:103D1000AE138A2E080040015B08AF005A08AE00BF
:103D20005908AD005808AC006130DC005C08B000F8
:103D30009E3137269E314001E21F9F2EA02EAA2ED3
:103D40000030DB000030DA000030D9000030D8004D
:103D5000DE2EDE2E003062021D3003196102031CCC
:103D6000B22EB32EB42EDE2E5B08D0005A08CF0040
:103D70005908CE005808CD009131F6219E314001FE
:103D80005008A3004F08A2004E08A1004D08A00053
:103D90000130933139239E3140012308E00022088D
:103DA000DF002108DE002008DD006008DB005F087E
:103DB000DA005E08D9005D08D800DE2E0800400158
:103DC000A601A31FE42EE52EED2EA209A309A20A47
:103DD0000319A30AA601A60AED2EA11FF02EF12EAB
:103DE000F72EA009A109A00A0319A10AF72E20089D
:103DF00021040319FC2EFD2E2C2FA501A50A0A2F44
:103E00000130A035A10D890B012F0130A400240839
:103E1000A5070A2FA11F0D2F0E2F002F102F102FD7
:103E200021082302031D162F20082202031C192F2C
:103E30001A2F1F2F2008A2022108A33B1F2F013099
:103E4000A136A00C890B202F0130A502031D292FBC
:103E50002A2F102F2C2F2C2F26080319302F312F0B
:103E6000372FA209A309A20A0319A30A372F23088F
:103E7000A1002208A0003C2F080040018C1B412F0C
:103E8000422F4B2F0030FB000030FA000030F900C9
:103E90000030F8009D2F7808F00070084201DE0025
:103EA0007B08031D5F2F7A08031D5F2F7908031D10
:103EB0005F2F06307802031C5E2F5F2F732F7B0865
:103EC000031D6D2F7A08031D6D2F7908031D6D2FBB
:103ED0003330780203186D2F6E2F732F0130F000EE
:103EE0007008FC009D2F7B08031D822F7A08031D9C
:103EF000822F7908031D822F33307802031C812F13
:103F0000822F962F7B08031D902F7A08031D902F78
:103F10007908031D902F973078020318902F912F66
:103F2000962F0230F0007008FC009D2F0330F00047
:103F30007008FC009D2F9D2F9D2F08000030400130
:103F4000B8000030B7000030B6000030B5002F08D0
:103F50002E042D042C040319AE2FAF2FF62FB90118
:103F6000B90ABE2F0130AC35AD0DAE0DAF0D890BCA
:103F7000B32F0130B4003408B907BE2FAF1FC12FD3
:103F8000C22FB22FC42FC42F0130B535B60DB70DD7
:103F9000B80D890BC52F2F083302031DD92F2E080A
:103FA0003202031DD92F2D083102031DD92F2C08F1
:103FB0003002031CDC2FDD2FE72F2C08B0022D0868
:103FC000B13B2E08B23B2F08B33B3514E72F01302D
:103FD000AF36AE0CAD0CAC0C890BE82F0130B9023A
:103FE000031DF32FF42FC42FF62FF62F3808AF0040
:103FF0003708AE003608AD003508AC00FF2F0800CA
:104000002534333464342C34253464342034DF34A0
:104010004334203420342034203425343334643481
:104020002C342534643420342534253472346534FA
:104030006C3420342034203420342D3478347834D7
:104040002C3478342034DF3443342034203420348A
:1040500020342534323475342C34253431347534DD
:104060005634203420342534323475342C342534FD
:10407000753457340034543465346D3470346534D9
:1040800072346134743475347234203420344634DC
:1040900065347534633468347434653420342034C2
:1040A0002034203420345434613475347034753401
:1040B0006E346B3474342034203420342034423451
:1040C0006134743474346534723469346534003462
:1040D0004B3461346E3461346C34203431342034E8
:1040E00020342034203420344B3461346E34613435
:1040F0006C342034323420342034203420342034C2
:104100004B3461346E3461346C34203433342034B5
:1041100020342034203420344B3461346E34613404
:104120006C3420343434003400340034003400342F
:10413000C434FF347F343F348034EF34FF34BE3432
:104140009034E134A9343E34EC3482347634BE34D5
:104150008234AD342B343E340E343C34C334BD345D
:104160008734D13413343D3441347834D334BB34C0
:10417000253432346434203425342534203420343A
:104180002534323475342C34253475342034573486
:10419000253432346434203425342534203420341A
:1041A0002534323475342C34253475342034573466
:1041B00000340034043401340034823400340134D7
:1041C0000034023403340134003402340334003444
:1041D0008034453404340034003405340434063467
:1041E00000340534003406344034523465346D34C0
:1041F0006F34763465342034733468346F347234F9
:104200007434003448346F346C3464342034623491
:104210007534743474346F346E3400344B34613418
:104220006E3461346C342034253464343A342034B0
:10423000003475346E3464346534723476346F34DB
:104240006C3474342E3400346F3476346534723404
:104250006C346F34613464346534643400344D3408
:10426000613469346E34203442342034623475341D
:1042700073340034013400340A34003464340034BC
:10428000E8340334103427346F34763465347234B0
:1042900076346F346C3474342E34003454346134D6
:1042A0007334743467347234613464340034743475
:1042B0006F342034723465347334653474340034AC
:1042C000633469347234633475346934743400345B
:1042D0004F34753474347034753474340034253488
:0A42E00032346434253425340034F0
:104FBC000800023098317B20A73108001830983156
:104FCC007B20A73108001C3098317B20A7310800CA
:104FDC004E018C1298319220A73108006400800198
:104FEC000131890BF52F0034FE0012001E00FE0B60
:044FFC00FB2F003453
:020000040001F9
:0A000E00EC3FFF3F9F3FFF3FFF3F25
:00000001FF
