:020000040000FA
:1000000080313328080008007E1480314E01961A92
:100010008C1E0E289B31B52380313128161A0C1EF8
:1000200015289D311A25803131280B1F31281A18C7
:10003000101C1E289C31A02480313128191A0F1E53
:100040002828430145088A0044080A0080313128E5
:10005000991A8F1E3128430143088A0042080A007A
:1000600080317E10090080313528DE3084009B30DD
:100070008500B83086000130870008309B31C023EE
:100080008031F801F901FA01FB01FC01FD01EF01EA
:100090004101EC01ED01EE01EF0147308400013038
:1000A00085001C309B31BA238031A03084000130A0
:1000B000850018309B31BA237E10400180316028C2
:1000C0009C31EE2480318B170B179B31CE2380316E
:1000D000400199169A1593310323803187311A27ED
:1000E000803103304001A0000830A1009C3113246E
:1000F00080318F304001A0001F30A1009C310124CD
:1001000080318F304001A0001F30A1009C310A24B3
:100110008031E6304001A0001B30A1009C31252435
:100120008031C7304001A0001F30A1009C312E2437
:100130008031AD304001A0001C30A1009C311C2456
:10014000803132304101E90069084201CF0091312C
:100150002A218031063042015F02031C182C9D3198
:10016000E02580314101E90069084201C6004608E6
:100170004101E900EA0169084201B20041016A084F
:100180004201B3009D31E02580314101E900690859
:100190004201C60046084101E900EA016908EA0097
:1001A000E90169084201B20441016A084201B3044D
:1001B0009D31E02580314101E90069084201C60016
:1001C00046084101E900EA0169084201B400410121
:1001D0006A084201B5009D31E02580314101E90006
:1001E00069084201C60046084101E900EA016908C0
:1001F000EA00E90169084201B40441016A084201C8
:10020000B5049D31E02580314101E90069084201D2
:10021000C60046084101E900EA0169084201A4005C
:1002200041016A084201A5009D31E025803141016C
:10023000E90069084201C60046084101E900EA01F7
:100240006908EA00E90169084201A40441016A0859
:100250004201A504C0304001EA00C030E90000308E
:10026000E8000030E7004730D0008030CF00003099
:10027000CE000030CD004230B600FA30B50000307C
:10028000B4000030B300420132084001A000420136
:1002900033084001A100A201A30100309531672578
:1002A000803140012308BA002208B9002108B800B3
:1002B0002008B7008B317523803140013608D40007
:1002C0003508D3003408D2003308D10088315A20D1
:1002D000803140015008EE004F08ED004E08EC0060
:1002E0004D08EB008D31A125803140016A084201A3
:1002F000C500400169084201C4004001680842018C
:10030000C300400167084201C200C2304001EA0058
:100310003B30E9006630E8006630E7004730D00047
:100320008030CF000030CE000030CD004330B6002A
:100330002F30B500B830B4005230B3004201340859
:100340004001A000420135084001A100A201A30123
:10035000003095316725803140012308BA0022081A
:10036000B9002108B8002008B7008B31752380310F
:1003700040013608D4003508D3003408D2003308D1
:10038000D10088315A20803140015008EE004F08DA
:10039000ED004E08EC004D08EB008D31A1258031B9
:1003A00040016A084201C100400169084201C000E1
:1003B000400168084201BF00400167084201BE00D9
:1003C00045084101C800420144084101C7004201FB
:1003D00043084101C600420142084101C500903175
:1003E0005A208031410148084201A90041014708D3
:1003F0004201A800410146084201A7004101450809
:100400004201A60043304001EA007330E9001E308B
:10041000E800B830E700420141084001EE00420127
:1004200040084001ED0042013F084001EC0042015C
:100430003E084001EB008D31A125803140016A0862
:10044000D0006908CF006808CE006708CD004130B1
:10045000B6008C30B500F530B400C330B3004201B3
:1004600041084001BA00420140084001B900420180
:100470003F084001B80042013E084001B7008B31FF
:100480007523803140013608D4003508D300340884
:10049000D2003308D10088315A2080314001500801
:1004A0004201AD0040014F084201AC0040014E083E
:1004B0004201AB0040014D084201AA003E3040011C
:1004C000D000DE30CF005C30CE009230CD00C030A6
:1004D000EA000030E9000030E8000030E7004201A7
:1004E00029084001EE00420128084001ED004201C8
:1004F00027084001EC00420126084001EB008D3145
:10050000A125803140016A08D4006908D300680839
:10051000D2006708D10088315A208031400150084C
:100520004201B10040014F084201B00040014E08B5
:100530004201AF0040014D084201AE002D084001CC
:10054000EA0042012C084001E90042012B08400169
:10055000E80042012A084001E70042013108400159
:10056000EE00420130084001ED0042012F08400139
:10057000EC0042012E084001EB008D31A1258031B5
:1005800040016A084201B900400169084201B8000F
:10059000400168084201B700400167084201B60007
:1005A00039084101AF00420138084101AE00420163
:1005B00037084101AD00420136084101AC0041302D
:1005C000B3008C30B200F530B100C330B0009F31C1
:1005D0002327803141012F084001D00041012E081E
:1005E0004001CF0041012D084001CE0041012C08FF
:1005F0004001CD004330B6007330B5001E30B4006A
:10060000B830B300420139084001BA00420138084D
:100610004001B900420137084001B80042013608E4
:100620004001B7008B317523803140013608D4007A
:100630003508D3003408D2003308D10088315A205D
:100640008031420145084001A300420144084001B5
:10065000A200420143084001A100420142084001BA
:10066000A0000030A7000030A6000030A500003038
:10067000A4009331CC2380310318432B0030420176
:10068000C5000030652B42304001A300C830A200F5
:100690000030A1000030A000420145084001A70041
:1006A000420144084001A600420143084001A50060
:1006B000420142084001A4009331CC238031031849
:1006C0006A2B42304201C500C830C4000030C3006C
:1006D0000030C200420145084001BA00420144080E
:1006E0004001B900420143084001B80042014208FC
:1006F0004001B7004130B6002030B5000030B400F2
:100700000030B3008B317523803140013608410140
:10071000B700400135084101B600400134084101ED
:10072000B500400133084101B400943148248031C0
:10073000410137084201BD00410136084201BC00B9
:10074000410135084201BB00410134084201BA00B1
:100750003D084001D00042013C084001CF00420169
:100760003B084001CE0042013A084001CD009331E0
:100770006623803140014D084101E90069084201CA
:10078000DB0041084001BA00420140084001B900C5
:1007900042013F084001B80042013E084001B70055
:1007A0004130B6002030B5000030B4000030B30056
:1007B0008B3175238031400136084101B70040017B
:1007C00035084101B600400134084101B50040013F
:1007D00033084101B4009431482480314101370885
:1007E0004201BD00410136084201BC00410135080B
:1007F0004201BB00410134084201BA003D084001FA
:10080000D00042013C084001CF0042013B084001BA
:10081000CE0042013A084001CD0093316623803179
:1008200040014D084101E90069084201E200000071
:1008300042015E08031D222C87311A27803188313E
:10084000002080319531FD258031003A031D2B2C8D
:1008500084313524803121304101E9007630890B23
:100860002F2CE90B2F2C0000A7284101DF016C0879
:10087000031D5A2D03304001D00050084101DF0014
:100880004001A7010030A800A030A90000309E312F
:100890008A2684314201E21B542C62084101DD00AA
:1008A000DE01DD1BDE03662C62084001D000D101B1
:1008B000D01BD103D009D109D00A0319D10A50089D
:1008C0004101DD00400151084101DE000A304001D4
:1008D000A0000030A10042015A084001A3004201DB
:1008E00059084001A2009E31EE26843140012008C3
:1008F000D000D10150084101E00040015108410100
:10090000E1000A304001A8000030A90042015A0865
:100910004001AB00420159084001AA009E312D263A
:10092000843140012808D000D10150084101E20083
:10093000400151084101E3000A304001A0000030AD
:10094000A100420156084001A300420155084001A0
:10095000A2009E31EE268431400121084101E500CC
:10096000400120084101E4000A304001A8000030A5
:10097000A900420156084001AB0042015508400160
:10098000AA009E312D268431400129084101E7004B
:10099000400128084101E60000304001AE009830D7
:1009A000AF000A30A0000030A100420162084001FF
:1009B000A200A301A21BA30392315E228431400155
:1009C0002008B000B101B01BB1030A30A000003014
:1009D000A10041015E084001A30041015D08400102
:1009E000A20090319B20843140012008B200B30165
:1009F000B21BB3030A30A0000030A10042015B0823
:100A00004001D000D1015008A2005108A30092314A
:100A10005E22843140012008D200D3015208B40084
:100A20005308B5000A30A0000030A10042015B0865
:100A30004001D400D5015408A2005508A30090310C
:100A40009B20843140012008D600D7015608B6000B
:100A50005708B700410161084001B9004101600831
:100A60004001B800410163084001BB004101620838
:100A70004001BA00410165084001BD004101640820
:100A80004001BC00410167084001BF004101660808
:100A90004001BE00A0308931D42184314001A7013A
:100AA000A70AA030A8000030A90000309E318A2695
:100AB0008431BB2E6C03031D202E03304001D00077
:100AC00050084101DF004001A7012D30A800A030EF
:100AD000A90000309E318A2684310A304001A000EE
:100AE0000030A100420148084001A300420147082C
:100AF0004001A2009E31EE268431400121084101CF
:100B0000E100400120084101E0000A304001A80056
:100B10000030A900420148084001AB0042014708EB
:100B20004001AA009E312D2684314001290841014F
:100B3000E300400128084101E2000A304001A00022
:100B40000030A10042014A084001A30042014908C7
:100B50004001A2009E31EE2684314001210841016E
:100B6000E500400120084101E4000A304001A800EE
:100B70000030A90042014A084001AB004201490887
:100B80004001AA009E312D268431400129084101EF
:100B9000E700400128084101E6007D304001AE0039
:100BA000A030AF0042014F084001D000D1015008F1
:100BB000B0005108B100410161084001B30041019A
:100BC00060084001B200410163084001B5004101E5
:100BD00062084001B400420150084001D200D30134
:100BE0005208B6005308B700410165084001B9003A
:100BF000410164084001B800410167084001BB00A1
:100C0000410166084001BA00A0308931D421843105
:100C10004001A701A70AA030A8000030A9000030B9
:100C20009E318A268431023040016F06031DBB2E9F
:100C30000A30D00050084101EC004001EF01BB2E0A
:100C40000A306C06031DBB2E4001A7011330A8001B
:100C5000A130A9000C30D0005008A00041016F085D
:100C60008731EE2784319E318A268431D33040018A
:100C7000AE00A030AF0041016F08013E4001B0005E
:100C8000003003180130B100A0308931D421843103
:100C90004001A701A70AA030A8000030A9000C302D
:100CA000D0005008A00041016F088731EE27843141
:100CB0009E318A26843140016F08031DB72E410101
:100CC0006D03031D792E6F084F3E860001308700AB
:100CD000633001020318792E01304001D000410138
:100CE0006F084F3E860001308700400150088107A1
:100CF0008C2E02306D06031D8E2E6F084F3E86002F
:100D000001308700010803198E2E6F084F3E8600C0
:100D100001308700013081024101ED013430400192
:100D2000AE00A130AF0041016F084F3E8600013098
:100D3000870001084001D000D1015008B0005108DF
:100D4000B100A0308931D42184314001A701A70A24
:100D5000A030A8000030A9000C30D0005008A0003E
:100D600041016F088731EE278431093E582EEF018B
:100D70004101EC01EC0A40016F03031DCF2EEF018E
:100D800041016C08031DC72EEC01EC0ACB2E6C034D
:100D9000031DCB2EEC01EF019B31A92384310A30D6
:100DA00041016C02031808006D03031DF92E5F0852
:100DB0006F020318F92E01304001D00050084101A4
:100DC000EF07ED01E8010C306802031808009B31C1
:100DD000AD23843107304001D0007D30890BEE2EE9
:100DE000D00BEE2E01304001D00050084101E80741
:100DF000E32E02306D06031D08006F08031908007A
:100E00000130EF02ED01E8010C3068020318080020
:100E10009B31B123843107304001D0007D30890BF4
:100E20000F2FD00B0F2F01304001D000500841018F
:100E3000E807042F400118149F31582787314001DB
:100E40003B084301A10040013A084301A0009E3144
:100E5000BC26873140013B08C7003A08C60018107D
:100E600098149F315827873140013B084301A30064
:100E700040013A084301A2009E31BC26873140015F
:100E80003B08CA003A08C90047084A02031D4A2F16
:100E9000460849020318502F4A08C7004908C600EF
:100EA000981018159F315827873140013B0843019E
:100EB000A50040013A084301A4009E31BC268731B9
:100EC00040013B08CA003A08C90047084A02031D0E
:100ED0006B2F460849020318712F4A08C7004908BA
:100EE000C600181198159F315827873140013B08DB
:100EF0004301A70040013A084301A6009E31BC26E9
:100F0000873140013B08CA003A08C90047084A0235
:100F1000031D8C2F460849020318922F4A08C70068
:100F20004908C600981147084201DA004001460806
:100F30004201D900D501D6014001C8010030AF00FF
:100F40000030AE000330AD00E830AC004908A0002E
:100F50004A08A100A201A3014835A03E8600013045
:100F60008700403FC400413FC5004408A400450835
:100F7000A500A601A7019E315A268731400123080A
:100F8000B3002208B2002108B1002008B00092315D
:100F9000B022873140014835473E86000130870046
:100FA0002C08C03F2D08C13F4835473E8600013020
:100FB0008700403FC400413FC50044084201D507B7
:100FC000400145084201D63D01304001C4004408BB
:100FD000C80704304802031808009E2F4001A300F0
:100FE000A201231CF72F2008A1002108A20703104B
:100FF000A00D0310A30C2308031DF12F22080800E5
:1010000044010E14080040018C1B0F280030FB0027
:101010000030FA000030F9000030F80008007808CD
:10102000F00070084201DD007B08031D21287A08CA
:10103000031D21287908031D212806307802031C8E
:1010400034287B08031D34287A08031D34287908C6
:10105000031D342833307802031834280130F0009F
:1010600070084001EF0008007B08031D41287A0842
:10107000031D41287908031D412833307802031CE1
:1010800054287B08031D54287A08031D5428790826
:10109000031D542897307802031854280230F000BA
:1010A00070084001EF0008000330F00070084001B4
:1010B000EF000800400154088039D5005508DE00D3
:1010C0005435D5005508E500D31B65146508031990
:1010D0007728650A031D74280030D4000030D3003F
:1010E0000030D2000030D100D317D4017F28003067
:1010F000D4000030D3000030D2000030D1005008BE
:101100008039D5005508DE065035D5005508E60073
:10111000CF1B6614660803199B28660A031D9828CE
:101120000030D0000030CF000030CE000030CD00C5
:10113000CF17D001A3280030D0000030CF000030FE
:10114000CE000030CD0050084F044E044D04031D66
:10115000C2280030D4000030D3000030D20000306C
:10116000D1008030D3047F30D4045E08D500550808
:10117000D4045408D0005308CF005208CE005108C0
:10118000CD0008006508031DCE280030D0000030D7
:10119000CF000030CE000030CD0008006508D5003B
:1011A000D6015608D80066085502D700031CD8039C
:1011B00057087F3EDF000030583DE0005408DD0056
:1011C0005308DC005208DB005108DA000030D4007C
:1011D0000030D3000030D2000030D1000030E400F5
:1011E0000030E3000030E2000030E100E6011A3098
:1011F0006602031833296608031915290130DA3508
:10120000DB0DDC0DDD0D890BFF280130D135D20D52
:10121000D30DD40D890B0629E41B51140130E1359F
:10122000E20DE30DE40D890B0F2950085D02031D4B
:1012300023294F085C02031D23294E085B02031D6E
:1012400023294D085A02031C2E2964174D08DA027F
:101250004E08DB3B4F08DC3B5008DD3B0130D5003E
:101260005508E607F7285D085C045B045A04031D73
:101270006114D31B50290130D135D20DD30DD40DBB
:10128000890B3C29E41B51140130E135E20DE30DDB
:10129000E40D890B4529FF30DF07FF30E03D392998
:1012A000E601E41F6929FF306105D500FF306205C2
:1012B000D600FF306305D7007F306405D80058089A
:1012C0005704560455040319511867296929E60182
:1012D000E60A6608031992290130D1070030D23D91
:1012E0000030D33D0030D43D541C92295108D50024
:1012F0005208D6005308D7005408D8000130D9004E
:10130000D837D70CD60CD50CD90B80295808D40067
:101310005708D3005608D2005508D1000130DF0726
:101320000030E03D6008803AD50080305502031D52
:101330009B29FF305F02031CAA29FF304001DF0018
:101340000030E0000030D4000030D3000030D20084
:101350000030D10040016008803AD500803055024D
:10136000031DB42901305F020318C2294001DF01C7
:10137000E0010030D4000030D3000030D200003053
:10138000D100DE0140015F08D5005508E500651C6D
:10139000CB29D317CF297F30D5005508D305653623
:1013A000D5005508D400B5284001CE003030C0002B
:1013B0004008C6002F08C1002E08C000AE0A03195D
:1013C000AF0A40088400410885000008C2004208B6
:1013D000CF004F080319702B25304F060319FC2945
:1013E0004F08C0004E088600870140088100013088
:1013F000C0004008CE07DA29CC01CD01C9012E0872
:1014000084002F08850000089C31CB248931031CFF
:10141000862A4001CC01CD010A304001A0000030F5
:10142000A1004D08A3004C08A2009D31662589311A
:1014300040012108CD002008CC002E0884002F0890
:1014400085000008D03EC000FF3003180030C10006
:101450004008CC074108CD3D0130AE070030AF3D1C
:101460002E0884002F08850000089C31CB24893188
:10147000031C862A0C2A00304D02023003194C024C
:10148000031C472AFF30CC07FF30CD3D492ACC0151
:10149000CD01FF30CC07FF30CD3D4C0A03194D0A7A
:1014A0000319702A2030C0004E08860087014008CA
:1014B00081000130C0004008CE07492A4408860058
:1014C00087010108C0004E0886008701400881009E
:1014D0000130C0004008C4070130C0004008CE07FA
:1014E0000130C7020030C83B470A031D5E2A480A84
:1014F0000319DA295E2A4F30C0004008C4000130C9
:10150000C7000030C8003B2A4917A12A40012F0814
:10151000C1002E08C000AE0A0319AF0A40088400BB
:10152000410885000008CF00003A0319702B643A87
:101530000319A12A0D3A0319A12A1C3A0319842A76
:101540007B2A491BBA2A460886008701403FCA0009
:10155000413FCB000230C0004008C607CB1FC52A60
:101560000330C0004008C904CA09CB09CA0A0319DC
:10157000CB0AC52A460886008701403FCA00413F82
:10158000CB000230C0004008C607CF01CF0A0530AB
:101590004F060319EA2A4F08C000C101C035C10D2A
:1015A000FF3040078400A030413D8500003FC2006D
:1015B000013FC30043084B02031DE02A42084A02D0
:1015C000031CEA2A0130C0004008CF0705304F064F
:1015D000031DCB2A4C084D040319F62A4908033988
:1015E0000319F62AFF30CC07FF30CD3D4D08803A75
:1015F000803C031DFD2A4C084F020318082B4001B4
:101600004F08C000C1014008CC024108CD3B0B2B64
:101610004001CC01CD014C084D040319222B203090
:10162000C0004E0886008701400881000130C000DC
:101630004008CE07FF30CC07FF30CD3D4C084D04AD
:10164000031D0F2B490803390319312B2D30C0001E
:101650004E0886008701400881000130C000400824
:10166000CE074F08C0004008C500FF30C00040084A
:10167000C507450A0319DA290A30A8000030A90075
:101680004508C000C101C035C10DFF3040078400CE
:10169000A030413D8500003FA000013FA1004B0864
:1016A000A3004A08A2009E31EE268931400121089C
:1016B000AB002008AA009E312D2689314001280860
:1016C000303EC2004208CF004F08C0004E088600DE
:1016D0008701400881000130C0004008CE07352B4B
:1016E0004E088600870181010800400136088039D4
:1016F000BB003B08C0003635BB003B08C600B51B2D
:10170000461446080319912B460A031D8F2B0030FF
:10171000B6000030B5000030B4000030B300B5179B
:10172000992B0030B6000030B5000030B400003016
:10173000B3003A088039BB003B08C0063A35BB000D
:101740003B08C500B91B451445080319B42B450ACD
:10175000031DB22B0030BA000030B9000030B800D1
:101760000030B700B917BC2B0030BA000030B90008
:101770000030B8000030B7004508031D4608031DBF
:10178000CA2B0030B6000030B5000030B400003085
:10179000B30008003308BB003B08A00039089D31A6
:1017A000C0258B3140012108CC002008CB004B081C
:1017B000BB00BC01BD01BE013E08C4003D08C30022
:1017C0003C08C2003B08C1004C08BB00BC01BD0185
:1017D000BE013E08CA003D08C9003C08C8003B08DD
:1017E000C7003408BB003B08A00038089D31C02565
:1017F0008B3140012108CC002008CB004B08BB00F6
:10180000BC01BD01BE013B08C1073C08C23D3D080B
:10181000C33D3E08C43D4C08BB00BC01BD01BE0138
:101820003B08C7073C08C83D3D08C93D3E08CA3DC6
:101830003508BB003B08A00037089D31C0258B311F
:1018400040012108CC002008CB004B08BB00BC01A4
:10185000BD01BE013B08C1073C08C23D3D08C33D78
:101860003E08C43D4C08BB00BC01BD01BE013B08A5
:10187000C7073C08C83D3D08C93D3E08CA3D083081
:10188000C135C20DC30DC40D890B402C3408BB00FB
:101890003B08A00037089D31C0258B31400121084D
:1018A000CC002008CB004B08C1074C08C23D0030DB
:1018B000C33DC43D3308BB003B08A00038089D3140
:1018C000C0258B3140012108CC002008CB004B08FB
:1018D000C1074C08C23D0030C33DC43D0830C1358E
:1018E000C20DC30DC40D890B6F2C3308BB003B0820
:1018F000A00037089D31C0258B3140012108CC0064
:101900002008CB004B08C1074C08C23D0030C33D46
:10191000C43D3408BB003B08A00039089D31C025F8
:101920008B3140012108CC002008CB004B08C707B1
:101930004C08C83D0030C93DCA3D3508BB003B08D6
:10194000A00038089D31C0258B3140012108CC0012
:101950002008CB004B08C7074C08C83D0030C93DE4
:10196000CA3D3508BB003B08A00039089D31C025A1
:101970008B3140012108CC002008CB004B08BB0074
:101980004C08BC00BD01BE010830BB35BC0DBD0D0F
:10199000BE0D890BC52C3B08C7073C08C83D3D0858
:1019A000C93D3E08CA3D4108BB004208BC0043088F
:1019B000BD004408BE001830BE36BD0CBC0CBB0CCC
:1019C000890BDC2C3B08C7073C08C83D3D08C93DD6
:1019D0003E08CA3D0830C135C20DC30DC40D890B88
:1019E000EB2C46084507BB00BC01BC0D3B08823E02
:1019F000CB00FF303C3DCC00C91B132D0130C73557
:101A0000C80DC90DCA0D890BFF2CC41B471401302A
:101A1000C135C20DC30DC40D890B082DFF30CB0796
:101A2000FF30CC3DFC2CC501C41F2C2DFF304105DF
:101A3000BB00FF304205BC00FF304305BD007F30D6
:101A40004405BE003E083D043C043B04031947180E
:101A50002A2D2C2DC501C50A45080319552D013025
:101A6000C7070030C83D0030C93D0030CA3D4A1CA0
:101A7000552D4708BB004808BC004908BD004A086E
:101A8000BE000130BF00BE37BD0CBC0CBB0CBF0B91
:101A9000432D3E08CA003D08C9003C08C8003B0869
:101AA000C7000130CB070030CC3D4C08803ABB006A
:101AB00080303B02031D5E2DFF304B02031C6A2D5C
:101AC0007F304001CA008030C9000030C8000030BB
:101AD000C700942D40014C08803ABB0080303B0287
:101AE000031D742D01304B020318812D003040017D
:101AF000CA000030C9000030C8000030C700C00173
:101B0000942D40014B08BB003B08C600FF30C705C1
:101B1000FF30C8057F30C9050030CA054618C9170F
:101B20004636BB003B08CA004008BB003B08CA045D
:101B30004A08B6004908B5004808B4004708B30091
:101B4000080040016A0880394101A0002008A8006F
:101B500040016A354101A0002008AA004001E91FA8
:101B6000B32D41012A1441012A080319C72D2A0A5D
:101B7000031DC32D00304001EA000030E9000030B1
:101B8000E8000030E7004001E917EA01D02D0030FD
:101B90004001EA000030E9000030E8000030E700D2
:101BA0006E0880394101A0002008A90029082806F4
:101BB000031D281740016E354101A0002008A9002F
:101BC0004001ED1FE52D41012914410129080319A8
:101BD000F92D290A031DF52D00304001EE000030DB
:101BE000ED000030EC000030EB004001ED17EE019D
:101BF000022E00304001EE000030ED000030EC001D
:101C00000030EB0041012A0829020318622E281F28
:101C10000D2E8030A0002008A8062A08A000200869
:101C2000AB002908A0002008AA002B08A00020086B
:101C3000A900400167084101A0002008AB00400155
:101C40006B084101A00020084001E70041012B087A
:101C5000A00020084001EB0068084101A000200816
:101C6000AB0040016C084101A00020084001E800E1
:101C700041012B08A00020084001EC006908410147
:101C8000A0002008AB0040016D084101A000200821
:101C90004001E90041012B08A00020084001ED00AF
:101CA0006A084101A0002008AB0040016E08410114
:101CB000A00020084001EA0041012B08A0002008F4
:101CC0004001EE004101AB012908A000A10121085B
:101CD000A3002A082002A200031CA3032308803AC1
:101CE000A40080302402031D772E1A302202031C28
:101CF000B42E40016A086904680467040319822E3F
:101D00000130832E00304101A0002008AB000030DC
:101D10004001EA000030E9000030E8000030E70050
:101D200041012908A0002008AA00B92E2B1C9E2ED4
:101D30002B360138A0002008AB00A02E0310AB0CFE
:101D40004001671CA52E4101AB1701304101A000E5
:101D50004001EA37E90CE80CE70C4101A00BA82E82
:101D60000130A0002008AA07410129082A02031C0B
:101D7000962E281BF32E2A08031DC82E0030400182
:101D8000EA000030E9000030E8000030E700080019
:101D900040016B08E7076C08E83D6D08E93D6E08F7
:101DA000EA3D6A1C8C2F41012B1CDC2E2B3601389E
:101DB000A0002008AB00DE2E0310AB0C4001671C16
:101DC000E32E4101AB1701304101A0004001EA3789
:101DD000E90CE80CE70C4101A00BE62E0130A00055
:101DE0002008AA078C2F40016A08803A4101A00010
:101DF00040016E08803A410120024001031D0A2F74
:101E00006D086902031D0A2F6C086802031D0A2F62
:101E10006B0867020318542FFF304101A000FF3008
:101E2000A100FF30A200FF30A300400167086B0251
:101E30004101A400400168086C3B4101A50040013C
:101E400069086D3B4101A60040016A086E3B4101F3
:101E5000A7002408A0072508A13D2608A23D2708C1
:101E6000A33D23084001EA00410122084001E900A6
:101E7000410121084001E800410120084001E7003C
:101E800080304101A0002008A806AB09AB0A2B084E
:101E9000031D5C2F01304001E7070030E83D0030B2
:101EA000E93D0030EA3D5C2F6B08E7026C08E83B37
:101EB0006D08E93B6E08EA3B40016A086904680462
:101EC0006704031D892F41012B08031D892F003052
:101ED0004001EA000030E9000030E8000030E7008F
:101EE00008000130E735E80DE90DEA0D890B722F86
:101EF0004101AB1F7D2F4001671441012B1C822F34
:101F00000314832F0310AB0D2A080319892F013006
:101F1000AA024001E91F712F4101A901AB1F9A2FAD
:101F20002B087F39031D972F4001671C9A2F410111
:101F3000A901A90A410129080319D72F013040013D
:101F4000E7070030E83D0030E93D0030EA3D6A1C1B
:101F5000D72F67084101A000400168084101A10096
:101F6000400169084101A20040016A084101A30043
:101F70000130A400A337A20CA10CA00CA40BBA2F13
:101F800023084001EA00410122084001E900410123
:101F900021084001E800410120084001E70041011B
:101FA0002A0A0319D72F0130A0002008AA074101EF
:101FB0002A0A031D2A08031DEA2F00304001EA0007
:101FC0000030E9000030E8000030E70041012A0855
:101FD0000319A8012A1CEF2F4001E917F42F7F30C5
:101FE000A00020084001E90541012A36A000200890
:101FF0004001EA004101A81F08004001EA1708005B
:102000004001A3002308A200A20DA20D41011D085A
:10201000400122060339220641019D001D140000E3
:1020200041019D149D1812281C084001A100410186
:102030001B084001A00008004001A200220801394D
:10204000A000A00D19082006FD39200699002208DD
:10205000A0000130A036890B2A2801302005A100FC
:1020600019082106FE39210699002208A000023035
:10207000A036890B382820080139A100A10EA10D36
:102080001A082106DF3921069A002208A000033031
:10209000A036890B482820080139A100A10E1A0892
:1020A0002106EF3921069A000430890B55289B310F
:1020B000C623080041014808C1004708C00046087F
:1020C000BF004508BE009631E62690314101410827
:1020D000CC004008CB003F08CA003E08C9003E3093
:1020E0004001B600DE30B5005B30B400D930B3003B
:1020F00041014C084001BA0041014B084001B900C0
:1021000041014A084001B800410149084001B700B7
:102110008B317523400136084101C8004001350864
:102120004101C700400134084101C60040013308A5
:102130004101C50008004001A601A31FA628A2096D
:10214000A309A20A0319A30AA601A60AA11FAD2882
:10215000A009A109A00A0319A10A20082104031952
:10216000D428A501A50AA11BBF280130A035A10DC7
:10217000890BB6280130A4002408A507B32821083C
:102180002302031DC52820082202031CCB28200897
:10219000A2022108A33B0130A136A00C890BCC2858
:1021A0000130A502031DBF2826080319DC28A20957
:1021B000A309A20A0319A30A2308A1002208A00068
:1021C0000800003040012005A80000302105A900CA
:1021D00080302205AA007F302305AB002B082A049B
:1021E00029042804031DFC280030A3000030A200AD
:1021F0000030A1000030A00000302405A80000300D
:102200002505A90080302605AA007F302705AB00F0
:102210002B082A0429042804031D16290030A700CE
:102220000030A6000030A5000030A40027082306D7
:10223000031D242926082206031D2429250821061A
:10224000031D242924082006031928290310080047
:10225000031408000630903100209131400120081D
:10226000BE002108BF00C001C1010030AF00003036
:10227000AE000030AD006430AC003130BA007930CF
:10228000BB00FF30BC00FF30BD004108A300400888
:10229000A2003F08A1003E08A0000030A7000030C7
:1022A000A6000030A5007730A4009E315A26913157
:1022B00040012008BA072108BB3D2208BC3D230885
:1022C000BD3D3D08B3003C08B2003B08B1003A08F0
:1022D000B0009231B02240012D084201D8004001E7
:1022E0002C084201D700080040015B08AF005A08E3
:1022F000AE005908AD005808AC006130DC005C0845
:10230000B00092310E2291314001E21F902900303D
:10231000DB000030DA000030D9000030D8000800BF
:10232000003062021D3003196102031808005B08C7
:10233000D0005A08CF005908CE005808CD0093317C
:102340006623913140015008A3004F08A2004E08B7
:10235000A1004D08A00001309531672540012308F8
:10236000E0002208DF002108DE002008DD00600810
:10237000DB005F08DA005E08D9005D08D8000800BD
:102380004001980199019A01F0309200C030930009
:10239000873094000B307E01CE00C030C300403047
:1023A000B800E501C401B901CF01BA01C501D001EE
:1023B0003F12BF12BF133E16BE16BE173D16BD1606
:1023C000BD17551154155315A3304001A0001B3003
:1023D000A1009C3101249131A2304001A0001B30AA
:1023E000A1009C310A249131A4304001A0001B308F
:1023F000A1009C3113249131A5304001A0001B3075
:10240000A1009C311C244E0116167D014B08C039D9
:102410001738CB000F307E01A600080040012F08BE
:10242000A3002E08A2002D08A1002C08A000003057
:10243000A7000030A6000030A5000030A4009031B5
:10244000E1209231031C342A4001300886008701C4
:102450000030C03FC13F0030AF000030AE00003060
:10246000AD000030AC00080040012F087F39B100FA
:10247000B201B135B20D3008860087013108C03F86
:102480003208C13F2E0D2E0D0139B100B2013008C6
:102490008600870131088104413132088104300807
:1024A00086008701823081074131FF30813D7F31D5
:1024B0002F0880393F38AF00AE1308004001A60155
:1024C000A11F692AA009A109A00A0319A10AA6014E
:1024D000A60AA31F742AA209A309A20A0319A30A20
:1024E0000130A4002408A606A701A80120082104A1
:1024F0000319A32AA501A50AA11B882A0130A0352A
:10250000A10D890B7F2A0130A4002408A5077C2A8D
:102510000130A735A80D890B892A21082302031D44
:10252000932A20082202031C9A2A2008A2022108CA
:10253000A33B27140130A136A00C890B9B2A013044
:10254000A502031D882A26080319AB2AA709A80992
:10255000A70A0319A80A2808A1002708A000080054
:1025600000304001B8000030B7000030B600003045
:10257000B5002F082E042D042C040319FA2AB901E2
:10258000B90AAF1BCF2A0130AC35AD0DAE0DAF0D82
:10259000890BC42A0130B4003408B907C12A0130BC
:1025A000B535B60DB70DB80D890BD02A2F083302FB
:1025B000031DE42A2E083202031DE42A2D083102ED
:1025C000031DE42A2C083002031CEF2A2C08B00259
:1025D0002D08B13B2E08B23B2F08B33B3514013018
:1025E000AF36AE0CAD0CAC0C890BF02A0130B90241
:1025F000031DCF2A3808AF003708AE003608AD00FB
:102600003508AC0008004001191219119911113058
:102610004001A7003A30890B0B2BA70B0B2B0000B6
:102620004001991019109A121A12033090311C208F
:102630009331FA300032890B1A2B083090311C206C
:102640009331FA300032890B222B023090311C205A
:102650009331FA300032890B2A2B023090311C2042
:102660009331FA300032890B322B083090311C2024
:102670009331FA300032890B3A2B08309C313724E1
:102680009331FA300032890B422B01309C313724D0
:102690009331FA300032890B4A2B06309C313724B3
:1026A0009331FA300032890B522B02309C3137249F
:1026B0009331FA300032890B5A2B0C309C3137247D
:1026C0009331FA300032890B622B0800031040016D
:1026D0004F0D500DD1005108D7005708031D792B1D
:1026E0000030D0000030CF000030CE000030CD00F0
:1026F00008004D08D1004E08D2004F08D300500802
:10270000D4001F30D436D30CD20CD10C890B822BC1
:102710005108D5005508D600CF17FF30CD05FF3042
:10272000CE05FF30CF050030D0059630D702D71F39
:10273000AC2B5708803A973E031C702B0130D036E3
:10274000CF0CCE0CCD0C890B9F2B0130D100510842
:10275000D7070319BD2B9E2B203057020318702B6F
:1027600057080319BD2B0130CD35CE0DCF0DD00D3F
:10277000890BB42B0130D702B02B5608031908007F
:10278000CD09CE09CF09D009CD0A0319CE0A031904
:10279000CF0A0319D00A0800003040012005A80024
:1027A00000302105A90080302205AA007F302305D2
:1027B000AB002B082A0429042804031DE72B003052
:1027C000A3000030A2000030A1000030A0000030C3
:1027D0002405A80000302505A90080302605AA00A0
:1027E0007F302705AB002B082A0429042804031D89
:1027F000012C0030A7000030A6000030A5000030FA
:10280000A400A31F1B2C0030A8000030A90000303A
:10281000AA008030AB002008A8022108A93B2208AA
:10282000AA3B2308AB3B2B08A3002A08A2002908D7
:10283000A1002808A000A71F352C0030A8000030F8
:10284000A9000030AA008030AB002408A8022508A7
:10285000A93B2608AA3B2708AB3B2B08A7002A0860
:10286000A6002908A5002808A4008030A30680300F
:10287000A70627082302031D080026082202031DBD
:10288000080025082102031D080024082002080072
:10289000410137084001DB00410136084001DA0000
:1028A000410135084001D900410134084001D800F8
:1028B00091317421943140015B084101AF00400126
:1028C0005A084101AE00400159084101AD004001E4
:1028D00058084101AC003708B3003608B20035088B
:1028E000B1003408B0009F312327943141012F08F3
:1028F000BB002E08BA002D08B9002C08B8003B0810
:102900004001EA0041013A084001E900410139086B
:102910004001E800410138084001E7004101370863
:102920004001EE00410136084001ED00410135084B
:102930004001EC00410134084001EB008D31A1253C
:10294000943140016A084101B70040016908410122
:10295000B600400168084101B50040016708410127
:10296000B40037084001DB00410136084001DA00BD
:10297000410135084001D900410134084001D80027
:102980009131742140015B084101B70040015A08B0
:102990004101B600400159084101B5004001580805
:1029A0004101B400080041013308B5003208B40009
:1029B000B435B50DB435B50D300834078400310891
:1029C000353D8500003FB600013FB700023FB8002B
:1029D000033FB9003908BD003808BC003708BB0008
:1029E0003608BA003208330403195E2DFF30B207EF
:1029F000FF30B33D3308B5003208B400B435B50D2F
:102A0000B435B50D3008340784003108353D8500F4
:102A1000003FB600013FB700023FB800033FB900D6
:102A200039084001EA00410138084001E90041014C
:102A300037084001E800410136084001E700410144
:102A40003D084001B60041013C084001B50041018C
:102A50003B084001B40041013A084001B300410184
:102A60002F084001BA0041012E084001B900410180
:102A70002D084001B80041012C084001B7008B31FE
:102A80007523943140013608EE003508ED00340816
:102A9000EC003308EB008D31A125943140016A0828
:102AA0004101BD00400169084101BC0040016808C6
:102AB0004101BB00400167084101F12C3D08AF0016
:102AC0003C08AE003B08AD003A08AC0008004001ED
:102AD000A8002808031DA31F7D2D2009AA00210995
:102AE000AB002209AC002309AD00AA0A0319AB0A06
:102AF0000319AC0A0319AD0A852D2308AD0022087D
:102B0000AC002108AB002008AA00230822042104FD
:102B10002004031D942D0030A3000030A2000030DB
:102B2000A1000030A00008009630A4002408A900ED
:102B3000FE302D050319BB2D0130A4002408A90780
:102B40000130AD36AC0CAB0CAA0C890BA12D982D25
:102B50000130A4002408A9070130AA070030AB3DCA
:102B60000030AC3D0030AD3D0130AD36AC0CAB0CAF
:102B7000AA0C890BB52DFF302D050319CD2DA82DDD
:102B800002302902031CCF2D0130A9020130AA35E1
:102B9000AB0DAC0DAD0D890BC72DAC1FC02D291889
:102BA000D92DFF30AA05FF30AB057F30AC05FF30D3
:102BB000AD050310A90C2908A400A501A601A701D1
:102BC0001830A435A50DA60DA70D890BE12D2408FD
:102BD000AA042508AB042608AC042708AD0428087D
:102BE000031DA31FF42DAD172D08A3002C08A20070
:102BF0002B08A1002A08A0000800003042015A0258
:102C00006930031959020318412E9B31A9239531CC
:102C100001309C31372495314001A701F430A800E0
:102C2000A030A90000309E318A2695314001A701CD
:102C3000A70ADE30A800A0303B2E00305A029130A7
:102C4000031959020318482E9B31A92395310130ED
:102C50009C31372495314001A701F430A800A03001
:102C6000A90000309E318A2695314001A701A70AAC
:102C70000930A800A130A90000309E318A26013019
:102C8000080000305A0285300319590203181D2E1E
:102C900000305A02913003195902031C5E2E08308D
:102CA0009C3137249531400199129A11991099104D
:102CB00019109A121A12191219115D2E5C080319B3
:102CC000E42E9B31A92395314001EF0103304001EF
:102CD0006F060319DE2E01309C31372495314001F7
:102CE000A7012D30A800A130A90000309E318A260E
:102CF00095314001A701A70AE930A800A030A9003A
:102D000000309E318A26953102304001B100E73013
:102D1000B0000030890B8A2EB00B8A2EB10B8A2EA0
:102D2000000001309C31372495314001A701BA30B1
:102D3000A800A030A90000309E318A2695314001BC
:102D4000A701A70A2530A800A130A90000309E31B4
:102D50008A26953102304001B100E730B0000030E2
:102D6000890BB02EB00BB02EB10BB02E000001308D
:102D70009C31372495314001A701C730A800A0300D
:102D8000A90000309E318A2695314001A701A70A8B
:102D90001C30A800A130A90000309E318A26953150
:102DA00002304001B100E730B0000030890BD62E70
:102DB000B00BD62EB10BD62E0000662E4201DC01E0
:102DC00040019A1588310020003008004101410877
:102DD0004001A300410140084001A20041013F0819
:102DE0004001A10041013E084001A0000030A700C1
:102DF0000030A6000030A5000030A4009331CC23A1
:102E000096310318122F21304201D3000030D40034
:102E100000304101C1000030C0000030BF00003070
:102E2000BE000800410141084001A30041014008E3
:102E30004001A20041013F084001A10041013E08BC
:102E40004001A0000030A7000030A6000030A5001F
:102E50000030A4009031E1209631031C3E2F223037
:102E60004201D3000030D40000304101C1000030E5
:102E7000C0000030BF000030BE000800BF3040017D
:102E8000EA008030E9000030E8000030E700403020
:102E9000B6000030B5000030B4000030B300C330DD
:102EA0004101C20042084001B00041014108400117
:102EB000AF00410140084001AE0041013F08400120
:102EC000AD0041013E084001AC0092310E22963126
:102ED00040012F08BA002E08B9002D08B8002C08B0
:102EE000B7008B317523963140013608EE00350866
:102EF000ED003408EC003308EB008D31A12596314C
:102F000040016A084101C100400169084101C00057
:102F1000400168084101BF00400167084101BE004F
:102F2000FF30C307FF30C43D4108AF004008AE008A
:102F30003F08AD003E08AC005930B000A030B100F1
:102F40000830B2000030B3009431D32496314101EF
:102F50002F08C1002E08C0002D08BF002C08BE009D
:102F600041084001EA00410140084001E9004101F7
:102F70003F084001E80041013E084001E7003F30C2
:102F8000B6003130B5007230B4001830B3004101E2
:102F900043084001A000410144084001A100890DFF
:102FA000893B8909A200A30001309531672596313C
:102FB00040012308BA002208B9002108B8002008FF
:102FC000B7008B317523963140013608EE00350885
:102FD000ED003408EC003308EB008D31A1254001F1
:102FE0006A084101C100400169084101C000400177
:102FF00068084101BF00400167084101BE000800A8
:103000002534333464342C34253464342034DF34B0
:103010004334203420342034203425343334643491
:103020002C3425346434203425342534723465340A
:103030006C3420342034203420342D3478347834E7
:103040002C3478342034DF3443342034203420349A
:1030500020342534323475342C34253431347534ED
:103060005634203420342534323475342C3425340D
:06307000753457340034F2
:10374400080008000800080044010E1008000230B8
:103754009C313724080018309C31372408001C3071
:103764009C31372408004E018C129C314B240800F4
:10377400640080010131890BBB2B0034FE00120070
:103784001E00FE0BC12B0034400119150430890BB7
:10379400C92B400119110800013041019D00E0309E
:1037A4009E009B019C0108004F019601970198011E
:1037B40099019A019B0108000034403414345434B4
:1037C40000344034143454340130F8070030F93DE7
:1037D4000030FA3D0030FB3D080040012108430160
:1037E400C300400120084301C20008004001210831
:1037F4004301C500400120084301C4000800400102
:1038040021084201EE00400120084201ED000800B9
:10381400400121084201EC00400120084201EB0074
:103824000800400121084201EA0040012008420149
:10383400E9000800400121084201E8004001200895
:103844004201E7000800400121084201E60040016E
:1038540020084201E5000800400121084301C1009D
:10386400400120084301C00008004001A600A30154
:1038740026089D3103259C319D3132250800623094
:1038840051018D008F01910102309300900192014A
:1038940008004201650866040319080066088A00E6
:1038A40065080A009C3108004301400841040319DB
:1038B400080041088A0040080A009C3108004001C1
:1038C400A600A301A30A26089D3103259C319D313E
:1038D4003225080042016D086E040319762C6E0827
:1038E4008A006D080A009C317E013F1208004201E3
:1038F4006B086C040319832C6C088A006B080A009B
:103904009C317E01BF120800420169086A04031950
:10391400902C6A088A0069080A009C317E01BF1352
:10392400080042016708680403199D2C68088A008E
:1039340067080A009C317E01551108004E011010E1
:1039440042016408F1006308F0009C31BC249C31FE
:103954009C315624080040019A119B31A623400152
:1039640018109810181198110130F00070084201D5
:10397400DC00080044010E1DC62C0E1071088D00D9
:1039840070088C000E14080071088D0070088C00FB
:1039940008004001A100A0013A3021020318D82CEC
:1039A40030302102031CD82CA001A00A200C0800EE
:1039B40052304B019F007C309D009C014E018C12C3
:1039C400961602304001A0000030A1009C3125244D
:1039D40084304B019E0008009B31D6239C319131E9
:1039E400C0219C319C3141249C319B31CE239C319C
:1039F4009D3182259C319C31DA249C319E310126F3
:103A040008004001A500230C031C19120318191601
:103A140099112508A4000430A436890B0E2D24081E
:103A240090311C209D314001250890311C20080054
:103A34007E013F1E202D9C316C249D317E01BF1ED2
:103A4400262D9C3179249D317E01BF1F2C2D9C3164
:103A540086249D317E01551D08009C319324080065
:103A64004001141619129915191100324001191543
:103A74000032003040010E1A0130A00019119B31B0
:103A8400C6239D3140012008031D362D14129911BF
:103A9400080042019D1C502D1D121D161908F0002E
:103AA4006108A83E8600013087007008810001305B
:103AB400F0007008E107083061020318E1010130E9
:103AC400F0007008DF0708004001A401A501201CD4
:103AD4006F2D2208A4072308A53D0130A235A30DAC
:103AE400890B702D0130A136A00C890B752D20088F
:103AF4002104031D692D2508A1002408A000080045
:103B040044018F019001013091009E308D005830A6
:103B14008C000D084201E40044010C084201E3005A
:103B24004E0110101A1403304001A0000030A1000F
:103B34009C312E24053044018E00080008304201D7
:103B44006F020318BD2D41016E08B03E860001309E
:103B54008700010842019A000130F0007008410119
:103B6400EE0708306E020318EE010130F000700811
:103B74004201EF0708004E01191208004001A80095
:103B8400A401A5012008A200A3012208A60023087D
:103B9400A700281CD12D2608A4072708A53D01301D
:103BA400A635A70D890BD22D0310A80C2808031DD8
:103BB400CB2D2508A1002408A000080042015F08BD
:103BC4000319E02D6008A83E860001308700010833
:103BD4004001A0002008A1000130A00020084201FB
:103BE400E007083060020318E0014E019912013029
:103BF4004201DF024E0199164001210808004E01DE
:103C040099124B304001A0001D30A1009B31EF23DD
:103C14009E314E011912A0304001A0001D30A100B8
:103C24009B31F823083042019F0090309D000430FE
:103C34009E0019309B009C01FD014101EE010830FA
:103C44004001A20022084201EF00E101E001DF018E
:103C54004E01991608004001280829040319552E1D
:103C6400AD01AD0AA91B402E0130A835A90D890B61
:103C7400372E0130AC002C08AD07342E29082B0256
:103C8400031D462E28082A02031C4C2E2808AA02CB
:103C94002908AB3B0130A936A80C890B4D2E013005
:103CA400AD02031D402E2B08A9002A08A800080015
:103CB40000304001AB000030AA000030A900003001
:103CC400A800201C6D2E2408A8072508A93D260855
:103CD400AA3D2708AB3D0130A435A50DA60DA70DBF
:103CE400890B6E2E0130A336A20CA10CA00C890BFB
:103CF400752E2308220421042004031D632E2B089F
:103D0400A3002A08A2002908A1002808A00008008E
:103D14004001AF0043013B084001AE0043013A08B3
:103D24004001AD00430139084001AC0043013808AB
:103D34004001AB0027082B3E8600870101082F07AE
:103D440080389C3137249E3140012808840029089A
:103D5400850012000319080028088400290885003A
:103D640000089C3161249E3101304001A8070030D5
:103D7400A93DA62E1030903100209E31400120082C
:103D8400C0002108C100C201C3010030AF000030EF
:103D9400AE002730AD001030AC004008BC00410834
:103DA400BD004208BE004308BF000B30BC35BD0D4A
:103DB400BE0DBF0D890BD82E3F08B3003E08B200DC
:103DC4003D08B1003C08B0009231B02240012D08FA
:103DD400BB002C08BA0008004001A501A601200878
:103DE400210403191E2FA701A70AA11B032F0130C9
:103DF400A035A10D890BFA2E0130A4002408A707D1
:103E0400F72E0130A535A60D890B042F21082302B6
:103E1400031D0E2F20082202031C152F2008A202C6
:103E24002108A33B25140130A136A00C890B162FC1
:103E34000130A702031D032F2608A1002508A000B6
:103E4400080080304101AF0633084001EA00410117
:103E540032084001E900410131084001E800410114
:103E640030084001E70041012F084001EE00410104
:103E74002E084001ED0041012D084001EC004101F4
:103E84002C084001EB008D31A12540016A08410155
:103E9400AF00400169084101AE00400168084101DA
:103EA400AD00400167084101AC00080011309031B9
:103EB40000209F3140012008BC002108BD00BE0144
:103EC400BF010030AF000030AE000330AD00E83079
:103ED400AC003F08A3003E08A2003D08A1003C0836
:103EE400A0000030A7000030A6000730A500A330D2
:103EF400A4009E315A269F3140012308B3002208B2
:103F0400B2002108B1002008B0009231B022400173
:103F14002D08BB002C08BA00080040010C0E013922
:103F2400F0000C0E890C013909077004F1007108C6
:103F3400F7007C080739F000F101F035F10DF03598
:103F4400F10D9E30F200A030F30070087207F40007
:103F54007108733DF5007708740784007508031829
:103F6400750A85000008F6007608FC00FC1FBF2FC8
:103F74000130F00070084101ED007C1F08000230A0
:103F8400F00070084101ED00080042015E08DE0AFD
:103F9400F00064307002031CD82FDE019B31A6238D
:103FA4004001181098101811981108004F085E026B
:103FB4000318DF2F40011814E12F400118104201AB
:103FC40050085E020318E92F40019814EB2F4001BA
:103FD4009810420151085E020318F32F400118158E
:103FE400F52F40011811420152085E020318FD2FFB
:103FF40040019815080040019811080054346534B4
:104004006D3470346534723461347434753472349C
:10401400203420344634653475346334683474345D
:104024006534203420342034203420345434613432
:104034007534703475346E346B34743420342034F5
:10404400203420344234613474347434653472342A
:104054006934653400344B3461346E3461346C3407
:1040640020343134203420342034203420344B3470
:1040740061346E3461346C3420343234203420346E
:104084002034203420344B3461346E3461346C3445
:1040940020343334203420342034203420344B343E
:1040A40061346E3461346C3420343434003400347C
:1040B400003400340034C434FF347F343F3480345B
:1040C400EF34FF34BE349034E134A9343E34EC345C
:1040D40082347634BE348234AD342B343E340E34E0
:1040E4003C34C334BD348734D13413343D34413487
:1040F4007834D334BB342534323464342034253416
:104104002534203420342534323475342C34253489
:10411400753420345734253432346434203425340F
:104124002534203420342534323475342C34253469
:1041340075342034573400340034043401340034EA
:104144008234003401340034023403340134003442
:1041540002340334003480344534043400340034ED
:104164000534043406340034053400340634403451
:10417400523465346D346F3476346534203473349A
:1041840068346F3472347434003448346F346C34AB
:104194006434203462347534743474346F346E345B
:1041A40000344B3461346E3461346C34203425343F
:1041B40064343A342034003475346E3464346534F1
:1041C400723476346F346C3474342E3400346F3477
:1041D4007634653472346C346F34613464346534E9
:1041E400643400344D34613469346E3420344234E0
:1041F40020346234753473340034013400340A34A6
:10420400003464340034E8340334103427346F3415
:1042140076346534723476346F346C3474342E34BA
:104224000034543461347334743467347234613414
:104234006434003474346F34203472346534733429
:1042440065347434003463346934723463347534DB
:104254006934743400344F347534743470347534C0
:104264007434003425343234643425342534003431
:020000040001F9
:0A000E00EC3FFF3F9F3FFF3FFF3F25
:00000001FF
