:020000040000FA
:0400000080311B2808
:100008007E1480310B1F09280A2819284E01991ED1
:100018000E280F2819288F1E12281328192888310E
:10002800102080314E018F1219287E10090080316E
:100038001D28FA01FB014101DC01DD01DE01DF01C0
:10004800E0017E1040018731072F41015F0842011E
:10005800D90041015E084201D80041015D08420112
:10006800D70041015C084201D6004101270842013E
:10007800D900410126084201D80041012508420162
:10008800D700410124084201D6005908E100580868
:10009800E0005708DF005608DE00BC01BD0161081A
:1000A800031D5C2880306002031C5B285C287B28C9
:1000B8005E084101A80042015F084101A900420110
:1000C80060084101AA00420161084101AB001F30EC
:1000D800AB36AA0CA90CA80C890B6C282B082A048F
:1000E80029042804031979287A2899297B284201A8
:1000F8005E084101A80042015F084101A9004201D0
:1001080060084101AA00420161084101AB000130C9
:10011800A835A90DAA0DAB0D890B8C282B082A042C
:1001280029042804031D99289A28E2282708400151
:10013800A900410126084001A80041012508400105
:10014800A700410124084001A600410127084001F9
:10015800AD00410126084001AC00410125084001DD
:10016800AB00410124084001AA008A31C422803131
:1001780040012908C3002808C2002708C100260832
:10018800C000BF30C7008030C6000030C500003056
:10019800C400963121268031400143084101A7005F
:1001A800400142084101A600400141084101A50063
:1001B800400140084101A400512E512E42015E0821
:1001C8004101A80042015F084101A90042016008FD
:1001D8004101AA00420161084101AB001F30AB3662
:1001E800AA0CA90CA80C890BF3282B082A042904AB
:1001F8002804031900290129502900304001C300AF
:100208000030C2000030C1000030C00041012708A2
:100218004001DD00410126084001DC0041012508BC
:100228004001DB00410124084001DA0041012708B0
:10023800F5002608F4002508F3002408F20095319B
:10024800ED25803175084001E1007408E00073086D
:10025800DF007208DE008D312F25803140015D08F6
:10026800C7005C08C6005B08C5005A08C400963180
:1002780021268031400143084101A700400142087E
:100288004101A600400141084101A5004001400884
:100298004101A400512E512EE7304201BC07FF3026
:1002A800BD3D4C304001A9000030A8000030A70037
:1002B8000030A600410127084001AD004101260891
:1002C8004001AC00410125084001AB004101240870
:1002D8004001AA008A31C422803140012908410125
:1002E800A700400128084101A60040012708410154
:1002F800A500400126084101A40027084201D900B1
:10030800410126084201D800410125084201D700D1
:10031800410124084201D6005908E1005808E000CC
:100328005708DF005608DE00BC2980304201600211
:100338007F30613B031CA129A229A429512EBC2985
:10034800803060063F30031961065E045F04031DB8
:10035800AE29AF29BC2900304101A7000030A60012
:100368000030A5000030A400512E512EBC29BC2914
:100378000D304201DE07FB30DF3D4A30E03D003002
:10038800E13D5E084101A80042015F084101A90062
:10039800420160084101AA00420161084101AB0025
:1003A8001730AB36AA0CA90CA80C890BD52928083C
:1003B800813EAC00FF30293DAD002C084201BC074E
:1003C80041012D084201BD3DF3304101A800043030
:1003D800A9003530AA003F30AB00FF3042015E056E
:1003E8004101AC00FF3042015F054101AD007F30A3
:1003F800420160054101AE00003042016105410142
:10040800AF002C08A8072D08A93D2E08AA3D2F08E3
:10041800AB3D2B084201E10041012A084201E000FE
:10042800410129084201DF00410128084201DE009C
:100438006108D9006008D8005F08D7005E08D600B8
:1004480059084101A700420158084101A60042018C
:1004580057084101A500420156084101A400BF30D8
:100468004001DD008030DC000030DB000030DA00C5
:10047800410127084001E100410126084001E00050
:10048800410125084001DF00410124084001DE0048
:100498008D312F25803140015D084201DD0040018A
:1004A8005C084201DC0040015B084201DB004001BE
:1004B8005A084201DA0040304001DD000030DC001B
:1004C8000030DB000030DA0042015D084001E10045
:1004D80042015C084001E00042015B084001DF0086
:1004E80042015A084001DE008D312F25803140013C
:1004F8005D08C3005C08C2005B08C1005A08C00060
:1005080042015D084001C70042015C084001C60085
:1005180042015B084001C50042015A084001C4007D
:10052800963121268031400143084201C90040012B
:1005380042084201C800400141084201C700400189
:1005480040084201C60049084001A9004201480884
:100558004001A800420147084001A700420146089F
:100568004001A600420149084001AD004201480887
:100578004001AC00420147084001AB004201460877
:100588004001AA008A31C422803140012908420171
:10059800CD00400128084201CC0040012708420153
:1005A800CB00400126084201CA004D084001A900BD
:1005B80042014C084001A80042014B084001A70035
:1005C80042014A084001A60042014D084001AD0021
:1005D80042014C084001AC0042014B084001AB000D
:1005E80042014A084001AA008A31C42280314001F0
:1005F80029084201D100400128084201D0004001E9
:1006080027084201CF00400126084201CE000830E9
:10061800840098308500003F4101A800013FA900EF
:10062800023FAA00033FAB002B084001DD00410157
:100638002A084001DC00410129084001DB00410192
:1006480028084001DA000030840098308500003F17
:100658004101AC00013FAD00023FAE00033FAF00D7
:100668002F084001A90041012E084001A8004101BE
:100678002D084001A70041012C084001A6004201B5
:1006880051084001AD00420150084001AC00420150
:100698004F084001AB0042014E084001AA008A31D0
:1006A800C422803140012908E1002808E000270819
:1006B800DF002608DE008D312F25803140015D08DE
:1006C8004201D50040015C084201D40040015B08AA
:1006D8004201D30040015A084201D20051084001AA
:1006E800A900420150084001A80042014F084001FA
:1006F800A70042014E084001A600420155084001EA
:10070800AD00420154084001AC00420153084001C9
:10071800AB00420152084001AA008A31C42280314C
:10072800400129084201A700400128084201A6000B
:10073800400127084201A500400126084201A40003
:100748000C30840098308500003F4101A800013F2B
:10075800A900023FAA00033FAB002B084001DD00BF
:1007680041012A084001DC00410129084001DB0061
:10077800410128084001DA000430840098308500DF
:10078800003F4101AC00013FAD00023FAE00033F16
:10079800AF002F084001A90041012E084001A80020
:1007A80041012D084001A70041012C084001A60085
:1007B800420151084001AD00420150084001AC001F
:1007C80042014F084001AB0042014E084001AA0017
:1007D8008A31C422803140012908E1002808E0005C
:1007E8002708DF002608DE008D312F2580314001E3
:1007F8005D084201D50040015C084201D400400177
:100808005B084201D30040015A084201D2004D085A
:100818004001A90042014C084001A80042014B08D0
:100828004001A70042014A084001A60042015508BC
:100838004001AD00420154084001AC004201530898
:100848004001AB00420152084001AA008A31C4228B
:100858008031400129084201AB00400128084201CB
:10086800AA00400127084201A900400126084201C8
:10087800A80027084001DD00420126084001DC00ED
:10088800420125084001DB00420124084001DA004A
:1008980042012B084001E10042012A084001E00022
:1008A800420129084001DF00420128084001DE001A
:1008B8008D312F25803140015D084201A3004001A0
:1008C8005C084201A20040015B084201A10040010E
:1008D8005A084201A0003F304001A9000030A8009A
:1008E8000030A7000030A60042015D084001AD00BD
:1008F80042015C084001AC0042015B084001AB00CA
:1009080042015A084001AA008A31C42280314001BC
:1009180029084201D500400128084201D4004001BD
:1009280027084201D300400126084201D2005D0891
:100938004001A90042015C084001A80042015B088F
:100948004001A70042015A084001A600420155088B
:100958004001AD00420154084001AC004201530877
:100968004001AB00420152084001AA008A31C4226A
:100978008031400129084201C10040012808420194
:10098800C000400127084201BF004001260842017B
:10099800BE003C08F2003D08F300890D893B890937
:1009A800F400F50001308631522680317508420185
:1009B800C5007408C4007308C3007208C20049085F
:1009C8004001A900420148084001A8004201470827
:1009D8004001A700420146084001A6004201230841
:1009E8004001DD00420122084001DC0042012108EB
:1009F8004001DB00420120084001DA0042014108C1
:100A08004001E100420140084001E00042013F0886
:100A18004001DF0042013E084001DE008D312F25F4
:100A2800803140015D08AD005C08AC005B08AB009C
:100A38005A08AA008A31C42280314001290842019B
:100A4800AF00400128084201AE00400127084201DA
:100A5800AD00400126084201AC00103084009830F7
:100A68008500003F4101A800013FA900023FAA00FC
:100A7800033FAB002B084001A90041012A084001AF
:100A8800A800410129084001A700410128084001A8
:100A9800A600420145084001AD004201440840015A
:100AA800AC00420143084001AB004201420840014A
:100AB800AA008A31C422803140012908DD002808B3
:100AC800DC002708DB002608DA0042012F08400175
:100AD800E10042012E084001E00042012D084001DA
:100AE800DF0042012C084001DE008D312F258031C6
:100AF80040015D084201B30040015C084201B200B8
:100B080040015B084201B10040015A084201B000AF
:100B18004108F5004008F4003F08F3003E08F200E1
:100B28009531ED25803175084001DD007408DC0041
:100B38007308DB007208DA00420133084001E10063
:100B4800420132084001E000420131084001DF0063
:100B5800420130084001DE008D312F2580314001EF
:100B68005D084201B70040015C084201B60040013F
:100B78005B084201B50040015A084201B4005D0813
:100B88004001DD0042015C084001DC0042015B08D5
:100B98004001DB0042015A084001DA0042013708EF
:100BA8004001E100420136084001E00042013508F9
:100BB8004001DF00420134084001DE008D312F255D
:100BC800803140015D084201BB0040015C084201E0
:100BD800BA0040015B084201B90040015A084201CD
:100BE800B8001430840098308500003F4101A80007
:100BF800013FA900023FAA00033FAB002B084001B8
:100C0800A90041012A084001A80041012908400122
:100C1800A700410128084001A600420145084001FB
:100C2800AD00420144084001AC00420143084001C4
:100C3800AB00420142084001AA008A31C422803137
:100C480040012908DD002808DC002708DB00260809
:100C5800DA0042013B084001E10042013A08400144
:100C6800E000420139084001DF0042013808400134
:100C7800DE008D312F25803140015D084101A7003C
:100C880040015C084101A60040015B084101A50044
:100C980040015A084101A400512E08004001A0005B
:100CA80020080319582E592E6D2EF51F5C2E5D2E27
:100CB8006D2E7209A2007309A3007409A4007509B6
:100CC800A500A20A0319A30A0319A40A0319A50A6D
:100CD800752E7508A5007408A4007308A30072088F
:100CE800A2007508740473047204031D7C2E7D2E03
:100CF800872E0030F5000030F4000030F30000309B
:100D0800F200062F062F9630F6007608A100982EDE
:100D18000130F6007608A1070130A536A40CA30C13
:100D2800A20C890B912E982EFE302505031D9D2EB1
:100D38009E2E8C2EB32EB32E0130F6007608A10716
:100D48000130A2070030A33D0030A43D0030A53D8E
:100D58000130A536A40CA30CA20C890BAD2EFF30D4
:100D68002505031DB82EB92EA02EC52EC52E01307F
:100D7800A1020130A235A30DA40DA50D890BBE2E2D
:100D8800C52EA41BC82EC92ED02E0230210203184E
:100D9800CE2ECF2EBB2ED02E2118D32ED42EDC2E25
:100DA800FF30A205FF30A3057F30A405FF30A5055D
:100DB8000310A10C2108F600F701F801F901183019
:100DC800F635F70DF80DF90D890BE42E7608A20417
:100DD8007708A3047808A4047908A504200803194F
:100DE800F62EF72EFD2EF51FFA2EFB2EFD2EA5173B
:100DF800FD2E2508F5002408F4002308F300220836
:100E0800F200062F08008731C627873164006A2F51
:100E1800AA304101C8004808CD00CE01CE0AD03022
:100E2800C80048084001EE00D8304101C90049080F
:100E38004001EF00D430883179208731003A031916
:100E4800262F272F2B2F4101CF01CF0A2E2F41010B
:100E5800CF012E2FCD30C8004808CB00CA01CC01E5
:100E68000F304C02031C392F3A2F3C2F5A2F5A2F80
:100E78004B08860087010108C8004808CA064B08C5
:100E8800860087010108883103208731013041013C
:100E9800C8004808CB070130C8004808CC070F3005
:100EA8004C02031C582F592F3C2F5A2F4A088831BF
:100EB800032087314101E0010A2FFF3088310320E8
:100EC80087314101E0010A2F0A2F0A2F41016008EA
:100ED800C800C9014908003A0319732F0A2F4808A6
:100EE800013A03190C2F033A0319612F0A2F0A2F0D
:100EF8000A2F80311B28F5000314730D43018C0061
:100F0800852F4E010F1C892F8A2F852F0F10430123
:100F1800111F8F2F902FBB2F0030C52FC52FBB2F30
:100F280043019115972F4E010F1C9B2F9C2F972F34
:100F38000F1043010C08F400750886008701740837
:100F480081000130F4007408F50772080319AD2F09
:100F5800B02F43019116B22F430191121116B42FED
:100F68004E010F1CB82FB92FB42F0F10BB2F013013
:100F7800F202720A031DC12FC22F942FC32F013012
:100F8800C52F080002305101930060308D00CC2F2E
:100F98000F1ECF2FD02FCC2FD12F0F307E01A400C2
:100FA8001630A10011307D01C60015307E01A00069
:100FB800B801CE01400192012330940020304E0147
:100FC8009900C0308B00083042019F0019309B0007
:100FD80090309D0020309E00093043018D0028305C
:100FE8009000080043011115F92F4E010F1CFD2F29
:080FF800FE2FF92F0F10080075
:10100600F200720842019A00000009284E010F1EE4
:101016000D280E2809280F28080042019D1C1428B7
:1010260015281C281D121D160130F0007008FA073D
:101036001C281D1D1F28202827289D139D170130B9
:10104600F0007008FB0727281908F0007008F10067
:101056003F307106031D3028312837280130F00053
:1010660070084101E0003D280230F000700841019F
:10107600E0003D280800F500733543018C00432845
:101086004E010F1C4728482843280F104301111F03
:101096004D284E285128003078287828F6016F28E8
:1010A60076087507F40074088600870101088C002D
:1010B6005C284E010F1C602861285C280F10430134
:1010C600111F662867286A2876087828782801304C
:1010D600F4007408F6076F2872087602031C742859
:1010E6007528532876287608782808004101C50017
:1010F6009531E1258831E5304101B0003008C60060
:10110600F201F20A4030B0003008F300C6308831F0
:101116003E208831003A031D9128922895280030F8
:10112600C32AC32A9531D725883102304101B00040
:101136003008F2004030B1003108F300C630873184
:101146007F278831003A031DA928AA28AD28003038
:10115600C32AC32A8731F6278831C0304001DD0013
:10116600C030DC000030DB000030DA004730C3005E
:101176008030C2000030C1000030C0004230A900FB
:10118600FA30A8000030A7000030A6004101470849
:10119600B000B1014608B200B3013208B300B20193
:1011A60030083204F20031083304F300F401F5018B
:1011B600003086315226883175084001AD0074082A
:1011C600AC007308AB007208AA008A31C4228831C9
:1011D60040012908C7002808C6002708C5002608B8
:1011E600C40096312126883140014308E1004208B7
:1011F600E0004108DF004008DE008D312F258831F0
:10120600410145088600870140015A08C03F5B0836
:10121600C13F5C08C23F5D08C33F9531E125883177
:10122600E0304101B0003008C600F201F20A403059
:10123600B0003008F300C63088313E208831003ACD
:10124600031D262927292A290030C32AC32A9531B6
:10125600D725883102304101B0003008F200403015
:10126600B1003108F300C63087317F278831003A54
:10127600031D3E293F2942290030C32AC32A87314C
:10128600F6278831C2304001DD003B30DC00663095
:10129600DB006630DA004730C3008030C200003021
:1012A600C1000030C0004330A9002F30A800B8307C
:1012B600A7005230A60041014708B000B101460818
:1012C600B200B3013208B300B20130083204F200B2
:1012D60031083304F300F401F5010030863152265B
:1012E600883175084001AD007408AC007308AB0086
:1012F6007208AA008A31C422883140012908C70031
:101306002808C6002708C5002608C40096312126ED
:10131600883140014308E1004208E0004108DF004F
:101326004008DE008D312F25883140016E08860089
:1013360087015A08C03F5B08C13F5C08C23F5D0891
:10134600C33F4230C300C830C2000030C100003085
:10135600C0004101450886008701403F4001C400A6
:10136600413FC500423FC600433FC7009631212694
:101376008831400143084101B8004001420841015B
:10138600B700400141084101B60040014008410153
:10139600B50043304001DD007330DC008030DB00F7
:1013A6000030DA006E0886008701403FDE00413FCC
:1013B600DF00423FE000433FE1008D312F258831B9
:1013C60040015D08C3005C08C2005B08C1005A0802
:1013D600C0004130A9008D30A8005C30A70029303C
:1013E600A6006E0886008701403FAA00413FAB0079
:1013F600423FAC00433FAD008A31C42288314001F0
:101406002908C7002808C6002708C5002608C40002
:10141600963121268831400143084101BC00400134
:1014260042084101BB00400141084101BA004001A8
:1014360040084101B9003808A7003708A600360859
:10144600A5003508A40080312920883141012708EC
:10145600C0002608BF002508BE002408BD003C08C1
:101466004001DD0041013B084001DC0041013A0832
:101476004001DB00410139084001DA004101400822
:101486004001E10041013F084001E00041013E0802
:101496004001DF0041013D084001DE008D312F256E
:1014A600883140015D084101C40040015C084101EA
:1014B600C30040015B084101C20040015A084101D6
:1014C600C10041304001DD008D30DC005C30DB00C6
:1014D6002930DA0041014408F5004308F4004208C7
:1014E600F3004108F2009531ED2588317508400179
:1014F600E1007408E0007308DF007208DE008D3139
:101506002F25883140015D08C3005C08C2005B08D6
:10151600C1005A08C0004330A9007330A8008030CB
:10152600A7000030A600410144084001AD0041017A
:1015360043084001AC00410142084001AB004101B3
:1015460041084001AA008A31C42288314001290895
:10155600C7002808C6002708C5002608C40096311B
:101566002126883140016F08860087014008C03F68
:101576004108C13F4208C23F4308C33F0130C32A66
:101586000800400129088039AE002E08B30029352D
:10159600AE002E08B900A81FD12AD22AD42A39149F
:1015A600D42A39080319D82AD92AE92A390A031D5F
:1015B600DD2ADE2AE72A0030A9000030A800003024
:1015C600A7000030A600E72AA817F22A0030A900D3
:1015D6000030A8000030A7000030A600F22A2D082F
:1015E6008039AE002E08B3062D35AE002E08B400A5
:1015F600AC1FFE2AFF2A012B3414012B34080319D1
:10160600052B062B162B340A031D0A2B0B2B142B2A
:101616000030AD000030AC000030AB000030AA0056
:10162600142BAC171F2B0030AD000030AC0000307F
:10163600AB000030AA001F2B34080319232B242BE0
:101646002A2B3908031D282B292B342B2A2B003053
:10165600A9000030A8000030A7000030A6002E2DFB
:101666002E2D2608AE002E08F2002C089531FA25FC
:101676008A3173084001BF007208BE003E08AE0002
:10168600AF01B001B1013108B8003008B7002F082A
:10169600B6002E08B5003F08AE00AF01B001B1019B
:1016A6003108BD003008BC002F08BB002E08BA0068
:1016B6002708AE002E08F2002B089531FA258A314C
:1016C60073084001BF007208BE003E08AE00AF01BD
:1016D600B001B1012E08B5072F08B63D3008B73D59
:1016E6003108B83D3F08AE00AF01B001B1012E0888
:1016F600BA072F08BB3D3008BC3D3108BD3D280860
:10170600AE002E08F2002A089531FA258A317308B0
:101716004001BF007208BE003E08AE00AF01B00136
:10172600B1012E08B5072F08B63D3008B73D310880
:10173600B83D3F08AE00AF01B001B1012E08BA07AF
:101746002F08BB3D3008BC3D3108BD3D0830B535DE
:10175600B60DB70DB80D890BAA2B2708AE002E08BB
:10176600F2002A089531FA258A3173084001BF0034
:101776007208BE003E08B5073F08B63D0030B73DCB
:10178600B83D2608AE002E08F2002B089531FA2542
:101796008A3173084001BF007208BE003E08B507D3
:1017A6003F08B63D0030B73DB83D0830B535B60DFB
:1017B600B70DB80D890BD92B2608AE002E08F200FE
:1017C6002A089531FA258A3173084001BF0072084C
:1017D600BE003E08B5073F08B63D0030B73DB83DF0
:1017E6002708AE002E08F2002C089531FA258A311A
:1017F60073084001BF007208BE003E08BA073F08E2
:10180600BB3D0030BC3DBD3D2808AE002E08F200B1
:101816002B089531FA258A3173084001BF007208FA
:10182600BE003E08BA073F08BB3D0030BC3DBD3D8B
:101836002808AE002E08F2002C089531FA258A31C8
:1018460073084001BF007208BE003E08AE003F08A4
:10185600AF00B001B1010830AE35AF0DB00DB10D1E
:10186600890B2F2C2E08BA072F08BB3D3008BC3D2C
:101876003108BD3D3508AE003608AF003708B00068
:101886003808B1001830B136B00CAF0CAE0C890B6D
:10189600462C2E08BA072F08BB3D3008BC3D310840
:1018A600BD3D0830B535B60DB70DB80D890B552CB5
:1018B60039083407AE00AF01AF0D2E08823EBE00D8
:1018C600FF302F3DBF00802C0130BA35BB0DBC0D5B
:1018D600BD0D890B682CB81F712C722C742C3A1410
:1018E600742C0130B535B60DB70DB80D890B752CB6
:1018F600FF30BE07FF30BF3D802CBC1F832C842CDD
:10190600672C852CB401B81F892C8A2CAA2CFF3091
:101916003505AE00FF303605AF00FF303705B000A5
:101926007F303805B100310830042F042E04031926
:101936009D2C9E2CA12CB401B40AAA2C3A1CA42CD2
:10194600A52CAA2CB401B40AAA2CAA2CAA2C3408B9
:101956000319AE2CAF2CD92C0130BA070030BB3D91
:101966000030BC3D0030BD3D3D1CBA2CBB2CD92CF3
:101976003A08AE003B08AF003C08B0003D08B10095
:101986000130B200B137B00CAF0CAE0CB20BC52CA7
:101996003108BD003008BC002F08BB002E08BA0075
:1019A6000130BE070030BF3DD92CD92C3F08803A04
:1019B600AE0080302E02031DE22CFF303E02031CD7
:1019C600E52CE62CF02C7F304001BD008030BC00B9
:1019D6000030BB000030BA00212D40013F08803A9C
:1019E600AE0080302E02031DFA2C01303E02031891
:1019F600FD2CFE2C092D00304001BD000030BC003E
:101A06000030BB000030BA00B301212D40013E0872
:101A1600AE002E08B900FF30BA05FF30BB057F3097
:101A2600BC050030BD05391C192D1A2D1C2DBC17FF
:101A36001C2D3936AE002E08BD00212D3308AE0010
:101A46002E08BD043D08A9003C08A8003B08A700D5
:101A56003A08A6002E2D080040015D088039E200F4
:101A660062084101A00040015D35E20062084101C3
:101A7600A2004001DC1F402D412D442D41012214BE
:101A8600442D410122080319492D4A2D5D2D220AB4
:101A9600031D4E2D4F2D592D00304001DD00003025
:101AA600DC000030DB000030DA00592D4001DC1785
:101AB600DD01672D00304001DD000030DC00003024
:101AC600DB000030DA00672D61088039E200620829
:101AD6004101A100210820060319722D732D752DD1
:101AE6002017752D40016135E20062084101A10011
:101AF6004001E01F7F2D802D832D41012114832D70
:101B0600410121080319882D892D9C2D210A031DC9
:101B16008D2D8E2D982D00304001E1000030E00023
:101B26000030DF000030DE00982D4001E017E101B3
:101B3600A52D00304001E1000030E0000030DF005C
:101B46000030DE004101220821020318AB2DAC2D26
:101B56000B2E201FAF2DB02DB72D80304001E20097
:101B660062084101A006B72D22084001E200620882
:101B76004101A30021084001E20062084101A200E0
:101B860023084001E20062084101A10040015A0811
:101B9600E20062084101A30040015E08E20062081B
:101BA600DA00410123084001E2006208DE005B081A
:101BB600E20062084101A30040015F08E2006208FA
:101BC600DB00410123084001E2006208DF005C08F7
:101BD600E20062084101A30040016008E2006208D9
:101BE600DC00410123084001E2006208E0005D08D4
:101BF600E20062084101A30040016108E2006208B8
:101C0600DD00410123084001E2006208E1000B2EDD
:101C16004101A30122084001E200E301E209E309D0
:101C2600E20A0319E30A4101210840016207E400C0
:101C360063080318630AE5006508803AE600803009
:101C46006602031D282E1A306402031C2B2E2C2E2E
:101C5600732E40015D085C045B045A04031D342E98
:101C6600362E0130372E0030E20062084101A30013
:101C760000304001DD000030DC000030DB000030C9
:101C8600DA00410121084001E20062084101A20098
:101C96007B2E732E231C502E512E592E233601389F
:101CA6004001E20062084101A3005C2E0310A30C70
:101CB6005C2E40015A1C602E612E642E4101A31732
:101CC600642E01304001E200DD37DC0CDB0CDA0C5F
:101CD600E20B672E0130E20062084101A207732E73
:101CE600410121082202031C792E7A2E4D2E7B2ECD
:101CF600201B7E2E7F2EC42E2208031D832E842EAB
:101D06008F2E00304001DD000030DC000030DB00AB
:101D16000030DA00FF2FFF2F40015E08DA075F0868
:101D2600DB3D6008DC3D6108DD3D5D1C9B2E9C2E85
:101D3600752F4101231CA02EA12EA92E2336013872
:101D46004001E20062084101A300AC2E0310A30C7F
:101D5600AC2E40015A1CB02EB12EB42E4101A31751
:101D6600B42E01304001E200DD37DC0CDB0CDA0C6E
:101D7600E20BB72E0130E20062084101A207752F7F
:101D8600752F40015D08803AE2006108803A6202E0
:101D9600031DD72E60085C02031DD72E5F085B0269
:101DA600031DD72E5E085A020318DA2EDB2E292FC2
:101DB600FF30E200FF30E300FF30E400FF30E500D3
:101DC6005E08E6005F08E7006008E8006108E900D1
:101DD6005A09EA005B09EB005C09EC005D09ED00BD
:101DE600EA0A0319EB0A0319EC0A0319ED0A6A0851
:101DF600E6076B08E73D6C08E83D6D08E93D6608B7
:101E0600E2076708E33D6808E43D6908E53D6508C3
:101E1600DD006408DC006308DB006208DA0080305D
:101E2600E20062084101A006A309A30A2308031DD4
:101E36001D2F1E2F312F01304001DA070030DB3D08
:101E46000030DC3D0030DD3D312F312F5E08DA02F7
:101E56005F08DB3B6008DC3B6108DD3B40015D0859
:101E66005C045B045A04031D392F3A2F6E2F41017F
:101E76002308031D3F2F402F6E2F00304001DD0049
:101E86000030DC000030DB000030DA00FF2FFF2FCF
:101E96006E2F0130DA35DB0DDC0DDD0D890B4D2F94
:101EA6004101A31F572F582F5A2F40015A144101A1
:101EB600231C5E2F5F2F622F0314A30D652F0310C3
:101EC600A30D652F22080319692F6A2F6E2F013083
:101ED600A2026E2F6E2F4001DC1F722F732F4C2F24
:101EE600752F752F4101A101A31F7A2F7B2F8F2FED
:101EF60023087F390319802F812F842FA101A10A7E
:101F06008F2F40015A1C882F892F8F2F4101A10145
:101F1600A10A8F2F8F2F8F2F410121080319942F8C
:101F2600952FC82F01304001DA070030DB3D003025
:101F3600DC3D0030DD3D5D1CA12FA22FC82F5A08C5
:101F4600E2005B08E3005C08E4005D08E5000130A0
:101F5600E600E537E40CE30CE20CE60BAC2F650873
:101F6600DD006408DC006308DB006208DA0041017A
:101F7600220A0319BF2FC02FC82F01304001E200EB
:101F860062084101A207C82FC82F4101220A03197E
:101F9600CD2FCE2FD42F2208031DD22FD32FE62FDD
:101FA600D42F00304001DD000030DC000030DB00C3
:101FB6000030DA0041012208031DE22FE32FE62F4D
:101FC600A001E62FE62F221CE92FEA2FED2F400174
:101FD600DC17F22F7F304001E2006208DC05410188
:101FE60022364001E2006208DD004101A01FFC2FFD
:0A1FF600FD2FFF2F4001DD1708004A
:102BAE0043019114DA2D4E010F1CDE2DDF2DDA2D8F
:102BBE000F1008004E010F1043011114E62D4E01A7
:102BCE000F1CEA2DEB2DE62D0F100800750874046E
:102BDE00730472040319F42DF52DF82D8030F506CB
:102BEE00F82DF92D08004001A400A001A1017208E2
:102BFE00F400F5017408A2007508A300062E241C2B
:102C0E00092E0A2E0E2E2208A0072308A13D013000
:102C1E00A235A30D890B0F2E0310A40C2408031D3F
:102C2E00192E1A2E062E1B2E2108F3002008F20054
:102C3E00202E0800400147088039C8004808D100FE
:102C4E004735C8004808D800C61F2E2E2F2E312E0D
:102C5E005814312E58080319352E362E472E580A81
:102C6E00031D3A2E3B2E442E0030C7000030C60006
:102C7E000030C5000030C400442EC617C701502EC8
:102C8E000030C7000030C6000030C5000030C40060
:102C9E00502E43088039C8004808D1064335C80075
:102CAE004808D900C21F5C2E5D2E5F2E59145F2E70
:102CBE0059080319632E642E752E590A031D682EAA
:102CCE00692E722E0030C3000030C2000030C100E9
:102CDE000030C000722EC217C3017D2E0030C3001B
:102CEE000030C2000030C1000030C0004308420472
:102CFE0041044004031D842E852E9F2E0030C700F4
:102D0E000030C6000030C5000030C4008030C6045C
:102D1E007F30C7045108C8004808C7044708C300DD
:102D2E004608C2004508C1004408C000FF2FFF2F0F
:102D3E005808031DA32EA42EB62E0030C700003057
:102D4E00C6000030C5000030C4004708C300460866
:102D5E00C2004508C1004408C000FF2FFF2F5908CC
:102D6E00C800C901C809C909C80A0319C90A5808FF
:102D7E004807CA0049080318490ACB004A087F3E93
:102D8E00D20000304B3DD3004708D0004608CF009C
:102D9E004508CE004408CD000030C7000030C60004
:102DAE000030C5000030C4000030D7000030D6001F
:102DBE000030D5000030D400D901272F590803194F
:102DCE00E92EEA2E062F0130CD35CE0DCF0DD00DCA
:102DDE00890BEB2E0130C435C50DC60DC70D890B01
:102DEE00F22ED71FFB2EFC2EFE2E4414FE2E01308B
:102DFE00D435D50DD60DD70D890BFF2E062F4308D2
:102E0E005002031D142F42084F02031D142F4108B8
:102E1E004E02031D142F40084D02031C172F182FAE
:102E2E00222F57174008CD024108CE3B4208CF3B18
:102E3E004308D03B222F0130C8004808D907272F5E
:102E4E001A305902031C2C2F2D2FE52E2E2F500831
:102E5E004F044E044D040319352F362F522F5414A0
:102E6E00522F522F0130C435C50DC60DC70D890B1B
:102E7E003A2FD71F432F442F462F4414462F01308D
:102E8E00D435D50DD60DD70D890B472FFF30D20770
:102E9E00FF30D33D522FC61F552F562F392F572F88
:102EAE00D901D71F5B2F5C2F7C2FFF305405C80034
:102EBE00FF305505C900FF305605CA007F30570553
:102ECE00CB004B084A044904480403196F2F702F96
:102EDE00732FD901D90A7C2F441C762F772F7C2F84
:102EEE00D901D90A7C2F7C2F7C2F59080319802FEA
:102EFE00812FAB2F0130C4070030C53D0030C63DD9
:102F0E000030C73D471C8C2F8D2FAB2F4408C800B7
:102F1E004508C9004608CA004708CB000130CC005E
:102F2E00CB37CA0CC90CC80CCC0B972F4B08C7005B
:102F3E004A08C6004908C5004808C4000130D20737
:102F4E000030D33DAB2FAB2F5308803AC8008030F2
:102F5E004802031DB42FFF305202031CB72FB82FA7
:102F6E00C52FFF304001D2000030D3000030C70023
:102F7E000030C6000030C5000030C40040015308C8
:102F8E00803AC80080304802031DCF2F0130520214
:102F9E000318D22FD32FDF2F4001D201D3010030DF
:102FAE00C7000030C6000030C5000030C400D1019B
:102FBE0040015208C8004808D800581CE72FE82FD7
:102FCE00EA2FC617EE2F7F30C8004808C6055836C0
:102FDE00C8004808C7005108C8004808C704470879
:102FEE00C3004608C2004508C1004408C000FF2FB8
:102FFE00080026349E3478343E34EE34E93491346D
:10300E003E341334CE34CC343E34AA34AA342A346B
:10301E003F34D134F734173437348034713431348B
:02302E003F342D
:020000040001F9
:0A000E00EF3FFE3F9F3FFF3FFF3F23
:00000001FF
