:020000040000FA
:04000000803108281B
:100008007E1480317E10090080310A284001EE01FB
:10001800EF01203084000130850020308731F72738
:100028008031A03084000130850050308731F727B7
:1000380080317E104001913134294101BC00BA0160
:10004800BB01400148084101D00040014708410177
:10005800CF00400146084101CE004001450841015A
:10006800CD0050084001B80041014F084001B700D9
:1000780041014E084001B60041014D084001B5005C
:100088000030BC000030BB000030BA000030B900BE
:1000980093319A2380310318522853286D28013050
:1000A8004101BA000030BB005008F3004F08F200CD
:1000B8004E08F1004D08F00090310120803173089E
:1000C8004101D0007208CF007108CE007008CD0041
:1000D8006D284101D301D40142013B084101C1000F
:1000E80042013A084101C0003A083B04031D7D283B
:1000F8007E28842840016E1D82288328AB28842806
:1001080041013A083B04031D8A288B2890282B308C
:10011800A4000030A50095282D30A4000030A500CB
:10012800952824084001CA0041015308A03E8600D2
:100138000130870040014A08810001304101D3079E
:100148000030D43DFF30C007FF30C13DAB2841012E
:100158005008F3004F08F2004E08F1004D08F00077
:1001680088311A20803170037104031DBC28BD2812
:10017800242940014908BF3ECA00FF300318003057
:10018800CB0000304B021A3003194A02031CCD2859
:10019800CF280130D0280030CC00CD014C084101D7
:1001A800A60040014D084101A700EB28400149087D
:1001B800CA00CB014A08F0004B08F1008831012041
:1001C800803171084101A7007008A600EB282608B5
:1001D80027040319F028F128FB281030F000983084
:1001E800F1005308A03E9F31B62780310629183008
:1001F800F0009830F10041015308A03E9F31B62726
:1002080080310629FD304101C007FF30C13DA030D3
:100218004001CA004A08A400410141084001A60063
:10022800410140084001A50041013C0892311322D8
:10023800803140012508C6002408C500622F622FBE
:1002480041015008F3004F08F2004E08F1004D0834
:10025800F00088311A20803170087104031D352997
:1002680036299D2940014908BF3ECA00FF300318BE
:100278000030CB0000304B021A3003194A02031C2D
:1002880046294829013049290030CC00CD014C08C5
:100298004101A80040014D084101A900642940011D
:1002A8004908CA00CB014A08F0004B08F100883120
:1002B8000120803171084101A9007008A800642953
:1002C80028082904031969296A2974291430F000B7
:1002D8009830F1005308A03E9F31B62780317F291E
:1002E8001C30F0009830F10041015308A03E9F31C6
:1002F800B62780317F29FD304101C007FF30C13D5D
:10030800A0304001CA004A08A40041014108400148
:10031800A600410140084001A50041013C08923176
:100328001322803140012508C6002408C500622F29
:10033800622F3F304101D8008030D7000030D6000E
:100348000030D500D101D2015008F3004F08F20067
:100358004E08F1004D08F0000030F7000030F600BC
:100368000030F5000030F40091316E21803103181F
:10037800BE29BF297A2AF229F22941304001A30077
:100388002030A2000030A1000030A0004101580830
:100398004001A700410157084001A6004101560845
:1003A8004001A500410155084001A40088319D2065
:1003B8008031400123084101D80040012208410151
:1003C800D700400121084101D60040012008410121
:1003D800D5000130D1070030D23DF2294101500843
:1003E8004001B80041014F084001B70041014E08E3
:1003F8004001B60041014D084001B5004130A3005D
:100408002030A2000030A1000030A00041015808AF
:100418004001A700410157084001A60041015608C4
:100428004001A500410155084001A40088319D20E4
:10043800803140012308BC002208BB002108BA0013
:100448002008B90093319A23803103182C2A2D2AC9
:10045800C129512A512A4130F3002030F2000030DE
:10046800F1000030F00041015808F7005708F60085
:100478005608F5005508F400963121268031730896
:100488004101D8007208D7007108D6007008D5005D
:10049800FF30D107FF30D23D512A410150084001B9
:1004A800B80041014F084001B70041014E08400122
:1004B800B60041014D084001B5004101580840010E
:1004C800BC00410157084001BB00410156084001EA
:1004D800BA00410155084001B90093319A2380318F
:1004E800031C772A782A2F2A7A2A7A2A400149086F
:1004F800CA00CB014A08F6004B08F7009031632088
:10050800803176084001CC004C084101C200420805
:100518004001CA004A084101BF0067304206031D76
:10052800962A972AC12A42013C083D04031D9D2AA8
:100538009E2AA22A0130BC000030BD003D08803A46
:100548004001CA0080304A02031DAD2A0130420131
:100558003C020318B02AB12AB72A06304101BD006F
:100568000030BE00D52A42013D084101BE004201CB
:100578003C084101BD00D52AD52A4201BD1BC52A28
:10058800C62ACE2A3D084101BE0042013C0841016D
:10059800BD00D52A06304101BD000030BE00D52A75
:1005A800D52A67304206031DDA2ADB2A142B5208A3
:1005B800803A4001CA007F304A02031DE62AFC3017
:1005C80041015102031CE92AEA2A0D2B41013D0889
:1005D800FF3E4001CA00FF3041013E3D4001CB00D3
:1005E8004B08803ACC0041015208803A40014C0245
:1005F800031D022B4101510840014A02031C052B2F
:10060800062B0D2B66304001CA004A084101BF0085
:10061800142B65304001CA004A084101BF00142B61
:100628003E08B5003D08B40067304206031D1D2B87
:100638001E2B292B66303F06031D232B242B2E2B24
:10064800D21F272B282B2E2B292B0130B407003043
:10065800B53D2E2B66303F06031D332B342B4F2B15
:10066800D21F372B382B432B3F30D8008030D70090
:100678000030D6000030D500D101D201432B6730BD
:1006880042060319482B492B4F2B5108B40752082F
:10069800B53D4F2B4F2BCB01CC015008C6004F085E
:1006A800C5004E08C4004D08C3005808A3005708E9
:1006B800A2005608A1005508A000112C41015808B5
:1006C800F3005708F2005608F1005508F0004608F4
:1006D800F7004508F6004408F5004308F400963191
:1006E8002126803173084001B0007208AF007108FC
:1006F800AE007008AD0095313225803140013008D8
:100708004101CA0040012F084101C90040012E08DB
:100718004101C80040012D084101C7004A08F30003
:100728004908F2004808F1004708F00087316327BC
:10073800803171084101B9007008B8004A084001C9
:10074800A700410149084001A600410148084001AD
:10075800A500410147084001A40041015808400193
:10076800A300410157084001A20041015608400179
:10077800A100410155084001A00088319D20803129
:1007880040012308B8002208B7002108B600200855
:10079800B500410146084001BC004101450840013F
:1007A800BB00410144084001BA004101430840012F
:1007B800B9009F3150278031400138084101C600F7
:1007C800400137084101C500400136084101C40015
:1007D800400135084101C3004130F3002030F200E8
:1007E8000030F1000030F0005808F7005708F60014
:1007F8005608F5005508F400963121268031730813
:100808004101D8007208D7007108D6007008D500D9
:100818000130CB070030CC3D112C4C08803A400108
:10082800CA0041013508803A40014A02031D1F2CC5
:10083800410134084B02031C222C232C622B242C4C
:1008480040304001A300A030A2000030A1000030D9
:10085800A000410158084001A70041015708400184
:10086800A600410156084001A50041015508400174
:10087800A40088319D208031400123084101CA002D
:10088800400122084101C900400121084101C80076
:10089800400120084101C70046084001B800410155
:1008A80045084001B700410144084001B600410134
:1008B80043084001B50041014A084001BC0041011C
:1008C80049084001BB00410148084001BA00410104
:1008D80047084001B90093319A2380310318752CD9
:1008E800762C802C00304101CA000030C90000304D
:1008F800C8000030C700A72C41014608F30045088E
:10090800F2004408F1004308F0004A08F7004908DB
:10091800F6004808F5004708F40091316E2180314F
:10092800031C972C982CA72C410138189C2C9D2C23
:10093800A72C0030CA000030C9000030C8000030C1
:10094800C700A72CA72C41014A08F3004908F20068
:100958004808F1004708F0005008F7004F08F60073
:100968004E08F5004D08F4008B31082380317308D8
:100978004101C6007208C5007108C4007008C300B0
:100988002308D8002208D7002108D6002008D5005F
:1009980065303F060319D12CD22CD72C5208B7004A
:1009A8005108B600D92CB601B701B201B301B001A4
:1009B800B101CB01CC010C2E41015808F3005708B6
:1009C800F2005608F1005508F0004608F7004508FF
:1009D800F6004408F5004308F400963121268031DA
:1009E80073084001B0007208AF007108AE007008CB
:1009F800AD00953132258031400130084101CA00EF
:100A080040012F084101C90040012E084101C800DA
:100A180040012D084101C7004A08F3004908F200C7
:100A28004808F1004708F0008731632780317108D2
:100A38004101B9007008B80040016E1A242D252D17
:100A48003B2D410138083904031D2B2D2C2D3B2D3E
:100A580067304206031D312D322D3B2DB71F352D32
:100A6800362D3B2D0130B0070030B13D992D4101A5
:100A780032083304031D412D422D7B2DB71F452D10
:100A8800462D7B2D2E304001CA0041015308A03E5F
:100A980086000130870040014A0881000130410189
:100AA800D3070030D43DFF30C007FF30C13D0130CF
:100AB800B2000030B3007B2D7B2D30304001CA00DE
:100AC80041015308A03E86000130870040014A08D2
:100AD800810001304101D3070030D43DFF30C00709
:100AE800FF30C13DFF30B007FF30B13D7B2D3008EE
:100AF8003104031D802D812D612D822D3808303E53
:100B08004001CA0041015308A03E86000130870019
:100B180040014A08810001304101D3070030D43D2B
:100B2800FF30C007FF30C13D992D4A084001A7009A
:100B3800410149084001A600410148084001A500BB
:100B4800410147084001A400410158084001A300A1
:100B5800410157084001A200410156084001A10087
:100B6800410155084001A00088319D208031400195
:100B78002308B8002208B7002108B6002008B500ED
:100B8800410146084001BC00410145084001BB0045
:100B9800410144084001BA00410143084001B9003D
:100BA8009F3150278031400138084101C60040017B
:100BB80037084101C500400136084101C400400121
:100BC80035084101C3004130F3002030F200003005
:100BD800F1000030F0005808F7005708F6005608F2
:100BE800F5005508F400963121268031730841013B
:100BF800D8007208D7007108D6007008D500FF30F9
:100C0800B607FF30B73D0130CB070030CC3D0C2E86
:100C18004C08803A4001CA0041013508803A400139
:100C28004A02031D1A2E410134084B0203181D2ED7
:100C38001E2E302E41015408803A4001CA008030EF
:100C48004A02031D2A2E4B3041015302031C2D2E4C
:100C58002E2EE02C302E302E410132083304031D95
:100C6800362E372E4D2E40016E1E3B2E3C2E4D2E1D
:100C78002E30CA0041015308A03E8600013087008B
:100C880040014A08810001304101D3070030D43DBA
:100C98004D2E41015308A03E860001308700810196
:100CA80065303F06031D592E5A2E4A2F4F30CB0070
:100CB8000030CC004B08A03E86000130870081013F
:100CC800BA01BB01D21F692E6A2E742E0130BA00F8
:100CD8000030BB00D109D209D10A0319D20A742EF7
:100CE8000230BD000030BE00B02EFF304101CB07FE
:100CF800FF30CC3D0A30F0000030F1005208F3001C
:100D08005108F20092316D2280317008303E400166
:100D1800CA0041014B08A03E86000130870040010F
:100D28004A0881000A30F0000030F1004101520801
:100D3800F3005108F20093313123803171084101E9
:100D4800D2007008D100FF30BD07FF30BE3DFF3034
:100D5800C007FF30C13DB02E51085204031DB52E07
:100D6800B62E792E3E08803A4001CA0080304A02E9
:100D7800031DC12E013041013D020318C42EC52EAA
:100D8800792EC62EFF304101CB07FF30CC3D3A0803
:100D98003B04031DD02ED12ED62E2B30AA000030B6
:100DA800AB00DB2E2D30AA000030AB00DB2E2A086A
:100DB8004001CA0041014B08A03E8600013087006F
:100DC80040014A088100FF304101C007FF30C13DA2
:100DD800FF30CB07FF30CC3D40014908BF3ECA0079
:100DE800FF3003180030CB0000304B021A300319D3
:100DF8004A02031C002F022F0130032F0030CC00C1
:100E0800CD014C084101AE0040014D084101AF0041
:100E18001E2F40014908CA00CB014A08F0004B08C0
:100E2800F10088310120803171084101AF0070085C
:100E3800AE001E2F2E082F04031D232F242F292F29
:100E48006530AC000030AD002E2F4530AC000030CE
:100E5800AD002E2F2C084001CA0041014B08A03ECE
:100E680086000130870040014A088100FF304101B7
:100E7800C007FF30C13D4B08A03EF0000130F10033
:100E88005308A03E9F31B62780314A2FA030400139
:100E9800CA004A08A400410141084001A6004101D6
:100EA80040084001A50041013C08923113228031DD
:100EB80040012508C6002408C500622F08007008F4
:100EC800F4007108F5007208F6007308F7000310C3
:100ED800760D770DF8007808FA007A08031D752F4B
:100EE800762F802F0030F3000030F2000030F10040
:100EF8000030F000F62FF62F7008F4007108F500A6
:100F08007208F6007308F7001F30F736F60CF50C78
:100F1800F40C890B892F7408F8007808F900F21787
:100F2800FF30F005FF30F105FF30F2050030F30522
:100F38009630FA02FA1FA12FA22FC52F7A08803AFD
:100F4800973E0318A82FA92FB42F0030F3000030C4
:100F5800F2000030F1000030F000F62FF62FB42F29
:100F68000130F336F20CF10CF00C890BB52F01307F
:100F7800F4007408FA07031DC22FC32FB42FE62FFD
:100F8800E62F20307A02031CCA2FCB2FDF2F003028
:100F9800F3000030F2000030F1000030F000F62FCE
:100FA800F62FDF2F0130F035F10DF20DF30D890B1F
:100FB800D72F0130FA027A08031DE32FE42FD62F2A
:100FC800E62FE62F79080319EA2FEB2FF62FF00901
:100FD800F109F209F309F00A0319F10A0319F20AEF
:100FE8000319F30A0800640080010131890BF82F06
:040FF80000340800B9
:101002007008BF3EF200FF30713DF3000030730202
:101012001A3003197202031C0F28112801301228FA
:101022000030F400F5017408F0007508F100192889
:101032000800420133084001A50042013208400184
:10104200A400420131084001A300420130084001DE
:10105200A2007308A5007208A4007108A30070081A
:10106200A2002208F4002308F5002408F60025084F
:10107200F7001730F736F60CF50CF40C890B3B2809
:10108200FF307405A00000307505A100200821047E
:10109200031D4C284D2870282208F4002308F5006F
:1010A2002408F6002508F7000130F435F50DF60D99
:1010B200F70D890B56287708760475047404031D0E
:1010C2006328642869280230F0000030F1009C286F
:1010D2000330F0000030F1009C289C289C28200A54
:1010E2002104031D7528762897282208F400230876
:1010F200F5002408F6002508F7000930F435F50D4F
:10110200F60DF70D890B7F287708760475047404B1
:1011120003198C288E2801308F280030F800F9013D
:101122007808F0007908F1009C289C280430F0002F
:101132000030F1009C280800400123088039F900A2
:101142007908A8002335F9007908AE00A21FAA2861
:10115200AB28AD282E14AD282E080319B128B228C9
:10116200C2282E0A031DB628B728C0280030A300C3
:101172000030A2000030A1000030A000C028A21759
:10118200CB280030A3000030A2000030A1000030C4
:10119200A000CB2827088039F9007908A80627354E
:1011A200F9007908AD00A61FD728D828DA282D140F
:1011B200DA282D080319DE28DF28EF282D0A031D5F
:1011C200E328E428ED280030A7000030A600003014
:1011D200A5000030A400ED28A617F8280030A700CB
:1011E2000030A6000030A5000030A400F8282D0829
:1011F2000319FC28FD2803292E08031D01290229B1
:101202000D2903290030A3000030A2000030A10004
:101212000030A000072B072B2008F9007908F00006
:1012220026089F31DA27883171084001B40070081E
:10123200B3003308F900FA01FB01FC017C08AC00A1
:101242007B08AB007A08AA007908A9003408F900E3
:10125200FA01FB01FC017C08B2007B08B1007A08AC
:10126200B0007908AF002108F9007908F0002508DC
:101272009F31DA27883171084001B4007008B30049
:101282003308F900FA01FB01FC017908A9077A0881
:10129200AA3D7B08AB3D7C08AC3D3408F900FA015D
:1012A200FB01FC017908AF077A08B03D7B08B13D2C
:1012B2007C08B23D2208F9007908F00024089F3129
:1012C200DA27883171084001B4007008B30033088E
:1012D200F900FA01FB01FC017908A9077A08AA3D85
:1012E2007B08AB3D7C08AC3D3408F900FA01FB01F8
:1012F200FC017908AF077A08B03D7B08B13D7C0854
:10130200B23D0830A935AA0DAB0DAC0D890B83296E
:101312002108F9007908F00024089F31DA27883182
:1013220071084001B4007008B3003308A9073408FB
:10133200AA3D0030AB3DAC3D2008F9007908F00031
:1013420025089F31DA27883171084001B4007008FE
:10135200B3003308A9073408AA3D0030AB3DAC3DC9
:101362000830A935AA0DAB0DAC0D890BB2292008A6
:10137200F9007908F00024089F31DA2788317108D2
:101382004001B4007008B3003308A9073408AA3D2D
:101392000030AB3DAC3D2108F9007908F000260889
:1013A2009F31DA27883171084001B4007008B30018
:1013B2003308AF073408B03D0030B13DB23D2208DA
:1013C200F9007908F00025089F31DA278831710881
:1013D2004001B4007008B3003308AF073408B03DD1
:1013E2000030B13DB23D2208F9007908F00026082C
:1013F2009F31DA27883171084001B4007008B300C8
:101402003308F9003408FA00FB01FC010830F93511
:10141200FA0DFB0DFC0D890B082A7908AF077A0833
:10142200B03D7B08B13D7C08B23D2908F9002A088D
:10143200FA002B08FB002C08FC001830FC36FB0CD1
:10144200FA0CF90C890B1F2A7908AF077A08B03D0C
:101452007B08B13D7C08B23D0830A935AA0DAB0D21
:10146200AC0D890B2E2A2E082D07F900FA01FA0D70
:101472007908823EB300FF307A3DB400592A013028
:10148200AF35B00DB10DB20D890B412AAC1F4A2AFE
:101492004B2A4D2A2F144D2A0130A935AA0DAB0D26
:1014A200AC0D890B4E2AFF30B307FF30B43D592AE9
:1014B200B11F5C2A5D2A402A5E2AAD01AC1F622A56
:1014C200632A832AFF302905F900FF302A05FA0032
:1014D200FF302B05FB007F302C05FC007C087B04D1
:1014E2007A0479040319762A772A7A2AAD01AD0A99
:1014F200832A2F1C7D2A7E2A832AAD01AD0A832AE4
:10150200832A832A2D080319872A882AB22A0130BE
:10151200AF070030B03D0030B13D0030B23D321C6B
:10152200932A942AB22A2F08F9003008FA003108C7
:10153200FB003208FC000130FD00FC37FB0CFA0C0A
:10154200F90CFD0B9E2A7C08B2007B08B1007A08D8
:10155200B0007908AF000130B3070030B43DB22AC1
:10156200B22A3408803AF90080307902031DBB2A7E
:10157200FF303302031CBE2ABF2AC92A7F30400132
:10158200B2008030B1000030B0000030AF00FA2A63
:1015920040013408803AF90080307902031DD32AD1
:1015A200013033020318D62AD72AE22A003040013A
:1015B200B2000030B1000030B0000030AF00A8012E
:1015C200FA2A40013308F9007908AE00FF30AF056E
:1015D200FF30B0057F30B1050030B2052E1CF22A73
:1015E200F32AF52AB117F52A2E36F9007908B20046
:1015F200FA2A2808F9007908B2043208A30031084F
:10160200A2003008A1002F08A000072B08007308D1
:1016120080394001A0002008F8007335A00020089E
:10162200FA00F21F152B162B182B7A14182B7A0896
:1016320003191C2B1D2B2E2B7A0A031D212B222B67
:101642002B2B0030F3000030F2000030F1000030AC
:10165200F0002B2BF217F301372B0030F300003090
:10166200F2000030F1000030F000372B77088039AB
:10167200A0002008F900790878060319412B422BB3
:10168200442B7817442B7735A0002008F900F61F69
:101692004B2B4C2B4E2B79144E2B79080319522BC2
:1016A200532B642B790A031D572B582B612B0030C7
:1016B200F7000030F6000030F5000030F400612B36
:1016C200F617F7016C2B0030F7000030F6000030FF
:1016D200F5000030F4007A0879020318712B722B9E
:1016E200B82B781F752B762B7B2B8030A00020081F
:1016F200F8067B2B7A08A0002008FB007908A000DE
:101702002008FA007B08A0002008F9007008A00059
:101712002008FB007408A0002008F0007B08A0004D
:101722002008F4007108A0002008FB007508A00042
:101732002008F1007B08A0002008F5007208A00034
:101742002008FB007608A0002008F2007B08A00019
:101752002008F6007308A0002008FB007708A0000C
:101762002008F3007B08A0002008F700B82BFB013B
:101772007A08A000A101A009A109A00A0319A10ADF
:1017820079082007A20021080318210AA3002308D0
:10179200803AA40080302402031DD12B1A30220289
:1017A200031CD42BD52B132C730872047104700400
:1017B200031DDC2BDE2B0130DF2B00304001A000AB
:1017C2002008FB000030F3000030F2000030F1008E
:1017D2000030F0007908A0002008FA001A2C132C1F
:1017E2007B1CF42BF52BFC2B7B3601384001A0002F
:1017F2002008FB00FF2B0310FB0CFF2B701C022C9C
:10180200032C052CFB17052C01304001A000F337F7
:10181200F20CF10CF00CA00B082C0130A0002008F7
:10182200FA07132C79087A02031C182C192CF12BB5
:101832001A2C781B1D2C1E2C5C2C7A08031D222CC2
:10184200232C2D2C0030F3000030F2000030F10088
:101852000030F000802D802D7408F0077508F13DEE
:101862007608F23D7708F33D731C382C392C042D91
:101872007B1C3C2C3D2C442C7B3601384001A000C3
:101882002008FB00472C0310FB0C472C701C4A2C31
:101892004B2C4D2CFB174D2C01304001A000F3378F
:1018A200F20CF10CF00CA00B502C0130A00020081F
:1018B200FA07042D042D7308803A4001A00077082E
:1018C200803A2002031D6F2C76087202031D6F2CD2
:1018D20075087102031D6F2C740870020318722CB4
:1018E200732CBF2CFF30A000FF30A100FF30A200FC
:1018F200FF30A3007408A4007508A5007608A600AE
:101902007708A7007009A8007109A9007209AA0046
:101912007309AB00A80A0319A90A0319AA0A031931
:10192200AB0A2808A4072908A53D2A08A63D2B08CA
:10193200A73D2408A0072508A13D2608A23D2708A7
:10194200A33D2308F3002208F2002108F100200839
:10195200F0008030A0002008F806FB09FB0A7B0893
:10196200031DB42CB52CC72C0130F0070030F13D1B
:101972000030F23D0030F33DC72CC72C7408F00252
:101982007508F13B7608F23B7708F33B7308720463
:1019920071047004031DCE2CCF2CFE2C7B08031D7A
:1019A200D32CD42CFE2C0030F3000030F200003097
:1019B200F1000030F000802D802DFE2C0130F0353A
:1019C200F10DF20DF30D890BE02CFB1FE92CEA2C33
:1019D200EB2C70147B1CEE2CEF2CF22C0314FB0D61
:1019E200F52C0310FB0DF52C7A080319F92CFA2CAF
:1019F200FE2C0130FA02FE2CFE2CF21F012D022DCC
:101A0200DF2C042D042DF901FB1F082D092D1B2DA0
:101A12007B087F3903190E2D0F2D122DF901F90ABA
:101A22001B2D701C152D162D1B2DF901F90A1B2DCE
:101A32001B2D1B2D790803191F2D202D502D013030
:101A4200F0070030F13D0030F23D0030F33D731CF1
:101A52002B2D2C2D502D70084001A0007108A100E3
:101A62007208A2007308A3000130A400A337A20CDD
:101A7200A10CA00CA40B372D2308F3002208F200BE
:101A82002108F1002008F0007A0A0319492D4A2D95
:101A9200502D0130A0002008FA07502D502D7A0A4F
:101AA2000319542D552D5B2D7A08031D592D5A2DDE
:101AB2006B2D5B2D0030F3000030F2000030F1009E
:101AC2000030F0007A08031D672D682D6B2DF80198
:101AD2006B2D6B2D7A1C6E2D6F2D712DF217762DBD
:101AE2007F304001A0002008F2057A364001A000B4
:101AF2002008F300F81F7E2D7F2D802DF31708009C
:101B02004001E2004E0886008701403FD000413F7D
:101B1200D10050088400510885001200253A031DA7
:101B2200932D942DD82F4E0886008701013081070E
:101B320041310318810A4201BA01BB014001EE01A1
:101B4200EF01FF304201BC00FF30BD0040014E08F2
:101B520086008701403FD000413FD10050088400F9
:101B62005108850012002E3A031DB82DB92D502EB2
:101B72004201BC01BD0140014E08860087010130CF
:101B8200810741310318810A4E0886008701403FD0
:101B9200D000413FD1005008840051088500120056
:101BA2002A3A031DD52DD62DEC2D4E08860087012D
:101BB2000130810741310318810A4F0886008701ED
:101BC20001088400850102308107003F4201BC0008
:101BD200013FBD00502E40014E0886008701403F64
:101BE200F600413FF700943148248D3177084201D5
:101BF200BD007608BC00072E40014E088600870112
:101C02000130810741310318810A072E40014E0835
:101C120086008701403FD000413FD1005008840038
:101C2200510885000008D03ED200FF300318003072
:101C3200D300003053020A3003195202031C222E31
:101C4200242E0130252E0030D400D5015408D600B0
:101C52005508D700472E4E0886008701403FD00026
:101C6200413FD10050088400510885000008D2008D
:101C7200D3015208F0005308F1009F3118278D312B
:101C820071084001D7007008D600472E5608570445
:101C9200031D4C2E4D2EFD2D502E502E502E400148
:101CA2004E0886008701403FD000413FD1005008D6
:101CB2008400510885000008D200D3015208F600C2
:101CC2005308F700903163208D3176084001D4002B
:101CD2005408DE005E0803196F2E702EB12E4E08D6
:101CE20086008701403FD000413FD10001305007BC
:101CF200840051080318510A85000008D200D3015C
:101D02005208F6005308F700903163208D317608AF
:101D12004001D4005408DF005F080319912E922E6F
:101D2200B12E4E0886008701403FD000413FD100CE
:101D320002305007840051080318510A8500000838
:101D4200D200D3015208F6005308F7009031632005
:101D52008D3176084001D4005408E000B12EB12E36
:101D620066305E06031DB62EB72EF52E4E0886008F
:101D72008701403FD000413FD10050088400510804
:101D820085000008D2005208E1004E088600870153
:101D92000130810741310318810A4F08860087010B
:101DA20001088400850104308107003FDA00013F09
:101DB200DB00023FDC00033FDD005D08C8005C0879
:101DC200C7005B08C6005A08C5006108D000500869
:101DD200C9006208803121208D3140014608CF00C0
:101DE2004508CE00FF2FFF2F2030F0009830F10081
:101DF2000230F2000030F3005E309231CA228D319F
:101E020070087104031D062F072FA02F40014E08F2
:101E120086008701403FD000413FD100013050078A
:101E2200840051080318510A85000008D2005208A4
:101E3200E1004E0886008701403FD000413FD100BB
:101E420050088400510885000008BF3ED200FF30D0
:101E520003180030D300003053021A300319520223
:101E6200031C342F362F0130372F0030D400D50118
:101E72005408D8005508D900592F4E08860087010A
:101E8200403FD000413FD1005008840051088500F6
:101E92000008D200D3015208F0005308F100883143
:101EA20001208D3171084001D9007008D800592FE6
:101EB2005808590403195E2F5F2F702F4F088600B0
:101EC200870101088400850104308107003FDA00A0
:101ED200013FDB00023FDC00033FDD00812F4F08A2
:101EE2008600870101088400850104308107003FD4
:101EF200DA00013FDB00023FDC00033FDD00812FFF
:101F02004E08860087010230810741310318810A99
:101F12005D08C8005C08C7005B08C6005A08C50017
:101F22006108D0005008C9006208803121208D313B
:101F320040014608CF004508CE00FF2FFF2F400189
:101F42004E0886008701403FD000413FD100500833
:101F52008400510885001200253A031DB12FB22FCB
:101F6200CC2F4E08860087010130810741310318CA
:101F7200810A2530F0000030F1006208D0005008DC
:101F8200F2009131BE218D3101304001CE0000308E
:101F9200CF00FF2FFF2F4E088600870101308107F7
:101FA20041310318810ACE01CF01FF2FFF2F4E08C6
:101FB20086008701403FD000413FD1005008840095
:101FC200510885000008D200D3015208F0005308DE
:101FD200F1006208D4005408F2009131BE218D3123
:101FE20040014E0886008701013081074131031804
:0E1FF200810A0130CE000030CF00FF2F080022
:1020020073087204710470040319082809280C2843
:102012008030F3060C280D280800F7007708F2003C
:102022007208F60019280130F2007208F707192821
:1020320077088600013087000108031D2128222825
:10204200142823287608F2000130F300F209F3097C
:10205200F20A0319F30A7708F4000130F500720856
:102062007407F0007308753DF1003728080040013D
:10207200A300A101A20151282008F900FA01790860
:10208200F0007A08F1007808FB007B08F200913139
:10209200BE21903101304001A1070030A23D5128FC
:1020A20021082307F900790886000130870001081A
:1020B200FA007A08A0002008031D602861283D2844
:1020C200622808007608BF3EF800FF30773DF9002D
:1020D200003079021A3003197802031C7128732820
:1020E200013074280030FA00FB017A08FC007B08FA
:1020F200FD0087287708F1007608F000883101207A
:1021020090317108FD007008FC0087287C087D046E
:1021120003198C288D28952820307604F60000308B
:102122007704F7009528952808004101E900DB3083
:102132004001EB006B084101EA0069084001EB0035
:102142006B084101EB00EC01ED01EE01EF015A08D1
:102152004001E400410159084001E300EA30EB008C
:102162006B08E500EB309031FF20903140016408AC
:102172004101E800400163084101E7006C0869077A
:102182004001EB006B088600013087008101C928FD
:10219200080002305101930060308D00D0280F1EDC
:1021A200D328D428D028D5280F307E01A400B80126
:1021B200CE01400192012030940080304B019E00FC
:1021C20047309F00B2309C00333044018E00013012
:1021D2009100CF308D002B308C0030304E019600B4
:1021E2002030990001309A00083042019F001930D6
:1021F2009B0090309D0020309E0008004001E800C6
:102202006408EA006308E9004201B801B9011F2924
:1022120069304001E6006608CE006508E7006708FD
:10222200CF0068088D318125903140014E0842016E
:10223200B80740014F084201B93D1F294001690812
:1022420084006A0885001200031D2829292909290A
:102252002A29420139084001E400420138084001BC
:10226200E300332908009031CA2091310030410146
:10227200D9009830DA004130DE00BC30DD00003099
:10228200DC000030DB004230E2003130E10033306C
:10229200E0003330DF00C030E6004C30E500CC30E7
:1022A200E400CD30E300403090319620913164005B
:1022B20040309F313127913103304001ED008A30A7
:1022C200EC005530890B6329EC0B6329ED0B632974
:1022D2000032582958298031082800307005F8004A
:1022E20000307105F90080307205FA007F30730505
:1022F200FB007B087A0479047804031D8129822972
:102302008A290030F3000030F2000030F100003082
:10231200F00000307405F80000307505F9008030D7
:102322007605FA007F307705FB007B087A04790492
:102332007804031D9D299E29A6290030F70000304C
:10234200F6000030F5000030F40077087306031D34
:10235200B42976087206031DB42975087106031D97
:10236200B429740870060319B729B829BA290310C9
:10237200BD290314BD29BD29080072080319C22909
:10238200C329C9297208031DC729C829CE29C92909
:1023920070088731FD279131122A7208033E8600A8
:1023A2008701160001040319D729D829F6297208D2
:1023B200033E86008701403FF300413FF400720A6A
:1023C20086008701403FF500413FF6007608803ADB
:1023D200F7007408803A7702031DF1297308750229
:1023E2000318F429F529122AF6297008F300720855
:1023F20086008701720A8400850100080107F40043
:10240200740886000130870073088100720A860012
:1024120087010130810741310318810A122A122AE9
:10242200122A08004001AB006E1C182A192A222A1F
:102432002B08FC007C08F8002408903138209231E7
:10244200222A4001A61B262A272A2C2A2608AA006D
:102452002508A9002E2AA901AA01A701A801432A39
:102462002030F0000030F10040012B08FC007C0815
:10247200F2009131BE21923101304001A7070030B4
:10248200A83D432A2808803AFC002A08803A7C02A8
:10249200031D4D2A29082702031C502A512A312ADA
:1024A20040016E18552A562A5F2A2B08FC007C0828
:1024B200F80024089031382092315F2A4001240824
:1024C20090310E209231400129087007A4002A0899
:1024D200713DA5006C2A0800F601F31F712A722AC9
:1024E2007A2AF209F309F20A0319F30AF601F60A43
:1024F2007A2AF11F7D2A7E2A842AF009F109F00A3C
:102502000319F10A842A700871040319892A8A2A94
:10251200B92AF501F50A972A0130F035F10D890B38
:102522008E2A0130F4007408F507972AF11F9A2ABF
:102532009B2A8D2A9D2A9D2A71087302031DA32AB4
:1025420070087202031CA62AA72AAC2A7008F2029B
:102552007108F33BAC2A0130F136F00C890BAD2A3D
:102562000130F502031DB62AB72A9D2AB92AB92AD3
:1025720076080319BD2ABE2AC42AF209F309F20A0F
:102582000319F30AC42A7308F1007208F000C92A79
:102592000800F6007608F4007408F9007108F800E3
:1025A2007008F7000130F2020030F33B720A031D9B
:1025B200DE2A730A031DDE2ADF2AF12AF001F10165
:1025C200302B302BF12A0130F4007408F907013066
:1025D200F7070030F83D0130F2020030F33BF12AF8
:1025E20079088600870101080319F82AF92A192BAC
:1025F200770884007808850012000319012B022B4A
:10260200192B720873040319072B082B192B77084F
:102612008400780885000008F400790886008701A4
:10262200010874060319162B172BE42A192B192BF0
:1026320077088400780885000008F400F501F409A1
:10264200F509F40A0319F50A7908860087010108D9
:102652007407F00075080318750AF100302B0800A2
:10266200F601F11F352B362B3E2BF009F109F00A4A
:102672000319F10AF601F60A3E2BF31F412B422BF6
:102682004C2BF209F309F20A0319F30A0130F400A0
:102692007408F6064C2BF701F8017008710403194F
:1026A200532B542B892BF501F50A612B0130F035A0
:1026B200F10D890B582B0130F4007408F507612BDA
:1026C200F11F642B652B572B672B672B0130F735D6
:1026D200F80D890B682B71087302031D722B7008A9
:1026E2007202031C752B762B7C2B7008F202710888
:1026F200F33B77147C2B0130F136F00C890B7D2BE8
:102702000130F502031D862B872B672B892B892B22
:10271200760803198D2B8E2B942BF709F809F70AEB
:102722000319F80A942B7808F1007708F000992B26
:102732000800003040013505BD0000303605BE00FE
:1027420080303705BF007F303805C00040083F04A5
:102752003E043D04031DAE2BAF2BB72B0030B80057
:102762000030B7000030B6000030B5000030390547
:10277200BD0000303A05BE0080303B05BF007F300F
:102782003C05C00040083F043E043D04031DCA2B23
:10279200CB2BD42B0030BC000030BB000030BA0081
:1027A2000030B900D42BB81FD72BD82B002C003007
:1027B200BD000030BE000030BF008030C0003509CF
:1027C200C1003609C2003709C3003809C400C10A72
:1027D2000319C20A0319C30A0319C40A4108BD072F
:1027E2004208BE3D4308BF3D4408C03D4008B80012
:1027F2003F08B7003E08B6003D08B500002CBC1FDC
:10280200032C042C2C2C0030BD000030BE00003004
:10281200BF008030C0003909C1003A09C2003B093B
:10282200C3003C09C400C10A0319C20A0319C30A3E
:102832000319C40A4108BD074208BE3D4308BF3D13
:102842004408C03D4008BC003F08BB003E08BA0037
:102852003D08B9002C2C8030B8068030BC063C08FC
:102862003802031D3E2C3B083702031D3E2C3A085A
:102872003602031D3E2C390835020318412C422C26
:10288200442C0310472C0314472C472C080040010A
:10289200A701A801A001A101532C0130F6070030C5
:1028A200F73D532CA601A60A760884007708850016
:1028B2001200203A03195E2C5F2C752C76088400D6
:1028C200770885000008F73EF800FF300318003053
:1028D200F90000307902053003197802031C722CCA
:1028E200732C752CA601752C2608F800F9017808BE
:1028F200A2007908A300912C76088400770885004D
:102902000008F800F9017808F0007908F1009F3119
:102912009327943171084001A3007008A200912C02
:1029220022082304031D962C972C4E2CA32CA32C97
:1029320001304001A0000030A1000130F607003054
:10294200F73DE02C76088400770885000008F8003F
:10295200F9017908003A0319AF2CE02C78082B3AD8
:1029620003199E2C063A0319992CE02CE02C7608C8
:102972008400770885000008D03EF800FF30031875
:102982000030F900F809F909F80A0319F90A4001B7
:102992002808F1002708F0000A30F2000030F300A6
:1029A2009F3171279431780870074001A700790898
:1029B200713DA8000130F6070030F73DE02C7608A3
:1029C2008400770885000008D03EF800FF30031825
:1029D2000030F900003079020A3003197802031C32
:1029E200F32CF52C0130F62C0030FA00FB017A08AA
:1029F2004001A4007B08A500122D76088400770808
:102A020085000008F800F9017808F0007908F10063
:102A12009F311827943171084001A5007008A40065
:102A2200122D24082504031D172D182DB82C192D3D
:102A320020082104031D1E2D1F2D2B2D2709F80010
:102A42002809F900F80A0319F90A7808F600790842
:102A5200F700312D2808F7002708F600312D312D17
:102A6200080042012F084001C00042012E08400127
:102A7200BF0042012D084001BE0042012C08400166
:102A8200BD003008C0002F08BF002E08BE002D0870
:102A9200BD003D08B1003E08B2003F08B300400847
:102AA200B4001730B436B30CB20CB10C890B532DF1
:102AB200FF303105B50000303205B6003508813EE1
:102AC200BB00FF30363DBC003C08803AB10080308C
:102AD2003102031D6E2D17303B02031C712D722D26
:102AE200732D202E4001BC1B772D782DD62DFF3063
:102AF200B100FF30B2007F30B3000030B4003B0AB7
:102B0200862DB437B30CB20CB10C890B822D34086C
:102B1200BA003308B9003208B8003108B7003D08DE
:102B22003705B1003E083805B2003F083905B30049
:102B320040083A05B4003408330432043104031D5A
:102B4200A32DA42DA52D202E3D08B1003E08B200D4
:102B52003F08B3004008B4001F30B436B30CB20CC7
:102B6200B10C890BAE2D340833043204310403193D
:102B7200BB2DBC2DC52D3708BD073808BE3D390811
:102B8200BF3D3A08C03DC52D3709B1003809B20032
:102B92003909B3003A09B4003108BD053208BE054F
:102BA2003308BF053408C005172E3D08B1003E08A2
:102BB200B2003F08B3004008B4001F30B436B30C73
:102BC200B20CB10C890BDF2D34083304320431040A
:102BD200031DEC2DED2DF62D0030C0000030BF009E
:102BE2000030BE000030BD00172E3D08B1003E0887
:102BF200B2003F08B3004008B4000130B135B20D55
:102C0200B30DB40D890BFF2D3408330432043104A3
:102C120003190C2E0D2E172EBF30C0008030BF00BE
:102C22000030BE000030BD00172E172E4008B00045
:102C32003F08AF003E08AE003D08AD00202E080060
:102C420077088039F80078084001A4007735F80049
:102C52007808AB00F61F2E2E2F2E312E2B14312E7C
:102C62002B080319352E362E472E2B0A031D3A2E1A
:102C72003B2E442E0030F7000030F6000030F50005
:102C82000030F400442EF617F701502E0030F70002
:102C92000030F6000030F5000030F400502E7308CA
:102CA2008039F8007808A4067335F8007808AC007B
:102CB200F21F5C2E5D2E5F2E2C145F2E2C08031942
:102CC200632E642E752E2C0A031D682E692E722E19
:102CD2000030F3000030F2000030F1000030F0006C
:102CE200722EF217F3017D2E0030F3000030F20055
:102CF2000030F1000030F0007308720471047004B7
:102D0200031D842E852E9F2E0030F7000030F60022
:102D12000030F5000030F4008030F6047F30F70414
:102D22002408F8007808F7047708F3007608F20020
:102D32007508F1007408F000FF2FFF2F2B08031D08
:102D4200A32EA42EB62E0030F7000030F60000307D
:102D5200F5000030F4007708F3007608F2007508F9
:102D6200F1007408F000FF2FFF2F2C08F800F90182
:102D7200F809F909F80A0319F90A2B087807FA0081
:102D820079080318790AFB007A087F3EA500003013
:102D92007B3DA6007708A3007608A2007508A10073
:102DA2007408A0000030F7000030F6000030F50093
:102DB2000030F4000030AA000030A9000030A80062
:102DC2000030A700AC01272F2C080319E92EEA2EA8
:102DD200062F0130A035A10DA20DA30D890BEB2EFC
:102DE2000130F435F50DF60DF70D890BF22EAA1F01
:102DF200FB2EFC2EFE2E7414FE2E0130A735A80DDC
:102E0200A90DAA0D890BFF2E062F73082302031D9D
:102E1200142F72082202031D142F71082102031DB0
:102E2200142F70082002031C172F182F222F2A1785
:102E32007008A0027108A13B7208A23B7308A33B71
:102E4200222F0130F8007808AC07272F1A302C0205
:102E5200031C2C2F2D2FE52E2E2F230822042104B4
:102E620020040319352F362F522F2714522F522F99
:102E72000130F435F50DF60DF70D890B3A2FAA1F27
:102E8200432F442F462F7414462F0130A735A80D27
:102E9200A90DAA0D890B472FFF30A507FF30A63DCC
:102EA200522FF61F552F562F392F572FAC01AA1F1D
:102EB2005B2F5C2F7C2FFF302705F800FF302805A1
:102EC200F900FF302905FA007F302A05FB007B0854
:102ED2007A047904780403196F2F702F732FAC01D1
:102EE200AC0A7C2F741C762F772F7C2FAC01AC0A96
:102EF2007C2F7C2F7C2F2C080319802F812FAB2F46
:102F02000130F4070030F53D0030F63D0030F73D6A
:102F1200771C8C2F8D2FAB2F7408F8007508F900E1
:102F22007608FA007708FB000130FC00FB37FA0C48
:102F3200F90CF80CFC0B972F7B08F7007A08F600C7
:102F42007908F5007808F4000130A5070030A63DA5
:102F5200AB2FAB2F2608803AF80080307802031D91
:102F6200B42FFF302502031CB72FB82FC52FFF3017
:102F72004001A5000030A6000030F7000030F60046
:102F82000030F5000030F40040012608803AF800D5
:102F920080307802031DCF2F013025020318D22F73
:102FA200D32FDF2F4001A501A6010030F70000302A
:102FB200F6000030F5000030F400A40140012508BD
:102FC200F8007808AB002B1CE72FE82FEA2FF61742
:102FD200EE2F7F30F8007808F6052B36F8007808D7
:102FE200F7002408F8007808F7047708F300760859
:102FF200F2007508F1007408F000FF2F0800253474
:103002002E34323466342C3425342E343234663441
:103012002C3425342E34323466340A3400344934A4
:103022004E34463400344E3441344E340034693424
:103032006E34663400346E3461346E3400346C3471
:0430420066340034BC
:103E30007008D03EF200FF30713DF3000030730295
:103E40000A3003197202031C262F282F0130292F54
:103E50000030F400F5017408F0007508F100302F0F
:103E60000800F10071088600013087000108420156
:103E70009A000130F0007008F10700003F2F4E015A
:103E80000F1E432F442F3F2F452F7108860001300E
:103E900087000108031D4D2F4E2F322F4F2F080092
:103EA00080304001B8063C08F3003B08F2003A08B5
:103EB000F1003908F0003808F7003708F600360836
:103EC000F5003508F4008B3108239F317308400159
:103ED000B8007208B7007108B6007008B500702FFE
:103EE0000800F401F501742F701C772F782F7C2FB8
:103EF0007208F4077308F53D0130F235F30D890BB4
:103F00007D2F0130F136F00C890B822F700871047F
:103F1000031D8B2F8C2F742F8D2F7508F1007408C3
:103F2000F000922F0800F401F40A203070067104AA
:103F300003199B2F9C2FAD2F7008F73EF200FF3026
:103F4000713DF30000307302053003197202031C47
:103F5000AA2FAB2FAD2FF401AD2F7408F200F3019F
:103F60007208F0007308F100B52F0800F70071081F
:103F7000F5007008F4007708F2007208F600C12F0F
:103F8000C12F7608860001308700F60A7508F30015
:103F90007408F200F40A0319F50A72088400730821
:103FA00085000008C03F8908031DD72FD82FC12FD7
:103FB000D92F0800F800F401F5017008F200F301B0
:103FC0007208F6007308F700E52F781CE82FE92F38
:103FD000ED2F7608F4077708F53D0130F635F70D3B
:103FE000890BEE2F0310F80C7808031DF82FF92F1A
:103FF000E52FFA2F7508F1007408F000FF2F080074
:00000001FF
