:020000040000FA
:0400000080314728DC
:100008007E1480314E01961E0A280B2815288C1E56
:100018000E280F281528B2304B019C004E018C1277
:100028004528161E182819281F280C1E1C281D28AC
:100038001F28452845280B1F2228232845281A1C35
:10004800262827283328101C2A282B283328CF3085
:1000580044018D002B308C004E0110104528991E4C
:100068003628372845288F1E3A283B2845288131CD
:10007800152180314E018F124528452845284528ED
:1000880045287E10090080314928F701F801F90157
:1000980020308400003085000E3081313F218031CE
:1000A8007E104001803158288031DE208031AA300E
:1000B800F20072084001A000A101A10A4130A50088
:1000C8000930A4009930A3009A30A2004230A90058
:1000D800AD30A8003330A7003330A6004030AD0063
:1000E800E630AC006630AB006630AA006400CA286F
:1000F800F7012030F2007208F500F401F6010E3025
:100108007602031C882889288B28AF28AF28750811
:10011800860087010108F2007208F4067508860057
:100128008701010842019A000130F2007208F507C0
:1001380000009E284E010F1EA228A3289E28A4284E
:100148000130F2007208F6070E307602031CAD2863
:10015800AE288B28AF28740842019A000000B42802
:100168004E010F1EB828B928B4287A287A28F70132
:10017800FF3042019A000000C1284E010F1EC52819
:10018800C628C1287A287A287A287A287708F20097
:10019800F3017308003A0319D2287A287208013A41
:1001A80003197C28033A0319BB287A287A287A2865
:1001B8008031472802305101930060308D00E428D7
:1001C8000F1EE728E828E428E9280F307E01A4005C
:1001D800B801CE01400192012030940080304B01DB
:1001E8009E0047309F00B2309C00333044018E009F
:1001F80001309100CF308D002B308C0030304E0113
:1002080096002030990001309A00C0308B000830E9
:1002180042019F0019309B0090309D0020309E00C5
:10022800080042019D1C19291A2921291D121D1691
:100238000130F0007008F80721291D1D24292529FF
:100248002C299D139D170130F0007008F9072C29FF
:100258001908F0007008F1003F307106031D3529B8
:1002680036293929F701F70A3E290230F0007008CB
:10027800F7003E290800640080010131890B4029FC
:02028800003440
:020000040001F9
:0A000E00EF3FFF3F9F3FFF3FFF3F22
:00000001FF
